{
  "address": "0xDAE6Dd8a61279a12a8441d073d5D548d41aF5315",
  "abi": [
    {
      "inputs": [
        {
          "internalType": "string",
          "name": "_name",
          "type": "string"
        },
        {
          "internalType": "string",
          "name": "_symbol",
          "type": "string"
        },
        {
          "internalType": "address",
          "name": "owner",
          "type": "address"
        },
        {
          "internalType": "bool",
          "name": "_metadataUpdatable",
          "type": "bool"
        },
        {
          "internalType": "bool",
          "name": "_tokensBurnable",
          "type": "bool"
        },
        {
          "internalType": "bool",
          "name": "_tokensTransferable",
          "type": "bool"
        },
        {
          "internalType": "string",
          "name": "_initBaseURI",
          "type": "string"
        },
        {
          "internalType": "string",
          "name": "_defaultUri",
          "type": "string"
        },
        {
          "internalType": "address",
          "name": "_royaltiesAddress",
          "type": "address"
        },
        {
          "internalType": "uint96",
          "name": "_royaltiesBasisPoints",
          "type": "uint96"
        }
      ],
      "stateMutability": "nonpayable",
      "type": "constructor"
    },
    {
      "anonymous": false,
      "inputs": [
        {
          "indexed": true,
          "internalType": "address",
          "name": "account",
          "type": "address"
        },
        {
          "indexed": true,
          "internalType": "address",
          "name": "operator",
          "type": "address"
        },
        {
          "indexed": false,
          "internalType": "bool",
          "name": "approved",
          "type": "bool"
        }
      ],
      "name": "ApprovalForAll",
      "type": "event"
    },
    {
      "anonymous": false,
      "inputs": [
        {
          "indexed": false,
          "internalType": "string",
          "name": "_value",
          "type": "string"
        },
        {
          "indexed": true,
          "internalType": "uint256",
          "name": "_id",
          "type": "uint256"
        }
      ],
      "name": "PermanentURI",
      "type": "event"
    },
    {
      "anonymous": false,
      "inputs": [],
      "name": "PermanentURIGlobal",
      "type": "event"
    },
    {
      "anonymous": false,
      "inputs": [
        {
          "indexed": true,
          "internalType": "bytes32",
          "name": "role",
          "type": "bytes32"
        },
        {
          "indexed": true,
          "internalType": "bytes32",
          "name": "previousAdminRole",
          "type": "bytes32"
        },
        {
          "indexed": true,
          "internalType": "bytes32",
          "name": "newAdminRole",
          "type": "bytes32"
        }
      ],
      "name": "RoleAdminChanged",
      "type": "event"
    },
    {
      "anonymous": false,
      "inputs": [
        {
          "indexed": true,
          "internalType": "bytes32",
          "name": "role",
          "type": "bytes32"
        },
        {
          "indexed": true,
          "internalType": "address",
          "name": "account",
          "type": "address"
        },
        {
          "indexed": true,
          "internalType": "address",
          "name": "sender",
          "type": "address"
        }
      ],
      "name": "RoleGranted",
      "type": "event"
    },
    {
      "anonymous": false,
      "inputs": [
        {
          "indexed": true,
          "internalType": "bytes32",
          "name": "role",
          "type": "bytes32"
        },
        {
          "indexed": true,
          "internalType": "address",
          "name": "account",
          "type": "address"
        },
        {
          "indexed": true,
          "internalType": "address",
          "name": "sender",
          "type": "address"
        }
      ],
      "name": "RoleRevoked",
      "type": "event"
    },
    {
      "anonymous": false,
      "inputs": [
        {
          "indexed": true,
          "internalType": "address",
          "name": "operator",
          "type": "address"
        },
        {
          "indexed": true,
          "internalType": "address",
          "name": "from",
          "type": "address"
        },
        {
          "indexed": true,
          "internalType": "address",
          "name": "to",
          "type": "address"
        },
        {
          "indexed": false,
          "internalType": "uint256[]",
          "name": "ids",
          "type": "uint256[]"
        },
        {
          "indexed": false,
          "internalType": "uint256[]",
          "name": "values",
          "type": "uint256[]"
        }
      ],
      "name": "TransferBatch",
      "type": "event"
    },
    {
      "anonymous": false,
      "inputs": [
        {
          "indexed": true,
          "internalType": "address",
          "name": "operator",
          "type": "address"
        },
        {
          "indexed": true,
          "internalType": "address",
          "name": "from",
          "type": "address"
        },
        {
          "indexed": true,
          "internalType": "address",
          "name": "to",
          "type": "address"
        },
        {
          "indexed": false,
          "internalType": "uint256",
          "name": "id",
          "type": "uint256"
        },
        {
          "indexed": false,
          "internalType": "uint256",
          "name": "value",
          "type": "uint256"
        }
      ],
      "name": "TransferSingle",
      "type": "event"
    },
    {
      "anonymous": false,
      "inputs": [
        {
          "indexed": false,
          "internalType": "string",
          "name": "value",
          "type": "string"
        },
        {
          "indexed": true,
          "internalType": "uint256",
          "name": "id",
          "type": "uint256"
        }
      ],
      "name": "URI",
      "type": "event"
    },
    {
      "inputs": [],
      "name": "DEFAULT_ADMIN_ROLE",
      "outputs": [
        {
          "internalType": "bytes32",
          "name": "",
          "type": "bytes32"
        }
      ],
      "stateMutability": "view",
      "type": "function"
    },
    {
      "inputs": [],
      "name": "MINTER_ROLE",
      "outputs": [
        {
          "internalType": "bytes32",
          "name": "",
          "type": "bytes32"
        }
      ],
      "stateMutability": "view",
      "type": "function"
    },
    {
      "inputs": [
        {
          "internalType": "address",
          "name": "account",
          "type": "address"
        },
        {
          "internalType": "uint256",
          "name": "id",
          "type": "uint256"
        }
      ],
      "name": "balanceOf",
      "outputs": [
        {
          "internalType": "uint256",
          "name": "",
          "type": "uint256"
        }
      ],
      "stateMutability": "view",
      "type": "function"
    },
    {
      "inputs": [
        {
          "internalType": "address[]",
          "name": "accounts",
          "type": "address[]"
        },
        {
          "internalType": "uint256[]",
          "name": "ids",
          "type": "uint256[]"
        }
      ],
      "name": "balanceOfBatch",
      "outputs": [
        {
          "internalType": "uint256[]",
          "name": "",
          "type": "uint256[]"
        }
      ],
      "stateMutability": "view",
      "type": "function"
    },
    {
      "inputs": [],
      "name": "baseURI",
      "outputs": [
        {
          "internalType": "string",
          "name": "",
          "type": "string"
        }
      ],
      "stateMutability": "view",
      "type": "function"
    },
    {
      "inputs": [
        {
          "internalType": "uint256",
          "name": "id",
          "type": "uint256"
        },
        {
          "internalType": "uint256",
          "name": "value",
          "type": "uint256"
        }
      ],
      "name": "burn",
      "outputs": [],
      "stateMutability": "nonpayable",
      "type": "function"
    },
    {
      "inputs": [
        {
          "internalType": "uint256[]",
          "name": "ids",
          "type": "uint256[]"
        },
        {
          "internalType": "uint256[]",
          "name": "values",
          "type": "uint256[]"
        }
      ],
      "name": "burnBatch",
      "outputs": [],
      "stateMutability": "nonpayable",
      "type": "function"
    },
    {
      "inputs": [],
      "name": "contractURI",
      "outputs": [
        {
          "internalType": "string",
          "name": "",
          "type": "string"
        }
      ],
      "stateMutability": "view",
      "type": "function"
    },
    {
      "inputs": [
        {
          "internalType": "uint256",
          "name": "",
          "type": "uint256"
        }
      ],
      "name": "freezeTokenUris",
      "outputs": [
        {
          "internalType": "bool",
          "name": "",
          "type": "bool"
        }
      ],
      "stateMutability": "view",
      "type": "function"
    },
    {
      "inputs": [
        {
          "internalType": "bytes32",
          "name": "role",
          "type": "bytes32"
        }
      ],
      "name": "getRoleAdmin",
      "outputs": [
        {
          "internalType": "bytes32",
          "name": "",
          "type": "bytes32"
        }
      ],
      "stateMutability": "view",
      "type": "function"
    },
    {
      "inputs": [
        {
          "internalType": "bytes32",
          "name": "role",
          "type": "bytes32"
        },
        {
          "internalType": "address",
          "name": "account",
          "type": "address"
        }
      ],
      "name": "grantRole",
      "outputs": [],
      "stateMutability": "nonpayable",
      "type": "function"
    },
    {
      "inputs": [
        {
          "internalType": "bytes32",
          "name": "role",
          "type": "bytes32"
        },
        {
          "internalType": "address",
          "name": "account",
          "type": "address"
        }
      ],
      "name": "hasRole",
      "outputs": [
        {
          "internalType": "bool",
          "name": "",
          "type": "bool"
        }
      ],
      "stateMutability": "view",
      "type": "function"
    },
    {
      "inputs": [
        {
          "internalType": "address",
          "name": "account",
          "type": "address"
        },
        {
          "internalType": "address",
          "name": "operator",
          "type": "address"
        }
      ],
      "name": "isApprovedForAll",
      "outputs": [
        {
          "internalType": "bool",
          "name": "",
          "type": "bool"
        }
      ],
      "stateMutability": "view",
      "type": "function"
    },
    {
      "inputs": [],
      "name": "metadataUpdatable",
      "outputs": [
        {
          "internalType": "bool",
          "name": "",
          "type": "bool"
        }
      ],
      "stateMutability": "view",
      "type": "function"
    },
    {
      "inputs": [
        {
          "internalType": "address",
          "name": "account",
          "type": "address"
        },
        {
          "internalType": "uint256",
          "name": "id",
          "type": "uint256"
        },
        {
          "internalType": "uint256",
          "name": "amount",
          "type": "uint256"
        },
        {
          "internalType": "string",
          "name": "uri",
          "type": "string"
        }
      ],
      "name": "mintByOwner",
      "outputs": [],
      "stateMutability": "nonpayable",
      "type": "function"
    },
    {
      "inputs": [
        {
          "internalType": "address[]",
          "name": "to",
          "type": "address[]"
        },
        {
          "internalType": "uint256[]",
          "name": "ids",
          "type": "uint256[]"
        },
        {
          "internalType": "uint256[]",
          "name": "amounts",
          "type": "uint256[]"
        },
        {
          "internalType": "string[]",
          "name": "uris",
          "type": "string[]"
        }
      ],
      "name": "mintByOwnerBatch",
      "outputs": [],
      "stateMutability": "nonpayable",
      "type": "function"
    },
    {
      "inputs": [],
      "name": "name",
      "outputs": [
        {
          "internalType": "string",
          "name": "",
          "type": "string"
        }
      ],
      "stateMutability": "view",
      "type": "function"
    },
    {
      "inputs": [],
      "name": "owner",
      "outputs": [
        {
          "internalType": "address",
          "name": "",
          "type": "address"
        }
      ],
      "stateMutability": "view",
      "type": "function"
    },
    {
      "inputs": [
        {
          "internalType": "bytes32",
          "name": "role",
          "type": "bytes32"
        },
        {
          "internalType": "address",
          "name": "account",
          "type": "address"
        }
      ],
      "name": "renounceRole",
      "outputs": [],
      "stateMutability": "nonpayable",
      "type": "function"
    },
    {
      "inputs": [
        {
          "internalType": "bytes32",
          "name": "role",
          "type": "bytes32"
        },
        {
          "internalType": "address",
          "name": "account",
          "type": "address"
        }
      ],
      "name": "revokeRole",
      "outputs": [],
      "stateMutability": "nonpayable",
      "type": "function"
    },
    {
      "inputs": [],
      "name": "royaltiesAddress",
      "outputs": [
        {
          "internalType": "address",
          "name": "",
          "type": "address"
        }
      ],
      "stateMutability": "view",
      "type": "function"
    },
    {
      "inputs": [],
      "name": "royaltiesBasisPoints",
      "outputs": [
        {
          "internalType": "uint256",
          "name": "",
          "type": "uint256"
        }
      ],
      "stateMutability": "view",
      "type": "function"
    },
    {
      "inputs": [
        {
          "internalType": "uint256",
          "name": "tokenId",
          "type": "uint256"
        },
        {
          "internalType": "uint256",
          "name": "salePrice",
          "type": "uint256"
        }
      ],
      "name": "royaltyInfo",
      "outputs": [
        {
          "internalType": "address",
          "name": "",
          "type": "address"
        },
        {
          "internalType": "uint256",
          "name": "",
          "type": "uint256"
        }
      ],
      "stateMutability": "view",
      "type": "function"
    },
    {
      "inputs": [
        {
          "internalType": "address",
          "name": "from",
          "type": "address"
        },
        {
          "internalType": "address",
          "name": "to",
          "type": "address"
        },
        {
          "internalType": "uint256[]",
          "name": "ids",
          "type": "uint256[]"
        },
        {
          "internalType": "uint256[]",
          "name": "amounts",
          "type": "uint256[]"
        },
        {
          "internalType": "bytes",
          "name": "data",
          "type": "bytes"
        }
      ],
      "name": "safeBatchTransferFrom",
      "outputs": [],
      "stateMutability": "nonpayable",
      "type": "function"
    },
    {
      "inputs": [
        {
          "internalType": "address",
          "name": "from",
          "type": "address"
        },
        {
          "internalType": "address",
          "name": "to",
          "type": "address"
        },
        {
          "internalType": "uint256",
          "name": "id",
          "type": "uint256"
        },
        {
          "internalType": "uint256",
          "name": "amount",
          "type": "uint256"
        },
        {
          "internalType": "bytes",
          "name": "data",
          "type": "bytes"
        }
      ],
      "name": "safeTransferFrom",
      "outputs": [],
      "stateMutability": "nonpayable",
      "type": "function"
    },
    {
      "inputs": [
        {
          "internalType": "address",
          "name": "operator",
          "type": "address"
        },
        {
          "internalType": "bool",
          "name": "approved",
          "type": "bool"
        }
      ],
      "name": "setApprovalForAll",
      "outputs": [],
      "stateMutability": "nonpayable",
      "type": "function"
    },
    {
      "inputs": [
        {
          "internalType": "string",
          "name": "_newURI",
          "type": "string"
        }
      ],
      "name": "setURI",
      "outputs": [],
      "stateMutability": "nonpayable",
      "type": "function"
    },
    {
      "inputs": [
        {
          "internalType": "bytes4",
          "name": "interfaceId",
          "type": "bytes4"
        }
      ],
      "name": "supportsInterface",
      "outputs": [
        {
          "internalType": "bool",
          "name": "",
          "type": "bool"
        }
      ],
      "stateMutability": "view",
      "type": "function"
    },
    {
      "inputs": [],
      "name": "symbol",
      "outputs": [
        {
          "internalType": "string",
          "name": "",
          "type": "string"
        }
      ],
      "stateMutability": "view",
      "type": "function"
    },
    {
      "inputs": [
        {
          "internalType": "uint256",
          "name": "",
          "type": "uint256"
        }
      ],
      "name": "tokenSupply",
      "outputs": [
        {
          "internalType": "uint256",
          "name": "",
          "type": "uint256"
        }
      ],
      "stateMutability": "view",
      "type": "function"
    },
    {
      "inputs": [],
      "name": "tokensBurnable",
      "outputs": [
        {
          "internalType": "bool",
          "name": "",
          "type": "bool"
        }
      ],
      "stateMutability": "view",
      "type": "function"
    },
    {
      "inputs": [],
      "name": "tokensTransferable",
      "outputs": [
        {
          "internalType": "bool",
          "name": "",
          "type": "bool"
        }
      ],
      "stateMutability": "view",
      "type": "function"
    },
    {
      "inputs": [
        {
          "internalType": "uint256",
          "name": "_id",
          "type": "uint256"
        }
      ],
      "name": "totalSupply",
      "outputs": [
        {
          "internalType": "uint256",
          "name": "",
          "type": "uint256"
        }
      ],
      "stateMutability": "view",
      "type": "function"
    },
    {
      "inputs": [
        {
          "internalType": "address",
          "name": "to",
          "type": "address"
        },
        {
          "internalType": "uint256",
          "name": "id",
          "type": "uint256"
        },
        {
          "internalType": "uint256",
          "name": "amount",
          "type": "uint256"
        }
      ],
      "name": "transferByOwner",
      "outputs": [],
      "stateMutability": "nonpayable",
      "type": "function"
    },
    {
      "inputs": [
        {
          "internalType": "address[]",
          "name": "to",
          "type": "address[]"
        },
        {
          "internalType": "uint256[]",
          "name": "ids",
          "type": "uint256[]"
        },
        {
          "internalType": "uint256[]",
          "name": "amounts",
          "type": "uint256[]"
        }
      ],
      "name": "transferByOwnerBatch",
      "outputs": [],
      "stateMutability": "nonpayable",
      "type": "function"
    },
    {
      "inputs": [
        {
          "internalType": "string",
          "name": "_newBaseURI",
          "type": "string"
        },
        {
          "internalType": "bool",
          "name": "_tokensTransferable",
          "type": "bool"
        },
        {
          "internalType": "bool",
          "name": "_freezeUpdates",
          "type": "bool"
        },
        {
          "internalType": "address",
          "name": "_royaltiesAddress",
          "type": "address"
        },
        {
          "internalType": "uint96",
          "name": "_royaltiesBasisPoints",
          "type": "uint96"
        }
      ],
      "name": "update",
      "outputs": [],
      "stateMutability": "nonpayable",
      "type": "function"
    },
    {
      "inputs": [
        {
          "internalType": "uint256",
          "name": "_tokenId",
          "type": "uint256"
        },
        {
          "internalType": "string",
          "name": "_newUri",
          "type": "string"
        },
        {
          "internalType": "bool",
          "name": "_isFreezeTokenUri",
          "type": "bool"
        }
      ],
      "name": "updateTokenUri",
      "outputs": [],
      "stateMutability": "nonpayable",
      "type": "function"
    },
    {
      "inputs": [
        {
          "internalType": "uint256",
          "name": "_id",
          "type": "uint256"
        }
      ],
      "name": "uri",
      "outputs": [
        {
          "internalType": "string",
          "name": "",
          "type": "string"
        }
      ],
      "stateMutability": "view",
      "type": "function"
    }
  ],
  "transactionHash": "0x1de61511402033a7a90416341a6cce98a4b0984ae6c033c61e2b5f955d747c4d",
  "args": [
    "NFTPort",
    "NFT",
    "0xE7D7696C8f11278124f39fB7cDd39fD9442D5026",
    true,
    true,
    true,
    "ipfs://baseURI",
    "",
    "0xE7D7696C8f11278124f39fB7cDd39fD9442D5026",
    250
  ],
  "numDeployments": 2,
  "solcInputHash": "c0208e93fc826ed81c40cd5d2f51f5a9",
  "bytecode": "0x60806040523480156200001157600080fd5b5060405162003dd738038062003dd78339810160408190526200003491620003d2565b82620000408162000153565b506200004e6000896200016c565b6200006960008051602062003db7833981519152896200016c565b6200008460008051602062003db7833981519152336200016c565b600880546001600160a01b0319166001600160a01b0384161790556001600160601b0381166009556004805461ffff60a01b1916600160a01b8915150260ff60a81b191617600160a81b881515021760ff60b01b1916600160b01b871515021790558351620000fb90600790602087019062000219565b50600480546001600160a01b0319166001600160a01b038a1617905589516200012c9060059060208d019062000219565b508851620001429060069060208c019062000219565b50505050505050505050506200053a565b80516200016890600290602084019062000219565b5050565b60008281526003602090815260408083206001600160a01b038516845290915290205462000168908390839060ff16620001685760008281526003602090815260408083206001600160a01b03851684529091529020805460ff19166001179055620001d53390565b6001600160a01b0316816001600160a01b0316837f2f8788117e7eff1d82e926ec794901d17c78024a50270940304540a733656f0d60405160405180910390a45050565b8280546200022790620004fd565b90600052602060002090601f0160209004810192826200024b576000855562000296565b82601f106200026657805160ff191683800117855562000296565b8280016001018555821562000296579182015b828111156200029657825182559160200191906001019062000279565b50620002a4929150620002a8565b5090565b5b80821115620002a45760008155600101620002a9565b634e487b7160e01b600052604160045260246000fd5b600082601f830112620002e757600080fd5b81516001600160401b0380821115620003045762000304620002bf565b604051601f8301601f19908116603f011681019082821181831017156200032f576200032f620002bf565b816040528381526020925086838588010111156200034c57600080fd5b600091505b8382101562000370578582018301518183018401529082019062000351565b83821115620003825760008385830101525b9695505050505050565b80516001600160a01b0381168114620003a457600080fd5b919050565b80518015158114620003a457600080fd5b80516001600160601b0381168114620003a457600080fd5b6000806000806000806000806000806101408b8d031215620003f357600080fd5b8a516001600160401b03808211156200040b57600080fd5b620004198e838f01620002d5565b9b5060208d01519150808211156200043057600080fd5b6200043e8e838f01620002d5565b9a506200044e60408e016200038c565b99506200045e60608e01620003a9565b98506200046e60808e01620003a9565b97506200047e60a08e01620003a9565b965060c08d01519150808211156200049557600080fd5b620004a38e838f01620002d5565b955060e08d0151915080821115620004ba57600080fd5b50620004c98d828e01620002d5565b935050620004db6101008c016200038c565b9150620004ec6101208c01620003ba565b90509295989b9194979a5092959850565b600181811c908216806200051257607f821691505b602082108114156200053457634e487b7160e01b600052602260045260246000fd5b50919050565b61386d806200054a6000396000f3fe608060405234801561001057600080fd5b50600436106102315760003560e01c806383ca4b6f11610130578063b390c0ab116100b8578063e3d520721161007c578063e3d5207214610525578063e8a3d48514610539578063e985e9c514610541578063f242432a1461057d578063ff0a9f511461059057600080fd5b8063b390c0ab146104b6578063bd85b039146104c9578063d5391393146104e9578063d547741f146104fe578063de374d9d1461051157600080fd5b806395d89b41116100ff57806395d89b4114610477578063a217fddf1461047f578063a22cb46514610487578063a2f551ec1461049a578063a53a84b6146104ad57600080fd5b806383ca4b6f1461041d5780638d010db3146104305780638da5cb5b1461045357806391d148541461046457600080fd5b80632693ebf2116101be57806336568abe1161018257806336568abe146103bb5780634e1273f4146103ce5780634e6f9dd6146103ee5780636c0360eb146104025780637e712f381461040a57600080fd5b80632693ebf2146103185780632a55205a146103385780632eb2c2d61461036a5780632f2ff15d1461037d578063328825351461039057600080fd5b80630e89341c116102055780630e89341c146102a9578063152bb24a146102bc57806320333b13146102cf578063224a1775146102e2578063248a9ca3146102f557600080fd5b8062fdd58e1461023657806301ffc9a71461025c57806302fe53051461027f57806306fdde0314610294575b600080fd5b610249610244366004612827565b6105a3565b6040519081526020015b60405180910390f35b61026f61026a36600461286a565b61063a565b6040519015158152602001610253565b61029261028d36600461293c565b610666565b005b61029c61068c565b60405161025391906129c8565b61029c6102b73660046129db565b61071a565b6102926102ca366004612a04565b61083f565b6102926102dd366004612a98565b61094a565b6102926102f0366004612af8565b610a64565b6102496103033660046129db565b60009081526003602052604090206001015490565b6102496103263660046129db565b600b6020526000908152604090205481565b61034b610346366004612b2b565b610ad7565b604080516001600160a01b039093168352602083019190915201610253565b610292610378366004612be1565b610b12565b61029261038b366004612c8a565b610ba9565b6008546103a3906001600160a01b031681565b6040516001600160a01b039091168152602001610253565b6102926103c9366004612c8a565b610bd4565b6103e16103dc366004612d23565b610c4e565b6040516102539190612dc1565b60045461026f90600160a01b900460ff1681565b61029c610d77565b610292610418366004612dd4565b610d84565b61029261042b366004612e5b565b610e5a565b61026f61043e3660046129db565b600a6020526000908152604090205460ff1681565b6004546001600160a01b03166103a3565b61026f610472366004612c8a565b610f5c565b61029c610f87565b610249600081565b610292610495366004612e91565b610f94565b6102926104a8366004612ebb565b610f9f565b61024960095481565b6102926104c4366004612b2b565b6112cd565b6102496104d73660046129db565b6000908152600b602052604090205490565b61024960008051602061381883398151915281565b61029261050c366004612c8a565b61137e565b60045461026f90600160b01b900460ff1681565b60045461026f90600160a81b900460ff1681565b61029c6113a4565b61026f61054f366004612f11565b6001600160a01b03918216600090815260016020908152604080832093909416825291909152205460ff1690565b61029261058b366004612f3b565b61141e565b61029261059e366004612f9f565b6114a5565b60006001600160a01b0383166106145760405162461bcd60e51b815260206004820152602b60248201527f455243313135353a2062616c616e636520717565727920666f7220746865207a60448201526a65726f206164647265737360a81b60648201526084015b60405180910390fd5b506000908152602081815260408083206001600160a01b03949094168352929052205490565b60006106458261180e565b8061066057506001600160e01b0319821663152a902d60e11b145b92915050565b60008051602061381883398151915261067f813361185e565b610688826118c2565b5050565b60058054610699906130c3565b80601f01602080910402602001604051908101604052809291908181526020018280546106c5906130c3565b80156107125780601f106106e757610100808354040283529160200191610712565b820191906000526020600020905b8154815290600101906020018083116106f557829003601f168201915b505050505081565b6000818152600c6020526040812080546060929190610738906130c3565b905011156108315760006007805461074f906130c3565b90501115610793576007600c600084815260200190815260200160002060405160200161077d92919061316d565b6040516020818303038152906040529050919050565b6000828152600c6020526040902080546107ac906130c3565b80601f01602080910402602001604051908101604052809291908181526020018280546107d8906130c3565b80156108255780601f106107fa57610100808354040283529160200191610825565b820191906000526020600020905b81548152906001019060200180831161080857829003601f168201915b50505050509050919050565b610660826118d5565b919050565b600080516020613818833981519152610858813361185e565b600454600160a01b900460ff166108b15760405162461bcd60e51b815260206004820181905260248201527f4e46543a20436f6e74726163742075706461746573206172652066726f7a656e604482015260640161060b565b85516108c4906007906020890190612777565b50600880546001600160a01b0319166001600160a01b0385161790556bffffffffffffffffffffffff821660095584610905576004805460ff60b01b191690555b8315610942576004805460ff60a01b191690556040517fb59f45df38ec0d34114b1248c38a29cdbccbf3e745ae3ef310ac66199a4ceccf90600090a15b505050505050565b600080516020613818833981519152610963813361185e565b6000848152600b6020526040902054156109bf5760405162461bcd60e51b815260206004820152601960248201527f4e46543a20746f6b656e20616c7265616479206d696e74656400000000000000604482015260640161060b565b815115610a1f576000848152600c6020908152604090912083516109e592850190612777565b50837f6bb7ff708619ba0610cba295a58592e0451dee2622938c8755667688daf3529b83604051610a1691906129c8565b60405180910390a25b610a3a858585604051806020016040528060008152506118e4565b6000848152600b602052604081208054859290610a58908490613198565b90915550505050505050565b600080516020613818833981519152610a7d813361185e565b600454600160b01b900460ff16610aa65760405162461bcd60e51b815260040161060b906131b0565b600454604080516020810190915260008152610ad1916001600160a01b0316908690869086906119ee565b50505050565b60085460095460009182916001600160a01b039091169061271090610afd9086906131f4565b610b079190613229565b915091509250929050565b6001600160a01b038516331480610b2e5750610b2e853361054f565b610b955760405162461bcd60e51b815260206004820152603260248201527f455243313135353a207472616e736665722063616c6c6572206973206e6f74206044820152711bdddb995c881b9bdc88185c1c1c9bdd995960721b606482015260840161060b565b610ba28585858585611b0b565b5050505050565b600082815260036020526040902060010154610bc5813361185e565b610bcf8383611c9f565b505050565b6001600160a01b0381163314610c445760405162461bcd60e51b815260206004820152602f60248201527f416363657373436f6e74726f6c3a2063616e206f6e6c792072656e6f756e636560448201526e103937b632b9903337b91039b2b63360891b606482015260840161060b565b6106888282611d25565b60608151835114610cb35760405162461bcd60e51b815260206004820152602960248201527f455243313135353a206163636f756e747320616e6420696473206c656e677468604482015268040dad2e6dac2e8c6d60bb1b606482015260840161060b565b600083516001600160401b03811115610cce57610cce612887565b604051908082528060200260200182016040528015610cf7578160200160208202803683370190505b50905060005b8451811015610d6f57610d42858281518110610d1b57610d1b61323d565b6020026020010151858381518110610d3557610d3561323d565b60200260200101516105a3565b828281518110610d5457610d5461323d565b6020908102919091010152610d6881613253565b9050610cfd565b509392505050565b60078054610699906130c3565b600080516020613818833981519152610d9d813361185e565b600454600160b01b900460ff16610dc65760405162461bcd60e51b815260040161060b906131b0565b60005b8351811015610ba2576004548551610e48916001600160a01b031690879084908110610df757610df761323d565b6020026020010151868481518110610e1157610e1161323d565b6020026020010151868581518110610e2b57610e2b61323d565b6020026020010151604051806020016040528060008152506119ee565b80610e5281613253565b915050610dc9565b600080516020613818833981519152610e73813361185e565b600454600160a81b900460ff16610ecc5760405162461bcd60e51b815260206004820152601f60248201527f4e46543a20746f6b656e73206275726e696e672069732064697361626c656400604482015260640161060b565b600454610ee3906001600160a01b03168484611d8c565b60005b8351811015610ad157828181518110610f0157610f0161323d565b6020026020010151600b6000868481518110610f1f57610f1f61323d565b602002602001015181526020019081526020016000206000828254610f44919061326e565b90915550819050610f5481613253565b915050610ee6565b60009182526003602090815260408084206001600160a01b0393909316845291905290205460ff1690565b60068054610699906130c3565b610688338383611f08565b600080516020613818833981519152610fb8813361185e565b6000848152600b60205260409020546110275760405162461bcd60e51b815260206004820152602b60248201527f4e46543a207570646174652055524920717565727920666f72206e6f6e65786960448201526a39ba32b73a103a37b5b2b760a91b606482015260840161060b565b600454600160a01b900460ff1661108c5760405162461bcd60e51b815260206004820152602360248201527f4e46543a20546f6b656e2075726973206172652066726f7a656e20676c6f62616044820152626c6c7960e81b606482015260840161060b565b6000848152600a602052604090205460ff161515600114156110e75760405162461bcd60e51b815260206004820152601460248201527327232a1d102a37b5b2b71034b990333937bd32b760611b604482015260640161060b565b81806110f35750825115155b61115e5760405162461bcd60e51b815260206004820152603660248201527f4e46543a20456974686572205f6e6577557269206f72205f6973467265657a65604482015275151bdad95b955c9a4f5d1c9d59481c995c5d5a5c995960521b606482015260840161060b565b82511561126457826040516020016111769190613285565b60408051601f1981840301815282825280516020918201206000888152600c90925291902090916111a791906132a1565b6040518091039020141561120b5760405162461bcd60e51b815260206004820152602560248201527f4e46543a204e657720746f6b656e205552492069732073616d6520617320757060448201526419185d195960da1b606482015260840161060b565b6000848152600c60209081526040909120845161122a92860190612777565b50837f6bb7ff708619ba0610cba295a58592e0451dee2622938c8755667688daf3529b8460405161125b91906129c8565b60405180910390a25b8115610ad1576000848152600a60209081526040808320805460ff19166001179055600c90915290819020905185917fa109ba539900bf1b633f956d63c96fc89b814c7287f7aa50a9216d0b55657207916112bf91906132ad565b60405180910390a250505050565b6000805160206138188339815191526112e6813361185e565b600454600160a81b900460ff1661133f5760405162461bcd60e51b815260206004820152601f60248201527f4e46543a20746f6b656e73206275726e696e672069732064697361626c656400604482015260640161060b565b600454611356906001600160a01b03168484611fe9565b6000838152600b60205260408120805484929061137490849061326e565b9091555050505050565b60008281526003602052604090206001015461139a813361185e565b610bcf8383611d25565b606060006113f26113b66009546120eb565b6008546113cd906001600160a01b031660146121f0565b6040516020016113de929190613332565b604051602081830303815290604052612392565b905060008160405160200161140791906133b9565b60408051601f198184030181529190529392505050565b6001600160a01b03851633148061143a575061143a853361054f565b6114985760405162461bcd60e51b815260206004820152602960248201527f455243313135353a2063616c6c6572206973206e6f74206f776e6572206e6f7260448201526808185c1c1c9bdd995960ba1b606482015260840161060b565b610ba285858585856119ee565b6000805160206138188339815191526114be813361185e565b60005b8451811015610942576114fb8582815181106114df576114df61323d565b60200260200101516000908152600b6020526040902054151590565b156115565760405162461bcd60e51b815260206004820152602560248201527f4e46543a206f6e65206f6620746f6b656e732061726520616c7265616479206d6044820152641a5b9d195960da1b606482015260840161060b565b8581815181106115685761156861323d565b60200260200101516001600160a01b031686828151811061158b5761158b61323d565b60200260200101516001600160a01b0316146115e95760405162461bcd60e51b815260206004820181905260248201527f4e46543a206f6e65206f662061646472657373657320697320696e76616c6964604482015260640161060b565b60008482815181106115fd576115fd61323d565b6020026020010151116116525760405162461bcd60e51b815260206004820152601c60248201527f4e46543a20616c6c20616d6f756e7473206d757374206265203e203000000000604482015260640161060b565b8381815181106116645761166461323d565b6020026020010151600b60008784815181106116825761168261323d565b6020026020010151815260200190815260200160002060008282546116a79190613198565b9250508190555060008382815181106116c2576116c261323d565b6020026020010151511115611796578281815181106116e3576116e361323d565b6020026020010151600c60008784815181106117015761170161323d565b60200260200101518152602001908152602001600020908051906020019061172a929190612777565b5084818151811061173d5761173d61323d565b60200260200101517f6bb7ff708619ba0610cba295a58592e0451dee2622938c8755667688daf3529b8483815181106117785761177861323d565b602002602001015160405161178d91906129c8565b60405180910390a25b6117fc8682815181106117ab576117ab61323d565b60200260200101518683815181106117c5576117c561323d565b60200260200101518684815181106117df576117df61323d565b6020026020010151604051806020016040528060008152506118e4565b8061180681613253565b9150506114c1565b60006001600160e01b03198216636cdb3d1360e11b148061183f57506001600160e01b031982166303a24d0760e21b145b8061066057506301ffc9a760e01b6001600160e01b0319831614610660565b6118688282610f5c565b61068857611880816001600160a01b031660146121f0565b61188b8360206121f0565b60405160200161189c9291906133fe565b60408051601f198184030181529082905262461bcd60e51b825261060b916004016129c8565b8051610688906002906020840190612777565b6060600280546107ac906130c3565b6001600160a01b0384166119445760405162461bcd60e51b815260206004820152602160248201527f455243313135353a206d696e7420746f20746865207a65726f206164647265736044820152607360f81b606482015260840161060b565b3361195e81600087611955886124f7565b610ba2886124f7565b6000848152602081815260408083206001600160a01b03891684529091528120805485929061198e908490613198565b909155505060408051858152602081018590526001600160a01b0380881692600092918516917fc3d58168c5ae7397731d063d5bbf3d657854427343f4c083240f7aacaa2d0f62910160405180910390a4610ba281600087878787612542565b6001600160a01b038416611a145760405162461bcd60e51b815260040161060b90613473565b33611a24818787611955886124f7565b6000848152602081815260408083206001600160a01b038a16845290915290205483811015611a655760405162461bcd60e51b815260040161060b906134b8565b6000858152602081815260408083206001600160a01b038b8116855292528083208785039055908816825281208054869290611aa2908490613198565b909155505060408051868152602081018690526001600160a01b03808916928a821692918616917fc3d58168c5ae7397731d063d5bbf3d657854427343f4c083240f7aacaa2d0f62910160405180910390a4611b02828888888888612542565b50505050505050565b8151835114611b2c5760405162461bcd60e51b815260040161060b90613502565b6001600160a01b038416611b525760405162461bcd60e51b815260040161060b90613473565b3360005b8451811015611c39576000858281518110611b7357611b7361323d565b602002602001015190506000858381518110611b9157611b9161323d565b602090810291909101810151600084815280835260408082206001600160a01b038e168352909352919091205490915081811015611be15760405162461bcd60e51b815260040161060b906134b8565b6000838152602081815260408083206001600160a01b038e8116855292528083208585039055908b16825281208054849290611c1e908490613198565b9250508190555050505080611c3290613253565b9050611b56565b50846001600160a01b0316866001600160a01b0316826001600160a01b03167f4a39dc06d4c0dbc64b70af90fd698a233a518aa5d07e595d983b8c0526c8f7fb8787604051611c8992919061354a565b60405180910390a46109428187878787876126ad565b611ca98282610f5c565b6106885760008281526003602090815260408083206001600160a01b03851684529091529020805460ff19166001179055611ce13390565b6001600160a01b0316816001600160a01b0316837f2f8788117e7eff1d82e926ec794901d17c78024a50270940304540a733656f0d60405160405180910390a45050565b611d2f8282610f5c565b156106885760008281526003602090815260408083206001600160a01b0385168085529252808320805460ff1916905551339285917ff6391f5c32d9c69d2a47ea670b442974b53935d1edc7fd64eb21e047a839171b9190a45050565b6001600160a01b038316611db25760405162461bcd60e51b815260040161060b90613578565b8051825114611dd35760405162461bcd60e51b815260040161060b90613502565b604080516020810190915260009081905233905b8351811015611ea9576000848281518110611e0457611e0461323d565b602002602001015190506000848381518110611e2257611e2261323d565b602090810291909101810151600084815280835260408082206001600160a01b038c168352909352919091205490915081811015611e725760405162461bcd60e51b815260040161060b906135bb565b6000928352602083815260408085206001600160a01b038b1686529091529092209103905580611ea181613253565b915050611de7565b5060006001600160a01b0316846001600160a01b0316826001600160a01b03167f4a39dc06d4c0dbc64b70af90fd698a233a518aa5d07e595d983b8c0526c8f7fb8686604051611efa92919061354a565b60405180910390a450505050565b816001600160a01b0316836001600160a01b03161415611f7c5760405162461bcd60e51b815260206004820152602960248201527f455243313135353a2073657474696e6720617070726f76616c20737461747573604482015268103337b91039b2b63360b91b606482015260840161060b565b6001600160a01b03838116600081815260016020908152604080832094871680845294825291829020805460ff191686151590811790915591519182527f17307eab39ab6107e8899845ad3d59bd9653f200f220920489ca2b5937696c31910160405180910390a3505050565b6001600160a01b03831661200f5760405162461bcd60e51b815260040161060b90613578565b3361203f81856000612020876124f7565b612029876124f7565b5050604080516020810190915260009052505050565b6000838152602081815260408083206001600160a01b0388168452909152902054828110156120805760405162461bcd60e51b815260040161060b906135bb565b6000848152602081815260408083206001600160a01b03898116808652918452828520888703905582518981529384018890529092908616917fc3d58168c5ae7397731d063d5bbf3d657854427343f4c083240f7aacaa2d0f62910160405180910390a45050505050565b60608161210f5750506040805180820190915260018152600360fc1b602082015290565b8160005b8115612139578061212381613253565b91506121329050600a83613229565b9150612113565b6000816001600160401b0381111561215357612153612887565b6040519080825280601f01601f19166020018201604052801561217d576020820181803683370190505b5090505b84156121e85761219260018361326e565b915061219f600a866135ff565b6121aa906030613198565b60f81b8183815181106121bf576121bf61323d565b60200101906001600160f81b031916908160001a9053506121e1600a86613229565b9450612181565b949350505050565b606060006121ff8360026131f4565b61220a906002613198565b6001600160401b0381111561222157612221612887565b6040519080825280601f01601f19166020018201604052801561224b576020820181803683370190505b509050600360fc1b816000815181106122665761226661323d565b60200101906001600160f81b031916908160001a905350600f60fb1b816001815181106122955761229561323d565b60200101906001600160f81b031916908160001a90535060006122b98460026131f4565b6122c4906001613198565b90505b600181111561233c576f181899199a1a9b1b9c1cb0b131b232b360811b85600f16601081106122f8576122f861323d565b1a60f81b82828151811061230e5761230e61323d565b60200101906001600160f81b031916908160001a90535060049490941c9361233581613613565b90506122c7565b50831561238b5760405162461bcd60e51b815260206004820181905260248201527f537472696e67733a20686578206c656e67746820696e73756666696369656e74604482015260640161060b565b9392505050565b8051606090806123b2575050604080516020810190915260008152919050565b600060036123c1836002613198565b6123cb9190613229565b6123d69060046131f4565b905060006123e5826020613198565b6001600160401b038111156123fc576123fc612887565b6040519080825280601f01601f191660200182016040528015612426576020820181803683370190505b50905060006040518060600160405280604081526020016137d8604091399050600181016020830160005b868110156124b2576003818a01810151603f601282901c8116860151600c83901c8216870151600684901c831688015192909316870151600891821b60ff94851601821b92841692909201901b91160160e01b835260049092019101612451565b5060038606600181146124cc57600281146124dd576124e9565b613d3d60f01b6001198301526124e9565b603d60f81b6000198301525b505050918152949350505050565b604080516001808252818301909252606091600091906020808301908036833701905050905082816000815181106125315761253161323d565b602090810291909101015292915050565b6001600160a01b0384163b156109425760405163f23a6e6160e01b81526001600160a01b0385169063f23a6e6190612586908990899088908890889060040161362a565b602060405180830381600087803b1580156125a057600080fd5b505af19250505080156125d0575060408051601f3d908101601f191682019092526125cd9181019061366f565b60015b61267d576125dc61368c565b806308c379a0141561261657506125f16136a8565b806125fc5750612618565b8060405162461bcd60e51b815260040161060b91906129c8565b505b60405162461bcd60e51b815260206004820152603460248201527f455243313135353a207472616e7366657220746f206e6f6e20455243313135356044820152732932b1b2b4bb32b91034b6b83632b6b2b73a32b960611b606482015260840161060b565b6001600160e01b0319811663f23a6e6160e01b14611b025760405162461bcd60e51b815260040161060b90613731565b6001600160a01b0384163b156109425760405163bc197c8160e01b81526001600160a01b0385169063bc197c81906126f19089908990889088908890600401613779565b602060405180830381600087803b15801561270b57600080fd5b505af192505050801561273b575060408051601f3d908101601f191682019092526127389181019061366f565b60015b612747576125dc61368c565b6001600160e01b0319811663bc197c8160e01b14611b025760405162461bcd60e51b815260040161060b90613731565b828054612783906130c3565b90600052602060002090601f0160209004810192826127a557600085556127eb565b82601f106127be57805160ff19168380011785556127eb565b828001600101855582156127eb579182015b828111156127eb5782518255916020019190600101906127d0565b506127f79291506127fb565b5090565b5b808211156127f757600081556001016127fc565b80356001600160a01b038116811461083a57600080fd5b6000806040838503121561283a57600080fd5b61284383612810565b946020939093013593505050565b6001600160e01b03198116811461286757600080fd5b50565b60006020828403121561287c57600080fd5b813561238b81612851565b634e487b7160e01b600052604160045260246000fd5b601f8201601f191681016001600160401b03811182821017156128c2576128c2612887565b6040525050565b600082601f8301126128da57600080fd5b81356001600160401b038111156128f3576128f3612887565b60405161290a601f8301601f19166020018261289d565b81815284602083860101111561291f57600080fd5b816020850160208301376000918101602001919091529392505050565b60006020828403121561294e57600080fd5b81356001600160401b0381111561296457600080fd5b6121e8848285016128c9565b60005b8381101561298b578181015183820152602001612973565b83811115610ad15750506000910152565b600081518084526129b4816020860160208601612970565b601f01601f19169290920160200192915050565b60208152600061238b602083018461299c565b6000602082840312156129ed57600080fd5b5035919050565b8035801515811461083a57600080fd5b600080600080600060a08688031215612a1c57600080fd5b85356001600160401b03811115612a3257600080fd5b612a3e888289016128c9565b955050612a4d602087016129f4565b9350612a5b604087016129f4565b9250612a6960608701612810565b915060808601356bffffffffffffffffffffffff81168114612a8a57600080fd5b809150509295509295909350565b60008060008060808587031215612aae57600080fd5b612ab785612810565b9350602085013592506040850135915060608501356001600160401b03811115612ae057600080fd5b612aec878288016128c9565b91505092959194509250565b600080600060608486031215612b0d57600080fd5b612b1684612810565b95602085013595506040909401359392505050565b60008060408385031215612b3e57600080fd5b50508035926020909101359150565b60006001600160401b03821115612b6657612b66612887565b5060051b60200190565b600082601f830112612b8157600080fd5b81356020612b8e82612b4d565b604051612b9b828261289d565b83815260059390931b8501820192828101915086841115612bbb57600080fd5b8286015b84811015612bd65780358352918301918301612bbf565b509695505050505050565b600080600080600060a08688031215612bf957600080fd5b612c0286612810565b9450612c1060208701612810565b935060408601356001600160401b0380821115612c2c57600080fd5b612c3889838a01612b70565b94506060880135915080821115612c4e57600080fd5b612c5a89838a01612b70565b93506080880135915080821115612c7057600080fd5b50612c7d888289016128c9565b9150509295509295909350565b60008060408385031215612c9d57600080fd5b82359150612cad60208401612810565b90509250929050565b600082601f830112612cc757600080fd5b81356020612cd482612b4d565b604051612ce1828261289d565b83815260059390931b8501820192828101915086841115612d0157600080fd5b8286015b84811015612bd657612d1681612810565b8352918301918301612d05565b60008060408385031215612d3657600080fd5b82356001600160401b0380821115612d4d57600080fd5b612d5986838701612cb6565b93506020850135915080821115612d6f57600080fd5b50612d7c85828601612b70565b9150509250929050565b600081518084526020808501945080840160005b83811015612db657815187529582019590820190600101612d9a565b509495945050505050565b60208152600061238b6020830184612d86565b600080600060608486031215612de957600080fd5b83356001600160401b0380821115612e0057600080fd5b612e0c87838801612cb6565b94506020860135915080821115612e2257600080fd5b612e2e87838801612b70565b93506040860135915080821115612e4457600080fd5b50612e5186828701612b70565b9150509250925092565b60008060408385031215612e6e57600080fd5b82356001600160401b0380821115612e8557600080fd5b612d5986838701612b70565b60008060408385031215612ea457600080fd5b612ead83612810565b9150612cad602084016129f4565b600080600060608486031215612ed057600080fd5b8335925060208401356001600160401b03811115612eed57600080fd5b612ef9868287016128c9565b925050612f08604085016129f4565b90509250925092565b60008060408385031215612f2457600080fd5b612f2d83612810565b9150612cad60208401612810565b600080600080600060a08688031215612f5357600080fd5b612f5c86612810565b9450612f6a60208701612810565b9350604086013592506060860135915060808601356001600160401b03811115612f9357600080fd5b612c7d888289016128c9565b60008060008060808587031215612fb557600080fd5b84356001600160401b0380821115612fcc57600080fd5b612fd888838901612cb6565b9550602091508187013581811115612fef57600080fd5b612ffb89828a01612b70565b95505060408701358181111561301057600080fd5b61301c89828a01612b70565b94505060608701358181111561303157600080fd5b8701601f8101891361304257600080fd5b803561304d81612b4d565b60405161305a828261289d565b82815260059290921b830185019185810191508b83111561307a57600080fd5b8584015b838110156130b2578035868111156130965760008081fd5b6130a48e89838901016128c9565b84525091860191860161307e565b50989b979a50959850505050505050565b600181811c908216806130d757607f821691505b602082108114156130f857634e487b7160e01b600052602260045260246000fd5b50919050565b6000815461310b816130c3565b60018281168015613123576001811461313457613163565b60ff19841687528287019450613163565b8560005260208060002060005b8581101561315a5781548a820152908401908201613141565b50505082870194505b5050505092915050565b60006121e861317c83866130fe565b846130fe565b634e487b7160e01b600052601160045260246000fd5b600082198211156131ab576131ab613182565b500190565b60208082526024908201527f4e46543a205472616e7366657273206279206f776e6572206172652064697361604082015263189b195960e21b606082015260800190565b600081600019048311821515161561320e5761320e613182565b500290565b634e487b7160e01b600052601260045260246000fd5b60008261323857613238613213565b500490565b634e487b7160e01b600052603260045260246000fd5b600060001982141561326757613267613182565b5060010190565b60008282101561328057613280613182565b500390565b60008251613297818460208701612970565b9190910192915050565b600061238b82846130fe565b60006020808352600084546132c1816130c3565b808487015260406001808416600081146132e257600181146132f657613324565b60ff19851689840152606089019550613324565b896000528660002060005b8581101561331c5781548b8201860152908301908801613301565b8a0184019650505b509398975050505050505050565b7f7b2273656c6c65725f6665655f62617369735f706f696e7473223a200000000081526000835161336a81601c850160208801612970565b731610113332b2afb932b1b4b834b2b73a111d101160611b601c91840191820152835161339e816030840160208801612970565b61227d60f01b60309290910191820152603201949350505050565b7f646174613a6170706c69636174696f6e2f6a736f6e3b6261736536342c0000008152600082516133f181601d850160208701612970565b91909101601d0192915050565b7f416363657373436f6e74726f6c3a206163636f756e7420000000000000000000815260008351613436816017850160208801612970565b7001034b99036b4b9b9b4b733903937b6329607d1b6017918401918201528351613467816028840160208801612970565b01602801949350505050565b60208082526025908201527f455243313135353a207472616e7366657220746f20746865207a65726f206164604082015264647265737360d81b606082015260800190565b6020808252602a908201527f455243313135353a20696e73756666696369656e742062616c616e636520666f60408201526939103a3930b739b332b960b11b606082015260800190565b60208082526028908201527f455243313135353a2069647320616e6420616d6f756e7473206c656e677468206040820152670dad2e6dac2e8c6d60c31b606082015260800190565b60408152600061355d6040830185612d86565b828103602084015261356f8185612d86565b95945050505050565b60208082526023908201527f455243313135353a206275726e2066726f6d20746865207a65726f206164647260408201526265737360e81b606082015260800190565b60208082526024908201527f455243313135353a206275726e20616d6f756e7420657863656564732062616c604082015263616e636560e01b606082015260800190565b60008261360e5761360e613213565b500690565b60008161362257613622613182565b506000190190565b6001600160a01b03868116825285166020820152604081018490526060810183905260a0608082018190526000906136649083018461299c565b979650505050505050565b60006020828403121561368157600080fd5b815161238b81612851565b600060033d11156136a55760046000803e5060005160e01c5b90565b600060443d10156136b65790565b6040516003193d81016004833e81513d6001600160401b0381602484011181841117156136e557505050505090565b82850191508151818111156136fd5750505050505090565b843d87010160208285010111156137175750505050505090565b6137266020828601018761289d565b509095945050505050565b60208082526028908201527f455243313135353a204552433131353552656365697665722072656a656374656040820152676420746f6b656e7360c01b606082015260800190565b6001600160a01b0386811682528516602082015260a0604082018190526000906137a590830186612d86565b82810360608401526137b78186612d86565b905082810360808401526137cb818561299c565b9897505050505050505056fe4142434445464748494a4b4c4d4e4f505152535455565758595a6162636465666768696a6b6c6d6e6f707172737475767778797a303132333435363738392b2f9f2df0fed2c77648de5860a4cc508cd0818c85b8b8a1ab4ceeef8d981c8956a6a264697066735822122018548a0b4e851d593be237284f7bc14e4b9deb5490524f7f218c4fe6ca88234c64736f6c634300080900339f2df0fed2c77648de5860a4cc508cd0818c85b8b8a1ab4ceeef8d981c8956a6",
  "devdoc": {
    "kind": "dev",
    "methods": {
      "balanceOf(address,uint256)": {
        "details": "See {IERC1155-balanceOf}. Requirements: - `account` cannot be the zero address."
      },
      "balanceOfBatch(address[],uint256[])": {
        "details": "See {IERC1155-balanceOfBatch}. Requirements: - `accounts` and `ids` must have the same length."
      },
      "getRoleAdmin(bytes32)": {
        "details": "Returns the admin role that controls `role`. See {grantRole} and {revokeRole}. To change a role's admin, use {_setRoleAdmin}."
      },
      "grantRole(bytes32,address)": {
        "details": "Grants `role` to `account`. If `account` had not been already granted `role`, emits a {RoleGranted} event. Requirements: - the caller must have ``role``'s admin role."
      },
      "hasRole(bytes32,address)": {
        "details": "Returns `true` if `account` has been granted `role`."
      },
      "isApprovedForAll(address,address)": {
        "details": "See {IERC1155-isApprovedForAll}."
      },
      "renounceRole(bytes32,address)": {
        "details": "Revokes `role` from the calling account. Roles are often managed via {grantRole} and {revokeRole}: this function's purpose is to provide a mechanism for accounts to lose their privileges if they are compromised (such as when a trusted device is misplaced). If the calling account had been revoked `role`, emits a {RoleRevoked} event. Requirements: - the caller must be `account`."
      },
      "revokeRole(bytes32,address)": {
        "details": "Revokes `role` from `account`. If `account` had been granted `role`, emits a {RoleRevoked} event. Requirements: - the caller must have ``role``'s admin role."
      },
      "safeBatchTransferFrom(address,address,uint256[],uint256[],bytes)": {
        "details": "See {IERC1155-safeBatchTransferFrom}."
      },
      "safeTransferFrom(address,address,uint256,uint256,bytes)": {
        "details": "See {IERC1155-safeTransferFrom}."
      },
      "setApprovalForAll(address,bool)": {
        "details": "See {IERC1155-setApprovalForAll}."
      }
    },
    "version": 1
  },
  "userdoc": {
    "kind": "user",
    "methods": {},
    "version": 1
  },
  "storageLayout": {
    "storage": [
      {
        "astId": 608,
        "contract": "contracts/ERC1155NftCustom.sol:ERC1155NFTCustom",
        "label": "_balances",
        "offset": 0,
        "slot": "0",
        "type": "t_mapping(t_uint256,t_mapping(t_address,t_uint256))"
      },
      {
        "astId": 614,
        "contract": "contracts/ERC1155NftCustom.sol:ERC1155NFTCustom",
        "label": "_operatorApprovals",
        "offset": 0,
        "slot": "1",
        "type": "t_mapping(t_address,t_mapping(t_address,t_bool))"
      },
      {
        "astId": 616,
        "contract": "contracts/ERC1155NftCustom.sol:ERC1155NFTCustom",
        "label": "_uri",
        "offset": 0,
        "slot": "2",
        "type": "t_string_storage"
      },
      {
        "astId": 24,
        "contract": "contracts/ERC1155NftCustom.sol:ERC1155NFTCustom",
        "label": "_roles",
        "offset": 0,
        "slot": "3",
        "type": "t_mapping(t_bytes32,t_struct(RoleData)19_storage)"
      },
      {
        "astId": 4623,
        "contract": "contracts/ERC1155NftCustom.sol:ERC1155NFTCustom",
        "label": "_owner",
        "offset": 0,
        "slot": "4",
        "type": "t_address"
      },
      {
        "astId": 4625,
        "contract": "contracts/ERC1155NftCustom.sol:ERC1155NFTCustom",
        "label": "metadataUpdatable",
        "offset": 20,
        "slot": "4",
        "type": "t_bool"
      },
      {
        "astId": 4627,
        "contract": "contracts/ERC1155NftCustom.sol:ERC1155NFTCustom",
        "label": "tokensBurnable",
        "offset": 21,
        "slot": "4",
        "type": "t_bool"
      },
      {
        "astId": 4629,
        "contract": "contracts/ERC1155NftCustom.sol:ERC1155NFTCustom",
        "label": "tokensTransferable",
        "offset": 22,
        "slot": "4",
        "type": "t_bool"
      },
      {
        "astId": 4631,
        "contract": "contracts/ERC1155NftCustom.sol:ERC1155NFTCustom",
        "label": "name",
        "offset": 0,
        "slot": "5",
        "type": "t_string_storage"
      },
      {
        "astId": 4633,
        "contract": "contracts/ERC1155NftCustom.sol:ERC1155NFTCustom",
        "label": "symbol",
        "offset": 0,
        "slot": "6",
        "type": "t_string_storage"
      },
      {
        "astId": 4635,
        "contract": "contracts/ERC1155NftCustom.sol:ERC1155NFTCustom",
        "label": "baseURI",
        "offset": 0,
        "slot": "7",
        "type": "t_string_storage"
      },
      {
        "astId": 4637,
        "contract": "contracts/ERC1155NftCustom.sol:ERC1155NFTCustom",
        "label": "royaltiesAddress",
        "offset": 0,
        "slot": "8",
        "type": "t_address"
      },
      {
        "astId": 4639,
        "contract": "contracts/ERC1155NftCustom.sol:ERC1155NFTCustom",
        "label": "royaltiesBasisPoints",
        "offset": 0,
        "slot": "9",
        "type": "t_uint256"
      },
      {
        "astId": 4643,
        "contract": "contracts/ERC1155NftCustom.sol:ERC1155NFTCustom",
        "label": "freezeTokenUris",
        "offset": 0,
        "slot": "10",
        "type": "t_mapping(t_uint256,t_bool)"
      },
      {
        "astId": 4647,
        "contract": "contracts/ERC1155NftCustom.sol:ERC1155NFTCustom",
        "label": "tokenSupply",
        "offset": 0,
        "slot": "11",
        "type": "t_mapping(t_uint256,t_uint256)"
      },
      {
        "astId": 4651,
        "contract": "contracts/ERC1155NftCustom.sol:ERC1155NFTCustom",
        "label": "_tokenURIs",
        "offset": 0,
        "slot": "12",
        "type": "t_mapping(t_uint256,t_string_storage)"
      }
    ],
    "types": {
      "t_address": {
        "encoding": "inplace",
        "label": "address",
        "numberOfBytes": "20"
      },
      "t_bool": {
        "encoding": "inplace",
        "label": "bool",
        "numberOfBytes": "1"
      },
      "t_bytes32": {
        "encoding": "inplace",
        "label": "bytes32",
        "numberOfBytes": "32"
      },
      "t_mapping(t_address,t_bool)": {
        "encoding": "mapping",
        "key": "t_address",
        "label": "mapping(address => bool)",
        "numberOfBytes": "32",
        "value": "t_bool"
      },
      "t_mapping(t_address,t_mapping(t_address,t_bool))": {
        "encoding": "mapping",
        "key": "t_address",
        "label": "mapping(address => mapping(address => bool))",
        "numberOfBytes": "32",
        "value": "t_mapping(t_address,t_bool)"
      },
      "t_mapping(t_address,t_uint256)": {
        "encoding": "mapping",
        "key": "t_address",
        "label": "mapping(address => uint256)",
        "numberOfBytes": "32",
        "value": "t_uint256"
      },
      "t_mapping(t_bytes32,t_struct(RoleData)19_storage)": {
        "encoding": "mapping",
        "key": "t_bytes32",
        "label": "mapping(bytes32 => struct AccessControl.RoleData)",
        "numberOfBytes": "32",
        "value": "t_struct(RoleData)19_storage"
      },
      "t_mapping(t_uint256,t_bool)": {
        "encoding": "mapping",
        "key": "t_uint256",
        "label": "mapping(uint256 => bool)",
        "numberOfBytes": "32",
        "value": "t_bool"
      },
      "t_mapping(t_uint256,t_mapping(t_address,t_uint256))": {
        "encoding": "mapping",
        "key": "t_uint256",
        "label": "mapping(uint256 => mapping(address => uint256))",
        "numberOfBytes": "32",
        "value": "t_mapping(t_address,t_uint256)"
      },
      "t_mapping(t_uint256,t_string_storage)": {
        "encoding": "mapping",
        "key": "t_uint256",
        "label": "mapping(uint256 => string)",
        "numberOfBytes": "32",
        "value": "t_string_storage"
      },
      "t_mapping(t_uint256,t_uint256)": {
        "encoding": "mapping",
        "key": "t_uint256",
        "label": "mapping(uint256 => uint256)",
        "numberOfBytes": "32",
        "value": "t_uint256"
      },
      "t_string_storage": {
        "encoding": "bytes",
        "label": "string",
        "numberOfBytes": "32"
      },
      "t_struct(RoleData)19_storage": {
        "encoding": "inplace",
        "label": "struct AccessControl.RoleData",
        "members": [
          {
            "astId": 16,
            "contract": "contracts/ERC1155NftCustom.sol:ERC1155NFTCustom",
            "label": "members",
            "offset": 0,
            "slot": "0",
            "type": "t_mapping(t_address,t_bool)"
          },
          {
            "astId": 18,
            "contract": "contracts/ERC1155NftCustom.sol:ERC1155NFTCustom",
            "label": "adminRole",
            "offset": 0,
            "slot": "1",
            "type": "t_bytes32"
          }
        ],
        "numberOfBytes": "64"
      },
      "t_uint256": {
        "encoding": "inplace",
        "label": "uint256",
        "numberOfBytes": "32"
      }
    }
  }
}