{
  "address": "0xFA6a6dB1Cd03ef4be74202C111d76C83ad5749aA",
  "abi": [
    {
      "inputs": [
        {
          "internalType": "string",
          "name": "_name",
          "type": "string"
        },
        {
          "internalType": "string",
          "name": "_symbol",
          "type": "string"
        },
        {
          "internalType": "address",
          "name": "owner",
          "type": "address"
        },
        {
          "internalType": "bool",
          "name": "_metadataUpdatable",
          "type": "bool"
        },
        {
          "internalType": "bool",
          "name": "_tokensBurnable",
          "type": "bool"
        },
        {
          "internalType": "bool",
          "name": "_tokensTransferable",
          "type": "bool"
        },
        {
          "internalType": "string",
          "name": "_initBaseURI",
          "type": "string"
        },
        {
          "internalType": "address",
          "name": "_royaltiesAddress",
          "type": "address"
        },
        {
          "internalType": "uint96",
          "name": "_royaltiesBasisPoints",
          "type": "uint96"
        }
      ],
      "stateMutability": "nonpayable",
      "type": "constructor"
    },
    {
      "anonymous": false,
      "inputs": [
        {
          "indexed": true,
          "internalType": "address",
          "name": "owner",
          "type": "address"
        },
        {
          "indexed": true,
          "internalType": "address",
          "name": "approved",
          "type": "address"
        },
        {
          "indexed": true,
          "internalType": "uint256",
          "name": "tokenId",
          "type": "uint256"
        }
      ],
      "name": "Approval",
      "type": "event"
    },
    {
      "anonymous": false,
      "inputs": [
        {
          "indexed": true,
          "internalType": "address",
          "name": "owner",
          "type": "address"
        },
        {
          "indexed": true,
          "internalType": "address",
          "name": "operator",
          "type": "address"
        },
        {
          "indexed": false,
          "internalType": "bool",
          "name": "approved",
          "type": "bool"
        }
      ],
      "name": "ApprovalForAll",
      "type": "event"
    },
    {
      "anonymous": false,
      "inputs": [
        {
          "indexed": false,
          "internalType": "string",
          "name": "_value",
          "type": "string"
        },
        {
          "indexed": true,
          "internalType": "uint256",
          "name": "_id",
          "type": "uint256"
        }
      ],
      "name": "PermanentURI",
      "type": "event"
    },
    {
      "anonymous": false,
      "inputs": [],
      "name": "PermanentURIGlobal",
      "type": "event"
    },
    {
      "anonymous": false,
      "inputs": [
        {
          "indexed": true,
          "internalType": "bytes32",
          "name": "role",
          "type": "bytes32"
        },
        {
          "indexed": true,
          "internalType": "bytes32",
          "name": "previousAdminRole",
          "type": "bytes32"
        },
        {
          "indexed": true,
          "internalType": "bytes32",
          "name": "newAdminRole",
          "type": "bytes32"
        }
      ],
      "name": "RoleAdminChanged",
      "type": "event"
    },
    {
      "anonymous": false,
      "inputs": [
        {
          "indexed": true,
          "internalType": "bytes32",
          "name": "role",
          "type": "bytes32"
        },
        {
          "indexed": true,
          "internalType": "address",
          "name": "account",
          "type": "address"
        },
        {
          "indexed": true,
          "internalType": "address",
          "name": "sender",
          "type": "address"
        }
      ],
      "name": "RoleGranted",
      "type": "event"
    },
    {
      "anonymous": false,
      "inputs": [
        {
          "indexed": true,
          "internalType": "bytes32",
          "name": "role",
          "type": "bytes32"
        },
        {
          "indexed": true,
          "internalType": "address",
          "name": "account",
          "type": "address"
        },
        {
          "indexed": true,
          "internalType": "address",
          "name": "sender",
          "type": "address"
        }
      ],
      "name": "RoleRevoked",
      "type": "event"
    },
    {
      "anonymous": false,
      "inputs": [
        {
          "indexed": true,
          "internalType": "address",
          "name": "from",
          "type": "address"
        },
        {
          "indexed": true,
          "internalType": "address",
          "name": "to",
          "type": "address"
        },
        {
          "indexed": true,
          "internalType": "uint256",
          "name": "tokenId",
          "type": "uint256"
        }
      ],
      "name": "Transfer",
      "type": "event"
    },
    {
      "inputs": [],
      "name": "DEFAULT_ADMIN_ROLE",
      "outputs": [
        {
          "internalType": "bytes32",
          "name": "",
          "type": "bytes32"
        }
      ],
      "stateMutability": "view",
      "type": "function"
    },
    {
      "inputs": [],
      "name": "MINTER_ROLE",
      "outputs": [
        {
          "internalType": "bytes32",
          "name": "",
          "type": "bytes32"
        }
      ],
      "stateMutability": "view",
      "type": "function"
    },
    {
      "inputs": [
        {
          "internalType": "address",
          "name": "to",
          "type": "address"
        },
        {
          "internalType": "uint256",
          "name": "tokenId",
          "type": "uint256"
        }
      ],
      "name": "approve",
      "outputs": [],
      "stateMutability": "nonpayable",
      "type": "function"
    },
    {
      "inputs": [
        {
          "internalType": "address",
          "name": "owner",
          "type": "address"
        }
      ],
      "name": "balanceOf",
      "outputs": [
        {
          "internalType": "uint256",
          "name": "",
          "type": "uint256"
        }
      ],
      "stateMutability": "view",
      "type": "function"
    },
    {
      "inputs": [],
      "name": "baseURI",
      "outputs": [
        {
          "internalType": "string",
          "name": "",
          "type": "string"
        }
      ],
      "stateMutability": "view",
      "type": "function"
    },
    {
      "inputs": [
        {
          "internalType": "uint256",
          "name": "_tokenId",
          "type": "uint256"
        }
      ],
      "name": "burn",
      "outputs": [],
      "stateMutability": "nonpayable",
      "type": "function"
    },
    {
      "inputs": [],
      "name": "contractURI",
      "outputs": [
        {
          "internalType": "string",
          "name": "",
          "type": "string"
        }
      ],
      "stateMutability": "view",
      "type": "function"
    },
    {
      "inputs": [
        {
          "internalType": "uint256",
          "name": "",
          "type": "uint256"
        }
      ],
      "name": "freezeTokenUris",
      "outputs": [
        {
          "internalType": "bool",
          "name": "",
          "type": "bool"
        }
      ],
      "stateMutability": "view",
      "type": "function"
    },
    {
      "inputs": [
        {
          "internalType": "uint256",
          "name": "tokenId",
          "type": "uint256"
        }
      ],
      "name": "getApproved",
      "outputs": [
        {
          "internalType": "address",
          "name": "",
          "type": "address"
        }
      ],
      "stateMutability": "view",
      "type": "function"
    },
    {
      "inputs": [
        {
          "internalType": "bytes32",
          "name": "role",
          "type": "bytes32"
        }
      ],
      "name": "getRoleAdmin",
      "outputs": [
        {
          "internalType": "bytes32",
          "name": "",
          "type": "bytes32"
        }
      ],
      "stateMutability": "view",
      "type": "function"
    },
    {
      "inputs": [
        {
          "internalType": "bytes32",
          "name": "role",
          "type": "bytes32"
        },
        {
          "internalType": "address",
          "name": "account",
          "type": "address"
        }
      ],
      "name": "grantRole",
      "outputs": [],
      "stateMutability": "nonpayable",
      "type": "function"
    },
    {
      "inputs": [
        {
          "internalType": "bytes32",
          "name": "role",
          "type": "bytes32"
        },
        {
          "internalType": "address",
          "name": "account",
          "type": "address"
        }
      ],
      "name": "hasRole",
      "outputs": [
        {
          "internalType": "bool",
          "name": "",
          "type": "bool"
        }
      ],
      "stateMutability": "view",
      "type": "function"
    },
    {
      "inputs": [
        {
          "internalType": "address",
          "name": "owner",
          "type": "address"
        },
        {
          "internalType": "address",
          "name": "operator",
          "type": "address"
        }
      ],
      "name": "isApprovedForAll",
      "outputs": [
        {
          "internalType": "bool",
          "name": "",
          "type": "bool"
        }
      ],
      "stateMutability": "view",
      "type": "function"
    },
    {
      "inputs": [],
      "name": "metadataUpdatable",
      "outputs": [
        {
          "internalType": "bool",
          "name": "",
          "type": "bool"
        }
      ],
      "stateMutability": "view",
      "type": "function"
    },
    {
      "inputs": [
        {
          "internalType": "address",
          "name": "caller",
          "type": "address"
        },
        {
          "internalType": "uint256",
          "name": "tokenId",
          "type": "uint256"
        },
        {
          "internalType": "string",
          "name": "tokenURI",
          "type": "string"
        }
      ],
      "name": "mintToCaller",
      "outputs": [
        {
          "internalType": "uint256",
          "name": "",
          "type": "uint256"
        }
      ],
      "stateMutability": "nonpayable",
      "type": "function"
    },
    {
      "inputs": [],
      "name": "name",
      "outputs": [
        {
          "internalType": "string",
          "name": "",
          "type": "string"
        }
      ],
      "stateMutability": "view",
      "type": "function"
    },
    {
      "inputs": [],
      "name": "owner",
      "outputs": [
        {
          "internalType": "address",
          "name": "",
          "type": "address"
        }
      ],
      "stateMutability": "view",
      "type": "function"
    },
    {
      "inputs": [
        {
          "internalType": "uint256",
          "name": "tokenId",
          "type": "uint256"
        }
      ],
      "name": "ownerOf",
      "outputs": [
        {
          "internalType": "address",
          "name": "",
          "type": "address"
        }
      ],
      "stateMutability": "view",
      "type": "function"
    },
    {
      "inputs": [
        {
          "internalType": "bytes32",
          "name": "role",
          "type": "bytes32"
        },
        {
          "internalType": "address",
          "name": "account",
          "type": "address"
        }
      ],
      "name": "renounceRole",
      "outputs": [],
      "stateMutability": "nonpayable",
      "type": "function"
    },
    {
      "inputs": [
        {
          "internalType": "bytes32",
          "name": "role",
          "type": "bytes32"
        },
        {
          "internalType": "address",
          "name": "account",
          "type": "address"
        }
      ],
      "name": "revokeRole",
      "outputs": [],
      "stateMutability": "nonpayable",
      "type": "function"
    },
    {
      "inputs": [],
      "name": "royaltiesAddress",
      "outputs": [
        {
          "internalType": "address",
          "name": "",
          "type": "address"
        }
      ],
      "stateMutability": "view",
      "type": "function"
    },
    {
      "inputs": [],
      "name": "royaltiesBasisPoints",
      "outputs": [
        {
          "internalType": "uint256",
          "name": "",
          "type": "uint256"
        }
      ],
      "stateMutability": "view",
      "type": "function"
    },
    {
      "inputs": [
        {
          "internalType": "uint256",
          "name": "tokenId",
          "type": "uint256"
        },
        {
          "internalType": "uint256",
          "name": "salePrice",
          "type": "uint256"
        }
      ],
      "name": "royaltyInfo",
      "outputs": [
        {
          "internalType": "address",
          "name": "",
          "type": "address"
        },
        {
          "internalType": "uint256",
          "name": "",
          "type": "uint256"
        }
      ],
      "stateMutability": "view",
      "type": "function"
    },
    {
      "inputs": [
        {
          "internalType": "address",
          "name": "from",
          "type": "address"
        },
        {
          "internalType": "address",
          "name": "to",
          "type": "address"
        },
        {
          "internalType": "uint256",
          "name": "tokenId",
          "type": "uint256"
        }
      ],
      "name": "safeTransferFrom",
      "outputs": [],
      "stateMutability": "nonpayable",
      "type": "function"
    },
    {
      "inputs": [
        {
          "internalType": "address",
          "name": "from",
          "type": "address"
        },
        {
          "internalType": "address",
          "name": "to",
          "type": "address"
        },
        {
          "internalType": "uint256",
          "name": "tokenId",
          "type": "uint256"
        },
        {
          "internalType": "bytes",
          "name": "_data",
          "type": "bytes"
        }
      ],
      "name": "safeTransferFrom",
      "outputs": [],
      "stateMutability": "nonpayable",
      "type": "function"
    },
    {
      "inputs": [
        {
          "internalType": "address",
          "name": "operator",
          "type": "address"
        },
        {
          "internalType": "bool",
          "name": "approved",
          "type": "bool"
        }
      ],
      "name": "setApprovalForAll",
      "outputs": [],
      "stateMutability": "nonpayable",
      "type": "function"
    },
    {
      "inputs": [
        {
          "internalType": "bytes4",
          "name": "interfaceId",
          "type": "bytes4"
        }
      ],
      "name": "supportsInterface",
      "outputs": [
        {
          "internalType": "bool",
          "name": "",
          "type": "bool"
        }
      ],
      "stateMutability": "view",
      "type": "function"
    },
    {
      "inputs": [],
      "name": "symbol",
      "outputs": [
        {
          "internalType": "string",
          "name": "",
          "type": "string"
        }
      ],
      "stateMutability": "view",
      "type": "function"
    },
    {
      "inputs": [
        {
          "internalType": "uint256",
          "name": "index",
          "type": "uint256"
        }
      ],
      "name": "tokenByIndex",
      "outputs": [
        {
          "internalType": "uint256",
          "name": "",
          "type": "uint256"
        }
      ],
      "stateMutability": "view",
      "type": "function"
    },
    {
      "inputs": [
        {
          "internalType": "address",
          "name": "owner",
          "type": "address"
        },
        {
          "internalType": "uint256",
          "name": "index",
          "type": "uint256"
        }
      ],
      "name": "tokenOfOwnerByIndex",
      "outputs": [
        {
          "internalType": "uint256",
          "name": "",
          "type": "uint256"
        }
      ],
      "stateMutability": "view",
      "type": "function"
    },
    {
      "inputs": [
        {
          "internalType": "uint256",
          "name": "tokenId",
          "type": "uint256"
        }
      ],
      "name": "tokenURI",
      "outputs": [
        {
          "internalType": "string",
          "name": "",
          "type": "string"
        }
      ],
      "stateMutability": "view",
      "type": "function"
    },
    {
      "inputs": [],
      "name": "tokensBurnable",
      "outputs": [
        {
          "internalType": "bool",
          "name": "",
          "type": "bool"
        }
      ],
      "stateMutability": "view",
      "type": "function"
    },
    {
      "inputs": [],
      "name": "tokensTransferable",
      "outputs": [
        {
          "internalType": "bool",
          "name": "",
          "type": "bool"
        }
      ],
      "stateMutability": "view",
      "type": "function"
    },
    {
      "inputs": [],
      "name": "totalSupply",
      "outputs": [
        {
          "internalType": "uint256",
          "name": "",
          "type": "uint256"
        }
      ],
      "stateMutability": "view",
      "type": "function"
    },
    {
      "inputs": [
        {
          "internalType": "address",
          "name": "_to",
          "type": "address"
        },
        {
          "internalType": "uint256",
          "name": "_tokenId",
          "type": "uint256"
        }
      ],
      "name": "transferByOwner",
      "outputs": [],
      "stateMutability": "nonpayable",
      "type": "function"
    },
    {
      "inputs": [
        {
          "internalType": "address",
          "name": "from",
          "type": "address"
        },
        {
          "internalType": "address",
          "name": "to",
          "type": "address"
        },
        {
          "internalType": "uint256",
          "name": "tokenId",
          "type": "uint256"
        }
      ],
      "name": "transferFrom",
      "outputs": [],
      "stateMutability": "nonpayable",
      "type": "function"
    },
    {
      "inputs": [
        {
          "internalType": "string",
          "name": "_newBaseURI",
          "type": "string"
        },
        {
          "internalType": "bool",
          "name": "_tokensTransferable",
          "type": "bool"
        },
        {
          "internalType": "bool",
          "name": "_freezeUpdates",
          "type": "bool"
        },
        {
          "internalType": "address",
          "name": "_royaltiesAddress",
          "type": "address"
        },
        {
          "internalType": "uint96",
          "name": "_royaltiesBasisPoints",
          "type": "uint96"
        }
      ],
      "name": "update",
      "outputs": [],
      "stateMutability": "nonpayable",
      "type": "function"
    },
    {
      "inputs": [
        {
          "internalType": "uint256",
          "name": "_tokenId",
          "type": "uint256"
        },
        {
          "internalType": "string",
          "name": "_tokenUri",
          "type": "string"
        },
        {
          "internalType": "bool",
          "name": "_isFreezeTokenUri",
          "type": "bool"
        }
      ],
      "name": "updateTokenUri",
      "outputs": [],
      "stateMutability": "nonpayable",
      "type": "function"
    }
  ],
  "transactionHash": "0xa56839c96b0c40b142991a520d5e14b9d7468723fa62c15f8c7acc69f14a423e",
  "args": [
    "NFTPort",
    "NFT",
    "0xE7D7696C8f11278124f39fB7cDd39fD9442D5026",
    true,
    true,
    true,
    "ipfs://baseURI",
    "0xE7D7696C8f11278124f39fB7cDd39fD9442D5026",
    250
  ],
  "numDeployments": 1,
  "solcInputHash": "1c8ed5ff6ff5d2e23f4ab6ebf2c0f106",
  "bytecode": "0x60806040523480156200001157600080fd5b50604051620033bc380380620033bc8339810160408190526200003491620003c0565b8851899089906200004d90600090602085019062000207565b5080516200006390600190602084019062000207565b50620000759150600090508862000153565b620000906000805160206200339c8339815191528862000153565b620000ab6000805160206200339c8339815191523362000153565b600f80546001600160a01b0319166001600160a01b0384161790556001600160601b0381166010556008805461ffff60a01b1916600160a01b8815150260ff60a81b191617600160a81b871515021760ff60b01b1916600160b01b8615150217905582516200012290600e90602086019062000207565b5050600880546001600160a01b0319166001600160a01b03979097169690961790955550620004ff95505050505050565b6200015f828262000163565b5050565b60008281526007602090815260408083206001600160a01b038516845290915290205460ff166200015f5760008281526007602090815260408083206001600160a01b03851684529091529020805460ff19166001179055620001c33390565b6001600160a01b0316816001600160a01b0316837f2f8788117e7eff1d82e926ec794901d17c78024a50270940304540a733656f0d60405160405180910390a45050565b8280546200021590620004c2565b90600052602060002090601f01602090048101928262000239576000855562000284565b82601f106200025457805160ff191683800117855562000284565b8280016001018555821562000284579182015b828111156200028457825182559160200191906001019062000267565b506200029292915062000296565b5090565b5b8082111562000292576000815560010162000297565b634e487b7160e01b600052604160045260246000fd5b600082601f830112620002d557600080fd5b81516001600160401b0380821115620002f257620002f2620002ad565b604051601f8301601f19908116603f011681019082821181831017156200031d576200031d620002ad565b816040528381526020925086838588010111156200033a57600080fd5b600091505b838210156200035e57858201830151818301840152908201906200033f565b83821115620003705760008385830101525b9695505050505050565b80516001600160a01b03811681146200039257600080fd5b919050565b805180151581146200039257600080fd5b80516001600160601b03811681146200039257600080fd5b60008060008060008060008060006101208a8c031215620003e057600080fd5b89516001600160401b0380821115620003f857600080fd5b620004068d838e01620002c3565b9a5060208c01519150808211156200041d57600080fd5b6200042b8d838e01620002c3565b99506200043b60408d016200037a565b98506200044b60608d0162000397565b97506200045b60808d0162000397565b96506200046b60a08d0162000397565b955060c08c01519150808211156200048257600080fd5b50620004918c828d01620002c3565b935050620004a260e08b016200037a565b9150620004b36101008b01620003a8565b90509295985092959850929598565b600181811c90821680620004d757607f821691505b60208210811415620004f957634e487b7160e01b600052602260045260246000fd5b50919050565b612e8d806200050f6000396000f3fe608060405234801561001057600080fd5b50600436106102325760003560e01c80636c0360eb11610130578063a2f551ec116100b8578063d547741f1161007c578063d547741f146104ef578063de374d9d14610502578063e3d5207214610516578063e8a3d4851461052a578063e985e9c51461053257600080fd5b8063a2f551ec14610498578063a53a84b6146104ab578063b88d4fde146104b4578063c87b56dd146104c7578063d5391393146104da57600080fd5b80638da5cb5b116100ff5780638da5cb5b1461045157806391d148541461046257806395d89b4114610475578063a217fddf1461047d578063a22cb4651461048557600080fd5b80636c0360eb1461040057806370a08231146104085780637afdcdbb1461041b5780638d010db31461042e57600080fd5b80632a55205a116101be57806342842e0e1161018257806342842e0e146103a057806342966c68146103b35780634e6f9dd6146103c65780634f6ccce7146103da5780636352211e146103ed57600080fd5b80632a55205a146103225780632f2ff15d146103545780632f745c5914610367578063328825351461037a57806336568abe1461038d57600080fd5b8063152bb24a11610205578063152bb24a146102b457806318160ddd146102c757806321e92d49146102d957806323b872dd146102ec578063248a9ca3146102ff57600080fd5b806301ffc9a71461023757806306fdde031461025f578063081812fc14610274578063095ea7b31461029f575b600080fd5b61024a6102453660046125f4565b61056e565b60405190151581526020015b60405180910390f35b61026761059a565b6040516102569190612669565b61028761028236600461267c565b61062c565b6040516001600160a01b039091168152602001610256565b6102b26102ad3660046126b1565b6106b9565b005b6102b26102c2366004612797565b6107cf565b600c545b604051908152602001610256565b6102b26102e73660046126b1565b6108da565b6102b26102fa36600461282c565b610981565b6102cb61030d36600461267c565b60009081526007602052604090206001015490565b610335610330366004612868565b6109b2565b604080516001600160a01b039093168352602083019190915201610256565b6102b261036236600461288a565b6109ed565b6102cb6103753660046126b1565b610a13565b600f54610287906001600160a01b031681565b6102b261039b36600461288a565b610a9f565b6102b26103ae36600461282c565b610b1d565b6102b26103c136600461267c565b610b38565b60085461024a90600160a01b900460ff1681565b6102cb6103e836600461267c565b610c83565b6102876103fb36600461267c565b610d0c565b610267610d83565b6102cb6104163660046128b6565b610e11565b6102cb6104293660046128d1565b610e98565b61024a61043c36600461267c565b60096020526000908152604090205460ff1681565b6008546001600160a01b0316610287565b61024a61047036600461288a565b610ed0565b610267610efb565b6102cb600081565b6102b2610493366004612928565b610f0a565b6102b26104a6366004612952565b610f15565b6102cb60105481565b6102b26104c23660046129a9565b6111e8565b6102676104d536600461267c565b61121a565b6102cb600080516020612e3883398151915281565b6102b26104fd36600461288a565b611384565b60085461024a90600160b01b900460ff1681565b60085461024a90600160a81b900460ff1681565b6102676113aa565b61024a610540366004612a25565b6001600160a01b03918216600090815260056020908152604080832093909416825291909152205460ff1690565b600061057982611424565b8061059457506001600160e01b0319821663152a902d60e11b145b92915050565b6060600080546105a990612a4f565b80601f01602080910402602001604051908101604052809291908181526020018280546105d590612a4f565b80156106225780601f106105f757610100808354040283529160200191610622565b820191906000526020600020905b81548152906001019060200180831161060557829003601f168201915b5050505050905090565b600061063782611474565b61069d5760405162461bcd60e51b815260206004820152602c60248201527f4552433732313a20617070726f76656420717565727920666f72206e6f6e657860448201526b34b9ba32b73a103a37b5b2b760a11b60648201526084015b60405180910390fd5b506000908152600460205260409020546001600160a01b031690565b60006106c482610d0c565b9050806001600160a01b0316836001600160a01b031614156107325760405162461bcd60e51b815260206004820152602160248201527f4552433732313a20617070726f76616c20746f2063757272656e74206f776e656044820152603960f91b6064820152608401610694565b336001600160a01b038216148061074e575061074e8133610540565b6107c05760405162461bcd60e51b815260206004820152603860248201527f4552433732313a20617070726f76652063616c6c6572206973206e6f74206f7760448201527f6e6572206e6f7220617070726f76656420666f7220616c6c00000000000000006064820152608401610694565b6107ca8383611491565b505050565b600080516020612e388339815191526107e881336114ff565b600854600160a01b900460ff166108415760405162461bcd60e51b815260206004820181905260248201527f4e46543a20436f6e74726163742075706461746573206172652066726f7a656e6044820152606401610694565b855161085490600e90602089019061250f565b50600f80546001600160a01b0319166001600160a01b0385161790556bffffffffffffffffffffffff821660105584610895576008805460ff60b01b191690555b83156108d2576008805460ff60a01b191690556040517fb59f45df38ec0d34114b1248c38a29cdbccbf3e745ae3ef310ac66199a4ceccf90600090a15b505050505050565b600080516020612e388339815191526108f381336114ff565b600854600160b01b900460ff166109585760405162461bcd60e51b8152602060048201526024808201527f4e46543a205472616e7366657273206279206f776e6572206172652064697361604482015263189b195960e21b6064820152608401610694565b6008546040805160208101909152600081526107ca916001600160a01b03169085908590611563565b61098b3382611596565b6109a75760405162461bcd60e51b815260040161069490612a8a565b6107ca83838361167c565b600f5460105460009182916001600160a01b0390911690612710906109d8908690612af1565b6109e29190612b26565b915091509250929050565b600082815260076020526040902060010154610a0981336114ff565b6107ca8383611823565b6000610a1e83610e11565b8210610a765760405162461bcd60e51b815260206004820152602160248201527f4552433732313a206f776e657220696e646578206f7574206f6620626f756e646044820152607360f81b6064820152608401610694565b506001600160a01b03919091166000908152600a60209081526040808320938352929052205490565b6001600160a01b0381163314610b0f5760405162461bcd60e51b815260206004820152602f60248201527f416363657373436f6e74726f6c3a2063616e206f6e6c792072656e6f756e636560448201526e103937b632b9903337b91039b2b63360891b6064820152608401610694565b610b1982826118a9565b5050565b6107ca838383604051806020016040528060008152506111e8565b600080516020612e38833981519152610b5181336114ff565b600854600160a81b900460ff16610baa5760405162461bcd60e51b815260206004820152601f60248201527f4e46543a20746f6b656e73206275726e696e672069732064697361626c6564006044820152606401610694565b610bb382611474565b610bff5760405162461bcd60e51b815260206004820152601a60248201527f4275726e20666f72206e6f6e6578697374656e7420746f6b656e0000000000006044820152606401610694565b6008546001600160a01b0316610c1483610d0c565b6001600160a01b031614610c7a5760405162461bcd60e51b815260206004820152602760248201527f4e46543a20746f6b656e73206d6179206265206275726e6564206279206f776e6044820152666572206f6e6c7960c81b6064820152608401610694565b610b1982611910565b6000610c8e600c5490565b8210610ce75760405162461bcd60e51b815260206004820152602260248201527f4552433732313a20676c6f62616c20696e646578206f7574206f6620626f756e604482015261647360f01b6064820152608401610694565b600c8281548110610cfa57610cfa612b3a565b90600052602060002001549050919050565b6000818152600260205260408120546001600160a01b0316806105945760405162461bcd60e51b815260206004820152602960248201527f4552433732313a206f776e657220717565727920666f72206e6f6e657869737460448201526832b73a103a37b5b2b760b91b6064820152608401610694565b600e8054610d9090612a4f565b80601f0160208091040260200160405190810160405280929190818152602001828054610dbc90612a4f565b8015610e095780601f10610dde57610100808354040283529160200191610e09565b820191906000526020600020905b815481529060010190602001808311610dec57829003601f168201915b505050505081565b60006001600160a01b038216610e7c5760405162461bcd60e51b815260206004820152602a60248201527f4552433732313a2062616c616e636520717565727920666f7220746865207a65604482015269726f206164647265737360b01b6064820152608401610694565b506001600160a01b031660009081526003602052604090205490565b6000600080516020612e38833981519152610eb381336114ff565b610ebd8585611953565b610ec7848461196d565b50919392505050565b60009182526007602090815260408084206001600160a01b0393909316845291905290205460ff1690565b6060600180546105a990612a4f565b610b193383836119f8565b600080516020612e38833981519152610f2e81336114ff565b610f3784611474565b610f975760405162461bcd60e51b815260206004820152602b60248201527f4e46543a207570646174652055524920717565727920666f72206e6f6e65786960448201526a39ba32b73a103a37b5b2b760a91b6064820152608401610694565b600854600160a01b900460ff16610ffc5760405162461bcd60e51b815260206004820152602360248201527f4e46543a20546f6b656e2075726973206172652066726f7a656e20676c6f62616044820152626c6c7960e81b6064820152608401610694565b60008481526009602052604090205460ff161515600114156110575760405162461bcd60e51b815260206004820152601460248201527327232a1d102a37b5b2b71034b990333937bd32b760611b6044820152606401610694565b81806110635750825115155b6110d55760405162461bcd60e51b815260206004820152603860248201527f4e46543a20456974686572205f746f6b656e557269206f72205f69734672656560448201527f7a65546f6b656e5572693d7472756520726571756972656400000000000000006064820152608401610694565b825115611182576110e4611ac7565b836040516020016110f6929190612b50565b604051602081830303815290604052805190602001206111158561121a565b8051906020012014156111785760405162461bcd60e51b815260206004820152602560248201527f4e46543a204e657720746f6b656e205552492069732073616d6520617320757060448201526419185d195960da1b6064820152608401610694565b611182848461196d565b81156111e2576000848152600960205260409020805460ff19166001179055837fa109ba539900bf1b633f956d63c96fc89b814c7287f7aa50a9216d0b556572076111cc8261121a565b6040516111d99190612669565b60405180910390a25b50505050565b6111f23383611596565b61120e5760405162461bcd60e51b815260040161069490612a8a565b6111e284848484611563565b606061122582611474565b61128b5760405162461bcd60e51b815260206004820152603160248201527f45524337323155524953746f726167653a2055524920717565727920666f72206044820152703737b732bc34b9ba32b73a103a37b5b2b760791b6064820152608401610694565b600082815260066020526040812080546112a490612a4f565b80601f01602080910402602001604051908101604052809291908181526020018280546112d090612a4f565b801561131d5780601f106112f25761010080835404028352916020019161131d565b820191906000526020600020905b81548152906001019060200180831161130057829003601f168201915b50505050509050600061132e611ac7565b9050805160001415611341575092915050565b81511561137357808260405160200161135b929190612b50565b60405160208183030381529060405292505050919050565b61137c84611ad6565b949350505050565b6000828152600760205260409020600101546113a081336114ff565b6107ca83836118a9565b606060006113f86113bc601054611ba1565b600f546113d3906001600160a01b03166014611c9f565b6040516020016113e4929190612b7f565b604051602081830303815290604052611e3b565b905060008160405160200161140d9190612c06565b60408051601f198184030181529190529392505050565b60006001600160e01b031982166380ac58cd60e01b148061145557506001600160e01b03198216635b5e139f60e01b145b8061059457506301ffc9a760e01b6001600160e01b0319831614610594565b6000908152600260205260409020546001600160a01b0316151590565b600081815260046020526040902080546001600160a01b0319166001600160a01b03841690811790915581906114c682610d0c565b6001600160a01b03167f8c5be1e5ebec7d5bd14f71427d1e84f3dd0314c0f7b2291e5b200ac8c7c3b92560405160405180910390a45050565b6115098282610ed0565b610b1957611521816001600160a01b03166014611c9f565b61152c836020611c9f565b60405160200161153d929190612c4b565b60408051601f198184030181529082905262461bcd60e51b825261069491600401612669565b61156e84848461167c565b61157a84848484611fa1565b6111e25760405162461bcd60e51b815260040161069490612cc0565b60006115a182611474565b6116025760405162461bcd60e51b815260206004820152602c60248201527f4552433732313a206f70657261746f7220717565727920666f72206e6f6e657860448201526b34b9ba32b73a103a37b5b2b760a11b6064820152608401610694565b600061160d83610d0c565b9050806001600160a01b0316846001600160a01b031614806116485750836001600160a01b031661163d8461062c565b6001600160a01b0316145b8061137c57506001600160a01b0380821660009081526005602090815260408083209388168352929052205460ff1661137c565b826001600160a01b031661168f82610d0c565b6001600160a01b0316146116f35760405162461bcd60e51b815260206004820152602560248201527f4552433732313a207472616e736665722066726f6d20696e636f72726563742060448201526437bbb732b960d91b6064820152608401610694565b6001600160a01b0382166117555760405162461bcd60e51b8152602060048201526024808201527f4552433732313a207472616e7366657220746f20746865207a65726f206164646044820152637265737360e01b6064820152608401610694565b6117608383836120ae565b61176b600082611491565b6001600160a01b0383166000908152600360205260408120805460019290611794908490612d12565b90915550506001600160a01b03821660009081526003602052604081208054600192906117c2908490612d29565b909155505060008181526002602052604080822080546001600160a01b0319166001600160a01b0386811691821790925591518493918716917fddf252ad1be2c89b69c2b068fc378daa952ba7f163c4a11628f55a4df523b3ef91a4505050565b61182d8282610ed0565b610b195760008281526007602090815260408083206001600160a01b03851684529091529020805460ff191660011790556118653390565b6001600160a01b0316816001600160a01b0316837f2f8788117e7eff1d82e926ec794901d17c78024a50270940304540a733656f0d60405160405180910390a45050565b6118b38282610ed0565b15610b195760008281526007602090815260408083206001600160a01b0385168085529252808320805460ff1916905551339285917ff6391f5c32d9c69d2a47ea670b442974b53935d1edc7fd64eb21e047a839171b9190a45050565b61191981612166565b6000818152600660205260409020805461193290612a4f565b15905061195057600081815260066020526040812061195091612593565b50565b610b1982826040518060200160405280600081525061220d565b61197682611474565b6119d95760405162461bcd60e51b815260206004820152602e60248201527f45524337323155524953746f726167653a2055524920736574206f66206e6f6e60448201526d32bc34b9ba32b73a103a37b5b2b760911b6064820152608401610694565b600082815260066020908152604090912082516107ca9284019061250f565b816001600160a01b0316836001600160a01b03161415611a5a5760405162461bcd60e51b815260206004820152601960248201527f4552433732313a20617070726f766520746f2063616c6c6572000000000000006044820152606401610694565b6001600160a01b03838116600081815260056020908152604080832094871680845294825291829020805460ff191686151590811790915591519182527f17307eab39ab6107e8899845ad3d59bd9653f200f220920489ca2b5937696c31910160405180910390a3505050565b6060600e80546105a990612a4f565b6060611ae182611474565b611b455760405162461bcd60e51b815260206004820152602f60248201527f4552433732314d657461646174613a2055524920717565727920666f72206e6f60448201526e3732bc34b9ba32b73a103a37b5b2b760891b6064820152608401610694565b6000611b4f611ac7565b90506000815111611b6f5760405180602001604052806000815250611b9a565b80611b7984611ba1565b604051602001611b8a929190612b50565b6040516020818303038152906040525b9392505050565b606081611bc55750506040805180820190915260018152600360fc1b602082015290565b8160005b8115611bef5780611bd981612d41565b9150611be89050600a83612b26565b9150611bc9565b60008167ffffffffffffffff811115611c0a57611c0a6126db565b6040519080825280601f01601f191660200182016040528015611c34576020820181803683370190505b5090505b841561137c57611c49600183612d12565b9150611c56600a86612d5c565b611c61906030612d29565b60f81b818381518110611c7657611c76612b3a565b60200101906001600160f81b031916908160001a905350611c98600a86612b26565b9450611c38565b60606000611cae836002612af1565b611cb9906002612d29565b67ffffffffffffffff811115611cd157611cd16126db565b6040519080825280601f01601f191660200182016040528015611cfb576020820181803683370190505b509050600360fc1b81600081518110611d1657611d16612b3a565b60200101906001600160f81b031916908160001a905350600f60fb1b81600181518110611d4557611d45612b3a565b60200101906001600160f81b031916908160001a9053506000611d69846002612af1565b611d74906001612d29565b90505b6001811115611dec576f181899199a1a9b1b9c1cb0b131b232b360811b85600f1660108110611da857611da8612b3a565b1a60f81b828281518110611dbe57611dbe612b3a565b60200101906001600160f81b031916908160001a90535060049490941c93611de581612d70565b9050611d77565b508315611b9a5760405162461bcd60e51b815260206004820181905260248201527f537472696e67733a20686578206c656e67746820696e73756666696369656e746044820152606401610694565b805160609080611e5b575050604080516020810190915260008152919050565b60006003611e6a836002612d29565b611e749190612b26565b611e7f906004612af1565b90506000611e8e826020612d29565b67ffffffffffffffff811115611ea657611ea66126db565b6040519080825280601f01601f191660200182016040528015611ed0576020820181803683370190505b5090506000604051806060016040528060408152602001612df8604091399050600181016020830160005b86811015611f5c576003818a01810151603f601282901c8116860151600c83901c8216870151600684901c831688015192909316870151600891821b60ff94851601821b92841692909201901b91160160e01b835260049092019101611efb565b506003860660018114611f765760028114611f8757611f93565b613d3d60f01b600119830152611f93565b603d60f81b6000198301525b505050918152949350505050565b60006001600160a01b0384163b156120a357604051630a85bd0160e11b81526001600160a01b0385169063150b7a0290611fe5903390899088908890600401612d87565b602060405180830381600087803b158015611fff57600080fd5b505af192505050801561202f575060408051601f3d908101601f1916820190925261202c91810190612dc4565b60015b612089573d80801561205d576040519150601f19603f3d011682016040523d82523d6000602084013e612062565b606091505b5080516120815760405162461bcd60e51b815260040161069490612cc0565b805181602001fd5b6001600160e01b031916630a85bd0160e11b14905061137c565b506001949350505050565b6001600160a01b0383166121095761210481600c80546000838152600d60205260408120829055600182018355919091527fdf6966c971051c3d54ec59162606531493a51404a002842f56009d7e5cf4a8c70155565b61212c565b816001600160a01b0316836001600160a01b03161461212c5761212c8382612240565b6001600160a01b038216612143576107ca816122dd565b826001600160a01b0316826001600160a01b0316146107ca576107ca828261238c565b600061217182610d0c565b905061217f816000846120ae565b61218a600083611491565b6001600160a01b03811660009081526003602052604081208054600192906121b3908490612d12565b909155505060008281526002602052604080822080546001600160a01b0319169055518391906001600160a01b038416907fddf252ad1be2c89b69c2b068fc378daa952ba7f163c4a11628f55a4df523b3ef908390a45050565b61221783836123d0565b6122246000848484611fa1565b6107ca5760405162461bcd60e51b815260040161069490612cc0565b6000600161224d84610e11565b6122579190612d12565b6000838152600b60205260409020549091508082146122aa576001600160a01b0384166000908152600a602090815260408083208584528252808320548484528184208190558352600b90915290208190555b506000918252600b602090815260408084208490556001600160a01b039094168352600a81528383209183525290812055565b600c546000906122ef90600190612d12565b6000838152600d6020526040812054600c805493945090928490811061231757612317612b3a565b9060005260206000200154905080600c838154811061233857612338612b3a565b6000918252602080832090910192909255828152600d9091526040808220849055858252812055600c80548061237057612370612de1565b6001900381819060005260206000200160009055905550505050565b600061239783610e11565b6001600160a01b039093166000908152600a602090815260408083208684528252808320859055938252600b9052919091209190915550565b6001600160a01b0382166124265760405162461bcd60e51b815260206004820181905260248201527f4552433732313a206d696e7420746f20746865207a65726f20616464726573736044820152606401610694565b61242f81611474565b1561247c5760405162461bcd60e51b815260206004820152601c60248201527f4552433732313a20746f6b656e20616c7265616479206d696e746564000000006044820152606401610694565b612488600083836120ae565b6001600160a01b03821660009081526003602052604081208054600192906124b1908490612d29565b909155505060008181526002602052604080822080546001600160a01b0319166001600160a01b03861690811790915590518392907fddf252ad1be2c89b69c2b068fc378daa952ba7f163c4a11628f55a4df523b3ef908290a45050565b82805461251b90612a4f565b90600052602060002090601f01602090048101928261253d5760008555612583565b82601f1061255657805160ff1916838001178555612583565b82800160010185558215612583579182015b82811115612583578251825591602001919060010190612568565b5061258f9291506125c9565b5090565b50805461259f90612a4f565b6000825580601f106125af575050565b601f01602090049060005260206000209081019061195091905b5b8082111561258f57600081556001016125ca565b6001600160e01b03198116811461195057600080fd5b60006020828403121561260657600080fd5b8135611b9a816125de565b60005b8381101561262c578181015183820152602001612614565b838111156111e25750506000910152565b60008151808452612655816020860160208601612611565b601f01601f19169290920160200192915050565b602081526000611b9a602083018461263d565b60006020828403121561268e57600080fd5b5035919050565b80356001600160a01b03811681146126ac57600080fd5b919050565b600080604083850312156126c457600080fd5b6126cd83612695565b946020939093013593505050565b634e487b7160e01b600052604160045260246000fd5b600067ffffffffffffffff8084111561270c5761270c6126db565b604051601f8501601f19908116603f01168101908282118183101715612734576127346126db565b8160405280935085815286868601111561274d57600080fd5b858560208301376000602087830101525050509392505050565b600082601f83011261277857600080fd5b611b9a838335602085016126f1565b803580151581146126ac57600080fd5b600080600080600060a086880312156127af57600080fd5b853567ffffffffffffffff8111156127c657600080fd5b6127d288828901612767565b9550506127e160208701612787565b93506127ef60408701612787565b92506127fd60608701612695565b915060808601356bffffffffffffffffffffffff8116811461281e57600080fd5b809150509295509295909350565b60008060006060848603121561284157600080fd5b61284a84612695565b925061285860208501612695565b9150604084013590509250925092565b6000806040838503121561287b57600080fd5b50508035926020909101359150565b6000806040838503121561289d57600080fd5b823591506128ad60208401612695565b90509250929050565b6000602082840312156128c857600080fd5b611b9a82612695565b6000806000606084860312156128e657600080fd5b6128ef84612695565b925060208401359150604084013567ffffffffffffffff81111561291257600080fd5b61291e86828701612767565b9150509250925092565b6000806040838503121561293b57600080fd5b61294483612695565b91506128ad60208401612787565b60008060006060848603121561296757600080fd5b83359250602084013567ffffffffffffffff81111561298557600080fd5b61299186828701612767565b9250506129a060408501612787565b90509250925092565b600080600080608085870312156129bf57600080fd5b6129c885612695565b93506129d660208601612695565b925060408501359150606085013567ffffffffffffffff8111156129f957600080fd5b8501601f81018713612a0a57600080fd5b612a19878235602084016126f1565b91505092959194509250565b60008060408385031215612a3857600080fd5b612a4183612695565b91506128ad60208401612695565b600181811c90821680612a6357607f821691505b60208210811415612a8457634e487b7160e01b600052602260045260246000fd5b50919050565b60208082526031908201527f4552433732313a207472616e736665722063616c6c6572206973206e6f74206f6040820152701ddb995c881b9bdc88185c1c1c9bdd9959607a1b606082015260800190565b634e487b7160e01b600052601160045260246000fd5b6000816000190483118215151615612b0b57612b0b612adb565b500290565b634e487b7160e01b600052601260045260246000fd5b600082612b3557612b35612b10565b500490565b634e487b7160e01b600052603260045260246000fd5b60008351612b62818460208801612611565b835190830190612b76818360208801612611565b01949350505050565b7f7b2273656c6c65725f6665655f62617369735f706f696e7473223a2000000000815260008351612bb781601c850160208801612611565b731610113332b2afb932b1b4b834b2b73a111d101160611b601c918401918201528351612beb816030840160208801612611565b61227d60f01b60309290910191820152603201949350505050565b7f646174613a6170706c69636174696f6e2f6a736f6e3b6261736536342c000000815260008251612c3e81601d850160208701612611565b91909101601d0192915050565b7f416363657373436f6e74726f6c3a206163636f756e7420000000000000000000815260008351612c83816017850160208801612611565b7001034b99036b4b9b9b4b733903937b6329607d1b6017918401918201528351612cb4816028840160208801612611565b01602801949350505050565b60208082526032908201527f4552433732313a207472616e7366657220746f206e6f6e20455243373231526560408201527131b2b4bb32b91034b6b83632b6b2b73a32b960711b606082015260800190565b600082821015612d2457612d24612adb565b500390565b60008219821115612d3c57612d3c612adb565b500190565b6000600019821415612d5557612d55612adb565b5060010190565b600082612d6b57612d6b612b10565b500690565b600081612d7f57612d7f612adb565b506000190190565b6001600160a01b0385811682528416602082015260408101839052608060608201819052600090612dba9083018461263d565b9695505050505050565b600060208284031215612dd657600080fd5b8151611b9a816125de565b634e487b7160e01b600052603160045260246000fdfe4142434445464748494a4b4c4d4e4f505152535455565758595a6162636465666768696a6b6c6d6e6f707172737475767778797a303132333435363738392b2f9f2df0fed2c77648de5860a4cc508cd0818c85b8b8a1ab4ceeef8d981c8956a6a264697066735822122013ae1b9be1e74e955dc854b179636e82e96f1257fe6e68cbe115b57b25e2cd8b64736f6c634300080900339f2df0fed2c77648de5860a4cc508cd0818c85b8b8a1ab4ceeef8d981c8956a6",
  "devdoc": {
    "kind": "dev",
    "methods": {
      "approve(address,uint256)": {
        "details": "See {IERC721-approve}."
      },
      "balanceOf(address)": {
        "details": "See {IERC721-balanceOf}."
      },
      "getApproved(uint256)": {
        "details": "See {IERC721-getApproved}."
      },
      "getRoleAdmin(bytes32)": {
        "details": "Returns the admin role that controls `role`. See {grantRole} and {revokeRole}. To change a role's admin, use {_setRoleAdmin}."
      },
      "grantRole(bytes32,address)": {
        "details": "Grants `role` to `account`. If `account` had not been already granted `role`, emits a {RoleGranted} event. Requirements: - the caller must have ``role``'s admin role."
      },
      "hasRole(bytes32,address)": {
        "details": "Returns `true` if `account` has been granted `role`."
      },
      "isApprovedForAll(address,address)": {
        "details": "See {IERC721-isApprovedForAll}."
      },
      "name()": {
        "details": "See {IERC721Metadata-name}."
      },
      "ownerOf(uint256)": {
        "details": "See {IERC721-ownerOf}."
      },
      "renounceRole(bytes32,address)": {
        "details": "Revokes `role` from the calling account. Roles are often managed via {grantRole} and {revokeRole}: this function's purpose is to provide a mechanism for accounts to lose their privileges if they are compromised (such as when a trusted device is misplaced). If the calling account had been revoked `role`, emits a {RoleRevoked} event. Requirements: - the caller must be `account`."
      },
      "revokeRole(bytes32,address)": {
        "details": "Revokes `role` from `account`. If `account` had been granted `role`, emits a {RoleRevoked} event. Requirements: - the caller must have ``role``'s admin role."
      },
      "safeTransferFrom(address,address,uint256)": {
        "details": "See {IERC721-safeTransferFrom}."
      },
      "safeTransferFrom(address,address,uint256,bytes)": {
        "details": "See {IERC721-safeTransferFrom}."
      },
      "setApprovalForAll(address,bool)": {
        "details": "See {IERC721-setApprovalForAll}."
      },
      "symbol()": {
        "details": "See {IERC721Metadata-symbol}."
      },
      "tokenURI(uint256)": {
        "details": "See {IERC721Metadata-tokenURI}."
      },
      "transferFrom(address,address,uint256)": {
        "details": "See {IERC721-transferFrom}."
      }
    },
    "version": 1
  },
  "userdoc": {
    "kind": "user",
    "methods": {},
    "version": 1
  },
  "storageLayout": {
    "storage": [
      {
        "astId": 1808,
        "contract": "contracts/ERC721NftCustom.sol:ERC721NFTCustom",
        "label": "_name",
        "offset": 0,
        "slot": "0",
        "type": "t_string_storage"
      },
      {
        "astId": 1810,
        "contract": "contracts/ERC721NftCustom.sol:ERC721NFTCustom",
        "label": "_symbol",
        "offset": 0,
        "slot": "1",
        "type": "t_string_storage"
      },
      {
        "astId": 1814,
        "contract": "contracts/ERC721NftCustom.sol:ERC721NFTCustom",
        "label": "_owners",
        "offset": 0,
        "slot": "2",
        "type": "t_mapping(t_uint256,t_address)"
      },
      {
        "astId": 1818,
        "contract": "contracts/ERC721NftCustom.sol:ERC721NFTCustom",
        "label": "_balances",
        "offset": 0,
        "slot": "3",
        "type": "t_mapping(t_address,t_uint256)"
      },
      {
        "astId": 1822,
        "contract": "contracts/ERC721NftCustom.sol:ERC721NFTCustom",
        "label": "_tokenApprovals",
        "offset": 0,
        "slot": "4",
        "type": "t_mapping(t_uint256,t_address)"
      },
      {
        "astId": 1828,
        "contract": "contracts/ERC721NftCustom.sol:ERC721NFTCustom",
        "label": "_operatorApprovals",
        "offset": 0,
        "slot": "5",
        "type": "t_mapping(t_address,t_mapping(t_address,t_bool))"
      },
      {
        "astId": 3133,
        "contract": "contracts/ERC721NftCustom.sol:ERC721NFTCustom",
        "label": "_tokenURIs",
        "offset": 0,
        "slot": "6",
        "type": "t_mapping(t_uint256,t_string_storage)"
      },
      {
        "astId": 24,
        "contract": "contracts/ERC721NftCustom.sol:ERC721NFTCustom",
        "label": "_roles",
        "offset": 0,
        "slot": "7",
        "type": "t_mapping(t_bytes32,t_struct(RoleData)19_storage)"
      },
      {
        "astId": 5395,
        "contract": "contracts/ERC721NftCustom.sol:ERC721NFTCustom",
        "label": "_owner",
        "offset": 0,
        "slot": "8",
        "type": "t_address"
      },
      {
        "astId": 5397,
        "contract": "contracts/ERC721NftCustom.sol:ERC721NFTCustom",
        "label": "metadataUpdatable",
        "offset": 20,
        "slot": "8",
        "type": "t_bool"
      },
      {
        "astId": 5399,
        "contract": "contracts/ERC721NftCustom.sol:ERC721NFTCustom",
        "label": "tokensBurnable",
        "offset": 21,
        "slot": "8",
        "type": "t_bool"
      },
      {
        "astId": 5401,
        "contract": "contracts/ERC721NftCustom.sol:ERC721NFTCustom",
        "label": "tokensTransferable",
        "offset": 22,
        "slot": "8",
        "type": "t_bool"
      },
      {
        "astId": 5405,
        "contract": "contracts/ERC721NftCustom.sol:ERC721NFTCustom",
        "label": "freezeTokenUris",
        "offset": 0,
        "slot": "9",
        "type": "t_mapping(t_uint256,t_bool)"
      },
      {
        "astId": 5411,
        "contract": "contracts/ERC721NftCustom.sol:ERC721NFTCustom",
        "label": "_ownedTokens",
        "offset": 0,
        "slot": "10",
        "type": "t_mapping(t_address,t_mapping(t_uint256,t_uint256))"
      },
      {
        "astId": 5415,
        "contract": "contracts/ERC721NftCustom.sol:ERC721NFTCustom",
        "label": "_ownedTokensIndex",
        "offset": 0,
        "slot": "11",
        "type": "t_mapping(t_uint256,t_uint256)"
      },
      {
        "astId": 5418,
        "contract": "contracts/ERC721NftCustom.sol:ERC721NFTCustom",
        "label": "_allTokens",
        "offset": 0,
        "slot": "12",
        "type": "t_array(t_uint256)dyn_storage"
      },
      {
        "astId": 5422,
        "contract": "contracts/ERC721NftCustom.sol:ERC721NFTCustom",
        "label": "_allTokensIndex",
        "offset": 0,
        "slot": "13",
        "type": "t_mapping(t_uint256,t_uint256)"
      },
      {
        "astId": 5424,
        "contract": "contracts/ERC721NftCustom.sol:ERC721NFTCustom",
        "label": "baseURI",
        "offset": 0,
        "slot": "14",
        "type": "t_string_storage"
      },
      {
        "astId": 5426,
        "contract": "contracts/ERC721NftCustom.sol:ERC721NFTCustom",
        "label": "royaltiesAddress",
        "offset": 0,
        "slot": "15",
        "type": "t_address"
      },
      {
        "astId": 5428,
        "contract": "contracts/ERC721NftCustom.sol:ERC721NFTCustom",
        "label": "royaltiesBasisPoints",
        "offset": 0,
        "slot": "16",
        "type": "t_uint256"
      }
    ],
    "types": {
      "t_address": {
        "encoding": "inplace",
        "label": "address",
        "numberOfBytes": "20"
      },
      "t_array(t_uint256)dyn_storage": {
        "base": "t_uint256",
        "encoding": "dynamic_array",
        "label": "uint256[]",
        "numberOfBytes": "32"
      },
      "t_bool": {
        "encoding": "inplace",
        "label": "bool",
        "numberOfBytes": "1"
      },
      "t_bytes32": {
        "encoding": "inplace",
        "label": "bytes32",
        "numberOfBytes": "32"
      },
      "t_mapping(t_address,t_bool)": {
        "encoding": "mapping",
        "key": "t_address",
        "label": "mapping(address => bool)",
        "numberOfBytes": "32",
        "value": "t_bool"
      },
      "t_mapping(t_address,t_mapping(t_address,t_bool))": {
        "encoding": "mapping",
        "key": "t_address",
        "label": "mapping(address => mapping(address => bool))",
        "numberOfBytes": "32",
        "value": "t_mapping(t_address,t_bool)"
      },
      "t_mapping(t_address,t_mapping(t_uint256,t_uint256))": {
        "encoding": "mapping",
        "key": "t_address",
        "label": "mapping(address => mapping(uint256 => uint256))",
        "numberOfBytes": "32",
        "value": "t_mapping(t_uint256,t_uint256)"
      },
      "t_mapping(t_address,t_uint256)": {
        "encoding": "mapping",
        "key": "t_address",
        "label": "mapping(address => uint256)",
        "numberOfBytes": "32",
        "value": "t_uint256"
      },
      "t_mapping(t_bytes32,t_struct(RoleData)19_storage)": {
        "encoding": "mapping",
        "key": "t_bytes32",
        "label": "mapping(bytes32 => struct AccessControl.RoleData)",
        "numberOfBytes": "32",
        "value": "t_struct(RoleData)19_storage"
      },
      "t_mapping(t_uint256,t_address)": {
        "encoding": "mapping",
        "key": "t_uint256",
        "label": "mapping(uint256 => address)",
        "numberOfBytes": "32",
        "value": "t_address"
      },
      "t_mapping(t_uint256,t_bool)": {
        "encoding": "mapping",
        "key": "t_uint256",
        "label": "mapping(uint256 => bool)",
        "numberOfBytes": "32",
        "value": "t_bool"
      },
      "t_mapping(t_uint256,t_string_storage)": {
        "encoding": "mapping",
        "key": "t_uint256",
        "label": "mapping(uint256 => string)",
        "numberOfBytes": "32",
        "value": "t_string_storage"
      },
      "t_mapping(t_uint256,t_uint256)": {
        "encoding": "mapping",
        "key": "t_uint256",
        "label": "mapping(uint256 => uint256)",
        "numberOfBytes": "32",
        "value": "t_uint256"
      },
      "t_string_storage": {
        "encoding": "bytes",
        "label": "string",
        "numberOfBytes": "32"
      },
      "t_struct(RoleData)19_storage": {
        "encoding": "inplace",
        "label": "struct AccessControl.RoleData",
        "members": [
          {
            "astId": 16,
            "contract": "contracts/ERC721NftCustom.sol:ERC721NFTCustom",
            "label": "members",
            "offset": 0,
            "slot": "0",
            "type": "t_mapping(t_address,t_bool)"
          },
          {
            "astId": 18,
            "contract": "contracts/ERC721NftCustom.sol:ERC721NFTCustom",
            "label": "adminRole",
            "offset": 0,
            "slot": "1",
            "type": "t_bytes32"
          }
        ],
        "numberOfBytes": "64"
      },
      "t_uint256": {
        "encoding": "inplace",
        "label": "uint256",
        "numberOfBytes": "32"
      }
    }
  }
}