{
  "address": "0x387a294a2B92387cf46714FaA537F1F81d50c210",
  "abi": [
    {
      "inputs": [
        {
          "components": [
            {
              "internalType": "string",
              "name": "name",
              "type": "string"
            },
            {
              "internalType": "string",
              "name": "symbol",
              "type": "string"
            },
            {
              "internalType": "address",
              "name": "owner",
              "type": "address"
            },
            {
              "internalType": "uint256",
              "name": "maxSupply",
              "type": "uint256"
            },
            {
              "internalType": "uint256",
              "name": "mintPrice",
              "type": "uint256"
            },
            {
              "internalType": "uint256",
              "name": "tokensPerMint",
              "type": "uint256"
            },
            {
              "internalType": "address payable",
              "name": "treasuryAddress",
              "type": "address"
            }
          ],
          "internalType": "struct NFTCollection.DeploymentConfig",
          "name": "deploymentConfig",
          "type": "tuple"
        },
        {
          "components": [
            {
              "internalType": "string",
              "name": "baseURI",
              "type": "string"
            },
            {
              "internalType": "bool",
              "name": "metadataUpdatable",
              "type": "bool"
            },
            {
              "internalType": "uint256",
              "name": "publicMintStart",
              "type": "uint256"
            },
            {
              "internalType": "uint256",
              "name": "presaleMintStart",
              "type": "uint256"
            },
            {
              "internalType": "string",
              "name": "prerevealTokenURI",
              "type": "string"
            },
            {
              "internalType": "bytes32",
              "name": "presaleMerkleRoot",
              "type": "bytes32"
            },
            {
              "internalType": "uint256",
              "name": "royaltiesBps",
              "type": "uint256"
            },
            {
              "internalType": "address",
              "name": "royaltiesAddress",
              "type": "address"
            }
          ],
          "internalType": "struct NFTCollection.RuntimeConfig",
          "name": "runtimeConfig",
          "type": "tuple"
        }
      ],
      "stateMutability": "nonpayable",
      "type": "constructor"
    },
    {
      "anonymous": false,
      "inputs": [
        {
          "indexed": true,
          "internalType": "address",
          "name": "owner",
          "type": "address"
        },
        {
          "indexed": true,
          "internalType": "address",
          "name": "approved",
          "type": "address"
        },
        {
          "indexed": true,
          "internalType": "uint256",
          "name": "tokenId",
          "type": "uint256"
        }
      ],
      "name": "Approval",
      "type": "event"
    },
    {
      "anonymous": false,
      "inputs": [
        {
          "indexed": true,
          "internalType": "address",
          "name": "owner",
          "type": "address"
        },
        {
          "indexed": true,
          "internalType": "address",
          "name": "operator",
          "type": "address"
        },
        {
          "indexed": false,
          "internalType": "bool",
          "name": "approved",
          "type": "bool"
        }
      ],
      "name": "ApprovalForAll",
      "type": "event"
    },
    {
      "anonymous": false,
      "inputs": [
        {
          "indexed": true,
          "internalType": "address",
          "name": "previousOwner",
          "type": "address"
        },
        {
          "indexed": true,
          "internalType": "address",
          "name": "newOwner",
          "type": "address"
        }
      ],
      "name": "OwnershipTransferred",
      "type": "event"
    },
    {
      "anonymous": false,
      "inputs": [
        {
          "indexed": true,
          "internalType": "bytes32",
          "name": "role",
          "type": "bytes32"
        },
        {
          "indexed": true,
          "internalType": "bytes32",
          "name": "previousAdminRole",
          "type": "bytes32"
        },
        {
          "indexed": true,
          "internalType": "bytes32",
          "name": "newAdminRole",
          "type": "bytes32"
        }
      ],
      "name": "RoleAdminChanged",
      "type": "event"
    },
    {
      "anonymous": false,
      "inputs": [
        {
          "indexed": true,
          "internalType": "bytes32",
          "name": "role",
          "type": "bytes32"
        },
        {
          "indexed": true,
          "internalType": "address",
          "name": "account",
          "type": "address"
        },
        {
          "indexed": true,
          "internalType": "address",
          "name": "sender",
          "type": "address"
        }
      ],
      "name": "RoleGranted",
      "type": "event"
    },
    {
      "anonymous": false,
      "inputs": [
        {
          "indexed": true,
          "internalType": "bytes32",
          "name": "role",
          "type": "bytes32"
        },
        {
          "indexed": true,
          "internalType": "address",
          "name": "account",
          "type": "address"
        },
        {
          "indexed": true,
          "internalType": "address",
          "name": "sender",
          "type": "address"
        }
      ],
      "name": "RoleRevoked",
      "type": "event"
    },
    {
      "anonymous": false,
      "inputs": [
        {
          "indexed": true,
          "internalType": "address",
          "name": "from",
          "type": "address"
        },
        {
          "indexed": true,
          "internalType": "address",
          "name": "to",
          "type": "address"
        },
        {
          "indexed": true,
          "internalType": "uint256",
          "name": "tokenId",
          "type": "uint256"
        }
      ],
      "name": "Transfer",
      "type": "event"
    },
    {
      "inputs": [],
      "name": "ADMIN_ROLE",
      "outputs": [
        {
          "internalType": "bytes32",
          "name": "",
          "type": "bytes32"
        }
      ],
      "stateMutability": "view",
      "type": "function"
    },
    {
      "inputs": [],
      "name": "DEFAULT_ADMIN_ROLE",
      "outputs": [
        {
          "internalType": "bytes32",
          "name": "",
          "type": "bytes32"
        }
      ],
      "stateMutability": "view",
      "type": "function"
    },
    {
      "inputs": [],
      "name": "VERSION",
      "outputs": [
        {
          "internalType": "uint256",
          "name": "",
          "type": "uint256"
        }
      ],
      "stateMutability": "view",
      "type": "function"
    },
    {
      "inputs": [
        {
          "internalType": "address",
          "name": "to",
          "type": "address"
        },
        {
          "internalType": "uint256",
          "name": "tokenId",
          "type": "uint256"
        }
      ],
      "name": "approve",
      "outputs": [],
      "stateMutability": "nonpayable",
      "type": "function"
    },
    {
      "inputs": [
        {
          "internalType": "address",
          "name": "owner",
          "type": "address"
        }
      ],
      "name": "balanceOf",
      "outputs": [
        {
          "internalType": "uint256",
          "name": "",
          "type": "uint256"
        }
      ],
      "stateMutability": "view",
      "type": "function"
    },
    {
      "inputs": [],
      "name": "baseURI",
      "outputs": [
        {
          "internalType": "string",
          "name": "",
          "type": "string"
        }
      ],
      "stateMutability": "view",
      "type": "function"
    },
    {
      "inputs": [],
      "name": "contractURI",
      "outputs": [
        {
          "internalType": "string",
          "name": "",
          "type": "string"
        }
      ],
      "stateMutability": "view",
      "type": "function"
    },
    {
      "inputs": [
        {
          "internalType": "uint256",
          "name": "tokenId",
          "type": "uint256"
        }
      ],
      "name": "getApproved",
      "outputs": [
        {
          "internalType": "address",
          "name": "",
          "type": "address"
        }
      ],
      "stateMutability": "view",
      "type": "function"
    },
    {
      "inputs": [],
      "name": "getInfo",
      "outputs": [
        {
          "components": [
            {
              "internalType": "uint256",
              "name": "version",
              "type": "uint256"
            },
            {
              "components": [
                {
                  "internalType": "string",
                  "name": "name",
                  "type": "string"
                },
                {
                  "internalType": "string",
                  "name": "symbol",
                  "type": "string"
                },
                {
                  "internalType": "address",
                  "name": "owner",
                  "type": "address"
                },
                {
                  "internalType": "uint256",
                  "name": "maxSupply",
                  "type": "uint256"
                },
                {
                  "internalType": "uint256",
                  "name": "mintPrice",
                  "type": "uint256"
                },
                {
                  "internalType": "uint256",
                  "name": "tokensPerMint",
                  "type": "uint256"
                },
                {
                  "internalType": "address payable",
                  "name": "treasuryAddress",
                  "type": "address"
                }
              ],
              "internalType": "struct NFTCollection.DeploymentConfig",
              "name": "deploymentConfig",
              "type": "tuple"
            },
            {
              "components": [
                {
                  "internalType": "string",
                  "name": "baseURI",
                  "type": "string"
                },
                {
                  "internalType": "bool",
                  "name": "metadataUpdatable",
                  "type": "bool"
                },
                {
                  "internalType": "uint256",
                  "name": "publicMintStart",
                  "type": "uint256"
                },
                {
                  "internalType": "uint256",
                  "name": "presaleMintStart",
                  "type": "uint256"
                },
                {
                  "internalType": "string",
                  "name": "prerevealTokenURI",
                  "type": "string"
                },
                {
                  "internalType": "bytes32",
                  "name": "presaleMerkleRoot",
                  "type": "bytes32"
                },
                {
                  "internalType": "uint256",
                  "name": "royaltiesBps",
                  "type": "uint256"
                },
                {
                  "internalType": "address",
                  "name": "royaltiesAddress",
                  "type": "address"
                }
              ],
              "internalType": "struct NFTCollection.RuntimeConfig",
              "name": "runtimeConfig",
              "type": "tuple"
            }
          ],
          "internalType": "struct NFTCollection.ContractInfo",
          "name": "info",
          "type": "tuple"
        }
      ],
      "stateMutability": "view",
      "type": "function"
    },
    {
      "inputs": [
        {
          "internalType": "bytes32",
          "name": "role",
          "type": "bytes32"
        }
      ],
      "name": "getRoleAdmin",
      "outputs": [
        {
          "internalType": "bytes32",
          "name": "",
          "type": "bytes32"
        }
      ],
      "stateMutability": "view",
      "type": "function"
    },
    {
      "inputs": [
        {
          "internalType": "bytes32",
          "name": "role",
          "type": "bytes32"
        },
        {
          "internalType": "address",
          "name": "account",
          "type": "address"
        }
      ],
      "name": "grantRole",
      "outputs": [],
      "stateMutability": "nonpayable",
      "type": "function"
    },
    {
      "inputs": [
        {
          "internalType": "bytes32",
          "name": "role",
          "type": "bytes32"
        },
        {
          "internalType": "address",
          "name": "account",
          "type": "address"
        }
      ],
      "name": "hasRole",
      "outputs": [
        {
          "internalType": "bool",
          "name": "",
          "type": "bool"
        }
      ],
      "stateMutability": "view",
      "type": "function"
    },
    {
      "inputs": [
        {
          "components": [
            {
              "internalType": "string",
              "name": "name",
              "type": "string"
            },
            {
              "internalType": "string",
              "name": "symbol",
              "type": "string"
            },
            {
              "internalType": "address",
              "name": "owner",
              "type": "address"
            },
            {
              "internalType": "uint256",
              "name": "maxSupply",
              "type": "uint256"
            },
            {
              "internalType": "uint256",
              "name": "mintPrice",
              "type": "uint256"
            },
            {
              "internalType": "uint256",
              "name": "tokensPerMint",
              "type": "uint256"
            },
            {
              "internalType": "address payable",
              "name": "treasuryAddress",
              "type": "address"
            }
          ],
          "internalType": "struct NFTCollection.DeploymentConfig",
          "name": "deploymentConfig",
          "type": "tuple"
        },
        {
          "components": [
            {
              "internalType": "string",
              "name": "baseURI",
              "type": "string"
            },
            {
              "internalType": "bool",
              "name": "metadataUpdatable",
              "type": "bool"
            },
            {
              "internalType": "uint256",
              "name": "publicMintStart",
              "type": "uint256"
            },
            {
              "internalType": "uint256",
              "name": "presaleMintStart",
              "type": "uint256"
            },
            {
              "internalType": "string",
              "name": "prerevealTokenURI",
              "type": "string"
            },
            {
              "internalType": "bytes32",
              "name": "presaleMerkleRoot",
              "type": "bytes32"
            },
            {
              "internalType": "uint256",
              "name": "royaltiesBps",
              "type": "uint256"
            },
            {
              "internalType": "address",
              "name": "royaltiesAddress",
              "type": "address"
            }
          ],
          "internalType": "struct NFTCollection.RuntimeConfig",
          "name": "runtimeConfig",
          "type": "tuple"
        }
      ],
      "name": "initialize",
      "outputs": [],
      "stateMutability": "nonpayable",
      "type": "function"
    },
    {
      "inputs": [
        {
          "internalType": "address",
          "name": "owner",
          "type": "address"
        },
        {
          "internalType": "address",
          "name": "operator",
          "type": "address"
        }
      ],
      "name": "isApprovedForAll",
      "outputs": [
        {
          "internalType": "bool",
          "name": "",
          "type": "bool"
        }
      ],
      "stateMutability": "view",
      "type": "function"
    },
    {
      "inputs": [
        {
          "internalType": "address",
          "name": "wallet",
          "type": "address"
        },
        {
          "internalType": "bytes32[]",
          "name": "proof",
          "type": "bytes32[]"
        }
      ],
      "name": "isWhitelisted",
      "outputs": [
        {
          "internalType": "bool",
          "name": "",
          "type": "bool"
        }
      ],
      "stateMutability": "view",
      "type": "function"
    },
    {
      "inputs": [],
      "name": "maxSupply",
      "outputs": [
        {
          "internalType": "uint256",
          "name": "",
          "type": "uint256"
        }
      ],
      "stateMutability": "view",
      "type": "function"
    },
    {
      "inputs": [],
      "name": "metadataUpdatable",
      "outputs": [
        {
          "internalType": "bool",
          "name": "",
          "type": "bool"
        }
      ],
      "stateMutability": "view",
      "type": "function"
    },
    {
      "inputs": [
        {
          "internalType": "uint256",
          "name": "amount",
          "type": "uint256"
        }
      ],
      "name": "mint",
      "outputs": [],
      "stateMutability": "payable",
      "type": "function"
    },
    {
      "inputs": [],
      "name": "mintPrice",
      "outputs": [
        {
          "internalType": "uint256",
          "name": "",
          "type": "uint256"
        }
      ],
      "stateMutability": "view",
      "type": "function"
    },
    {
      "inputs": [],
      "name": "mintingActive",
      "outputs": [
        {
          "internalType": "bool",
          "name": "",
          "type": "bool"
        }
      ],
      "stateMutability": "view",
      "type": "function"
    },
    {
      "inputs": [],
      "name": "name",
      "outputs": [
        {
          "internalType": "string",
          "name": "",
          "type": "string"
        }
      ],
      "stateMutability": "view",
      "type": "function"
    },
    {
      "inputs": [],
      "name": "owner",
      "outputs": [
        {
          "internalType": "address",
          "name": "",
          "type": "address"
        }
      ],
      "stateMutability": "view",
      "type": "function"
    },
    {
      "inputs": [
        {
          "internalType": "uint256",
          "name": "tokenId",
          "type": "uint256"
        }
      ],
      "name": "ownerOf",
      "outputs": [
        {
          "internalType": "address",
          "name": "",
          "type": "address"
        }
      ],
      "stateMutability": "view",
      "type": "function"
    },
    {
      "inputs": [],
      "name": "prerevealTokenURI",
      "outputs": [
        {
          "internalType": "string",
          "name": "",
          "type": "string"
        }
      ],
      "stateMutability": "view",
      "type": "function"
    },
    {
      "inputs": [],
      "name": "presaleActive",
      "outputs": [
        {
          "internalType": "bool",
          "name": "",
          "type": "bool"
        }
      ],
      "stateMutability": "view",
      "type": "function"
    },
    {
      "inputs": [],
      "name": "presaleMerkleRoot",
      "outputs": [
        {
          "internalType": "bytes32",
          "name": "",
          "type": "bytes32"
        }
      ],
      "stateMutability": "view",
      "type": "function"
    },
    {
      "inputs": [
        {
          "internalType": "uint256",
          "name": "amount",
          "type": "uint256"
        },
        {
          "internalType": "bytes32[]",
          "name": "proof",
          "type": "bytes32[]"
        }
      ],
      "name": "presaleMint",
      "outputs": [],
      "stateMutability": "payable",
      "type": "function"
    },
    {
      "inputs": [],
      "name": "presaleMintStart",
      "outputs": [
        {
          "internalType": "uint256",
          "name": "",
          "type": "uint256"
        }
      ],
      "stateMutability": "view",
      "type": "function"
    },
    {
      "inputs": [],
      "name": "publicMintStart",
      "outputs": [
        {
          "internalType": "uint256",
          "name": "",
          "type": "uint256"
        }
      ],
      "stateMutability": "view",
      "type": "function"
    },
    {
      "inputs": [
        {
          "internalType": "bytes32",
          "name": "role",
          "type": "bytes32"
        },
        {
          "internalType": "address",
          "name": "account",
          "type": "address"
        }
      ],
      "name": "renounceRole",
      "outputs": [],
      "stateMutability": "nonpayable",
      "type": "function"
    },
    {
      "inputs": [
        {
          "internalType": "bytes32",
          "name": "role",
          "type": "bytes32"
        },
        {
          "internalType": "address",
          "name": "account",
          "type": "address"
        }
      ],
      "name": "revokeRole",
      "outputs": [],
      "stateMutability": "nonpayable",
      "type": "function"
    },
    {
      "inputs": [
        {
          "internalType": "uint256",
          "name": "",
          "type": "uint256"
        },
        {
          "internalType": "uint256",
          "name": "salePrice",
          "type": "uint256"
        }
      ],
      "name": "royaltyInfo",
      "outputs": [
        {
          "internalType": "address",
          "name": "receiver",
          "type": "address"
        },
        {
          "internalType": "uint256",
          "name": "royaltyAmount",
          "type": "uint256"
        }
      ],
      "stateMutability": "view",
      "type": "function"
    },
    {
      "inputs": [
        {
          "internalType": "address",
          "name": "from",
          "type": "address"
        },
        {
          "internalType": "address",
          "name": "to",
          "type": "address"
        },
        {
          "internalType": "uint256",
          "name": "tokenId",
          "type": "uint256"
        }
      ],
      "name": "safeTransferFrom",
      "outputs": [],
      "stateMutability": "nonpayable",
      "type": "function"
    },
    {
      "inputs": [
        {
          "internalType": "address",
          "name": "from",
          "type": "address"
        },
        {
          "internalType": "address",
          "name": "to",
          "type": "address"
        },
        {
          "internalType": "uint256",
          "name": "tokenId",
          "type": "uint256"
        },
        {
          "internalType": "bytes",
          "name": "_data",
          "type": "bytes"
        }
      ],
      "name": "safeTransferFrom",
      "outputs": [],
      "stateMutability": "nonpayable",
      "type": "function"
    },
    {
      "inputs": [
        {
          "internalType": "address",
          "name": "operator",
          "type": "address"
        },
        {
          "internalType": "bool",
          "name": "approved",
          "type": "bool"
        }
      ],
      "name": "setApprovalForAll",
      "outputs": [],
      "stateMutability": "nonpayable",
      "type": "function"
    },
    {
      "inputs": [
        {
          "internalType": "bytes4",
          "name": "interfaceId",
          "type": "bytes4"
        }
      ],
      "name": "supportsInterface",
      "outputs": [
        {
          "internalType": "bool",
          "name": "",
          "type": "bool"
        }
      ],
      "stateMutability": "view",
      "type": "function"
    },
    {
      "inputs": [],
      "name": "symbol",
      "outputs": [
        {
          "internalType": "string",
          "name": "",
          "type": "string"
        }
      ],
      "stateMutability": "view",
      "type": "function"
    },
    {
      "inputs": [
        {
          "internalType": "uint256",
          "name": "tokenId",
          "type": "uint256"
        }
      ],
      "name": "tokenURI",
      "outputs": [
        {
          "internalType": "string",
          "name": "",
          "type": "string"
        }
      ],
      "stateMutability": "view",
      "type": "function"
    },
    {
      "inputs": [],
      "name": "tokensPerMint",
      "outputs": [
        {
          "internalType": "uint256",
          "name": "",
          "type": "uint256"
        }
      ],
      "stateMutability": "view",
      "type": "function"
    },
    {
      "inputs": [],
      "name": "totalSupply",
      "outputs": [
        {
          "internalType": "uint256",
          "name": "",
          "type": "uint256"
        }
      ],
      "stateMutability": "view",
      "type": "function"
    },
    {
      "inputs": [
        {
          "internalType": "address",
          "name": "to",
          "type": "address"
        }
      ],
      "name": "transferAdminRights",
      "outputs": [],
      "stateMutability": "nonpayable",
      "type": "function"
    },
    {
      "inputs": [
        {
          "internalType": "address",
          "name": "from",
          "type": "address"
        },
        {
          "internalType": "address",
          "name": "to",
          "type": "address"
        },
        {
          "internalType": "uint256",
          "name": "tokenId",
          "type": "uint256"
        }
      ],
      "name": "transferFrom",
      "outputs": [],
      "stateMutability": "nonpayable",
      "type": "function"
    },
    {
      "inputs": [
        {
          "internalType": "address",
          "name": "newOwner",
          "type": "address"
        }
      ],
      "name": "transferOwnership",
      "outputs": [],
      "stateMutability": "nonpayable",
      "type": "function"
    },
    {
      "inputs": [],
      "name": "treasuryAddress",
      "outputs": [
        {
          "internalType": "address",
          "name": "",
          "type": "address"
        }
      ],
      "stateMutability": "view",
      "type": "function"
    },
    {
      "inputs": [
        {
          "components": [
            {
              "internalType": "string",
              "name": "baseURI",
              "type": "string"
            },
            {
              "internalType": "bool",
              "name": "metadataUpdatable",
              "type": "bool"
            },
            {
              "internalType": "uint256",
              "name": "publicMintStart",
              "type": "uint256"
            },
            {
              "internalType": "uint256",
              "name": "presaleMintStart",
              "type": "uint256"
            },
            {
              "internalType": "string",
              "name": "prerevealTokenURI",
              "type": "string"
            },
            {
              "internalType": "bytes32",
              "name": "presaleMerkleRoot",
              "type": "bytes32"
            },
            {
              "internalType": "uint256",
              "name": "royaltiesBps",
              "type": "uint256"
            },
            {
              "internalType": "address",
              "name": "royaltiesAddress",
              "type": "address"
            }
          ],
          "internalType": "struct NFTCollection.RuntimeConfig",
          "name": "newConfig",
          "type": "tuple"
        }
      ],
      "name": "updateConfig",
      "outputs": [],
      "stateMutability": "nonpayable",
      "type": "function"
    },
    {
      "inputs": [],
      "name": "withdrawFees",
      "outputs": [],
      "stateMutability": "nonpayable",
      "type": "function"
    }
  ],
  "transactionHash": "0x07e2b40aeb89650c1c4ee28e0bbab85ab4a2db4a48ff2cd5f2a0e8518124fcf4",
  "args": [
    {
      "owner": "0xE7D7696C8f11278124f39fB7cDd39fD9442D5026",
      "name": "NFTCollection",
      "symbol": "NFT",
      "maxSupply": 1000,
      "tokensPerMint": 10,
      "mintPrice": "10000000000000000",
      "treasuryAddress": "0xE7D7696C8f11278124f39fB7cDd39fD9442D5026"
    },
    {
      "baseURI": "",
      "prerevealTokenURI": "",
      "publicMintStart": 0,
      "presaleMintStart": 0,
      "presaleMerkleRoot": "0x0000000000000000000000000000000000000000000000000000000000000000",
      "metadataUpdatable": true,
      "royaltiesBps": 250,
      "royaltiesAddress": "0xE7D7696C8f11278124f39fB7cDd39fD9442D5026"
    }
  ],
  "numDeployments": 6,
  "solcInputHash": "f3a51e4785acd4437dfd3cbe121b42b7",
  "bytecode": "0x60806040523480156200001157600080fd5b50604051620045bb380380620045bb833981016040819052620000349162000860565b604080516020808201808452600080845284519283019094528382528251929391926200006392919062000596565b5080516200007990600190602084019062000596565b50506018805460ff19169055506200009282826200009a565b5050620009a5565b600754610100900460ff16620000b75760075460ff1615620000c1565b620000c162000349565b6200012a5760405162461bcd60e51b815260206004820152602e60248201527f496e697469616c697a61626c653a20636f6e747261637420697320616c72656160448201526d191e481a5b9a5d1a585b1a5e995960921b60648201526084015b60405180910390fd5b600754610100900460ff161580156200014d576007805461ffff19166101011790555b60185460ff1615620001a25760405162461bcd60e51b815260206004820152601560248201527f43616e6e6f7420626520696e697469616c697a65640000000000000000000000604482015260640162000121565b620001ad8362000367565b620001c86000805160206200459b83398151915233620004e2565b620001ed6000805160206200459b8339815191528460400151620004e260201b60201c565b60408301516200020090600090620004e2565b8251805184916011916200021c91839160209091019062000596565b50602082810151805162000237926001850192019062000596565b5060408201516002820180546001600160a01b03199081166001600160a01b0393841617909155606084015160038401556080840151600484015560a0840151600584015560c090930151600690920180549093169116179055815180518391600991620002ad91839160209091019062000596565b5060208281015160018301805460ff1916911515919091179055604083015160028301556060830151600383015560808301518051620002f4926004850192019062000596565b5060a0820151600582015560c0820151600682015560e090910151600790910180546001600160a01b0319166001600160a01b03909216919091179055801562000344576007805461ff00191690555b505050565b600062000361306200058760201b6200194c1760201c565b15905090565b6000816060015111620003bd5760405162461bcd60e51b815260206004820152601f60248201527f4d6178696d756d20737570706c79206d757374206265206e6f6e2d7a65726f00604482015260640162000121565b60008160a0015111620004135760405162461bcd60e51b815260206004820181905260248201527f546f6b656e7320706572206d696e74206d757374206265206e6f6e2d7a65726f604482015260640162000121565b60c08101516001600160a01b0316620004835760405162461bcd60e51b815260206004820152602b60248201527f547265617375727920616464726573732063616e6e6f7420626520746865206e60448201526a756c6c206164647265737360a81b606482015260840162000121565b60408101516001600160a01b0316620004df5760405162461bcd60e51b815260206004820152601b60248201527f436f6e7472616374206d757374206861766520616e206f776e65720000000000604482015260640162000121565b50565b60008281526006602090815260408083206001600160a01b038516845290915290205460ff16620005835760008281526006602090815260408083206001600160a01b03851684529091529020805460ff19166001179055620005423390565b6001600160a01b0316816001600160a01b0316837f2f8788117e7eff1d82e926ec794901d17c78024a50270940304540a733656f0d60405160405180910390a45b5050565b6001600160a01b03163b151590565b828054620005a49062000968565b90600052602060002090601f016020900481019282620005c8576000855562000613565b82601f10620005e357805160ff191683800117855562000613565b8280016001018555821562000613579182015b8281111562000613578251825591602001919060010190620005f6565b506200062192915062000625565b5090565b5b8082111562000621576000815560010162000626565b634e487b7160e01b600052604160045260246000fd5b60405161010081016001600160401b03811182821017156200067857620006786200063c565b60405290565b60405160e081016001600160401b03811182821017156200067857620006786200063c565b604051601f8201601f191681016001600160401b0381118282101715620006ce57620006ce6200063c565b604052919050565b600082601f830112620006e857600080fd5b81516001600160401b038111156200070457620007046200063c565b60206200071a601f8301601f19168201620006a3565b82815285828487010111156200072f57600080fd5b60005b838110156200074f57858101830151828201840152820162000732565b83811115620007615760008385840101525b5095945050505050565b80516001600160a01b03811681146200078357600080fd5b919050565b805180151581146200078357600080fd5b60006101008284031215620007ad57600080fd5b620007b762000652565b82519091506001600160401b0380821115620007d257600080fd5b620007e085838601620006d6565b8352620007f06020850162000788565b6020840152604084015160408401526060840151606084015260808401519150808211156200081e57600080fd5b506200082d84828501620006d6565b60808301525060a082015160a082015260c082015160c08201526200085560e083016200076b565b60e082015292915050565b600080604083850312156200087457600080fd5b82516001600160401b03808211156200088c57600080fd5b9084019060e08287031215620008a157600080fd5b620008ab6200067e565b825182811115620008bb57600080fd5b620008c988828601620006d6565b825250602083015182811115620008df57600080fd5b620008ed88828601620006d6565b60208301525062000901604084016200076b565b6040820152606083015160608201526080830151608082015260a083015160a08201526200093260c084016200076b565b60c082015260208601519094509150808211156200094f57600080fd5b506200095e8582860162000799565b9150509250929050565b600181811c908216806200097d57607f821691505b602082108114156200099f57634e487b7160e01b600052602260045260246000fd5b50919050565b613be680620009b56000396000f3fe60806040526004361061027d5760003560e01c806370a082311161014f578063b88d4fde116100c1578063e8a3d4851161007a578063e8a3d48514610740578063e985e9c514610755578063f2fde38b1461079e578063f4ad0f97146107be578063fa0440b6146107d3578063ffa1ad74146107f357600080fd5b8063b88d4fde1461069a578063c5f956af146106ba578063c87b56dd146106d8578063d547741f146106f8578063d5abeb0114610718578063e3e1e8ef1461072d57600080fd5b806391d148541161011357806391d14854146105fd57806395d89b411461061d578063a0712d6814610632578063a217fddf14610645578063a22cb4651461065a578063b5106add1461067a57600080fd5b806370a082311461056857806375b238fc14610588578063877bb1ae146105aa5780638cfec4c0146105ca5780638da5cb5b146105df57600080fd5b806331f9c919116101f357806353135ca0116101ac57806353135ca0146104c55780635a23dd99146104dc5780635a9b0b89146104fc5780636352211e1461051e5780636817c76c1461053e5780636c0360eb1461055357600080fd5b806331f9c9191461042c57806336568abe1461044357806342842e0e146104635780634653124b14610483578063476343ee146104985780634e6f9dd6146104ad57600080fd5b806318160ddd1161024557806318160ddd1461035257806322212e2b1461036857806323b872dd1461037d578063248a9ca31461039d5780632a55205a146103cd5780632f2ff15d1461040c57600080fd5b806301ffc9a71461028257806306fdde03146102b75780630807b9e2146102d9578063081812fc146102f8578063095ea7b314610330575b600080fd5b34801561028e57600080fd5b506102a261029d366004612cd1565b610809565b60405190151581526020015b60405180910390f35b3480156102c357600080fd5b506102cc610844565b6040516102ae9190612d46565b3480156102e557600080fd5b506016545b6040519081526020016102ae565b34801561030457600080fd5b50610318610313366004612d59565b6108d9565b6040516001600160a01b0390911681526020016102ae565b34801561033c57600080fd5b5061035061034b366004612d97565b610973565b005b34801561035e57600080fd5b506102ea60085481565b34801561037457600080fd5b50600e546102ea565b34801561038957600080fd5b50610350610398366004612dc3565b610a89565b3480156103a957600080fd5b506102ea6103b8366004612d59565b60009081526006602052604090206001015490565b3480156103d957600080fd5b506103ed6103e8366004612e04565b610aba565b604080516001600160a01b0390931683526020830191909152016102ae565b34801561041857600080fd5b50610350610427366004612e26565b610af1565b34801561043857600080fd5b50600b5442116102a2565b34801561044f57600080fd5b5061035061045e366004612e26565b610b17565b34801561046f57600080fd5b5061035061047e366004612dc3565b610b95565b34801561048f57600080fd5b50600c546102ea565b3480156104a457600080fd5b50610350610bb0565b3480156104b957600080fd5b50600a5460ff166102a2565b3480156104d157600080fd5b50600c5442116102a2565b3480156104e857600080fd5b506102a26104f7366004612ea1565b610be2565b34801561050857600080fd5b50610511610cc0565b6040516102ae9190612f78565b34801561052a57600080fd5b50610318610539366004612d59565b610fd7565b34801561054a57600080fd5b506015546102ea565b34801561055f57600080fd5b506102cc61104e565b34801561057457600080fd5b506102ea610583366004613029565b611060565b34801561059457600080fd5b506102ea600080516020613b9183398151915281565b3480156105b657600080fd5b506103506105c5366004613046565b6110e7565b3480156105d657600080fd5b50600b546102ea565b3480156105eb57600080fd5b506013546001600160a01b0316610318565b34801561060957600080fd5b506102a2610618366004612e26565b61111c565b34801561062957600080fd5b506102cc611147565b610350610640366004612d59565b611159565b34801561065157600080fd5b506102ea600081565b34801561066657600080fd5b5061035061067536600461309a565b6111b4565b34801561068657600080fd5b50610350610695366004613029565b6111bf565b3480156106a657600080fd5b506103506106b536600461319e565b6112b3565b3480156106c657600080fd5b506017546001600160a01b0316610318565b3480156106e457600080fd5b506102cc6106f3366004612d59565b6112e5565b34801561070457600080fd5b50610350610713366004612e26565b61141d565b34801561072457600080fd5b506014546102ea565b61035061073b36600461321d565b611443565b34801561074c57600080fd5b506102cc61150f565b34801561076157600080fd5b506102a261077036600461324f565b6001600160a01b03918216600090815260056020908152604080832093909416825291909152205460ff1690565b3480156107aa57600080fd5b506103506107b9366004613029565b61158c565b3480156107ca57600080fd5b506102cc6116be565b3480156107df57600080fd5b506103506107ee366004613356565b6116d0565b3480156107ff57600080fd5b506102ea61277481565b60006108148261195b565b806108235750610823826119ab565b8061083e575063152a902d60e11b6001600160e01b03198316145b92915050565b6060601160000180546108569061344b565b80601f01602080910402602001604051908101604052809291908181526020018280546108829061344b565b80156108cf5780601f106108a4576101008083540402835291602001916108cf565b820191906000526020600020905b8154815290600101906020018083116108b257829003601f168201915b5050505050905090565b6000818152600260205260408120546001600160a01b03166109575760405162461bcd60e51b815260206004820152602c60248201527f4552433732313a20617070726f76656420717565727920666f72206e6f6e657860448201526b34b9ba32b73a103a37b5b2b760a11b60648201526084015b60405180910390fd5b506000908152600460205260409020546001600160a01b031690565b600061097e82610fd7565b9050806001600160a01b0316836001600160a01b031614156109ec5760405162461bcd60e51b815260206004820152602160248201527f4552433732313a20617070726f76616c20746f2063757272656e74206f776e656044820152603960f91b606482015260840161094e565b336001600160a01b0382161480610a085750610a088133610770565b610a7a5760405162461bcd60e51b815260206004820152603860248201527f4552433732313a20617070726f76652063616c6c6572206973206e6f74206f7760448201527f6e6572206e6f7220617070726f76656420666f7220616c6c0000000000000000606482015260840161094e565b610a8483836119e0565b505050565b610a933382611a4e565b610aaf5760405162461bcd60e51b815260040161094e90613486565b610a84838383611b45565b601054600f546001600160a01b039091169060009061271090610ade9085906134ed565b610ae89190613522565b90509250929050565b600082815260066020526040902060010154610b0d8133611ce1565b610a848383611d45565b6001600160a01b0381163314610b875760405162461bcd60e51b815260206004820152602f60248201527f416363657373436f6e74726f6c3a2063616e206f6e6c792072656e6f756e636560448201526e103937b632b9903337b91039b2b63360891b606482015260840161094e565b610b918282611dcb565b5050565b610a84838383604051806020016040528060008152506112b3565b600080516020613b91833981519152610bc98133611ce1565b601754610bdf906001600160a01b031647611e32565b50565b6001600160a01b03831660009081526019602052604081205460ff1615610c3c5760405162461bcd60e51b815260206004820152600e60248201526d105b1c9958591e481b5a5b9d195960921b604482015260640161094e565b6040516bffffffffffffffffffffffff19606086901b166020820152600090603401604051602081830303815290604052805190602001209050610cb784848080602002602001604051908101604052809392919081815260200183836020028082843760009201919091525050600e549150849050611f4b565b95945050505050565b610cc8612b5e565b61277481526040805160e081019091526011805482908290610ce99061344b565b80601f0160208091040260200160405190810160405280929190818152602001828054610d159061344b565b8015610d625780601f10610d3757610100808354040283529160200191610d62565b820191906000526020600020905b815481529060010190602001808311610d4557829003601f168201915b50505050508152602001600182018054610d7b9061344b565b80601f0160208091040260200160405190810160405280929190818152602001828054610da79061344b565b8015610df45780601f10610dc957610100808354040283529160200191610df4565b820191906000526020600020905b815481529060010190602001808311610dd757829003601f168201915b505050918352505060028201546001600160a01b039081166020808401919091526003840154604080850191909152600485015460608501526005850154608085015260069094015490911660a090920191909152830191909152805161010081019091526009805482908290610e6a9061344b565b80601f0160208091040260200160405190810160405280929190818152602001828054610e969061344b565b8015610ee35780601f10610eb857610100808354040283529160200191610ee3565b820191906000526020600020905b815481529060010190602001808311610ec657829003601f168201915b5050509183525050600182015460ff16151560208201526002820154604082015260038201546060820152600482018054608090920191610f239061344b565b80601f0160208091040260200160405190810160405280929190818152602001828054610f4f9061344b565b8015610f9c5780601f10610f7157610100808354040283529160200191610f9c565b820191906000526020600020905b815481529060010190602001808311610f7f57829003601f168201915b50505091835250506005820154602082015260068201546040808301919091526007909201546001600160a01b031660609091015282015290565b6000818152600260205260408120546001600160a01b03168061083e5760405162461bcd60e51b815260206004820152602960248201527f4552433732313a206f776e657220717565727920666f72206e6f6e657869737460448201526832b73a103a37b5b2b760b91b606482015260840161094e565b6060600960000180546108569061344b565b60006001600160a01b0382166110cb5760405162461bcd60e51b815260206004820152602a60248201527f4552433732313a2062616c616e636520717565727920666f7220746865207a65604482015269726f206164647265737360b01b606482015260840161094e565b506001600160a01b031660009081526003602052604090205490565b600080516020613b918339815191526111008133611ce1565b61110982611f61565b81600961111682826136a4565b50505050565b60009182526006602090815260408084206001600160a01b0393909316845291905290205460ff1690565b6060601160010180546108569061344b565b600b5442116111aa5760405162461bcd60e51b815260206004820152601b60248201527f4d696e74696e6720686173206e6f742073746172746564207965740000000000604482015260640161094e565b610bdf33826120bc565b610b913383836121e7565b600080516020613b918339815191526111d88133611ce1565b6111f0600080516020613b918339815191528361111c565b156112305760405162461bcd60e51b815260206004820152601060248201526f20b63932b0b23c9030b71030b236b4b760811b604482015260640161094e565b6013546001600160a01b03163314156112835760405162461bcd60e51b81526020600482015260156024820152740557365207472616e736665724f776e65727368697605c1b604482015260640161094e565b61129b600080516020613b9183398151915233611dcb565b610b91600080516020613b9183398151915283611d45565b6112bd3383611a4e565b6112d95760405162461bcd60e51b815260040161094e90613486565b611116848484846122b6565b6000818152600260205260409020546060906001600160a01b03166113435760405162461bcd60e51b8152602060048201526014602482015273151bdad95b88191bd95cc81b9bdd08195e1a5cdd60621b604482015260640161094e565b6000600960000180546113559061344b565b9050116113ec57600d80546113699061344b565b80601f01602080910402602001604051908101604052809291908181526020018280546113959061344b565b80156113e25780601f106113b7576101008083540402835291602001916113e2565b820191906000526020600020905b8154815290600101906020018083116113c557829003601f168201915b505050505061083e565b60096113f7836122e9565b60405160200161140892919061387a565b60405160208183030381529060405292915050565b6000828152600660205260409020600101546114398133611ce1565b610a848383611dcb565b600c5442116114945760405162461bcd60e51b815260206004820152601b60248201527f50726573616c6520686173206e6f742073746172746564207965740000000000604482015260640161094e565b61149f338383610be2565b6114eb5760405162461bcd60e51b815260206004820152601b60248201527f4e6f742077686974656c697374656420666f722070726573616c650000000000604482015260640161094e565b336000818152601960205260409020805460ff19166001179055610a8490846120bc565b606060006115606115246009600601546122e9565b60105461153b906001600160a01b031660146123e6565b60405160200161154c92919061389f565b604051602081830303815290604052612588565b90506000816040516020016115759190613926565b60408051601f198184030181529190529392505050565b60006115988133611ce1565b6013546001600160a01b03838116911614156115ea5760405162461bcd60e51b815260206004820152601160248201527020b63932b0b23c903a34329037bbb732b960791b604482015260640161094e565b60135461160f90600080516020613b91833981519152906001600160a01b0316611dcb565b601354611627906000906001600160a01b0316611dcb565b601380546001600160a01b038481166001600160a01b031983168117909355169061166190600080516020613b9183398151915290611d45565b601354611679906000906001600160a01b0316611d45565b826001600160a01b0316816001600160a01b03167f8be0079c531659141344cd1fd0a4f28419497f9722a3daafe3b4186f6b6457e060405160405180910390a3505050565b6060600960040180546108569061344b565b600754610100900460ff166116eb5760075460ff16156116ef565b303b155b6117525760405162461bcd60e51b815260206004820152602e60248201527f496e697469616c697a61626c653a20636f6e747261637420697320616c72656160448201526d191e481a5b9a5d1a585b1a5e995960921b606482015260840161094e565b600754610100900460ff16158015611774576007805461ffff19166101011790555b60185460ff16156117bf5760405162461bcd60e51b815260206004820152601560248201527410d85b9b9bdd081899481a5b9a5d1a585b1a5e9959605a1b604482015260640161094e565b6117c8836126ed565b6117e0600080516020613b9183398151915233611d45565b6117fc600080516020613b918339815191528460400151611d45565b61180d6000801b8460400151611d45565b825180518491601191611827918391602090910190612c22565b5060208281015180516118409260018501920190612c22565b5060408201516002820180546001600160a01b03199081166001600160a01b0393841617909155606084015160038401556080840151600484015560a0840151600584015560c0909301516006909201805490931691161790558151805183916009916118b4918391602090910190612c22565b5060208281015160018301805460ff19169115159190911790556040830151600283015560608301516003830155608083015180516118f99260048501920190612c22565b5060a0820151600582015560c0820151600682015560e090910151600790910180546001600160a01b0319166001600160a01b039092169190911790558015610a84576007805461ff0019169055505050565b6001600160a01b03163b151590565b60006001600160e01b031982166380ac58cd60e01b148061198c57506001600160e01b03198216635b5e139f60e01b145b8061083e57506301ffc9a760e01b6001600160e01b031983161461083e565b60006001600160e01b03198216637965db0b60e01b148061083e575063152a902d60e11b6001600160e01b031983161461083e565b600081815260046020526040902080546001600160a01b0319166001600160a01b0384169081179091558190611a1582610fd7565b6001600160a01b03167f8c5be1e5ebec7d5bd14f71427d1e84f3dd0314c0f7b2291e5b200ac8c7c3b92560405160405180910390a45050565b6000818152600260205260408120546001600160a01b0316611ac75760405162461bcd60e51b815260206004820152602c60248201527f4552433732313a206f70657261746f7220717565727920666f72206e6f6e657860448201526b34b9ba32b73a103a37b5b2b760a11b606482015260840161094e565b6000611ad283610fd7565b9050806001600160a01b0316846001600160a01b03161480611b0d5750836001600160a01b0316611b02846108d9565b6001600160a01b0316145b80611b3d57506001600160a01b0380821660009081526005602090815260408083209388168352929052205460ff165b949350505050565b826001600160a01b0316611b5882610fd7565b6001600160a01b031614611bbc5760405162461bcd60e51b815260206004820152602560248201527f4552433732313a207472616e736665722066726f6d20696e636f72726563742060448201526437bbb732b960d91b606482015260840161094e565b6001600160a01b038216611c1e5760405162461bcd60e51b8152602060048201526024808201527f4552433732313a207472616e7366657220746f20746865207a65726f206164646044820152637265737360e01b606482015260840161094e565b611c296000826119e0565b6001600160a01b0383166000908152600360205260408120805460019290611c5290849061396b565b90915550506001600160a01b0382166000908152600360205260408120805460019290611c80908490613982565b909155505060008181526002602052604080822080546001600160a01b0319166001600160a01b0386811691821790925591518493918716917fddf252ad1be2c89b69c2b068fc378daa952ba7f163c4a11628f55a4df523b3ef91a4505050565b611ceb828261111c565b610b9157611d03816001600160a01b031660146123e6565b611d0e8360206123e6565b604051602001611d1f92919061399a565b60408051601f198184030181529082905262461bcd60e51b825261094e91600401612d46565b611d4f828261111c565b610b915760008281526006602090815260408083206001600160a01b03851684529091529020805460ff19166001179055611d873390565b6001600160a01b0316816001600160a01b0316837f2f8788117e7eff1d82e926ec794901d17c78024a50270940304540a733656f0d60405160405180910390a45050565b611dd5828261111c565b15610b915760008281526006602090815260408083206001600160a01b0385168085529252808320805460ff1916905551339285917ff6391f5c32d9c69d2a47ea670b442974b53935d1edc7fd64eb21e047a839171b9190a45050565b80471015611e825760405162461bcd60e51b815260206004820152601d60248201527f416464726573733a20696e73756666696369656e742062616c616e6365000000604482015260640161094e565b6000826001600160a01b03168260405160006040518083038185875af1925050503d8060008114611ecf576040519150601f19603f3d011682016040523d82523d6000602084013e611ed4565b606091505b5050905080610a845760405162461bcd60e51b815260206004820152603a60248201527f416464726573733a20756e61626c6520746f2073656e642076616c75652c207260448201527f6563697069656e74206d61792068617665207265766572746564000000000000606482015260840161094e565b600082611f58858461285d565b14949350505050565b61271060c08201351115611fac5760405162461bcd60e51b81526020600482015260126024820152710a4def2c2d8e8d2cae640e8dede40d0d2ced60731b604482015260640161094e565b600a5460ff1615611fba5750565b611fca6040820160208301613a0f565b600a5460ff161515901515146120225760405162461bcd60e51b815260206004820152601860248201527f43616e6e6f7420756e667265657a65206d657461646174610000000000000000604482015260640161094e565b61202c8180613536565b60405160200161203d929190613a2c565b60408051601f19818403018152908290528051602091820120916120649160099101613a3c565b6040516020818303038152906040528051906020012014610bdf5760405162461bcd60e51b815260206004820152601260248201527126b2ba30b230ba309034b990333937bd32b760711b604482015260640161094e565b6016548111156121015760405162461bcd60e51b815260206004820152601060248201526f416d6f756e7420746f6f206c6172676560801b604482015260640161094e565b60155461210e90826134ed565b3410156121515760405162461bcd60e51b815260206004820152601160248201527014185e5b595b9d081d1bdbc81cdb585b1b607a1b604482015260640161094e565b6000816008546121619190613982565b6014549091508111156121af5760405162461bcd60e51b815260206004820152601660248201527513585e1a5b5d5b481cdd5c1c1b1e481c995858da195960521b604482015260640161094e565b600881905560015b828111611116576121d584826008546121d0919061396b565b6128d1565b806121df81613a48565b9150506121b7565b816001600160a01b0316836001600160a01b031614156122495760405162461bcd60e51b815260206004820152601960248201527f4552433732313a20617070726f766520746f2063616c6c657200000000000000604482015260640161094e565b6001600160a01b03838116600081815260056020908152604080832094871680845294825291829020805460ff191686151590811790915591519182527f17307eab39ab6107e8899845ad3d59bd9653f200f220920489ca2b5937696c31910160405180910390a3505050565b6122c1848484611b45565b6122cd848484846128eb565b6111165760405162461bcd60e51b815260040161094e90613a63565b60608161230d5750506040805180820190915260018152600360fc1b602082015290565b8160005b8115612337578061232181613a48565b91506123309050600a83613522565b9150612311565b6000816001600160401b03811115612351576123516130c8565b6040519080825280601f01601f19166020018201604052801561237b576020820181803683370190505b5090505b8415611b3d5761239060018361396b565b915061239d600a86613ab5565b6123a8906030613982565b60f81b8183815181106123bd576123bd613ac9565b60200101906001600160f81b031916908160001a9053506123df600a86613522565b945061237f565b606060006123f58360026134ed565b612400906002613982565b6001600160401b03811115612417576124176130c8565b6040519080825280601f01601f191660200182016040528015612441576020820181803683370190505b509050600360fc1b8160008151811061245c5761245c613ac9565b60200101906001600160f81b031916908160001a905350600f60fb1b8160018151811061248b5761248b613ac9565b60200101906001600160f81b031916908160001a90535060006124af8460026134ed565b6124ba906001613982565b90505b6001811115612532576f181899199a1a9b1b9c1cb0b131b232b360811b85600f16601081106124ee576124ee613ac9565b1a60f81b82828151811061250457612504613ac9565b60200101906001600160f81b031916908160001a90535060049490941c9361252b81613adf565b90506124bd565b5083156125815760405162461bcd60e51b815260206004820181905260248201527f537472696e67733a20686578206c656e67746820696e73756666696369656e74604482015260640161094e565b9392505050565b8051606090806125a8575050604080516020810190915260008152919050565b600060036125b7836002613982565b6125c19190613522565b6125cc9060046134ed565b905060006125db826020613982565b6001600160401b038111156125f2576125f26130c8565b6040519080825280601f01601f19166020018201604052801561261c576020820181803683370190505b5090506000604051806060016040528060408152602001613b51604091399050600181016020830160005b868110156126a8576003818a01810151603f601282901c8116860151600c83901c8216870151600684901c831688015192909316870151600891821b60ff94851601821b92841692909201901b91160160e01b835260049092019101612647565b5060038606600181146126c257600281146126d3576126df565b613d3d60f01b6001198301526126df565b603d60f81b6000198301525b505050918152949350505050565b60008160600151116127415760405162461bcd60e51b815260206004820152601f60248201527f4d6178696d756d20737570706c79206d757374206265206e6f6e2d7a65726f00604482015260640161094e565b60008160a00151116127955760405162461bcd60e51b815260206004820181905260248201527f546f6b656e7320706572206d696e74206d757374206265206e6f6e2d7a65726f604482015260640161094e565b60c08101516001600160a01b03166128035760405162461bcd60e51b815260206004820152602b60248201527f547265617375727920616464726573732063616e6e6f7420626520746865206e60448201526a756c6c206164647265737360a81b606482015260840161094e565b60408101516001600160a01b0316610bdf5760405162461bcd60e51b815260206004820152601b60248201527f436f6e7472616374206d757374206861766520616e206f776e65720000000000604482015260640161094e565b600081815b84518110156128c957600085828151811061287f5761287f613ac9565b602002602001015190508083116128a557600083815260208290526040902092506128b6565b600081815260208490526040902092505b50806128c181613a48565b915050612862565b509392505050565b610b918282604051806020016040528060008152506129e9565b60006001600160a01b0384163b156129de57604051630a85bd0160e11b81526001600160a01b0385169063150b7a029061292f903390899088908890600401613af6565b6020604051808303816000875af192505050801561296a575060408051601f3d908101601f1916820190925261296791810190613b33565b60015b6129c4573d808015612998576040519150601f19603f3d011682016040523d82523d6000602084013e61299d565b606091505b5080516129bc5760405162461bcd60e51b815260040161094e90613a63565b805181602001fd5b6001600160e01b031916630a85bd0160e11b149050611b3d565b506001949350505050565b6129f38383612a1c565b612a0060008484846128eb565b610a845760405162461bcd60e51b815260040161094e90613a63565b6001600160a01b038216612a725760405162461bcd60e51b815260206004820181905260248201527f4552433732313a206d696e7420746f20746865207a65726f2061646472657373604482015260640161094e565b6000818152600260205260409020546001600160a01b031615612ad75760405162461bcd60e51b815260206004820152601c60248201527f4552433732313a20746f6b656e20616c7265616479206d696e74656400000000604482015260640161094e565b6001600160a01b0382166000908152600360205260408120805460019290612b00908490613982565b909155505060008181526002602052604080822080546001600160a01b0319166001600160a01b03861690811790915590518392907fddf252ad1be2c89b69c2b068fc378daa952ba7f163c4a11628f55a4df523b3ef908290a45050565b604051806060016040528060008152602001612bc26040518060e00160405280606081526020016060815260200160006001600160a01b0316815260200160008152602001600081526020016000815260200160006001600160a01b031681525090565b8152602001612c1d60405180610100016040528060608152602001600015158152602001600081526020016000815260200160608152602001600080191681526020016000815260200160006001600160a01b031681525090565b905290565b828054612c2e9061344b565b90600052602060002090601f016020900481019282612c505760008555612c96565b82601f10612c6957805160ff1916838001178555612c96565b82800160010185558215612c96579182015b82811115612c96578251825591602001919060010190612c7b565b50612ca2929150612ca6565b5090565b5b80821115612ca25760008155600101612ca7565b6001600160e01b031981168114610bdf57600080fd5b600060208284031215612ce357600080fd5b813561258181612cbb565b60005b83811015612d09578181015183820152602001612cf1565b838111156111165750506000910152565b60008151808452612d32816020860160208601612cee565b601f01601f19169290920160200192915050565b6020815260006125816020830184612d1a565b600060208284031215612d6b57600080fd5b5035919050565b6001600160a01b0381168114610bdf57600080fd5b8035612d9281612d72565b919050565b60008060408385031215612daa57600080fd5b8235612db581612d72565b946020939093013593505050565b600080600060608486031215612dd857600080fd5b8335612de381612d72565b92506020840135612df381612d72565b929592945050506040919091013590565b60008060408385031215612e1757600080fd5b50508035926020909101359150565b60008060408385031215612e3957600080fd5b823591506020830135612e4b81612d72565b809150509250929050565b60008083601f840112612e6857600080fd5b5081356001600160401b03811115612e7f57600080fd5b6020830191508360208260051b8501011115612e9a57600080fd5b9250929050565b600080600060408486031215612eb657600080fd5b8335612ec181612d72565b925060208401356001600160401b03811115612edc57600080fd5b612ee886828701612e56565b9497909650939450505050565b60006101008251818552612f0b82860182612d1a565b915050602083015115156020850152604083015160408501526060830151606085015260808301518482036080860152612f458282612d1a565b60a0858101519087015260c0808601519087015260e0948501516001600160a01b03169490950193909352509192915050565b60208152815160208201526000602083015160606040840152805160e06080850152612fa8610160850182612d1a565b90506020820151607f198583030160a0860152612fc58282612d1a565b6040848101516001600160a01b0390811660c08981019190915260608088015160e08b015260808801516101008b015260a08801516101208b015296015116610140880152870151868203601f1901948701949094529150610cb790508183612ef5565b60006020828403121561303b57600080fd5b813561258181612d72565b60006020828403121561305857600080fd5b81356001600160401b0381111561306e57600080fd5b8201610100818503121561258157600080fd5b8015158114610bdf57600080fd5b8035612d9281613081565b600080604083850312156130ad57600080fd5b82356130b881612d72565b91506020830135612e4b81613081565b634e487b7160e01b600052604160045260246000fd5b60405161010081016001600160401b0381118282101715613101576131016130c8565b60405290565b60405160e081016001600160401b0381118282101715613101576131016130c8565b60006001600160401b0380841115613143576131436130c8565b604051601f8501601f19908116603f0116810190828211818310171561316b5761316b6130c8565b8160405280935085815286868601111561318457600080fd5b858560208301376000602087830101525050509392505050565b600080600080608085870312156131b457600080fd5b84356131bf81612d72565b935060208501356131cf81612d72565b92506040850135915060608501356001600160401b038111156131f157600080fd5b8501601f8101871361320257600080fd5b61321187823560208401613129565b91505092959194509250565b60008060006040848603121561323257600080fd5b8335925060208401356001600160401b03811115612edc57600080fd5b6000806040838503121561326257600080fd5b823561326d81612d72565b91506020830135612e4b81612d72565b600082601f83011261328e57600080fd5b61258183833560208501613129565b600061010082840312156132b057600080fd5b6132b86130de565b905081356001600160401b03808211156132d157600080fd5b6132dd8583860161327d565b83526132eb6020850161308f565b60208401526040840135604084015260608401356060840152608084013591508082111561331857600080fd5b506133258482850161327d565b60808301525060a082013560a082015260c082013560c082015261334b60e08301612d87565b60e082015292915050565b6000806040838503121561336957600080fd5b82356001600160401b038082111561338057600080fd5b9084019060e0828703121561339457600080fd5b61339c613107565b8235828111156133ab57600080fd5b6133b78882860161327d565b8252506020830135828111156133cc57600080fd5b6133d88882860161327d565b6020830152506133ea60408401612d87565b6040820152606083013560608201526080830135608082015260a083013560a082015261341960c08401612d87565b60c08201529350602085013591508082111561343457600080fd5b506134418582860161329d565b9150509250929050565b600181811c9082168061345f57607f821691505b6020821081141561348057634e487b7160e01b600052602260045260246000fd5b50919050565b60208082526031908201527f4552433732313a207472616e736665722063616c6c6572206973206e6f74206f6040820152701ddb995c881b9bdc88185c1c1c9bdd9959607a1b606082015260800190565b634e487b7160e01b600052601160045260246000fd5b6000816000190483118215151615613507576135076134d7565b500290565b634e487b7160e01b600052601260045260246000fd5b6000826135315761353161350c565b500490565b6000808335601e1984360301811261354d57600080fd5b8301803591506001600160401b0382111561356757600080fd5b602001915036819003821315612e9a57600080fd5b601f821115610a8457600081815260208120601f850160051c810160208610156135a35750805b601f850160051c820191505b818110156135c2578281556001016135af565b505050505050565b6001600160401b038311156135e1576135e16130c8565b6135f5836135ef835461344b565b8361357c565b6000601f84116001811461362957600085156136115750838201355b600019600387901b1c1916600186901b178355613683565b600083815260209020601f19861690835b8281101561365a578685013582556020948501946001909201910161363a565b50868210156136775760001960f88860031b161c19848701351681555b505060018560011b0183555b5050505050565b6000813561083e81613081565b6000813561083e81612d72565b6136ae8283613536565b6001600160401b038111156136c5576136c56130c8565b6136d9816136d3855461344b565b8561357c565b6000601f82116001811461370d57600083156136f55750838201355b600019600385901b1c1916600184901b178555613767565b600085815260209020601f19841690835b8281101561373e578685013582556020948501946001909201910161371e565b508482101561375b5760001960f88660031b161c19848701351681555b505060018360011b0185555b5050505061379361377a6020840161368a565b6001830160ff1981541660ff8315151681178255505050565b60408201356002820155606082013560038201556137b46080830183613536565b6137c28183600486016135ca565b505060a0820135600582015560c08201356006820155610b916137e760e08401613697565b6007830180546001600160a01b0319166001600160a01b0392909216919091179055565b600081546138188161344b565b60018281168015613830576001811461384157613870565b60ff19841687528287019450613870565b8560005260208060002060005b858110156138675781548a82015290840190820161384e565b50505082870194505b5050505092915050565b6000613886828561380b565b8351613896818360208801612cee565b01949350505050565b7f7b2273656c6c65725f6665655f62617369735f706f696e7473223a20000000008152600083516138d781601c850160208801612cee565b731610113332b2afb932b1b4b834b2b73a111d101160611b601c91840191820152835161390b816030840160208801612cee565b61227d60f01b60309290910191820152603201949350505050565b7f646174613a6170706c69636174696f6e2f6a736f6e3b6261736536342c00000081526000825161395e81601d850160208701612cee565b91909101601d0192915050565b60008282101561397d5761397d6134d7565b500390565b60008219821115613995576139956134d7565b500190565b7f416363657373436f6e74726f6c3a206163636f756e74200000000000000000008152600083516139d2816017850160208801612cee565b7001034b99036b4b9b9b4b733903937b6329607d1b6017918401918201528351613a03816028840160208801612cee565b01602801949350505050565b600060208284031215613a2157600080fd5b813561258181613081565b8183823760009101908152919050565b6000612581828461380b565b6000600019821415613a5c57613a5c6134d7565b5060010190565b60208082526032908201527f4552433732313a207472616e7366657220746f206e6f6e20455243373231526560408201527131b2b4bb32b91034b6b83632b6b2b73a32b960711b606082015260800190565b600082613ac457613ac461350c565b500690565b634e487b7160e01b600052603260045260246000fd5b600081613aee57613aee6134d7565b506000190190565b6001600160a01b0385811682528416602082015260408101839052608060608201819052600090613b2990830184612d1a565b9695505050505050565b600060208284031215613b4557600080fd5b815161258181612cbb56fe4142434445464748494a4b4c4d4e4f505152535455565758595a6162636465666768696a6b6c6d6e6f707172737475767778797a303132333435363738392b2fa49807205ce4d355092ef5a8a18f56e8913cf4a201fbe287825b095693c21775a26469706673582212202e87d85bd9df02566ad03b421d7d5f548b207d8e3c5ff8be1686a93c03b67ac164736f6c634300080b0033a49807205ce4d355092ef5a8a18f56e8913cf4a201fbe287825b095693c21775",
  "devdoc": {
    "kind": "dev",
    "methods": {
      "approve(address,uint256)": {
        "details": "See {IERC721-approve}."
      },
      "balanceOf(address)": {
        "details": "See {IERC721-balanceOf}."
      },
      "contractURI()": {
        "details": "OpenSea contract metadata"
      },
      "getApproved(uint256)": {
        "details": "See {IERC721-getApproved}."
      },
      "getInfo()": {
        "details": "Convenience helper"
      },
      "getRoleAdmin(bytes32)": {
        "details": "Returns the admin role that controls `role`. See {grantRole} and {revokeRole}. To change a role's admin, use {_setRoleAdmin}."
      },
      "grantRole(bytes32,address)": {
        "details": "Grants `role` to `account`. If `account` had not been already granted `role`, emits a {RoleGranted} event. Requirements: - the caller must have ``role``'s admin role."
      },
      "hasRole(bytes32,address)": {
        "details": "Returns `true` if `account` has been granted `role`."
      },
      "isApprovedForAll(address,address)": {
        "details": "See {IERC721-isApprovedForAll}."
      },
      "name()": {
        "details": "Need name() to support setting it in the initializer instead of constructor"
      },
      "owner()": {
        "details": "Required for easy integration with OpenSea"
      },
      "ownerOf(uint256)": {
        "details": "See {IERC721-ownerOf}."
      },
      "renounceRole(bytes32,address)": {
        "details": "Revokes `role` from the calling account. Roles are often managed via {grantRole} and {revokeRole}: this function's purpose is to provide a mechanism for accounts to lose their privileges if they are compromised (such as when a trusted device is misplaced). If the calling account had been revoked `role`, emits a {RoleRevoked} event. Requirements: - the caller must be `account`."
      },
      "revokeRole(bytes32,address)": {
        "details": "Revokes `role` from `account`. If `account` had been granted `role`, emits a {RoleRevoked} event. Requirements: - the caller must have ``role``'s admin role."
      },
      "royaltyInfo(uint256,uint256)": {
        "details": "ERC2981 token royalty info"
      },
      "safeTransferFrom(address,address,uint256)": {
        "details": "See {IERC721-safeTransferFrom}."
      },
      "safeTransferFrom(address,address,uint256,bytes)": {
        "details": "See {IERC721-safeTransferFrom}."
      },
      "setApprovalForAll(address,bool)": {
        "details": "See {IERC721-setApprovalForAll}."
      },
      "supportsInterface(bytes4)": {
        "details": "See {IERC165-supportsInterface}."
      },
      "symbol()": {
        "details": "Need symbol() to support setting it in the initializer instead of constructor"
      },
      "transferFrom(address,address,uint256)": {
        "details": "See {IERC721-transferFrom}."
      },
      "updateConfig((string,bool,uint256,uint256,string,bytes32,uint256,address))": {
        "details": "Callable by admin roles only"
      },
      "withdrawFees()": {
        "details": "Callable by admin roles only"
      }
    },
    "version": 1
  },
  "userdoc": {
    "kind": "user",
    "methods": {
      "ADMIN_ROLE()": {
        "notice": "Admin role"
      },
      "VERSION()": {
        "notice": "Contract version, semver-style uint X_YY_ZZ"
      },
      "getInfo()": {
        "notice": "Get full contract information"
      },
      "initialize((string,string,address,uint256,uint256,uint256,address),(string,bool,uint256,uint256,string,bytes32,uint256,address))": {
        "notice": "Contract initializer"
      },
      "isWhitelisted(address,bytes32[])": {
        "notice": "Check if the wallet is whitelisted for the presale"
      },
      "mint(uint256)": {
        "notice": "Mint tokens"
      },
      "mintingActive()": {
        "notice": "Check if public minting is active"
      },
      "owner()": {
        "notice": "Contract owner address"
      },
      "presaleActive()": {
        "notice": "Check if presale minting is active"
      },
      "presaleMint(uint256,bytes32[])": {
        "notice": "Mint tokens if the wallet has been whitelisted"
      },
      "tokenURI(uint256)": {
        "notice": "Get the token metadata URI"
      },
      "totalSupply()": {
        "notice": "The number of currently minted tokens"
      },
      "transferAdminRights(address)": {
        "notice": "Transfer contract ownership"
      },
      "transferOwnership(address)": {
        "notice": "Transfer contract ownership"
      },
      "updateConfig((string,bool,uint256,uint256,string,bytes32,uint256,address))": {
        "notice": "Update contract configuration"
      },
      "withdrawFees()": {
        "notice": "Withdraw minting fees to the treasury address"
      }
    },
    "version": 1
  },
  "storageLayout": {
    "storage": [
      {
        "astId": 583,
        "contract": "contracts/deployables/NFTCollectionContract.sol:NFTCollectionContract",
        "label": "_name",
        "offset": 0,
        "slot": "0",
        "type": "t_string_storage"
      },
      {
        "astId": 585,
        "contract": "contracts/deployables/NFTCollectionContract.sol:NFTCollectionContract",
        "label": "_symbol",
        "offset": 0,
        "slot": "1",
        "type": "t_string_storage"
      },
      {
        "astId": 589,
        "contract": "contracts/deployables/NFTCollectionContract.sol:NFTCollectionContract",
        "label": "_owners",
        "offset": 0,
        "slot": "2",
        "type": "t_mapping(t_uint256,t_address)"
      },
      {
        "astId": 593,
        "contract": "contracts/deployables/NFTCollectionContract.sol:NFTCollectionContract",
        "label": "_balances",
        "offset": 0,
        "slot": "3",
        "type": "t_mapping(t_address,t_uint256)"
      },
      {
        "astId": 597,
        "contract": "contracts/deployables/NFTCollectionContract.sol:NFTCollectionContract",
        "label": "_tokenApprovals",
        "offset": 0,
        "slot": "4",
        "type": "t_mapping(t_uint256,t_address)"
      },
      {
        "astId": 603,
        "contract": "contracts/deployables/NFTCollectionContract.sol:NFTCollectionContract",
        "label": "_operatorApprovals",
        "offset": 0,
        "slot": "5",
        "type": "t_mapping(t_address,t_mapping(t_address,t_bool))"
      },
      {
        "astId": 24,
        "contract": "contracts/deployables/NFTCollectionContract.sol:NFTCollectionContract",
        "label": "_roles",
        "offset": 0,
        "slot": "6",
        "type": "t_mapping(t_bytes32,t_struct(RoleData)19_storage)"
      },
      {
        "astId": 490,
        "contract": "contracts/deployables/NFTCollectionContract.sol:NFTCollectionContract",
        "label": "_initialized",
        "offset": 0,
        "slot": "7",
        "type": "t_bool"
      },
      {
        "astId": 493,
        "contract": "contracts/deployables/NFTCollectionContract.sol:NFTCollectionContract",
        "label": "_initializing",
        "offset": 1,
        "slot": "7",
        "type": "t_bool"
      },
      {
        "astId": 2850,
        "contract": "contracts/deployables/NFTCollectionContract.sol:NFTCollectionContract",
        "label": "totalSupply",
        "offset": 0,
        "slot": "8",
        "type": "t_uint256"
      },
      {
        "astId": 3207,
        "contract": "contracts/deployables/NFTCollectionContract.sol:NFTCollectionContract",
        "label": "_runtimeConfig",
        "offset": 0,
        "slot": "9",
        "type": "t_struct(RuntimeConfig)2819_storage"
      },
      {
        "astId": 3210,
        "contract": "contracts/deployables/NFTCollectionContract.sol:NFTCollectionContract",
        "label": "_deploymentConfig",
        "offset": 0,
        "slot": "17",
        "type": "t_struct(DeploymentConfig)2794_storage"
      },
      {
        "astId": 3213,
        "contract": "contracts/deployables/NFTCollectionContract.sol:NFTCollectionContract",
        "label": "_preventInitialization",
        "offset": 0,
        "slot": "24",
        "type": "t_bool"
      },
      {
        "astId": 3218,
        "contract": "contracts/deployables/NFTCollectionContract.sol:NFTCollectionContract",
        "label": "_presaleMinted",
        "offset": 0,
        "slot": "25",
        "type": "t_mapping(t_address,t_bool)"
      }
    ],
    "types": {
      "t_address": {
        "encoding": "inplace",
        "label": "address",
        "numberOfBytes": "20"
      },
      "t_address_payable": {
        "encoding": "inplace",
        "label": "address payable",
        "numberOfBytes": "20"
      },
      "t_bool": {
        "encoding": "inplace",
        "label": "bool",
        "numberOfBytes": "1"
      },
      "t_bytes32": {
        "encoding": "inplace",
        "label": "bytes32",
        "numberOfBytes": "32"
      },
      "t_mapping(t_address,t_bool)": {
        "encoding": "mapping",
        "key": "t_address",
        "label": "mapping(address => bool)",
        "numberOfBytes": "32",
        "value": "t_bool"
      },
      "t_mapping(t_address,t_mapping(t_address,t_bool))": {
        "encoding": "mapping",
        "key": "t_address",
        "label": "mapping(address => mapping(address => bool))",
        "numberOfBytes": "32",
        "value": "t_mapping(t_address,t_bool)"
      },
      "t_mapping(t_address,t_uint256)": {
        "encoding": "mapping",
        "key": "t_address",
        "label": "mapping(address => uint256)",
        "numberOfBytes": "32",
        "value": "t_uint256"
      },
      "t_mapping(t_bytes32,t_struct(RoleData)19_storage)": {
        "encoding": "mapping",
        "key": "t_bytes32",
        "label": "mapping(bytes32 => struct AccessControl.RoleData)",
        "numberOfBytes": "32",
        "value": "t_struct(RoleData)19_storage"
      },
      "t_mapping(t_uint256,t_address)": {
        "encoding": "mapping",
        "key": "t_uint256",
        "label": "mapping(uint256 => address)",
        "numberOfBytes": "32",
        "value": "t_address"
      },
      "t_string_storage": {
        "encoding": "bytes",
        "label": "string",
        "numberOfBytes": "32"
      },
      "t_struct(DeploymentConfig)2794_storage": {
        "encoding": "inplace",
        "label": "struct NFTCollection.DeploymentConfig",
        "members": [
          {
            "astId": 2775,
            "contract": "contracts/deployables/NFTCollectionContract.sol:NFTCollectionContract",
            "label": "name",
            "offset": 0,
            "slot": "0",
            "type": "t_string_storage"
          },
          {
            "astId": 2778,
            "contract": "contracts/deployables/NFTCollectionContract.sol:NFTCollectionContract",
            "label": "symbol",
            "offset": 0,
            "slot": "1",
            "type": "t_string_storage"
          },
          {
            "astId": 2781,
            "contract": "contracts/deployables/NFTCollectionContract.sol:NFTCollectionContract",
            "label": "owner",
            "offset": 0,
            "slot": "2",
            "type": "t_address"
          },
          {
            "astId": 2784,
            "contract": "contracts/deployables/NFTCollectionContract.sol:NFTCollectionContract",
            "label": "maxSupply",
            "offset": 0,
            "slot": "3",
            "type": "t_uint256"
          },
          {
            "astId": 2787,
            "contract": "contracts/deployables/NFTCollectionContract.sol:NFTCollectionContract",
            "label": "mintPrice",
            "offset": 0,
            "slot": "4",
            "type": "t_uint256"
          },
          {
            "astId": 2790,
            "contract": "contracts/deployables/NFTCollectionContract.sol:NFTCollectionContract",
            "label": "tokensPerMint",
            "offset": 0,
            "slot": "5",
            "type": "t_uint256"
          },
          {
            "astId": 2793,
            "contract": "contracts/deployables/NFTCollectionContract.sol:NFTCollectionContract",
            "label": "treasuryAddress",
            "offset": 0,
            "slot": "6",
            "type": "t_address_payable"
          }
        ],
        "numberOfBytes": "224"
      },
      "t_struct(RoleData)19_storage": {
        "encoding": "inplace",
        "label": "struct AccessControl.RoleData",
        "members": [
          {
            "astId": 16,
            "contract": "contracts/deployables/NFTCollectionContract.sol:NFTCollectionContract",
            "label": "members",
            "offset": 0,
            "slot": "0",
            "type": "t_mapping(t_address,t_bool)"
          },
          {
            "astId": 18,
            "contract": "contracts/deployables/NFTCollectionContract.sol:NFTCollectionContract",
            "label": "adminRole",
            "offset": 0,
            "slot": "1",
            "type": "t_bytes32"
          }
        ],
        "numberOfBytes": "64"
      },
      "t_struct(RuntimeConfig)2819_storage": {
        "encoding": "inplace",
        "label": "struct NFTCollection.RuntimeConfig",
        "members": [
          {
            "astId": 2797,
            "contract": "contracts/deployables/NFTCollectionContract.sol:NFTCollectionContract",
            "label": "baseURI",
            "offset": 0,
            "slot": "0",
            "type": "t_string_storage"
          },
          {
            "astId": 2800,
            "contract": "contracts/deployables/NFTCollectionContract.sol:NFTCollectionContract",
            "label": "metadataUpdatable",
            "offset": 0,
            "slot": "1",
            "type": "t_bool"
          },
          {
            "astId": 2803,
            "contract": "contracts/deployables/NFTCollectionContract.sol:NFTCollectionContract",
            "label": "publicMintStart",
            "offset": 0,
            "slot": "2",
            "type": "t_uint256"
          },
          {
            "astId": 2806,
            "contract": "contracts/deployables/NFTCollectionContract.sol:NFTCollectionContract",
            "label": "presaleMintStart",
            "offset": 0,
            "slot": "3",
            "type": "t_uint256"
          },
          {
            "astId": 2809,
            "contract": "contracts/deployables/NFTCollectionContract.sol:NFTCollectionContract",
            "label": "prerevealTokenURI",
            "offset": 0,
            "slot": "4",
            "type": "t_string_storage"
          },
          {
            "astId": 2812,
            "contract": "contracts/deployables/NFTCollectionContract.sol:NFTCollectionContract",
            "label": "presaleMerkleRoot",
            "offset": 0,
            "slot": "5",
            "type": "t_bytes32"
          },
          {
            "astId": 2815,
            "contract": "contracts/deployables/NFTCollectionContract.sol:NFTCollectionContract",
            "label": "royaltiesBps",
            "offset": 0,
            "slot": "6",
            "type": "t_uint256"
          },
          {
            "astId": 2818,
            "contract": "contracts/deployables/NFTCollectionContract.sol:NFTCollectionContract",
            "label": "royaltiesAddress",
            "offset": 0,
            "slot": "7",
            "type": "t_address"
          }
        ],
        "numberOfBytes": "256"
      },
      "t_uint256": {
        "encoding": "inplace",
        "label": "uint256",
        "numberOfBytes": "32"
      }
    }
  }
}