{
  "address": "0x8Bf113a2a5a8e050F7B051c7A71a7D8C7513297a",
  "abi": [
    {
      "inputs": [
        {
          "components": [
            {
              "internalType": "string",
              "name": "name",
              "type": "string"
            },
            {
              "internalType": "string",
              "name": "symbol",
              "type": "string"
            },
            {
              "internalType": "address",
              "name": "owner",
              "type": "address"
            },
            {
              "internalType": "uint256",
              "name": "maxSupply",
              "type": "uint256"
            },
            {
              "internalType": "uint256",
              "name": "reservedSupply",
              "type": "uint256"
            },
            {
              "internalType": "uint256",
              "name": "mintPrice",
              "type": "uint256"
            },
            {
              "internalType": "uint256",
              "name": "tokensPerMint",
              "type": "uint256"
            },
            {
              "internalType": "address payable",
              "name": "treasuryAddress",
              "type": "address"
            }
          ],
          "internalType": "struct NFTCollection.DeploymentConfig",
          "name": "deploymentConfig",
          "type": "tuple"
        },
        {
          "components": [
            {
              "internalType": "string",
              "name": "baseURI",
              "type": "string"
            },
            {
              "internalType": "bool",
              "name": "metadataUpdatable",
              "type": "bool"
            },
            {
              "internalType": "uint256",
              "name": "publicMintStart",
              "type": "uint256"
            },
            {
              "internalType": "uint256",
              "name": "presaleMintStart",
              "type": "uint256"
            },
            {
              "internalType": "string",
              "name": "prerevealTokenURI",
              "type": "string"
            },
            {
              "internalType": "bytes32",
              "name": "presaleMerkleRoot",
              "type": "bytes32"
            },
            {
              "internalType": "uint256",
              "name": "royaltiesBps",
              "type": "uint256"
            },
            {
              "internalType": "address",
              "name": "royaltiesAddress",
              "type": "address"
            }
          ],
          "internalType": "struct NFTCollection.RuntimeConfig",
          "name": "runtimeConfig",
          "type": "tuple"
        }
      ],
      "stateMutability": "nonpayable",
      "type": "constructor"
    },
    {
      "inputs": [],
      "name": "ApprovalCallerNotOwnerNorApproved",
      "type": "error"
    },
    {
      "inputs": [],
      "name": "ApprovalQueryForNonexistentToken",
      "type": "error"
    },
    {
      "inputs": [],
      "name": "ApprovalToCurrentOwner",
      "type": "error"
    },
    {
      "inputs": [],
      "name": "ApproveToCaller",
      "type": "error"
    },
    {
      "inputs": [],
      "name": "BalanceQueryForZeroAddress",
      "type": "error"
    },
    {
      "inputs": [],
      "name": "MintToZeroAddress",
      "type": "error"
    },
    {
      "inputs": [],
      "name": "MintZeroQuantity",
      "type": "error"
    },
    {
      "inputs": [],
      "name": "OwnerQueryForNonexistentToken",
      "type": "error"
    },
    {
      "inputs": [],
      "name": "TransferCallerNotOwnerNorApproved",
      "type": "error"
    },
    {
      "inputs": [],
      "name": "TransferFromIncorrectOwner",
      "type": "error"
    },
    {
      "inputs": [],
      "name": "TransferToNonERC721ReceiverImplementer",
      "type": "error"
    },
    {
      "inputs": [],
      "name": "TransferToZeroAddress",
      "type": "error"
    },
    {
      "anonymous": false,
      "inputs": [
        {
          "indexed": true,
          "internalType": "address",
          "name": "owner",
          "type": "address"
        },
        {
          "indexed": true,
          "internalType": "address",
          "name": "approved",
          "type": "address"
        },
        {
          "indexed": true,
          "internalType": "uint256",
          "name": "tokenId",
          "type": "uint256"
        }
      ],
      "name": "Approval",
      "type": "event"
    },
    {
      "anonymous": false,
      "inputs": [
        {
          "indexed": true,
          "internalType": "address",
          "name": "owner",
          "type": "address"
        },
        {
          "indexed": true,
          "internalType": "address",
          "name": "operator",
          "type": "address"
        },
        {
          "indexed": false,
          "internalType": "bool",
          "name": "approved",
          "type": "bool"
        }
      ],
      "name": "ApprovalForAll",
      "type": "event"
    },
    {
      "anonymous": false,
      "inputs": [
        {
          "indexed": false,
          "internalType": "uint8",
          "name": "version",
          "type": "uint8"
        }
      ],
      "name": "Initialized",
      "type": "event"
    },
    {
      "anonymous": false,
      "inputs": [
        {
          "indexed": true,
          "internalType": "address",
          "name": "previousOwner",
          "type": "address"
        },
        {
          "indexed": true,
          "internalType": "address",
          "name": "newOwner",
          "type": "address"
        }
      ],
      "name": "OwnershipTransferred",
      "type": "event"
    },
    {
      "anonymous": false,
      "inputs": [
        {
          "indexed": true,
          "internalType": "bytes32",
          "name": "role",
          "type": "bytes32"
        },
        {
          "indexed": true,
          "internalType": "bytes32",
          "name": "previousAdminRole",
          "type": "bytes32"
        },
        {
          "indexed": true,
          "internalType": "bytes32",
          "name": "newAdminRole",
          "type": "bytes32"
        }
      ],
      "name": "RoleAdminChanged",
      "type": "event"
    },
    {
      "anonymous": false,
      "inputs": [
        {
          "indexed": true,
          "internalType": "bytes32",
          "name": "role",
          "type": "bytes32"
        },
        {
          "indexed": true,
          "internalType": "address",
          "name": "account",
          "type": "address"
        },
        {
          "indexed": true,
          "internalType": "address",
          "name": "sender",
          "type": "address"
        }
      ],
      "name": "RoleGranted",
      "type": "event"
    },
    {
      "anonymous": false,
      "inputs": [
        {
          "indexed": true,
          "internalType": "bytes32",
          "name": "role",
          "type": "bytes32"
        },
        {
          "indexed": true,
          "internalType": "address",
          "name": "account",
          "type": "address"
        },
        {
          "indexed": true,
          "internalType": "address",
          "name": "sender",
          "type": "address"
        }
      ],
      "name": "RoleRevoked",
      "type": "event"
    },
    {
      "anonymous": false,
      "inputs": [
        {
          "indexed": true,
          "internalType": "address",
          "name": "from",
          "type": "address"
        },
        {
          "indexed": true,
          "internalType": "address",
          "name": "to",
          "type": "address"
        },
        {
          "indexed": true,
          "internalType": "uint256",
          "name": "tokenId",
          "type": "uint256"
        }
      ],
      "name": "Transfer",
      "type": "event"
    },
    {
      "inputs": [],
      "name": "ADMIN_ROLE",
      "outputs": [
        {
          "internalType": "bytes32",
          "name": "",
          "type": "bytes32"
        }
      ],
      "stateMutability": "view",
      "type": "function"
    },
    {
      "inputs": [],
      "name": "DEFAULT_ADMIN_ROLE",
      "outputs": [
        {
          "internalType": "bytes32",
          "name": "",
          "type": "bytes32"
        }
      ],
      "stateMutability": "view",
      "type": "function"
    },
    {
      "inputs": [],
      "name": "ROYALTIES_BASIS",
      "outputs": [
        {
          "internalType": "uint16",
          "name": "",
          "type": "uint16"
        }
      ],
      "stateMutability": "view",
      "type": "function"
    },
    {
      "inputs": [],
      "name": "VERSION",
      "outputs": [
        {
          "internalType": "uint256",
          "name": "",
          "type": "uint256"
        }
      ],
      "stateMutability": "view",
      "type": "function"
    },
    {
      "inputs": [
        {
          "internalType": "address",
          "name": "to",
          "type": "address"
        },
        {
          "internalType": "uint256",
          "name": "tokenId",
          "type": "uint256"
        }
      ],
      "name": "approve",
      "outputs": [],
      "stateMutability": "nonpayable",
      "type": "function"
    },
    {
      "inputs": [],
      "name": "availableSupply",
      "outputs": [
        {
          "internalType": "uint256",
          "name": "",
          "type": "uint256"
        }
      ],
      "stateMutability": "view",
      "type": "function"
    },
    {
      "inputs": [
        {
          "internalType": "address",
          "name": "owner",
          "type": "address"
        }
      ],
      "name": "balanceOf",
      "outputs": [
        {
          "internalType": "uint256",
          "name": "",
          "type": "uint256"
        }
      ],
      "stateMutability": "view",
      "type": "function"
    },
    {
      "inputs": [],
      "name": "baseURI",
      "outputs": [
        {
          "internalType": "string",
          "name": "",
          "type": "string"
        }
      ],
      "stateMutability": "view",
      "type": "function"
    },
    {
      "inputs": [],
      "name": "contractURI",
      "outputs": [
        {
          "internalType": "string",
          "name": "",
          "type": "string"
        }
      ],
      "stateMutability": "view",
      "type": "function"
    },
    {
      "inputs": [
        {
          "internalType": "uint256",
          "name": "tokenId",
          "type": "uint256"
        }
      ],
      "name": "getApproved",
      "outputs": [
        {
          "internalType": "address",
          "name": "",
          "type": "address"
        }
      ],
      "stateMutability": "view",
      "type": "function"
    },
    {
      "inputs": [],
      "name": "getInfo",
      "outputs": [
        {
          "components": [
            {
              "internalType": "uint256",
              "name": "version",
              "type": "uint256"
            },
            {
              "components": [
                {
                  "internalType": "string",
                  "name": "name",
                  "type": "string"
                },
                {
                  "internalType": "string",
                  "name": "symbol",
                  "type": "string"
                },
                {
                  "internalType": "address",
                  "name": "owner",
                  "type": "address"
                },
                {
                  "internalType": "uint256",
                  "name": "maxSupply",
                  "type": "uint256"
                },
                {
                  "internalType": "uint256",
                  "name": "reservedSupply",
                  "type": "uint256"
                },
                {
                  "internalType": "uint256",
                  "name": "mintPrice",
                  "type": "uint256"
                },
                {
                  "internalType": "uint256",
                  "name": "tokensPerMint",
                  "type": "uint256"
                },
                {
                  "internalType": "address payable",
                  "name": "treasuryAddress",
                  "type": "address"
                }
              ],
              "internalType": "struct NFTCollection.DeploymentConfig",
              "name": "deploymentConfig",
              "type": "tuple"
            },
            {
              "components": [
                {
                  "internalType": "string",
                  "name": "baseURI",
                  "type": "string"
                },
                {
                  "internalType": "bool",
                  "name": "metadataUpdatable",
                  "type": "bool"
                },
                {
                  "internalType": "uint256",
                  "name": "publicMintStart",
                  "type": "uint256"
                },
                {
                  "internalType": "uint256",
                  "name": "presaleMintStart",
                  "type": "uint256"
                },
                {
                  "internalType": "string",
                  "name": "prerevealTokenURI",
                  "type": "string"
                },
                {
                  "internalType": "bytes32",
                  "name": "presaleMerkleRoot",
                  "type": "bytes32"
                },
                {
                  "internalType": "uint256",
                  "name": "royaltiesBps",
                  "type": "uint256"
                },
                {
                  "internalType": "address",
                  "name": "royaltiesAddress",
                  "type": "address"
                }
              ],
              "internalType": "struct NFTCollection.RuntimeConfig",
              "name": "runtimeConfig",
              "type": "tuple"
            }
          ],
          "internalType": "struct NFTCollection.ContractInfo",
          "name": "info",
          "type": "tuple"
        }
      ],
      "stateMutability": "view",
      "type": "function"
    },
    {
      "inputs": [
        {
          "internalType": "bytes32",
          "name": "role",
          "type": "bytes32"
        }
      ],
      "name": "getRoleAdmin",
      "outputs": [
        {
          "internalType": "bytes32",
          "name": "",
          "type": "bytes32"
        }
      ],
      "stateMutability": "view",
      "type": "function"
    },
    {
      "inputs": [
        {
          "internalType": "bytes32",
          "name": "role",
          "type": "bytes32"
        },
        {
          "internalType": "address",
          "name": "account",
          "type": "address"
        }
      ],
      "name": "grantRole",
      "outputs": [],
      "stateMutability": "nonpayable",
      "type": "function"
    },
    {
      "inputs": [
        {
          "internalType": "bytes32",
          "name": "role",
          "type": "bytes32"
        },
        {
          "internalType": "address",
          "name": "account",
          "type": "address"
        }
      ],
      "name": "hasRole",
      "outputs": [
        {
          "internalType": "bool",
          "name": "",
          "type": "bool"
        }
      ],
      "stateMutability": "view",
      "type": "function"
    },
    {
      "inputs": [
        {
          "components": [
            {
              "internalType": "string",
              "name": "name",
              "type": "string"
            },
            {
              "internalType": "string",
              "name": "symbol",
              "type": "string"
            },
            {
              "internalType": "address",
              "name": "owner",
              "type": "address"
            },
            {
              "internalType": "uint256",
              "name": "maxSupply",
              "type": "uint256"
            },
            {
              "internalType": "uint256",
              "name": "reservedSupply",
              "type": "uint256"
            },
            {
              "internalType": "uint256",
              "name": "mintPrice",
              "type": "uint256"
            },
            {
              "internalType": "uint256",
              "name": "tokensPerMint",
              "type": "uint256"
            },
            {
              "internalType": "address payable",
              "name": "treasuryAddress",
              "type": "address"
            }
          ],
          "internalType": "struct NFTCollection.DeploymentConfig",
          "name": "deploymentConfig",
          "type": "tuple"
        },
        {
          "components": [
            {
              "internalType": "string",
              "name": "baseURI",
              "type": "string"
            },
            {
              "internalType": "bool",
              "name": "metadataUpdatable",
              "type": "bool"
            },
            {
              "internalType": "uint256",
              "name": "publicMintStart",
              "type": "uint256"
            },
            {
              "internalType": "uint256",
              "name": "presaleMintStart",
              "type": "uint256"
            },
            {
              "internalType": "string",
              "name": "prerevealTokenURI",
              "type": "string"
            },
            {
              "internalType": "bytes32",
              "name": "presaleMerkleRoot",
              "type": "bytes32"
            },
            {
              "internalType": "uint256",
              "name": "royaltiesBps",
              "type": "uint256"
            },
            {
              "internalType": "address",
              "name": "royaltiesAddress",
              "type": "address"
            }
          ],
          "internalType": "struct NFTCollection.RuntimeConfig",
          "name": "runtimeConfig",
          "type": "tuple"
        }
      ],
      "name": "initialize",
      "outputs": [],
      "stateMutability": "nonpayable",
      "type": "function"
    },
    {
      "inputs": [
        {
          "internalType": "address",
          "name": "owner",
          "type": "address"
        },
        {
          "internalType": "address",
          "name": "operator",
          "type": "address"
        }
      ],
      "name": "isApprovedForAll",
      "outputs": [
        {
          "internalType": "bool",
          "name": "",
          "type": "bool"
        }
      ],
      "stateMutability": "view",
      "type": "function"
    },
    {
      "inputs": [
        {
          "internalType": "address",
          "name": "wallet",
          "type": "address"
        },
        {
          "internalType": "bytes32[]",
          "name": "proof",
          "type": "bytes32[]"
        }
      ],
      "name": "isWhitelisted",
      "outputs": [
        {
          "internalType": "bool",
          "name": "",
          "type": "bool"
        }
      ],
      "stateMutability": "view",
      "type": "function"
    },
    {
      "inputs": [],
      "name": "maxSupply",
      "outputs": [
        {
          "internalType": "uint256",
          "name": "",
          "type": "uint256"
        }
      ],
      "stateMutability": "view",
      "type": "function"
    },
    {
      "inputs": [],
      "name": "metadataUpdatable",
      "outputs": [
        {
          "internalType": "bool",
          "name": "",
          "type": "bool"
        }
      ],
      "stateMutability": "view",
      "type": "function"
    },
    {
      "inputs": [
        {
          "internalType": "uint256",
          "name": "amount",
          "type": "uint256"
        }
      ],
      "name": "mint",
      "outputs": [],
      "stateMutability": "payable",
      "type": "function"
    },
    {
      "inputs": [],
      "name": "mintPrice",
      "outputs": [
        {
          "internalType": "uint256",
          "name": "",
          "type": "uint256"
        }
      ],
      "stateMutability": "view",
      "type": "function"
    },
    {
      "inputs": [],
      "name": "mintingActive",
      "outputs": [
        {
          "internalType": "bool",
          "name": "",
          "type": "bool"
        }
      ],
      "stateMutability": "view",
      "type": "function"
    },
    {
      "inputs": [],
      "name": "name",
      "outputs": [
        {
          "internalType": "string",
          "name": "",
          "type": "string"
        }
      ],
      "stateMutability": "view",
      "type": "function"
    },
    {
      "inputs": [],
      "name": "owner",
      "outputs": [
        {
          "internalType": "address",
          "name": "",
          "type": "address"
        }
      ],
      "stateMutability": "view",
      "type": "function"
    },
    {
      "inputs": [
        {
          "internalType": "uint256",
          "name": "tokenId",
          "type": "uint256"
        }
      ],
      "name": "ownerOf",
      "outputs": [
        {
          "internalType": "address",
          "name": "",
          "type": "address"
        }
      ],
      "stateMutability": "view",
      "type": "function"
    },
    {
      "inputs": [],
      "name": "prerevealTokenURI",
      "outputs": [
        {
          "internalType": "string",
          "name": "",
          "type": "string"
        }
      ],
      "stateMutability": "view",
      "type": "function"
    },
    {
      "inputs": [],
      "name": "presaleActive",
      "outputs": [
        {
          "internalType": "bool",
          "name": "",
          "type": "bool"
        }
      ],
      "stateMutability": "view",
      "type": "function"
    },
    {
      "inputs": [],
      "name": "presaleMerkleRoot",
      "outputs": [
        {
          "internalType": "bytes32",
          "name": "",
          "type": "bytes32"
        }
      ],
      "stateMutability": "view",
      "type": "function"
    },
    {
      "inputs": [
        {
          "internalType": "uint256",
          "name": "amount",
          "type": "uint256"
        },
        {
          "internalType": "bytes32[]",
          "name": "proof",
          "type": "bytes32[]"
        }
      ],
      "name": "presaleMint",
      "outputs": [],
      "stateMutability": "payable",
      "type": "function"
    },
    {
      "inputs": [],
      "name": "presaleMintStart",
      "outputs": [
        {
          "internalType": "uint256",
          "name": "",
          "type": "uint256"
        }
      ],
      "stateMutability": "view",
      "type": "function"
    },
    {
      "inputs": [],
      "name": "publicMintStart",
      "outputs": [
        {
          "internalType": "uint256",
          "name": "",
          "type": "uint256"
        }
      ],
      "stateMutability": "view",
      "type": "function"
    },
    {
      "inputs": [
        {
          "internalType": "bytes32",
          "name": "role",
          "type": "bytes32"
        },
        {
          "internalType": "address",
          "name": "account",
          "type": "address"
        }
      ],
      "name": "renounceRole",
      "outputs": [],
      "stateMutability": "nonpayable",
      "type": "function"
    },
    {
      "inputs": [
        {
          "internalType": "address",
          "name": "to",
          "type": "address"
        },
        {
          "internalType": "uint256",
          "name": "amount",
          "type": "uint256"
        }
      ],
      "name": "reserveMint",
      "outputs": [],
      "stateMutability": "nonpayable",
      "type": "function"
    },
    {
      "inputs": [],
      "name": "reserveRemaining",
      "outputs": [
        {
          "internalType": "uint256",
          "name": "",
          "type": "uint256"
        }
      ],
      "stateMutability": "view",
      "type": "function"
    },
    {
      "inputs": [],
      "name": "reservedSupply",
      "outputs": [
        {
          "internalType": "uint256",
          "name": "",
          "type": "uint256"
        }
      ],
      "stateMutability": "view",
      "type": "function"
    },
    {
      "inputs": [
        {
          "internalType": "bytes32",
          "name": "role",
          "type": "bytes32"
        },
        {
          "internalType": "address",
          "name": "account",
          "type": "address"
        }
      ],
      "name": "revokeRole",
      "outputs": [],
      "stateMutability": "nonpayable",
      "type": "function"
    },
    {
      "inputs": [
        {
          "internalType": "uint256",
          "name": "",
          "type": "uint256"
        },
        {
          "internalType": "uint256",
          "name": "salePrice",
          "type": "uint256"
        }
      ],
      "name": "royaltyInfo",
      "outputs": [
        {
          "internalType": "address",
          "name": "receiver",
          "type": "address"
        },
        {
          "internalType": "uint256",
          "name": "royaltyAmount",
          "type": "uint256"
        }
      ],
      "stateMutability": "view",
      "type": "function"
    },
    {
      "inputs": [
        {
          "internalType": "address",
          "name": "from",
          "type": "address"
        },
        {
          "internalType": "address",
          "name": "to",
          "type": "address"
        },
        {
          "internalType": "uint256",
          "name": "tokenId",
          "type": "uint256"
        }
      ],
      "name": "safeTransferFrom",
      "outputs": [],
      "stateMutability": "nonpayable",
      "type": "function"
    },
    {
      "inputs": [
        {
          "internalType": "address",
          "name": "from",
          "type": "address"
        },
        {
          "internalType": "address",
          "name": "to",
          "type": "address"
        },
        {
          "internalType": "uint256",
          "name": "tokenId",
          "type": "uint256"
        },
        {
          "internalType": "bytes",
          "name": "_data",
          "type": "bytes"
        }
      ],
      "name": "safeTransferFrom",
      "outputs": [],
      "stateMutability": "nonpayable",
      "type": "function"
    },
    {
      "inputs": [
        {
          "internalType": "address",
          "name": "operator",
          "type": "address"
        },
        {
          "internalType": "bool",
          "name": "approved",
          "type": "bool"
        }
      ],
      "name": "setApprovalForAll",
      "outputs": [],
      "stateMutability": "nonpayable",
      "type": "function"
    },
    {
      "inputs": [
        {
          "internalType": "bytes4",
          "name": "interfaceId",
          "type": "bytes4"
        }
      ],
      "name": "supportsInterface",
      "outputs": [
        {
          "internalType": "bool",
          "name": "",
          "type": "bool"
        }
      ],
      "stateMutability": "view",
      "type": "function"
    },
    {
      "inputs": [],
      "name": "symbol",
      "outputs": [
        {
          "internalType": "string",
          "name": "",
          "type": "string"
        }
      ],
      "stateMutability": "view",
      "type": "function"
    },
    {
      "inputs": [
        {
          "internalType": "uint256",
          "name": "tokenId",
          "type": "uint256"
        }
      ],
      "name": "tokenURI",
      "outputs": [
        {
          "internalType": "string",
          "name": "",
          "type": "string"
        }
      ],
      "stateMutability": "view",
      "type": "function"
    },
    {
      "inputs": [],
      "name": "tokensPerMint",
      "outputs": [
        {
          "internalType": "uint256",
          "name": "",
          "type": "uint256"
        }
      ],
      "stateMutability": "view",
      "type": "function"
    },
    {
      "inputs": [],
      "name": "totalSupply",
      "outputs": [
        {
          "internalType": "uint256",
          "name": "",
          "type": "uint256"
        }
      ],
      "stateMutability": "view",
      "type": "function"
    },
    {
      "inputs": [
        {
          "internalType": "address",
          "name": "to",
          "type": "address"
        }
      ],
      "name": "transferAdminRights",
      "outputs": [],
      "stateMutability": "nonpayable",
      "type": "function"
    },
    {
      "inputs": [
        {
          "internalType": "address",
          "name": "from",
          "type": "address"
        },
        {
          "internalType": "address",
          "name": "to",
          "type": "address"
        },
        {
          "internalType": "uint256",
          "name": "tokenId",
          "type": "uint256"
        }
      ],
      "name": "transferFrom",
      "outputs": [],
      "stateMutability": "nonpayable",
      "type": "function"
    },
    {
      "inputs": [
        {
          "internalType": "address",
          "name": "newOwner",
          "type": "address"
        }
      ],
      "name": "transferOwnership",
      "outputs": [],
      "stateMutability": "nonpayable",
      "type": "function"
    },
    {
      "inputs": [],
      "name": "treasuryAddress",
      "outputs": [
        {
          "internalType": "address",
          "name": "",
          "type": "address"
        }
      ],
      "stateMutability": "view",
      "type": "function"
    },
    {
      "inputs": [
        {
          "components": [
            {
              "internalType": "string",
              "name": "baseURI",
              "type": "string"
            },
            {
              "internalType": "bool",
              "name": "metadataUpdatable",
              "type": "bool"
            },
            {
              "internalType": "uint256",
              "name": "publicMintStart",
              "type": "uint256"
            },
            {
              "internalType": "uint256",
              "name": "presaleMintStart",
              "type": "uint256"
            },
            {
              "internalType": "string",
              "name": "prerevealTokenURI",
              "type": "string"
            },
            {
              "internalType": "bytes32",
              "name": "presaleMerkleRoot",
              "type": "bytes32"
            },
            {
              "internalType": "uint256",
              "name": "royaltiesBps",
              "type": "uint256"
            },
            {
              "internalType": "address",
              "name": "royaltiesAddress",
              "type": "address"
            }
          ],
          "internalType": "struct NFTCollection.RuntimeConfig",
          "name": "newConfig",
          "type": "tuple"
        }
      ],
      "name": "updateConfig",
      "outputs": [],
      "stateMutability": "nonpayable",
      "type": "function"
    },
    {
      "inputs": [],
      "name": "withdrawFees",
      "outputs": [],
      "stateMutability": "nonpayable",
      "type": "function"
    }
  ],
  "transactionHash": "0x9ae3a98ef5a9e1abcf4e3d80a4fb9974b44e6604fb4f55f3a372a583536e1c25",
  "args": [
    {
      "owner": "0xE7D7696C8f11278124f39fB7cDd39fD9442D5026",
      "name": "NFTCollection",
      "symbol": "NFT",
      "maxSupply": 1000,
      "reservedSupply": 0,
      "tokensPerMint": 10,
      "mintPrice": "10000000000000000",
      "treasuryAddress": "0xE7D7696C8f11278124f39fB7cDd39fD9442D5026"
    },
    {
      "baseURI": "",
      "prerevealTokenURI": "",
      "publicMintStart": 0,
      "presaleMintStart": 0,
      "presaleMerkleRoot": "0x0000000000000000000000000000000000000000000000000000000000000000",
      "metadataUpdatable": true,
      "royaltiesBps": 250,
      "royaltiesAddress": "0xE7D7696C8f11278124f39fB7cDd39fD9442D5026"
    }
  ],
  "numDeployments": 2,
  "solcInputHash": "9be5f0e5b1289c93580214391a19e4ad",
  "bytecode": "0x60806040523480156200001157600080fd5b506040516200488438038062004884833981016040819052620000349162000a4d565b604080516020808201808452600080845284519283019094529281528151919290916200006491600291620007ad565b5080516200007a906003906020840190620007ad565b50600080555050601b805460ff191690556200009782826200009f565b505062000b9d565b6000620000ad6001620002e4565b90508015620000c6576009805461ff0019166101001790555b601b5460ff16156200011f5760405162461bcd60e51b815260206004820152601560248201527f43616e6e6f7420626520696e697469616c697a6564000000000000000000000060448201526064015b60405180910390fd5b6200012a83620003f9565b620001456000805160206200486483398151915233620005ba565b604083015162000155906200065f565b82518051849160139162000171918391602090910190620007ad565b5060208281015180516200018c9260018501920190620007ad565b5060408201516002820180546001600160a01b03199081166001600160a01b0393841617909155606084015160038401556080840151600484015560a0840151600584015560c0840151600684015560e090930151600790920180549093169116179055815180518391600b916200020c918391602090910190620007ad565b5060208281015160018301805460ff1916911515919091179055604083015160028301556060830151600383015560808301518051620002539260048501920190620007ad565b5060a0820151600582015560c0820151600682015560e090910151600790910180546001600160a01b0319166001600160a01b039092169190911790556080830151600a558015620002df576009805461ff0019169055604051600181527f7f26b83ff96e1f2b6a682f133852f6798a09c465da95921460cefb38474024989060200160405180910390a15b505050565b600954600090610100900460ff16156200037b578160ff1660011480156200031f57506200031d306200071a60201b6200196a1760201c565b155b620003735760405162461bcd60e51b815260206004820152602e60248201526000805160206200484483398151915260448201526d191e481a5b9a5d1a585b1a5e995960921b606482015260840162000116565b506000919050565b60095460ff808416911610620003da5760405162461bcd60e51b815260206004820152602e60248201526000805160206200484483398151915260448201526d191e481a5b9a5d1a585b1a5e995960921b606482015260840162000116565b506009805460ff191660ff92909216919091179055600190565b919050565b60008160600151116200044f5760405162461bcd60e51b815260206004820152601f60248201527f4d6178696d756d20737570706c79206d757374206265206e6f6e2d7a65726f00604482015260640162000116565b60008160c0015111620004a55760405162461bcd60e51b815260206004820181905260248201527f546f6b656e7320706572206d696e74206d757374206265206e6f6e2d7a65726f604482015260640162000116565b60e08101516001600160a01b0316620005015760405162461bcd60e51b815260206004820152601f60248201527f547265617375727920616464726573732063616e6e6f74206265206e756c6c00604482015260640162000116565b60408101516001600160a01b03166200055d5760405162461bcd60e51b815260206004820152601b60248201527f436f6e7472616374206d757374206861766520616e206f776e65720000000000604482015260640162000116565b806060015181608001511115620005b75760405162461bcd60e51b815260206004820152601b60248201527f526573657276652067726561746572207468616e20737570706c790000000000604482015260640162000116565b50565b60008281526008602090815260408083206001600160a01b038516845290915290205460ff166200065b5760008281526008602090815260408083206001600160a01b03851684529091529020805460ff191660011790556200061a3390565b6001600160a01b0316816001600160a01b0316837f2f8788117e7eff1d82e926ec794901d17c78024a50270940304540a733656f0d60405160405180910390a45b5050565b6015546001600160a01b031662000686600080516020620048648339815191528262000729565b6200069360008262000729565b601580546001600160a01b0319166001600160a01b038416179055620006c96000805160206200486483398151915283620005ba565b620006d6600083620005ba565b816001600160a01b0316816001600160a01b03167f8be0079c531659141344cd1fd0a4f28419497f9722a3daafe3b4186f6b6457e060405160405180910390a35050565b6001600160a01b03163b151590565b60008281526008602090815260408083206001600160a01b038516845290915290205460ff16156200065b5760008281526008602090815260408083206001600160a01b0385168085529252808320805460ff1916905551339285917ff6391f5c32d9c69d2a47ea670b442974b53935d1edc7fd64eb21e047a839171b9190a45050565b828054620007bb9062000b60565b90600052602060002090601f016020900481019282620007df57600085556200082a565b82601f10620007fa57805160ff19168380011785556200082a565b828001600101855582156200082a579182015b828111156200082a5782518255916020019190600101906200080d565b50620008389291506200083c565b5090565b5b808211156200083857600081556001016200083d565b634e487b7160e01b600052604160045260246000fd5b60405161010081016001600160401b03811182821017156200088f576200088f62000853565b60405290565b604051601f8201601f191681016001600160401b0381118282101715620008c057620008c062000853565b604052919050565b600082601f830112620008da57600080fd5b81516001600160401b03811115620008f657620008f662000853565b60206200090c601f8301601f1916820162000895565b82815285828487010111156200092157600080fd5b60005b838110156200094157858101830151828201840152820162000924565b83811115620009535760008385840101525b5095945050505050565b80516001600160a01b0381168114620003f457600080fd5b80518015158114620003f457600080fd5b600061010082840312156200099a57600080fd5b620009a462000869565b82519091506001600160401b0380821115620009bf57600080fd5b620009cd85838601620008c8565b8352620009dd6020850162000975565b60208401526040840151604084015260608401516060840152608084015191508082111562000a0b57600080fd5b5062000a1a84828501620008c8565b60808301525060a082015160a082015260c082015160c082015262000a4260e083016200095d565b60e082015292915050565b6000806040838503121562000a6157600080fd5b82516001600160401b038082111562000a7957600080fd5b90840190610100828703121562000a8f57600080fd5b62000a9962000869565b82518281111562000aa957600080fd5b62000ab788828601620008c8565b82525060208301518281111562000acd57600080fd5b62000adb88828601620008c8565b60208301525062000aef604084016200095d565b6040820152606083015160608201526080830151608082015260a083015160a082015260c083015160c082015262000b2a60e084016200095d565b60e0820152602086015190945091508082111562000b4757600080fd5b5062000b568582860162000986565b9150509250929050565b600181811c9082168062000b7557607f821691505b6020821081141562000b9757634e487b7160e01b600052602260045260246000fd5b50919050565b613c978062000bad6000396000f3fe6080604052600436106102e45760003560e01c806370a0823111610190578063b5106add116100dc578063e3e1e8ef11610095578063eec1b5d51161006f578063eec1b5d514610891578063f2fde38b146108b1578063f4ad0f97146108d1578063ffa1ad74146108e657600080fd5b8063e3e1e8ef14610820578063e8a3d48514610833578063e985e9c51461084857600080fd5b8063b5106add1461076d578063b88d4fde1461078d578063c5f956af146107ad578063c87b56dd146107cb578063d547741f146107eb578063d5abeb011461080b57600080fd5b806391d1485411610149578063a0712d6811610123578063a0712d6814610705578063a217fddf14610718578063a22cb4651461072d578063b0ea18021461074d57600080fd5b806391d14854146106a757806395d89b41146106c75780639da5b0a5146106dc57600080fd5b806370a08231146105fd57806375b238fc1461061d5780637ecc2b561461063f578063877bb1ae146106545780638cfec4c0146106745780638da5cb5b1461068957600080fd5b806336568abe1161024f57806353135ca0116102085780635c629f4c116101e25780635c629f4c1461059d5780636352211e146105b35780636817c76c146105d35780636c0360eb146105e857600080fd5b806353135ca0146105445780635a23dd991461055b5780635a9b0b891461057b57600080fd5b806336568abe146104ad57806342842e0e146104cd57806344d19d2b146104ed5780634653124b14610502578063476343ee146105175780634e6f9dd61461052c57600080fd5b806322212e2b116102a157806322212e2b146103d257806323b872dd146103e7578063248a9ca3146104075780632a55205a146104375780632f2ff15d1461047657806331f9c9191461049657600080fd5b806301ffc9a7146102e957806306fdde031461031e5780630807b9e214610340578063081812fc1461035f578063095ea7b31461039757806318160ddd146103b9575b600080fd5b3480156102f557600080fd5b50610309610304366004612ddd565b6108fc565b60405190151581526020015b60405180910390f35b34801561032a57600080fd5b50610333610937565b6040516103159190612e52565b34801561034c57600080fd5b506019545b604051908152602001610315565b34801561036b57600080fd5b5061037f61037a366004612e65565b6109cc565b6040516001600160a01b039091168152602001610315565b3480156103a357600080fd5b506103b76103b2366004612e9e565b610a10565b005b3480156103c557600080fd5b5060015460005403610351565b3480156103de57600080fd5b50601054610351565b3480156103f357600080fd5b506103b7610402366004612eca565b610a9e565b34801561041357600080fd5b50610351610422366004612e65565b60009081526008602052604090206001015490565b34801561044357600080fd5b50610457610452366004612f0b565b610aa9565b604080516001600160a01b039093168352602083019190915201610315565b34801561048257600080fd5b506103b7610491366004612f2d565b610ae0565b3480156104a257600080fd5b50600d544211610309565b3480156104b957600080fd5b506103b76104c8366004612f2d565b610b05565b3480156104d957600080fd5b506103b76104e8366004612eca565b610b88565b3480156104f957600080fd5b50601754610351565b34801561050e57600080fd5b50600e54610351565b34801561052357600080fd5b506103b7610ba3565b34801561053857600080fd5b50600c5460ff16610309565b34801561055057600080fd5b50600e544211610309565b34801561056757600080fd5b50610309610576366004612fa8565b610bd4565b34801561058757600080fd5b50610590610cb2565b604051610315919061307f565b3480156105a957600080fd5b50610351600a5481565b3480156105bf57600080fd5b5061037f6105ce366004612e65565b610fd4565b3480156105df57600080fd5b50601854610351565b3480156105f457600080fd5b50610333610fe6565b34801561060957600080fd5b50610351610618366004613147565b610ff8565b34801561062957600080fd5b50610351600080516020613c4283398151915281565b34801561064b57600080fd5b50610351611046565b34801561066057600080fd5b506103b761066f366004613164565b611074565b34801561068057600080fd5b50600d54610351565b34801561069557600080fd5b506015546001600160a01b031661037f565b3480156106b357600080fd5b506103096106c2366004612f2d565b6110a8565b3480156106d357600080fd5b506103336110d3565b3480156106e857600080fd5b506106f261271081565b60405161ffff9091168152602001610315565b6103b7610713366004612e65565b6110e5565b34801561072457600080fd5b50610351600081565b34801561073957600080fd5b506103b76107483660046131b8565b611192565b34801561075957600080fd5b506103b7610768366004612e9e565b611228565b34801561077957600080fd5b506103b7610788366004613147565b6112aa565b34801561079957600080fd5b506103b76107a836600461329a565b61139d565b3480156107b957600080fd5b50601a546001600160a01b031661037f565b3480156107d757600080fd5b506103336107e6366004612e65565b6113e8565b3480156107f757600080fd5b506103b7610806366004612f2d565b611510565b34801561081757600080fd5b50601654610351565b6103b761082e366004613319565b611535565b34801561083f57600080fd5b50610333611653565b34801561085457600080fd5b5061030961086336600461334b565b6001600160a01b03918216600090815260076020908152604080832093909416825291909152205460ff1690565b34801561089d57600080fd5b506103b76108ac366004613452565b6116d0565b3480156108bd57600080fd5b506103b76108cc366004613147565b6118f2565b3480156108dd57600080fd5b50610333611958565b3480156108f257600080fd5b506103516127da81565b600061090782611979565b806109165750610916826119c9565b80610931575063152a902d60e11b6001600160e01b03198316145b92915050565b60606013600001805461094990613552565b80601f016020809104026020016040519081016040528092919081815260200182805461097590613552565b80156109c25780601f10610997576101008083540402835291602001916109c2565b820191906000526020600020905b8154815290600101906020018083116109a557829003601f168201915b5050505050905090565b60006109d7826119fe565b6109f4576040516333d1c03960e21b815260040160405180910390fd5b506000908152600660205260409020546001600160a01b031690565b6000610a1b82610fd4565b9050806001600160a01b0316836001600160a01b03161415610a505760405163250fdee360e21b815260040160405180910390fd5b336001600160a01b03821614801590610a705750610a6e8133610863565b155b15610a8e576040516367d9dca160e11b815260040160405180910390fd5b610a99838383611a29565b505050565b610a99838383611a85565b6012546011546001600160a01b039091169060009061271090610acd9085906135a3565b610ad791906135d8565b90509250929050565b600082815260086020526040902060010154610afb81611c73565b610a998383611c7d565b6001600160a01b0381163314610b7a5760405162461bcd60e51b815260206004820152602f60248201527f416363657373436f6e74726f6c3a2063616e206f6e6c792072656e6f756e636560448201526e103937b632b9903337b91039b2b63360891b60648201526084015b60405180910390fd5b610b848282611d03565b5050565b610a998383836040518060200160405280600081525061139d565b600080516020613c42833981519152610bbb81611c73565b601a54610bd1906001600160a01b031647611d6a565b50565b6001600160a01b0383166000908152601c602052604081205460ff1615610c2e5760405162461bcd60e51b815260206004820152600e60248201526d105b1c9958591e481b5a5b9d195960921b6044820152606401610b71565b6040516bffffffffffffffffffffffff19606086901b166020820152600090603401604051602081830303815290604052805190602001209050610ca9848480806020026020016040519081016040528093929190818152602001838360200280828437600092019190915250506010549150849050611e83565b95945050505050565b610cba612c62565b6127da81526040805161010081019091526013805482908290610cdc90613552565b80601f0160208091040260200160405190810160405280929190818152602001828054610d0890613552565b8015610d555780601f10610d2a57610100808354040283529160200191610d55565b820191906000526020600020905b815481529060010190602001808311610d3857829003601f168201915b50505050508152602001600182018054610d6e90613552565b80601f0160208091040260200160405190810160405280929190818152602001828054610d9a90613552565b8015610de75780601f10610dbc57610100808354040283529160200191610de7565b820191906000526020600020905b815481529060010190602001808311610dca57829003601f168201915b505050918352505060028201546001600160a01b0390811660208084019190915260038401546040808501919091526004850154606085015260058501546080850152600685015460a085015260079094015490911660c09092019190915283019190915280516101008101909152600b805482908290610e6790613552565b80601f0160208091040260200160405190810160405280929190818152602001828054610e9390613552565b8015610ee05780601f10610eb557610100808354040283529160200191610ee0565b820191906000526020600020905b815481529060010190602001808311610ec357829003601f168201915b5050509183525050600182015460ff16151560208201526002820154604082015260038201546060820152600482018054608090920191610f2090613552565b80601f0160208091040260200160405190810160405280929190818152602001828054610f4c90613552565b8015610f995780601f10610f6e57610100808354040283529160200191610f99565b820191906000526020600020905b815481529060010190602001808311610f7c57829003601f168201915b50505091835250506005820154602082015260068201546040808301919091526007909201546001600160a01b031660609091015282015290565b6000610fdf82611e99565b5192915050565b6060600b600001805461094990613552565b60006001600160a01b038216611021576040516323d3ad8160e21b815260040160405180910390fd5b506001600160a01b03166000908152600560205260409020546001600160401b031690565b6000600a546110586001546000540390565b60165461106591906135ec565b61106f91906135ec565b905090565b600080516020613c4283398151915261108c81611c73565b61109582611fb3565b81600b6110a28282613770565b50505050565b60009182526008602090815260408084206001600160a01b0393909316845291905290205460ff1690565b60606013600101805461094990613552565b60185481906110f490826135a3565b3410156111375760405162461bcd60e51b815260206004820152601160248201527014185e5b595b9d081d1bdbc81cdb585b1b607a1b6044820152606401610b71565b600d5442116111885760405162461bcd60e51b815260206004820152601b60248201527f4d696e74696e6720686173206e6f7420737461727465642079657400000000006044820152606401610b71565b610b84338361210e565b6001600160a01b0382163314156111bc5760405163b06307db60e01b815260040160405180910390fd5b3360008181526007602090815260408083206001600160a01b03871680855290835292819020805460ff191686151590811790915590519081529192917f17307eab39ab6107e8899845ad3d59bd9653f200f220920489ca2b5937696c31910160405180910390a35050565b600080516020613c4283398151915261124081611c73565b600a548211156112885760405162461bcd60e51b8152602060048201526013602482015272139bdd08195b9bdd59da081c995cd95c9d9959606a1b6044820152606401610b71565b81600a600082825461129a91906135ec565b90915550610a999050838361210e565b600080516020613c428339815191526112c281611c73565b6112da600080516020613c42833981519152836110a8565b1561131a5760405162461bcd60e51b815260206004820152601060248201526f20b63932b0b23c9030b71030b236b4b760811b6044820152606401610b71565b6015546001600160a01b031633141561136d5760405162461bcd60e51b81526020600482015260156024820152740557365207472616e736665724f776e65727368697605c1b6044820152606401610b71565b611385600080516020613c4283398151915233611d03565b610b84600080516020613c4283398151915283611c7d565b6113a8848484611a85565b6001600160a01b0383163b151580156113ca57506113c8848484846121ad565b155b156110a2576040516368d2bf6b60e11b815260040160405180910390fd5b60606113f3826119fe565b6114365760405162461bcd60e51b8152602060048201526014602482015273151bdad95b88191bd95cc81b9bdd08195e1a5cdd60621b6044820152606401610b71565b6000600b600001805461144890613552565b9050116114df57600f805461145c90613552565b80601f016020809104026020016040519081016040528092919081815260200182805461148890613552565b80156114d55780601f106114aa576101008083540402835291602001916114d5565b820191906000526020600020905b8154815290600101906020018083116114b857829003601f168201915b5050505050610931565b600b6114ea836122a5565b6040516020016114fb929190613946565b60405160208183030381529060405292915050565b60008281526008602052604090206001015461152b81611c73565b610a998383611d03565b601854839061154490826135a3565b3410156115875760405162461bcd60e51b815260206004820152601160248201527014185e5b595b9d081d1bdbc81cdb585b1b607a1b6044820152606401610b71565b600e5442116115d85760405162461bcd60e51b815260206004820152601b60248201527f50726573616c6520686173206e6f7420737461727465642079657400000000006044820152606401610b71565b6115e3338484610bd4565b61162f5760405162461bcd60e51b815260206004820152601b60248201527f4e6f742077686974656c697374656420666f722070726573616c6500000000006044820152606401610b71565b336000818152601c60205260409020805460ff191660011790556110a2908561210e565b606060006116a4611668600b600601546122a5565b60125461167f906001600160a01b031660146123a2565b60405160200161169092919061396b565b604051602081830303815290604052612544565b90506000816040516020016116b991906139f2565b60408051601f198184030181529190529392505050565b60006116dc60016126a9565b905080156116f4576009805461ff0019166101001790555b601b5460ff161561173f5760405162461bcd60e51b815260206004820152601560248201527410d85b9b9bdd081899481a5b9a5d1a585b1a5e9959605a1b6044820152606401610b71565b61174883612738565b611760600080516020613c4283398151915233611c7d565b61176d83604001516128ec565b825180518491601391611787918391602090910190612d2e565b5060208281015180516117a09260018501920190612d2e565b5060408201516002820180546001600160a01b03199081166001600160a01b0393841617909155606084015160038401556080840151600484015560a0840151600584015560c0840151600684015560e090930151600790920180549093169116179055815180518391600b9161181e918391602090910190612d2e565b5060208281015160018301805460ff19169115159190911790556040830151600283015560608301516003830155608083015180516118639260048501920190612d2e565b5060a0820151600582015560c0820151600682015560e090910151600790910180546001600160a01b0319166001600160a01b039092169190911790556080830151600a558015610a99576009805461ff0019169055604051600181527f7f26b83ff96e1f2b6a682f133852f6798a09c465da95921460cefb38474024989060200160405180910390a1505050565b60006118fd81611c73565b6015546001600160a01b038381169116141561194f5760405162461bcd60e51b815260206004820152601160248201527020b63932b0b23c903a34329037bbb732b960791b6044820152606401610b71565b610b84826128ec565b6060600b600401805461094990613552565b6001600160a01b03163b151590565b60006001600160e01b031982166380ac58cd60e01b14806119aa57506001600160e01b03198216635b5e139f60e01b145b8061093157506301ffc9a760e01b6001600160e01b0319831614610931565b60006001600160e01b03198216637965db0b60e01b1480610931575063152a902d60e11b6001600160e01b0319831614610931565b6000805482108015610931575050600090815260046020526040902054600160e01b900460ff161590565b60008281526006602052604080822080546001600160a01b0319166001600160a01b0387811691821790925591518593918516917f8c5be1e5ebec7d5bd14f71427d1e84f3dd0314c0f7b2291e5b200ac8c7c3b92591a4505050565b6000611a9082611e99565b9050836001600160a01b031681600001516001600160a01b031614611ac75760405162a1148160e81b815260040160405180910390fd5b6000336001600160a01b0386161480611ae55750611ae58533610863565b80611b00575033611af5846109cc565b6001600160a01b0316145b905080611b2057604051632ce44b5f60e11b815260040160405180910390fd5b6001600160a01b038416611b4757604051633a954ecd60e21b815260040160405180910390fd5b611b5360008487611a29565b6001600160a01b038581166000908152600560209081526040808320805467ffffffffffffffff198082166001600160401b0392831660001901831617909255898616808652838620805493841693831660019081018416949094179055898652600490945282852080546001600160e01b031916909417600160a01b42909216919091021783558701808452922080549193909116611c27576000548214611c2757805460208601516001600160401b0316600160a01b026001600160e01b03199091166001600160a01b038a16171781555b50505082846001600160a01b0316866001600160a01b03167fddf252ad1be2c89b69c2b068fc378daa952ba7f163c4a11628f55a4df523b3ef60405160405180910390a45b5050505050565b610bd1813361299d565b611c8782826110a8565b610b845760008281526008602090815260408083206001600160a01b03851684529091529020805460ff19166001179055611cbf3390565b6001600160a01b0316816001600160a01b0316837f2f8788117e7eff1d82e926ec794901d17c78024a50270940304540a733656f0d60405160405180910390a45050565b611d0d82826110a8565b15610b845760008281526008602090815260408083206001600160a01b0385168085529252808320805460ff1916905551339285917ff6391f5c32d9c69d2a47ea670b442974b53935d1edc7fd64eb21e047a839171b9190a45050565b80471015611dba5760405162461bcd60e51b815260206004820152601d60248201527f416464726573733a20696e73756666696369656e742062616c616e63650000006044820152606401610b71565b6000826001600160a01b03168260405160006040518083038185875af1925050503d8060008114611e07576040519150601f19603f3d011682016040523d82523d6000602084013e611e0c565b606091505b5050905080610a995760405162461bcd60e51b815260206004820152603a60248201527f416464726573733a20756e61626c6520746f2073656e642076616c75652c207260448201527f6563697069656e74206d617920686176652072657665727465640000000000006064820152608401610b71565b600082611e908584612a01565b14949350505050565b604080516060810182526000808252602082018190529181019190915281600054811015611f9a57600081815260046020908152604091829020825160608101845290546001600160a01b0381168252600160a01b81046001600160401b031692820192909252600160e01b90910460ff16151591810182905290611f985780516001600160a01b031615611f2f579392505050565b5060001901600081815260046020908152604091829020825160608101845290546001600160a01b038116808352600160a01b82046001600160401b031693830193909352600160e01b900460ff1615159281019290925215611f93579392505050565b611f2f565b505b604051636f96cda160e11b815260040160405180910390fd5b61271060c08201351115611ffe5760405162461bcd60e51b81526020600482015260126024820152710a4def2c2d8e8d2cae640e8dede40d0d2ced60731b6044820152606401610b71565b600c5460ff161561200c5750565b61201c6040820160208301613a37565b600c5460ff161515901515146120745760405162461bcd60e51b815260206004820152601860248201527f43616e6e6f7420756e667265657a65206d6574616461746100000000000000006044820152606401610b71565b61207e8180613603565b60405160200161208f929190613a54565b60408051601f19818403018152908290528051602091820120916120b691600b9101613a64565b6040516020818303038152906040528051906020012014610bd15760405162461bcd60e51b815260206004820152601260248201527126b2ba30b230ba309034b990333937bd32b760711b6044820152606401610b71565b6019548111156121535760405162461bcd60e51b815260206004820152601060248201526f416d6f756e7420746f6f206c6172676560801b6044820152606401610b71565b61215b611046565b8111156121a35760405162461bcd60e51b8152602060048201526016602482015275139bdd08195b9bdd59da081d1bdad95b9cc81b19599d60521b6044820152606401610b71565b610b848282612a75565b604051630a85bd0160e11b81526000906001600160a01b0385169063150b7a02906121e2903390899088908890600401613a70565b602060405180830381600087803b1580156121fc57600080fd5b505af192505050801561222c575060408051601f3d908101601f1916820190925261222991810190613aad565b60015b612287573d80801561225a576040519150601f19603f3d011682016040523d82523d6000602084013e61225f565b606091505b50805161227f576040516368d2bf6b60e11b815260040160405180910390fd5b805181602001fd5b6001600160e01b031916630a85bd0160e11b1490505b949350505050565b6060816122c95750506040805180820190915260018152600360fc1b602082015290565b8160005b81156122f357806122dd81613aca565b91506122ec9050600a836135d8565b91506122cd565b6000816001600160401b0381111561230d5761230d6131e6565b6040519080825280601f01601f191660200182016040528015612337576020820181803683370190505b5090505b841561229d5761234c6001836135ec565b9150612359600a86613ae5565b612364906030613af9565b60f81b81838151811061237957612379613b11565b60200101906001600160f81b031916908160001a90535061239b600a866135d8565b945061233b565b606060006123b18360026135a3565b6123bc906002613af9565b6001600160401b038111156123d3576123d36131e6565b6040519080825280601f01601f1916602001820160405280156123fd576020820181803683370190505b509050600360fc1b8160008151811061241857612418613b11565b60200101906001600160f81b031916908160001a905350600f60fb1b8160018151811061244757612447613b11565b60200101906001600160f81b031916908160001a905350600061246b8460026135a3565b612476906001613af9565b90505b60018111156124ee576f181899199a1a9b1b9c1cb0b131b232b360811b85600f16601081106124aa576124aa613b11565b1a60f81b8282815181106124c0576124c0613b11565b60200101906001600160f81b031916908160001a90535060049490941c936124e781613b27565b9050612479565b50831561253d5760405162461bcd60e51b815260206004820181905260248201527f537472696e67733a20686578206c656e67746820696e73756666696369656e746044820152606401610b71565b9392505050565b805160609080612564575050604080516020810190915260008152919050565b60006003612573836002613af9565b61257d91906135d8565b6125889060046135a3565b90506000612597826020613af9565b6001600160401b038111156125ae576125ae6131e6565b6040519080825280601f01601f1916602001820160405280156125d8576020820181803683370190505b5090506000604051806060016040528060408152602001613c02604091399050600181016020830160005b86811015612664576003818a01810151603f601282901c8116860151600c83901c8216870151600684901c831688015192909316870151600891821b60ff94851601821b92841692909201901b91160160e01b835260049092019101612603565b50600386066001811461267e576002811461268f5761269b565b613d3d60f01b60011983015261269b565b603d60f81b6000198301525b505050918152949350505050565b600954600090610100900460ff16156126f2578160ff1660011480156126ce5750303b155b6126ea5760405162461bcd60e51b8152600401610b7190613b3e565b506000919050565b60095460ff8084169116106127195760405162461bcd60e51b8152600401610b7190613b3e565b506009805460ff191660ff92909216919091179055600190565b919050565b600081606001511161278c5760405162461bcd60e51b815260206004820152601f60248201527f4d6178696d756d20737570706c79206d757374206265206e6f6e2d7a65726f006044820152606401610b71565b60008160c00151116127e05760405162461bcd60e51b815260206004820181905260248201527f546f6b656e7320706572206d696e74206d757374206265206e6f6e2d7a65726f6044820152606401610b71565b60e08101516001600160a01b031661283a5760405162461bcd60e51b815260206004820152601f60248201527f547265617375727920616464726573732063616e6e6f74206265206e756c6c006044820152606401610b71565b60408101516001600160a01b03166128945760405162461bcd60e51b815260206004820152601b60248201527f436f6e7472616374206d757374206861766520616e206f776e657200000000006044820152606401610b71565b806060015181608001511115610bd15760405162461bcd60e51b815260206004820152601b60248201527f526573657276652067726561746572207468616e20737570706c7900000000006044820152606401610b71565b6015546001600160a01b0316612910600080516020613c4283398151915282611d03565b61291b600082611d03565b601580546001600160a01b0319166001600160a01b03841617905561294e600080516020613c4283398151915283611c7d565b612959600083611c7d565b816001600160a01b0316816001600160a01b03167f8be0079c531659141344cd1fd0a4f28419497f9722a3daafe3b4186f6b6457e060405160405180910390a35050565b6129a782826110a8565b610b84576129bf816001600160a01b031660146123a2565b6129ca8360206123a2565b6040516020016129db929190613b8c565b60408051601f198184030181529082905262461bcd60e51b8252610b7191600401612e52565b600081815b8451811015612a6d576000858281518110612a2357612a23613b11565b60200260200101519050808311612a495760008381526020829052604090209250612a5a565b600081815260208490526040902092505b5080612a6581613aca565b915050612a06565b509392505050565b610b84828260405180602001604052806000815250610a9983838360016000546001600160a01b038516612abb57604051622e076360e81b815260040160405180910390fd5b83612ad95760405163b562e8dd60e01b815260040160405180910390fd5b6001600160a01b038516600081815260056020908152604080832080546fffffffffffffffffffffffffffffffff1981166001600160401b038083168c0181169182176801000000000000000067ffffffffffffffff1990941690921783900481168c01811690920217909155858452600490925290912080546001600160e01b031916909217600160a01b429092169190910217905580808501838015612b8a57506001600160a01b0387163b15155b15612c13575b60405182906001600160a01b038916906000907fddf252ad1be2c89b69c2b068fc378daa952ba7f163c4a11628f55a4df523b3ef908290a4612bdb60008884806001019550886121ad565b612bf8576040516368d2bf6b60e11b815260040160405180910390fd5b80821415612b90578260005414612c0e57600080fd5b612c59565b5b6040516001830192906001600160a01b038916906000907fddf252ad1be2c89b69c2b068fc378daa952ba7f163c4a11628f55a4df523b3ef908290a480821415612c14575b50600055611c6c565b604051806060016040528060008152602001612cce604051806101000160405280606081526020016060815260200160006001600160a01b031681526020016000815260200160008152602001600081526020016000815260200160006001600160a01b031681525090565b8152602001612d2960405180610100016040528060608152602001600015158152602001600081526020016000815260200160608152602001600080191681526020016000815260200160006001600160a01b031681525090565b905290565b828054612d3a90613552565b90600052602060002090601f016020900481019282612d5c5760008555612da2565b82601f10612d7557805160ff1916838001178555612da2565b82800160010185558215612da2579182015b82811115612da2578251825591602001919060010190612d87565b50612dae929150612db2565b5090565b5b80821115612dae5760008155600101612db3565b6001600160e01b031981168114610bd157600080fd5b600060208284031215612def57600080fd5b813561253d81612dc7565b60005b83811015612e15578181015183820152602001612dfd565b838111156110a25750506000910152565b60008151808452612e3e816020860160208601612dfa565b601f01601f19169290920160200192915050565b60208152600061253d6020830184612e26565b600060208284031215612e7757600080fd5b5035919050565b6001600160a01b0381168114610bd157600080fd5b803561273381612e7e565b60008060408385031215612eb157600080fd5b8235612ebc81612e7e565b946020939093013593505050565b600080600060608486031215612edf57600080fd5b8335612eea81612e7e565b92506020840135612efa81612e7e565b929592945050506040919091013590565b60008060408385031215612f1e57600080fd5b50508035926020909101359150565b60008060408385031215612f4057600080fd5b823591506020830135612f5281612e7e565b809150509250929050565b60008083601f840112612f6f57600080fd5b5081356001600160401b03811115612f8657600080fd5b6020830191508360208260051b8501011115612fa157600080fd5b9250929050565b600080600060408486031215612fbd57600080fd5b8335612fc881612e7e565b925060208401356001600160401b03811115612fe357600080fd5b612fef86828701612f5d565b9497909650939450505050565b6000610100825181855261301282860182612e26565b91505060208301511515602085015260408301516040850152606083015160608501526080830151848203608086015261304c8282612e26565b60a0858101519087015260c0808601519087015260e0948501516001600160a01b03169490950193909352509192915050565b6020815281516020820152600060208301516060604084015280516101008060808601526130b1610180860183612e26565b91506020830151607f198684030160a08701526130ce8382612e26565b92505060018060a01b0360408401511660c0860152606083015160e08601526080830151818601525060a082015161012085015260c082015161014085015260e0820151915061312a6101608501836001600160a01b03169052565b6040850151848203601f190160608601529150610ca98183612ffc565b60006020828403121561315957600080fd5b813561253d81612e7e565b60006020828403121561317657600080fd5b81356001600160401b0381111561318c57600080fd5b8201610100818503121561253d57600080fd5b8015158114610bd157600080fd5b80356127338161319f565b600080604083850312156131cb57600080fd5b82356131d681612e7e565b91506020830135612f528161319f565b634e487b7160e01b600052604160045260246000fd5b60405161010081016001600160401b038111828210171561321f5761321f6131e6565b60405290565b60006001600160401b038084111561323f5761323f6131e6565b604051601f8501601f19908116603f01168101908282118183101715613267576132676131e6565b8160405280935085815286868601111561328057600080fd5b858560208301376000602087830101525050509392505050565b600080600080608085870312156132b057600080fd5b84356132bb81612e7e565b935060208501356132cb81612e7e565b92506040850135915060608501356001600160401b038111156132ed57600080fd5b8501601f810187136132fe57600080fd5b61330d87823560208401613225565b91505092959194509250565b60008060006040848603121561332e57600080fd5b8335925060208401356001600160401b03811115612fe357600080fd5b6000806040838503121561335e57600080fd5b823561336981612e7e565b91506020830135612f5281612e7e565b600082601f83011261338a57600080fd5b61253d83833560208501613225565b600061010082840312156133ac57600080fd5b6133b46131fc565b905081356001600160401b03808211156133cd57600080fd5b6133d985838601613379565b83526133e7602085016131ad565b60208401526040840135604084015260608401356060840152608084013591508082111561341457600080fd5b5061342184828501613379565b60808301525060a082013560a082015260c082013560c082015261344760e08301612e93565b60e082015292915050565b6000806040838503121561346557600080fd5b82356001600160401b038082111561347c57600080fd5b90840190610100828703121561349157600080fd5b6134996131fc565b8235828111156134a857600080fd5b6134b488828601613379565b8252506020830135828111156134c957600080fd5b6134d588828601613379565b6020830152506134e760408401612e93565b6040820152606083013560608201526080830135608082015260a083013560a082015260c083013560c082015261352060e08401612e93565b60e08201529350602085013591508082111561353b57600080fd5b5061354885828601613399565b9150509250929050565b600181811c9082168061356657607f821691505b6020821081141561358757634e487b7160e01b600052602260045260246000fd5b50919050565b634e487b7160e01b600052601160045260246000fd5b60008160001904831182151516156135bd576135bd61358d565b500290565b634e487b7160e01b600052601260045260246000fd5b6000826135e7576135e76135c2565b500490565b6000828210156135fe576135fe61358d565b500390565b6000808335601e1984360301811261361a57600080fd5b8301803591506001600160401b0382111561363457600080fd5b602001915036819003821315612fa157600080fd5b601f821115610a9957600081815260208120601f850160051c810160208610156136705750805b601f850160051c820191505b8181101561368f5782815560010161367c565b505050505050565b6001600160401b038311156136ae576136ae6131e6565b6136c2836136bc8354613552565b83613649565b6000601f8411600181146136f657600085156136de5750838201355b600019600387901b1c1916600186901b178355611c6c565b600083815260209020601f19861690835b828110156137275786850135825560209485019460019092019101613707565b50868210156137445760001960f88860031b161c19848701351681555b505060018560011b0183555050505050565b600081356109318161319f565b6000813561093181612e7e565b61377a8283613603565b6001600160401b03811115613791576137916131e6565b6137a58161379f8554613552565b85613649565b6000601f8211600181146137d957600083156137c15750838201355b600019600385901b1c1916600184901b178555613833565b600085815260209020601f19841690835b8281101561380a57868501358255602094850194600190920191016137ea565b50848210156138275760001960f88660031b161c19848701351681555b505060018360011b0185555b5050505061385f61384660208401613756565b6001830160ff1981541660ff8315151681178255505050565b60408201356002820155606082013560038201556138806080830183613603565b61388e818360048601613697565b505060a0820135600582015560c08201356006820155610b846138b360e08401613763565b6007830180546001600160a01b0319166001600160a01b0392909216919091179055565b600081546138e481613552565b600182811680156138fc576001811461390d5761393c565b60ff1984168752828701945061393c565b8560005260208060002060005b858110156139335781548a82015290840190820161391a565b50505082870194505b5050505092915050565b600061395282856138d7565b8351613962818360208801612dfa565b01949350505050565b7f7b2273656c6c65725f6665655f62617369735f706f696e7473223a20000000008152600083516139a381601c850160208801612dfa565b731610113332b2afb932b1b4b834b2b73a111d101160611b601c9184019182015283516139d7816030840160208801612dfa565b61227d60f01b60309290910191820152603201949350505050565b7f646174613a6170706c69636174696f6e2f6a736f6e3b6261736536342c000000815260008251613a2a81601d850160208701612dfa565b91909101601d0192915050565b600060208284031215613a4957600080fd5b813561253d8161319f565b8183823760009101908152919050565b600061253d82846138d7565b6001600160a01b0385811682528416602082015260408101839052608060608201819052600090613aa390830184612e26565b9695505050505050565b600060208284031215613abf57600080fd5b815161253d81612dc7565b6000600019821415613ade57613ade61358d565b5060010190565b600082613af457613af46135c2565b500690565b60008219821115613b0c57613b0c61358d565b500190565b634e487b7160e01b600052603260045260246000fd5b600081613b3657613b3661358d565b506000190190565b6020808252602e908201527f496e697469616c697a61626c653a20636f6e747261637420697320616c72656160408201526d191e481a5b9a5d1a585b1a5e995960921b606082015260800190565b7f416363657373436f6e74726f6c3a206163636f756e7420000000000000000000815260008351613bc4816017850160208801612dfa565b7001034b99036b4b9b9b4b733903937b6329607d1b6017918401918201528351613bf5816028840160208801612dfa565b0160280194935050505056fe4142434445464748494a4b4c4d4e4f505152535455565758595a6162636465666768696a6b6c6d6e6f707172737475767778797a303132333435363738392b2fa49807205ce4d355092ef5a8a18f56e8913cf4a201fbe287825b095693c21775a2646970667358221220e81c0879a232fc10643df52877e0b862099715e336c7a0b28064da6d34f7ccee64736f6c63430008090033496e697469616c697a61626c653a20636f6e747261637420697320616c726561a49807205ce4d355092ef5a8a18f56e8913cf4a201fbe287825b095693c21775",
  "devdoc": {
    "kind": "dev",
    "methods": {
      "approve(address,uint256)": {
        "details": "See {IERC721-approve}."
      },
      "balanceOf(address)": {
        "details": "See {IERC721-balanceOf}."
      },
      "contractURI()": {
        "details": "OpenSea contract metadata"
      },
      "getApproved(uint256)": {
        "details": "See {IERC721-getApproved}."
      },
      "getInfo()": {
        "details": "Convenience helper"
      },
      "getRoleAdmin(bytes32)": {
        "details": "Returns the admin role that controls `role`. See {grantRole} and {revokeRole}. To change a role's admin, use {_setRoleAdmin}."
      },
      "grantRole(bytes32,address)": {
        "details": "Grants `role` to `account`. If `account` had not been already granted `role`, emits a {RoleGranted} event. Requirements: - the caller must have ``role``'s admin role."
      },
      "hasRole(bytes32,address)": {
        "details": "Returns `true` if `account` has been granted `role`."
      },
      "isApprovedForAll(address,address)": {
        "details": "See {IERC721-isApprovedForAll}."
      },
      "name()": {
        "details": "Need name() to support setting it in the initializer instead of constructor"
      },
      "owner()": {
        "details": "Required for easy integration with OpenSea"
      },
      "ownerOf(uint256)": {
        "details": "See {IERC721-ownerOf}."
      },
      "renounceRole(bytes32,address)": {
        "details": "Revokes `role` from the calling account. Roles are often managed via {grantRole} and {revokeRole}: this function's purpose is to provide a mechanism for accounts to lose their privileges if they are compromised (such as when a trusted device is misplaced). If the calling account had been revoked `role`, emits a {RoleRevoked} event. Requirements: - the caller must be `account`."
      },
      "revokeRole(bytes32,address)": {
        "details": "Revokes `role` from `account`. If `account` had been granted `role`, emits a {RoleRevoked} event. Requirements: - the caller must have ``role``'s admin role."
      },
      "royaltyInfo(uint256,uint256)": {
        "details": "ERC2981 token royalty info"
      },
      "safeTransferFrom(address,address,uint256)": {
        "details": "See {IERC721-safeTransferFrom}."
      },
      "safeTransferFrom(address,address,uint256,bytes)": {
        "details": "See {IERC721-safeTransferFrom}."
      },
      "setApprovalForAll(address,bool)": {
        "details": "See {IERC721-setApprovalForAll}."
      },
      "supportsInterface(bytes4)": {
        "details": "See {IERC165-supportsInterface}."
      },
      "symbol()": {
        "details": "Need symbol() to support setting it in the initializer instead of constructor"
      },
      "totalSupply()": {
        "details": "Burned tokens are calculated here, use _totalMinted() if you want to count just minted tokens."
      },
      "transferFrom(address,address,uint256)": {
        "details": "See {IERC721-transferFrom}."
      },
      "updateConfig((string,bool,uint256,uint256,string,bytes32,uint256,address))": {
        "details": "Callable by admin roles only"
      },
      "withdrawFees()": {
        "details": "Callable by admin roles only"
      }
    },
    "version": 1
  },
  "userdoc": {
    "kind": "user",
    "methods": {
      "ADMIN_ROLE()": {
        "notice": "Admin role"
      },
      "VERSION()": {
        "notice": "Contract version, semver-style uint X_YY_ZZ"
      },
      "availableSupply()": {
        "notice": "Get the number of tokens still available for minting"
      },
      "getInfo()": {
        "notice": "Get full contract information"
      },
      "initialize((string,string,address,uint256,uint256,uint256,uint256,address),(string,bool,uint256,uint256,string,bytes32,uint256,address))": {
        "notice": "Contract initializer"
      },
      "isWhitelisted(address,bytes32[])": {
        "notice": "Check if the wallet is whitelisted for the presale"
      },
      "mint(uint256)": {
        "notice": "Mint tokens"
      },
      "mintingActive()": {
        "notice": "Check if public minting is active"
      },
      "owner()": {
        "notice": "Contract owner address"
      },
      "presaleActive()": {
        "notice": "Check if presale minting is active"
      },
      "presaleMint(uint256,bytes32[])": {
        "notice": "Mint tokens if the wallet has been whitelisted"
      },
      "reserveMint(address,uint256)": {
        "notice": "Mint a token from the reserve"
      },
      "reserveRemaining()": {
        "notice": "The number of tokens remaining in the reserve"
      },
      "tokenURI(uint256)": {
        "notice": "Get the token metadata URI"
      },
      "transferAdminRights(address)": {
        "notice": "Transfer contract ownership"
      },
      "transferOwnership(address)": {
        "notice": "Transfer contract ownership"
      },
      "updateConfig((string,bool,uint256,uint256,string,bytes32,uint256,address))": {
        "notice": "Update contract configuration"
      },
      "withdrawFees()": {
        "notice": "Withdraw minting fees to the treasury address"
      }
    },
    "version": 1
  },
  "storageLayout": {
    "storage": [
      {
        "astId": 8748,
        "contract": "contracts/NFTCollectionContract.sol:NFTCollectionContract",
        "label": "_currentIndex",
        "offset": 0,
        "slot": "0",
        "type": "t_uint256"
      },
      {
        "astId": 8750,
        "contract": "contracts/NFTCollectionContract.sol:NFTCollectionContract",
        "label": "_burnCounter",
        "offset": 0,
        "slot": "1",
        "type": "t_uint256"
      },
      {
        "astId": 8752,
        "contract": "contracts/NFTCollectionContract.sol:NFTCollectionContract",
        "label": "_name",
        "offset": 0,
        "slot": "2",
        "type": "t_string_storage"
      },
      {
        "astId": 8754,
        "contract": "contracts/NFTCollectionContract.sol:NFTCollectionContract",
        "label": "_symbol",
        "offset": 0,
        "slot": "3",
        "type": "t_string_storage"
      },
      {
        "astId": 8759,
        "contract": "contracts/NFTCollectionContract.sol:NFTCollectionContract",
        "label": "_ownerships",
        "offset": 0,
        "slot": "4",
        "type": "t_mapping(t_uint256,t_struct(TokenOwnership)8737_storage)"
      },
      {
        "astId": 8764,
        "contract": "contracts/NFTCollectionContract.sol:NFTCollectionContract",
        "label": "_addressData",
        "offset": 0,
        "slot": "5",
        "type": "t_mapping(t_address,t_struct(AddressData)8746_storage)"
      },
      {
        "astId": 8768,
        "contract": "contracts/NFTCollectionContract.sol:NFTCollectionContract",
        "label": "_tokenApprovals",
        "offset": 0,
        "slot": "6",
        "type": "t_mapping(t_uint256,t_address)"
      },
      {
        "astId": 8774,
        "contract": "contracts/NFTCollectionContract.sol:NFTCollectionContract",
        "label": "_operatorApprovals",
        "offset": 0,
        "slot": "7",
        "type": "t_mapping(t_address,t_mapping(t_address,t_bool))"
      },
      {
        "astId": 24,
        "contract": "contracts/NFTCollectionContract.sol:NFTCollectionContract",
        "label": "_roles",
        "offset": 0,
        "slot": "8",
        "type": "t_mapping(t_bytes32,t_struct(RoleData)19_storage)"
      },
      {
        "astId": 523,
        "contract": "contracts/NFTCollectionContract.sol:NFTCollectionContract",
        "label": "_initialized",
        "offset": 0,
        "slot": "9",
        "type": "t_uint8"
      },
      {
        "astId": 526,
        "contract": "contracts/NFTCollectionContract.sol:NFTCollectionContract",
        "label": "_initializing",
        "offset": 1,
        "slot": "9",
        "type": "t_bool"
      },
      {
        "astId": 7836,
        "contract": "contracts/NFTCollectionContract.sol:NFTCollectionContract",
        "label": "reserveRemaining",
        "offset": 0,
        "slot": "10",
        "type": "t_uint256"
      },
      {
        "astId": 8204,
        "contract": "contracts/NFTCollectionContract.sol:NFTCollectionContract",
        "label": "_runtimeConfig",
        "offset": 0,
        "slot": "11",
        "type": "t_struct(RuntimeConfig)7805_storage"
      },
      {
        "astId": 8207,
        "contract": "contracts/NFTCollectionContract.sol:NFTCollectionContract",
        "label": "_deploymentConfig",
        "offset": 0,
        "slot": "19",
        "type": "t_struct(DeploymentConfig)7788_storage"
      },
      {
        "astId": 8210,
        "contract": "contracts/NFTCollectionContract.sol:NFTCollectionContract",
        "label": "_preventInitialization",
        "offset": 0,
        "slot": "27",
        "type": "t_bool"
      },
      {
        "astId": 8215,
        "contract": "contracts/NFTCollectionContract.sol:NFTCollectionContract",
        "label": "_presaleMinted",
        "offset": 0,
        "slot": "28",
        "type": "t_mapping(t_address,t_bool)"
      }
    ],
    "types": {
      "t_address": {
        "encoding": "inplace",
        "label": "address",
        "numberOfBytes": "20"
      },
      "t_address_payable": {
        "encoding": "inplace",
        "label": "address payable",
        "numberOfBytes": "20"
      },
      "t_bool": {
        "encoding": "inplace",
        "label": "bool",
        "numberOfBytes": "1"
      },
      "t_bytes32": {
        "encoding": "inplace",
        "label": "bytes32",
        "numberOfBytes": "32"
      },
      "t_mapping(t_address,t_bool)": {
        "encoding": "mapping",
        "key": "t_address",
        "label": "mapping(address => bool)",
        "numberOfBytes": "32",
        "value": "t_bool"
      },
      "t_mapping(t_address,t_mapping(t_address,t_bool))": {
        "encoding": "mapping",
        "key": "t_address",
        "label": "mapping(address => mapping(address => bool))",
        "numberOfBytes": "32",
        "value": "t_mapping(t_address,t_bool)"
      },
      "t_mapping(t_address,t_struct(AddressData)8746_storage)": {
        "encoding": "mapping",
        "key": "t_address",
        "label": "mapping(address => struct ERC721A.AddressData)",
        "numberOfBytes": "32",
        "value": "t_struct(AddressData)8746_storage"
      },
      "t_mapping(t_bytes32,t_struct(RoleData)19_storage)": {
        "encoding": "mapping",
        "key": "t_bytes32",
        "label": "mapping(bytes32 => struct AccessControl.RoleData)",
        "numberOfBytes": "32",
        "value": "t_struct(RoleData)19_storage"
      },
      "t_mapping(t_uint256,t_address)": {
        "encoding": "mapping",
        "key": "t_uint256",
        "label": "mapping(uint256 => address)",
        "numberOfBytes": "32",
        "value": "t_address"
      },
      "t_mapping(t_uint256,t_struct(TokenOwnership)8737_storage)": {
        "encoding": "mapping",
        "key": "t_uint256",
        "label": "mapping(uint256 => struct ERC721A.TokenOwnership)",
        "numberOfBytes": "32",
        "value": "t_struct(TokenOwnership)8737_storage"
      },
      "t_string_storage": {
        "encoding": "bytes",
        "label": "string",
        "numberOfBytes": "32"
      },
      "t_struct(AddressData)8746_storage": {
        "encoding": "inplace",
        "label": "struct ERC721A.AddressData",
        "members": [
          {
            "astId": 8739,
            "contract": "contracts/NFTCollectionContract.sol:NFTCollectionContract",
            "label": "balance",
            "offset": 0,
            "slot": "0",
            "type": "t_uint64"
          },
          {
            "astId": 8741,
            "contract": "contracts/NFTCollectionContract.sol:NFTCollectionContract",
            "label": "numberMinted",
            "offset": 8,
            "slot": "0",
            "type": "t_uint64"
          },
          {
            "astId": 8743,
            "contract": "contracts/NFTCollectionContract.sol:NFTCollectionContract",
            "label": "numberBurned",
            "offset": 16,
            "slot": "0",
            "type": "t_uint64"
          },
          {
            "astId": 8745,
            "contract": "contracts/NFTCollectionContract.sol:NFTCollectionContract",
            "label": "aux",
            "offset": 24,
            "slot": "0",
            "type": "t_uint64"
          }
        ],
        "numberOfBytes": "32"
      },
      "t_struct(DeploymentConfig)7788_storage": {
        "encoding": "inplace",
        "label": "struct NFTCollection.DeploymentConfig",
        "members": [
          {
            "astId": 7773,
            "contract": "contracts/NFTCollectionContract.sol:NFTCollectionContract",
            "label": "name",
            "offset": 0,
            "slot": "0",
            "type": "t_string_storage"
          },
          {
            "astId": 7775,
            "contract": "contracts/NFTCollectionContract.sol:NFTCollectionContract",
            "label": "symbol",
            "offset": 0,
            "slot": "1",
            "type": "t_string_storage"
          },
          {
            "astId": 7777,
            "contract": "contracts/NFTCollectionContract.sol:NFTCollectionContract",
            "label": "owner",
            "offset": 0,
            "slot": "2",
            "type": "t_address"
          },
          {
            "astId": 7779,
            "contract": "contracts/NFTCollectionContract.sol:NFTCollectionContract",
            "label": "maxSupply",
            "offset": 0,
            "slot": "3",
            "type": "t_uint256"
          },
          {
            "astId": 7781,
            "contract": "contracts/NFTCollectionContract.sol:NFTCollectionContract",
            "label": "reservedSupply",
            "offset": 0,
            "slot": "4",
            "type": "t_uint256"
          },
          {
            "astId": 7783,
            "contract": "contracts/NFTCollectionContract.sol:NFTCollectionContract",
            "label": "mintPrice",
            "offset": 0,
            "slot": "5",
            "type": "t_uint256"
          },
          {
            "astId": 7785,
            "contract": "contracts/NFTCollectionContract.sol:NFTCollectionContract",
            "label": "tokensPerMint",
            "offset": 0,
            "slot": "6",
            "type": "t_uint256"
          },
          {
            "astId": 7787,
            "contract": "contracts/NFTCollectionContract.sol:NFTCollectionContract",
            "label": "treasuryAddress",
            "offset": 0,
            "slot": "7",
            "type": "t_address_payable"
          }
        ],
        "numberOfBytes": "256"
      },
      "t_struct(RoleData)19_storage": {
        "encoding": "inplace",
        "label": "struct AccessControl.RoleData",
        "members": [
          {
            "astId": 16,
            "contract": "contracts/NFTCollectionContract.sol:NFTCollectionContract",
            "label": "members",
            "offset": 0,
            "slot": "0",
            "type": "t_mapping(t_address,t_bool)"
          },
          {
            "astId": 18,
            "contract": "contracts/NFTCollectionContract.sol:NFTCollectionContract",
            "label": "adminRole",
            "offset": 0,
            "slot": "1",
            "type": "t_bytes32"
          }
        ],
        "numberOfBytes": "64"
      },
      "t_struct(RuntimeConfig)7805_storage": {
        "encoding": "inplace",
        "label": "struct NFTCollection.RuntimeConfig",
        "members": [
          {
            "astId": 7790,
            "contract": "contracts/NFTCollectionContract.sol:NFTCollectionContract",
            "label": "baseURI",
            "offset": 0,
            "slot": "0",
            "type": "t_string_storage"
          },
          {
            "astId": 7792,
            "contract": "contracts/NFTCollectionContract.sol:NFTCollectionContract",
            "label": "metadataUpdatable",
            "offset": 0,
            "slot": "1",
            "type": "t_bool"
          },
          {
            "astId": 7794,
            "contract": "contracts/NFTCollectionContract.sol:NFTCollectionContract",
            "label": "publicMintStart",
            "offset": 0,
            "slot": "2",
            "type": "t_uint256"
          },
          {
            "astId": 7796,
            "contract": "contracts/NFTCollectionContract.sol:NFTCollectionContract",
            "label": "presaleMintStart",
            "offset": 0,
            "slot": "3",
            "type": "t_uint256"
          },
          {
            "astId": 7798,
            "contract": "contracts/NFTCollectionContract.sol:NFTCollectionContract",
            "label": "prerevealTokenURI",
            "offset": 0,
            "slot": "4",
            "type": "t_string_storage"
          },
          {
            "astId": 7800,
            "contract": "contracts/NFTCollectionContract.sol:NFTCollectionContract",
            "label": "presaleMerkleRoot",
            "offset": 0,
            "slot": "5",
            "type": "t_bytes32"
          },
          {
            "astId": 7802,
            "contract": "contracts/NFTCollectionContract.sol:NFTCollectionContract",
            "label": "royaltiesBps",
            "offset": 0,
            "slot": "6",
            "type": "t_uint256"
          },
          {
            "astId": 7804,
            "contract": "contracts/NFTCollectionContract.sol:NFTCollectionContract",
            "label": "royaltiesAddress",
            "offset": 0,
            "slot": "7",
            "type": "t_address"
          }
        ],
        "numberOfBytes": "256"
      },
      "t_struct(TokenOwnership)8737_storage": {
        "encoding": "inplace",
        "label": "struct ERC721A.TokenOwnership",
        "members": [
          {
            "astId": 8732,
            "contract": "contracts/NFTCollectionContract.sol:NFTCollectionContract",
            "label": "addr",
            "offset": 0,
            "slot": "0",
            "type": "t_address"
          },
          {
            "astId": 8734,
            "contract": "contracts/NFTCollectionContract.sol:NFTCollectionContract",
            "label": "startTimestamp",
            "offset": 20,
            "slot": "0",
            "type": "t_uint64"
          },
          {
            "astId": 8736,
            "contract": "contracts/NFTCollectionContract.sol:NFTCollectionContract",
            "label": "burned",
            "offset": 28,
            "slot": "0",
            "type": "t_bool"
          }
        ],
        "numberOfBytes": "32"
      },
      "t_uint256": {
        "encoding": "inplace",
        "label": "uint256",
        "numberOfBytes": "32"
      },
      "t_uint64": {
        "encoding": "inplace",
        "label": "uint64",
        "numberOfBytes": "8"
      },
      "t_uint8": {
        "encoding": "inplace",
        "label": "uint8",
        "numberOfBytes": "1"
      }
    }
  }
}