{
  "address": "0x85c3c1696DB7Dc05b386dFa3Ca97A42dB323e2E1",
  "abi": [
    {
      "inputs": [
        {
          "internalType": "string",
          "name": "_name",
          "type": "string"
        },
        {
          "internalType": "string",
          "name": "_symbol",
          "type": "string"
        },
        {
          "internalType": "address",
          "name": "owner",
          "type": "address"
        },
        {
          "internalType": "bool",
          "name": "_metadataUpdatable",
          "type": "bool"
        },
        {
          "internalType": "bool",
          "name": "_tokensBurnable",
          "type": "bool"
        },
        {
          "internalType": "bool",
          "name": "_tokensTransferable",
          "type": "bool"
        },
        {
          "internalType": "string",
          "name": "_initBaseURI",
          "type": "string"
        },
        {
          "internalType": "string",
          "name": "_defaultUri",
          "type": "string"
        }
      ],
      "stateMutability": "nonpayable",
      "type": "constructor"
    },
    {
      "anonymous": false,
      "inputs": [
        {
          "indexed": true,
          "internalType": "address",
          "name": "account",
          "type": "address"
        },
        {
          "indexed": true,
          "internalType": "address",
          "name": "operator",
          "type": "address"
        },
        {
          "indexed": false,
          "internalType": "bool",
          "name": "approved",
          "type": "bool"
        }
      ],
      "name": "ApprovalForAll",
      "type": "event"
    },
    {
      "anonymous": false,
      "inputs": [
        {
          "indexed": false,
          "internalType": "string",
          "name": "_value",
          "type": "string"
        },
        {
          "indexed": true,
          "internalType": "uint256",
          "name": "_id",
          "type": "uint256"
        }
      ],
      "name": "PermanentURI",
      "type": "event"
    },
    {
      "anonymous": false,
      "inputs": [],
      "name": "PermanentURIGlobal",
      "type": "event"
    },
    {
      "anonymous": false,
      "inputs": [
        {
          "indexed": true,
          "internalType": "bytes32",
          "name": "role",
          "type": "bytes32"
        },
        {
          "indexed": true,
          "internalType": "bytes32",
          "name": "previousAdminRole",
          "type": "bytes32"
        },
        {
          "indexed": true,
          "internalType": "bytes32",
          "name": "newAdminRole",
          "type": "bytes32"
        }
      ],
      "name": "RoleAdminChanged",
      "type": "event"
    },
    {
      "anonymous": false,
      "inputs": [
        {
          "indexed": true,
          "internalType": "bytes32",
          "name": "role",
          "type": "bytes32"
        },
        {
          "indexed": true,
          "internalType": "address",
          "name": "account",
          "type": "address"
        },
        {
          "indexed": true,
          "internalType": "address",
          "name": "sender",
          "type": "address"
        }
      ],
      "name": "RoleGranted",
      "type": "event"
    },
    {
      "anonymous": false,
      "inputs": [
        {
          "indexed": true,
          "internalType": "bytes32",
          "name": "role",
          "type": "bytes32"
        },
        {
          "indexed": true,
          "internalType": "address",
          "name": "account",
          "type": "address"
        },
        {
          "indexed": true,
          "internalType": "address",
          "name": "sender",
          "type": "address"
        }
      ],
      "name": "RoleRevoked",
      "type": "event"
    },
    {
      "anonymous": false,
      "inputs": [
        {
          "indexed": true,
          "internalType": "address",
          "name": "operator",
          "type": "address"
        },
        {
          "indexed": true,
          "internalType": "address",
          "name": "from",
          "type": "address"
        },
        {
          "indexed": true,
          "internalType": "address",
          "name": "to",
          "type": "address"
        },
        {
          "indexed": false,
          "internalType": "uint256[]",
          "name": "ids",
          "type": "uint256[]"
        },
        {
          "indexed": false,
          "internalType": "uint256[]",
          "name": "values",
          "type": "uint256[]"
        }
      ],
      "name": "TransferBatch",
      "type": "event"
    },
    {
      "anonymous": false,
      "inputs": [
        {
          "indexed": true,
          "internalType": "address",
          "name": "operator",
          "type": "address"
        },
        {
          "indexed": true,
          "internalType": "address",
          "name": "from",
          "type": "address"
        },
        {
          "indexed": true,
          "internalType": "address",
          "name": "to",
          "type": "address"
        },
        {
          "indexed": false,
          "internalType": "uint256",
          "name": "id",
          "type": "uint256"
        },
        {
          "indexed": false,
          "internalType": "uint256",
          "name": "value",
          "type": "uint256"
        }
      ],
      "name": "TransferSingle",
      "type": "event"
    },
    {
      "anonymous": false,
      "inputs": [
        {
          "indexed": false,
          "internalType": "string",
          "name": "value",
          "type": "string"
        },
        {
          "indexed": true,
          "internalType": "uint256",
          "name": "id",
          "type": "uint256"
        }
      ],
      "name": "URI",
      "type": "event"
    },
    {
      "inputs": [],
      "name": "DEFAULT_ADMIN_ROLE",
      "outputs": [
        {
          "internalType": "bytes32",
          "name": "",
          "type": "bytes32"
        }
      ],
      "stateMutability": "view",
      "type": "function"
    },
    {
      "inputs": [],
      "name": "MINTER_ROLE",
      "outputs": [
        {
          "internalType": "bytes32",
          "name": "",
          "type": "bytes32"
        }
      ],
      "stateMutability": "view",
      "type": "function"
    },
    {
      "inputs": [
        {
          "internalType": "address",
          "name": "account",
          "type": "address"
        },
        {
          "internalType": "uint256",
          "name": "id",
          "type": "uint256"
        }
      ],
      "name": "balanceOf",
      "outputs": [
        {
          "internalType": "uint256",
          "name": "",
          "type": "uint256"
        }
      ],
      "stateMutability": "view",
      "type": "function"
    },
    {
      "inputs": [
        {
          "internalType": "address[]",
          "name": "accounts",
          "type": "address[]"
        },
        {
          "internalType": "uint256[]",
          "name": "ids",
          "type": "uint256[]"
        }
      ],
      "name": "balanceOfBatch",
      "outputs": [
        {
          "internalType": "uint256[]",
          "name": "",
          "type": "uint256[]"
        }
      ],
      "stateMutability": "view",
      "type": "function"
    },
    {
      "inputs": [],
      "name": "baseURI",
      "outputs": [
        {
          "internalType": "string",
          "name": "",
          "type": "string"
        }
      ],
      "stateMutability": "view",
      "type": "function"
    },
    {
      "inputs": [
        {
          "internalType": "uint256",
          "name": "id",
          "type": "uint256"
        },
        {
          "internalType": "uint256",
          "name": "value",
          "type": "uint256"
        }
      ],
      "name": "burn",
      "outputs": [],
      "stateMutability": "nonpayable",
      "type": "function"
    },
    {
      "inputs": [
        {
          "internalType": "uint256[]",
          "name": "ids",
          "type": "uint256[]"
        },
        {
          "internalType": "uint256[]",
          "name": "values",
          "type": "uint256[]"
        }
      ],
      "name": "burnBatch",
      "outputs": [],
      "stateMutability": "nonpayable",
      "type": "function"
    },
    {
      "inputs": [
        {
          "internalType": "uint256",
          "name": "",
          "type": "uint256"
        }
      ],
      "name": "freezeTokenUris",
      "outputs": [
        {
          "internalType": "bool",
          "name": "",
          "type": "bool"
        }
      ],
      "stateMutability": "view",
      "type": "function"
    },
    {
      "inputs": [
        {
          "internalType": "bytes32",
          "name": "role",
          "type": "bytes32"
        }
      ],
      "name": "getRoleAdmin",
      "outputs": [
        {
          "internalType": "bytes32",
          "name": "",
          "type": "bytes32"
        }
      ],
      "stateMutability": "view",
      "type": "function"
    },
    {
      "inputs": [
        {
          "internalType": "bytes32",
          "name": "role",
          "type": "bytes32"
        },
        {
          "internalType": "address",
          "name": "account",
          "type": "address"
        }
      ],
      "name": "grantRole",
      "outputs": [],
      "stateMutability": "nonpayable",
      "type": "function"
    },
    {
      "inputs": [
        {
          "internalType": "bytes32",
          "name": "role",
          "type": "bytes32"
        },
        {
          "internalType": "address",
          "name": "account",
          "type": "address"
        }
      ],
      "name": "hasRole",
      "outputs": [
        {
          "internalType": "bool",
          "name": "",
          "type": "bool"
        }
      ],
      "stateMutability": "view",
      "type": "function"
    },
    {
      "inputs": [
        {
          "internalType": "address",
          "name": "account",
          "type": "address"
        },
        {
          "internalType": "address",
          "name": "operator",
          "type": "address"
        }
      ],
      "name": "isApprovedForAll",
      "outputs": [
        {
          "internalType": "bool",
          "name": "",
          "type": "bool"
        }
      ],
      "stateMutability": "view",
      "type": "function"
    },
    {
      "inputs": [],
      "name": "metadataUpdatable",
      "outputs": [
        {
          "internalType": "bool",
          "name": "",
          "type": "bool"
        }
      ],
      "stateMutability": "view",
      "type": "function"
    },
    {
      "inputs": [
        {
          "internalType": "address",
          "name": "account",
          "type": "address"
        },
        {
          "internalType": "uint256",
          "name": "id",
          "type": "uint256"
        },
        {
          "internalType": "uint256",
          "name": "amount",
          "type": "uint256"
        },
        {
          "internalType": "string",
          "name": "uri",
          "type": "string"
        }
      ],
      "name": "mintByOwner",
      "outputs": [],
      "stateMutability": "nonpayable",
      "type": "function"
    },
    {
      "inputs": [
        {
          "internalType": "address[]",
          "name": "to",
          "type": "address[]"
        },
        {
          "internalType": "uint256[]",
          "name": "ids",
          "type": "uint256[]"
        },
        {
          "internalType": "uint256[]",
          "name": "amounts",
          "type": "uint256[]"
        },
        {
          "internalType": "string[]",
          "name": "uris",
          "type": "string[]"
        }
      ],
      "name": "mintByOwnerBatch",
      "outputs": [],
      "stateMutability": "nonpayable",
      "type": "function"
    },
    {
      "inputs": [],
      "name": "name",
      "outputs": [
        {
          "internalType": "string",
          "name": "",
          "type": "string"
        }
      ],
      "stateMutability": "view",
      "type": "function"
    },
    {
      "inputs": [],
      "name": "owner",
      "outputs": [
        {
          "internalType": "address",
          "name": "",
          "type": "address"
        }
      ],
      "stateMutability": "view",
      "type": "function"
    },
    {
      "inputs": [
        {
          "internalType": "bytes32",
          "name": "role",
          "type": "bytes32"
        },
        {
          "internalType": "address",
          "name": "account",
          "type": "address"
        }
      ],
      "name": "renounceRole",
      "outputs": [],
      "stateMutability": "nonpayable",
      "type": "function"
    },
    {
      "inputs": [
        {
          "internalType": "bytes32",
          "name": "role",
          "type": "bytes32"
        },
        {
          "internalType": "address",
          "name": "account",
          "type": "address"
        }
      ],
      "name": "revokeRole",
      "outputs": [],
      "stateMutability": "nonpayable",
      "type": "function"
    },
    {
      "inputs": [
        {
          "internalType": "address",
          "name": "from",
          "type": "address"
        },
        {
          "internalType": "address",
          "name": "to",
          "type": "address"
        },
        {
          "internalType": "uint256[]",
          "name": "ids",
          "type": "uint256[]"
        },
        {
          "internalType": "uint256[]",
          "name": "amounts",
          "type": "uint256[]"
        },
        {
          "internalType": "bytes",
          "name": "data",
          "type": "bytes"
        }
      ],
      "name": "safeBatchTransferFrom",
      "outputs": [],
      "stateMutability": "nonpayable",
      "type": "function"
    },
    {
      "inputs": [
        {
          "internalType": "address",
          "name": "from",
          "type": "address"
        },
        {
          "internalType": "address",
          "name": "to",
          "type": "address"
        },
        {
          "internalType": "uint256",
          "name": "id",
          "type": "uint256"
        },
        {
          "internalType": "uint256",
          "name": "amount",
          "type": "uint256"
        },
        {
          "internalType": "bytes",
          "name": "data",
          "type": "bytes"
        }
      ],
      "name": "safeTransferFrom",
      "outputs": [],
      "stateMutability": "nonpayable",
      "type": "function"
    },
    {
      "inputs": [
        {
          "internalType": "address",
          "name": "operator",
          "type": "address"
        },
        {
          "internalType": "bool",
          "name": "approved",
          "type": "bool"
        }
      ],
      "name": "setApprovalForAll",
      "outputs": [],
      "stateMutability": "nonpayable",
      "type": "function"
    },
    {
      "inputs": [
        {
          "internalType": "string",
          "name": "_newURI",
          "type": "string"
        }
      ],
      "name": "setURI",
      "outputs": [],
      "stateMutability": "nonpayable",
      "type": "function"
    },
    {
      "inputs": [
        {
          "internalType": "bytes4",
          "name": "interfaceId",
          "type": "bytes4"
        }
      ],
      "name": "supportsInterface",
      "outputs": [
        {
          "internalType": "bool",
          "name": "",
          "type": "bool"
        }
      ],
      "stateMutability": "view",
      "type": "function"
    },
    {
      "inputs": [],
      "name": "symbol",
      "outputs": [
        {
          "internalType": "string",
          "name": "",
          "type": "string"
        }
      ],
      "stateMutability": "view",
      "type": "function"
    },
    {
      "inputs": [
        {
          "internalType": "uint256",
          "name": "",
          "type": "uint256"
        }
      ],
      "name": "tokenSupply",
      "outputs": [
        {
          "internalType": "uint256",
          "name": "",
          "type": "uint256"
        }
      ],
      "stateMutability": "view",
      "type": "function"
    },
    {
      "inputs": [],
      "name": "tokensBurnable",
      "outputs": [
        {
          "internalType": "bool",
          "name": "",
          "type": "bool"
        }
      ],
      "stateMutability": "view",
      "type": "function"
    },
    {
      "inputs": [],
      "name": "tokensTransferable",
      "outputs": [
        {
          "internalType": "bool",
          "name": "",
          "type": "bool"
        }
      ],
      "stateMutability": "view",
      "type": "function"
    },
    {
      "inputs": [
        {
          "internalType": "uint256",
          "name": "_id",
          "type": "uint256"
        }
      ],
      "name": "totalSupply",
      "outputs": [
        {
          "internalType": "uint256",
          "name": "",
          "type": "uint256"
        }
      ],
      "stateMutability": "view",
      "type": "function"
    },
    {
      "inputs": [
        {
          "internalType": "address",
          "name": "to",
          "type": "address"
        },
        {
          "internalType": "uint256",
          "name": "id",
          "type": "uint256"
        },
        {
          "internalType": "uint256",
          "name": "amount",
          "type": "uint256"
        }
      ],
      "name": "transferByOwner",
      "outputs": [],
      "stateMutability": "nonpayable",
      "type": "function"
    },
    {
      "inputs": [
        {
          "internalType": "address[]",
          "name": "to",
          "type": "address[]"
        },
        {
          "internalType": "uint256[]",
          "name": "ids",
          "type": "uint256[]"
        },
        {
          "internalType": "uint256[]",
          "name": "amounts",
          "type": "uint256[]"
        }
      ],
      "name": "transferByOwnerBatch",
      "outputs": [],
      "stateMutability": "nonpayable",
      "type": "function"
    },
    {
      "inputs": [
        {
          "internalType": "string",
          "name": "_newBaseURI",
          "type": "string"
        },
        {
          "internalType": "bool",
          "name": "_tokensTransferable",
          "type": "bool"
        },
        {
          "internalType": "bool",
          "name": "_freezeUpdates",
          "type": "bool"
        }
      ],
      "name": "update",
      "outputs": [],
      "stateMutability": "nonpayable",
      "type": "function"
    },
    {
      "inputs": [
        {
          "internalType": "uint256",
          "name": "_tokenId",
          "type": "uint256"
        },
        {
          "internalType": "string",
          "name": "_newUri",
          "type": "string"
        },
        {
          "internalType": "bool",
          "name": "_isFreezeTokenUri",
          "type": "bool"
        }
      ],
      "name": "updateTokenUri",
      "outputs": [],
      "stateMutability": "nonpayable",
      "type": "function"
    },
    {
      "inputs": [
        {
          "internalType": "uint256",
          "name": "_id",
          "type": "uint256"
        }
      ],
      "name": "uri",
      "outputs": [
        {
          "internalType": "string",
          "name": "",
          "type": "string"
        }
      ],
      "stateMutability": "view",
      "type": "function"
    }
  ],
  "transactionHash": "0x5e439bdde917dca8477d537c891cc0b7b59bafa813cb37c2ec579cde31de3d0f",
  "args": [
    "NFTPort",
    "NFT",
    "0x7f7631fA2C3E7b78aD8CEA99E08844440c7626f0",
    true,
    true,
    true,
    "ipfs://baseURI",
    ""
  ],
  "numDeployments": 1,
  "solcInputHash": "4e2d1ff75f938ecf476eed5bb28d701e",
  "bytecode": "0x60806040523480156200001157600080fd5b50604051620037fa380380620037fa833981016040819052620000349162000390565b80620000408162000129565b506200004e60008762000142565b62000069600080516020620037da8339815191528762000142565b62000084600080516020620037da8339815191523362000142565b6004805461ffff60a01b1916600160a01b8715150260ff60a81b191617600160a81b861515021760ff60b01b1916600160b01b851515021790558151620000d3906007906020850190620001ef565b50600480546001600160a01b0319166001600160a01b0388161790558751620001049060059060208b0190620001ef565b5086516200011a9060069060208a0190620001ef565b505050505050505050620004d1565b80516200013e906002906020840190620001ef565b5050565b60008281526003602090815260408083206001600160a01b03851684529091529020546200013e908390839060ff166200013e5760008281526003602090815260408083206001600160a01b03851684529091529020805460ff19166001179055620001ab3390565b6001600160a01b0316816001600160a01b0316837f2f8788117e7eff1d82e926ec794901d17c78024a50270940304540a733656f0d60405160405180910390a45050565b828054620001fd9062000494565b90600052602060002090601f0160209004810192826200022157600085556200026c565b82601f106200023c57805160ff19168380011785556200026c565b828001600101855582156200026c579182015b828111156200026c5782518255916020019190600101906200024f565b506200027a9291506200027e565b5090565b5b808211156200027a57600081556001016200027f565b634e487b7160e01b600052604160045260246000fd5b600082601f830112620002bd57600080fd5b81516001600160401b0380821115620002da57620002da62000295565b604051601f8301601f19908116603f0116810190828211818310171562000305576200030562000295565b816040528381526020925086838588010111156200032257600080fd5b600091505b8382101562000346578582018301518183018401529082019062000327565b83821115620003585760008385830101525b9695505050505050565b80516001600160a01b03811681146200037a57600080fd5b919050565b805180151581146200037a57600080fd5b600080600080600080600080610100898b031215620003ae57600080fd5b88516001600160401b0380821115620003c657600080fd5b620003d48c838d01620002ab565b995060208b0151915080821115620003eb57600080fd5b620003f98c838d01620002ab565b98506200040960408c0162000362565b97506200041960608c016200037f565b96506200042960808c016200037f565b95506200043960a08c016200037f565b945060c08b01519150808211156200045057600080fd5b6200045e8c838d01620002ab565b935060e08b01519150808211156200047557600080fd5b50620004848b828c01620002ab565b9150509295985092959890939650565b600181811c90821680620004a957607f821691505b60208210811415620004cb57634e487b7160e01b600052602260045260246000fd5b50919050565b6132f980620004e16000396000f3fe608060405234801561001057600080fd5b50600436106102055760003560e01c80638d010db31161011a578063bd85b039116100ad578063e3d520721161007c578063e3d520721461048a578063e985e9c51461049e578063f127ed0b146104da578063f242432a146104ed578063ff0a9f511461050057600080fd5b8063bd85b0391461042e578063d53913931461044e578063d547741f14610463578063de374d9d1461047657600080fd5b8063a217fddf116100e9578063a217fddf146103ed578063a22cb465146103f5578063a2f551ec14610408578063b390c0ab1461041b57600080fd5b80638d010db3146103945780638da5cb5b146103b757806391d14854146103d257806395d89b41146103e557600080fd5b80632693ebf21161019d5780634e1273f41161016c5780634e1273f4146103325780634e6f9dd6146103525780636c0360eb146103665780637e712f381461036e57806383ca4b6f1461038157600080fd5b80632693ebf2146102d95780632eb2c2d6146102f95780632f2ff15d1461030c57806336568abe1461031f57600080fd5b80630e89341c116101d95780630e89341c1461027d57806320333b1314610290578063224a1775146102a3578063248a9ca3146102b657600080fd5b8062fdd58e1461020a57806301ffc9a71461023057806302fe53051461025357806306fdde0314610268575b600080fd5b61021d610218366004612435565b610513565b6040519081526020015b60405180910390f35b61024361023e366004612478565b6105aa565b6040519015158152602001610227565b61026661026136600461254a565b6105bb565b005b6102706105e1565b60405161022791906125de565b61027061028b3660046125f1565b61066f565b61026661029e36600461260a565b610794565b6102666102b136600461266a565b6108ae565b61021d6102c43660046125f1565b60009081526003602052604090206001015490565b61021d6102e73660046125f1565b60096020526000908152604090205481565b610266610307366004612731565b610921565b61026661031a3660046127da565b6109b8565b61026661032d3660046127da565b6109e3565b610345610340366004612873565b610a5d565b6040516102279190612911565b60045461024390600160a01b900460ff1681565b610270610b86565b61026661037c366004612924565b610b93565b61026661038f3660046129ab565b610c69565b6102436103a23660046125f1565b60086020526000908152604090205460ff1681565b6004546040516001600160a01b039091168152602001610227565b6102436103e03660046127da565b610d6b565b610270610d96565b61021d600081565b6102666104033660046129f1565b610da3565b610266610416366004612a1b565b610dae565b610266610429366004612a71565b6110dc565b61021d61043c3660046125f1565b60009081526009602052604090205490565b61021d6000805160206132a483398151915281565b6102666104713660046127da565b61118d565b60045461024390600160b01b900460ff1681565b60045461024390600160a81b900460ff1681565b6102436104ac366004612a93565b6001600160a01b03918216600090815260016020908152604080832093909416825291909152205460ff1690565b6102666104e8366004612abd565b6111b3565b6102666104fb366004612b11565b61128e565b61026661050e366004612b75565b611315565b60006001600160a01b0383166105845760405162461bcd60e51b815260206004820152602b60248201527f455243313135353a2062616c616e636520717565727920666f7220746865207a60448201526a65726f206164647265737360a81b60648201526084015b60405180910390fd5b506000908152602081815260408083206001600160a01b03949094168352929052205490565b60006105b582611686565b92915050565b6000805160206132a48339815191526105d481336116d6565b6105dd8261173a565b5050565b600580546105ee90612c99565b80601f016020809104026020016040519081016040528092919081815260200182805461061a90612c99565b80156106675780601f1061063c57610100808354040283529160200191610667565b820191906000526020600020905b81548152906001019060200180831161064a57829003601f168201915b505050505081565b6000818152600a602052604081208054606092919061068d90612c99565b90501115610786576000600780546106a490612c99565b905011156106e8576007600a60008481526020019081526020016000206040516020016106d2929190612d43565b6040516020818303038152906040529050919050565b6000828152600a60205260409020805461070190612c99565b80601f016020809104026020016040519081016040528092919081815260200182805461072d90612c99565b801561077a5780601f1061074f5761010080835404028352916020019161077a565b820191906000526020600020905b81548152906001019060200180831161075d57829003601f168201915b50505050509050919050565b6105b58261174d565b919050565b6000805160206132a48339815191526107ad81336116d6565b600084815260096020526040902054156108095760405162461bcd60e51b815260206004820152601960248201527f4e46543a20746f6b656e20616c7265616479206d696e74656400000000000000604482015260640161057b565b815115610869576000848152600a60209081526040909120835161082f92850190612385565b50837f6bb7ff708619ba0610cba295a58592e0451dee2622938c8755667688daf3529b8360405161086091906125de565b60405180910390a25b6108848585856040518060200160405280600081525061175c565b600084815260096020526040812080548592906108a2908490612d6e565b90915550505050505050565b6000805160206132a48339815191526108c781336116d6565b600454600160b01b900460ff166108f05760405162461bcd60e51b815260040161057b90612d86565b60045460408051602081019091526000815261091b916001600160a01b031690869086908690611866565b50505050565b6001600160a01b03851633148061093d575061093d85336104ac565b6109a45760405162461bcd60e51b815260206004820152603260248201527f455243313135353a207472616e736665722063616c6c6572206973206e6f74206044820152711bdddb995c881b9bdc88185c1c1c9bdd995960721b606482015260840161057b565b6109b18585858585611983565b5050505050565b6000828152600360205260409020600101546109d481336116d6565b6109de8383611b17565b505050565b6001600160a01b0381163314610a535760405162461bcd60e51b815260206004820152602f60248201527f416363657373436f6e74726f6c3a2063616e206f6e6c792072656e6f756e636560448201526e103937b632b9903337b91039b2b63360891b606482015260840161057b565b6105dd8282611b9d565b60608151835114610ac25760405162461bcd60e51b815260206004820152602960248201527f455243313135353a206163636f756e747320616e6420696473206c656e677468604482015268040dad2e6dac2e8c6d60bb1b606482015260840161057b565b600083516001600160401b03811115610add57610add612495565b604051908082528060200260200182016040528015610b06578160200160208202803683370190505b50905060005b8451811015610b7e57610b51858281518110610b2a57610b2a612dca565b6020026020010151858381518110610b4457610b44612dca565b6020026020010151610513565b828281518110610b6357610b63612dca565b6020908102919091010152610b7781612de0565b9050610b0c565b509392505050565b600780546105ee90612c99565b6000805160206132a4833981519152610bac81336116d6565b600454600160b01b900460ff16610bd55760405162461bcd60e51b815260040161057b90612d86565b60005b83518110156109b1576004548551610c57916001600160a01b031690879084908110610c0657610c06612dca565b6020026020010151868481518110610c2057610c20612dca565b6020026020010151868581518110610c3a57610c3a612dca565b602002602001015160405180602001604052806000815250611866565b80610c6181612de0565b915050610bd8565b6000805160206132a4833981519152610c8281336116d6565b600454600160a81b900460ff16610cdb5760405162461bcd60e51b815260206004820152601f60248201527f4e46543a20746f6b656e73206275726e696e672069732064697361626c656400604482015260640161057b565b600454610cf2906001600160a01b03168484611c04565b60005b835181101561091b57828181518110610d1057610d10612dca565b602002602001015160096000868481518110610d2e57610d2e612dca565b602002602001015181526020019081526020016000206000828254610d539190612dfb565b90915550819050610d6381612de0565b915050610cf5565b60009182526003602090815260408084206001600160a01b0393909316845291905290205460ff1690565b600680546105ee90612c99565b6105dd338383611d80565b6000805160206132a4833981519152610dc781336116d6565b600084815260096020526040902054610e365760405162461bcd60e51b815260206004820152602b60248201527f4e46543a207570646174652055524920717565727920666f72206e6f6e65786960448201526a39ba32b73a103a37b5b2b760a91b606482015260840161057b565b600454600160a01b900460ff16610e9b5760405162461bcd60e51b815260206004820152602360248201527f4e46543a20546f6b656e2075726973206172652066726f7a656e20676c6f62616044820152626c6c7960e81b606482015260840161057b565b60008481526008602052604090205460ff16151560011415610ef65760405162461bcd60e51b815260206004820152601460248201527327232a1d102a37b5b2b71034b990333937bd32b760611b604482015260640161057b565b8180610f025750825115155b610f6d5760405162461bcd60e51b815260206004820152603660248201527f4e46543a20456974686572205f6e6577557269206f72205f6973467265657a65604482015275151bdad95b955c9a4f5d1c9d59481c995c5d5a5c995960521b606482015260840161057b565b8251156110735782604051602001610f859190612e12565b60408051601f1981840301815282825280516020918201206000888152600a9092529190209091610fb69190612e2e565b6040518091039020141561101a5760405162461bcd60e51b815260206004820152602560248201527f4e46543a204e657720746f6b656e205552492069732073616d6520617320757060448201526419185d195960da1b606482015260840161057b565b6000848152600a60209081526040909120845161103992860190612385565b50837f6bb7ff708619ba0610cba295a58592e0451dee2622938c8755667688daf3529b8460405161106a91906125de565b60405180910390a25b811561091b576000848152600860209081526040808320805460ff19166001179055600a90915290819020905185917fa109ba539900bf1b633f956d63c96fc89b814c7287f7aa50a9216d0b55657207916110ce9190612e3a565b60405180910390a250505050565b6000805160206132a48339815191526110f581336116d6565b600454600160a81b900460ff1661114e5760405162461bcd60e51b815260206004820152601f60248201527f4e46543a20746f6b656e73206275726e696e672069732064697361626c656400604482015260640161057b565b600454611165906001600160a01b03168484611e61565b60008381526009602052604081208054849290611183908490612dfb565b9091555050505050565b6000828152600360205260409020600101546111a981336116d6565b6109de8383611b9d565b6000805160206132a48339815191526111cc81336116d6565b600454600160a01b900460ff166112255760405162461bcd60e51b815260206004820181905260248201527f4e46543a20436f6e74726163742075706461746573206172652066726f7a656e604482015260640161057b565b8351611238906007906020870190612385565b508261124c576004805460ff60b01b191690555b811561091b576004805460ff60a01b191690556040517fb59f45df38ec0d34114b1248c38a29cdbccbf3e745ae3ef310ac66199a4ceccf90600090a150505050565b6001600160a01b0385163314806112aa57506112aa85336104ac565b6113085760405162461bcd60e51b815260206004820152602960248201527f455243313135353a2063616c6c6572206973206e6f74206f776e6572206e6f7260448201526808185c1c1c9bdd995960ba1b606482015260840161057b565b6109b18585858585611866565b6000805160206132a483398151915261132e81336116d6565b60005b845181101561167e5761136b85828151811061134f5761134f612dca565b6020026020010151600090815260096020526040902054151590565b156113c65760405162461bcd60e51b815260206004820152602560248201527f4e46543a206f6e65206f6620746f6b656e732061726520616c7265616479206d6044820152641a5b9d195960da1b606482015260840161057b565b8581815181106113d8576113d8612dca565b60200260200101516001600160a01b03168682815181106113fb576113fb612dca565b60200260200101516001600160a01b0316146114595760405162461bcd60e51b815260206004820181905260248201527f4e46543a206f6e65206f662061646472657373657320697320696e76616c6964604482015260640161057b565b600084828151811061146d5761146d612dca565b6020026020010151116114c25760405162461bcd60e51b815260206004820152601c60248201527f4e46543a20616c6c20616d6f756e7473206d757374206265203e203000000000604482015260640161057b565b8381815181106114d4576114d4612dca565b6020026020010151600960008784815181106114f2576114f2612dca565b6020026020010151815260200190815260200160002060008282546115179190612d6e565b92505081905550600083828151811061153257611532612dca565b60200260200101515111156116065782818151811061155357611553612dca565b6020026020010151600a600087848151811061157157611571612dca565b60200260200101518152602001908152602001600020908051906020019061159a929190612385565b508481815181106115ad576115ad612dca565b60200260200101517f6bb7ff708619ba0610cba295a58592e0451dee2622938c8755667688daf3529b8483815181106115e8576115e8612dca565b60200260200101516040516115fd91906125de565b60405180910390a25b61166c86828151811061161b5761161b612dca565b602002602001015186838151811061163557611635612dca565b602002602001015186848151811061164f5761164f612dca565b60200260200101516040518060200160405280600081525061175c565b8061167681612de0565b915050611331565b505050505050565b60006001600160e01b03198216636cdb3d1360e11b14806116b757506001600160e01b031982166303a24d0760e21b145b806105b557506301ffc9a760e01b6001600160e01b03198316146105b5565b6116e08282610d6b565b6105dd576116f8816001600160a01b03166014611f63565b611703836020611f63565b604051602001611714929190612ebf565b60408051601f198184030181529082905262461bcd60e51b825261057b916004016125de565b80516105dd906002906020840190612385565b60606002805461070190612c99565b6001600160a01b0384166117bc5760405162461bcd60e51b815260206004820152602160248201527f455243313135353a206d696e7420746f20746865207a65726f206164647265736044820152607360f81b606482015260840161057b565b336117d6816000876117cd88612105565b6109b188612105565b6000848152602081815260408083206001600160a01b038916845290915281208054859290611806908490612d6e565b909155505060408051858152602081018590526001600160a01b0380881692600092918516917fc3d58168c5ae7397731d063d5bbf3d657854427343f4c083240f7aacaa2d0f62910160405180910390a46109b181600087878787612150565b6001600160a01b03841661188c5760405162461bcd60e51b815260040161057b90612f34565b3361189c8187876117cd88612105565b6000848152602081815260408083206001600160a01b038a168452909152902054838110156118dd5760405162461bcd60e51b815260040161057b90612f79565b6000858152602081815260408083206001600160a01b038b811685529252808320878503905590881682528120805486929061191a908490612d6e565b909155505060408051868152602081018690526001600160a01b03808916928a821692918616917fc3d58168c5ae7397731d063d5bbf3d657854427343f4c083240f7aacaa2d0f62910160405180910390a461197a828888888888612150565b50505050505050565b81518351146119a45760405162461bcd60e51b815260040161057b90612fc3565b6001600160a01b0384166119ca5760405162461bcd60e51b815260040161057b90612f34565b3360005b8451811015611ab15760008582815181106119eb576119eb612dca565b602002602001015190506000858381518110611a0957611a09612dca565b602090810291909101810151600084815280835260408082206001600160a01b038e168352909352919091205490915081811015611a595760405162461bcd60e51b815260040161057b90612f79565b6000838152602081815260408083206001600160a01b038e8116855292528083208585039055908b16825281208054849290611a96908490612d6e565b9250508190555050505080611aaa90612de0565b90506119ce565b50846001600160a01b0316866001600160a01b0316826001600160a01b03167f4a39dc06d4c0dbc64b70af90fd698a233a518aa5d07e595d983b8c0526c8f7fb8787604051611b0192919061300b565b60405180910390a461167e8187878787876122bb565b611b218282610d6b565b6105dd5760008281526003602090815260408083206001600160a01b03851684529091529020805460ff19166001179055611b593390565b6001600160a01b0316816001600160a01b0316837f2f8788117e7eff1d82e926ec794901d17c78024a50270940304540a733656f0d60405160405180910390a45050565b611ba78282610d6b565b156105dd5760008281526003602090815260408083206001600160a01b0385168085529252808320805460ff1916905551339285917ff6391f5c32d9c69d2a47ea670b442974b53935d1edc7fd64eb21e047a839171b9190a45050565b6001600160a01b038316611c2a5760405162461bcd60e51b815260040161057b90613039565b8051825114611c4b5760405162461bcd60e51b815260040161057b90612fc3565b604080516020810190915260009081905233905b8351811015611d21576000848281518110611c7c57611c7c612dca565b602002602001015190506000848381518110611c9a57611c9a612dca565b602090810291909101810151600084815280835260408082206001600160a01b038c168352909352919091205490915081811015611cea5760405162461bcd60e51b815260040161057b9061307c565b6000928352602083815260408085206001600160a01b038b1686529091529092209103905580611d1981612de0565b915050611c5f565b5060006001600160a01b0316846001600160a01b0316826001600160a01b03167f4a39dc06d4c0dbc64b70af90fd698a233a518aa5d07e595d983b8c0526c8f7fb8686604051611d7292919061300b565b60405180910390a450505050565b816001600160a01b0316836001600160a01b03161415611df45760405162461bcd60e51b815260206004820152602960248201527f455243313135353a2073657474696e6720617070726f76616c20737461747573604482015268103337b91039b2b63360b91b606482015260840161057b565b6001600160a01b03838116600081815260016020908152604080832094871680845294825291829020805460ff191686151590811790915591519182527f17307eab39ab6107e8899845ad3d59bd9653f200f220920489ca2b5937696c31910160405180910390a3505050565b6001600160a01b038316611e875760405162461bcd60e51b815260040161057b90613039565b33611eb781856000611e9887612105565b611ea187612105565b5050604080516020810190915260009052505050565b6000838152602081815260408083206001600160a01b038816845290915290205482811015611ef85760405162461bcd60e51b815260040161057b9061307c565b6000848152602081815260408083206001600160a01b03898116808652918452828520888703905582518981529384018890529092908616917fc3d58168c5ae7397731d063d5bbf3d657854427343f4c083240f7aacaa2d0f62910160405180910390a45050505050565b60606000611f728360026130c0565b611f7d906002612d6e565b6001600160401b03811115611f9457611f94612495565b6040519080825280601f01601f191660200182016040528015611fbe576020820181803683370190505b509050600360fc1b81600081518110611fd957611fd9612dca565b60200101906001600160f81b031916908160001a905350600f60fb1b8160018151811061200857612008612dca565b60200101906001600160f81b031916908160001a905350600061202c8460026130c0565b612037906001612d6e565b90505b60018111156120af576f181899199a1a9b1b9c1cb0b131b232b360811b85600f166010811061206b5761206b612dca565b1a60f81b82828151811061208157612081612dca565b60200101906001600160f81b031916908160001a90535060049490941c936120a8816130df565b905061203a565b5083156120fe5760405162461bcd60e51b815260206004820181905260248201527f537472696e67733a20686578206c656e67746820696e73756666696369656e74604482015260640161057b565b9392505050565b6040805160018082528183019092526060916000919060208083019080368337019050509050828160008151811061213f5761213f612dca565b602090810291909101015292915050565b6001600160a01b0384163b1561167e5760405163f23a6e6160e01b81526001600160a01b0385169063f23a6e619061219490899089908890889088906004016130f6565b602060405180830381600087803b1580156121ae57600080fd5b505af19250505080156121de575060408051601f3d908101601f191682019092526121db9181019061313b565b60015b61228b576121ea613158565b806308c379a0141561222457506121ff613174565b8061220a5750612226565b8060405162461bcd60e51b815260040161057b91906125de565b505b60405162461bcd60e51b815260206004820152603460248201527f455243313135353a207472616e7366657220746f206e6f6e20455243313135356044820152732932b1b2b4bb32b91034b6b83632b6b2b73a32b960611b606482015260840161057b565b6001600160e01b0319811663f23a6e6160e01b1461197a5760405162461bcd60e51b815260040161057b906131fd565b6001600160a01b0384163b1561167e5760405163bc197c8160e01b81526001600160a01b0385169063bc197c81906122ff9089908990889088908890600401613245565b602060405180830381600087803b15801561231957600080fd5b505af1925050508015612349575060408051601f3d908101601f191682019092526123469181019061313b565b60015b612355576121ea613158565b6001600160e01b0319811663bc197c8160e01b1461197a5760405162461bcd60e51b815260040161057b906131fd565b82805461239190612c99565b90600052602060002090601f0160209004810192826123b357600085556123f9565b82601f106123cc57805160ff19168380011785556123f9565b828001600101855582156123f9579182015b828111156123f95782518255916020019190600101906123de565b50612405929150612409565b5090565b5b80821115612405576000815560010161240a565b80356001600160a01b038116811461078f57600080fd5b6000806040838503121561244857600080fd5b6124518361241e565b946020939093013593505050565b6001600160e01b03198116811461247557600080fd5b50565b60006020828403121561248a57600080fd5b81356120fe8161245f565b634e487b7160e01b600052604160045260246000fd5b601f8201601f191681016001600160401b03811182821017156124d0576124d0612495565b6040525050565b600082601f8301126124e857600080fd5b81356001600160401b0381111561250157612501612495565b604051612518601f8301601f1916602001826124ab565b81815284602083860101111561252d57600080fd5b816020850160208301376000918101602001919091529392505050565b60006020828403121561255c57600080fd5b81356001600160401b0381111561257257600080fd5b61257e848285016124d7565b949350505050565b60005b838110156125a1578181015183820152602001612589565b8381111561091b5750506000910152565b600081518084526125ca816020860160208601612586565b601f01601f19169290920160200192915050565b6020815260006120fe60208301846125b2565b60006020828403121561260357600080fd5b5035919050565b6000806000806080858703121561262057600080fd5b6126298561241e565b9350602085013592506040850135915060608501356001600160401b0381111561265257600080fd5b61265e878288016124d7565b91505092959194509250565b60008060006060848603121561267f57600080fd5b6126888461241e565b95602085013595506040909401359392505050565b60006001600160401b038211156126b6576126b6612495565b5060051b60200190565b600082601f8301126126d157600080fd5b813560206126de8261269d565b6040516126eb82826124ab565b83815260059390931b850182019282810191508684111561270b57600080fd5b8286015b84811015612726578035835291830191830161270f565b509695505050505050565b600080600080600060a0868803121561274957600080fd5b6127528661241e565b94506127606020870161241e565b935060408601356001600160401b038082111561277c57600080fd5b61278889838a016126c0565b9450606088013591508082111561279e57600080fd5b6127aa89838a016126c0565b935060808801359150808211156127c057600080fd5b506127cd888289016124d7565b9150509295509295909350565b600080604083850312156127ed57600080fd5b823591506127fd6020840161241e565b90509250929050565b600082601f83011261281757600080fd5b813560206128248261269d565b60405161283182826124ab565b83815260059390931b850182019282810191508684111561285157600080fd5b8286015b84811015612726576128668161241e565b8352918301918301612855565b6000806040838503121561288657600080fd5b82356001600160401b038082111561289d57600080fd5b6128a986838701612806565b935060208501359150808211156128bf57600080fd5b506128cc858286016126c0565b9150509250929050565b600081518084526020808501945080840160005b83811015612906578151875295820195908201906001016128ea565b509495945050505050565b6020815260006120fe60208301846128d6565b60008060006060848603121561293957600080fd5b83356001600160401b038082111561295057600080fd5b61295c87838801612806565b9450602086013591508082111561297257600080fd5b61297e878388016126c0565b9350604086013591508082111561299457600080fd5b506129a1868287016126c0565b9150509250925092565b600080604083850312156129be57600080fd5b82356001600160401b03808211156129d557600080fd5b6128a9868387016126c0565b8035801515811461078f57600080fd5b60008060408385031215612a0457600080fd5b612a0d8361241e565b91506127fd602084016129e1565b600080600060608486031215612a3057600080fd5b8335925060208401356001600160401b03811115612a4d57600080fd5b612a59868287016124d7565b925050612a68604085016129e1565b90509250925092565b60008060408385031215612a8457600080fd5b50508035926020909101359150565b60008060408385031215612aa657600080fd5b612aaf8361241e565b91506127fd6020840161241e565b600080600060608486031215612ad257600080fd5b83356001600160401b03811115612ae857600080fd5b612af4868287016124d7565b935050612b03602085016129e1565b9150612a68604085016129e1565b600080600080600060a08688031215612b2957600080fd5b612b328661241e565b9450612b406020870161241e565b9350604086013592506060860135915060808601356001600160401b03811115612b6957600080fd5b6127cd888289016124d7565b60008060008060808587031215612b8b57600080fd5b84356001600160401b0380821115612ba257600080fd5b612bae88838901612806565b9550602091508187013581811115612bc557600080fd5b612bd189828a016126c0565b955050604087013581811115612be657600080fd5b612bf289828a016126c0565b945050606087013581811115612c0757600080fd5b8701601f81018913612c1857600080fd5b8035612c238161269d565b604051612c3082826124ab565b82815260059290921b830185019185810191508b831115612c5057600080fd5b8584015b83811015612c8857803586811115612c6c5760008081fd5b612c7a8e89838901016124d7565b845250918601918601612c54565b50989b979a50959850505050505050565b600181811c90821680612cad57607f821691505b60208210811415612cce57634e487b7160e01b600052602260045260246000fd5b50919050565b60008154612ce181612c99565b60018281168015612cf95760018114612d0a57612d39565b60ff19841687528287019450612d39565b8560005260208060002060005b85811015612d305781548a820152908401908201612d17565b50505082870194505b5050505092915050565b600061257e612d528386612cd4565b84612cd4565b634e487b7160e01b600052601160045260246000fd5b60008219821115612d8157612d81612d58565b500190565b60208082526024908201527f4e46543a205472616e7366657273206279206f776e6572206172652064697361604082015263189b195960e21b606082015260800190565b634e487b7160e01b600052603260045260246000fd5b6000600019821415612df457612df4612d58565b5060010190565b600082821015612e0d57612e0d612d58565b500390565b60008251612e24818460208701612586565b9190910192915050565b60006120fe8284612cd4565b6000602080835260008454612e4e81612c99565b80848701526040600180841660008114612e6f5760018114612e8357612eb1565b60ff19851689840152606089019550612eb1565b896000528660002060005b85811015612ea95781548b8201860152908301908801612e8e565b8a0184019650505b509398975050505050505050565b7f416363657373436f6e74726f6c3a206163636f756e7420000000000000000000815260008351612ef7816017850160208801612586565b7001034b99036b4b9b9b4b733903937b6329607d1b6017918401918201528351612f28816028840160208801612586565b01602801949350505050565b60208082526025908201527f455243313135353a207472616e7366657220746f20746865207a65726f206164604082015264647265737360d81b606082015260800190565b6020808252602a908201527f455243313135353a20696e73756666696369656e742062616c616e636520666f60408201526939103a3930b739b332b960b11b606082015260800190565b60208082526028908201527f455243313135353a2069647320616e6420616d6f756e7473206c656e677468206040820152670dad2e6dac2e8c6d60c31b606082015260800190565b60408152600061301e60408301856128d6565b828103602084015261303081856128d6565b95945050505050565b60208082526023908201527f455243313135353a206275726e2066726f6d20746865207a65726f206164647260408201526265737360e81b606082015260800190565b60208082526024908201527f455243313135353a206275726e20616d6f756e7420657863656564732062616c604082015263616e636560e01b606082015260800190565b60008160001904831182151516156130da576130da612d58565b500290565b6000816130ee576130ee612d58565b506000190190565b6001600160a01b03868116825285166020820152604081018490526060810183905260a060808201819052600090613130908301846125b2565b979650505050505050565b60006020828403121561314d57600080fd5b81516120fe8161245f565b600060033d11156131715760046000803e5060005160e01c5b90565b600060443d10156131825790565b6040516003193d81016004833e81513d6001600160401b0381602484011181841117156131b157505050505090565b82850191508151818111156131c95750505050505090565b843d87010160208285010111156131e35750505050505090565b6131f2602082860101876124ab565b509095945050505050565b60208082526028908201527f455243313135353a204552433131353552656365697665722072656a656374656040820152676420746f6b656e7360c01b606082015260800190565b6001600160a01b0386811682528516602082015260a060408201819052600090613271908301866128d6565b828103606084015261328381866128d6565b9050828103608084015261329781856125b2565b9897505050505050505056fe9f2df0fed2c77648de5860a4cc508cd0818c85b8b8a1ab4ceeef8d981c8956a6a26469706673582212204fe416b897b3fb2a7bcadbea04f37013b1614bd1ef496ac3e14066b33c5c787f64736f6c634300080900339f2df0fed2c77648de5860a4cc508cd0818c85b8b8a1ab4ceeef8d981c8956a6",
  "devdoc": {
    "kind": "dev",
    "methods": {
      "balanceOf(address,uint256)": {
        "details": "See {IERC1155-balanceOf}. Requirements: - `account` cannot be the zero address."
      },
      "balanceOfBatch(address[],uint256[])": {
        "details": "See {IERC1155-balanceOfBatch}. Requirements: - `accounts` and `ids` must have the same length."
      },
      "getRoleAdmin(bytes32)": {
        "details": "Returns the admin role that controls `role`. See {grantRole} and {revokeRole}. To change a role's admin, use {_setRoleAdmin}."
      },
      "grantRole(bytes32,address)": {
        "details": "Grants `role` to `account`. If `account` had not been already granted `role`, emits a {RoleGranted} event. Requirements: - the caller must have ``role``'s admin role."
      },
      "hasRole(bytes32,address)": {
        "details": "Returns `true` if `account` has been granted `role`."
      },
      "isApprovedForAll(address,address)": {
        "details": "See {IERC1155-isApprovedForAll}."
      },
      "renounceRole(bytes32,address)": {
        "details": "Revokes `role` from the calling account. Roles are often managed via {grantRole} and {revokeRole}: this function's purpose is to provide a mechanism for accounts to lose their privileges if they are compromised (such as when a trusted device is misplaced). If the calling account had been revoked `role`, emits a {RoleRevoked} event. Requirements: - the caller must be `account`."
      },
      "revokeRole(bytes32,address)": {
        "details": "Revokes `role` from `account`. If `account` had been granted `role`, emits a {RoleRevoked} event. Requirements: - the caller must have ``role``'s admin role."
      },
      "safeBatchTransferFrom(address,address,uint256[],uint256[],bytes)": {
        "details": "See {IERC1155-safeBatchTransferFrom}."
      },
      "safeTransferFrom(address,address,uint256,uint256,bytes)": {
        "details": "See {IERC1155-safeTransferFrom}."
      },
      "setApprovalForAll(address,bool)": {
        "details": "See {IERC1155-setApprovalForAll}."
      }
    },
    "version": 1
  },
  "userdoc": {
    "kind": "user",
    "methods": {},
    "version": 1
  },
  "storageLayout": {
    "storage": [
      {
        "astId": 608,
        "contract": "contracts/products/8_custom_erc1155.sol:CustomERC1155",
        "label": "_balances",
        "offset": 0,
        "slot": "0",
        "type": "t_mapping(t_uint256,t_mapping(t_address,t_uint256))"
      },
      {
        "astId": 614,
        "contract": "contracts/products/8_custom_erc1155.sol:CustomERC1155",
        "label": "_operatorApprovals",
        "offset": 0,
        "slot": "1",
        "type": "t_mapping(t_address,t_mapping(t_address,t_bool))"
      },
      {
        "astId": 616,
        "contract": "contracts/products/8_custom_erc1155.sol:CustomERC1155",
        "label": "_uri",
        "offset": 0,
        "slot": "2",
        "type": "t_string_storage"
      },
      {
        "astId": 24,
        "contract": "contracts/products/8_custom_erc1155.sol:CustomERC1155",
        "label": "_roles",
        "offset": 0,
        "slot": "3",
        "type": "t_mapping(t_bytes32,t_struct(RoleData)19_storage)"
      },
      {
        "astId": 9975,
        "contract": "contracts/products/8_custom_erc1155.sol:CustomERC1155",
        "label": "_owner",
        "offset": 0,
        "slot": "4",
        "type": "t_address"
      },
      {
        "astId": 9977,
        "contract": "contracts/products/8_custom_erc1155.sol:CustomERC1155",
        "label": "metadataUpdatable",
        "offset": 20,
        "slot": "4",
        "type": "t_bool"
      },
      {
        "astId": 9979,
        "contract": "contracts/products/8_custom_erc1155.sol:CustomERC1155",
        "label": "tokensBurnable",
        "offset": 21,
        "slot": "4",
        "type": "t_bool"
      },
      {
        "astId": 9981,
        "contract": "contracts/products/8_custom_erc1155.sol:CustomERC1155",
        "label": "tokensTransferable",
        "offset": 22,
        "slot": "4",
        "type": "t_bool"
      },
      {
        "astId": 9983,
        "contract": "contracts/products/8_custom_erc1155.sol:CustomERC1155",
        "label": "name",
        "offset": 0,
        "slot": "5",
        "type": "t_string_storage"
      },
      {
        "astId": 9985,
        "contract": "contracts/products/8_custom_erc1155.sol:CustomERC1155",
        "label": "symbol",
        "offset": 0,
        "slot": "6",
        "type": "t_string_storage"
      },
      {
        "astId": 9987,
        "contract": "contracts/products/8_custom_erc1155.sol:CustomERC1155",
        "label": "baseURI",
        "offset": 0,
        "slot": "7",
        "type": "t_string_storage"
      },
      {
        "astId": 9991,
        "contract": "contracts/products/8_custom_erc1155.sol:CustomERC1155",
        "label": "freezeTokenUris",
        "offset": 0,
        "slot": "8",
        "type": "t_mapping(t_uint256,t_bool)"
      },
      {
        "astId": 9995,
        "contract": "contracts/products/8_custom_erc1155.sol:CustomERC1155",
        "label": "tokenSupply",
        "offset": 0,
        "slot": "9",
        "type": "t_mapping(t_uint256,t_uint256)"
      },
      {
        "astId": 9999,
        "contract": "contracts/products/8_custom_erc1155.sol:CustomERC1155",
        "label": "_tokenURIs",
        "offset": 0,
        "slot": "10",
        "type": "t_mapping(t_uint256,t_string_storage)"
      }
    ],
    "types": {
      "t_address": {
        "encoding": "inplace",
        "label": "address",
        "numberOfBytes": "20"
      },
      "t_bool": {
        "encoding": "inplace",
        "label": "bool",
        "numberOfBytes": "1"
      },
      "t_bytes32": {
        "encoding": "inplace",
        "label": "bytes32",
        "numberOfBytes": "32"
      },
      "t_mapping(t_address,t_bool)": {
        "encoding": "mapping",
        "key": "t_address",
        "label": "mapping(address => bool)",
        "numberOfBytes": "32",
        "value": "t_bool"
      },
      "t_mapping(t_address,t_mapping(t_address,t_bool))": {
        "encoding": "mapping",
        "key": "t_address",
        "label": "mapping(address => mapping(address => bool))",
        "numberOfBytes": "32",
        "value": "t_mapping(t_address,t_bool)"
      },
      "t_mapping(t_address,t_uint256)": {
        "encoding": "mapping",
        "key": "t_address",
        "label": "mapping(address => uint256)",
        "numberOfBytes": "32",
        "value": "t_uint256"
      },
      "t_mapping(t_bytes32,t_struct(RoleData)19_storage)": {
        "encoding": "mapping",
        "key": "t_bytes32",
        "label": "mapping(bytes32 => struct AccessControl.RoleData)",
        "numberOfBytes": "32",
        "value": "t_struct(RoleData)19_storage"
      },
      "t_mapping(t_uint256,t_bool)": {
        "encoding": "mapping",
        "key": "t_uint256",
        "label": "mapping(uint256 => bool)",
        "numberOfBytes": "32",
        "value": "t_bool"
      },
      "t_mapping(t_uint256,t_mapping(t_address,t_uint256))": {
        "encoding": "mapping",
        "key": "t_uint256",
        "label": "mapping(uint256 => mapping(address => uint256))",
        "numberOfBytes": "32",
        "value": "t_mapping(t_address,t_uint256)"
      },
      "t_mapping(t_uint256,t_string_storage)": {
        "encoding": "mapping",
        "key": "t_uint256",
        "label": "mapping(uint256 => string)",
        "numberOfBytes": "32",
        "value": "t_string_storage"
      },
      "t_mapping(t_uint256,t_uint256)": {
        "encoding": "mapping",
        "key": "t_uint256",
        "label": "mapping(uint256 => uint256)",
        "numberOfBytes": "32",
        "value": "t_uint256"
      },
      "t_string_storage": {
        "encoding": "bytes",
        "label": "string",
        "numberOfBytes": "32"
      },
      "t_struct(RoleData)19_storage": {
        "encoding": "inplace",
        "label": "struct AccessControl.RoleData",
        "members": [
          {
            "astId": 16,
            "contract": "contracts/products/8_custom_erc1155.sol:CustomERC1155",
            "label": "members",
            "offset": 0,
            "slot": "0",
            "type": "t_mapping(t_address,t_bool)"
          },
          {
            "astId": 18,
            "contract": "contracts/products/8_custom_erc1155.sol:CustomERC1155",
            "label": "adminRole",
            "offset": 0,
            "slot": "1",
            "type": "t_bytes32"
          }
        ],
        "numberOfBytes": "64"
      },
      "t_uint256": {
        "encoding": "inplace",
        "label": "uint256",
        "numberOfBytes": "32"
      }
    }
  }
}