{
  "address": "0x9DdC6aB972a08334a63F721cd3cF249D6cBdE493",
  "abi": [
    {
      "inputs": [
        {
          "internalType": "string",
          "name": "_name",
          "type": "string"
        },
        {
          "internalType": "string",
          "name": "_symbol",
          "type": "string"
        },
        {
          "internalType": "address",
          "name": "owner",
          "type": "address"
        }
      ],
      "stateMutability": "nonpayable",
      "type": "constructor"
    },
    {
      "anonymous": false,
      "inputs": [
        {
          "indexed": true,
          "internalType": "address",
          "name": "owner",
          "type": "address"
        },
        {
          "indexed": true,
          "internalType": "address",
          "name": "approved",
          "type": "address"
        },
        {
          "indexed": true,
          "internalType": "uint256",
          "name": "tokenId",
          "type": "uint256"
        }
      ],
      "name": "Approval",
      "type": "event"
    },
    {
      "anonymous": false,
      "inputs": [
        {
          "indexed": true,
          "internalType": "address",
          "name": "owner",
          "type": "address"
        },
        {
          "indexed": true,
          "internalType": "address",
          "name": "operator",
          "type": "address"
        },
        {
          "indexed": false,
          "internalType": "bool",
          "name": "approved",
          "type": "bool"
        }
      ],
      "name": "ApprovalForAll",
      "type": "event"
    },
    {
      "anonymous": false,
      "inputs": [
        {
          "indexed": true,
          "internalType": "bytes32",
          "name": "role",
          "type": "bytes32"
        },
        {
          "indexed": true,
          "internalType": "bytes32",
          "name": "previousAdminRole",
          "type": "bytes32"
        },
        {
          "indexed": true,
          "internalType": "bytes32",
          "name": "newAdminRole",
          "type": "bytes32"
        }
      ],
      "name": "RoleAdminChanged",
      "type": "event"
    },
    {
      "anonymous": false,
      "inputs": [
        {
          "indexed": true,
          "internalType": "bytes32",
          "name": "role",
          "type": "bytes32"
        },
        {
          "indexed": true,
          "internalType": "address",
          "name": "account",
          "type": "address"
        },
        {
          "indexed": true,
          "internalType": "address",
          "name": "sender",
          "type": "address"
        }
      ],
      "name": "RoleGranted",
      "type": "event"
    },
    {
      "anonymous": false,
      "inputs": [
        {
          "indexed": true,
          "internalType": "bytes32",
          "name": "role",
          "type": "bytes32"
        },
        {
          "indexed": true,
          "internalType": "address",
          "name": "account",
          "type": "address"
        },
        {
          "indexed": true,
          "internalType": "address",
          "name": "sender",
          "type": "address"
        }
      ],
      "name": "RoleRevoked",
      "type": "event"
    },
    {
      "anonymous": false,
      "inputs": [
        {
          "indexed": true,
          "internalType": "address",
          "name": "from",
          "type": "address"
        },
        {
          "indexed": true,
          "internalType": "address",
          "name": "to",
          "type": "address"
        },
        {
          "indexed": true,
          "internalType": "uint256",
          "name": "tokenId",
          "type": "uint256"
        }
      ],
      "name": "Transfer",
      "type": "event"
    },
    {
      "inputs": [],
      "name": "DEFAULT_ADMIN_ROLE",
      "outputs": [
        {
          "internalType": "bytes32",
          "name": "",
          "type": "bytes32"
        }
      ],
      "stateMutability": "view",
      "type": "function"
    },
    {
      "inputs": [],
      "name": "MINTER_ROLE",
      "outputs": [
        {
          "internalType": "bytes32",
          "name": "",
          "type": "bytes32"
        }
      ],
      "stateMutability": "view",
      "type": "function"
    },
    {
      "inputs": [
        {
          "internalType": "address",
          "name": "to",
          "type": "address"
        },
        {
          "internalType": "uint256",
          "name": "tokenId",
          "type": "uint256"
        }
      ],
      "name": "approve",
      "outputs": [],
      "stateMutability": "nonpayable",
      "type": "function"
    },
    {
      "inputs": [
        {
          "internalType": "address",
          "name": "owner",
          "type": "address"
        }
      ],
      "name": "balanceOf",
      "outputs": [
        {
          "internalType": "uint256",
          "name": "",
          "type": "uint256"
        }
      ],
      "stateMutability": "view",
      "type": "function"
    },
    {
      "inputs": [
        {
          "internalType": "uint256",
          "name": "tokenId",
          "type": "uint256"
        }
      ],
      "name": "getApproved",
      "outputs": [
        {
          "internalType": "address",
          "name": "",
          "type": "address"
        }
      ],
      "stateMutability": "view",
      "type": "function"
    },
    {
      "inputs": [
        {
          "internalType": "bytes32",
          "name": "role",
          "type": "bytes32"
        }
      ],
      "name": "getRoleAdmin",
      "outputs": [
        {
          "internalType": "bytes32",
          "name": "",
          "type": "bytes32"
        }
      ],
      "stateMutability": "view",
      "type": "function"
    },
    {
      "inputs": [
        {
          "internalType": "bytes32",
          "name": "role",
          "type": "bytes32"
        },
        {
          "internalType": "address",
          "name": "account",
          "type": "address"
        }
      ],
      "name": "grantRole",
      "outputs": [],
      "stateMutability": "nonpayable",
      "type": "function"
    },
    {
      "inputs": [
        {
          "internalType": "bytes32",
          "name": "role",
          "type": "bytes32"
        },
        {
          "internalType": "address",
          "name": "account",
          "type": "address"
        }
      ],
      "name": "hasRole",
      "outputs": [
        {
          "internalType": "bool",
          "name": "",
          "type": "bool"
        }
      ],
      "stateMutability": "view",
      "type": "function"
    },
    {
      "inputs": [
        {
          "internalType": "address",
          "name": "owner",
          "type": "address"
        },
        {
          "internalType": "address",
          "name": "operator",
          "type": "address"
        }
      ],
      "name": "isApprovedForAll",
      "outputs": [
        {
          "internalType": "bool",
          "name": "",
          "type": "bool"
        }
      ],
      "stateMutability": "view",
      "type": "function"
    },
    {
      "inputs": [
        {
          "internalType": "address",
          "name": "caller",
          "type": "address"
        },
        {
          "internalType": "uint256",
          "name": "tokenId",
          "type": "uint256"
        },
        {
          "internalType": "string",
          "name": "tokenURI",
          "type": "string"
        }
      ],
      "name": "mintToCaller",
      "outputs": [
        {
          "internalType": "uint256",
          "name": "",
          "type": "uint256"
        }
      ],
      "stateMutability": "nonpayable",
      "type": "function"
    },
    {
      "inputs": [],
      "name": "name",
      "outputs": [
        {
          "internalType": "string",
          "name": "",
          "type": "string"
        }
      ],
      "stateMutability": "view",
      "type": "function"
    },
    {
      "inputs": [],
      "name": "owner",
      "outputs": [
        {
          "internalType": "address",
          "name": "",
          "type": "address"
        }
      ],
      "stateMutability": "view",
      "type": "function"
    },
    {
      "inputs": [
        {
          "internalType": "uint256",
          "name": "tokenId",
          "type": "uint256"
        }
      ],
      "name": "ownerOf",
      "outputs": [
        {
          "internalType": "address",
          "name": "",
          "type": "address"
        }
      ],
      "stateMutability": "view",
      "type": "function"
    },
    {
      "inputs": [
        {
          "internalType": "bytes32",
          "name": "role",
          "type": "bytes32"
        },
        {
          "internalType": "address",
          "name": "account",
          "type": "address"
        }
      ],
      "name": "renounceRole",
      "outputs": [],
      "stateMutability": "nonpayable",
      "type": "function"
    },
    {
      "inputs": [
        {
          "internalType": "bytes32",
          "name": "role",
          "type": "bytes32"
        },
        {
          "internalType": "address",
          "name": "account",
          "type": "address"
        }
      ],
      "name": "revokeRole",
      "outputs": [],
      "stateMutability": "nonpayable",
      "type": "function"
    },
    {
      "inputs": [
        {
          "internalType": "address",
          "name": "from",
          "type": "address"
        },
        {
          "internalType": "address",
          "name": "to",
          "type": "address"
        },
        {
          "internalType": "uint256",
          "name": "tokenId",
          "type": "uint256"
        }
      ],
      "name": "safeTransferFrom",
      "outputs": [],
      "stateMutability": "nonpayable",
      "type": "function"
    },
    {
      "inputs": [
        {
          "internalType": "address",
          "name": "from",
          "type": "address"
        },
        {
          "internalType": "address",
          "name": "to",
          "type": "address"
        },
        {
          "internalType": "uint256",
          "name": "tokenId",
          "type": "uint256"
        },
        {
          "internalType": "bytes",
          "name": "_data",
          "type": "bytes"
        }
      ],
      "name": "safeTransferFrom",
      "outputs": [],
      "stateMutability": "nonpayable",
      "type": "function"
    },
    {
      "inputs": [
        {
          "internalType": "address",
          "name": "operator",
          "type": "address"
        },
        {
          "internalType": "bool",
          "name": "approved",
          "type": "bool"
        }
      ],
      "name": "setApprovalForAll",
      "outputs": [],
      "stateMutability": "nonpayable",
      "type": "function"
    },
    {
      "inputs": [
        {
          "internalType": "bytes4",
          "name": "interfaceId",
          "type": "bytes4"
        }
      ],
      "name": "supportsInterface",
      "outputs": [
        {
          "internalType": "bool",
          "name": "",
          "type": "bool"
        }
      ],
      "stateMutability": "view",
      "type": "function"
    },
    {
      "inputs": [],
      "name": "symbol",
      "outputs": [
        {
          "internalType": "string",
          "name": "",
          "type": "string"
        }
      ],
      "stateMutability": "view",
      "type": "function"
    },
    {
      "inputs": [
        {
          "internalType": "uint256",
          "name": "tokenId",
          "type": "uint256"
        }
      ],
      "name": "tokenURI",
      "outputs": [
        {
          "internalType": "string",
          "name": "",
          "type": "string"
        }
      ],
      "stateMutability": "view",
      "type": "function"
    },
    {
      "inputs": [
        {
          "internalType": "address",
          "name": "from",
          "type": "address"
        },
        {
          "internalType": "address",
          "name": "to",
          "type": "address"
        },
        {
          "internalType": "uint256",
          "name": "tokenId",
          "type": "uint256"
        }
      ],
      "name": "transferFrom",
      "outputs": [],
      "stateMutability": "nonpayable",
      "type": "function"
    }
  ],
  "transactionHash": "0xc892d2498d342b6cc3aa92ed068e185e8746930879ff050e143fa53b77a994ff",
  "args": [
    "NFTPort",
    "NFT",
    "0x7f7631fA2C3E7b78aD8CEA99E08844440c7626f0"
  ],
  "numDeployments": 1,
  "solcInputHash": "4e2d1ff75f938ecf476eed5bb28d701e",
  "bytecode": "0x60806040523480156200001157600080fd5b5060405162002115380380620021158339810160408190526200003491620002fb565b8251839083906200004d90600090602085019062000188565b5080516200006390600190602084019062000188565b506200007591506000905082620000d4565b62000090600080516020620020f583398151915282620000d4565b620000ab600080516020620020f583398151915233620000d4565b600880546001600160a01b0319166001600160a01b039290921691909117905550620003c59050565b620000e08282620000e4565b5050565b60008281526007602090815260408083206001600160a01b038516845290915290205460ff16620000e05760008281526007602090815260408083206001600160a01b03851684529091529020805460ff19166001179055620001443390565b6001600160a01b0316816001600160a01b0316837f2f8788117e7eff1d82e926ec794901d17c78024a50270940304540a733656f0d60405160405180910390a45050565b828054620001969062000388565b90600052602060002090601f016020900481019282620001ba576000855562000205565b82601f10620001d557805160ff191683800117855562000205565b8280016001018555821562000205579182015b8281111562000205578251825591602001919060010190620001e8565b506200021392915062000217565b5090565b5b8082111562000213576000815560010162000218565b634e487b7160e01b600052604160045260246000fd5b600082601f8301126200025657600080fd5b81516001600160401b03808211156200027357620002736200022e565b604051601f8301601f19908116603f011681019082821181831017156200029e576200029e6200022e565b81604052838152602092508683858801011115620002bb57600080fd5b600091505b83821015620002df5785820183015181830184015290820190620002c0565b83821115620002f15760008385830101525b9695505050505050565b6000806000606084860312156200031157600080fd5b83516001600160401b03808211156200032957600080fd5b620003378783880162000244565b945060208601519150808211156200034e57600080fd5b506200035d8682870162000244565b604086015190935090506001600160a01b03811681146200037d57600080fd5b809150509250925092565b600181811c908216806200039d57607f821691505b60208210811415620003bf57634e487b7160e01b600052602260045260246000fd5b50919050565b611d2080620003d56000396000f3fe608060405234801561001057600080fd5b50600436106101425760003560e01c80637afdcdbb116100b8578063a22cb4651161007c578063a22cb465146102ae578063b88d4fde146102c1578063c87b56dd146102d4578063d5391393146102e7578063d547741f1461030e578063e985e9c51461032157600080fd5b80637afdcdbb146102675780638da5cb5b1461027a57806391d148541461028b57806395d89b411461029e578063a217fddf146102a657600080fd5b8063248a9ca31161010a578063248a9ca3146101d75780632f2ff15d1461020857806336568abe1461021b57806342842e0e1461022e5780636352211e1461024157806370a082311461025457600080fd5b806301ffc9a71461014757806306fdde031461016f578063081812fc14610184578063095ea7b3146101af57806323b872dd146101c4575b600080fd5b61015a6101553660046116e1565b61035d565b60405190151581526020015b60405180910390f35b61017761036e565b6040516101669190611756565b610197610192366004611769565b610400565b6040516001600160a01b039091168152602001610166565b6101c26101bd36600461179e565b61048d565b005b6101c26101d23660046117c8565b6105a3565b6101fa6101e5366004611769565b60009081526007602052604090206001015490565b604051908152602001610166565b6101c2610216366004611804565b6105d4565b6101c2610229366004611804565b6105fa565b6101c261023c3660046117c8565b610678565b61019761024f366004611769565b610693565b6101fa610262366004611830565b61070a565b6101fa6102753660046118d7565b610791565b6008546001600160a01b0316610197565b61015a610299366004611804565b6107db565b610177610806565b6101fa600081565b6101c26102bc366004611942565b610815565b6101c26102cf36600461197e565b610820565b6101776102e2366004611769565b610858565b6101fa7f9f2df0fed2c77648de5860a4cc508cd0818c85b8b8a1ab4ceeef8d981c8956a681565b6101c261031c366004611804565b6109cf565b61015a61032f3660046119fa565b6001600160a01b03918216600090815260056020908152604080832093909416825291909152205460ff1690565b6000610368826109f5565b92915050565b60606000805461037d90611a24565b80601f01602080910402602001604051908101604052809291908181526020018280546103a990611a24565b80156103f65780601f106103cb576101008083540402835291602001916103f6565b820191906000526020600020905b8154815290600101906020018083116103d957829003601f168201915b5050505050905090565b600061040b82610a45565b6104715760405162461bcd60e51b815260206004820152602c60248201527f4552433732313a20617070726f76656420717565727920666f72206e6f6e657860448201526b34b9ba32b73a103a37b5b2b760a11b60648201526084015b60405180910390fd5b506000908152600460205260409020546001600160a01b031690565b600061049882610693565b9050806001600160a01b0316836001600160a01b031614156105065760405162461bcd60e51b815260206004820152602160248201527f4552433732313a20617070726f76616c20746f2063757272656e74206f776e656044820152603960f91b6064820152608401610468565b336001600160a01b03821614806105225750610522813361032f565b6105945760405162461bcd60e51b815260206004820152603860248201527f4552433732313a20617070726f76652063616c6c6572206973206e6f74206f7760448201527f6e6572206e6f7220617070726f76656420666f7220616c6c00000000000000006064820152608401610468565b61059e8383610a62565b505050565b6105ad3382610ad0565b6105c95760405162461bcd60e51b815260040161046890611a5f565b61059e838383610bb6565b6000828152600760205260409020600101546105f08133610d52565b61059e8383610db6565b6001600160a01b038116331461066a5760405162461bcd60e51b815260206004820152602f60248201527f416363657373436f6e74726f6c3a2063616e206f6e6c792072656e6f756e636560448201526e103937b632b9903337b91039b2b63360891b6064820152608401610468565b6106748282610e3c565b5050565b61059e83838360405180602001604052806000815250610820565b6000818152600260205260408120546001600160a01b0316806103685760405162461bcd60e51b815260206004820152602960248201527f4552433732313a206f776e657220717565727920666f72206e6f6e657869737460448201526832b73a103a37b5b2b760b91b6064820152608401610468565b60006001600160a01b0382166107755760405162461bcd60e51b815260206004820152602a60248201527f4552433732313a2062616c616e636520717565727920666f7220746865207a65604482015269726f206164647265737360b01b6064820152608401610468565b506001600160a01b031660009081526003602052604090205490565b60007f9f2df0fed2c77648de5860a4cc508cd0818c85b8b8a1ab4ceeef8d981c8956a66107be8133610d52565b6107c88585610ea3565b6107d28484610ebd565b50919392505050565b60009182526007602090815260408084206001600160a01b0393909316845291905290205460ff1690565b60606001805461037d90611a24565b610674338383610f48565b61082a3383610ad0565b6108465760405162461bcd60e51b815260040161046890611a5f565b61085284848484611017565b50505050565b606061086382610a45565b6108c95760405162461bcd60e51b815260206004820152603160248201527f45524337323155524953746f726167653a2055524920717565727920666f72206044820152703737b732bc34b9ba32b73a103a37b5b2b760791b6064820152608401610468565b600082815260066020526040812080546108e290611a24565b80601f016020809104026020016040519081016040528092919081815260200182805461090e90611a24565b801561095b5780601f106109305761010080835404028352916020019161095b565b820191906000526020600020905b81548152906001019060200180831161093e57829003601f168201915b50505050509050600061097960408051602081019091526000815290565b905080516000141561098c575092915050565b8151156109be5780826040516020016109a6929190611ab0565b60405160208183030381529060405292505050919050565b6109c78461104a565b949350505050565b6000828152600760205260409020600101546109eb8133610d52565b61059e8383610e3c565b60006001600160e01b031982166380ac58cd60e01b1480610a2657506001600160e01b03198216635b5e139f60e01b145b8061036857506301ffc9a760e01b6001600160e01b0319831614610368565b6000908152600260205260409020546001600160a01b0316151590565b600081815260046020526040902080546001600160a01b0319166001600160a01b0384169081179091558190610a9782610693565b6001600160a01b03167f8c5be1e5ebec7d5bd14f71427d1e84f3dd0314c0f7b2291e5b200ac8c7c3b92560405160405180910390a45050565b6000610adb82610a45565b610b3c5760405162461bcd60e51b815260206004820152602c60248201527f4552433732313a206f70657261746f7220717565727920666f72206e6f6e657860448201526b34b9ba32b73a103a37b5b2b760a11b6064820152608401610468565b6000610b4783610693565b9050806001600160a01b0316846001600160a01b03161480610b825750836001600160a01b0316610b7784610400565b6001600160a01b0316145b806109c757506001600160a01b0380821660009081526005602090815260408083209388168352929052205460ff166109c7565b826001600160a01b0316610bc982610693565b6001600160a01b031614610c2d5760405162461bcd60e51b815260206004820152602560248201527f4552433732313a207472616e736665722066726f6d20696e636f72726563742060448201526437bbb732b960d91b6064820152608401610468565b6001600160a01b038216610c8f5760405162461bcd60e51b8152602060048201526024808201527f4552433732313a207472616e7366657220746f20746865207a65726f206164646044820152637265737360e01b6064820152608401610468565b610c9a600082610a62565b6001600160a01b0383166000908152600360205260408120805460019290610cc3908490611af5565b90915550506001600160a01b0382166000908152600360205260408120805460019290610cf1908490611b0c565b909155505060008181526002602052604080822080546001600160a01b0319166001600160a01b0386811691821790925591518493918716917fddf252ad1be2c89b69c2b068fc378daa952ba7f163c4a11628f55a4df523b3ef91a4505050565b610d5c82826107db565b61067457610d74816001600160a01b03166014611122565b610d7f836020611122565b604051602001610d90929190611b24565b60408051601f198184030181529082905262461bcd60e51b825261046891600401611756565b610dc082826107db565b6106745760008281526007602090815260408083206001600160a01b03851684529091529020805460ff19166001179055610df83390565b6001600160a01b0316816001600160a01b0316837f2f8788117e7eff1d82e926ec794901d17c78024a50270940304540a733656f0d60405160405180910390a45050565b610e4682826107db565b156106745760008281526007602090815260408083206001600160a01b0385168085529252808320805460ff1916905551339285917ff6391f5c32d9c69d2a47ea670b442974b53935d1edc7fd64eb21e047a839171b9190a45050565b6106748282604051806020016040528060008152506112be565b610ec682610a45565b610f295760405162461bcd60e51b815260206004820152602e60248201527f45524337323155524953746f726167653a2055524920736574206f66206e6f6e60448201526d32bc34b9ba32b73a103a37b5b2b760911b6064820152608401610468565b6000828152600660209081526040909120825161059e9284019061162f565b816001600160a01b0316836001600160a01b03161415610faa5760405162461bcd60e51b815260206004820152601960248201527f4552433732313a20617070726f766520746f2063616c6c6572000000000000006044820152606401610468565b6001600160a01b03838116600081815260056020908152604080832094871680845294825291829020805460ff191686151590811790915591519182527f17307eab39ab6107e8899845ad3d59bd9653f200f220920489ca2b5937696c31910160405180910390a3505050565b611022848484610bb6565b61102e848484846112f1565b6108525760405162461bcd60e51b815260040161046890611b99565b606061105582610a45565b6110b95760405162461bcd60e51b815260206004820152602f60248201527f4552433732314d657461646174613a2055524920717565727920666f72206e6f60448201526e3732bc34b9ba32b73a103a37b5b2b760891b6064820152608401610468565b60006110d060408051602081019091526000815290565b905060008151116110f0576040518060200160405280600081525061111b565b806110fa846113fe565b60405160200161110b929190611ab0565b6040516020818303038152906040525b9392505050565b60606000611131836002611beb565b61113c906002611b0c565b67ffffffffffffffff8111156111545761115461184b565b6040519080825280601f01601f19166020018201604052801561117e576020820181803683370190505b509050600360fc1b8160008151811061119957611199611c0a565b60200101906001600160f81b031916908160001a905350600f60fb1b816001815181106111c8576111c8611c0a565b60200101906001600160f81b031916908160001a90535060006111ec846002611beb565b6111f7906001611b0c565b90505b600181111561126f576f181899199a1a9b1b9c1cb0b131b232b360811b85600f166010811061122b5761122b611c0a565b1a60f81b82828151811061124157611241611c0a565b60200101906001600160f81b031916908160001a90535060049490941c9361126881611c20565b90506111fa565b50831561111b5760405162461bcd60e51b815260206004820181905260248201527f537472696e67733a20686578206c656e67746820696e73756666696369656e746044820152606401610468565b6112c883836114fc565b6112d560008484846112f1565b61059e5760405162461bcd60e51b815260040161046890611b99565b60006001600160a01b0384163b156113f357604051630a85bd0160e11b81526001600160a01b0385169063150b7a0290611335903390899088908890600401611c37565b602060405180830381600087803b15801561134f57600080fd5b505af192505050801561137f575060408051601f3d908101601f1916820190925261137c91810190611c74565b60015b6113d9573d8080156113ad576040519150601f19603f3d011682016040523d82523d6000602084013e6113b2565b606091505b5080516113d15760405162461bcd60e51b815260040161046890611b99565b805181602001fd5b6001600160e01b031916630a85bd0160e11b1490506109c7565b506001949350505050565b6060816114225750506040805180820190915260018152600360fc1b602082015290565b8160005b811561144c578061143681611c91565b91506114459050600a83611cc2565b9150611426565b60008167ffffffffffffffff8111156114675761146761184b565b6040519080825280601f01601f191660200182016040528015611491576020820181803683370190505b5090505b84156109c7576114a6600183611af5565b91506114b3600a86611cd6565b6114be906030611b0c565b60f81b8183815181106114d3576114d3611c0a565b60200101906001600160f81b031916908160001a9053506114f5600a86611cc2565b9450611495565b6001600160a01b0382166115525760405162461bcd60e51b815260206004820181905260248201527f4552433732313a206d696e7420746f20746865207a65726f20616464726573736044820152606401610468565b61155b81610a45565b156115a85760405162461bcd60e51b815260206004820152601c60248201527f4552433732313a20746f6b656e20616c7265616479206d696e746564000000006044820152606401610468565b6001600160a01b03821660009081526003602052604081208054600192906115d1908490611b0c565b909155505060008181526002602052604080822080546001600160a01b0319166001600160a01b03861690811790915590518392907fddf252ad1be2c89b69c2b068fc378daa952ba7f163c4a11628f55a4df523b3ef908290a45050565b82805461163b90611a24565b90600052602060002090601f01602090048101928261165d57600085556116a3565b82601f1061167657805160ff19168380011785556116a3565b828001600101855582156116a3579182015b828111156116a3578251825591602001919060010190611688565b506116af9291506116b3565b5090565b5b808211156116af57600081556001016116b4565b6001600160e01b0319811681146116de57600080fd5b50565b6000602082840312156116f357600080fd5b813561111b816116c8565b60005b83811015611719578181015183820152602001611701565b838111156108525750506000910152565b600081518084526117428160208601602086016116fe565b601f01601f19169290920160200192915050565b60208152600061111b602083018461172a565b60006020828403121561177b57600080fd5b5035919050565b80356001600160a01b038116811461179957600080fd5b919050565b600080604083850312156117b157600080fd5b6117ba83611782565b946020939093013593505050565b6000806000606084860312156117dd57600080fd5b6117e684611782565b92506117f460208501611782565b9150604084013590509250925092565b6000806040838503121561181757600080fd5b8235915061182760208401611782565b90509250929050565b60006020828403121561184257600080fd5b61111b82611782565b634e487b7160e01b600052604160045260246000fd5b600067ffffffffffffffff8084111561187c5761187c61184b565b604051601f8501601f19908116603f011681019082821181831017156118a4576118a461184b565b816040528093508581528686860111156118bd57600080fd5b858560208301376000602087830101525050509392505050565b6000806000606084860312156118ec57600080fd5b6118f584611782565b925060208401359150604084013567ffffffffffffffff81111561191857600080fd5b8401601f8101861361192957600080fd5b61193886823560208401611861565b9150509250925092565b6000806040838503121561195557600080fd5b61195e83611782565b91506020830135801515811461197357600080fd5b809150509250929050565b6000806000806080858703121561199457600080fd5b61199d85611782565b93506119ab60208601611782565b925060408501359150606085013567ffffffffffffffff8111156119ce57600080fd5b8501601f810187136119df57600080fd5b6119ee87823560208401611861565b91505092959194509250565b60008060408385031215611a0d57600080fd5b611a1683611782565b915061182760208401611782565b600181811c90821680611a3857607f821691505b60208210811415611a5957634e487b7160e01b600052602260045260246000fd5b50919050565b60208082526031908201527f4552433732313a207472616e736665722063616c6c6572206973206e6f74206f6040820152701ddb995c881b9bdc88185c1c1c9bdd9959607a1b606082015260800190565b60008351611ac28184602088016116fe565b835190830190611ad68183602088016116fe565b01949350505050565b634e487b7160e01b600052601160045260246000fd5b600082821015611b0757611b07611adf565b500390565b60008219821115611b1f57611b1f611adf565b500190565b7f416363657373436f6e74726f6c3a206163636f756e7420000000000000000000815260008351611b5c8160178501602088016116fe565b7001034b99036b4b9b9b4b733903937b6329607d1b6017918401918201528351611b8d8160288401602088016116fe565b01602801949350505050565b60208082526032908201527f4552433732313a207472616e7366657220746f206e6f6e20455243373231526560408201527131b2b4bb32b91034b6b83632b6b2b73a32b960711b606082015260800190565b6000816000190483118215151615611c0557611c05611adf565b500290565b634e487b7160e01b600052603260045260246000fd5b600081611c2f57611c2f611adf565b506000190190565b6001600160a01b0385811682528416602082015260408101839052608060608201819052600090611c6a9083018461172a565b9695505050505050565b600060208284031215611c8657600080fd5b815161111b816116c8565b6000600019821415611ca557611ca5611adf565b5060010190565b634e487b7160e01b600052601260045260246000fd5b600082611cd157611cd1611cac565b500490565b600082611ce557611ce5611cac565b50069056fea264697066735822122007639dba92a428b6bcd163eb8457423b0d2b460e2d44aec5a0aff5066cf50fda64736f6c634300080900339f2df0fed2c77648de5860a4cc508cd0818c85b8b8a1ab4ceeef8d981c8956a6",
  "devdoc": {
    "kind": "dev",
    "methods": {
      "approve(address,uint256)": {
        "details": "See {IERC721-approve}."
      },
      "balanceOf(address)": {
        "details": "See {IERC721-balanceOf}."
      },
      "getApproved(uint256)": {
        "details": "See {IERC721-getApproved}."
      },
      "getRoleAdmin(bytes32)": {
        "details": "Returns the admin role that controls `role`. See {grantRole} and {revokeRole}. To change a role's admin, use {_setRoleAdmin}."
      },
      "grantRole(bytes32,address)": {
        "details": "Grants `role` to `account`. If `account` had not been already granted `role`, emits a {RoleGranted} event. Requirements: - the caller must have ``role``'s admin role."
      },
      "hasRole(bytes32,address)": {
        "details": "Returns `true` if `account` has been granted `role`."
      },
      "isApprovedForAll(address,address)": {
        "details": "See {IERC721-isApprovedForAll}."
      },
      "name()": {
        "details": "See {IERC721Metadata-name}."
      },
      "ownerOf(uint256)": {
        "details": "See {IERC721-ownerOf}."
      },
      "renounceRole(bytes32,address)": {
        "details": "Revokes `role` from the calling account. Roles are often managed via {grantRole} and {revokeRole}: this function's purpose is to provide a mechanism for accounts to lose their privileges if they are compromised (such as when a trusted device is misplaced). If the calling account had been revoked `role`, emits a {RoleRevoked} event. Requirements: - the caller must be `account`."
      },
      "revokeRole(bytes32,address)": {
        "details": "Revokes `role` from `account`. If `account` had been granted `role`, emits a {RoleRevoked} event. Requirements: - the caller must have ``role``'s admin role."
      },
      "safeTransferFrom(address,address,uint256)": {
        "details": "See {IERC721-safeTransferFrom}."
      },
      "safeTransferFrom(address,address,uint256,bytes)": {
        "details": "See {IERC721-safeTransferFrom}."
      },
      "setApprovalForAll(address,bool)": {
        "details": "See {IERC721-setApprovalForAll}."
      },
      "symbol()": {
        "details": "See {IERC721Metadata-symbol}."
      },
      "tokenURI(uint256)": {
        "details": "See {IERC721Metadata-tokenURI}."
      },
      "transferFrom(address,address,uint256)": {
        "details": "See {IERC721-transferFrom}."
      }
    },
    "version": 1
  },
  "userdoc": {
    "kind": "user",
    "methods": {},
    "version": 1
  },
  "storageLayout": {
    "storage": [
      {
        "astId": 1882,
        "contract": "contracts/products/3_custom_token_id_access_rights.sol:CustomTokenIdAccessRights",
        "label": "_name",
        "offset": 0,
        "slot": "0",
        "type": "t_string_storage"
      },
      {
        "astId": 1884,
        "contract": "contracts/products/3_custom_token_id_access_rights.sol:CustomTokenIdAccessRights",
        "label": "_symbol",
        "offset": 0,
        "slot": "1",
        "type": "t_string_storage"
      },
      {
        "astId": 1888,
        "contract": "contracts/products/3_custom_token_id_access_rights.sol:CustomTokenIdAccessRights",
        "label": "_owners",
        "offset": 0,
        "slot": "2",
        "type": "t_mapping(t_uint256,t_address)"
      },
      {
        "astId": 1892,
        "contract": "contracts/products/3_custom_token_id_access_rights.sol:CustomTokenIdAccessRights",
        "label": "_balances",
        "offset": 0,
        "slot": "3",
        "type": "t_mapping(t_address,t_uint256)"
      },
      {
        "astId": 1896,
        "contract": "contracts/products/3_custom_token_id_access_rights.sol:CustomTokenIdAccessRights",
        "label": "_tokenApprovals",
        "offset": 0,
        "slot": "4",
        "type": "t_mapping(t_uint256,t_address)"
      },
      {
        "astId": 1902,
        "contract": "contracts/products/3_custom_token_id_access_rights.sol:CustomTokenIdAccessRights",
        "label": "_operatorApprovals",
        "offset": 0,
        "slot": "5",
        "type": "t_mapping(t_address,t_mapping(t_address,t_bool))"
      },
      {
        "astId": 3207,
        "contract": "contracts/products/3_custom_token_id_access_rights.sol:CustomTokenIdAccessRights",
        "label": "_tokenURIs",
        "offset": 0,
        "slot": "6",
        "type": "t_mapping(t_uint256,t_string_storage)"
      },
      {
        "astId": 24,
        "contract": "contracts/products/3_custom_token_id_access_rights.sol:CustomTokenIdAccessRights",
        "label": "_roles",
        "offset": 0,
        "slot": "7",
        "type": "t_mapping(t_bytes32,t_struct(RoleData)19_storage)"
      },
      {
        "astId": 8390,
        "contract": "contracts/products/3_custom_token_id_access_rights.sol:CustomTokenIdAccessRights",
        "label": "_owner",
        "offset": 0,
        "slot": "8",
        "type": "t_address"
      }
    ],
    "types": {
      "t_address": {
        "encoding": "inplace",
        "label": "address",
        "numberOfBytes": "20"
      },
      "t_bool": {
        "encoding": "inplace",
        "label": "bool",
        "numberOfBytes": "1"
      },
      "t_bytes32": {
        "encoding": "inplace",
        "label": "bytes32",
        "numberOfBytes": "32"
      },
      "t_mapping(t_address,t_bool)": {
        "encoding": "mapping",
        "key": "t_address",
        "label": "mapping(address => bool)",
        "numberOfBytes": "32",
        "value": "t_bool"
      },
      "t_mapping(t_address,t_mapping(t_address,t_bool))": {
        "encoding": "mapping",
        "key": "t_address",
        "label": "mapping(address => mapping(address => bool))",
        "numberOfBytes": "32",
        "value": "t_mapping(t_address,t_bool)"
      },
      "t_mapping(t_address,t_uint256)": {
        "encoding": "mapping",
        "key": "t_address",
        "label": "mapping(address => uint256)",
        "numberOfBytes": "32",
        "value": "t_uint256"
      },
      "t_mapping(t_bytes32,t_struct(RoleData)19_storage)": {
        "encoding": "mapping",
        "key": "t_bytes32",
        "label": "mapping(bytes32 => struct AccessControl.RoleData)",
        "numberOfBytes": "32",
        "value": "t_struct(RoleData)19_storage"
      },
      "t_mapping(t_uint256,t_address)": {
        "encoding": "mapping",
        "key": "t_uint256",
        "label": "mapping(uint256 => address)",
        "numberOfBytes": "32",
        "value": "t_address"
      },
      "t_mapping(t_uint256,t_string_storage)": {
        "encoding": "mapping",
        "key": "t_uint256",
        "label": "mapping(uint256 => string)",
        "numberOfBytes": "32",
        "value": "t_string_storage"
      },
      "t_string_storage": {
        "encoding": "bytes",
        "label": "string",
        "numberOfBytes": "32"
      },
      "t_struct(RoleData)19_storage": {
        "encoding": "inplace",
        "label": "struct AccessControl.RoleData",
        "members": [
          {
            "astId": 16,
            "contract": "contracts/products/3_custom_token_id_access_rights.sol:CustomTokenIdAccessRights",
            "label": "members",
            "offset": 0,
            "slot": "0",
            "type": "t_mapping(t_address,t_bool)"
          },
          {
            "astId": 18,
            "contract": "contracts/products/3_custom_token_id_access_rights.sol:CustomTokenIdAccessRights",
            "label": "adminRole",
            "offset": 0,
            "slot": "1",
            "type": "t_bytes32"
          }
        ],
        "numberOfBytes": "64"
      },
      "t_uint256": {
        "encoding": "inplace",
        "label": "uint256",
        "numberOfBytes": "32"
      }
    }
  }
}