{
  "address": "0xbC3b9982414b6acCF6383851D7F3e84CABcE483C",
  "abi": [
    {
      "inputs": [
        {
          "internalType": "string",
          "name": "_name",
          "type": "string"
        },
        {
          "internalType": "string",
          "name": "_symbol",
          "type": "string"
        },
        {
          "internalType": "address",
          "name": "owner",
          "type": "address"
        },
        {
          "internalType": "bool",
          "name": "_isFreezeTokenUris",
          "type": "bool"
        },
        {
          "internalType": "string",
          "name": "_initBaseURI",
          "type": "string"
        }
      ],
      "stateMutability": "nonpayable",
      "type": "constructor"
    },
    {
      "anonymous": false,
      "inputs": [
        {
          "indexed": true,
          "internalType": "address",
          "name": "owner",
          "type": "address"
        },
        {
          "indexed": true,
          "internalType": "address",
          "name": "approved",
          "type": "address"
        },
        {
          "indexed": true,
          "internalType": "uint256",
          "name": "tokenId",
          "type": "uint256"
        }
      ],
      "name": "Approval",
      "type": "event"
    },
    {
      "anonymous": false,
      "inputs": [
        {
          "indexed": true,
          "internalType": "address",
          "name": "owner",
          "type": "address"
        },
        {
          "indexed": true,
          "internalType": "address",
          "name": "operator",
          "type": "address"
        },
        {
          "indexed": false,
          "internalType": "bool",
          "name": "approved",
          "type": "bool"
        }
      ],
      "name": "ApprovalForAll",
      "type": "event"
    },
    {
      "anonymous": false,
      "inputs": [
        {
          "indexed": false,
          "internalType": "string",
          "name": "_value",
          "type": "string"
        },
        {
          "indexed": true,
          "internalType": "uint256",
          "name": "_id",
          "type": "uint256"
        }
      ],
      "name": "PermanentURI",
      "type": "event"
    },
    {
      "anonymous": false,
      "inputs": [],
      "name": "PermanentURIGlobal",
      "type": "event"
    },
    {
      "anonymous": false,
      "inputs": [
        {
          "indexed": true,
          "internalType": "bytes32",
          "name": "role",
          "type": "bytes32"
        },
        {
          "indexed": true,
          "internalType": "bytes32",
          "name": "previousAdminRole",
          "type": "bytes32"
        },
        {
          "indexed": true,
          "internalType": "bytes32",
          "name": "newAdminRole",
          "type": "bytes32"
        }
      ],
      "name": "RoleAdminChanged",
      "type": "event"
    },
    {
      "anonymous": false,
      "inputs": [
        {
          "indexed": true,
          "internalType": "bytes32",
          "name": "role",
          "type": "bytes32"
        },
        {
          "indexed": true,
          "internalType": "address",
          "name": "account",
          "type": "address"
        },
        {
          "indexed": true,
          "internalType": "address",
          "name": "sender",
          "type": "address"
        }
      ],
      "name": "RoleGranted",
      "type": "event"
    },
    {
      "anonymous": false,
      "inputs": [
        {
          "indexed": true,
          "internalType": "bytes32",
          "name": "role",
          "type": "bytes32"
        },
        {
          "indexed": true,
          "internalType": "address",
          "name": "account",
          "type": "address"
        },
        {
          "indexed": true,
          "internalType": "address",
          "name": "sender",
          "type": "address"
        }
      ],
      "name": "RoleRevoked",
      "type": "event"
    },
    {
      "anonymous": false,
      "inputs": [
        {
          "indexed": true,
          "internalType": "address",
          "name": "from",
          "type": "address"
        },
        {
          "indexed": true,
          "internalType": "address",
          "name": "to",
          "type": "address"
        },
        {
          "indexed": true,
          "internalType": "uint256",
          "name": "tokenId",
          "type": "uint256"
        }
      ],
      "name": "Transfer",
      "type": "event"
    },
    {
      "inputs": [],
      "name": "DEFAULT_ADMIN_ROLE",
      "outputs": [
        {
          "internalType": "bytes32",
          "name": "",
          "type": "bytes32"
        }
      ],
      "stateMutability": "view",
      "type": "function"
    },
    {
      "inputs": [],
      "name": "MINTER_ROLE",
      "outputs": [
        {
          "internalType": "bytes32",
          "name": "",
          "type": "bytes32"
        }
      ],
      "stateMutability": "view",
      "type": "function"
    },
    {
      "inputs": [
        {
          "internalType": "address",
          "name": "to",
          "type": "address"
        },
        {
          "internalType": "uint256",
          "name": "tokenId",
          "type": "uint256"
        }
      ],
      "name": "approve",
      "outputs": [],
      "stateMutability": "nonpayable",
      "type": "function"
    },
    {
      "inputs": [
        {
          "internalType": "address",
          "name": "owner",
          "type": "address"
        }
      ],
      "name": "balanceOf",
      "outputs": [
        {
          "internalType": "uint256",
          "name": "",
          "type": "uint256"
        }
      ],
      "stateMutability": "view",
      "type": "function"
    },
    {
      "inputs": [],
      "name": "freezeAllTokenUris",
      "outputs": [],
      "stateMutability": "nonpayable",
      "type": "function"
    },
    {
      "inputs": [
        {
          "internalType": "uint256",
          "name": "",
          "type": "uint256"
        }
      ],
      "name": "freezeTokenUris",
      "outputs": [
        {
          "internalType": "bool",
          "name": "",
          "type": "bool"
        }
      ],
      "stateMutability": "view",
      "type": "function"
    },
    {
      "inputs": [
        {
          "internalType": "uint256",
          "name": "tokenId",
          "type": "uint256"
        }
      ],
      "name": "getApproved",
      "outputs": [
        {
          "internalType": "address",
          "name": "",
          "type": "address"
        }
      ],
      "stateMutability": "view",
      "type": "function"
    },
    {
      "inputs": [
        {
          "internalType": "bytes32",
          "name": "role",
          "type": "bytes32"
        }
      ],
      "name": "getRoleAdmin",
      "outputs": [
        {
          "internalType": "bytes32",
          "name": "",
          "type": "bytes32"
        }
      ],
      "stateMutability": "view",
      "type": "function"
    },
    {
      "inputs": [
        {
          "internalType": "bytes32",
          "name": "role",
          "type": "bytes32"
        },
        {
          "internalType": "address",
          "name": "account",
          "type": "address"
        }
      ],
      "name": "grantRole",
      "outputs": [],
      "stateMutability": "nonpayable",
      "type": "function"
    },
    {
      "inputs": [
        {
          "internalType": "bytes32",
          "name": "role",
          "type": "bytes32"
        },
        {
          "internalType": "address",
          "name": "account",
          "type": "address"
        }
      ],
      "name": "hasRole",
      "outputs": [
        {
          "internalType": "bool",
          "name": "",
          "type": "bool"
        }
      ],
      "stateMutability": "view",
      "type": "function"
    },
    {
      "inputs": [
        {
          "internalType": "address",
          "name": "owner",
          "type": "address"
        },
        {
          "internalType": "address",
          "name": "operator",
          "type": "address"
        }
      ],
      "name": "isApprovedForAll",
      "outputs": [
        {
          "internalType": "bool",
          "name": "",
          "type": "bool"
        }
      ],
      "stateMutability": "view",
      "type": "function"
    },
    {
      "inputs": [],
      "name": "isFreezeTokenUris",
      "outputs": [
        {
          "internalType": "bool",
          "name": "",
          "type": "bool"
        }
      ],
      "stateMutability": "view",
      "type": "function"
    },
    {
      "inputs": [
        {
          "internalType": "address",
          "name": "caller",
          "type": "address"
        },
        {
          "internalType": "uint256",
          "name": "tokenId",
          "type": "uint256"
        },
        {
          "internalType": "string",
          "name": "tokenURI",
          "type": "string"
        }
      ],
      "name": "mintToCaller",
      "outputs": [
        {
          "internalType": "uint256",
          "name": "",
          "type": "uint256"
        }
      ],
      "stateMutability": "nonpayable",
      "type": "function"
    },
    {
      "inputs": [],
      "name": "name",
      "outputs": [
        {
          "internalType": "string",
          "name": "",
          "type": "string"
        }
      ],
      "stateMutability": "view",
      "type": "function"
    },
    {
      "inputs": [],
      "name": "owner",
      "outputs": [
        {
          "internalType": "address",
          "name": "",
          "type": "address"
        }
      ],
      "stateMutability": "view",
      "type": "function"
    },
    {
      "inputs": [
        {
          "internalType": "uint256",
          "name": "tokenId",
          "type": "uint256"
        }
      ],
      "name": "ownerOf",
      "outputs": [
        {
          "internalType": "address",
          "name": "",
          "type": "address"
        }
      ],
      "stateMutability": "view",
      "type": "function"
    },
    {
      "inputs": [
        {
          "internalType": "bytes32",
          "name": "role",
          "type": "bytes32"
        },
        {
          "internalType": "address",
          "name": "account",
          "type": "address"
        }
      ],
      "name": "renounceRole",
      "outputs": [],
      "stateMutability": "nonpayable",
      "type": "function"
    },
    {
      "inputs": [
        {
          "internalType": "bytes32",
          "name": "role",
          "type": "bytes32"
        },
        {
          "internalType": "address",
          "name": "account",
          "type": "address"
        }
      ],
      "name": "revokeRole",
      "outputs": [],
      "stateMutability": "nonpayable",
      "type": "function"
    },
    {
      "inputs": [
        {
          "internalType": "address",
          "name": "from",
          "type": "address"
        },
        {
          "internalType": "address",
          "name": "to",
          "type": "address"
        },
        {
          "internalType": "uint256",
          "name": "tokenId",
          "type": "uint256"
        }
      ],
      "name": "safeTransferFrom",
      "outputs": [],
      "stateMutability": "nonpayable",
      "type": "function"
    },
    {
      "inputs": [
        {
          "internalType": "address",
          "name": "from",
          "type": "address"
        },
        {
          "internalType": "address",
          "name": "to",
          "type": "address"
        },
        {
          "internalType": "uint256",
          "name": "tokenId",
          "type": "uint256"
        },
        {
          "internalType": "bytes",
          "name": "_data",
          "type": "bytes"
        }
      ],
      "name": "safeTransferFrom",
      "outputs": [],
      "stateMutability": "nonpayable",
      "type": "function"
    },
    {
      "inputs": [
        {
          "internalType": "address",
          "name": "operator",
          "type": "address"
        },
        {
          "internalType": "bool",
          "name": "approved",
          "type": "bool"
        }
      ],
      "name": "setApprovalForAll",
      "outputs": [],
      "stateMutability": "nonpayable",
      "type": "function"
    },
    {
      "inputs": [
        {
          "internalType": "bytes4",
          "name": "interfaceId",
          "type": "bytes4"
        }
      ],
      "name": "supportsInterface",
      "outputs": [
        {
          "internalType": "bool",
          "name": "",
          "type": "bool"
        }
      ],
      "stateMutability": "view",
      "type": "function"
    },
    {
      "inputs": [],
      "name": "symbol",
      "outputs": [
        {
          "internalType": "string",
          "name": "",
          "type": "string"
        }
      ],
      "stateMutability": "view",
      "type": "function"
    },
    {
      "inputs": [
        {
          "internalType": "uint256",
          "name": "tokenId",
          "type": "uint256"
        }
      ],
      "name": "tokenURI",
      "outputs": [
        {
          "internalType": "string",
          "name": "",
          "type": "string"
        }
      ],
      "stateMutability": "view",
      "type": "function"
    },
    {
      "inputs": [
        {
          "internalType": "address",
          "name": "from",
          "type": "address"
        },
        {
          "internalType": "address",
          "name": "to",
          "type": "address"
        },
        {
          "internalType": "uint256",
          "name": "tokenId",
          "type": "uint256"
        }
      ],
      "name": "transferFrom",
      "outputs": [],
      "stateMutability": "nonpayable",
      "type": "function"
    },
    {
      "inputs": [
        {
          "internalType": "string",
          "name": "_newBaseURI",
          "type": "string"
        },
        {
          "internalType": "bool",
          "name": "_freezeAllTokenUris",
          "type": "bool"
        }
      ],
      "name": "update",
      "outputs": [],
      "stateMutability": "nonpayable",
      "type": "function"
    },
    {
      "inputs": [
        {
          "internalType": "uint256",
          "name": "_tokenId",
          "type": "uint256"
        },
        {
          "internalType": "string",
          "name": "_tokenUri",
          "type": "string"
        },
        {
          "internalType": "bool",
          "name": "_isFreezeTokenUri",
          "type": "bool"
        }
      ],
      "name": "updateTokenUri",
      "outputs": [],
      "stateMutability": "nonpayable",
      "type": "function"
    }
  ],
  "transactionHash": "0xc829ad7aa378b2e53ff3ae98f526528f91e13dd1bcf6395b888d144a85a3bb1e",
  "args": [
    "NFTPort",
    "NFT",
    "0x7f7631fA2C3E7b78aD8CEA99E08844440c7626f0",
    true,
    "ipfs://baseURI"
  ],
  "numDeployments": 1,
  "solcInputHash": "4e2d1ff75f938ecf476eed5bb28d701e",
  "bytecode": "0x60806040523480156200001157600080fd5b50604051620026df380380620026df83398101604081905262000034916200032b565b8451859085906200004d906000906020850190620001b8565b50805162000063906001906020840190620001b8565b50620000759150600090508462000104565b62000090600080516020620026bf8339815191528462000104565b620000ab600080516020620026bf8339815191523362000104565b6008805460ff60a01b1916600160a01b841515021790558051620000d790600a906020840190620001b8565b5050600880546001600160a01b0319166001600160a01b0393909316929092179091555062000435915050565b62000110828262000114565b5050565b60008281526007602090815260408083206001600160a01b038516845290915290205460ff16620001105760008281526007602090815260408083206001600160a01b03851684529091529020805460ff19166001179055620001743390565b6001600160a01b0316816001600160a01b0316837f2f8788117e7eff1d82e926ec794901d17c78024a50270940304540a733656f0d60405160405180910390a45050565b828054620001c690620003f8565b90600052602060002090601f016020900481019282620001ea576000855562000235565b82601f106200020557805160ff191683800117855562000235565b8280016001018555821562000235579182015b828111156200023557825182559160200191906001019062000218565b506200024392915062000247565b5090565b5b8082111562000243576000815560010162000248565b634e487b7160e01b600052604160045260246000fd5b600082601f8301126200028657600080fd5b81516001600160401b0380821115620002a357620002a36200025e565b604051601f8301601f19908116603f01168101908282118183101715620002ce57620002ce6200025e565b81604052838152602092508683858801011115620002eb57600080fd5b600091505b838210156200030f5785820183015181830184015290820190620002f0565b83821115620003215760008385830101525b9695505050505050565b600080600080600060a086880312156200034457600080fd5b85516001600160401b03808211156200035c57600080fd5b6200036a89838a0162000274565b965060208801519150808211156200038157600080fd5b6200038f89838a0162000274565b604089015190965091506001600160a01b0382168214620003af57600080fd5b60608801519194508115158214620003c657600080fd5b608088015191935080821115620003dc57600080fd5b50620003eb8882890162000274565b9150509295509295909350565b600181811c908216806200040d57607f821691505b602082108114156200042f57634e487b7160e01b600052602260045260246000fd5b50919050565b61227a80620004456000396000f3fe608060405234801561001057600080fd5b50600436106101a95760003560e01c80637afdcdbb116100f9578063a2f551ec11610097578063c87b56dd11610071578063c87b56dd146103a0578063d5391393146103b3578063d547741f146103c8578063e985e9c5146103db57600080fd5b8063a2f551ec14610372578063af53931214610385578063b88d4fde1461038d57600080fd5b806391d14854116100d357806391d148541461033c57806395d89b411461034f578063a217fddf14610357578063a22cb4651461035f57600080fd5b80637afdcdbb146102f55780638d010db3146103085780638da5cb5b1461032b57600080fd5b80632f2ff15d116101665780636352211e116101405780636352211e146102a857806370a08231146102bb5780637105a69c146102ce57806375cee1c6146102e257600080fd5b80632f2ff15d1461026f57806336568abe1461028257806342842e0e1461029557600080fd5b806301ffc9a7146101ae57806306fdde03146101d6578063081812fc146101eb578063095ea7b31461021657806323b872dd1461022b578063248a9ca31461023e575b600080fd5b6101c16101bc366004611b33565b610417565b60405190151581526020015b60405180910390f35b6101de610428565b6040516101cd9190611ba8565b6101fe6101f9366004611bbb565b6104ba565b6040516001600160a01b0390911681526020016101cd565b610229610224366004611bf0565b610547565b005b610229610239366004611c1a565b61065d565b61026161024c366004611bbb565b60009081526007602052604090206001015490565b6040519081526020016101cd565b61022961027d366004611c56565b61068e565b610229610290366004611c56565b6106b4565b6102296102a3366004611c1a565b610732565b6101fe6102b6366004611bbb565b61074d565b6102616102c9366004611c82565b6107c4565b6008546101c190600160a01b900460ff1681565b6102296102f0366004611d59565b61084b565b610261610303366004611d9e565b6108b0565b6101c1610316366004611bbb565b60096020526000908152604090205460ff1681565b6008546001600160a01b03166101fe565b6101c161034a366004611c56565b6108e8565b6101de610913565b610261600081565b61022961036d366004611df5565b610922565b610229610380366004611e1f565b61092d565b610229610c01565b61022961039b366004611e76565b610c83565b6101de6103ae366004611bbb565b610cb5565b61026160008051602061222583398151915281565b6102296103d6366004611c56565b610e1f565b6101c16103e9366004611ef2565b6001600160a01b03918216600090815260056020908152604080832093909416825291909152205460ff1690565b600061042282610e45565b92915050565b60606000805461043790611f1c565b80601f016020809104026020016040519081016040528092919081815260200182805461046390611f1c565b80156104b05780601f10610485576101008083540402835291602001916104b0565b820191906000526020600020905b81548152906001019060200180831161049357829003601f168201915b5050505050905090565b60006104c582610e95565b61052b5760405162461bcd60e51b815260206004820152602c60248201527f4552433732313a20617070726f76656420717565727920666f72206e6f6e657860448201526b34b9ba32b73a103a37b5b2b760a11b60648201526084015b60405180910390fd5b506000908152600460205260409020546001600160a01b031690565b60006105528261074d565b9050806001600160a01b0316836001600160a01b031614156105c05760405162461bcd60e51b815260206004820152602160248201527f4552433732313a20617070726f76616c20746f2063757272656e74206f776e656044820152603960f91b6064820152608401610522565b336001600160a01b03821614806105dc57506105dc81336103e9565b61064e5760405162461bcd60e51b815260206004820152603860248201527f4552433732313a20617070726f76652063616c6c6572206973206e6f74206f7760448201527f6e6572206e6f7220617070726f76656420666f7220616c6c00000000000000006064820152608401610522565b6106588383610eb2565b505050565b6106673382610f20565b6106835760405162461bcd60e51b815260040161052290611f57565b610658838383611006565b6000828152600760205260409020600101546106aa81336111a2565b6106588383611206565b6001600160a01b03811633146107245760405162461bcd60e51b815260206004820152602f60248201527f416363657373436f6e74726f6c3a2063616e206f6e6c792072656e6f756e636560448201526e103937b632b9903337b91039b2b63360891b6064820152608401610522565b61072e828261128c565b5050565b61065883838360405180602001604052806000815250610c83565b6000818152600260205260408120546001600160a01b0316806104225760405162461bcd60e51b815260206004820152602960248201527f4552433732313a206f776e657220717565727920666f72206e6f6e657869737460448201526832b73a103a37b5b2b760b91b6064820152608401610522565b60006001600160a01b03821661082f5760405162461bcd60e51b815260206004820152602a60248201527f4552433732313a2062616c616e636520717565727920666f7220746865207a65604482015269726f206164647265737360b01b6064820152608401610522565b506001600160a01b031660009081526003602052604090205490565b60008051602061222583398151915261086481336111a2565b600854600160a01b900460ff161561088e5760405162461bcd60e51b815260040161052290611fa8565b82516108a190600a906020860190611a81565b50811561065857610658610c01565b60006000805160206122258339815191526108cb81336111a2565b6108d585856112f3565b6108df848461130d565b50919392505050565b60009182526007602090815260408084206001600160a01b0393909316845291905290205460ff1690565b60606001805461043790611f1c565b61072e338383611398565b60008051602061222583398151915261094681336111a2565b61094f84610e95565b6109af5760405162461bcd60e51b815260206004820152602b60248201527f4e46543a207570646174652055524920717565727920666f72206e6f6e65786960448201526a39ba32b73a103a37b5b2b760a91b6064820152608401610522565b600854600160a01b900460ff1615610a155760405162461bcd60e51b815260206004820152602360248201527f4e46543a20546f6b656e2075726973206172652066726f7a656e20676c6f62616044820152626c6c7960e81b6064820152608401610522565b60008481526009602052604090205460ff16151560011415610a705760405162461bcd60e51b815260206004820152601460248201527327232a1d102a37b5b2b71034b990333937bd32b760611b6044820152606401610522565b8180610a7c5750825115155b610aee5760405162461bcd60e51b815260206004820152603860248201527f4e46543a20456974686572205f746f6b656e557269206f72205f69734672656560448201527f7a65546f6b656e5572693d7472756520726571756972656400000000000000006064820152608401610522565b825115610b9b57610afd611467565b83604051602001610b0f929190611fea565b60405160208183030381529060405280519060200120610b2e85610cb5565b805190602001201415610b915760405162461bcd60e51b815260206004820152602560248201527f4e46543a204e657720746f6b656e205552492069732073616d6520617320757060448201526419185d195960da1b6064820152608401610522565b610b9b848461130d565b8115610bfb576000848152600960205260409020805460ff19166001179055837fa109ba539900bf1b633f956d63c96fc89b814c7287f7aa50a9216d0b55657207610be582610cb5565b604051610bf29190611ba8565b60405180910390a25b50505050565b600080516020612225833981519152610c1a81336111a2565b600854600160a01b900460ff1615610c445760405162461bcd60e51b815260040161052290611fa8565b6008805460ff60a01b1916600160a01b1790556040517fb59f45df38ec0d34114b1248c38a29cdbccbf3e745ae3ef310ac66199a4ceccf90600090a150565b610c8d3383610f20565b610ca95760405162461bcd60e51b815260040161052290611f57565b610bfb84848484611476565b6060610cc082610e95565b610d265760405162461bcd60e51b815260206004820152603160248201527f45524337323155524953746f726167653a2055524920717565727920666f72206044820152703737b732bc34b9ba32b73a103a37b5b2b760791b6064820152608401610522565b60008281526006602052604081208054610d3f90611f1c565b80601f0160208091040260200160405190810160405280929190818152602001828054610d6b90611f1c565b8015610db85780601f10610d8d57610100808354040283529160200191610db8565b820191906000526020600020905b815481529060010190602001808311610d9b57829003601f168201915b505050505090506000610dc9611467565b9050805160001415610ddc575092915050565b815115610e0e578082604051602001610df6929190611fea565b60405160208183030381529060405292505050919050565b610e17846114a9565b949350505050565b600082815260076020526040902060010154610e3b81336111a2565b610658838361128c565b60006001600160e01b031982166380ac58cd60e01b1480610e7657506001600160e01b03198216635b5e139f60e01b145b8061042257506301ffc9a760e01b6001600160e01b0319831614610422565b6000908152600260205260409020546001600160a01b0316151590565b600081815260046020526040902080546001600160a01b0319166001600160a01b0384169081179091558190610ee78261074d565b6001600160a01b03167f8c5be1e5ebec7d5bd14f71427d1e84f3dd0314c0f7b2291e5b200ac8c7c3b92560405160405180910390a45050565b6000610f2b82610e95565b610f8c5760405162461bcd60e51b815260206004820152602c60248201527f4552433732313a206f70657261746f7220717565727920666f72206e6f6e657860448201526b34b9ba32b73a103a37b5b2b760a11b6064820152608401610522565b6000610f978361074d565b9050806001600160a01b0316846001600160a01b03161480610fd25750836001600160a01b0316610fc7846104ba565b6001600160a01b0316145b80610e1757506001600160a01b0380821660009081526005602090815260408083209388168352929052205460ff16610e17565b826001600160a01b03166110198261074d565b6001600160a01b03161461107d5760405162461bcd60e51b815260206004820152602560248201527f4552433732313a207472616e736665722066726f6d20696e636f72726563742060448201526437bbb732b960d91b6064820152608401610522565b6001600160a01b0382166110df5760405162461bcd60e51b8152602060048201526024808201527f4552433732313a207472616e7366657220746f20746865207a65726f206164646044820152637265737360e01b6064820152608401610522565b6110ea600082610eb2565b6001600160a01b038316600090815260036020526040812080546001929061111390849061202f565b90915550506001600160a01b0382166000908152600360205260408120805460019290611141908490612046565b909155505060008181526002602052604080822080546001600160a01b0319166001600160a01b0386811691821790925591518493918716917fddf252ad1be2c89b69c2b068fc378daa952ba7f163c4a11628f55a4df523b3ef91a4505050565b6111ac82826108e8565b61072e576111c4816001600160a01b03166014611574565b6111cf836020611574565b6040516020016111e092919061205e565b60408051601f198184030181529082905262461bcd60e51b825261052291600401611ba8565b61121082826108e8565b61072e5760008281526007602090815260408083206001600160a01b03851684529091529020805460ff191660011790556112483390565b6001600160a01b0316816001600160a01b0316837f2f8788117e7eff1d82e926ec794901d17c78024a50270940304540a733656f0d60405160405180910390a45050565b61129682826108e8565b1561072e5760008281526007602090815260408083206001600160a01b0385168085529252808320805460ff1916905551339285917ff6391f5c32d9c69d2a47ea670b442974b53935d1edc7fd64eb21e047a839171b9190a45050565b61072e828260405180602001604052806000815250611710565b61131682610e95565b6113795760405162461bcd60e51b815260206004820152602e60248201527f45524337323155524953746f726167653a2055524920736574206f66206e6f6e60448201526d32bc34b9ba32b73a103a37b5b2b760911b6064820152608401610522565b6000828152600660209081526040909120825161065892840190611a81565b816001600160a01b0316836001600160a01b031614156113fa5760405162461bcd60e51b815260206004820152601960248201527f4552433732313a20617070726f766520746f2063616c6c6572000000000000006044820152606401610522565b6001600160a01b03838116600081815260056020908152604080832094871680845294825291829020805460ff191686151590811790915591519182527f17307eab39ab6107e8899845ad3d59bd9653f200f220920489ca2b5937696c31910160405180910390a3505050565b6060600a805461043790611f1c565b611481848484611006565b61148d84848484611743565b610bfb5760405162461bcd60e51b8152600401610522906120d3565b60606114b482610e95565b6115185760405162461bcd60e51b815260206004820152602f60248201527f4552433732314d657461646174613a2055524920717565727920666f72206e6f60448201526e3732bc34b9ba32b73a103a37b5b2b760891b6064820152608401610522565b6000611522611467565b90506000815111611542576040518060200160405280600081525061156d565b8061154c84611850565b60405160200161155d929190611fea565b6040516020818303038152906040525b9392505050565b60606000611583836002612125565b61158e906002612046565b67ffffffffffffffff8111156115a6576115a6611c9d565b6040519080825280601f01601f1916602001820160405280156115d0576020820181803683370190505b509050600360fc1b816000815181106115eb576115eb612144565b60200101906001600160f81b031916908160001a905350600f60fb1b8160018151811061161a5761161a612144565b60200101906001600160f81b031916908160001a905350600061163e846002612125565b611649906001612046565b90505b60018111156116c1576f181899199a1a9b1b9c1cb0b131b232b360811b85600f166010811061167d5761167d612144565b1a60f81b82828151811061169357611693612144565b60200101906001600160f81b031916908160001a90535060049490941c936116ba8161215a565b905061164c565b50831561156d5760405162461bcd60e51b815260206004820181905260248201527f537472696e67733a20686578206c656e67746820696e73756666696369656e746044820152606401610522565b61171a838361194e565b6117276000848484611743565b6106585760405162461bcd60e51b8152600401610522906120d3565b60006001600160a01b0384163b1561184557604051630a85bd0160e11b81526001600160a01b0385169063150b7a0290611787903390899088908890600401612171565b602060405180830381600087803b1580156117a157600080fd5b505af19250505080156117d1575060408051601f3d908101601f191682019092526117ce918101906121ae565b60015b61182b573d8080156117ff576040519150601f19603f3d011682016040523d82523d6000602084013e611804565b606091505b5080516118235760405162461bcd60e51b8152600401610522906120d3565b805181602001fd5b6001600160e01b031916630a85bd0160e11b149050610e17565b506001949350505050565b6060816118745750506040805180820190915260018152600360fc1b602082015290565b8160005b811561189e5780611888816121cb565b91506118979050600a836121fc565b9150611878565b60008167ffffffffffffffff8111156118b9576118b9611c9d565b6040519080825280601f01601f1916602001820160405280156118e3576020820181803683370190505b5090505b8415610e17576118f860018361202f565b9150611905600a86612210565b611910906030612046565b60f81b81838151811061192557611925612144565b60200101906001600160f81b031916908160001a905350611947600a866121fc565b94506118e7565b6001600160a01b0382166119a45760405162461bcd60e51b815260206004820181905260248201527f4552433732313a206d696e7420746f20746865207a65726f20616464726573736044820152606401610522565b6119ad81610e95565b156119fa5760405162461bcd60e51b815260206004820152601c60248201527f4552433732313a20746f6b656e20616c7265616479206d696e746564000000006044820152606401610522565b6001600160a01b0382166000908152600360205260408120805460019290611a23908490612046565b909155505060008181526002602052604080822080546001600160a01b0319166001600160a01b03861690811790915590518392907fddf252ad1be2c89b69c2b068fc378daa952ba7f163c4a11628f55a4df523b3ef908290a45050565b828054611a8d90611f1c565b90600052602060002090601f016020900481019282611aaf5760008555611af5565b82601f10611ac857805160ff1916838001178555611af5565b82800160010185558215611af5579182015b82811115611af5578251825591602001919060010190611ada565b50611b01929150611b05565b5090565b5b80821115611b015760008155600101611b06565b6001600160e01b031981168114611b3057600080fd5b50565b600060208284031215611b4557600080fd5b813561156d81611b1a565b60005b83811015611b6b578181015183820152602001611b53565b83811115610bfb5750506000910152565b60008151808452611b94816020860160208601611b50565b601f01601f19169290920160200192915050565b60208152600061156d6020830184611b7c565b600060208284031215611bcd57600080fd5b5035919050565b80356001600160a01b0381168114611beb57600080fd5b919050565b60008060408385031215611c0357600080fd5b611c0c83611bd4565b946020939093013593505050565b600080600060608486031215611c2f57600080fd5b611c3884611bd4565b9250611c4660208501611bd4565b9150604084013590509250925092565b60008060408385031215611c6957600080fd5b82359150611c7960208401611bd4565b90509250929050565b600060208284031215611c9457600080fd5b61156d82611bd4565b634e487b7160e01b600052604160045260246000fd5b600067ffffffffffffffff80841115611cce57611cce611c9d565b604051601f8501601f19908116603f01168101908282118183101715611cf657611cf6611c9d565b81604052809350858152868686011115611d0f57600080fd5b858560208301376000602087830101525050509392505050565b600082601f830112611d3a57600080fd5b61156d83833560208501611cb3565b80358015158114611beb57600080fd5b60008060408385031215611d6c57600080fd5b823567ffffffffffffffff811115611d8357600080fd5b611d8f85828601611d29565b925050611c7960208401611d49565b600080600060608486031215611db357600080fd5b611dbc84611bd4565b925060208401359150604084013567ffffffffffffffff811115611ddf57600080fd5b611deb86828701611d29565b9150509250925092565b60008060408385031215611e0857600080fd5b611e1183611bd4565b9150611c7960208401611d49565b600080600060608486031215611e3457600080fd5b83359250602084013567ffffffffffffffff811115611e5257600080fd5b611e5e86828701611d29565b925050611e6d60408501611d49565b90509250925092565b60008060008060808587031215611e8c57600080fd5b611e9585611bd4565b9350611ea360208601611bd4565b925060408501359150606085013567ffffffffffffffff811115611ec657600080fd5b8501601f81018713611ed757600080fd5b611ee687823560208401611cb3565b91505092959194509250565b60008060408385031215611f0557600080fd5b611f0e83611bd4565b9150611c7960208401611bd4565b600181811c90821680611f3057607f821691505b60208210811415611f5157634e487b7160e01b600052602260045260246000fd5b50919050565b60208082526031908201527f4552433732313a207472616e736665722063616c6c6572206973206e6f74206f6040820152701ddb995c881b9bdc88185c1c1c9bdd9959607a1b606082015260800190565b60208082526022908201527f4e46543a20546f6b656e20757269732061726520616c72656164792066726f7a60408201526132b760f11b606082015260800190565b60008351611ffc818460208801611b50565b835190830190612010818360208801611b50565b01949350505050565b634e487b7160e01b600052601160045260246000fd5b60008282101561204157612041612019565b500390565b6000821982111561205957612059612019565b500190565b7f416363657373436f6e74726f6c3a206163636f756e7420000000000000000000815260008351612096816017850160208801611b50565b7001034b99036b4b9b9b4b733903937b6329607d1b60179184019182015283516120c7816028840160208801611b50565b01602801949350505050565b60208082526032908201527f4552433732313a207472616e7366657220746f206e6f6e20455243373231526560408201527131b2b4bb32b91034b6b83632b6b2b73a32b960711b606082015260800190565b600081600019048311821515161561213f5761213f612019565b500290565b634e487b7160e01b600052603260045260246000fd5b60008161216957612169612019565b506000190190565b6001600160a01b03858116825284166020820152604081018390526080606082018190526000906121a490830184611b7c565b9695505050505050565b6000602082840312156121c057600080fd5b815161156d81611b1a565b60006000198214156121df576121df612019565b5060010190565b634e487b7160e01b600052601260045260246000fd5b60008261220b5761220b6121e6565b500490565b60008261221f5761221f6121e6565b50069056fe9f2df0fed2c77648de5860a4cc508cd0818c85b8b8a1ab4ceeef8d981c8956a6a2646970667358221220b34e64f2f5e7d1507f3e49158b4078fa7ac4f6fab68664149528227a07ba98bb64736f6c634300080900339f2df0fed2c77648de5860a4cc508cd0818c85b8b8a1ab4ceeef8d981c8956a6",
  "devdoc": {
    "kind": "dev",
    "methods": {
      "approve(address,uint256)": {
        "details": "See {IERC721-approve}."
      },
      "balanceOf(address)": {
        "details": "See {IERC721-balanceOf}."
      },
      "getApproved(uint256)": {
        "details": "See {IERC721-getApproved}."
      },
      "getRoleAdmin(bytes32)": {
        "details": "Returns the admin role that controls `role`. See {grantRole} and {revokeRole}. To change a role's admin, use {_setRoleAdmin}."
      },
      "grantRole(bytes32,address)": {
        "details": "Grants `role` to `account`. If `account` had not been already granted `role`, emits a {RoleGranted} event. Requirements: - the caller must have ``role``'s admin role."
      },
      "hasRole(bytes32,address)": {
        "details": "Returns `true` if `account` has been granted `role`."
      },
      "isApprovedForAll(address,address)": {
        "details": "See {IERC721-isApprovedForAll}."
      },
      "name()": {
        "details": "See {IERC721Metadata-name}."
      },
      "ownerOf(uint256)": {
        "details": "See {IERC721-ownerOf}."
      },
      "renounceRole(bytes32,address)": {
        "details": "Revokes `role` from the calling account. Roles are often managed via {grantRole} and {revokeRole}: this function's purpose is to provide a mechanism for accounts to lose their privileges if they are compromised (such as when a trusted device is misplaced). If the calling account had been revoked `role`, emits a {RoleRevoked} event. Requirements: - the caller must be `account`."
      },
      "revokeRole(bytes32,address)": {
        "details": "Revokes `role` from `account`. If `account` had been granted `role`, emits a {RoleRevoked} event. Requirements: - the caller must have ``role``'s admin role."
      },
      "safeTransferFrom(address,address,uint256)": {
        "details": "See {IERC721-safeTransferFrom}."
      },
      "safeTransferFrom(address,address,uint256,bytes)": {
        "details": "See {IERC721-safeTransferFrom}."
      },
      "setApprovalForAll(address,bool)": {
        "details": "See {IERC721-setApprovalForAll}."
      },
      "symbol()": {
        "details": "See {IERC721Metadata-symbol}."
      },
      "tokenURI(uint256)": {
        "details": "See {IERC721Metadata-tokenURI}."
      },
      "transferFrom(address,address,uint256)": {
        "details": "See {IERC721-transferFrom}."
      }
    },
    "version": 1
  },
  "userdoc": {
    "kind": "user",
    "methods": {},
    "version": 1
  },
  "storageLayout": {
    "storage": [
      {
        "astId": 1882,
        "contract": "contracts/products/5_custom_token_id_access_rights_updatable_base_uri.sol:CustomTokenIdAccessRightsUpdatableBaseURI",
        "label": "_name",
        "offset": 0,
        "slot": "0",
        "type": "t_string_storage"
      },
      {
        "astId": 1884,
        "contract": "contracts/products/5_custom_token_id_access_rights_updatable_base_uri.sol:CustomTokenIdAccessRightsUpdatableBaseURI",
        "label": "_symbol",
        "offset": 0,
        "slot": "1",
        "type": "t_string_storage"
      },
      {
        "astId": 1888,
        "contract": "contracts/products/5_custom_token_id_access_rights_updatable_base_uri.sol:CustomTokenIdAccessRightsUpdatableBaseURI",
        "label": "_owners",
        "offset": 0,
        "slot": "2",
        "type": "t_mapping(t_uint256,t_address)"
      },
      {
        "astId": 1892,
        "contract": "contracts/products/5_custom_token_id_access_rights_updatable_base_uri.sol:CustomTokenIdAccessRightsUpdatableBaseURI",
        "label": "_balances",
        "offset": 0,
        "slot": "3",
        "type": "t_mapping(t_address,t_uint256)"
      },
      {
        "astId": 1896,
        "contract": "contracts/products/5_custom_token_id_access_rights_updatable_base_uri.sol:CustomTokenIdAccessRightsUpdatableBaseURI",
        "label": "_tokenApprovals",
        "offset": 0,
        "slot": "4",
        "type": "t_mapping(t_uint256,t_address)"
      },
      {
        "astId": 1902,
        "contract": "contracts/products/5_custom_token_id_access_rights_updatable_base_uri.sol:CustomTokenIdAccessRightsUpdatableBaseURI",
        "label": "_operatorApprovals",
        "offset": 0,
        "slot": "5",
        "type": "t_mapping(t_address,t_mapping(t_address,t_bool))"
      },
      {
        "astId": 3207,
        "contract": "contracts/products/5_custom_token_id_access_rights_updatable_base_uri.sol:CustomTokenIdAccessRightsUpdatableBaseURI",
        "label": "_tokenURIs",
        "offset": 0,
        "slot": "6",
        "type": "t_mapping(t_uint256,t_string_storage)"
      },
      {
        "astId": 24,
        "contract": "contracts/products/5_custom_token_id_access_rights_updatable_base_uri.sol:CustomTokenIdAccessRightsUpdatableBaseURI",
        "label": "_roles",
        "offset": 0,
        "slot": "7",
        "type": "t_mapping(t_bytes32,t_struct(RoleData)19_storage)"
      },
      {
        "astId": 8732,
        "contract": "contracts/products/5_custom_token_id_access_rights_updatable_base_uri.sol:CustomTokenIdAccessRightsUpdatableBaseURI",
        "label": "_owner",
        "offset": 0,
        "slot": "8",
        "type": "t_address"
      },
      {
        "astId": 8734,
        "contract": "contracts/products/5_custom_token_id_access_rights_updatable_base_uri.sol:CustomTokenIdAccessRightsUpdatableBaseURI",
        "label": "isFreezeTokenUris",
        "offset": 20,
        "slot": "8",
        "type": "t_bool"
      },
      {
        "astId": 8738,
        "contract": "contracts/products/5_custom_token_id_access_rights_updatable_base_uri.sol:CustomTokenIdAccessRightsUpdatableBaseURI",
        "label": "freezeTokenUris",
        "offset": 0,
        "slot": "9",
        "type": "t_mapping(t_uint256,t_bool)"
      },
      {
        "astId": 8740,
        "contract": "contracts/products/5_custom_token_id_access_rights_updatable_base_uri.sol:CustomTokenIdAccessRightsUpdatableBaseURI",
        "label": "baseURI",
        "offset": 0,
        "slot": "10",
        "type": "t_string_storage"
      }
    ],
    "types": {
      "t_address": {
        "encoding": "inplace",
        "label": "address",
        "numberOfBytes": "20"
      },
      "t_bool": {
        "encoding": "inplace",
        "label": "bool",
        "numberOfBytes": "1"
      },
      "t_bytes32": {
        "encoding": "inplace",
        "label": "bytes32",
        "numberOfBytes": "32"
      },
      "t_mapping(t_address,t_bool)": {
        "encoding": "mapping",
        "key": "t_address",
        "label": "mapping(address => bool)",
        "numberOfBytes": "32",
        "value": "t_bool"
      },
      "t_mapping(t_address,t_mapping(t_address,t_bool))": {
        "encoding": "mapping",
        "key": "t_address",
        "label": "mapping(address => mapping(address => bool))",
        "numberOfBytes": "32",
        "value": "t_mapping(t_address,t_bool)"
      },
      "t_mapping(t_address,t_uint256)": {
        "encoding": "mapping",
        "key": "t_address",
        "label": "mapping(address => uint256)",
        "numberOfBytes": "32",
        "value": "t_uint256"
      },
      "t_mapping(t_bytes32,t_struct(RoleData)19_storage)": {
        "encoding": "mapping",
        "key": "t_bytes32",
        "label": "mapping(bytes32 => struct AccessControl.RoleData)",
        "numberOfBytes": "32",
        "value": "t_struct(RoleData)19_storage"
      },
      "t_mapping(t_uint256,t_address)": {
        "encoding": "mapping",
        "key": "t_uint256",
        "label": "mapping(uint256 => address)",
        "numberOfBytes": "32",
        "value": "t_address"
      },
      "t_mapping(t_uint256,t_bool)": {
        "encoding": "mapping",
        "key": "t_uint256",
        "label": "mapping(uint256 => bool)",
        "numberOfBytes": "32",
        "value": "t_bool"
      },
      "t_mapping(t_uint256,t_string_storage)": {
        "encoding": "mapping",
        "key": "t_uint256",
        "label": "mapping(uint256 => string)",
        "numberOfBytes": "32",
        "value": "t_string_storage"
      },
      "t_string_storage": {
        "encoding": "bytes",
        "label": "string",
        "numberOfBytes": "32"
      },
      "t_struct(RoleData)19_storage": {
        "encoding": "inplace",
        "label": "struct AccessControl.RoleData",
        "members": [
          {
            "astId": 16,
            "contract": "contracts/products/5_custom_token_id_access_rights_updatable_base_uri.sol:CustomTokenIdAccessRightsUpdatableBaseURI",
            "label": "members",
            "offset": 0,
            "slot": "0",
            "type": "t_mapping(t_address,t_bool)"
          },
          {
            "astId": 18,
            "contract": "contracts/products/5_custom_token_id_access_rights_updatable_base_uri.sol:CustomTokenIdAccessRightsUpdatableBaseURI",
            "label": "adminRole",
            "offset": 0,
            "slot": "1",
            "type": "t_bytes32"
          }
        ],
        "numberOfBytes": "64"
      },
      "t_uint256": {
        "encoding": "inplace",
        "label": "uint256",
        "numberOfBytes": "32"
      }
    }
  }
}