{
  "address": "0xE173F33FA105BF7a5fe6D6a3f02216EAcb92d9B1",
  "abi": [
    {
      "inputs": [
        {
          "internalType": "string",
          "name": "_name",
          "type": "string"
        },
        {
          "internalType": "string",
          "name": "_symbol",
          "type": "string"
        },
        {
          "internalType": "address",
          "name": "owner",
          "type": "address"
        },
        {
          "internalType": "bool",
          "name": "_metadataUpdatable",
          "type": "bool"
        },
        {
          "internalType": "bool",
          "name": "_tokensBurnable",
          "type": "bool"
        },
        {
          "internalType": "bool",
          "name": "_tokensTransferable",
          "type": "bool"
        },
        {
          "internalType": "string",
          "name": "_initBaseURI",
          "type": "string"
        }
      ],
      "stateMutability": "nonpayable",
      "type": "constructor"
    },
    {
      "anonymous": false,
      "inputs": [
        {
          "indexed": true,
          "internalType": "address",
          "name": "owner",
          "type": "address"
        },
        {
          "indexed": true,
          "internalType": "address",
          "name": "approved",
          "type": "address"
        },
        {
          "indexed": true,
          "internalType": "uint256",
          "name": "tokenId",
          "type": "uint256"
        }
      ],
      "name": "Approval",
      "type": "event"
    },
    {
      "anonymous": false,
      "inputs": [
        {
          "indexed": true,
          "internalType": "address",
          "name": "owner",
          "type": "address"
        },
        {
          "indexed": true,
          "internalType": "address",
          "name": "operator",
          "type": "address"
        },
        {
          "indexed": false,
          "internalType": "bool",
          "name": "approved",
          "type": "bool"
        }
      ],
      "name": "ApprovalForAll",
      "type": "event"
    },
    {
      "anonymous": false,
      "inputs": [
        {
          "indexed": false,
          "internalType": "string",
          "name": "_value",
          "type": "string"
        },
        {
          "indexed": true,
          "internalType": "uint256",
          "name": "_id",
          "type": "uint256"
        }
      ],
      "name": "PermanentURI",
      "type": "event"
    },
    {
      "anonymous": false,
      "inputs": [],
      "name": "PermanentURIGlobal",
      "type": "event"
    },
    {
      "anonymous": false,
      "inputs": [
        {
          "indexed": true,
          "internalType": "bytes32",
          "name": "role",
          "type": "bytes32"
        },
        {
          "indexed": true,
          "internalType": "bytes32",
          "name": "previousAdminRole",
          "type": "bytes32"
        },
        {
          "indexed": true,
          "internalType": "bytes32",
          "name": "newAdminRole",
          "type": "bytes32"
        }
      ],
      "name": "RoleAdminChanged",
      "type": "event"
    },
    {
      "anonymous": false,
      "inputs": [
        {
          "indexed": true,
          "internalType": "bytes32",
          "name": "role",
          "type": "bytes32"
        },
        {
          "indexed": true,
          "internalType": "address",
          "name": "account",
          "type": "address"
        },
        {
          "indexed": true,
          "internalType": "address",
          "name": "sender",
          "type": "address"
        }
      ],
      "name": "RoleGranted",
      "type": "event"
    },
    {
      "anonymous": false,
      "inputs": [
        {
          "indexed": true,
          "internalType": "bytes32",
          "name": "role",
          "type": "bytes32"
        },
        {
          "indexed": true,
          "internalType": "address",
          "name": "account",
          "type": "address"
        },
        {
          "indexed": true,
          "internalType": "address",
          "name": "sender",
          "type": "address"
        }
      ],
      "name": "RoleRevoked",
      "type": "event"
    },
    {
      "anonymous": false,
      "inputs": [
        {
          "indexed": true,
          "internalType": "address",
          "name": "from",
          "type": "address"
        },
        {
          "indexed": true,
          "internalType": "address",
          "name": "to",
          "type": "address"
        },
        {
          "indexed": true,
          "internalType": "uint256",
          "name": "tokenId",
          "type": "uint256"
        }
      ],
      "name": "Transfer",
      "type": "event"
    },
    {
      "inputs": [],
      "name": "DEFAULT_ADMIN_ROLE",
      "outputs": [
        {
          "internalType": "bytes32",
          "name": "",
          "type": "bytes32"
        }
      ],
      "stateMutability": "view",
      "type": "function"
    },
    {
      "inputs": [],
      "name": "MINTER_ROLE",
      "outputs": [
        {
          "internalType": "bytes32",
          "name": "",
          "type": "bytes32"
        }
      ],
      "stateMutability": "view",
      "type": "function"
    },
    {
      "inputs": [
        {
          "internalType": "address",
          "name": "to",
          "type": "address"
        },
        {
          "internalType": "uint256",
          "name": "tokenId",
          "type": "uint256"
        }
      ],
      "name": "approve",
      "outputs": [],
      "stateMutability": "nonpayable",
      "type": "function"
    },
    {
      "inputs": [
        {
          "internalType": "address",
          "name": "owner",
          "type": "address"
        }
      ],
      "name": "balanceOf",
      "outputs": [
        {
          "internalType": "uint256",
          "name": "",
          "type": "uint256"
        }
      ],
      "stateMutability": "view",
      "type": "function"
    },
    {
      "inputs": [],
      "name": "baseURI",
      "outputs": [
        {
          "internalType": "string",
          "name": "",
          "type": "string"
        }
      ],
      "stateMutability": "view",
      "type": "function"
    },
    {
      "inputs": [
        {
          "internalType": "uint256",
          "name": "_tokenId",
          "type": "uint256"
        }
      ],
      "name": "burn",
      "outputs": [],
      "stateMutability": "nonpayable",
      "type": "function"
    },
    {
      "inputs": [
        {
          "internalType": "uint256",
          "name": "",
          "type": "uint256"
        }
      ],
      "name": "freezeTokenUris",
      "outputs": [
        {
          "internalType": "bool",
          "name": "",
          "type": "bool"
        }
      ],
      "stateMutability": "view",
      "type": "function"
    },
    {
      "inputs": [
        {
          "internalType": "uint256",
          "name": "tokenId",
          "type": "uint256"
        }
      ],
      "name": "getApproved",
      "outputs": [
        {
          "internalType": "address",
          "name": "",
          "type": "address"
        }
      ],
      "stateMutability": "view",
      "type": "function"
    },
    {
      "inputs": [
        {
          "internalType": "bytes32",
          "name": "role",
          "type": "bytes32"
        }
      ],
      "name": "getRoleAdmin",
      "outputs": [
        {
          "internalType": "bytes32",
          "name": "",
          "type": "bytes32"
        }
      ],
      "stateMutability": "view",
      "type": "function"
    },
    {
      "inputs": [
        {
          "internalType": "bytes32",
          "name": "role",
          "type": "bytes32"
        },
        {
          "internalType": "address",
          "name": "account",
          "type": "address"
        }
      ],
      "name": "grantRole",
      "outputs": [],
      "stateMutability": "nonpayable",
      "type": "function"
    },
    {
      "inputs": [
        {
          "internalType": "bytes32",
          "name": "role",
          "type": "bytes32"
        },
        {
          "internalType": "address",
          "name": "account",
          "type": "address"
        }
      ],
      "name": "hasRole",
      "outputs": [
        {
          "internalType": "bool",
          "name": "",
          "type": "bool"
        }
      ],
      "stateMutability": "view",
      "type": "function"
    },
    {
      "inputs": [
        {
          "internalType": "address",
          "name": "owner",
          "type": "address"
        },
        {
          "internalType": "address",
          "name": "operator",
          "type": "address"
        }
      ],
      "name": "isApprovedForAll",
      "outputs": [
        {
          "internalType": "bool",
          "name": "",
          "type": "bool"
        }
      ],
      "stateMutability": "view",
      "type": "function"
    },
    {
      "inputs": [],
      "name": "metadataUpdatable",
      "outputs": [
        {
          "internalType": "bool",
          "name": "",
          "type": "bool"
        }
      ],
      "stateMutability": "view",
      "type": "function"
    },
    {
      "inputs": [
        {
          "internalType": "address",
          "name": "caller",
          "type": "address"
        },
        {
          "internalType": "uint256",
          "name": "tokenId",
          "type": "uint256"
        },
        {
          "internalType": "string",
          "name": "tokenURI",
          "type": "string"
        }
      ],
      "name": "mintToCaller",
      "outputs": [
        {
          "internalType": "uint256",
          "name": "",
          "type": "uint256"
        }
      ],
      "stateMutability": "nonpayable",
      "type": "function"
    },
    {
      "inputs": [],
      "name": "name",
      "outputs": [
        {
          "internalType": "string",
          "name": "",
          "type": "string"
        }
      ],
      "stateMutability": "view",
      "type": "function"
    },
    {
      "inputs": [],
      "name": "owner",
      "outputs": [
        {
          "internalType": "address",
          "name": "",
          "type": "address"
        }
      ],
      "stateMutability": "view",
      "type": "function"
    },
    {
      "inputs": [
        {
          "internalType": "uint256",
          "name": "tokenId",
          "type": "uint256"
        }
      ],
      "name": "ownerOf",
      "outputs": [
        {
          "internalType": "address",
          "name": "",
          "type": "address"
        }
      ],
      "stateMutability": "view",
      "type": "function"
    },
    {
      "inputs": [
        {
          "internalType": "bytes32",
          "name": "role",
          "type": "bytes32"
        },
        {
          "internalType": "address",
          "name": "account",
          "type": "address"
        }
      ],
      "name": "renounceRole",
      "outputs": [],
      "stateMutability": "nonpayable",
      "type": "function"
    },
    {
      "inputs": [
        {
          "internalType": "bytes32",
          "name": "role",
          "type": "bytes32"
        },
        {
          "internalType": "address",
          "name": "account",
          "type": "address"
        }
      ],
      "name": "revokeRole",
      "outputs": [],
      "stateMutability": "nonpayable",
      "type": "function"
    },
    {
      "inputs": [
        {
          "internalType": "address",
          "name": "from",
          "type": "address"
        },
        {
          "internalType": "address",
          "name": "to",
          "type": "address"
        },
        {
          "internalType": "uint256",
          "name": "tokenId",
          "type": "uint256"
        }
      ],
      "name": "safeTransferFrom",
      "outputs": [],
      "stateMutability": "nonpayable",
      "type": "function"
    },
    {
      "inputs": [
        {
          "internalType": "address",
          "name": "from",
          "type": "address"
        },
        {
          "internalType": "address",
          "name": "to",
          "type": "address"
        },
        {
          "internalType": "uint256",
          "name": "tokenId",
          "type": "uint256"
        },
        {
          "internalType": "bytes",
          "name": "_data",
          "type": "bytes"
        }
      ],
      "name": "safeTransferFrom",
      "outputs": [],
      "stateMutability": "nonpayable",
      "type": "function"
    },
    {
      "inputs": [
        {
          "internalType": "address",
          "name": "operator",
          "type": "address"
        },
        {
          "internalType": "bool",
          "name": "approved",
          "type": "bool"
        }
      ],
      "name": "setApprovalForAll",
      "outputs": [],
      "stateMutability": "nonpayable",
      "type": "function"
    },
    {
      "inputs": [
        {
          "internalType": "bytes4",
          "name": "interfaceId",
          "type": "bytes4"
        }
      ],
      "name": "supportsInterface",
      "outputs": [
        {
          "internalType": "bool",
          "name": "",
          "type": "bool"
        }
      ],
      "stateMutability": "view",
      "type": "function"
    },
    {
      "inputs": [],
      "name": "symbol",
      "outputs": [
        {
          "internalType": "string",
          "name": "",
          "type": "string"
        }
      ],
      "stateMutability": "view",
      "type": "function"
    },
    {
      "inputs": [
        {
          "internalType": "uint256",
          "name": "index",
          "type": "uint256"
        }
      ],
      "name": "tokenByIndex",
      "outputs": [
        {
          "internalType": "uint256",
          "name": "",
          "type": "uint256"
        }
      ],
      "stateMutability": "view",
      "type": "function"
    },
    {
      "inputs": [
        {
          "internalType": "address",
          "name": "owner",
          "type": "address"
        },
        {
          "internalType": "uint256",
          "name": "index",
          "type": "uint256"
        }
      ],
      "name": "tokenOfOwnerByIndex",
      "outputs": [
        {
          "internalType": "uint256",
          "name": "",
          "type": "uint256"
        }
      ],
      "stateMutability": "view",
      "type": "function"
    },
    {
      "inputs": [
        {
          "internalType": "uint256",
          "name": "tokenId",
          "type": "uint256"
        }
      ],
      "name": "tokenURI",
      "outputs": [
        {
          "internalType": "string",
          "name": "",
          "type": "string"
        }
      ],
      "stateMutability": "view",
      "type": "function"
    },
    {
      "inputs": [],
      "name": "tokensBurnable",
      "outputs": [
        {
          "internalType": "bool",
          "name": "",
          "type": "bool"
        }
      ],
      "stateMutability": "view",
      "type": "function"
    },
    {
      "inputs": [],
      "name": "tokensTransferable",
      "outputs": [
        {
          "internalType": "bool",
          "name": "",
          "type": "bool"
        }
      ],
      "stateMutability": "view",
      "type": "function"
    },
    {
      "inputs": [],
      "name": "totalSupply",
      "outputs": [
        {
          "internalType": "uint256",
          "name": "",
          "type": "uint256"
        }
      ],
      "stateMutability": "view",
      "type": "function"
    },
    {
      "inputs": [
        {
          "internalType": "address",
          "name": "_to",
          "type": "address"
        },
        {
          "internalType": "uint256",
          "name": "_tokenId",
          "type": "uint256"
        }
      ],
      "name": "transferByOwner",
      "outputs": [],
      "stateMutability": "nonpayable",
      "type": "function"
    },
    {
      "inputs": [
        {
          "internalType": "address",
          "name": "from",
          "type": "address"
        },
        {
          "internalType": "address",
          "name": "to",
          "type": "address"
        },
        {
          "internalType": "uint256",
          "name": "tokenId",
          "type": "uint256"
        }
      ],
      "name": "transferFrom",
      "outputs": [],
      "stateMutability": "nonpayable",
      "type": "function"
    },
    {
      "inputs": [
        {
          "internalType": "string",
          "name": "_newBaseURI",
          "type": "string"
        },
        {
          "internalType": "bool",
          "name": "_tokensTransferable",
          "type": "bool"
        },
        {
          "internalType": "bool",
          "name": "_freezeUpdates",
          "type": "bool"
        }
      ],
      "name": "update",
      "outputs": [],
      "stateMutability": "nonpayable",
      "type": "function"
    },
    {
      "inputs": [
        {
          "internalType": "uint256",
          "name": "_tokenId",
          "type": "uint256"
        },
        {
          "internalType": "string",
          "name": "_tokenUri",
          "type": "string"
        },
        {
          "internalType": "bool",
          "name": "_isFreezeTokenUri",
          "type": "bool"
        }
      ],
      "name": "updateTokenUri",
      "outputs": [],
      "stateMutability": "nonpayable",
      "type": "function"
    }
  ],
  "transactionHash": "0xfe151fb9ba816729315f3654d00dc10f7dbe64024fe2f22542ac09f7d4141762",
  "args": [
    "NFTPort",
    "NFT",
    "0x7f7631fA2C3E7b78aD8CEA99E08844440c7626f0",
    true,
    true,
    true,
    "ipfs://baseURI"
  ],
  "numDeployments": 1,
  "solcInputHash": "4e2d1ff75f938ecf476eed5bb28d701e",
  "bytecode": "0x60806040523480156200001157600080fd5b5060405162002ef738038062002ef7833981016040819052620000349162000366565b8651879087906200004d906000906020850190620001dd565b50805162000063906001906020840190620001dd565b50620000759150600090508662000129565b6200009060008051602062002ed78339815191528662000129565b620000ab60008051602062002ed78339815191523362000129565b6008805461ffff60a01b1916600160a01b8615150260ff60a81b191617600160a81b851515021760ff60b01b1916600160b01b841515021790558051620000fa90600e906020840190620001dd565b5050600880546001600160a01b0319166001600160a01b03959095169490941790935550620004909350505050565b62000135828262000139565b5050565b60008281526007602090815260408083206001600160a01b038516845290915290205460ff16620001355760008281526007602090815260408083206001600160a01b03851684529091529020805460ff19166001179055620001993390565b6001600160a01b0316816001600160a01b0316837f2f8788117e7eff1d82e926ec794901d17c78024a50270940304540a733656f0d60405160405180910390a45050565b828054620001eb9062000453565b90600052602060002090601f0160209004810192826200020f57600085556200025a565b82601f106200022a57805160ff19168380011785556200025a565b828001600101855582156200025a579182015b828111156200025a5782518255916020019190600101906200023d565b50620002689291506200026c565b5090565b5b808211156200026857600081556001016200026d565b634e487b7160e01b600052604160045260246000fd5b600082601f830112620002ab57600080fd5b81516001600160401b0380821115620002c857620002c862000283565b604051601f8301601f19908116603f01168101908282118183101715620002f357620002f362000283565b816040528381526020925086838588010111156200031057600080fd5b600091505b8382101562000334578582018301518183018401529082019062000315565b83821115620003465760008385830101525b9695505050505050565b805180151581146200036157600080fd5b919050565b600080600080600080600060e0888a0312156200038257600080fd5b87516001600160401b03808211156200039a57600080fd5b620003a88b838c0162000299565b985060208a0151915080821115620003bf57600080fd5b620003cd8b838c0162000299565b60408b015190985091506001600160a01b0382168214620003ed57600080fd5b819650620003fe60608b0162000350565b95506200040e60808b0162000350565b94506200041e60a08b0162000350565b935060c08a01519150808211156200043557600080fd5b50620004448a828b0162000299565b91505092959891949750929550565b600181811c908216806200046857607f821691505b602082108114156200048a57634e487b7160e01b600052602260045260246000fd5b50919050565b612a3780620004a06000396000f3fe608060405234801561001057600080fd5b50600436106102065760003560e01c806370a082311161011a578063a2f551ec116100ad578063d547741f1161007c578063d547741f14610462578063de374d9d14610475578063e3d5207214610489578063e985e9c51461049d578063f127ed0b146104d957600080fd5b8063a2f551ec14610414578063b88d4fde14610427578063c87b56dd1461043a578063d53913931461044d57600080fd5b806391d14854116100e957806391d14854146103de57806395d89b41146103f1578063a217fddf146103f9578063a22cb4651461040157600080fd5b806370a08231146103845780637afdcdbb146103975780638d010db3146103aa5780638da5cb5b146103cd57600080fd5b80632f2ff15d1161019d57806342966c681161016c57806342966c681461032f5780634e6f9dd6146103425780634f6ccce7146103565780636352211e146103695780636c0360eb1461037c57600080fd5b80632f2ff15d146102e35780632f745c59146102f657806336568abe1461030957806342842e0e1461031c57600080fd5b806318160ddd116101d957806318160ddd1461028857806321e92d491461029a57806323b872dd146102ad578063248a9ca3146102c057600080fd5b806301ffc9a71461020b57806306fdde0314610233578063081812fc14610248578063095ea7b314610273575b600080fd5b61021e61021936600461230c565b6104ec565b60405190151581526020015b60405180910390f35b61023b6104fd565b60405161022a9190612381565b61025b610256366004612394565b61058f565b6040516001600160a01b03909116815260200161022a565b6102866102813660046123c9565b61061c565b005b600c545b60405190815260200161022a565b6102866102a83660046123c9565b610732565b6102866102bb3660046123f3565b6107d9565b61028c6102ce366004612394565b60009081526007602052604090206001015490565b6102866102f136600461242f565b61080a565b61028c6103043660046123c9565b610830565b61028661031736600461242f565b6108bc565b61028661032a3660046123f3565b61093a565b61028661033d366004612394565b610955565b60085461021e90600160a01b900460ff1681565b61028c610364366004612394565b610aa0565b61025b610377366004612394565b610b29565b61023b610ba0565b61028c61039236600461245b565b610c2e565b61028c6103a5366004612522565b610cb5565b61021e6103b8366004612394565b60096020526000908152604090205460ff1681565b6008546001600160a01b031661025b565b61021e6103ec36600461242f565b610ced565b61023b610d18565b61028c600081565b61028661040f366004612589565b610d27565b6102866104223660046125b3565b610d32565b61028661043536600461260a565b611005565b61023b610448366004612394565b611037565b61028c6000805160206129e283398151915281565b61028661047036600461242f565b6111a1565b60085461021e90600160b01b900460ff1681565b60085461021e90600160a81b900460ff1681565b61021e6104ab366004612686565b6001600160a01b03918216600090815260056020908152604080832093909416825291909152205460ff1690565b6102866104e73660046126b0565b6111c7565b60006104f7826112a2565b92915050565b60606000805461050c90612705565b80601f016020809104026020016040519081016040528092919081815260200182805461053890612705565b80156105855780601f1061055a57610100808354040283529160200191610585565b820191906000526020600020905b81548152906001019060200180831161056857829003601f168201915b5050505050905090565b600061059a826112f2565b6106005760405162461bcd60e51b815260206004820152602c60248201527f4552433732313a20617070726f76656420717565727920666f72206e6f6e657860448201526b34b9ba32b73a103a37b5b2b760a11b60648201526084015b60405180910390fd5b506000908152600460205260409020546001600160a01b031690565b600061062782610b29565b9050806001600160a01b0316836001600160a01b031614156106955760405162461bcd60e51b815260206004820152602160248201527f4552433732313a20617070726f76616c20746f2063757272656e74206f776e656044820152603960f91b60648201526084016105f7565b336001600160a01b03821614806106b157506106b181336104ab565b6107235760405162461bcd60e51b815260206004820152603860248201527f4552433732313a20617070726f76652063616c6c6572206973206e6f74206f7760448201527f6e6572206e6f7220617070726f76656420666f7220616c6c000000000000000060648201526084016105f7565b61072d838361130f565b505050565b6000805160206129e283398151915261074b813361137d565b600854600160b01b900460ff166107b05760405162461bcd60e51b8152602060048201526024808201527f4e46543a205472616e7366657273206279206f776e6572206172652064697361604482015263189b195960e21b60648201526084016105f7565b60085460408051602081019091526000815261072d916001600160a01b031690859085906113e1565b6107e33382611414565b6107ff5760405162461bcd60e51b81526004016105f790612740565b61072d8383836114fa565b600082815260076020526040902060010154610826813361137d565b61072d83836116a1565b600061083b83610c2e565b82106108935760405162461bcd60e51b815260206004820152602160248201527f4552433732313a206f776e657220696e646578206f7574206f6620626f756e646044820152607360f81b60648201526084016105f7565b506001600160a01b03919091166000908152600a60209081526040808320938352929052205490565b6001600160a01b038116331461092c5760405162461bcd60e51b815260206004820152602f60248201527f416363657373436f6e74726f6c3a2063616e206f6e6c792072656e6f756e636560448201526e103937b632b9903337b91039b2b63360891b60648201526084016105f7565b6109368282611727565b5050565b61072d83838360405180602001604052806000815250611005565b6000805160206129e283398151915261096e813361137d565b600854600160a81b900460ff166109c75760405162461bcd60e51b815260206004820152601f60248201527f4e46543a20746f6b656e73206275726e696e672069732064697361626c65640060448201526064016105f7565b6109d0826112f2565b610a1c5760405162461bcd60e51b815260206004820152601a60248201527f4275726e20666f72206e6f6e6578697374656e7420746f6b656e00000000000060448201526064016105f7565b6008546001600160a01b0316610a3183610b29565b6001600160a01b031614610a975760405162461bcd60e51b815260206004820152602760248201527f4e46543a20746f6b656e73206d6179206265206275726e6564206279206f776e6044820152666572206f6e6c7960c81b60648201526084016105f7565b6109368261178e565b6000610aab600c5490565b8210610b045760405162461bcd60e51b815260206004820152602260248201527f4552433732313a20676c6f62616c20696e646578206f7574206f6620626f756e604482015261647360f01b60648201526084016105f7565b600c8281548110610b1757610b17612791565b90600052602060002001549050919050565b6000818152600260205260408120546001600160a01b0316806104f75760405162461bcd60e51b815260206004820152602960248201527f4552433732313a206f776e657220717565727920666f72206e6f6e657869737460448201526832b73a103a37b5b2b760b91b60648201526084016105f7565b600e8054610bad90612705565b80601f0160208091040260200160405190810160405280929190818152602001828054610bd990612705565b8015610c265780601f10610bfb57610100808354040283529160200191610c26565b820191906000526020600020905b815481529060010190602001808311610c0957829003601f168201915b505050505081565b60006001600160a01b038216610c995760405162461bcd60e51b815260206004820152602a60248201527f4552433732313a2062616c616e636520717565727920666f7220746865207a65604482015269726f206164647265737360b01b60648201526084016105f7565b506001600160a01b031660009081526003602052604090205490565b60006000805160206129e2833981519152610cd0813361137d565b610cda85856117d1565b610ce484846117eb565b50919392505050565b60009182526007602090815260408084206001600160a01b0393909316845291905290205460ff1690565b60606001805461050c90612705565b610936338383611876565b6000805160206129e2833981519152610d4b813361137d565b610d54846112f2565b610db45760405162461bcd60e51b815260206004820152602b60248201527f4e46543a207570646174652055524920717565727920666f72206e6f6e65786960448201526a39ba32b73a103a37b5b2b760a91b60648201526084016105f7565b600854600160a01b900460ff16610e195760405162461bcd60e51b815260206004820152602360248201527f4e46543a20546f6b656e2075726973206172652066726f7a656e20676c6f62616044820152626c6c7960e81b60648201526084016105f7565b60008481526009602052604090205460ff16151560011415610e745760405162461bcd60e51b815260206004820152601460248201527327232a1d102a37b5b2b71034b990333937bd32b760611b60448201526064016105f7565b8180610e805750825115155b610ef25760405162461bcd60e51b815260206004820152603860248201527f4e46543a20456974686572205f746f6b656e557269206f72205f69734672656560448201527f7a65546f6b656e5572693d74727565207265717569726564000000000000000060648201526084016105f7565b825115610f9f57610f01611945565b83604051602001610f139291906127a7565b60405160208183030381529060405280519060200120610f3285611037565b805190602001201415610f955760405162461bcd60e51b815260206004820152602560248201527f4e46543a204e657720746f6b656e205552492069732073616d6520617320757060448201526419185d195960da1b60648201526084016105f7565b610f9f84846117eb565b8115610fff576000848152600960205260409020805460ff19166001179055837fa109ba539900bf1b633f956d63c96fc89b814c7287f7aa50a9216d0b55657207610fe982611037565b604051610ff69190612381565b60405180910390a25b50505050565b61100f3383611414565b61102b5760405162461bcd60e51b81526004016105f790612740565b610fff848484846113e1565b6060611042826112f2565b6110a85760405162461bcd60e51b815260206004820152603160248201527f45524337323155524953746f726167653a2055524920717565727920666f72206044820152703737b732bc34b9ba32b73a103a37b5b2b760791b60648201526084016105f7565b600082815260066020526040812080546110c190612705565b80601f01602080910402602001604051908101604052809291908181526020018280546110ed90612705565b801561113a5780601f1061110f5761010080835404028352916020019161113a565b820191906000526020600020905b81548152906001019060200180831161111d57829003601f168201915b50505050509050600061114b611945565b905080516000141561115e575092915050565b8151156111905780826040516020016111789291906127a7565b60405160208183030381529060405292505050919050565b61119984611954565b949350505050565b6000828152600760205260409020600101546111bd813361137d565b61072d8383611727565b6000805160206129e28339815191526111e0813361137d565b600854600160a01b900460ff166112395760405162461bcd60e51b815260206004820181905260248201527f4e46543a20436f6e74726163742075706461746573206172652066726f7a656e60448201526064016105f7565b835161124c90600e906020870190612227565b5082611260576008805460ff60b01b191690555b8115610fff576008805460ff60a01b191690556040517fb59f45df38ec0d34114b1248c38a29cdbccbf3e745ae3ef310ac66199a4ceccf90600090a150505050565b60006001600160e01b031982166380ac58cd60e01b14806112d357506001600160e01b03198216635b5e139f60e01b145b806104f757506301ffc9a760e01b6001600160e01b03198316146104f7565b6000908152600260205260409020546001600160a01b0316151590565b600081815260046020526040902080546001600160a01b0319166001600160a01b038416908117909155819061134482610b29565b6001600160a01b03167f8c5be1e5ebec7d5bd14f71427d1e84f3dd0314c0f7b2291e5b200ac8c7c3b92560405160405180910390a45050565b6113878282610ced565b6109365761139f816001600160a01b03166014611a1f565b6113aa836020611a1f565b6040516020016113bb9291906127d6565b60408051601f198184030181529082905262461bcd60e51b82526105f791600401612381565b6113ec8484846114fa565b6113f884848484611bbb565b610fff5760405162461bcd60e51b81526004016105f79061284b565b600061141f826112f2565b6114805760405162461bcd60e51b815260206004820152602c60248201527f4552433732313a206f70657261746f7220717565727920666f72206e6f6e657860448201526b34b9ba32b73a103a37b5b2b760a11b60648201526084016105f7565b600061148b83610b29565b9050806001600160a01b0316846001600160a01b031614806114c65750836001600160a01b03166114bb8461058f565b6001600160a01b0316145b8061119957506001600160a01b0380821660009081526005602090815260408083209388168352929052205460ff16611199565b826001600160a01b031661150d82610b29565b6001600160a01b0316146115715760405162461bcd60e51b815260206004820152602560248201527f4552433732313a207472616e736665722066726f6d20696e636f72726563742060448201526437bbb732b960d91b60648201526084016105f7565b6001600160a01b0382166115d35760405162461bcd60e51b8152602060048201526024808201527f4552433732313a207472616e7366657220746f20746865207a65726f206164646044820152637265737360e01b60648201526084016105f7565b6115de838383611cc8565b6115e960008261130f565b6001600160a01b03831660009081526003602052604081208054600192906116129084906128b3565b90915550506001600160a01b03821660009081526003602052604081208054600192906116409084906128ca565b909155505060008181526002602052604080822080546001600160a01b0319166001600160a01b0386811691821790925591518493918716917fddf252ad1be2c89b69c2b068fc378daa952ba7f163c4a11628f55a4df523b3ef91a4505050565b6116ab8282610ced565b6109365760008281526007602090815260408083206001600160a01b03851684529091529020805460ff191660011790556116e33390565b6001600160a01b0316816001600160a01b0316837f2f8788117e7eff1d82e926ec794901d17c78024a50270940304540a733656f0d60405160405180910390a45050565b6117318282610ced565b156109365760008281526007602090815260408083206001600160a01b0385168085529252808320805460ff1916905551339285917ff6391f5c32d9c69d2a47ea670b442974b53935d1edc7fd64eb21e047a839171b9190a45050565b61179781611d80565b600081815260066020526040902080546117b090612705565b1590506117ce5760008181526006602052604081206117ce916122ab565b50565b610936828260405180602001604052806000815250611e27565b6117f4826112f2565b6118575760405162461bcd60e51b815260206004820152602e60248201527f45524337323155524953746f726167653a2055524920736574206f66206e6f6e60448201526d32bc34b9ba32b73a103a37b5b2b760911b60648201526084016105f7565b6000828152600660209081526040909120825161072d92840190612227565b816001600160a01b0316836001600160a01b031614156118d85760405162461bcd60e51b815260206004820152601960248201527f4552433732313a20617070726f766520746f2063616c6c65720000000000000060448201526064016105f7565b6001600160a01b03838116600081815260056020908152604080832094871680845294825291829020805460ff191686151590811790915591519182527f17307eab39ab6107e8899845ad3d59bd9653f200f220920489ca2b5937696c31910160405180910390a3505050565b6060600e805461050c90612705565b606061195f826112f2565b6119c35760405162461bcd60e51b815260206004820152602f60248201527f4552433732314d657461646174613a2055524920717565727920666f72206e6f60448201526e3732bc34b9ba32b73a103a37b5b2b760891b60648201526084016105f7565b60006119cd611945565b905060008151116119ed5760405180602001604052806000815250611a18565b806119f784611e5a565b604051602001611a089291906127a7565b6040516020818303038152906040525b9392505050565b60606000611a2e8360026128e2565b611a399060026128ca565b67ffffffffffffffff811115611a5157611a51612476565b6040519080825280601f01601f191660200182016040528015611a7b576020820181803683370190505b509050600360fc1b81600081518110611a9657611a96612791565b60200101906001600160f81b031916908160001a905350600f60fb1b81600181518110611ac557611ac5612791565b60200101906001600160f81b031916908160001a9053506000611ae98460026128e2565b611af49060016128ca565b90505b6001811115611b6c576f181899199a1a9b1b9c1cb0b131b232b360811b85600f1660108110611b2857611b28612791565b1a60f81b828281518110611b3e57611b3e612791565b60200101906001600160f81b031916908160001a90535060049490941c93611b6581612901565b9050611af7565b508315611a185760405162461bcd60e51b815260206004820181905260248201527f537472696e67733a20686578206c656e67746820696e73756666696369656e7460448201526064016105f7565b60006001600160a01b0384163b15611cbd57604051630a85bd0160e11b81526001600160a01b0385169063150b7a0290611bff903390899088908890600401612918565b602060405180830381600087803b158015611c1957600080fd5b505af1925050508015611c49575060408051601f3d908101601f19168201909252611c4691810190612955565b60015b611ca3573d808015611c77576040519150601f19603f3d011682016040523d82523d6000602084013e611c7c565b606091505b508051611c9b5760405162461bcd60e51b81526004016105f79061284b565b805181602001fd5b6001600160e01b031916630a85bd0160e11b149050611199565b506001949350505050565b6001600160a01b038316611d2357611d1e81600c80546000838152600d60205260408120829055600182018355919091527fdf6966c971051c3d54ec59162606531493a51404a002842f56009d7e5cf4a8c70155565b611d46565b816001600160a01b0316836001600160a01b031614611d4657611d468382611f58565b6001600160a01b038216611d5d5761072d81611ff5565b826001600160a01b0316826001600160a01b03161461072d5761072d82826120a4565b6000611d8b82610b29565b9050611d9981600084611cc8565b611da460008361130f565b6001600160a01b0381166000908152600360205260408120805460019290611dcd9084906128b3565b909155505060008281526002602052604080822080546001600160a01b0319169055518391906001600160a01b038416907fddf252ad1be2c89b69c2b068fc378daa952ba7f163c4a11628f55a4df523b3ef908390a45050565b611e3183836120e8565b611e3e6000848484611bbb565b61072d5760405162461bcd60e51b81526004016105f79061284b565b606081611e7e5750506040805180820190915260018152600360fc1b602082015290565b8160005b8115611ea85780611e9281612972565b9150611ea19050600a836129a3565b9150611e82565b60008167ffffffffffffffff811115611ec357611ec3612476565b6040519080825280601f01601f191660200182016040528015611eed576020820181803683370190505b5090505b841561119957611f026001836128b3565b9150611f0f600a866129b7565b611f1a9060306128ca565b60f81b818381518110611f2f57611f2f612791565b60200101906001600160f81b031916908160001a905350611f51600a866129a3565b9450611ef1565b60006001611f6584610c2e565b611f6f91906128b3565b6000838152600b6020526040902054909150808214611fc2576001600160a01b0384166000908152600a602090815260408083208584528252808320548484528184208190558352600b90915290208190555b506000918252600b602090815260408084208490556001600160a01b039094168352600a81528383209183525290812055565b600c54600090612007906001906128b3565b6000838152600d6020526040812054600c805493945090928490811061202f5761202f612791565b9060005260206000200154905080600c838154811061205057612050612791565b6000918252602080832090910192909255828152600d9091526040808220849055858252812055600c805480612088576120886129cb565b6001900381819060005260206000200160009055905550505050565b60006120af83610c2e565b6001600160a01b039093166000908152600a602090815260408083208684528252808320859055938252600b9052919091209190915550565b6001600160a01b03821661213e5760405162461bcd60e51b815260206004820181905260248201527f4552433732313a206d696e7420746f20746865207a65726f206164647265737360448201526064016105f7565b612147816112f2565b156121945760405162461bcd60e51b815260206004820152601c60248201527f4552433732313a20746f6b656e20616c7265616479206d696e7465640000000060448201526064016105f7565b6121a060008383611cc8565b6001600160a01b03821660009081526003602052604081208054600192906121c99084906128ca565b909155505060008181526002602052604080822080546001600160a01b0319166001600160a01b03861690811790915590518392907fddf252ad1be2c89b69c2b068fc378daa952ba7f163c4a11628f55a4df523b3ef908290a45050565b82805461223390612705565b90600052602060002090601f016020900481019282612255576000855561229b565b82601f1061226e57805160ff191683800117855561229b565b8280016001018555821561229b579182015b8281111561229b578251825591602001919060010190612280565b506122a79291506122e1565b5090565b5080546122b790612705565b6000825580601f106122c7575050565b601f0160209004906000526020600020908101906117ce91905b5b808211156122a757600081556001016122e2565b6001600160e01b0319811681146117ce57600080fd5b60006020828403121561231e57600080fd5b8135611a18816122f6565b60005b8381101561234457818101518382015260200161232c565b83811115610fff5750506000910152565b6000815180845261236d816020860160208601612329565b601f01601f19169290920160200192915050565b602081526000611a186020830184612355565b6000602082840312156123a657600080fd5b5035919050565b80356001600160a01b03811681146123c457600080fd5b919050565b600080604083850312156123dc57600080fd5b6123e5836123ad565b946020939093013593505050565b60008060006060848603121561240857600080fd5b612411846123ad565b925061241f602085016123ad565b9150604084013590509250925092565b6000806040838503121561244257600080fd5b82359150612452602084016123ad565b90509250929050565b60006020828403121561246d57600080fd5b611a18826123ad565b634e487b7160e01b600052604160045260246000fd5b600067ffffffffffffffff808411156124a7576124a7612476565b604051601f8501601f19908116603f011681019082821181831017156124cf576124cf612476565b816040528093508581528686860111156124e857600080fd5b858560208301376000602087830101525050509392505050565b600082601f83011261251357600080fd5b611a188383356020850161248c565b60008060006060848603121561253757600080fd5b612540846123ad565b925060208401359150604084013567ffffffffffffffff81111561256357600080fd5b61256f86828701612502565b9150509250925092565b803580151581146123c457600080fd5b6000806040838503121561259c57600080fd5b6125a5836123ad565b915061245260208401612579565b6000806000606084860312156125c857600080fd5b83359250602084013567ffffffffffffffff8111156125e657600080fd5b6125f286828701612502565b92505061260160408501612579565b90509250925092565b6000806000806080858703121561262057600080fd5b612629856123ad565b9350612637602086016123ad565b925060408501359150606085013567ffffffffffffffff81111561265a57600080fd5b8501601f8101871361266b57600080fd5b61267a8782356020840161248c565b91505092959194509250565b6000806040838503121561269957600080fd5b6126a2836123ad565b9150612452602084016123ad565b6000806000606084860312156126c557600080fd5b833567ffffffffffffffff8111156126dc57600080fd5b6126e886828701612502565b9350506126f760208501612579565b915061260160408501612579565b600181811c9082168061271957607f821691505b6020821081141561273a57634e487b7160e01b600052602260045260246000fd5b50919050565b60208082526031908201527f4552433732313a207472616e736665722063616c6c6572206973206e6f74206f6040820152701ddb995c881b9bdc88185c1c1c9bdd9959607a1b606082015260800190565b634e487b7160e01b600052603260045260246000fd5b600083516127b9818460208801612329565b8351908301906127cd818360208801612329565b01949350505050565b7f416363657373436f6e74726f6c3a206163636f756e742000000000000000000081526000835161280e816017850160208801612329565b7001034b99036b4b9b9b4b733903937b6329607d1b601791840191820152835161283f816028840160208801612329565b01602801949350505050565b60208082526032908201527f4552433732313a207472616e7366657220746f206e6f6e20455243373231526560408201527131b2b4bb32b91034b6b83632b6b2b73a32b960711b606082015260800190565b634e487b7160e01b600052601160045260246000fd5b6000828210156128c5576128c561289d565b500390565b600082198211156128dd576128dd61289d565b500190565b60008160001904831182151516156128fc576128fc61289d565b500290565b6000816129105761291061289d565b506000190190565b6001600160a01b038581168252841660208201526040810183905260806060820181905260009061294b90830184612355565b9695505050505050565b60006020828403121561296757600080fd5b8151611a18816122f6565b60006000198214156129865761298661289d565b5060010190565b634e487b7160e01b600052601260045260246000fd5b6000826129b2576129b261298d565b500490565b6000826129c6576129c661298d565b500690565b634e487b7160e01b600052603160045260246000fdfe9f2df0fed2c77648de5860a4cc508cd0818c85b8b8a1ab4ceeef8d981c8956a6a26469706673582212204d99b43262915b083f406e9d084f2aa3f8e7d5da174bff5413b92a60fe1c42eb64736f6c634300080900339f2df0fed2c77648de5860a4cc508cd0818c85b8b8a1ab4ceeef8d981c8956a6",
  "devdoc": {
    "kind": "dev",
    "methods": {
      "approve(address,uint256)": {
        "details": "See {IERC721-approve}."
      },
      "balanceOf(address)": {
        "details": "See {IERC721-balanceOf}."
      },
      "getApproved(uint256)": {
        "details": "See {IERC721-getApproved}."
      },
      "getRoleAdmin(bytes32)": {
        "details": "Returns the admin role that controls `role`. See {grantRole} and {revokeRole}. To change a role's admin, use {_setRoleAdmin}."
      },
      "grantRole(bytes32,address)": {
        "details": "Grants `role` to `account`. If `account` had not been already granted `role`, emits a {RoleGranted} event. Requirements: - the caller must have ``role``'s admin role."
      },
      "hasRole(bytes32,address)": {
        "details": "Returns `true` if `account` has been granted `role`."
      },
      "isApprovedForAll(address,address)": {
        "details": "See {IERC721-isApprovedForAll}."
      },
      "name()": {
        "details": "See {IERC721Metadata-name}."
      },
      "ownerOf(uint256)": {
        "details": "See {IERC721-ownerOf}."
      },
      "renounceRole(bytes32,address)": {
        "details": "Revokes `role` from the calling account. Roles are often managed via {grantRole} and {revokeRole}: this function's purpose is to provide a mechanism for accounts to lose their privileges if they are compromised (such as when a trusted device is misplaced). If the calling account had been revoked `role`, emits a {RoleRevoked} event. Requirements: - the caller must be `account`."
      },
      "revokeRole(bytes32,address)": {
        "details": "Revokes `role` from `account`. If `account` had been granted `role`, emits a {RoleRevoked} event. Requirements: - the caller must have ``role``'s admin role."
      },
      "safeTransferFrom(address,address,uint256)": {
        "details": "See {IERC721-safeTransferFrom}."
      },
      "safeTransferFrom(address,address,uint256,bytes)": {
        "details": "See {IERC721-safeTransferFrom}."
      },
      "setApprovalForAll(address,bool)": {
        "details": "See {IERC721-setApprovalForAll}."
      },
      "symbol()": {
        "details": "See {IERC721Metadata-symbol}."
      },
      "tokenURI(uint256)": {
        "details": "See {IERC721Metadata-tokenURI}."
      },
      "transferFrom(address,address,uint256)": {
        "details": "See {IERC721-transferFrom}."
      }
    },
    "version": 1
  },
  "userdoc": {
    "kind": "user",
    "methods": {},
    "version": 1
  },
  "storageLayout": {
    "storage": [
      {
        "astId": 1882,
        "contract": "contracts/products/6_custom_erc721_full.sol:CustomERC721Full",
        "label": "_name",
        "offset": 0,
        "slot": "0",
        "type": "t_string_storage"
      },
      {
        "astId": 1884,
        "contract": "contracts/products/6_custom_erc721_full.sol:CustomERC721Full",
        "label": "_symbol",
        "offset": 0,
        "slot": "1",
        "type": "t_string_storage"
      },
      {
        "astId": 1888,
        "contract": "contracts/products/6_custom_erc721_full.sol:CustomERC721Full",
        "label": "_owners",
        "offset": 0,
        "slot": "2",
        "type": "t_mapping(t_uint256,t_address)"
      },
      {
        "astId": 1892,
        "contract": "contracts/products/6_custom_erc721_full.sol:CustomERC721Full",
        "label": "_balances",
        "offset": 0,
        "slot": "3",
        "type": "t_mapping(t_address,t_uint256)"
      },
      {
        "astId": 1896,
        "contract": "contracts/products/6_custom_erc721_full.sol:CustomERC721Full",
        "label": "_tokenApprovals",
        "offset": 0,
        "slot": "4",
        "type": "t_mapping(t_uint256,t_address)"
      },
      {
        "astId": 1902,
        "contract": "contracts/products/6_custom_erc721_full.sol:CustomERC721Full",
        "label": "_operatorApprovals",
        "offset": 0,
        "slot": "5",
        "type": "t_mapping(t_address,t_mapping(t_address,t_bool))"
      },
      {
        "astId": 3207,
        "contract": "contracts/products/6_custom_erc721_full.sol:CustomERC721Full",
        "label": "_tokenURIs",
        "offset": 0,
        "slot": "6",
        "type": "t_mapping(t_uint256,t_string_storage)"
      },
      {
        "astId": 24,
        "contract": "contracts/products/6_custom_erc721_full.sol:CustomERC721Full",
        "label": "_roles",
        "offset": 0,
        "slot": "7",
        "type": "t_mapping(t_bytes32,t_struct(RoleData)19_storage)"
      },
      {
        "astId": 9028,
        "contract": "contracts/products/6_custom_erc721_full.sol:CustomERC721Full",
        "label": "_owner",
        "offset": 0,
        "slot": "8",
        "type": "t_address"
      },
      {
        "astId": 9030,
        "contract": "contracts/products/6_custom_erc721_full.sol:CustomERC721Full",
        "label": "metadataUpdatable",
        "offset": 20,
        "slot": "8",
        "type": "t_bool"
      },
      {
        "astId": 9032,
        "contract": "contracts/products/6_custom_erc721_full.sol:CustomERC721Full",
        "label": "tokensBurnable",
        "offset": 21,
        "slot": "8",
        "type": "t_bool"
      },
      {
        "astId": 9034,
        "contract": "contracts/products/6_custom_erc721_full.sol:CustomERC721Full",
        "label": "tokensTransferable",
        "offset": 22,
        "slot": "8",
        "type": "t_bool"
      },
      {
        "astId": 9038,
        "contract": "contracts/products/6_custom_erc721_full.sol:CustomERC721Full",
        "label": "freezeTokenUris",
        "offset": 0,
        "slot": "9",
        "type": "t_mapping(t_uint256,t_bool)"
      },
      {
        "astId": 9044,
        "contract": "contracts/products/6_custom_erc721_full.sol:CustomERC721Full",
        "label": "_ownedTokens",
        "offset": 0,
        "slot": "10",
        "type": "t_mapping(t_address,t_mapping(t_uint256,t_uint256))"
      },
      {
        "astId": 9048,
        "contract": "contracts/products/6_custom_erc721_full.sol:CustomERC721Full",
        "label": "_ownedTokensIndex",
        "offset": 0,
        "slot": "11",
        "type": "t_mapping(t_uint256,t_uint256)"
      },
      {
        "astId": 9051,
        "contract": "contracts/products/6_custom_erc721_full.sol:CustomERC721Full",
        "label": "_allTokens",
        "offset": 0,
        "slot": "12",
        "type": "t_array(t_uint256)dyn_storage"
      },
      {
        "astId": 9055,
        "contract": "contracts/products/6_custom_erc721_full.sol:CustomERC721Full",
        "label": "_allTokensIndex",
        "offset": 0,
        "slot": "13",
        "type": "t_mapping(t_uint256,t_uint256)"
      },
      {
        "astId": 9057,
        "contract": "contracts/products/6_custom_erc721_full.sol:CustomERC721Full",
        "label": "baseURI",
        "offset": 0,
        "slot": "14",
        "type": "t_string_storage"
      }
    ],
    "types": {
      "t_address": {
        "encoding": "inplace",
        "label": "address",
        "numberOfBytes": "20"
      },
      "t_array(t_uint256)dyn_storage": {
        "base": "t_uint256",
        "encoding": "dynamic_array",
        "label": "uint256[]",
        "numberOfBytes": "32"
      },
      "t_bool": {
        "encoding": "inplace",
        "label": "bool",
        "numberOfBytes": "1"
      },
      "t_bytes32": {
        "encoding": "inplace",
        "label": "bytes32",
        "numberOfBytes": "32"
      },
      "t_mapping(t_address,t_bool)": {
        "encoding": "mapping",
        "key": "t_address",
        "label": "mapping(address => bool)",
        "numberOfBytes": "32",
        "value": "t_bool"
      },
      "t_mapping(t_address,t_mapping(t_address,t_bool))": {
        "encoding": "mapping",
        "key": "t_address",
        "label": "mapping(address => mapping(address => bool))",
        "numberOfBytes": "32",
        "value": "t_mapping(t_address,t_bool)"
      },
      "t_mapping(t_address,t_mapping(t_uint256,t_uint256))": {
        "encoding": "mapping",
        "key": "t_address",
        "label": "mapping(address => mapping(uint256 => uint256))",
        "numberOfBytes": "32",
        "value": "t_mapping(t_uint256,t_uint256)"
      },
      "t_mapping(t_address,t_uint256)": {
        "encoding": "mapping",
        "key": "t_address",
        "label": "mapping(address => uint256)",
        "numberOfBytes": "32",
        "value": "t_uint256"
      },
      "t_mapping(t_bytes32,t_struct(RoleData)19_storage)": {
        "encoding": "mapping",
        "key": "t_bytes32",
        "label": "mapping(bytes32 => struct AccessControl.RoleData)",
        "numberOfBytes": "32",
        "value": "t_struct(RoleData)19_storage"
      },
      "t_mapping(t_uint256,t_address)": {
        "encoding": "mapping",
        "key": "t_uint256",
        "label": "mapping(uint256 => address)",
        "numberOfBytes": "32",
        "value": "t_address"
      },
      "t_mapping(t_uint256,t_bool)": {
        "encoding": "mapping",
        "key": "t_uint256",
        "label": "mapping(uint256 => bool)",
        "numberOfBytes": "32",
        "value": "t_bool"
      },
      "t_mapping(t_uint256,t_string_storage)": {
        "encoding": "mapping",
        "key": "t_uint256",
        "label": "mapping(uint256 => string)",
        "numberOfBytes": "32",
        "value": "t_string_storage"
      },
      "t_mapping(t_uint256,t_uint256)": {
        "encoding": "mapping",
        "key": "t_uint256",
        "label": "mapping(uint256 => uint256)",
        "numberOfBytes": "32",
        "value": "t_uint256"
      },
      "t_string_storage": {
        "encoding": "bytes",
        "label": "string",
        "numberOfBytes": "32"
      },
      "t_struct(RoleData)19_storage": {
        "encoding": "inplace",
        "label": "struct AccessControl.RoleData",
        "members": [
          {
            "astId": 16,
            "contract": "contracts/products/6_custom_erc721_full.sol:CustomERC721Full",
            "label": "members",
            "offset": 0,
            "slot": "0",
            "type": "t_mapping(t_address,t_bool)"
          },
          {
            "astId": 18,
            "contract": "contracts/products/6_custom_erc721_full.sol:CustomERC721Full",
            "label": "adminRole",
            "offset": 0,
            "slot": "1",
            "type": "t_bytes32"
          }
        ],
        "numberOfBytes": "64"
      },
      "t_uint256": {
        "encoding": "inplace",
        "label": "uint256",
        "numberOfBytes": "32"
      }
    }
  }
}