{
  "address": "0x1CA732f8Dc206607586297Dc7c6B5734C47AB1eF",
  "abi": [
    {
      "inputs": [
        {
          "internalType": "string",
          "name": "_name",
          "type": "string"
        },
        {
          "internalType": "string",
          "name": "_symbol",
          "type": "string"
        }
      ],
      "stateMutability": "nonpayable",
      "type": "constructor"
    },
    {
      "anonymous": false,
      "inputs": [
        {
          "indexed": true,
          "internalType": "address",
          "name": "owner",
          "type": "address"
        },
        {
          "indexed": true,
          "internalType": "address",
          "name": "approved",
          "type": "address"
        },
        {
          "indexed": true,
          "internalType": "uint256",
          "name": "tokenId",
          "type": "uint256"
        }
      ],
      "name": "Approval",
      "type": "event"
    },
    {
      "anonymous": false,
      "inputs": [
        {
          "indexed": true,
          "internalType": "address",
          "name": "owner",
          "type": "address"
        },
        {
          "indexed": true,
          "internalType": "address",
          "name": "operator",
          "type": "address"
        },
        {
          "indexed": false,
          "internalType": "bool",
          "name": "approved",
          "type": "bool"
        }
      ],
      "name": "ApprovalForAll",
      "type": "event"
    },
    {
      "anonymous": false,
      "inputs": [
        {
          "indexed": true,
          "internalType": "address",
          "name": "previousOwner",
          "type": "address"
        },
        {
          "indexed": true,
          "internalType": "address",
          "name": "newOwner",
          "type": "address"
        }
      ],
      "name": "OwnershipTransferred",
      "type": "event"
    },
    {
      "anonymous": false,
      "inputs": [
        {
          "indexed": true,
          "internalType": "address",
          "name": "from",
          "type": "address"
        },
        {
          "indexed": true,
          "internalType": "address",
          "name": "to",
          "type": "address"
        },
        {
          "indexed": true,
          "internalType": "uint256",
          "name": "tokenId",
          "type": "uint256"
        }
      ],
      "name": "Transfer",
      "type": "event"
    },
    {
      "inputs": [
        {
          "internalType": "address",
          "name": "to",
          "type": "address"
        },
        {
          "internalType": "uint256",
          "name": "tokenId",
          "type": "uint256"
        }
      ],
      "name": "approve",
      "outputs": [],
      "stateMutability": "nonpayable",
      "type": "function"
    },
    {
      "inputs": [
        {
          "internalType": "address",
          "name": "owner",
          "type": "address"
        }
      ],
      "name": "balanceOf",
      "outputs": [
        {
          "internalType": "uint256",
          "name": "",
          "type": "uint256"
        }
      ],
      "stateMutability": "view",
      "type": "function"
    },
    {
      "inputs": [
        {
          "internalType": "uint256",
          "name": "tokenId",
          "type": "uint256"
        }
      ],
      "name": "getApproved",
      "outputs": [
        {
          "internalType": "address",
          "name": "",
          "type": "address"
        }
      ],
      "stateMutability": "view",
      "type": "function"
    },
    {
      "inputs": [
        {
          "internalType": "address",
          "name": "owner",
          "type": "address"
        },
        {
          "internalType": "address",
          "name": "operator",
          "type": "address"
        }
      ],
      "name": "isApprovedForAll",
      "outputs": [
        {
          "internalType": "bool",
          "name": "",
          "type": "bool"
        }
      ],
      "stateMutability": "view",
      "type": "function"
    },
    {
      "inputs": [
        {
          "internalType": "address",
          "name": "caller",
          "type": "address"
        },
        {
          "internalType": "uint256",
          "name": "tokenId",
          "type": "uint256"
        },
        {
          "internalType": "string",
          "name": "tokenURI",
          "type": "string"
        }
      ],
      "name": "mintToCaller",
      "outputs": [
        {
          "internalType": "uint256",
          "name": "",
          "type": "uint256"
        }
      ],
      "stateMutability": "nonpayable",
      "type": "function"
    },
    {
      "inputs": [],
      "name": "name",
      "outputs": [
        {
          "internalType": "string",
          "name": "",
          "type": "string"
        }
      ],
      "stateMutability": "view",
      "type": "function"
    },
    {
      "inputs": [],
      "name": "owner",
      "outputs": [
        {
          "internalType": "address",
          "name": "",
          "type": "address"
        }
      ],
      "stateMutability": "view",
      "type": "function"
    },
    {
      "inputs": [
        {
          "internalType": "uint256",
          "name": "tokenId",
          "type": "uint256"
        }
      ],
      "name": "ownerOf",
      "outputs": [
        {
          "internalType": "address",
          "name": "",
          "type": "address"
        }
      ],
      "stateMutability": "view",
      "type": "function"
    },
    {
      "inputs": [],
      "name": "renounceOwnership",
      "outputs": [],
      "stateMutability": "nonpayable",
      "type": "function"
    },
    {
      "inputs": [
        {
          "internalType": "address",
          "name": "to",
          "type": "address"
        },
        {
          "internalType": "uint256",
          "name": "tokenId",
          "type": "uint256"
        }
      ],
      "name": "safeMint",
      "outputs": [],
      "stateMutability": "nonpayable",
      "type": "function"
    },
    {
      "inputs": [
        {
          "internalType": "address",
          "name": "from",
          "type": "address"
        },
        {
          "internalType": "address",
          "name": "to",
          "type": "address"
        },
        {
          "internalType": "uint256",
          "name": "tokenId",
          "type": "uint256"
        }
      ],
      "name": "safeTransferFrom",
      "outputs": [],
      "stateMutability": "nonpayable",
      "type": "function"
    },
    {
      "inputs": [
        {
          "internalType": "address",
          "name": "from",
          "type": "address"
        },
        {
          "internalType": "address",
          "name": "to",
          "type": "address"
        },
        {
          "internalType": "uint256",
          "name": "tokenId",
          "type": "uint256"
        },
        {
          "internalType": "bytes",
          "name": "_data",
          "type": "bytes"
        }
      ],
      "name": "safeTransferFrom",
      "outputs": [],
      "stateMutability": "nonpayable",
      "type": "function"
    },
    {
      "inputs": [
        {
          "internalType": "address",
          "name": "operator",
          "type": "address"
        },
        {
          "internalType": "bool",
          "name": "approved",
          "type": "bool"
        }
      ],
      "name": "setApprovalForAll",
      "outputs": [],
      "stateMutability": "nonpayable",
      "type": "function"
    },
    {
      "inputs": [
        {
          "internalType": "bytes4",
          "name": "interfaceId",
          "type": "bytes4"
        }
      ],
      "name": "supportsInterface",
      "outputs": [
        {
          "internalType": "bool",
          "name": "",
          "type": "bool"
        }
      ],
      "stateMutability": "view",
      "type": "function"
    },
    {
      "inputs": [],
      "name": "symbol",
      "outputs": [
        {
          "internalType": "string",
          "name": "",
          "type": "string"
        }
      ],
      "stateMutability": "view",
      "type": "function"
    },
    {
      "inputs": [
        {
          "internalType": "uint256",
          "name": "tokenId",
          "type": "uint256"
        }
      ],
      "name": "tokenURI",
      "outputs": [
        {
          "internalType": "string",
          "name": "",
          "type": "string"
        }
      ],
      "stateMutability": "view",
      "type": "function"
    },
    {
      "inputs": [
        {
          "internalType": "address",
          "name": "from",
          "type": "address"
        },
        {
          "internalType": "address",
          "name": "to",
          "type": "address"
        },
        {
          "internalType": "uint256",
          "name": "tokenId",
          "type": "uint256"
        }
      ],
      "name": "transferFrom",
      "outputs": [],
      "stateMutability": "nonpayable",
      "type": "function"
    },
    {
      "inputs": [
        {
          "internalType": "address",
          "name": "newOwner",
          "type": "address"
        }
      ],
      "name": "transferOwnership",
      "outputs": [],
      "stateMutability": "nonpayable",
      "type": "function"
    }
  ],
  "transactionHash": "0x1e362e81b16527496266fba0bf8e537806dc1c707146b88f4fc79a901f2f7118",
  "args": [
    "NFTPort",
    "NFT"
  ],
  "numDeployments": 1,
  "solcInputHash": "4e2d1ff75f938ecf476eed5bb28d701e",
  "bytecode": "0x60806040523480156200001157600080fd5b5060405162001c5938038062001c59833981016040819052620000349162000251565b8151829082906200004d906000906020850190620000de565b50805162000063906001906020840190620000de565b505050620000806200007a6200008860201b60201c565b6200008c565b5050620002f8565b3390565b600780546001600160a01b038381166001600160a01b0319831681179093556040519116919082907f8be0079c531659141344cd1fd0a4f28419497f9722a3daafe3b4186f6b6457e090600090a35050565b828054620000ec90620002bb565b90600052602060002090601f0160209004810192826200011057600085556200015b565b82601f106200012b57805160ff19168380011785556200015b565b828001600101855582156200015b579182015b828111156200015b5782518255916020019190600101906200013e565b50620001699291506200016d565b5090565b5b808211156200016957600081556001016200016e565b634e487b7160e01b600052604160045260246000fd5b600082601f830112620001ac57600080fd5b81516001600160401b0380821115620001c957620001c962000184565b604051601f8301601f19908116603f01168101908282118183101715620001f457620001f462000184565b816040528381526020925086838588010111156200021157600080fd5b600091505b8382101562000235578582018301518183018401529082019062000216565b83821115620002475760008385830101525b9695505050505050565b600080604083850312156200026557600080fd5b82516001600160401b03808211156200027d57600080fd5b6200028b868387016200019a565b93506020850151915080821115620002a257600080fd5b50620002b1858286016200019a565b9150509250929050565b600181811c90821680620002d057607f821691505b60208210811415620002f257634e487b7160e01b600052602260045260246000fd5b50919050565b61195180620003086000396000f3fe608060405234801561001057600080fd5b50600436106101165760003560e01c80637afdcdbb116100a2578063a22cb46511610071578063a22cb46514610239578063b88d4fde1461024c578063c87b56dd1461025f578063e985e9c514610272578063f2fde38b146102ae57600080fd5b80637afdcdbb146101fa5780638da5cb5b1461020d57806395d89b411461021e578063a14481941461022657600080fd5b806323b872dd116100e957806323b872dd1461019857806342842e0e146101ab5780636352211e146101be57806370a08231146101d1578063715018a6146101f257600080fd5b806301ffc9a71461011b57806306fdde0314610143578063081812fc14610158578063095ea7b314610183575b600080fd5b61012e6101293660046113ab565b6102c1565b60405190151581526020015b60405180910390f35b61014b610313565b60405161013a9190611420565b61016b610166366004611433565b6103a5565b6040516001600160a01b03909116815260200161013a565b610196610191366004611468565b610432565b005b6101966101a6366004611492565b610548565b6101966101b9366004611492565b610579565b61016b6101cc366004611433565b610594565b6101e46101df3660046114ce565b61060b565b60405190815260200161013a565b610196610692565b6101e4610208366004611575565b6106c8565b6007546001600160a01b031661016b565b61014b610711565b610196610234366004611468565b610720565b6101966102473660046115e0565b610758565b61019661025a36600461161c565b610763565b61014b61026d366004611433565b61079b565b61012e610280366004611698565b6001600160a01b03918216600090815260056020908152604080832093909416825291909152205460ff1690565b6101966102bc3660046114ce565b610912565b60006001600160e01b031982166380ac58cd60e01b14806102f257506001600160e01b03198216635b5e139f60e01b145b8061030d57506301ffc9a760e01b6001600160e01b03198316145b92915050565b606060008054610322906116cb565b80601f016020809104026020016040519081016040528092919081815260200182805461034e906116cb565b801561039b5780601f106103705761010080835404028352916020019161039b565b820191906000526020600020905b81548152906001019060200180831161037e57829003601f168201915b5050505050905090565b60006103b0826109ad565b6104165760405162461bcd60e51b815260206004820152602c60248201527f4552433732313a20617070726f76656420717565727920666f72206e6f6e657860448201526b34b9ba32b73a103a37b5b2b760a11b60648201526084015b60405180910390fd5b506000908152600460205260409020546001600160a01b031690565b600061043d82610594565b9050806001600160a01b0316836001600160a01b031614156104ab5760405162461bcd60e51b815260206004820152602160248201527f4552433732313a20617070726f76616c20746f2063757272656e74206f776e656044820152603960f91b606482015260840161040d565b336001600160a01b03821614806104c757506104c78133610280565b6105395760405162461bcd60e51b815260206004820152603860248201527f4552433732313a20617070726f76652063616c6c6572206973206e6f74206f7760448201527f6e6572206e6f7220617070726f76656420666f7220616c6c0000000000000000606482015260840161040d565b61054383836109ca565b505050565b6105523382610a38565b61056e5760405162461bcd60e51b815260040161040d90611706565b610543838383610b1e565b61054383838360405180602001604052806000815250610763565b6000818152600260205260408120546001600160a01b03168061030d5760405162461bcd60e51b815260206004820152602960248201527f4552433732313a206f776e657220717565727920666f72206e6f6e657869737460448201526832b73a103a37b5b2b760b91b606482015260840161040d565b60006001600160a01b0382166106765760405162461bcd60e51b815260206004820152602a60248201527f4552433732313a2062616c616e636520717565727920666f7220746865207a65604482015269726f206164647265737360b01b606482015260840161040d565b506001600160a01b031660009081526003602052604090205490565b6007546001600160a01b031633146106bc5760405162461bcd60e51b815260040161040d90611757565b6106c66000610cba565b565b6007546000906001600160a01b031633146106f55760405162461bcd60e51b815260040161040d90611757565b6106ff8484610d0c565b6107098383610d26565b509092915050565b606060018054610322906116cb565b6007546001600160a01b0316331461074a5760405162461bcd60e51b815260040161040d90611757565b6107548282610d0c565b5050565b610754338383610db1565b61076d3383610a38565b6107895760405162461bcd60e51b815260040161040d90611706565b61079584848484610e80565b50505050565b60606107a6826109ad565b61080c5760405162461bcd60e51b815260206004820152603160248201527f45524337323155524953746f726167653a2055524920717565727920666f72206044820152703737b732bc34b9ba32b73a103a37b5b2b760791b606482015260840161040d565b60008281526006602052604081208054610825906116cb565b80601f0160208091040260200160405190810160405280929190818152602001828054610851906116cb565b801561089e5780601f106108735761010080835404028352916020019161089e565b820191906000526020600020905b81548152906001019060200180831161088157829003601f168201915b5050505050905060006108bc60408051602081019091526000815290565b90508051600014156108cf575092915050565b8151156109015780826040516020016108e992919061178c565b60405160208183030381529060405292505050919050565b61090a84610eb3565b949350505050565b6007546001600160a01b0316331461093c5760405162461bcd60e51b815260040161040d90611757565b6001600160a01b0381166109a15760405162461bcd60e51b815260206004820152602660248201527f4f776e61626c653a206e6577206f776e657220697320746865207a65726f206160448201526564647265737360d01b606482015260840161040d565b6109aa81610cba565b50565b6000908152600260205260409020546001600160a01b0316151590565b600081815260046020526040902080546001600160a01b0319166001600160a01b03841690811790915581906109ff82610594565b6001600160a01b03167f8c5be1e5ebec7d5bd14f71427d1e84f3dd0314c0f7b2291e5b200ac8c7c3b92560405160405180910390a45050565b6000610a43826109ad565b610aa45760405162461bcd60e51b815260206004820152602c60248201527f4552433732313a206f70657261746f7220717565727920666f72206e6f6e657860448201526b34b9ba32b73a103a37b5b2b760a11b606482015260840161040d565b6000610aaf83610594565b9050806001600160a01b0316846001600160a01b03161480610aea5750836001600160a01b0316610adf846103a5565b6001600160a01b0316145b8061090a57506001600160a01b0380821660009081526005602090815260408083209388168352929052205460ff1661090a565b826001600160a01b0316610b3182610594565b6001600160a01b031614610b955760405162461bcd60e51b815260206004820152602560248201527f4552433732313a207472616e736665722066726f6d20696e636f72726563742060448201526437bbb732b960d91b606482015260840161040d565b6001600160a01b038216610bf75760405162461bcd60e51b8152602060048201526024808201527f4552433732313a207472616e7366657220746f20746865207a65726f206164646044820152637265737360e01b606482015260840161040d565b610c026000826109ca565b6001600160a01b0383166000908152600360205260408120805460019290610c2b9084906117d1565b90915550506001600160a01b0382166000908152600360205260408120805460019290610c599084906117e8565b909155505060008181526002602052604080822080546001600160a01b0319166001600160a01b0386811691821790925591518493918716917fddf252ad1be2c89b69c2b068fc378daa952ba7f163c4a11628f55a4df523b3ef91a4505050565b600780546001600160a01b038381166001600160a01b0319831681179093556040519116919082907f8be0079c531659141344cd1fd0a4f28419497f9722a3daafe3b4186f6b6457e090600090a35050565b610754828260405180602001604052806000815250610f8b565b610d2f826109ad565b610d925760405162461bcd60e51b815260206004820152602e60248201527f45524337323155524953746f726167653a2055524920736574206f66206e6f6e60448201526d32bc34b9ba32b73a103a37b5b2b760911b606482015260840161040d565b60008281526006602090815260409091208251610543928401906112fc565b816001600160a01b0316836001600160a01b03161415610e135760405162461bcd60e51b815260206004820152601960248201527f4552433732313a20617070726f766520746f2063616c6c657200000000000000604482015260640161040d565b6001600160a01b03838116600081815260056020908152604080832094871680845294825291829020805460ff191686151590811790915591519182527f17307eab39ab6107e8899845ad3d59bd9653f200f220920489ca2b5937696c31910160405180910390a3505050565b610e8b848484610b1e565b610e9784848484610fbe565b6107955760405162461bcd60e51b815260040161040d90611800565b6060610ebe826109ad565b610f225760405162461bcd60e51b815260206004820152602f60248201527f4552433732314d657461646174613a2055524920717565727920666f72206e6f60448201526e3732bc34b9ba32b73a103a37b5b2b760891b606482015260840161040d565b6000610f3960408051602081019091526000815290565b90506000815111610f595760405180602001604052806000815250610f84565b80610f63846110cb565b604051602001610f7492919061178c565b6040516020818303038152906040525b9392505050565b610f9583836111c9565b610fa26000848484610fbe565b6105435760405162461bcd60e51b815260040161040d90611800565b60006001600160a01b0384163b156110c057604051630a85bd0160e11b81526001600160a01b0385169063150b7a0290611002903390899088908890600401611852565b602060405180830381600087803b15801561101c57600080fd5b505af192505050801561104c575060408051601f3d908101601f191682019092526110499181019061188f565b60015b6110a6573d80801561107a576040519150601f19603f3d011682016040523d82523d6000602084013e61107f565b606091505b50805161109e5760405162461bcd60e51b815260040161040d90611800565b805181602001fd5b6001600160e01b031916630a85bd0160e11b14905061090a565b506001949350505050565b6060816110ef5750506040805180820190915260018152600360fc1b602082015290565b8160005b81156111195780611103816118ac565b91506111129050600a836118dd565b91506110f3565b60008167ffffffffffffffff811115611134576111346114e9565b6040519080825280601f01601f19166020018201604052801561115e576020820181803683370190505b5090505b841561090a576111736001836117d1565b9150611180600a866118f1565b61118b9060306117e8565b60f81b8183815181106111a0576111a0611905565b60200101906001600160f81b031916908160001a9053506111c2600a866118dd565b9450611162565b6001600160a01b03821661121f5760405162461bcd60e51b815260206004820181905260248201527f4552433732313a206d696e7420746f20746865207a65726f2061646472657373604482015260640161040d565b611228816109ad565b156112755760405162461bcd60e51b815260206004820152601c60248201527f4552433732313a20746f6b656e20616c7265616479206d696e74656400000000604482015260640161040d565b6001600160a01b038216600090815260036020526040812080546001929061129e9084906117e8565b909155505060008181526002602052604080822080546001600160a01b0319166001600160a01b03861690811790915590518392907fddf252ad1be2c89b69c2b068fc378daa952ba7f163c4a11628f55a4df523b3ef908290a45050565b828054611308906116cb565b90600052602060002090601f01602090048101928261132a5760008555611370565b82601f1061134357805160ff1916838001178555611370565b82800160010185558215611370579182015b82811115611370578251825591602001919060010190611355565b5061137c929150611380565b5090565b5b8082111561137c5760008155600101611381565b6001600160e01b0319811681146109aa57600080fd5b6000602082840312156113bd57600080fd5b8135610f8481611395565b60005b838110156113e35781810151838201526020016113cb565b838111156107955750506000910152565b6000815180845261140c8160208601602086016113c8565b601f01601f19169290920160200192915050565b602081526000610f8460208301846113f4565b60006020828403121561144557600080fd5b5035919050565b80356001600160a01b038116811461146357600080fd5b919050565b6000806040838503121561147b57600080fd5b6114848361144c565b946020939093013593505050565b6000806000606084860312156114a757600080fd5b6114b08461144c565b92506114be6020850161144c565b9150604084013590509250925092565b6000602082840312156114e057600080fd5b610f848261144c565b634e487b7160e01b600052604160045260246000fd5b600067ffffffffffffffff8084111561151a5761151a6114e9565b604051601f8501601f19908116603f01168101908282118183101715611542576115426114e9565b8160405280935085815286868601111561155b57600080fd5b858560208301376000602087830101525050509392505050565b60008060006060848603121561158a57600080fd5b6115938461144c565b925060208401359150604084013567ffffffffffffffff8111156115b657600080fd5b8401601f810186136115c757600080fd5b6115d6868235602084016114ff565b9150509250925092565b600080604083850312156115f357600080fd5b6115fc8361144c565b91506020830135801515811461161157600080fd5b809150509250929050565b6000806000806080858703121561163257600080fd5b61163b8561144c565b93506116496020860161144c565b925060408501359150606085013567ffffffffffffffff81111561166c57600080fd5b8501601f8101871361167d57600080fd5b61168c878235602084016114ff565b91505092959194509250565b600080604083850312156116ab57600080fd5b6116b48361144c565b91506116c26020840161144c565b90509250929050565b600181811c908216806116df57607f821691505b6020821081141561170057634e487b7160e01b600052602260045260246000fd5b50919050565b60208082526031908201527f4552433732313a207472616e736665722063616c6c6572206973206e6f74206f6040820152701ddb995c881b9bdc88185c1c1c9bdd9959607a1b606082015260800190565b6020808252818101527f4f776e61626c653a2063616c6c6572206973206e6f7420746865206f776e6572604082015260600190565b6000835161179e8184602088016113c8565b8351908301906117b28183602088016113c8565b01949350505050565b634e487b7160e01b600052601160045260246000fd5b6000828210156117e3576117e36117bb565b500390565b600082198211156117fb576117fb6117bb565b500190565b60208082526032908201527f4552433732313a207472616e7366657220746f206e6f6e20455243373231526560408201527131b2b4bb32b91034b6b83632b6b2b73a32b960711b606082015260800190565b6001600160a01b0385811682528416602082015260408101839052608060608201819052600090611885908301846113f4565b9695505050505050565b6000602082840312156118a157600080fd5b8151610f8481611395565b60006000198214156118c0576118c06117bb565b5060010190565b634e487b7160e01b600052601260045260246000fd5b6000826118ec576118ec6118c7565b500490565b600082611900576119006118c7565b500690565b634e487b7160e01b600052603260045260246000fdfea264697066735822122081a435ca6f5bd9486b84eb027ff844f52c371adbf197bd37f10f640cca2026f864736f6c63430008090033",
  "devdoc": {
    "kind": "dev",
    "methods": {
      "approve(address,uint256)": {
        "details": "See {IERC721-approve}."
      },
      "balanceOf(address)": {
        "details": "See {IERC721-balanceOf}."
      },
      "getApproved(uint256)": {
        "details": "See {IERC721-getApproved}."
      },
      "isApprovedForAll(address,address)": {
        "details": "See {IERC721-isApprovedForAll}."
      },
      "name()": {
        "details": "See {IERC721Metadata-name}."
      },
      "owner()": {
        "details": "Returns the address of the current owner."
      },
      "ownerOf(uint256)": {
        "details": "See {IERC721-ownerOf}."
      },
      "renounceOwnership()": {
        "details": "Leaves the contract without owner. It will not be possible to call `onlyOwner` functions anymore. Can only be called by the current owner. NOTE: Renouncing ownership will leave the contract without an owner, thereby removing any functionality that is only available to the owner."
      },
      "safeTransferFrom(address,address,uint256)": {
        "details": "See {IERC721-safeTransferFrom}."
      },
      "safeTransferFrom(address,address,uint256,bytes)": {
        "details": "See {IERC721-safeTransferFrom}."
      },
      "setApprovalForAll(address,bool)": {
        "details": "See {IERC721-setApprovalForAll}."
      },
      "supportsInterface(bytes4)": {
        "details": "See {IERC165-supportsInterface}."
      },
      "symbol()": {
        "details": "See {IERC721Metadata-symbol}."
      },
      "tokenURI(uint256)": {
        "details": "See {IERC721Metadata-tokenURI}."
      },
      "transferFrom(address,address,uint256)": {
        "details": "See {IERC721-transferFrom}."
      },
      "transferOwnership(address)": {
        "details": "Transfers ownership of the contract to a new account (`newOwner`). Can only be called by the current owner."
      }
    },
    "version": 1
  },
  "userdoc": {
    "kind": "user",
    "methods": {},
    "version": 1
  },
  "storageLayout": {
    "storage": [
      {
        "astId": 1882,
        "contract": "contracts/products/2_custom_token_id.sol:CustomTokenId",
        "label": "_name",
        "offset": 0,
        "slot": "0",
        "type": "t_string_storage"
      },
      {
        "astId": 1884,
        "contract": "contracts/products/2_custom_token_id.sol:CustomTokenId",
        "label": "_symbol",
        "offset": 0,
        "slot": "1",
        "type": "t_string_storage"
      },
      {
        "astId": 1888,
        "contract": "contracts/products/2_custom_token_id.sol:CustomTokenId",
        "label": "_owners",
        "offset": 0,
        "slot": "2",
        "type": "t_mapping(t_uint256,t_address)"
      },
      {
        "astId": 1892,
        "contract": "contracts/products/2_custom_token_id.sol:CustomTokenId",
        "label": "_balances",
        "offset": 0,
        "slot": "3",
        "type": "t_mapping(t_address,t_uint256)"
      },
      {
        "astId": 1896,
        "contract": "contracts/products/2_custom_token_id.sol:CustomTokenId",
        "label": "_tokenApprovals",
        "offset": 0,
        "slot": "4",
        "type": "t_mapping(t_uint256,t_address)"
      },
      {
        "astId": 1902,
        "contract": "contracts/products/2_custom_token_id.sol:CustomTokenId",
        "label": "_operatorApprovals",
        "offset": 0,
        "slot": "5",
        "type": "t_mapping(t_address,t_mapping(t_address,t_bool))"
      },
      {
        "astId": 3207,
        "contract": "contracts/products/2_custom_token_id.sol:CustomTokenId",
        "label": "_tokenURIs",
        "offset": 0,
        "slot": "6",
        "type": "t_mapping(t_uint256,t_string_storage)"
      },
      {
        "astId": 389,
        "contract": "contracts/products/2_custom_token_id.sol:CustomTokenId",
        "label": "_owner",
        "offset": 0,
        "slot": "7",
        "type": "t_address"
      }
    ],
    "types": {
      "t_address": {
        "encoding": "inplace",
        "label": "address",
        "numberOfBytes": "20"
      },
      "t_bool": {
        "encoding": "inplace",
        "label": "bool",
        "numberOfBytes": "1"
      },
      "t_mapping(t_address,t_bool)": {
        "encoding": "mapping",
        "key": "t_address",
        "label": "mapping(address => bool)",
        "numberOfBytes": "32",
        "value": "t_bool"
      },
      "t_mapping(t_address,t_mapping(t_address,t_bool))": {
        "encoding": "mapping",
        "key": "t_address",
        "label": "mapping(address => mapping(address => bool))",
        "numberOfBytes": "32",
        "value": "t_mapping(t_address,t_bool)"
      },
      "t_mapping(t_address,t_uint256)": {
        "encoding": "mapping",
        "key": "t_address",
        "label": "mapping(address => uint256)",
        "numberOfBytes": "32",
        "value": "t_uint256"
      },
      "t_mapping(t_uint256,t_address)": {
        "encoding": "mapping",
        "key": "t_uint256",
        "label": "mapping(uint256 => address)",
        "numberOfBytes": "32",
        "value": "t_address"
      },
      "t_mapping(t_uint256,t_string_storage)": {
        "encoding": "mapping",
        "key": "t_uint256",
        "label": "mapping(uint256 => string)",
        "numberOfBytes": "32",
        "value": "t_string_storage"
      },
      "t_string_storage": {
        "encoding": "bytes",
        "label": "string",
        "numberOfBytes": "32"
      },
      "t_uint256": {
        "encoding": "inplace",
        "label": "uint256",
        "numberOfBytes": "32"
      }
    }
  }
}