{
  "address": "0xD2a7328083513a12A1847B15F215088C904d5797",
  "abi": [
    {
      "inputs": [
        {
          "internalType": "string",
          "name": "_name",
          "type": "string"
        },
        {
          "internalType": "string",
          "name": "_symbol",
          "type": "string"
        },
        {
          "internalType": "address",
          "name": "owner",
          "type": "address"
        },
        {
          "internalType": "bool",
          "name": "_isFreezeTokenUris",
          "type": "bool"
        }
      ],
      "stateMutability": "nonpayable",
      "type": "constructor"
    },
    {
      "anonymous": false,
      "inputs": [
        {
          "indexed": true,
          "internalType": "address",
          "name": "owner",
          "type": "address"
        },
        {
          "indexed": true,
          "internalType": "address",
          "name": "approved",
          "type": "address"
        },
        {
          "indexed": true,
          "internalType": "uint256",
          "name": "tokenId",
          "type": "uint256"
        }
      ],
      "name": "Approval",
      "type": "event"
    },
    {
      "anonymous": false,
      "inputs": [
        {
          "indexed": true,
          "internalType": "address",
          "name": "owner",
          "type": "address"
        },
        {
          "indexed": true,
          "internalType": "address",
          "name": "operator",
          "type": "address"
        },
        {
          "indexed": false,
          "internalType": "bool",
          "name": "approved",
          "type": "bool"
        }
      ],
      "name": "ApprovalForAll",
      "type": "event"
    },
    {
      "anonymous": false,
      "inputs": [
        {
          "indexed": false,
          "internalType": "string",
          "name": "_value",
          "type": "string"
        },
        {
          "indexed": true,
          "internalType": "uint256",
          "name": "_id",
          "type": "uint256"
        }
      ],
      "name": "PermanentURI",
      "type": "event"
    },
    {
      "anonymous": false,
      "inputs": [],
      "name": "PermanentURIGlobal",
      "type": "event"
    },
    {
      "anonymous": false,
      "inputs": [
        {
          "indexed": true,
          "internalType": "bytes32",
          "name": "role",
          "type": "bytes32"
        },
        {
          "indexed": true,
          "internalType": "bytes32",
          "name": "previousAdminRole",
          "type": "bytes32"
        },
        {
          "indexed": true,
          "internalType": "bytes32",
          "name": "newAdminRole",
          "type": "bytes32"
        }
      ],
      "name": "RoleAdminChanged",
      "type": "event"
    },
    {
      "anonymous": false,
      "inputs": [
        {
          "indexed": true,
          "internalType": "bytes32",
          "name": "role",
          "type": "bytes32"
        },
        {
          "indexed": true,
          "internalType": "address",
          "name": "account",
          "type": "address"
        },
        {
          "indexed": true,
          "internalType": "address",
          "name": "sender",
          "type": "address"
        }
      ],
      "name": "RoleGranted",
      "type": "event"
    },
    {
      "anonymous": false,
      "inputs": [
        {
          "indexed": true,
          "internalType": "bytes32",
          "name": "role",
          "type": "bytes32"
        },
        {
          "indexed": true,
          "internalType": "address",
          "name": "account",
          "type": "address"
        },
        {
          "indexed": true,
          "internalType": "address",
          "name": "sender",
          "type": "address"
        }
      ],
      "name": "RoleRevoked",
      "type": "event"
    },
    {
      "anonymous": false,
      "inputs": [
        {
          "indexed": true,
          "internalType": "address",
          "name": "from",
          "type": "address"
        },
        {
          "indexed": true,
          "internalType": "address",
          "name": "to",
          "type": "address"
        },
        {
          "indexed": true,
          "internalType": "uint256",
          "name": "tokenId",
          "type": "uint256"
        }
      ],
      "name": "Transfer",
      "type": "event"
    },
    {
      "inputs": [],
      "name": "DEFAULT_ADMIN_ROLE",
      "outputs": [
        {
          "internalType": "bytes32",
          "name": "",
          "type": "bytes32"
        }
      ],
      "stateMutability": "view",
      "type": "function"
    },
    {
      "inputs": [],
      "name": "MINTER_ROLE",
      "outputs": [
        {
          "internalType": "bytes32",
          "name": "",
          "type": "bytes32"
        }
      ],
      "stateMutability": "view",
      "type": "function"
    },
    {
      "inputs": [
        {
          "internalType": "address",
          "name": "to",
          "type": "address"
        },
        {
          "internalType": "uint256",
          "name": "tokenId",
          "type": "uint256"
        }
      ],
      "name": "approve",
      "outputs": [],
      "stateMutability": "nonpayable",
      "type": "function"
    },
    {
      "inputs": [
        {
          "internalType": "address",
          "name": "owner",
          "type": "address"
        }
      ],
      "name": "balanceOf",
      "outputs": [
        {
          "internalType": "uint256",
          "name": "",
          "type": "uint256"
        }
      ],
      "stateMutability": "view",
      "type": "function"
    },
    {
      "inputs": [],
      "name": "freezeAllTokenUris",
      "outputs": [],
      "stateMutability": "nonpayable",
      "type": "function"
    },
    {
      "inputs": [
        {
          "internalType": "uint256",
          "name": "",
          "type": "uint256"
        }
      ],
      "name": "freezeTokenUris",
      "outputs": [
        {
          "internalType": "bool",
          "name": "",
          "type": "bool"
        }
      ],
      "stateMutability": "view",
      "type": "function"
    },
    {
      "inputs": [
        {
          "internalType": "uint256",
          "name": "tokenId",
          "type": "uint256"
        }
      ],
      "name": "getApproved",
      "outputs": [
        {
          "internalType": "address",
          "name": "",
          "type": "address"
        }
      ],
      "stateMutability": "view",
      "type": "function"
    },
    {
      "inputs": [
        {
          "internalType": "bytes32",
          "name": "role",
          "type": "bytes32"
        }
      ],
      "name": "getRoleAdmin",
      "outputs": [
        {
          "internalType": "bytes32",
          "name": "",
          "type": "bytes32"
        }
      ],
      "stateMutability": "view",
      "type": "function"
    },
    {
      "inputs": [
        {
          "internalType": "bytes32",
          "name": "role",
          "type": "bytes32"
        },
        {
          "internalType": "address",
          "name": "account",
          "type": "address"
        }
      ],
      "name": "grantRole",
      "outputs": [],
      "stateMutability": "nonpayable",
      "type": "function"
    },
    {
      "inputs": [
        {
          "internalType": "bytes32",
          "name": "role",
          "type": "bytes32"
        },
        {
          "internalType": "address",
          "name": "account",
          "type": "address"
        }
      ],
      "name": "hasRole",
      "outputs": [
        {
          "internalType": "bool",
          "name": "",
          "type": "bool"
        }
      ],
      "stateMutability": "view",
      "type": "function"
    },
    {
      "inputs": [
        {
          "internalType": "address",
          "name": "owner",
          "type": "address"
        },
        {
          "internalType": "address",
          "name": "operator",
          "type": "address"
        }
      ],
      "name": "isApprovedForAll",
      "outputs": [
        {
          "internalType": "bool",
          "name": "",
          "type": "bool"
        }
      ],
      "stateMutability": "view",
      "type": "function"
    },
    {
      "inputs": [],
      "name": "isFreezeTokenUris",
      "outputs": [
        {
          "internalType": "bool",
          "name": "",
          "type": "bool"
        }
      ],
      "stateMutability": "view",
      "type": "function"
    },
    {
      "inputs": [
        {
          "internalType": "address",
          "name": "caller",
          "type": "address"
        },
        {
          "internalType": "uint256",
          "name": "tokenId",
          "type": "uint256"
        },
        {
          "internalType": "string",
          "name": "tokenURI",
          "type": "string"
        }
      ],
      "name": "mintToCaller",
      "outputs": [
        {
          "internalType": "uint256",
          "name": "",
          "type": "uint256"
        }
      ],
      "stateMutability": "nonpayable",
      "type": "function"
    },
    {
      "inputs": [],
      "name": "name",
      "outputs": [
        {
          "internalType": "string",
          "name": "",
          "type": "string"
        }
      ],
      "stateMutability": "view",
      "type": "function"
    },
    {
      "inputs": [],
      "name": "owner",
      "outputs": [
        {
          "internalType": "address",
          "name": "",
          "type": "address"
        }
      ],
      "stateMutability": "view",
      "type": "function"
    },
    {
      "inputs": [
        {
          "internalType": "uint256",
          "name": "tokenId",
          "type": "uint256"
        }
      ],
      "name": "ownerOf",
      "outputs": [
        {
          "internalType": "address",
          "name": "",
          "type": "address"
        }
      ],
      "stateMutability": "view",
      "type": "function"
    },
    {
      "inputs": [
        {
          "internalType": "bytes32",
          "name": "role",
          "type": "bytes32"
        },
        {
          "internalType": "address",
          "name": "account",
          "type": "address"
        }
      ],
      "name": "renounceRole",
      "outputs": [],
      "stateMutability": "nonpayable",
      "type": "function"
    },
    {
      "inputs": [
        {
          "internalType": "bytes32",
          "name": "role",
          "type": "bytes32"
        },
        {
          "internalType": "address",
          "name": "account",
          "type": "address"
        }
      ],
      "name": "revokeRole",
      "outputs": [],
      "stateMutability": "nonpayable",
      "type": "function"
    },
    {
      "inputs": [
        {
          "internalType": "address",
          "name": "from",
          "type": "address"
        },
        {
          "internalType": "address",
          "name": "to",
          "type": "address"
        },
        {
          "internalType": "uint256",
          "name": "tokenId",
          "type": "uint256"
        }
      ],
      "name": "safeTransferFrom",
      "outputs": [],
      "stateMutability": "nonpayable",
      "type": "function"
    },
    {
      "inputs": [
        {
          "internalType": "address",
          "name": "from",
          "type": "address"
        },
        {
          "internalType": "address",
          "name": "to",
          "type": "address"
        },
        {
          "internalType": "uint256",
          "name": "tokenId",
          "type": "uint256"
        },
        {
          "internalType": "bytes",
          "name": "_data",
          "type": "bytes"
        }
      ],
      "name": "safeTransferFrom",
      "outputs": [],
      "stateMutability": "nonpayable",
      "type": "function"
    },
    {
      "inputs": [
        {
          "internalType": "address",
          "name": "operator",
          "type": "address"
        },
        {
          "internalType": "bool",
          "name": "approved",
          "type": "bool"
        }
      ],
      "name": "setApprovalForAll",
      "outputs": [],
      "stateMutability": "nonpayable",
      "type": "function"
    },
    {
      "inputs": [
        {
          "internalType": "bytes4",
          "name": "interfaceId",
          "type": "bytes4"
        }
      ],
      "name": "supportsInterface",
      "outputs": [
        {
          "internalType": "bool",
          "name": "",
          "type": "bool"
        }
      ],
      "stateMutability": "view",
      "type": "function"
    },
    {
      "inputs": [],
      "name": "symbol",
      "outputs": [
        {
          "internalType": "string",
          "name": "",
          "type": "string"
        }
      ],
      "stateMutability": "view",
      "type": "function"
    },
    {
      "inputs": [
        {
          "internalType": "uint256",
          "name": "tokenId",
          "type": "uint256"
        }
      ],
      "name": "tokenURI",
      "outputs": [
        {
          "internalType": "string",
          "name": "",
          "type": "string"
        }
      ],
      "stateMutability": "view",
      "type": "function"
    },
    {
      "inputs": [
        {
          "internalType": "address",
          "name": "from",
          "type": "address"
        },
        {
          "internalType": "address",
          "name": "to",
          "type": "address"
        },
        {
          "internalType": "uint256",
          "name": "tokenId",
          "type": "uint256"
        }
      ],
      "name": "transferFrom",
      "outputs": [],
      "stateMutability": "nonpayable",
      "type": "function"
    },
    {
      "inputs": [
        {
          "internalType": "uint256",
          "name": "_tokenId",
          "type": "uint256"
        },
        {
          "internalType": "string",
          "name": "_tokenUri",
          "type": "string"
        },
        {
          "internalType": "bool",
          "name": "_isFreezeTokenUri",
          "type": "bool"
        }
      ],
      "name": "updateTokenUri",
      "outputs": [],
      "stateMutability": "nonpayable",
      "type": "function"
    }
  ],
  "transactionHash": "0x11693a594bfc46d3d6e209c99807c14e61c37623045b8b1aa6b8462f8d253f22",
  "args": [
    "NFTPort",
    "NFT",
    "0x7f7631fA2C3E7b78aD8CEA99E08844440c7626f0",
    true
  ],
  "numDeployments": 1,
  "solcInputHash": "4e2d1ff75f938ecf476eed5bb28d701e",
  "bytecode": "0x60806040523480156200001157600080fd5b50604051620025a2380380620025a2833981016040819052620000349162000313565b8351849084906200004d906000906020850190620001a0565b50805162000063906001906020840190620001a0565b506200007591506000905083620000ec565b620000906000805160206200258283398151915283620000ec565b620000ab6000805160206200258283398151915233620000ec565b600880546001600160a01b039093166001600160a01b0319921515600160a01b02929092166001600160a81b03199093169290921717905550620003f59050565b620000f88282620000fc565b5050565b60008281526007602090815260408083206001600160a01b038516845290915290205460ff16620000f85760008281526007602090815260408083206001600160a01b03851684529091529020805460ff191660011790556200015c3390565b6001600160a01b0316816001600160a01b0316837f2f8788117e7eff1d82e926ec794901d17c78024a50270940304540a733656f0d60405160405180910390a45050565b828054620001ae90620003b8565b90600052602060002090601f016020900481019282620001d257600085556200021d565b82601f10620001ed57805160ff19168380011785556200021d565b828001600101855582156200021d579182015b828111156200021d57825182559160200191906001019062000200565b506200022b9291506200022f565b5090565b5b808211156200022b576000815560010162000230565b634e487b7160e01b600052604160045260246000fd5b600082601f8301126200026e57600080fd5b81516001600160401b03808211156200028b576200028b62000246565b604051601f8301601f19908116603f01168101908282118183101715620002b657620002b662000246565b81604052838152602092508683858801011115620002d357600080fd5b600091505b83821015620002f75785820183015181830184015290820190620002d8565b83821115620003095760008385830101525b9695505050505050565b600080600080608085870312156200032a57600080fd5b84516001600160401b03808211156200034257600080fd5b62000350888389016200025c565b955060208701519150808211156200036757600080fd5b5062000376878288016200025c565b604087015190945090506001600160a01b03811681146200039657600080fd5b60608601519092508015158114620003ad57600080fd5b939692955090935050565b600181811c90821680620003cd57607f821691505b60208210811415620003ef57634e487b7160e01b600052602260045260246000fd5b50919050565b61217d80620004056000396000f3fe608060405234801561001057600080fd5b506004361061018e5760003560e01c80638d010db3116100de578063a2f551ec11610097578063c87b56dd11610071578063c87b56dd14610372578063d539139314610385578063d547741f1461039a578063e985e9c5146103ad57600080fd5b8063a2f551ec14610344578063af53931214610357578063b88d4fde1461035f57600080fd5b80638d010db3146102da5780638da5cb5b146102fd57806391d148541461030e57806395d89b4114610321578063a217fddf14610329578063a22cb4651461033157600080fd5b80632f2ff15d1161014b5780636352211e116101255780636352211e1461028d57806370a08231146102a05780637105a69c146102b35780637afdcdbb146102c757600080fd5b80632f2ff15d1461025457806336568abe1461026757806342842e0e1461027a57600080fd5b806301ffc9a71461019357806306fdde03146101bb578063081812fc146101d0578063095ea7b3146101fb57806323b872dd14610210578063248a9ca314610223575b600080fd5b6101a66101a1366004611abd565b6103e9565b60405190151581526020015b60405180910390f35b6101c36103fa565b6040516101b29190611b32565b6101e36101de366004611b45565b61048c565b6040516001600160a01b0390911681526020016101b2565b61020e610209366004611b7a565b610519565b005b61020e61021e366004611ba4565b61062f565b610246610231366004611b45565b60009081526007602052604090206001015490565b6040519081526020016101b2565b61020e610262366004611be0565b610660565b61020e610275366004611be0565b610686565b61020e610288366004611ba4565b610704565b6101e361029b366004611b45565b61071f565b6102466102ae366004611c0c565b610796565b6008546101a690600160a01b900460ff1681565b6102466102d5366004611cd3565b61081d565b6101a66102e8366004611b45565b60096020526000908152604090205460ff1681565b6008546001600160a01b03166101e3565b6101a661031c366004611be0565b610855565b6101c3610880565b610246600081565b61020e61033f366004611d3a565b61088f565b61020e610352366004611d64565b61089a565b61020e610b45565b61020e61036d366004611dbb565b610c02565b6101c3610380366004611b45565b610c34565b61024660008051602061212883398151915281565b61020e6103a8366004611be0565b610dab565b6101a66103bb366004611e37565b6001600160a01b03918216600090815260056020908152604080832093909416825291909152205460ff1690565b60006103f482610dd1565b92915050565b60606000805461040990611e61565b80601f016020809104026020016040519081016040528092919081815260200182805461043590611e61565b80156104825780601f1061045757610100808354040283529160200191610482565b820191906000526020600020905b81548152906001019060200180831161046557829003601f168201915b5050505050905090565b600061049782610e21565b6104fd5760405162461bcd60e51b815260206004820152602c60248201527f4552433732313a20617070726f76656420717565727920666f72206e6f6e657860448201526b34b9ba32b73a103a37b5b2b760a11b60648201526084015b60405180910390fd5b506000908152600460205260409020546001600160a01b031690565b60006105248261071f565b9050806001600160a01b0316836001600160a01b031614156105925760405162461bcd60e51b815260206004820152602160248201527f4552433732313a20617070726f76616c20746f2063757272656e74206f776e656044820152603960f91b60648201526084016104f4565b336001600160a01b03821614806105ae57506105ae81336103bb565b6106205760405162461bcd60e51b815260206004820152603860248201527f4552433732313a20617070726f76652063616c6c6572206973206e6f74206f7760448201527f6e6572206e6f7220617070726f76656420666f7220616c6c000000000000000060648201526084016104f4565b61062a8383610e3e565b505050565b6106393382610eac565b6106555760405162461bcd60e51b81526004016104f490611e9c565b61062a838383610f92565b60008281526007602052604090206001015461067c813361112e565b61062a8383611192565b6001600160a01b03811633146106f65760405162461bcd60e51b815260206004820152602f60248201527f416363657373436f6e74726f6c3a2063616e206f6e6c792072656e6f756e636560448201526e103937b632b9903337b91039b2b63360891b60648201526084016104f4565b6107008282611218565b5050565b61062a83838360405180602001604052806000815250610c02565b6000818152600260205260408120546001600160a01b0316806103f45760405162461bcd60e51b815260206004820152602960248201527f4552433732313a206f776e657220717565727920666f72206e6f6e657869737460448201526832b73a103a37b5b2b760b91b60648201526084016104f4565b60006001600160a01b0382166108015760405162461bcd60e51b815260206004820152602a60248201527f4552433732313a2062616c616e636520717565727920666f7220746865207a65604482015269726f206164647265737360b01b60648201526084016104f4565b506001600160a01b031660009081526003602052604090205490565b6000600080516020612128833981519152610838813361112e565b610842858561127f565b61084c8484611299565b50919392505050565b60009182526007602090815260408084206001600160a01b0393909316845291905290205460ff1690565b60606001805461040990611e61565b610700338383611324565b6000805160206121288339815191526108b3813361112e565b6108bc84610e21565b61091c5760405162461bcd60e51b815260206004820152602b60248201527f4e46543a207570646174652055524920717565727920666f72206e6f6e65786960448201526a39ba32b73a103a37b5b2b760a91b60648201526084016104f4565b600854600160a01b900460ff16156109825760405162461bcd60e51b815260206004820152602360248201527f4e46543a20546f6b656e2075726973206172652066726f7a656e20676c6f62616044820152626c6c7960e81b60648201526084016104f4565b60008481526009602052604090205460ff161515600114156109dd5760405162461bcd60e51b815260206004820152601460248201527327232a1d102a37b5b2b71034b990333937bd32b760611b60448201526064016104f4565b81806109e95750825115155b610a5b5760405162461bcd60e51b815260206004820152603860248201527f4e46543a20456974686572205f746f6b656e557269206f72205f69734672656560448201527f7a65546f6b656e5572693d74727565207265717569726564000000000000000060648201526084016104f4565b825115610adf5782516020840120610a7285610c34565b805190602001201415610ad55760405162461bcd60e51b815260206004820152602560248201527f4e46543a204e657720746f6b656e205552492069732073616d6520617320757060448201526419185d195960da1b60648201526084016104f4565b610adf8484611299565b8115610b3f576000848152600960205260409020805460ff19166001179055837fa109ba539900bf1b633f956d63c96fc89b814c7287f7aa50a9216d0b55657207610b2982610c34565b604051610b369190611b32565b60405180910390a25b50505050565b600080516020612128833981519152610b5e813361112e565b600854600160a01b900460ff1615610bc35760405162461bcd60e51b815260206004820152602260248201527f4e46543a20546f6b656e20757269732061726520616c72656164792066726f7a60448201526132b760f11b60648201526084016104f4565b6008805460ff60a01b1916600160a01b1790556040517fb59f45df38ec0d34114b1248c38a29cdbccbf3e745ae3ef310ac66199a4ceccf90600090a150565b610c0c3383610eac565b610c285760405162461bcd60e51b81526004016104f490611e9c565b610b3f848484846113f3565b6060610c3f82610e21565b610ca55760405162461bcd60e51b815260206004820152603160248201527f45524337323155524953746f726167653a2055524920717565727920666f72206044820152703737b732bc34b9ba32b73a103a37b5b2b760791b60648201526084016104f4565b60008281526006602052604081208054610cbe90611e61565b80601f0160208091040260200160405190810160405280929190818152602001828054610cea90611e61565b8015610d375780601f10610d0c57610100808354040283529160200191610d37565b820191906000526020600020905b815481529060010190602001808311610d1a57829003601f168201915b505050505090506000610d5560408051602081019091526000815290565b9050805160001415610d68575092915050565b815115610d9a578082604051602001610d82929190611eed565b60405160208183030381529060405292505050919050565b610da384611426565b949350505050565b600082815260076020526040902060010154610dc7813361112e565b61062a8383611218565b60006001600160e01b031982166380ac58cd60e01b1480610e0257506001600160e01b03198216635b5e139f60e01b145b806103f457506301ffc9a760e01b6001600160e01b03198316146103f4565b6000908152600260205260409020546001600160a01b0316151590565b600081815260046020526040902080546001600160a01b0319166001600160a01b0384169081179091558190610e738261071f565b6001600160a01b03167f8c5be1e5ebec7d5bd14f71427d1e84f3dd0314c0f7b2291e5b200ac8c7c3b92560405160405180910390a45050565b6000610eb782610e21565b610f185760405162461bcd60e51b815260206004820152602c60248201527f4552433732313a206f70657261746f7220717565727920666f72206e6f6e657860448201526b34b9ba32b73a103a37b5b2b760a11b60648201526084016104f4565b6000610f238361071f565b9050806001600160a01b0316846001600160a01b03161480610f5e5750836001600160a01b0316610f538461048c565b6001600160a01b0316145b80610da357506001600160a01b0380821660009081526005602090815260408083209388168352929052205460ff16610da3565b826001600160a01b0316610fa58261071f565b6001600160a01b0316146110095760405162461bcd60e51b815260206004820152602560248201527f4552433732313a207472616e736665722066726f6d20696e636f72726563742060448201526437bbb732b960d91b60648201526084016104f4565b6001600160a01b03821661106b5760405162461bcd60e51b8152602060048201526024808201527f4552433732313a207472616e7366657220746f20746865207a65726f206164646044820152637265737360e01b60648201526084016104f4565b611076600082610e3e565b6001600160a01b038316600090815260036020526040812080546001929061109f908490611f32565b90915550506001600160a01b03821660009081526003602052604081208054600192906110cd908490611f49565b909155505060008181526002602052604080822080546001600160a01b0319166001600160a01b0386811691821790925591518493918716917fddf252ad1be2c89b69c2b068fc378daa952ba7f163c4a11628f55a4df523b3ef91a4505050565b6111388282610855565b61070057611150816001600160a01b031660146114fe565b61115b8360206114fe565b60405160200161116c929190611f61565b60408051601f198184030181529082905262461bcd60e51b82526104f491600401611b32565b61119c8282610855565b6107005760008281526007602090815260408083206001600160a01b03851684529091529020805460ff191660011790556111d43390565b6001600160a01b0316816001600160a01b0316837f2f8788117e7eff1d82e926ec794901d17c78024a50270940304540a733656f0d60405160405180910390a45050565b6112228282610855565b156107005760008281526007602090815260408083206001600160a01b0385168085529252808320805460ff1916905551339285917ff6391f5c32d9c69d2a47ea670b442974b53935d1edc7fd64eb21e047a839171b9190a45050565b61070082826040518060200160405280600081525061169a565b6112a282610e21565b6113055760405162461bcd60e51b815260206004820152602e60248201527f45524337323155524953746f726167653a2055524920736574206f66206e6f6e60448201526d32bc34b9ba32b73a103a37b5b2b760911b60648201526084016104f4565b6000828152600660209081526040909120825161062a92840190611a0b565b816001600160a01b0316836001600160a01b031614156113865760405162461bcd60e51b815260206004820152601960248201527f4552433732313a20617070726f766520746f2063616c6c65720000000000000060448201526064016104f4565b6001600160a01b03838116600081815260056020908152604080832094871680845294825291829020805460ff191686151590811790915591519182527f17307eab39ab6107e8899845ad3d59bd9653f200f220920489ca2b5937696c31910160405180910390a3505050565b6113fe848484610f92565b61140a848484846116cd565b610b3f5760405162461bcd60e51b81526004016104f490611fd6565b606061143182610e21565b6114955760405162461bcd60e51b815260206004820152602f60248201527f4552433732314d657461646174613a2055524920717565727920666f72206e6f60448201526e3732bc34b9ba32b73a103a37b5b2b760891b60648201526084016104f4565b60006114ac60408051602081019091526000815290565b905060008151116114cc57604051806020016040528060008152506114f7565b806114d6846117da565b6040516020016114e7929190611eed565b6040516020818303038152906040525b9392505050565b6060600061150d836002612028565b611518906002611f49565b67ffffffffffffffff81111561153057611530611c27565b6040519080825280601f01601f19166020018201604052801561155a576020820181803683370190505b509050600360fc1b8160008151811061157557611575612047565b60200101906001600160f81b031916908160001a905350600f60fb1b816001815181106115a4576115a4612047565b60200101906001600160f81b031916908160001a90535060006115c8846002612028565b6115d3906001611f49565b90505b600181111561164b576f181899199a1a9b1b9c1cb0b131b232b360811b85600f166010811061160757611607612047565b1a60f81b82828151811061161d5761161d612047565b60200101906001600160f81b031916908160001a90535060049490941c936116448161205d565b90506115d6565b5083156114f75760405162461bcd60e51b815260206004820181905260248201527f537472696e67733a20686578206c656e67746820696e73756666696369656e7460448201526064016104f4565b6116a483836118d8565b6116b160008484846116cd565b61062a5760405162461bcd60e51b81526004016104f490611fd6565b60006001600160a01b0384163b156117cf57604051630a85bd0160e11b81526001600160a01b0385169063150b7a0290611711903390899088908890600401612074565b602060405180830381600087803b15801561172b57600080fd5b505af192505050801561175b575060408051601f3d908101601f19168201909252611758918101906120b1565b60015b6117b5573d808015611789576040519150601f19603f3d011682016040523d82523d6000602084013e61178e565b606091505b5080516117ad5760405162461bcd60e51b81526004016104f490611fd6565b805181602001fd5b6001600160e01b031916630a85bd0160e11b149050610da3565b506001949350505050565b6060816117fe5750506040805180820190915260018152600360fc1b602082015290565b8160005b81156118285780611812816120ce565b91506118219050600a836120ff565b9150611802565b60008167ffffffffffffffff81111561184357611843611c27565b6040519080825280601f01601f19166020018201604052801561186d576020820181803683370190505b5090505b8415610da357611882600183611f32565b915061188f600a86612113565b61189a906030611f49565b60f81b8183815181106118af576118af612047565b60200101906001600160f81b031916908160001a9053506118d1600a866120ff565b9450611871565b6001600160a01b03821661192e5760405162461bcd60e51b815260206004820181905260248201527f4552433732313a206d696e7420746f20746865207a65726f206164647265737360448201526064016104f4565b61193781610e21565b156119845760405162461bcd60e51b815260206004820152601c60248201527f4552433732313a20746f6b656e20616c7265616479206d696e7465640000000060448201526064016104f4565b6001600160a01b03821660009081526003602052604081208054600192906119ad908490611f49565b909155505060008181526002602052604080822080546001600160a01b0319166001600160a01b03861690811790915590518392907fddf252ad1be2c89b69c2b068fc378daa952ba7f163c4a11628f55a4df523b3ef908290a45050565b828054611a1790611e61565b90600052602060002090601f016020900481019282611a395760008555611a7f565b82601f10611a5257805160ff1916838001178555611a7f565b82800160010185558215611a7f579182015b82811115611a7f578251825591602001919060010190611a64565b50611a8b929150611a8f565b5090565b5b80821115611a8b5760008155600101611a90565b6001600160e01b031981168114611aba57600080fd5b50565b600060208284031215611acf57600080fd5b81356114f781611aa4565b60005b83811015611af5578181015183820152602001611add565b83811115610b3f5750506000910152565b60008151808452611b1e816020860160208601611ada565b601f01601f19169290920160200192915050565b6020815260006114f76020830184611b06565b600060208284031215611b5757600080fd5b5035919050565b80356001600160a01b0381168114611b7557600080fd5b919050565b60008060408385031215611b8d57600080fd5b611b9683611b5e565b946020939093013593505050565b600080600060608486031215611bb957600080fd5b611bc284611b5e565b9250611bd060208501611b5e565b9150604084013590509250925092565b60008060408385031215611bf357600080fd5b82359150611c0360208401611b5e565b90509250929050565b600060208284031215611c1e57600080fd5b6114f782611b5e565b634e487b7160e01b600052604160045260246000fd5b600067ffffffffffffffff80841115611c5857611c58611c27565b604051601f8501601f19908116603f01168101908282118183101715611c8057611c80611c27565b81604052809350858152868686011115611c9957600080fd5b858560208301376000602087830101525050509392505050565b600082601f830112611cc457600080fd5b6114f783833560208501611c3d565b600080600060608486031215611ce857600080fd5b611cf184611b5e565b925060208401359150604084013567ffffffffffffffff811115611d1457600080fd5b611d2086828701611cb3565b9150509250925092565b80358015158114611b7557600080fd5b60008060408385031215611d4d57600080fd5b611d5683611b5e565b9150611c0360208401611d2a565b600080600060608486031215611d7957600080fd5b83359250602084013567ffffffffffffffff811115611d9757600080fd5b611da386828701611cb3565b925050611db260408501611d2a565b90509250925092565b60008060008060808587031215611dd157600080fd5b611dda85611b5e565b9350611de860208601611b5e565b925060408501359150606085013567ffffffffffffffff811115611e0b57600080fd5b8501601f81018713611e1c57600080fd5b611e2b87823560208401611c3d565b91505092959194509250565b60008060408385031215611e4a57600080fd5b611e5383611b5e565b9150611c0360208401611b5e565b600181811c90821680611e7557607f821691505b60208210811415611e9657634e487b7160e01b600052602260045260246000fd5b50919050565b60208082526031908201527f4552433732313a207472616e736665722063616c6c6572206973206e6f74206f6040820152701ddb995c881b9bdc88185c1c1c9bdd9959607a1b606082015260800190565b60008351611eff818460208801611ada565b835190830190611f13818360208801611ada565b01949350505050565b634e487b7160e01b600052601160045260246000fd5b600082821015611f4457611f44611f1c565b500390565b60008219821115611f5c57611f5c611f1c565b500190565b7f416363657373436f6e74726f6c3a206163636f756e7420000000000000000000815260008351611f99816017850160208801611ada565b7001034b99036b4b9b9b4b733903937b6329607d1b6017918401918201528351611fca816028840160208801611ada565b01602801949350505050565b60208082526032908201527f4552433732313a207472616e7366657220746f206e6f6e20455243373231526560408201527131b2b4bb32b91034b6b83632b6b2b73a32b960711b606082015260800190565b600081600019048311821515161561204257612042611f1c565b500290565b634e487b7160e01b600052603260045260246000fd5b60008161206c5761206c611f1c565b506000190190565b6001600160a01b03858116825284166020820152604081018390526080606082018190526000906120a790830184611b06565b9695505050505050565b6000602082840312156120c357600080fd5b81516114f781611aa4565b60006000198214156120e2576120e2611f1c565b5060010190565b634e487b7160e01b600052601260045260246000fd5b60008261210e5761210e6120e9565b500490565b600082612122576121226120e9565b50069056fe9f2df0fed2c77648de5860a4cc508cd0818c85b8b8a1ab4ceeef8d981c8956a6a2646970667358221220b2ad4131134e1c8d59a81e50fcf18011a4d2f36f911d2841c40242258b9bc65464736f6c634300080900339f2df0fed2c77648de5860a4cc508cd0818c85b8b8a1ab4ceeef8d981c8956a6",
  "devdoc": {
    "kind": "dev",
    "methods": {
      "approve(address,uint256)": {
        "details": "See {IERC721-approve}."
      },
      "balanceOf(address)": {
        "details": "See {IERC721-balanceOf}."
      },
      "getApproved(uint256)": {
        "details": "See {IERC721-getApproved}."
      },
      "getRoleAdmin(bytes32)": {
        "details": "Returns the admin role that controls `role`. See {grantRole} and {revokeRole}. To change a role's admin, use {_setRoleAdmin}."
      },
      "grantRole(bytes32,address)": {
        "details": "Grants `role` to `account`. If `account` had not been already granted `role`, emits a {RoleGranted} event. Requirements: - the caller must have ``role``'s admin role."
      },
      "hasRole(bytes32,address)": {
        "details": "Returns `true` if `account` has been granted `role`."
      },
      "isApprovedForAll(address,address)": {
        "details": "See {IERC721-isApprovedForAll}."
      },
      "name()": {
        "details": "See {IERC721Metadata-name}."
      },
      "ownerOf(uint256)": {
        "details": "See {IERC721-ownerOf}."
      },
      "renounceRole(bytes32,address)": {
        "details": "Revokes `role` from the calling account. Roles are often managed via {grantRole} and {revokeRole}: this function's purpose is to provide a mechanism for accounts to lose their privileges if they are compromised (such as when a trusted device is misplaced). If the calling account had been revoked `role`, emits a {RoleRevoked} event. Requirements: - the caller must be `account`."
      },
      "revokeRole(bytes32,address)": {
        "details": "Revokes `role` from `account`. If `account` had been granted `role`, emits a {RoleRevoked} event. Requirements: - the caller must have ``role``'s admin role."
      },
      "safeTransferFrom(address,address,uint256)": {
        "details": "See {IERC721-safeTransferFrom}."
      },
      "safeTransferFrom(address,address,uint256,bytes)": {
        "details": "See {IERC721-safeTransferFrom}."
      },
      "setApprovalForAll(address,bool)": {
        "details": "See {IERC721-setApprovalForAll}."
      },
      "symbol()": {
        "details": "See {IERC721Metadata-symbol}."
      },
      "tokenURI(uint256)": {
        "details": "See {IERC721Metadata-tokenURI}."
      },
      "transferFrom(address,address,uint256)": {
        "details": "See {IERC721-transferFrom}."
      }
    },
    "version": 1
  },
  "userdoc": {
    "kind": "user",
    "methods": {},
    "version": 1
  },
  "storageLayout": {
    "storage": [
      {
        "astId": 1882,
        "contract": "contracts/products/4_custom_token_id_access_rights_updatable.sol:CustomTokenIdAccessRightsUpdatable",
        "label": "_name",
        "offset": 0,
        "slot": "0",
        "type": "t_string_storage"
      },
      {
        "astId": 1884,
        "contract": "contracts/products/4_custom_token_id_access_rights_updatable.sol:CustomTokenIdAccessRightsUpdatable",
        "label": "_symbol",
        "offset": 0,
        "slot": "1",
        "type": "t_string_storage"
      },
      {
        "astId": 1888,
        "contract": "contracts/products/4_custom_token_id_access_rights_updatable.sol:CustomTokenIdAccessRightsUpdatable",
        "label": "_owners",
        "offset": 0,
        "slot": "2",
        "type": "t_mapping(t_uint256,t_address)"
      },
      {
        "astId": 1892,
        "contract": "contracts/products/4_custom_token_id_access_rights_updatable.sol:CustomTokenIdAccessRightsUpdatable",
        "label": "_balances",
        "offset": 0,
        "slot": "3",
        "type": "t_mapping(t_address,t_uint256)"
      },
      {
        "astId": 1896,
        "contract": "contracts/products/4_custom_token_id_access_rights_updatable.sol:CustomTokenIdAccessRightsUpdatable",
        "label": "_tokenApprovals",
        "offset": 0,
        "slot": "4",
        "type": "t_mapping(t_uint256,t_address)"
      },
      {
        "astId": 1902,
        "contract": "contracts/products/4_custom_token_id_access_rights_updatable.sol:CustomTokenIdAccessRightsUpdatable",
        "label": "_operatorApprovals",
        "offset": 0,
        "slot": "5",
        "type": "t_mapping(t_address,t_mapping(t_address,t_bool))"
      },
      {
        "astId": 3207,
        "contract": "contracts/products/4_custom_token_id_access_rights_updatable.sol:CustomTokenIdAccessRightsUpdatable",
        "label": "_tokenURIs",
        "offset": 0,
        "slot": "6",
        "type": "t_mapping(t_uint256,t_string_storage)"
      },
      {
        "astId": 24,
        "contract": "contracts/products/4_custom_token_id_access_rights_updatable.sol:CustomTokenIdAccessRightsUpdatable",
        "label": "_roles",
        "offset": 0,
        "slot": "7",
        "type": "t_mapping(t_bytes32,t_struct(RoleData)19_storage)"
      },
      {
        "astId": 8491,
        "contract": "contracts/products/4_custom_token_id_access_rights_updatable.sol:CustomTokenIdAccessRightsUpdatable",
        "label": "_owner",
        "offset": 0,
        "slot": "8",
        "type": "t_address"
      },
      {
        "astId": 8493,
        "contract": "contracts/products/4_custom_token_id_access_rights_updatable.sol:CustomTokenIdAccessRightsUpdatable",
        "label": "isFreezeTokenUris",
        "offset": 20,
        "slot": "8",
        "type": "t_bool"
      },
      {
        "astId": 8497,
        "contract": "contracts/products/4_custom_token_id_access_rights_updatable.sol:CustomTokenIdAccessRightsUpdatable",
        "label": "freezeTokenUris",
        "offset": 0,
        "slot": "9",
        "type": "t_mapping(t_uint256,t_bool)"
      }
    ],
    "types": {
      "t_address": {
        "encoding": "inplace",
        "label": "address",
        "numberOfBytes": "20"
      },
      "t_bool": {
        "encoding": "inplace",
        "label": "bool",
        "numberOfBytes": "1"
      },
      "t_bytes32": {
        "encoding": "inplace",
        "label": "bytes32",
        "numberOfBytes": "32"
      },
      "t_mapping(t_address,t_bool)": {
        "encoding": "mapping",
        "key": "t_address",
        "label": "mapping(address => bool)",
        "numberOfBytes": "32",
        "value": "t_bool"
      },
      "t_mapping(t_address,t_mapping(t_address,t_bool))": {
        "encoding": "mapping",
        "key": "t_address",
        "label": "mapping(address => mapping(address => bool))",
        "numberOfBytes": "32",
        "value": "t_mapping(t_address,t_bool)"
      },
      "t_mapping(t_address,t_uint256)": {
        "encoding": "mapping",
        "key": "t_address",
        "label": "mapping(address => uint256)",
        "numberOfBytes": "32",
        "value": "t_uint256"
      },
      "t_mapping(t_bytes32,t_struct(RoleData)19_storage)": {
        "encoding": "mapping",
        "key": "t_bytes32",
        "label": "mapping(bytes32 => struct AccessControl.RoleData)",
        "numberOfBytes": "32",
        "value": "t_struct(RoleData)19_storage"
      },
      "t_mapping(t_uint256,t_address)": {
        "encoding": "mapping",
        "key": "t_uint256",
        "label": "mapping(uint256 => address)",
        "numberOfBytes": "32",
        "value": "t_address"
      },
      "t_mapping(t_uint256,t_bool)": {
        "encoding": "mapping",
        "key": "t_uint256",
        "label": "mapping(uint256 => bool)",
        "numberOfBytes": "32",
        "value": "t_bool"
      },
      "t_mapping(t_uint256,t_string_storage)": {
        "encoding": "mapping",
        "key": "t_uint256",
        "label": "mapping(uint256 => string)",
        "numberOfBytes": "32",
        "value": "t_string_storage"
      },
      "t_string_storage": {
        "encoding": "bytes",
        "label": "string",
        "numberOfBytes": "32"
      },
      "t_struct(RoleData)19_storage": {
        "encoding": "inplace",
        "label": "struct AccessControl.RoleData",
        "members": [
          {
            "astId": 16,
            "contract": "contracts/products/4_custom_token_id_access_rights_updatable.sol:CustomTokenIdAccessRightsUpdatable",
            "label": "members",
            "offset": 0,
            "slot": "0",
            "type": "t_mapping(t_address,t_bool)"
          },
          {
            "astId": 18,
            "contract": "contracts/products/4_custom_token_id_access_rights_updatable.sol:CustomTokenIdAccessRightsUpdatable",
            "label": "adminRole",
            "offset": 0,
            "slot": "1",
            "type": "t_bytes32"
          }
        ],
        "numberOfBytes": "64"
      },
      "t_uint256": {
        "encoding": "inplace",
        "label": "uint256",
        "numberOfBytes": "32"
      }
    }
  }
}