{
  "address": "0x6EFb25C7e52390E24c25E35941F8C783d1322016",
  "abi": [
    {
      "inputs": [
        {
          "internalType": "string",
          "name": "_uri",
          "type": "string"
        },
        {
          "internalType": "string",
          "name": "_name",
          "type": "string"
        },
        {
          "internalType": "string",
          "name": "_symbol",
          "type": "string"
        }
      ],
      "stateMutability": "nonpayable",
      "type": "constructor"
    },
    {
      "anonymous": false,
      "inputs": [
        {
          "indexed": true,
          "internalType": "address",
          "name": "account",
          "type": "address"
        },
        {
          "indexed": true,
          "internalType": "address",
          "name": "operator",
          "type": "address"
        },
        {
          "indexed": false,
          "internalType": "bool",
          "name": "approved",
          "type": "bool"
        }
      ],
      "name": "ApprovalForAll",
      "type": "event"
    },
    {
      "anonymous": false,
      "inputs": [
        {
          "indexed": true,
          "internalType": "bytes32",
          "name": "role",
          "type": "bytes32"
        },
        {
          "indexed": true,
          "internalType": "bytes32",
          "name": "previousAdminRole",
          "type": "bytes32"
        },
        {
          "indexed": true,
          "internalType": "bytes32",
          "name": "newAdminRole",
          "type": "bytes32"
        }
      ],
      "name": "RoleAdminChanged",
      "type": "event"
    },
    {
      "anonymous": false,
      "inputs": [
        {
          "indexed": true,
          "internalType": "bytes32",
          "name": "role",
          "type": "bytes32"
        },
        {
          "indexed": true,
          "internalType": "address",
          "name": "account",
          "type": "address"
        },
        {
          "indexed": true,
          "internalType": "address",
          "name": "sender",
          "type": "address"
        }
      ],
      "name": "RoleGranted",
      "type": "event"
    },
    {
      "anonymous": false,
      "inputs": [
        {
          "indexed": true,
          "internalType": "bytes32",
          "name": "role",
          "type": "bytes32"
        },
        {
          "indexed": true,
          "internalType": "address",
          "name": "account",
          "type": "address"
        },
        {
          "indexed": true,
          "internalType": "address",
          "name": "sender",
          "type": "address"
        }
      ],
      "name": "RoleRevoked",
      "type": "event"
    },
    {
      "anonymous": false,
      "inputs": [
        {
          "indexed": true,
          "internalType": "address",
          "name": "operator",
          "type": "address"
        },
        {
          "indexed": true,
          "internalType": "address",
          "name": "from",
          "type": "address"
        },
        {
          "indexed": true,
          "internalType": "address",
          "name": "to",
          "type": "address"
        },
        {
          "indexed": false,
          "internalType": "uint256[]",
          "name": "ids",
          "type": "uint256[]"
        },
        {
          "indexed": false,
          "internalType": "uint256[]",
          "name": "values",
          "type": "uint256[]"
        }
      ],
      "name": "TransferBatch",
      "type": "event"
    },
    {
      "anonymous": false,
      "inputs": [
        {
          "indexed": true,
          "internalType": "address",
          "name": "operator",
          "type": "address"
        },
        {
          "indexed": true,
          "internalType": "address",
          "name": "from",
          "type": "address"
        },
        {
          "indexed": true,
          "internalType": "address",
          "name": "to",
          "type": "address"
        },
        {
          "indexed": false,
          "internalType": "uint256",
          "name": "id",
          "type": "uint256"
        },
        {
          "indexed": false,
          "internalType": "uint256",
          "name": "value",
          "type": "uint256"
        }
      ],
      "name": "TransferSingle",
      "type": "event"
    },
    {
      "anonymous": false,
      "inputs": [
        {
          "indexed": false,
          "internalType": "string",
          "name": "value",
          "type": "string"
        },
        {
          "indexed": true,
          "internalType": "uint256",
          "name": "id",
          "type": "uint256"
        }
      ],
      "name": "URI",
      "type": "event"
    },
    {
      "inputs": [],
      "name": "DEFAULT_ADMIN_ROLE",
      "outputs": [
        {
          "internalType": "bytes32",
          "name": "",
          "type": "bytes32"
        }
      ],
      "stateMutability": "view",
      "type": "function"
    },
    {
      "inputs": [],
      "name": "MINTER_ROLE",
      "outputs": [
        {
          "internalType": "bytes32",
          "name": "",
          "type": "bytes32"
        }
      ],
      "stateMutability": "view",
      "type": "function"
    },
    {
      "inputs": [
        {
          "internalType": "address",
          "name": "account",
          "type": "address"
        },
        {
          "internalType": "uint256",
          "name": "id",
          "type": "uint256"
        }
      ],
      "name": "balanceOf",
      "outputs": [
        {
          "internalType": "uint256",
          "name": "",
          "type": "uint256"
        }
      ],
      "stateMutability": "view",
      "type": "function"
    },
    {
      "inputs": [
        {
          "internalType": "address[]",
          "name": "accounts",
          "type": "address[]"
        },
        {
          "internalType": "uint256[]",
          "name": "ids",
          "type": "uint256[]"
        }
      ],
      "name": "balanceOfBatch",
      "outputs": [
        {
          "internalType": "uint256[]",
          "name": "",
          "type": "uint256[]"
        }
      ],
      "stateMutability": "view",
      "type": "function"
    },
    {
      "inputs": [
        {
          "internalType": "bytes32",
          "name": "role",
          "type": "bytes32"
        }
      ],
      "name": "getRoleAdmin",
      "outputs": [
        {
          "internalType": "bytes32",
          "name": "",
          "type": "bytes32"
        }
      ],
      "stateMutability": "view",
      "type": "function"
    },
    {
      "inputs": [
        {
          "internalType": "bytes32",
          "name": "role",
          "type": "bytes32"
        },
        {
          "internalType": "address",
          "name": "account",
          "type": "address"
        }
      ],
      "name": "grantRole",
      "outputs": [],
      "stateMutability": "nonpayable",
      "type": "function"
    },
    {
      "inputs": [
        {
          "internalType": "bytes32",
          "name": "role",
          "type": "bytes32"
        },
        {
          "internalType": "address",
          "name": "account",
          "type": "address"
        }
      ],
      "name": "hasRole",
      "outputs": [
        {
          "internalType": "bool",
          "name": "",
          "type": "bool"
        }
      ],
      "stateMutability": "view",
      "type": "function"
    },
    {
      "inputs": [
        {
          "internalType": "address",
          "name": "account",
          "type": "address"
        },
        {
          "internalType": "address",
          "name": "operator",
          "type": "address"
        }
      ],
      "name": "isApprovedForAll",
      "outputs": [
        {
          "internalType": "bool",
          "name": "",
          "type": "bool"
        }
      ],
      "stateMutability": "view",
      "type": "function"
    },
    {
      "inputs": [
        {
          "internalType": "address",
          "name": "account",
          "type": "address"
        },
        {
          "internalType": "uint256",
          "name": "id",
          "type": "uint256"
        },
        {
          "internalType": "uint256",
          "name": "amount",
          "type": "uint256"
        },
        {
          "internalType": "string",
          "name": "uri",
          "type": "string"
        }
      ],
      "name": "mintToCaller",
      "outputs": [],
      "stateMutability": "nonpayable",
      "type": "function"
    },
    {
      "inputs": [
        {
          "internalType": "address",
          "name": "to",
          "type": "address"
        },
        {
          "internalType": "uint256[]",
          "name": "ids",
          "type": "uint256[]"
        },
        {
          "internalType": "uint256[]",
          "name": "amounts",
          "type": "uint256[]"
        },
        {
          "internalType": "string[]",
          "name": "uris",
          "type": "string[]"
        }
      ],
      "name": "mintToCallerBatch",
      "outputs": [],
      "stateMutability": "nonpayable",
      "type": "function"
    },
    {
      "inputs": [],
      "name": "name",
      "outputs": [
        {
          "internalType": "string",
          "name": "",
          "type": "string"
        }
      ],
      "stateMutability": "view",
      "type": "function"
    },
    {
      "inputs": [
        {
          "internalType": "bytes32",
          "name": "role",
          "type": "bytes32"
        },
        {
          "internalType": "address",
          "name": "account",
          "type": "address"
        }
      ],
      "name": "renounceRole",
      "outputs": [],
      "stateMutability": "nonpayable",
      "type": "function"
    },
    {
      "inputs": [
        {
          "internalType": "bytes32",
          "name": "role",
          "type": "bytes32"
        },
        {
          "internalType": "address",
          "name": "account",
          "type": "address"
        }
      ],
      "name": "revokeRole",
      "outputs": [],
      "stateMutability": "nonpayable",
      "type": "function"
    },
    {
      "inputs": [
        {
          "internalType": "address",
          "name": "from",
          "type": "address"
        },
        {
          "internalType": "address",
          "name": "to",
          "type": "address"
        },
        {
          "internalType": "uint256[]",
          "name": "ids",
          "type": "uint256[]"
        },
        {
          "internalType": "uint256[]",
          "name": "amounts",
          "type": "uint256[]"
        },
        {
          "internalType": "bytes",
          "name": "data",
          "type": "bytes"
        }
      ],
      "name": "safeBatchTransferFrom",
      "outputs": [],
      "stateMutability": "nonpayable",
      "type": "function"
    },
    {
      "inputs": [
        {
          "internalType": "address",
          "name": "from",
          "type": "address"
        },
        {
          "internalType": "address",
          "name": "to",
          "type": "address"
        },
        {
          "internalType": "uint256",
          "name": "id",
          "type": "uint256"
        },
        {
          "internalType": "uint256",
          "name": "amount",
          "type": "uint256"
        },
        {
          "internalType": "bytes",
          "name": "data",
          "type": "bytes"
        }
      ],
      "name": "safeTransferFrom",
      "outputs": [],
      "stateMutability": "nonpayable",
      "type": "function"
    },
    {
      "inputs": [
        {
          "internalType": "address",
          "name": "operator",
          "type": "address"
        },
        {
          "internalType": "bool",
          "name": "approved",
          "type": "bool"
        }
      ],
      "name": "setApprovalForAll",
      "outputs": [],
      "stateMutability": "nonpayable",
      "type": "function"
    },
    {
      "inputs": [
        {
          "internalType": "string",
          "name": "_newURI",
          "type": "string"
        }
      ],
      "name": "setURI",
      "outputs": [],
      "stateMutability": "nonpayable",
      "type": "function"
    },
    {
      "inputs": [
        {
          "internalType": "bytes4",
          "name": "interfaceId",
          "type": "bytes4"
        }
      ],
      "name": "supportsInterface",
      "outputs": [
        {
          "internalType": "bool",
          "name": "",
          "type": "bool"
        }
      ],
      "stateMutability": "view",
      "type": "function"
    },
    {
      "inputs": [],
      "name": "symbol",
      "outputs": [
        {
          "internalType": "string",
          "name": "",
          "type": "string"
        }
      ],
      "stateMutability": "view",
      "type": "function"
    },
    {
      "inputs": [
        {
          "internalType": "uint256",
          "name": "",
          "type": "uint256"
        }
      ],
      "name": "tokenSupply",
      "outputs": [
        {
          "internalType": "uint256",
          "name": "",
          "type": "uint256"
        }
      ],
      "stateMutability": "view",
      "type": "function"
    },
    {
      "inputs": [
        {
          "internalType": "uint256",
          "name": "_id",
          "type": "uint256"
        }
      ],
      "name": "totalSupply",
      "outputs": [
        {
          "internalType": "uint256",
          "name": "",
          "type": "uint256"
        }
      ],
      "stateMutability": "view",
      "type": "function"
    },
    {
      "inputs": [
        {
          "internalType": "uint256",
          "name": "_id",
          "type": "uint256"
        }
      ],
      "name": "uri",
      "outputs": [
        {
          "internalType": "string",
          "name": "",
          "type": "string"
        }
      ],
      "stateMutability": "view",
      "type": "function"
    }
  ],
  "transactionHash": "0x16d8a297b0bcd96730be5c9ebca0bd02454fd986973cbcbb679e04d176050faf",
  "args": [
    "",
    "NFTPort.xyz v2",
    "NFTP"
  ],
  "numDeployments": 1,
  "solcInputHash": "4e2d1ff75f938ecf476eed5bb28d701e",
  "bytecode": "0x60806040523480156200001157600080fd5b50604051620027c7380380620027c78339810160408190526200003491620002e8565b826200004081620000af565b506200004e600033620000c8565b6200007a7f9f2df0fed2c77648de5860a4cc508cd0818c85b8b8a1ab4ceeef8d981c8956a633620000c8565b81516200008f90600490602085019062000175565b508051620000a590600590602084019062000175565b50505050620003b6565b8051620000c490600290602084019062000175565b5050565b60008281526003602090815260408083206001600160a01b0385168452909152902054620000c4908390839060ff16620000c45760008281526003602090815260408083206001600160a01b03851684529091529020805460ff19166001179055620001313390565b6001600160a01b0316816001600160a01b0316837f2f8788117e7eff1d82e926ec794901d17c78024a50270940304540a733656f0d60405160405180910390a45050565b828054620001839062000379565b90600052602060002090601f016020900481019282620001a75760008555620001f2565b82601f10620001c257805160ff1916838001178555620001f2565b82800160010185558215620001f2579182015b82811115620001f2578251825591602001919060010190620001d5565b506200020092915062000204565b5090565b5b8082111562000200576000815560010162000205565b634e487b7160e01b600052604160045260246000fd5b600082601f8301126200024357600080fd5b81516001600160401b03808211156200026057620002606200021b565b604051601f8301601f19908116603f011681019082821181831017156200028b576200028b6200021b565b81604052838152602092508683858801011115620002a857600080fd5b600091505b83821015620002cc5785820183015181830184015290820190620002ad565b83821115620002de5760008385830101525b9695505050505050565b600080600060608486031215620002fe57600080fd5b83516001600160401b03808211156200031657600080fd5b620003248783880162000231565b945060208601519150808211156200033b57600080fd5b620003498783880162000231565b935060408601519150808211156200036057600080fd5b506200036f8682870162000231565b9150509250925092565b600181811c908216806200038e57607f821691505b60208210811415620003b057634e487b7160e01b600052602260045260246000fd5b50919050565b61240180620003c66000396000f3fe608060405234801561001057600080fd5b50600436106101415760003560e01c8063861f0b24116100b8578063a22cb4651161007c578063a22cb465146102b1578063bd85b039146102c4578063d5391393146102e4578063d547741f146102f9578063e985e9c51461030c578063f242432a1461034857600080fd5b8063861f0b2414610268578063911edab01461027b57806391d148541461028e57806395d89b41146102a1578063a217fddf146102a957600080fd5b8063248a9ca31161010a578063248a9ca3146101cc5780632693ebf2146101ef5780632eb2c2d61461020f5780632f2ff15d1461022257806336568abe146102355780634e1273f41461024857600080fd5b8062fdd58e1461014657806301ffc9a71461016c57806302fe53051461018f57806306fdde03146101a45780630e89341c146101b9575b600080fd5b6101596101543660046118d0565b61035b565b6040519081526020015b60405180910390f35b61017f61017a366004611913565b6103f2565b6040519015158152602001610163565b6101a261019d3660046119e7565b610403565b005b6101ac610429565b6040516101639190611a80565b6101ac6101c7366004611a93565b6104b7565b6101596101da366004611a93565b60009081526003602052604090206001015490565b6101596101fd366004611a93565b60066020526000908152604090205481565b6101a261021d366004611b41565b610589565b6101a2610230366004611beb565b610620565b6101a2610243366004611beb565b61064b565b61025b610256366004611c17565b6106c5565b6040516101639190611d1d565b6101a2610276366004611d30565b6107ef565b6101a2610289366004611e46565b610a7b565b61017f61029c366004611beb565b610b95565b6101ac610bc0565b610159600081565b6101a26102bf366004611ea7565b610bcd565b6101596102d2366004611a93565b60009081526006602052604090205490565b6101596000805160206123ac83398151915281565b6101a2610307366004611beb565b610bd8565b61017f61031a366004611ee3565b6001600160a01b03918216600090815260016020908152604080832093909416825291909152205460ff1690565b6101a2610356366004611f0d565b610bfe565b60006001600160a01b0383166103cc5760405162461bcd60e51b815260206004820152602b60248201527f455243313135353a2062616c616e636520717565727920666f7220746865207a60448201526a65726f206164647265737360a81b60648201526084015b60405180910390fd5b506000908152602081815260408083206001600160a01b03949094168352929052205490565b60006103fd82610c85565b92915050565b6000805160206123ac83398151915261041c8133610cd5565b61042582610d39565b5050565b6004805461043690611f72565b80601f016020809104026020016040519081016040528092919081815260200182805461046290611f72565b80156104af5780601f10610484576101008083540402835291602001916104af565b820191906000526020600020905b81548152906001019060200180831161049257829003601f168201915b505050505081565b6000818152600760205260408120805460609291906104d590611f72565b9050111561057b57600082815260076020526040902080546104f690611f72565b80601f016020809104026020016040519081016040528092919081815260200182805461052290611f72565b801561056f5780601f106105445761010080835404028352916020019161056f565b820191906000526020600020905b81548152906001019060200180831161055257829003601f168201915b50505050509050919050565b6103fd82610d4c565b919050565b6001600160a01b0385163314806105a557506105a5853361031a565b61060c5760405162461bcd60e51b815260206004820152603260248201527f455243313135353a207472616e736665722063616c6c6572206973206e6f74206044820152711bdddb995c881b9bdc88185c1c1c9bdd995960721b60648201526084016103c3565b6106198585858585610d5b565b5050505050565b60008281526003602052604090206001015461063c8133610cd5565b6106468383610ef7565b505050565b6001600160a01b03811633146106bb5760405162461bcd60e51b815260206004820152602f60248201527f416363657373436f6e74726f6c3a2063616e206f6e6c792072656e6f756e636560448201526e103937b632b9903337b91039b2b63360891b60648201526084016103c3565b6104258282610f7d565b6060815183511461072a5760405162461bcd60e51b815260206004820152602960248201527f455243313135353a206163636f756e747320616e6420696473206c656e677468604482015268040dad2e6dac2e8c6d60bb1b60648201526084016103c3565b6000835167ffffffffffffffff81111561074657610746611930565b60405190808252806020026020018201604052801561076f578160200160208202803683370190505b50905060005b84518110156107e7576107ba85828151811061079357610793611fad565b60200260200101518583815181106107ad576107ad611fad565b602002602001015161035b565b8282815181106107cc576107cc611fad565b60209081029190910101526107e081611fd9565b9050610775565b509392505050565b6000805160206123ac8339815191526108088133610cd5565b60005b8451811015610a5f5761084585828151811061082957610829611fad565b6020026020010151600090815260066020526040902054151590565b156108a05760405162461bcd60e51b815260206004820152602560248201527f4e46543a206f6e65206f6620746f6b656e732061726520616c7265616479206d6044820152641a5b9d195960da1b60648201526084016103c3565b60008482815181106108b4576108b4611fad565b6020026020010151116109095760405162461bcd60e51b815260206004820152601c60248201527f4e46543a20616c6c20616d6f756e7473206d757374206265203e20300000000060448201526064016103c3565b83818151811061091b5761091b611fad565b60200260200101516006600087848151811061093957610939611fad565b60200260200101518152602001908152602001600020600082825461095e9190611ff4565b92505081905550600083828151811061097957610979611fad565b6020026020010151511115610a4d5782818151811061099a5761099a611fad565b6020026020010151600760008784815181106109b8576109b8611fad565b6020026020010151815260200190815260200160002090805190602001906109e1929190611820565b508481815181106109f4576109f4611fad565b60200260200101517f6bb7ff708619ba0610cba295a58592e0451dee2622938c8755667688daf3529b848381518110610a2f57610a2f611fad565b6020026020010151604051610a449190611a80565b60405180910390a25b80610a5781611fd9565b91505061080b565b5061061985858560405180602001604052806000815250610fe4565b6000805160206123ac833981519152610a948133610cd5565b60008481526006602052604090205415610af05760405162461bcd60e51b815260206004820152601960248201527f4e46543a20746f6b656e20616c7265616479206d696e7465640000000000000060448201526064016103c3565b815115610b505760008481526007602090815260409091208351610b1692850190611820565b50837f6bb7ff708619ba0610cba295a58592e0451dee2622938c8755667688daf3529b83604051610b479190611a80565b60405180910390a25b610b6b8585856040518060200160405280600081525061112f565b60008481526006602052604081208054859290610b89908490611ff4565b90915550505050505050565b60009182526003602090815260408084206001600160a01b0393909316845291905290205460ff1690565b6005805461043690611f72565b6104253383836111ff565b600082815260036020526040902060010154610bf48133610cd5565b6106468383610f7d565b6001600160a01b038516331480610c1a5750610c1a853361031a565b610c785760405162461bcd60e51b815260206004820152602960248201527f455243313135353a2063616c6c6572206973206e6f74206f776e6572206e6f7260448201526808185c1c1c9bdd995960ba1b60648201526084016103c3565b61061985858585856112e0565b60006001600160e01b03198216636cdb3d1360e11b1480610cb657506001600160e01b031982166303a24d0760e21b145b806103fd57506301ffc9a760e01b6001600160e01b03198316146103fd565b610cdf8282610b95565b61042557610cf7816001600160a01b031660146113fd565b610d028360206113fd565b604051602001610d1392919061200c565b60408051601f198184030181529082905262461bcd60e51b82526103c391600401611a80565b8051610425906002906020840190611820565b6060600280546104f690611f72565b8151835114610d7c5760405162461bcd60e51b81526004016103c390612081565b6001600160a01b038416610da25760405162461bcd60e51b81526004016103c3906120c9565b3360005b8451811015610e89576000858281518110610dc357610dc3611fad565b602002602001015190506000858381518110610de157610de1611fad565b602090810291909101810151600084815280835260408082206001600160a01b038e168352909352919091205490915081811015610e315760405162461bcd60e51b81526004016103c39061210e565b6000838152602081815260408083206001600160a01b038e8116855292528083208585039055908b16825281208054849290610e6e908490611ff4565b9250508190555050505080610e8290611fd9565b9050610da6565b50846001600160a01b0316866001600160a01b0316826001600160a01b03167f4a39dc06d4c0dbc64b70af90fd698a233a518aa5d07e595d983b8c0526c8f7fb8787604051610ed9929190612158565b60405180910390a4610eef8187878787876115a0565b505050505050565b610f018282610b95565b6104255760008281526003602090815260408083206001600160a01b03851684529091529020805460ff19166001179055610f393390565b6001600160a01b0316816001600160a01b0316837f2f8788117e7eff1d82e926ec794901d17c78024a50270940304540a733656f0d60405160405180910390a45050565b610f878282610b95565b156104255760008281526003602090815260408083206001600160a01b0385168085529252808320805460ff1916905551339285917ff6391f5c32d9c69d2a47ea670b442974b53935d1edc7fd64eb21e047a839171b9190a45050565b6001600160a01b03841661100a5760405162461bcd60e51b81526004016103c390612186565b815183511461102b5760405162461bcd60e51b81526004016103c390612081565b3360005b84518110156110c75783818151811061104a5761104a611fad565b602002602001015160008087848151811061106757611067611fad565b602002602001015181526020019081526020016000206000886001600160a01b03166001600160a01b0316815260200190815260200160002060008282546110af9190611ff4565b909155508190506110bf81611fd9565b91505061102f565b50846001600160a01b031660006001600160a01b0316826001600160a01b03167f4a39dc06d4c0dbc64b70af90fd698a233a518aa5d07e595d983b8c0526c8f7fb8787604051611118929190612158565b60405180910390a4610619816000878787876115a0565b6001600160a01b0384166111555760405162461bcd60e51b81526004016103c390612186565b3361116f816000876111668861170b565b6106198861170b565b6000848152602081815260408083206001600160a01b03891684529091528120805485929061119f908490611ff4565b909155505060408051858152602081018590526001600160a01b0380881692600092918516917fc3d58168c5ae7397731d063d5bbf3d657854427343f4c083240f7aacaa2d0f62910160405180910390a461061981600087878787611756565b816001600160a01b0316836001600160a01b031614156112735760405162461bcd60e51b815260206004820152602960248201527f455243313135353a2073657474696e6720617070726f76616c20737461747573604482015268103337b91039b2b63360b91b60648201526084016103c3565b6001600160a01b03838116600081815260016020908152604080832094871680845294825291829020805460ff191686151590811790915591519182527f17307eab39ab6107e8899845ad3d59bd9653f200f220920489ca2b5937696c31910160405180910390a3505050565b6001600160a01b0384166113065760405162461bcd60e51b81526004016103c3906120c9565b336113168187876111668861170b565b6000848152602081815260408083206001600160a01b038a168452909152902054838110156113575760405162461bcd60e51b81526004016103c39061210e565b6000858152602081815260408083206001600160a01b038b8116855292528083208785039055908816825281208054869290611394908490611ff4565b909155505060408051868152602081018690526001600160a01b03808916928a821692918616917fc3d58168c5ae7397731d063d5bbf3d657854427343f4c083240f7aacaa2d0f62910160405180910390a46113f4828888888888611756565b50505050505050565b6060600061140c8360026121c7565b611417906002611ff4565b67ffffffffffffffff81111561142f5761142f611930565b6040519080825280601f01601f191660200182016040528015611459576020820181803683370190505b509050600360fc1b8160008151811061147457611474611fad565b60200101906001600160f81b031916908160001a905350600f60fb1b816001815181106114a3576114a3611fad565b60200101906001600160f81b031916908160001a90535060006114c78460026121c7565b6114d2906001611ff4565b90505b600181111561154a576f181899199a1a9b1b9c1cb0b131b232b360811b85600f166010811061150657611506611fad565b1a60f81b82828151811061151c5761151c611fad565b60200101906001600160f81b031916908160001a90535060049490941c93611543816121e6565b90506114d5565b5083156115995760405162461bcd60e51b815260206004820181905260248201527f537472696e67733a20686578206c656e67746820696e73756666696369656e7460448201526064016103c3565b9392505050565b6001600160a01b0384163b15610eef5760405163bc197c8160e01b81526001600160a01b0385169063bc197c81906115e490899089908890889088906004016121fd565b602060405180830381600087803b1580156115fe57600080fd5b505af192505050801561162e575060408051601f3d908101601f1916820190925261162b9181019061225b565b60015b6116db5761163a612278565b806308c379a01415611674575061164f612294565b8061165a5750611676565b8060405162461bcd60e51b81526004016103c39190611a80565b505b60405162461bcd60e51b815260206004820152603460248201527f455243313135353a207472616e7366657220746f206e6f6e20455243313135356044820152732932b1b2b4bb32b91034b6b83632b6b2b73a32b960611b60648201526084016103c3565b6001600160e01b0319811663bc197c8160e01b146113f45760405162461bcd60e51b81526004016103c39061231e565b6040805160018082528183019092526060916000919060208083019080368337019050509050828160008151811061174557611745611fad565b602090810291909101015292915050565b6001600160a01b0384163b15610eef5760405163f23a6e6160e01b81526001600160a01b0385169063f23a6e619061179a9089908990889088908890600401612366565b602060405180830381600087803b1580156117b457600080fd5b505af19250505080156117e4575060408051601f3d908101601f191682019092526117e19181019061225b565b60015b6117f05761163a612278565b6001600160e01b0319811663f23a6e6160e01b146113f45760405162461bcd60e51b81526004016103c39061231e565b82805461182c90611f72565b90600052602060002090601f01602090048101928261184e5760008555611894565b82601f1061186757805160ff1916838001178555611894565b82800160010185558215611894579182015b82811115611894578251825591602001919060010190611879565b506118a09291506118a4565b5090565b5b808211156118a057600081556001016118a5565b80356001600160a01b038116811461058457600080fd5b600080604083850312156118e357600080fd5b6118ec836118b9565b946020939093013593505050565b6001600160e01b03198116811461191057600080fd5b50565b60006020828403121561192557600080fd5b8135611599816118fa565b634e487b7160e01b600052604160045260246000fd5b601f8201601f1916810167ffffffffffffffff8111828210171561196c5761196c611930565b6040525050565b600082601f83011261198457600080fd5b813567ffffffffffffffff81111561199e5761199e611930565b6040516119b5601f8301601f191660200182611946565b8181528460208386010111156119ca57600080fd5b816020850160208301376000918101602001919091529392505050565b6000602082840312156119f957600080fd5b813567ffffffffffffffff811115611a1057600080fd5b611a1c84828501611973565b949350505050565b60005b83811015611a3f578181015183820152602001611a27565b83811115611a4e576000848401525b50505050565b60008151808452611a6c816020860160208601611a24565b601f01601f19169290920160200192915050565b6020815260006115996020830184611a54565b600060208284031215611aa557600080fd5b5035919050565b600067ffffffffffffffff821115611ac657611ac6611930565b5060051b60200190565b600082601f830112611ae157600080fd5b81356020611aee82611aac565b604051611afb8282611946565b83815260059390931b8501820192828101915086841115611b1b57600080fd5b8286015b84811015611b365780358352918301918301611b1f565b509695505050505050565b600080600080600060a08688031215611b5957600080fd5b611b62866118b9565b9450611b70602087016118b9565b9350604086013567ffffffffffffffff80821115611b8d57600080fd5b611b9989838a01611ad0565b94506060880135915080821115611baf57600080fd5b611bbb89838a01611ad0565b93506080880135915080821115611bd157600080fd5b50611bde88828901611973565b9150509295509295909350565b60008060408385031215611bfe57600080fd5b82359150611c0e602084016118b9565b90509250929050565b60008060408385031215611c2a57600080fd5b823567ffffffffffffffff80821115611c4257600080fd5b818501915085601f830112611c5657600080fd5b81356020611c6382611aac565b604051611c708282611946565b83815260059390931b8501820192828101915089841115611c9057600080fd5b948201945b83861015611cb557611ca6866118b9565b82529482019490820190611c95565b96505086013592505080821115611ccb57600080fd5b50611cd885828601611ad0565b9150509250929050565b600081518084526020808501945080840160005b83811015611d1257815187529582019590820190600101611cf6565b509495945050505050565b6020815260006115996020830184611ce2565b60008060008060808587031215611d4657600080fd5b611d4f856118b9565b935060208086013567ffffffffffffffff80821115611d6d57600080fd5b611d7989838a01611ad0565b95506040880135915080821115611d8f57600080fd5b611d9b89838a01611ad0565b94506060880135915080821115611db157600080fd5b818801915088601f830112611dc557600080fd5b8135611dd081611aac565b604051611ddd8282611946565b82815260059290921b840185019185810191508b831115611dfd57600080fd5b8585015b83811015611e3557803585811115611e195760008081fd5b611e278e89838a0101611973565b845250918601918601611e01565b50989b979a50959850505050505050565b60008060008060808587031215611e5c57600080fd5b611e65856118b9565b93506020850135925060408501359150606085013567ffffffffffffffff811115611e8f57600080fd5b611e9b87828801611973565b91505092959194509250565b60008060408385031215611eba57600080fd5b611ec3836118b9565b915060208301358015158114611ed857600080fd5b809150509250929050565b60008060408385031215611ef657600080fd5b611eff836118b9565b9150611c0e602084016118b9565b600080600080600060a08688031215611f2557600080fd5b611f2e866118b9565b9450611f3c602087016118b9565b93506040860135925060608601359150608086013567ffffffffffffffff811115611f6657600080fd5b611bde88828901611973565b600181811c90821680611f8657607f821691505b60208210811415611fa757634e487b7160e01b600052602260045260246000fd5b50919050565b634e487b7160e01b600052603260045260246000fd5b634e487b7160e01b600052601160045260246000fd5b6000600019821415611fed57611fed611fc3565b5060010190565b6000821982111561200757612007611fc3565b500190565b7f416363657373436f6e74726f6c3a206163636f756e7420000000000000000000815260008351612044816017850160208801611a24565b7001034b99036b4b9b9b4b733903937b6329607d1b6017918401918201528351612075816028840160208801611a24565b01602801949350505050565b60208082526028908201527f455243313135353a2069647320616e6420616d6f756e7473206c656e677468206040820152670dad2e6dac2e8c6d60c31b606082015260800190565b60208082526025908201527f455243313135353a207472616e7366657220746f20746865207a65726f206164604082015264647265737360d81b606082015260800190565b6020808252602a908201527f455243313135353a20696e73756666696369656e742062616c616e636520666f60408201526939103a3930b739b332b960b11b606082015260800190565b60408152600061216b6040830185611ce2565b828103602084015261217d8185611ce2565b95945050505050565b60208082526021908201527f455243313135353a206d696e7420746f20746865207a65726f206164647265736040820152607360f81b606082015260800190565b60008160001904831182151516156121e1576121e1611fc3565b500290565b6000816121f5576121f5611fc3565b506000190190565b6001600160a01b0386811682528516602082015260a06040820181905260009061222990830186611ce2565b828103606084015261223b8186611ce2565b9050828103608084015261224f8185611a54565b98975050505050505050565b60006020828403121561226d57600080fd5b8151611599816118fa565b600060033d11156122915760046000803e5060005160e01c5b90565b600060443d10156122a25790565b6040516003193d81016004833e81513d67ffffffffffffffff81602484011181841117156122d257505050505090565b82850191508151818111156122ea5750505050505090565b843d87010160208285010111156123045750505050505090565b61231360208286010187611946565b509095945050505050565b60208082526028908201527f455243313135353a204552433131353552656365697665722072656a656374656040820152676420746f6b656e7360c01b606082015260800190565b6001600160a01b03868116825285166020820152604081018490526060810183905260a0608082018190526000906123a090830184611a54565b97965050505050505056fe9f2df0fed2c77648de5860a4cc508cd0818c85b8b8a1ab4ceeef8d981c8956a6a2646970667358221220cad949ba0728183be82fd124aec431896797e74f57d3e26922f09afbd0373c3e64736f6c63430008090033",
  "devdoc": {
    "kind": "dev",
    "methods": {
      "balanceOf(address,uint256)": {
        "details": "See {IERC1155-balanceOf}. Requirements: - `account` cannot be the zero address."
      },
      "balanceOfBatch(address[],uint256[])": {
        "details": "See {IERC1155-balanceOfBatch}. Requirements: - `accounts` and `ids` must have the same length."
      },
      "getRoleAdmin(bytes32)": {
        "details": "Returns the admin role that controls `role`. See {grantRole} and {revokeRole}. To change a role's admin, use {_setRoleAdmin}."
      },
      "grantRole(bytes32,address)": {
        "details": "Grants `role` to `account`. If `account` had not been already granted `role`, emits a {RoleGranted} event. Requirements: - the caller must have ``role``'s admin role."
      },
      "hasRole(bytes32,address)": {
        "details": "Returns `true` if `account` has been granted `role`."
      },
      "isApprovedForAll(address,address)": {
        "details": "See {IERC1155-isApprovedForAll}."
      },
      "renounceRole(bytes32,address)": {
        "details": "Revokes `role` from the calling account. Roles are often managed via {grantRole} and {revokeRole}: this function's purpose is to provide a mechanism for accounts to lose their privileges if they are compromised (such as when a trusted device is misplaced). If the calling account had been revoked `role`, emits a {RoleRevoked} event. Requirements: - the caller must be `account`."
      },
      "revokeRole(bytes32,address)": {
        "details": "Revokes `role` from `account`. If `account` had been granted `role`, emits a {RoleRevoked} event. Requirements: - the caller must have ``role``'s admin role."
      },
      "safeBatchTransferFrom(address,address,uint256[],uint256[],bytes)": {
        "details": "See {IERC1155-safeBatchTransferFrom}."
      },
      "safeTransferFrom(address,address,uint256,uint256,bytes)": {
        "details": "See {IERC1155-safeTransferFrom}."
      },
      "setApprovalForAll(address,bool)": {
        "details": "See {IERC1155-setApprovalForAll}."
      }
    },
    "version": 1
  },
  "userdoc": {
    "kind": "user",
    "methods": {},
    "version": 1
  },
  "storageLayout": {
    "storage": [
      {
        "astId": 608,
        "contract": "contracts/products/7_erc1155.sol:ERC1155NFT",
        "label": "_balances",
        "offset": 0,
        "slot": "0",
        "type": "t_mapping(t_uint256,t_mapping(t_address,t_uint256))"
      },
      {
        "astId": 614,
        "contract": "contracts/products/7_erc1155.sol:ERC1155NFT",
        "label": "_operatorApprovals",
        "offset": 0,
        "slot": "1",
        "type": "t_mapping(t_address,t_mapping(t_address,t_bool))"
      },
      {
        "astId": 616,
        "contract": "contracts/products/7_erc1155.sol:ERC1155NFT",
        "label": "_uri",
        "offset": 0,
        "slot": "2",
        "type": "t_string_storage"
      },
      {
        "astId": 24,
        "contract": "contracts/products/7_erc1155.sol:ERC1155NFT",
        "label": "_roles",
        "offset": 0,
        "slot": "3",
        "type": "t_mapping(t_bytes32,t_struct(RoleData)19_storage)"
      },
      {
        "astId": 9678,
        "contract": "contracts/products/7_erc1155.sol:ERC1155NFT",
        "label": "name",
        "offset": 0,
        "slot": "4",
        "type": "t_string_storage"
      },
      {
        "astId": 9680,
        "contract": "contracts/products/7_erc1155.sol:ERC1155NFT",
        "label": "symbol",
        "offset": 0,
        "slot": "5",
        "type": "t_string_storage"
      },
      {
        "astId": 9684,
        "contract": "contracts/products/7_erc1155.sol:ERC1155NFT",
        "label": "tokenSupply",
        "offset": 0,
        "slot": "6",
        "type": "t_mapping(t_uint256,t_uint256)"
      },
      {
        "astId": 9688,
        "contract": "contracts/products/7_erc1155.sol:ERC1155NFT",
        "label": "_tokenURIs",
        "offset": 0,
        "slot": "7",
        "type": "t_mapping(t_uint256,t_string_storage)"
      }
    ],
    "types": {
      "t_address": {
        "encoding": "inplace",
        "label": "address",
        "numberOfBytes": "20"
      },
      "t_bool": {
        "encoding": "inplace",
        "label": "bool",
        "numberOfBytes": "1"
      },
      "t_bytes32": {
        "encoding": "inplace",
        "label": "bytes32",
        "numberOfBytes": "32"
      },
      "t_mapping(t_address,t_bool)": {
        "encoding": "mapping",
        "key": "t_address",
        "label": "mapping(address => bool)",
        "numberOfBytes": "32",
        "value": "t_bool"
      },
      "t_mapping(t_address,t_mapping(t_address,t_bool))": {
        "encoding": "mapping",
        "key": "t_address",
        "label": "mapping(address => mapping(address => bool))",
        "numberOfBytes": "32",
        "value": "t_mapping(t_address,t_bool)"
      },
      "t_mapping(t_address,t_uint256)": {
        "encoding": "mapping",
        "key": "t_address",
        "label": "mapping(address => uint256)",
        "numberOfBytes": "32",
        "value": "t_uint256"
      },
      "t_mapping(t_bytes32,t_struct(RoleData)19_storage)": {
        "encoding": "mapping",
        "key": "t_bytes32",
        "label": "mapping(bytes32 => struct AccessControl.RoleData)",
        "numberOfBytes": "32",
        "value": "t_struct(RoleData)19_storage"
      },
      "t_mapping(t_uint256,t_mapping(t_address,t_uint256))": {
        "encoding": "mapping",
        "key": "t_uint256",
        "label": "mapping(uint256 => mapping(address => uint256))",
        "numberOfBytes": "32",
        "value": "t_mapping(t_address,t_uint256)"
      },
      "t_mapping(t_uint256,t_string_storage)": {
        "encoding": "mapping",
        "key": "t_uint256",
        "label": "mapping(uint256 => string)",
        "numberOfBytes": "32",
        "value": "t_string_storage"
      },
      "t_mapping(t_uint256,t_uint256)": {
        "encoding": "mapping",
        "key": "t_uint256",
        "label": "mapping(uint256 => uint256)",
        "numberOfBytes": "32",
        "value": "t_uint256"
      },
      "t_string_storage": {
        "encoding": "bytes",
        "label": "string",
        "numberOfBytes": "32"
      },
      "t_struct(RoleData)19_storage": {
        "encoding": "inplace",
        "label": "struct AccessControl.RoleData",
        "members": [
          {
            "astId": 16,
            "contract": "contracts/products/7_erc1155.sol:ERC1155NFT",
            "label": "members",
            "offset": 0,
            "slot": "0",
            "type": "t_mapping(t_address,t_bool)"
          },
          {
            "astId": 18,
            "contract": "contracts/products/7_erc1155.sol:ERC1155NFT",
            "label": "adminRole",
            "offset": 0,
            "slot": "1",
            "type": "t_bytes32"
          }
        ],
        "numberOfBytes": "64"
      },
      "t_uint256": {
        "encoding": "inplace",
        "label": "uint256",
        "numberOfBytes": "32"
      }
    }
  }
}