{
  "address": "0xA0583d2aC0d1b15d19cf967395e89d31F3e5DB6f",
  "abi": [
    {
      "inputs": [],
      "stateMutability": "nonpayable",
      "type": "constructor"
    },
    {
      "inputs": [],
      "name": "ApprovalCallerNotOwnerNorApproved",
      "type": "error"
    },
    {
      "inputs": [],
      "name": "ApprovalQueryForNonexistentToken",
      "type": "error"
    },
    {
      "inputs": [],
      "name": "ApprovalToCurrentOwner",
      "type": "error"
    },
    {
      "inputs": [],
      "name": "ApproveToCaller",
      "type": "error"
    },
    {
      "inputs": [],
      "name": "BalanceQueryForZeroAddress",
      "type": "error"
    },
    {
      "inputs": [],
      "name": "MintToZeroAddress",
      "type": "error"
    },
    {
      "inputs": [],
      "name": "MintZeroQuantity",
      "type": "error"
    },
    {
      "inputs": [],
      "name": "OwnerQueryForNonexistentToken",
      "type": "error"
    },
    {
      "inputs": [],
      "name": "TransferCallerNotOwnerNorApproved",
      "type": "error"
    },
    {
      "inputs": [],
      "name": "TransferFromIncorrectOwner",
      "type": "error"
    },
    {
      "inputs": [],
      "name": "TransferToNonERC721ReceiverImplementer",
      "type": "error"
    },
    {
      "inputs": [],
      "name": "TransferToZeroAddress",
      "type": "error"
    },
    {
      "anonymous": false,
      "inputs": [
        {
          "indexed": true,
          "internalType": "address",
          "name": "owner",
          "type": "address"
        },
        {
          "indexed": true,
          "internalType": "address",
          "name": "approved",
          "type": "address"
        },
        {
          "indexed": true,
          "internalType": "uint256",
          "name": "tokenId",
          "type": "uint256"
        }
      ],
      "name": "Approval",
      "type": "event"
    },
    {
      "anonymous": false,
      "inputs": [
        {
          "indexed": true,
          "internalType": "address",
          "name": "owner",
          "type": "address"
        },
        {
          "indexed": true,
          "internalType": "address",
          "name": "operator",
          "type": "address"
        },
        {
          "indexed": false,
          "internalType": "bool",
          "name": "approved",
          "type": "bool"
        }
      ],
      "name": "ApprovalForAll",
      "type": "event"
    },
    {
      "anonymous": false,
      "inputs": [
        {
          "indexed": false,
          "internalType": "uint8",
          "name": "version",
          "type": "uint8"
        }
      ],
      "name": "Initialized",
      "type": "event"
    },
    {
      "anonymous": false,
      "inputs": [
        {
          "indexed": true,
          "internalType": "address",
          "name": "previousOwner",
          "type": "address"
        },
        {
          "indexed": true,
          "internalType": "address",
          "name": "newOwner",
          "type": "address"
        }
      ],
      "name": "OwnershipTransferred",
      "type": "event"
    },
    {
      "anonymous": false,
      "inputs": [
        {
          "indexed": true,
          "internalType": "bytes32",
          "name": "role",
          "type": "bytes32"
        },
        {
          "indexed": true,
          "internalType": "bytes32",
          "name": "previousAdminRole",
          "type": "bytes32"
        },
        {
          "indexed": true,
          "internalType": "bytes32",
          "name": "newAdminRole",
          "type": "bytes32"
        }
      ],
      "name": "RoleAdminChanged",
      "type": "event"
    },
    {
      "anonymous": false,
      "inputs": [
        {
          "indexed": true,
          "internalType": "bytes32",
          "name": "role",
          "type": "bytes32"
        },
        {
          "indexed": true,
          "internalType": "address",
          "name": "account",
          "type": "address"
        },
        {
          "indexed": true,
          "internalType": "address",
          "name": "sender",
          "type": "address"
        }
      ],
      "name": "RoleGranted",
      "type": "event"
    },
    {
      "anonymous": false,
      "inputs": [
        {
          "indexed": true,
          "internalType": "bytes32",
          "name": "role",
          "type": "bytes32"
        },
        {
          "indexed": true,
          "internalType": "address",
          "name": "account",
          "type": "address"
        },
        {
          "indexed": true,
          "internalType": "address",
          "name": "sender",
          "type": "address"
        }
      ],
      "name": "RoleRevoked",
      "type": "event"
    },
    {
      "anonymous": false,
      "inputs": [
        {
          "indexed": true,
          "internalType": "address",
          "name": "from",
          "type": "address"
        },
        {
          "indexed": true,
          "internalType": "address",
          "name": "to",
          "type": "address"
        },
        {
          "indexed": true,
          "internalType": "uint256",
          "name": "tokenId",
          "type": "uint256"
        }
      ],
      "name": "Transfer",
      "type": "event"
    },
    {
      "inputs": [],
      "name": "ADMIN_ROLE",
      "outputs": [
        {
          "internalType": "bytes32",
          "name": "",
          "type": "bytes32"
        }
      ],
      "stateMutability": "view",
      "type": "function"
    },
    {
      "inputs": [],
      "name": "DEFAULT_ADMIN_ROLE",
      "outputs": [
        {
          "internalType": "bytes32",
          "name": "",
          "type": "bytes32"
        }
      ],
      "stateMutability": "view",
      "type": "function"
    },
    {
      "inputs": [],
      "name": "NAME",
      "outputs": [
        {
          "internalType": "string",
          "name": "",
          "type": "string"
        }
      ],
      "stateMutability": "view",
      "type": "function"
    },
    {
      "inputs": [],
      "name": "ROYALTIES_BASIS",
      "outputs": [
        {
          "internalType": "uint16",
          "name": "",
          "type": "uint16"
        }
      ],
      "stateMutability": "view",
      "type": "function"
    },
    {
      "inputs": [],
      "name": "VERSION",
      "outputs": [
        {
          "internalType": "uint256",
          "name": "",
          "type": "uint256"
        }
      ],
      "stateMutability": "view",
      "type": "function"
    },
    {
      "inputs": [
        {
          "internalType": "address",
          "name": "to",
          "type": "address"
        },
        {
          "internalType": "uint256",
          "name": "tokenId",
          "type": "uint256"
        }
      ],
      "name": "approve",
      "outputs": [],
      "stateMutability": "nonpayable",
      "type": "function"
    },
    {
      "inputs": [],
      "name": "availableSupply",
      "outputs": [
        {
          "internalType": "uint256",
          "name": "",
          "type": "uint256"
        }
      ],
      "stateMutability": "view",
      "type": "function"
    },
    {
      "inputs": [
        {
          "internalType": "address",
          "name": "owner",
          "type": "address"
        }
      ],
      "name": "balanceOf",
      "outputs": [
        {
          "internalType": "uint256",
          "name": "",
          "type": "uint256"
        }
      ],
      "stateMutability": "view",
      "type": "function"
    },
    {
      "inputs": [],
      "name": "baseURI",
      "outputs": [
        {
          "internalType": "string",
          "name": "",
          "type": "string"
        }
      ],
      "stateMutability": "view",
      "type": "function"
    },
    {
      "inputs": [],
      "name": "contractURI",
      "outputs": [
        {
          "internalType": "string",
          "name": "",
          "type": "string"
        }
      ],
      "stateMutability": "view",
      "type": "function"
    },
    {
      "inputs": [
        {
          "internalType": "uint256",
          "name": "tokenId",
          "type": "uint256"
        }
      ],
      "name": "getApproved",
      "outputs": [
        {
          "internalType": "address",
          "name": "",
          "type": "address"
        }
      ],
      "stateMutability": "view",
      "type": "function"
    },
    {
      "inputs": [],
      "name": "getInfo",
      "outputs": [
        {
          "components": [
            {
              "internalType": "uint256",
              "name": "version",
              "type": "uint256"
            },
            {
              "components": [
                {
                  "internalType": "string",
                  "name": "name",
                  "type": "string"
                },
                {
                  "internalType": "string",
                  "name": "symbol",
                  "type": "string"
                },
                {
                  "internalType": "address",
                  "name": "owner",
                  "type": "address"
                },
                {
                  "internalType": "uint256",
                  "name": "maxSupply",
                  "type": "uint256"
                },
                {
                  "internalType": "uint256",
                  "name": "reservedSupply",
                  "type": "uint256"
                },
                {
                  "internalType": "uint256",
                  "name": "tokensPerMint",
                  "type": "uint256"
                },
                {
                  "internalType": "address payable",
                  "name": "treasuryAddress",
                  "type": "address"
                }
              ],
              "internalType": "struct NFTCollection.DeploymentConfig",
              "name": "deploymentConfig",
              "type": "tuple"
            },
            {
              "components": [
                {
                  "internalType": "string",
                  "name": "baseURI",
                  "type": "string"
                },
                {
                  "internalType": "bool",
                  "name": "metadataUpdatable",
                  "type": "bool"
                },
                {
                  "internalType": "uint256",
                  "name": "publicMintPrice",
                  "type": "uint256"
                },
                {
                  "internalType": "bool",
                  "name": "publicMintPriceFrozen",
                  "type": "bool"
                },
                {
                  "internalType": "uint256",
                  "name": "presaleMintPrice",
                  "type": "uint256"
                },
                {
                  "internalType": "bool",
                  "name": "presaleMintPriceFrozen",
                  "type": "bool"
                },
                {
                  "internalType": "uint256",
                  "name": "publicMintStart",
                  "type": "uint256"
                },
                {
                  "internalType": "uint256",
                  "name": "presaleMintStart",
                  "type": "uint256"
                },
                {
                  "internalType": "string",
                  "name": "prerevealTokenURI",
                  "type": "string"
                },
                {
                  "internalType": "bytes32",
                  "name": "presaleMerkleRoot",
                  "type": "bytes32"
                },
                {
                  "internalType": "uint256",
                  "name": "royaltiesBps",
                  "type": "uint256"
                },
                {
                  "internalType": "address",
                  "name": "royaltiesAddress",
                  "type": "address"
                }
              ],
              "internalType": "struct NFTCollection.RuntimeConfig",
              "name": "runtimeConfig",
              "type": "tuple"
            }
          ],
          "internalType": "struct NFTCollection.ContractInfo",
          "name": "info",
          "type": "tuple"
        }
      ],
      "stateMutability": "view",
      "type": "function"
    },
    {
      "inputs": [
        {
          "internalType": "bytes32",
          "name": "role",
          "type": "bytes32"
        }
      ],
      "name": "getRoleAdmin",
      "outputs": [
        {
          "internalType": "bytes32",
          "name": "",
          "type": "bytes32"
        }
      ],
      "stateMutability": "view",
      "type": "function"
    },
    {
      "inputs": [
        {
          "internalType": "bytes32",
          "name": "role",
          "type": "bytes32"
        },
        {
          "internalType": "address",
          "name": "account",
          "type": "address"
        }
      ],
      "name": "grantRole",
      "outputs": [],
      "stateMutability": "nonpayable",
      "type": "function"
    },
    {
      "inputs": [
        {
          "internalType": "bytes32",
          "name": "role",
          "type": "bytes32"
        },
        {
          "internalType": "address",
          "name": "account",
          "type": "address"
        }
      ],
      "name": "hasRole",
      "outputs": [
        {
          "internalType": "bool",
          "name": "",
          "type": "bool"
        }
      ],
      "stateMutability": "view",
      "type": "function"
    },
    {
      "inputs": [
        {
          "components": [
            {
              "internalType": "string",
              "name": "name",
              "type": "string"
            },
            {
              "internalType": "string",
              "name": "symbol",
              "type": "string"
            },
            {
              "internalType": "address",
              "name": "owner",
              "type": "address"
            },
            {
              "internalType": "uint256",
              "name": "maxSupply",
              "type": "uint256"
            },
            {
              "internalType": "uint256",
              "name": "reservedSupply",
              "type": "uint256"
            },
            {
              "internalType": "uint256",
              "name": "tokensPerMint",
              "type": "uint256"
            },
            {
              "internalType": "address payable",
              "name": "treasuryAddress",
              "type": "address"
            }
          ],
          "internalType": "struct NFTCollection.DeploymentConfig",
          "name": "deploymentConfig",
          "type": "tuple"
        },
        {
          "components": [
            {
              "internalType": "string",
              "name": "baseURI",
              "type": "string"
            },
            {
              "internalType": "bool",
              "name": "metadataUpdatable",
              "type": "bool"
            },
            {
              "internalType": "uint256",
              "name": "publicMintPrice",
              "type": "uint256"
            },
            {
              "internalType": "bool",
              "name": "publicMintPriceFrozen",
              "type": "bool"
            },
            {
              "internalType": "uint256",
              "name": "presaleMintPrice",
              "type": "uint256"
            },
            {
              "internalType": "bool",
              "name": "presaleMintPriceFrozen",
              "type": "bool"
            },
            {
              "internalType": "uint256",
              "name": "publicMintStart",
              "type": "uint256"
            },
            {
              "internalType": "uint256",
              "name": "presaleMintStart",
              "type": "uint256"
            },
            {
              "internalType": "string",
              "name": "prerevealTokenURI",
              "type": "string"
            },
            {
              "internalType": "bytes32",
              "name": "presaleMerkleRoot",
              "type": "bytes32"
            },
            {
              "internalType": "uint256",
              "name": "royaltiesBps",
              "type": "uint256"
            },
            {
              "internalType": "address",
              "name": "royaltiesAddress",
              "type": "address"
            }
          ],
          "internalType": "struct NFTCollection.RuntimeConfig",
          "name": "runtimeConfig",
          "type": "tuple"
        }
      ],
      "name": "initialize",
      "outputs": [],
      "stateMutability": "nonpayable",
      "type": "function"
    },
    {
      "inputs": [
        {
          "internalType": "address",
          "name": "owner",
          "type": "address"
        },
        {
          "internalType": "address",
          "name": "operator",
          "type": "address"
        }
      ],
      "name": "isApprovedForAll",
      "outputs": [
        {
          "internalType": "bool",
          "name": "",
          "type": "bool"
        }
      ],
      "stateMutability": "view",
      "type": "function"
    },
    {
      "inputs": [
        {
          "internalType": "address",
          "name": "wallet",
          "type": "address"
        },
        {
          "internalType": "bytes32[]",
          "name": "proof",
          "type": "bytes32[]"
        }
      ],
      "name": "isWhitelisted",
      "outputs": [
        {
          "internalType": "bool",
          "name": "",
          "type": "bool"
        }
      ],
      "stateMutability": "view",
      "type": "function"
    },
    {
      "inputs": [],
      "name": "maxSupply",
      "outputs": [
        {
          "internalType": "uint256",
          "name": "",
          "type": "uint256"
        }
      ],
      "stateMutability": "view",
      "type": "function"
    },
    {
      "inputs": [],
      "name": "metadataUpdatable",
      "outputs": [
        {
          "internalType": "bool",
          "name": "",
          "type": "bool"
        }
      ],
      "stateMutability": "view",
      "type": "function"
    },
    {
      "inputs": [
        {
          "internalType": "uint256",
          "name": "amount",
          "type": "uint256"
        }
      ],
      "name": "mint",
      "outputs": [],
      "stateMutability": "payable",
      "type": "function"
    },
    {
      "inputs": [],
      "name": "mintingActive",
      "outputs": [
        {
          "internalType": "bool",
          "name": "",
          "type": "bool"
        }
      ],
      "stateMutability": "view",
      "type": "function"
    },
    {
      "inputs": [],
      "name": "name",
      "outputs": [
        {
          "internalType": "string",
          "name": "",
          "type": "string"
        }
      ],
      "stateMutability": "view",
      "type": "function"
    },
    {
      "inputs": [],
      "name": "owner",
      "outputs": [
        {
          "internalType": "address",
          "name": "",
          "type": "address"
        }
      ],
      "stateMutability": "view",
      "type": "function"
    },
    {
      "inputs": [
        {
          "internalType": "uint256",
          "name": "tokenId",
          "type": "uint256"
        }
      ],
      "name": "ownerOf",
      "outputs": [
        {
          "internalType": "address",
          "name": "",
          "type": "address"
        }
      ],
      "stateMutability": "view",
      "type": "function"
    },
    {
      "inputs": [],
      "name": "prerevealTokenURI",
      "outputs": [
        {
          "internalType": "string",
          "name": "",
          "type": "string"
        }
      ],
      "stateMutability": "view",
      "type": "function"
    },
    {
      "inputs": [],
      "name": "presaleActive",
      "outputs": [
        {
          "internalType": "bool",
          "name": "",
          "type": "bool"
        }
      ],
      "stateMutability": "view",
      "type": "function"
    },
    {
      "inputs": [],
      "name": "presaleMerkleRoot",
      "outputs": [
        {
          "internalType": "bytes32",
          "name": "",
          "type": "bytes32"
        }
      ],
      "stateMutability": "view",
      "type": "function"
    },
    {
      "inputs": [
        {
          "internalType": "uint256",
          "name": "amount",
          "type": "uint256"
        },
        {
          "internalType": "bytes32[]",
          "name": "proof",
          "type": "bytes32[]"
        }
      ],
      "name": "presaleMint",
      "outputs": [],
      "stateMutability": "payable",
      "type": "function"
    },
    {
      "inputs": [],
      "name": "presaleMintPrice",
      "outputs": [
        {
          "internalType": "uint256",
          "name": "",
          "type": "uint256"
        }
      ],
      "stateMutability": "view",
      "type": "function"
    },
    {
      "inputs": [],
      "name": "presaleMintStart",
      "outputs": [
        {
          "internalType": "uint256",
          "name": "",
          "type": "uint256"
        }
      ],
      "stateMutability": "view",
      "type": "function"
    },
    {
      "inputs": [],
      "name": "publicMintPrice",
      "outputs": [
        {
          "internalType": "uint256",
          "name": "",
          "type": "uint256"
        }
      ],
      "stateMutability": "view",
      "type": "function"
    },
    {
      "inputs": [],
      "name": "publicMintStart",
      "outputs": [
        {
          "internalType": "uint256",
          "name": "",
          "type": "uint256"
        }
      ],
      "stateMutability": "view",
      "type": "function"
    },
    {
      "inputs": [
        {
          "internalType": "bytes32",
          "name": "role",
          "type": "bytes32"
        },
        {
          "internalType": "address",
          "name": "account",
          "type": "address"
        }
      ],
      "name": "renounceRole",
      "outputs": [],
      "stateMutability": "nonpayable",
      "type": "function"
    },
    {
      "inputs": [
        {
          "internalType": "address",
          "name": "to",
          "type": "address"
        },
        {
          "internalType": "uint256",
          "name": "amount",
          "type": "uint256"
        }
      ],
      "name": "reserveMint",
      "outputs": [],
      "stateMutability": "nonpayable",
      "type": "function"
    },
    {
      "inputs": [],
      "name": "reserveRemaining",
      "outputs": [
        {
          "internalType": "uint256",
          "name": "",
          "type": "uint256"
        }
      ],
      "stateMutability": "view",
      "type": "function"
    },
    {
      "inputs": [],
      "name": "reservedSupply",
      "outputs": [
        {
          "internalType": "uint256",
          "name": "",
          "type": "uint256"
        }
      ],
      "stateMutability": "view",
      "type": "function"
    },
    {
      "inputs": [
        {
          "internalType": "bytes32",
          "name": "role",
          "type": "bytes32"
        },
        {
          "internalType": "address",
          "name": "account",
          "type": "address"
        }
      ],
      "name": "revokeRole",
      "outputs": [],
      "stateMutability": "nonpayable",
      "type": "function"
    },
    {
      "inputs": [
        {
          "internalType": "uint256",
          "name": "",
          "type": "uint256"
        },
        {
          "internalType": "uint256",
          "name": "salePrice",
          "type": "uint256"
        }
      ],
      "name": "royaltyInfo",
      "outputs": [
        {
          "internalType": "address",
          "name": "receiver",
          "type": "address"
        },
        {
          "internalType": "uint256",
          "name": "royaltyAmount",
          "type": "uint256"
        }
      ],
      "stateMutability": "view",
      "type": "function"
    },
    {
      "inputs": [
        {
          "internalType": "address",
          "name": "from",
          "type": "address"
        },
        {
          "internalType": "address",
          "name": "to",
          "type": "address"
        },
        {
          "internalType": "uint256",
          "name": "tokenId",
          "type": "uint256"
        }
      ],
      "name": "safeTransferFrom",
      "outputs": [],
      "stateMutability": "nonpayable",
      "type": "function"
    },
    {
      "inputs": [
        {
          "internalType": "address",
          "name": "from",
          "type": "address"
        },
        {
          "internalType": "address",
          "name": "to",
          "type": "address"
        },
        {
          "internalType": "uint256",
          "name": "tokenId",
          "type": "uint256"
        },
        {
          "internalType": "bytes",
          "name": "_data",
          "type": "bytes"
        }
      ],
      "name": "safeTransferFrom",
      "outputs": [],
      "stateMutability": "nonpayable",
      "type": "function"
    },
    {
      "inputs": [
        {
          "internalType": "address",
          "name": "operator",
          "type": "address"
        },
        {
          "internalType": "bool",
          "name": "approved",
          "type": "bool"
        }
      ],
      "name": "setApprovalForAll",
      "outputs": [],
      "stateMutability": "nonpayable",
      "type": "function"
    },
    {
      "inputs": [
        {
          "internalType": "bytes4",
          "name": "interfaceId",
          "type": "bytes4"
        }
      ],
      "name": "supportsInterface",
      "outputs": [
        {
          "internalType": "bool",
          "name": "",
          "type": "bool"
        }
      ],
      "stateMutability": "view",
      "type": "function"
    },
    {
      "inputs": [],
      "name": "symbol",
      "outputs": [
        {
          "internalType": "string",
          "name": "",
          "type": "string"
        }
      ],
      "stateMutability": "view",
      "type": "function"
    },
    {
      "inputs": [
        {
          "internalType": "uint256",
          "name": "tokenId",
          "type": "uint256"
        }
      ],
      "name": "tokenURI",
      "outputs": [
        {
          "internalType": "string",
          "name": "",
          "type": "string"
        }
      ],
      "stateMutability": "view",
      "type": "function"
    },
    {
      "inputs": [],
      "name": "tokensPerMint",
      "outputs": [
        {
          "internalType": "uint256",
          "name": "",
          "type": "uint256"
        }
      ],
      "stateMutability": "view",
      "type": "function"
    },
    {
      "inputs": [],
      "name": "totalSupply",
      "outputs": [
        {
          "internalType": "uint256",
          "name": "",
          "type": "uint256"
        }
      ],
      "stateMutability": "view",
      "type": "function"
    },
    {
      "inputs": [
        {
          "internalType": "address",
          "name": "to",
          "type": "address"
        }
      ],
      "name": "transferAdminRights",
      "outputs": [],
      "stateMutability": "nonpayable",
      "type": "function"
    },
    {
      "inputs": [
        {
          "internalType": "address",
          "name": "from",
          "type": "address"
        },
        {
          "internalType": "address",
          "name": "to",
          "type": "address"
        },
        {
          "internalType": "uint256",
          "name": "tokenId",
          "type": "uint256"
        }
      ],
      "name": "transferFrom",
      "outputs": [],
      "stateMutability": "nonpayable",
      "type": "function"
    },
    {
      "inputs": [
        {
          "internalType": "address",
          "name": "newOwner",
          "type": "address"
        }
      ],
      "name": "transferOwnership",
      "outputs": [],
      "stateMutability": "nonpayable",
      "type": "function"
    },
    {
      "inputs": [],
      "name": "treasuryAddress",
      "outputs": [
        {
          "internalType": "address",
          "name": "",
          "type": "address"
        }
      ],
      "stateMutability": "view",
      "type": "function"
    },
    {
      "inputs": [
        {
          "components": [
            {
              "internalType": "string",
              "name": "baseURI",
              "type": "string"
            },
            {
              "internalType": "bool",
              "name": "metadataUpdatable",
              "type": "bool"
            },
            {
              "internalType": "uint256",
              "name": "publicMintPrice",
              "type": "uint256"
            },
            {
              "internalType": "bool",
              "name": "publicMintPriceFrozen",
              "type": "bool"
            },
            {
              "internalType": "uint256",
              "name": "presaleMintPrice",
              "type": "uint256"
            },
            {
              "internalType": "bool",
              "name": "presaleMintPriceFrozen",
              "type": "bool"
            },
            {
              "internalType": "uint256",
              "name": "publicMintStart",
              "type": "uint256"
            },
            {
              "internalType": "uint256",
              "name": "presaleMintStart",
              "type": "uint256"
            },
            {
              "internalType": "string",
              "name": "prerevealTokenURI",
              "type": "string"
            },
            {
              "internalType": "bytes32",
              "name": "presaleMerkleRoot",
              "type": "bytes32"
            },
            {
              "internalType": "uint256",
              "name": "royaltiesBps",
              "type": "uint256"
            },
            {
              "internalType": "address",
              "name": "royaltiesAddress",
              "type": "address"
            }
          ],
          "internalType": "struct NFTCollection.RuntimeConfig",
          "name": "newConfig",
          "type": "tuple"
        }
      ],
      "name": "updateConfig",
      "outputs": [],
      "stateMutability": "nonpayable",
      "type": "function"
    },
    {
      "inputs": [],
      "name": "withdrawFees",
      "outputs": [],
      "stateMutability": "nonpayable",
      "type": "function"
    }
  ],
  "transactionHash": "0x5697929e484de99be8e8376875498a744bd7e129cabb5b8c884584770de3e54e",
  "args": [],
  "numDeployments": 4,
  "solcInputHash": "e0295fa3ea65e9eeb22f32df8650597f",
  "bytecode": "0x60806040523480156200001157600080fd5b506040805160208082018352600080835283519182019093529182529060026200003c83826200010a565b5060036200004b82826200010a565b50600080555050601e805460ff19166001179055620001d6565b634e487b7160e01b600052604160045260246000fd5b600181811c908216806200009057607f821691505b602082108103620000b157634e487b7160e01b600052602260045260246000fd5b50919050565b601f8211156200010557600081815260208120601f850160051c81016020861015620000e05750805b601f850160051c820191505b818110156200010157828155600101620000ec565b5050505b505050565b81516001600160401b0381111562000126576200012662000065565b6200013e816200013784546200007b565b84620000b7565b602080601f8311600181146200017657600084156200015d5750858301515b600019600386901b1c1916600185901b17855562000101565b600085815260208120601f198616915b82811015620001a75788860151825594840194600190910190840162000186565b5085821015620001c65787850151600019600388901b60f8161c191681555b5050505050600190811b01905550565b613f3580620001e66000396000f3fe60806040526004361061031a5760003560e01c806375b238fc116101ab578063b88d4fde116100f7578063dc53fd9211610095578063e985e9c51161006f578063e985e9c5146108ec578063f2fde38b14610935578063f4ad0f9714610955578063ffa1ad741461096a57600080fd5b8063dc53fd92146108af578063e3e1e8ef146108c4578063e8a3d485146108d757600080fd5b8063d1bff694116100d1578063d1bff6941461083a578063d547741f1461085a578063d5abeb011461087a578063d761aa481461088f57600080fd5b8063b88d4fde146107dc578063c5f956af146107fc578063c87b56dd1461081a57600080fd5b80639da5b0a511610164578063a22cb4651161013e578063a22cb46514610743578063a3f4df7e14610763578063b0ea18021461079c578063b5106add146107bc57600080fd5b80639da5b0a5146106f2578063a0712d681461071b578063a217fddf1461072e57600080fd5b806375b238fc146106535780637ecc2b56146106755780638cfec4c01461068a5780638da5cb5b1461069f57806391d14854146106bd57806395d89b41146106dd57600080fd5b806342842e0e1161026a5780635a23dd99116102235780635c629f4c116101fd5780635c629f4c146105e85780636352211e146105fe5780636c0360eb1461061e57806370a082311461063357600080fd5b80635a23dd99146105915780635a9b0b89146105b15780635be50521146105d357600080fd5b806342842e0e1461050357806344d19d2b146105235780634653124b14610538578063476343ee1461054d5780634e6f9dd61461056257806353135ca01461057a57600080fd5b806322212e2b116102d75780632a55205a116102b15780632a55205a1461046d5780632f2ff15d146104ac57806331f9c919146104cc57806336568abe146104e357600080fd5b806322212e2b1461040857806323b872dd1461041d578063248a9ca31461043d57600080fd5b806301ffc9a71461031f57806306fdde03146103545780630807b9e214610376578063081812fc14610395578063095ea7b3146103cd57806318160ddd146103ef575b600080fd5b34801561032b57600080fd5b5061033f61033a366004612fbc565b610980565b60405190151581526020015b60405180910390f35b34801561036057600080fd5b506103696109bb565b60405161034b9190613031565b34801561038257600080fd5b50601c545b60405190815260200161034b565b3480156103a157600080fd5b506103b56103b0366004613044565b610a50565b6040516001600160a01b03909116815260200161034b565b3480156103d957600080fd5b506103ed6103e8366004613082565b610a94565b005b3480156103fb57600080fd5b5060015460005403610387565b34801561041457600080fd5b50601454610387565b34801561042957600080fd5b506103ed6104383660046130ae565b610b21565b34801561044957600080fd5b50610387610458366004613044565b60009081526008602052604090206001015490565b34801561047957600080fd5b5061048d6104883660046130ef565b610b2c565b604080516001600160a01b03909316835260208301919091520161034b565b3480156104b857600080fd5b506103ed6104c7366004613111565b610b63565b3480156104d857600080fd5b50601154421161033f565b3480156104ef57600080fd5b506103ed6104fe366004613111565b610b88565b34801561050f57600080fd5b506103ed61051e3660046130ae565b610c0b565b34801561052f57600080fd5b50601b54610387565b34801561054457600080fd5b50601254610387565b34801561055957600080fd5b506103ed610c26565b34801561056e57600080fd5b50600c5460ff1661033f565b34801561058657600080fd5b50601254421161033f565b34801561059d57600080fd5b5061033f6105ac36600461318c565b610c57565b3480156105bd57600080fd5b506105c6610d35565b60405161034b91906132b6565b3480156105df57600080fd5b50600f54610387565b3480156105f457600080fd5b50610387600a5481565b34801561060a57600080fd5b506103b5610619366004613044565b61107e565b34801561062a57600080fd5b50610369611090565b34801561063f57600080fd5b5061038761064e366004613367565b6110a2565b34801561065f57600080fd5b50610387600080516020613ee083398151915281565b34801561068157600080fd5b506103876110f0565b34801561069657600080fd5b50601154610387565b3480156106ab57600080fd5b506019546001600160a01b03166103b5565b3480156106c957600080fd5b5061033f6106d8366004613111565b61111e565b3480156106e957600080fd5b50610369611149565b3480156106fe57600080fd5b5061070861271081565b60405161ffff909116815260200161034b565b6103ed610729366004613044565b61115b565b34801561073a57600080fd5b50610387600081565b34801561074f57600080fd5b506103ed61075e36600461339d565b611207565b34801561076f57600080fd5b506103696040518060400160405280600d81526020016c27232a21b7b63632b1ba34b7b760991b81525081565b3480156107a857600080fd5b506103ed6107b7366004613082565b61129c565b3480156107c857600080fd5b506103ed6107d7366004613367565b61131e565b3480156107e857600080fd5b506103ed6107f73660046134a1565b611410565b34801561080857600080fd5b50601d546001600160a01b03166103b5565b34801561082657600080fd5b50610369610835366004613044565b611461565b34801561084657600080fd5b506103ed610855366004613636565b611589565b34801561086657600080fd5b506103ed610875366004613111565b61186d565b34801561088657600080fd5b50601a54610387565b34801561089b57600080fd5b506103ed6108aa36600461372b565b611892565b3480156108bb57600080fd5b50600d54610387565b6103ed6108d2366004613766565b6118c0565b3480156108e357600080fd5b506103696119dd565b3480156108f857600080fd5b5061033f610907366004613798565b6001600160a01b03918216600090815260076020908152604080832093909416825291909152205460ff1690565b34801561094157600080fd5b506103ed610950366004613367565b611a5a565b34801561096157600080fd5b50610369611ac0565b34801561097657600080fd5b5061038761283e81565b600061098b82611ad2565b8061099a575061099a82611b22565b806109b5575063152a902d60e11b6001600160e01b03198316145b92915050565b6060601760000180546109cd906137c6565b80601f01602080910402602001604051908101604052809291908181526020018280546109f9906137c6565b8015610a465780601f10610a1b57610100808354040283529160200191610a46565b820191906000526020600020905b815481529060010190602001808311610a2957829003601f168201915b5050505050905090565b6000610a5b82611b57565b610a78576040516333d1c03960e21b815260040160405180910390fd5b506000908152600660205260409020546001600160a01b031690565b6000610a9f8261107e565b9050806001600160a01b0316836001600160a01b031603610ad35760405163250fdee360e21b815260040160405180910390fd5b336001600160a01b03821614801590610af35750610af18133610907565b155b15610b11576040516367d9dca160e11b815260040160405180910390fd5b610b1c838383611b82565b505050565b610b1c838383611bde565b6016546015546001600160a01b039091169060009061271090610b50908590613816565b610b5a919061384b565b90509250929050565b600082815260086020526040902060010154610b7e81611dcc565b610b1c8383611dd6565b6001600160a01b0381163314610bfd5760405162461bcd60e51b815260206004820152602f60248201527f416363657373436f6e74726f6c3a2063616e206f6e6c792072656e6f756e636560448201526e103937b632b9903337b91039b2b63360891b60648201526084015b60405180910390fd5b610c078282611e5c565b5050565b610b1c83838360405180602001604052806000815250611410565b600080516020613ee0833981519152610c3e81611dcc565b601d54610c54906001600160a01b031647611ec3565b50565b6001600160a01b0383166000908152601f602052604081205460ff1615610cb15760405162461bcd60e51b815260206004820152600e60248201526d105b1c9958591e481b5a5b9d195960921b6044820152606401610bf4565b6040516bffffffffffffffffffffffff19606086901b166020820152600090603401604051602081830303815290604052805190602001209050610d2c848480806020026020016040519081016040528093929190818152602001838360200280828437600092019190915250506014549150849050611fdc565b95945050505050565b610d3d612ec2565b61283e81526040805160e081019091526017805482908290610d5e906137c6565b80601f0160208091040260200160405190810160405280929190818152602001828054610d8a906137c6565b8015610dd75780601f10610dac57610100808354040283529160200191610dd7565b820191906000526020600020905b815481529060010190602001808311610dba57829003601f168201915b50505050508152602001600182018054610df0906137c6565b80601f0160208091040260200160405190810160405280929190818152602001828054610e1c906137c6565b8015610e695780601f10610e3e57610100808354040283529160200191610e69565b820191906000526020600020905b815481529060010190602001808311610e4c57829003601f168201915b505050918352505060028201546001600160a01b039081166020808401919091526003840154604080850191909152600485015460608501526005850154608085015260069094015490911660a09092019190915283019190915280516101808101909152600b805482908290610edf906137c6565b80601f0160208091040260200160405190810160405280929190818152602001828054610f0b906137c6565b8015610f585780601f10610f2d57610100808354040283529160200191610f58565b820191906000526020600020905b815481529060010190602001808311610f3b57829003601f168201915b5050509183525050600182015460ff9081161515602083015260028301546040830152600383015481161515606083015260048301546080830152600583015416151560a0820152600682015460c0820152600782015460e082015260088201805461010090920191610fca906137c6565b80601f0160208091040260200160405190810160405280929190818152602001828054610ff6906137c6565b80156110435780601f1061101857610100808354040283529160200191611043565b820191906000526020600020905b81548152906001019060200180831161102657829003601f168201915b505050918352505060098201546020820152600a820154604080830191909152600b909201546001600160a01b031660609091015282015290565b600061108982611ff2565b5192915050565b6060600b60000180546109cd906137c6565b60006001600160a01b0382166110cb576040516323d3ad8160e21b815260040160405180910390fd5b506001600160a01b03166000908152600560205260409020546001600160401b031690565b6000600a546111026001546000540390565b601a5461110f919061385f565b611119919061385f565b905090565b60009182526008602090815260408084206001600160a01b0393909316845291905290205460ff1690565b6060601760010180546109cd906137c6565b600d546111689082613816565b803410156111ac5760405162461bcd60e51b815260206004820152601160248201527014185e5b595b9d081d1bdbc81cdb585b1b607a1b6044820152606401610bf4565b60115442116111fd5760405162461bcd60e51b815260206004820152601b60248201527f4d696e74696e6720686173206e6f7420737461727465642079657400000000006044820152606401610bf4565b610c07338361210c565b336001600160a01b038316036112305760405163b06307db60e01b815260040160405180910390fd5b3360008181526007602090815260408083206001600160a01b03871680855290835292819020805460ff191686151590811790915590519081529192917f17307eab39ab6107e8899845ad3d59bd9653f200f220920489ca2b5937696c31910160405180910390a35050565b600080516020613ee08339815191526112b481611dcc565b600a548211156112fc5760405162461bcd60e51b8152602060048201526013602482015272139bdd08195b9bdd59da081c995cd95c9d9959606a1b6044820152606401610bf4565b81600a600082825461130e919061385f565b90915550610b1c9050838361210c565b600080516020613ee083398151915261133681611dcc565b61134e600080516020613ee08339815191528361111e565b1561138e5760405162461bcd60e51b815260206004820152601060248201526f20b63932b0b23c9030b71030b236b4b760811b6044820152606401610bf4565b6019546001600160a01b031633036113e05760405162461bcd60e51b81526020600482015260156024820152740557365207472616e736665724f776e65727368697605c1b6044820152606401610bf4565b6113f8600080516020613ee083398151915233611e5c565b610c07600080516020613ee083398151915283611dd6565b61141b848484611bde565b6001600160a01b0383163b1515801561143d575061143b848484846121ab565b155b1561145b576040516368d2bf6b60e11b815260040160405180910390fd5b50505050565b606061146c82611b57565b6114af5760405162461bcd60e51b8152602060048201526014602482015273151bdad95b88191bd95cc81b9bdd08195e1a5cdd60621b6044820152606401610bf4565b6000600b60000180546114c1906137c6565b90501161155857601380546114d5906137c6565b80601f0160208091040260200160405190810160405280929190818152602001828054611501906137c6565b801561154e5780601f106115235761010080835404028352916020019161154e565b820191906000526020600020905b81548152906001019060200180831161153157829003601f168201915b50505050506109b5565b600b61156383612297565b6040516020016115749291906138e9565b60405160208183030381529060405292915050565b600954610100900460ff16158080156115a95750600954600160ff909116105b806115c35750303b1580156115c3575060095460ff166001145b6116265760405162461bcd60e51b815260206004820152602e60248201527f496e697469616c697a61626c653a20636f6e747261637420697320616c72656160448201526d191e481a5b9a5d1a585b1a5e995960921b6064820152608401610bf4565b6009805460ff191660011790558015611649576009805461ff0019166101001790555b601e5460ff16156116945760405162461bcd60e51b815260206004820152601560248201527410d85b9b9bdd081899481a5b9a5d1a585b1a5e9959605a1b6044820152606401610bf4565b61169d83612397565b6116b5600080516020613ee083398151915233611dd6565b6116c2836040015161254b565b8251839060179081906116d5908261395c565b50602082015160018201906116ea908261395c565b5060408201516002820180546001600160a01b03199081166001600160a01b0393841617909155606084015160038401556080840151600484015560a0840151600584015560c09093015160069092018054909316911617905581518290600b908190611757908261395c565b50602082015160018201805491151560ff199283161790556040830151600283015560608301516003830180549115159183169190911790556080830151600483015560a08301516005830180549115159190921617905560c0820151600682015560e0820151600782015561010082015160088201906117d8908261395c565b506101208201516009820155610140820151600a8083019190915561016090920151600b90910180546001600160a01b0319166001600160a01b03909216919091179055608084015190558015610b1c576009805461ff0019169055604051600181527f7f26b83ff96e1f2b6a682f133852f6798a09c465da95921460cefb38474024989060200160405180910390a1505050565b60008281526008602052604090206001015461188881611dcc565b610b1c8383611e5c565b600080516020613ee08339815191526118aa81611dcc565b6118b3826125fc565b81600b61145b8282613b3a565b600f546118cd9084613816565b803410156119115760405162461bcd60e51b815260206004820152601160248201527014185e5b595b9d081d1bdbc81cdb585b1b607a1b6044820152606401610bf4565b60125442116119625760405162461bcd60e51b815260206004820152601b60248201527f50726573616c6520686173206e6f7420737461727465642079657400000000006044820152606401610bf4565b61196d338484610c57565b6119b95760405162461bcd60e51b815260206004820152601b60248201527f4e6f742077686974656c697374656420666f722070726573616c6500000000006044820152606401610bf4565b336000818152601f60205260409020805460ff1916600117905561145b908561210c565b60606000611a2e6119f2600b600a0154612297565b601654611a09906001600160a01b03166014612663565b604051602001611a1a929190613c59565b604051602081830303815290604052612805565b9050600081604051602001611a439190613ce0565b60408051601f198184030181529190529392505050565b6000611a6581611dcc565b6019546001600160a01b0390811690831603611ab75760405162461bcd60e51b815260206004820152601160248201527020b63932b0b23c903a34329037bbb732b960791b6044820152606401610bf4565b610c078261254b565b6060600b60080180546109cd906137c6565b60006001600160e01b031982166380ac58cd60e01b1480611b0357506001600160e01b03198216635b5e139f60e01b145b806109b557506301ffc9a760e01b6001600160e01b03198316146109b5565b60006001600160e01b03198216637965db0b60e01b14806109b5575063152a902d60e11b6001600160e01b03198316146109b5565b60008054821080156109b5575050600090815260046020526040902054600160e01b900460ff161590565b60008281526006602052604080822080546001600160a01b0319166001600160a01b0387811691821790925591518593918516917f8c5be1e5ebec7d5bd14f71427d1e84f3dd0314c0f7b2291e5b200ac8c7c3b92591a4505050565b6000611be982611ff2565b9050836001600160a01b031681600001516001600160a01b031614611c205760405162a1148160e81b815260040160405180910390fd5b6000336001600160a01b0386161480611c3e5750611c3e8533610907565b80611c59575033611c4e84610a50565b6001600160a01b0316145b905080611c7957604051632ce44b5f60e11b815260040160405180910390fd5b6001600160a01b038416611ca057604051633a954ecd60e21b815260040160405180910390fd5b611cac60008487611b82565b6001600160a01b038581166000908152600560209081526040808320805467ffffffffffffffff198082166001600160401b0392831660001901831617909255898616808652838620805493841693831660019081018416949094179055898652600490945282852080546001600160e01b031916909417600160a01b42909216919091021783558701808452922080549193909116611d80576000548214611d8057805460208601516001600160401b0316600160a01b026001600160e01b03199091166001600160a01b038a16171781555b50505082846001600160a01b0316866001600160a01b03167fddf252ad1be2c89b69c2b068fc378daa952ba7f163c4a11628f55a4df523b3ef60405160405180910390a45b5050505050565b610c54813361296e565b611de0828261111e565b610c075760008281526008602090815260408083206001600160a01b03851684529091529020805460ff19166001179055611e183390565b6001600160a01b0316816001600160a01b0316837f2f8788117e7eff1d82e926ec794901d17c78024a50270940304540a733656f0d60405160405180910390a45050565b611e66828261111e565b15610c075760008281526008602090815260408083206001600160a01b0385168085529252808320805460ff1916905551339285917ff6391f5c32d9c69d2a47ea670b442974b53935d1edc7fd64eb21e047a839171b9190a45050565b80471015611f135760405162461bcd60e51b815260206004820152601d60248201527f416464726573733a20696e73756666696369656e742062616c616e63650000006044820152606401610bf4565b6000826001600160a01b03168260405160006040518083038185875af1925050503d8060008114611f60576040519150601f19603f3d011682016040523d82523d6000602084013e611f65565b606091505b5050905080610b1c5760405162461bcd60e51b815260206004820152603a60248201527f416464726573733a20756e61626c6520746f2073656e642076616c75652c207260448201527f6563697069656e74206d617920686176652072657665727465640000000000006064820152608401610bf4565b600082611fe985846129d2565b14949350505050565b6040805160608101825260008082526020820181905291810191909152816000548110156120f357600081815260046020908152604091829020825160608101845290546001600160a01b0381168252600160a01b81046001600160401b031692820192909252600160e01b90910460ff161515918101829052906120f15780516001600160a01b031615612088579392505050565b5060001901600081815260046020908152604091829020825160608101845290546001600160a01b038116808352600160a01b82046001600160401b031693830193909352600160e01b900460ff16151592810192909252156120ec579392505050565b612088565b505b604051636f96cda160e11b815260040160405180910390fd5b601c548111156121515760405162461bcd60e51b815260206004820152601060248201526f416d6f756e7420746f6f206c6172676560801b6044820152606401610bf4565b6121596110f0565b8111156121a15760405162461bcd60e51b8152602060048201526016602482015275139bdd08195b9bdd59da081d1bdad95b9cc81b19599d60521b6044820152606401610bf4565b610c078282612a1f565b604051630a85bd0160e11b81526000906001600160a01b0385169063150b7a02906121e0903390899088908890600401613d25565b6020604051808303816000875af192505050801561221b575060408051601f3d908101601f1916820190925261221891810190613d62565b60015b612279573d808015612249576040519150601f19603f3d011682016040523d82523d6000602084013e61224e565b606091505b508051600003612271576040516368d2bf6b60e11b815260040160405180910390fd5b805181602001fd5b6001600160e01b031916630a85bd0160e11b1490505b949350505050565b6060816000036122be5750506040805180820190915260018152600360fc1b602082015290565b8160005b81156122e857806122d281613d7f565b91506122e19050600a8361384b565b91506122c2565b6000816001600160401b03811115612302576123026133cb565b6040519080825280601f01601f19166020018201604052801561232c576020820181803683370190505b5090505b841561228f5761234160018361385f565b915061234e600a86613d98565b612359906030613dac565b60f81b81838151811061236e5761236e613dc4565b60200101906001600160f81b031916908160001a905350612390600a8661384b565b9450612330565b60008160600151116123eb5760405162461bcd60e51b815260206004820152601f60248201527f4d6178696d756d20737570706c79206d757374206265206e6f6e2d7a65726f006044820152606401610bf4565b60008160a001511161243f5760405162461bcd60e51b815260206004820181905260248201527f546f6b656e7320706572206d696e74206d757374206265206e6f6e2d7a65726f6044820152606401610bf4565b60c08101516001600160a01b03166124995760405162461bcd60e51b815260206004820152601f60248201527f547265617375727920616464726573732063616e6e6f74206265206e756c6c006044820152606401610bf4565b60408101516001600160a01b03166124f35760405162461bcd60e51b815260206004820152601b60248201527f436f6e7472616374206d757374206861766520616e206f776e657200000000006044820152606401610bf4565b806060015181608001511115610c545760405162461bcd60e51b815260206004820152601b60248201527f526573657276652067726561746572207468616e20737570706c7900000000006044820152606401610bf4565b6019546001600160a01b031661256f600080516020613ee083398151915282611e5c565b61257a600082611e5c565b601980546001600160a01b0319166001600160a01b0384161790556125ad600080516020613ee083398151915283611dd6565b6125b8600083611dd6565b816001600160a01b0316816001600160a01b03167f8be0079c531659141344cd1fd0a4f28419497f9722a3daafe3b4186f6b6457e060405160405180910390a35050565b61271061014082013511156126485760405162461bcd60e51b81526020600482015260126024820152710a4def2c2d8e8d2cae640e8dede40d0d2ced60731b6044820152606401610bf4565b61265181612a39565b61265a81612af7565b610c5481612bb5565b60606000612672836002613816565b61267d906002613dac565b6001600160401b03811115612694576126946133cb565b6040519080825280601f01601f1916602001820160405280156126be576020820181803683370190505b509050600360fc1b816000815181106126d9576126d9613dc4565b60200101906001600160f81b031916908160001a905350600f60fb1b8160018151811061270857612708613dc4565b60200101906001600160f81b031916908160001a905350600061272c846002613816565b612737906001613dac565b90505b60018111156127af576f181899199a1a9b1b9c1cb0b131b232b360811b85600f166010811061276b5761276b613dc4565b1a60f81b82828151811061278157612781613dc4565b60200101906001600160f81b031916908160001a90535060049490941c936127a881613dda565b905061273a565b5083156127fe5760405162461bcd60e51b815260206004820181905260248201527f537472696e67733a20686578206c656e67746820696e73756666696369656e746044820152606401610bf4565b9392505050565b80516060906000819003612829575050604080516020810190915260008152919050565b60006003612838836002613dac565b612842919061384b565b61284d906004613816565b9050600061285c826020613dac565b6001600160401b03811115612873576128736133cb565b6040519080825280601f01601f19166020018201604052801561289d576020820181803683370190505b5090506000604051806060016040528060408152602001613ea0604091399050600181016020830160005b86811015612929576003818a01810151603f601282901c8116860151600c83901c8216870151600684901c831688015192909316870151600891821b60ff94851601821b92841692909201901b91160160e01b8352600490920191016128c8565b506003860660018114612943576002811461295457612960565b613d3d60f01b600119830152612960565b603d60f81b6000198301525b505050918152949350505050565b612978828261111e565b610c0757612990816001600160a01b03166014612663565b61299b836020612663565b6040516020016129ac929190613df1565b60408051601f198184030181529082905262461bcd60e51b8252610bf491600401613031565b600081815b8451811015612a1757612a03828683815181106129f6576129f6613dc4565b6020026020010151612cba565b915080612a0f81613d7f565b9150506129d7565b509392505050565b610c07828260405180602001604052806000815250612ce9565b600e5460ff16612a465750565b600d54604082013514612a9b5760405162461bcd60e51b815260206004820152601960248201527f7075626c69634d696e7450726963652069732066726f7a656e000000000000006044820152606401610bf4565b612aab6080820160608301613e66565b610c545760405162461bcd60e51b815260206004820152601f60248201527f7075626c69634d696e74507269636546726f7a656e2069732066726f7a656e006044820152606401610bf4565b60105460ff16612b045750565b600f54608082013514612b595760405162461bcd60e51b815260206004820152601a60248201527f70726573616c654d696e7450726963652069732066726f7a656e0000000000006044820152606401610bf4565b612b6960c0820160a08301613e66565b610c545760405162461bcd60e51b815260206004820181905260248201527f70726573616c654d696e74507269636546726f7a656e2069732066726f7a656e6044820152606401610bf4565b600c5460ff1615612bc35750565b612bd36040820160208301613e66565b15612c205760405162461bcd60e51b815260206004820152601860248201527f43616e6e6f7420756e667265657a65206d6574616461746100000000000000006044820152606401610bf4565b612c2a8180613a1b565b604051602001612c3b929190613e83565b60408051601f1981840301815290829052805160209182012091612c6291600b9101613e93565b6040516020818303038152906040528051906020012014610c545760405162461bcd60e51b815260206004820152601260248201527126b2ba30b230ba309034b990333937bd32b760711b6044820152606401610bf4565b6000818310612cd65760008281526020849052604090206127fe565b60008381526020839052604090206127fe565b610b1c83838360016000546001600160a01b038516612d1a57604051622e076360e81b815260040160405180910390fd5b83600003612d3b5760405163b562e8dd60e01b815260040160405180910390fd5b6001600160a01b038516600081815260056020908152604080832080546fffffffffffffffffffffffffffffffff1981166001600160401b038083168c0181169182176801000000000000000067ffffffffffffffff1990941690921783900481168c01811690920217909155858452600490925290912080546001600160e01b031916909217600160a01b429092169190910217905580808501838015612dec57506001600160a01b0387163b15155b15612e74575b60405182906001600160a01b038916906000907fddf252ad1be2c89b69c2b068fc378daa952ba7f163c4a11628f55a4df523b3ef908290a4612e3d60008884806001019550886121ab565b612e5a576040516368d2bf6b60e11b815260040160405180910390fd5b808203612df2578260005414612e6f57600080fd5b612eb9565b5b6040516001830192906001600160a01b038916906000907fddf252ad1be2c89b69c2b068fc378daa952ba7f163c4a11628f55a4df523b3ef908290a4808203612e75575b50600055611dc5565b604051806060016040528060008152602001612f266040518060e00160405280606081526020016060815260200160006001600160a01b0316815260200160008152602001600081526020016000815260200160006001600160a01b031681525090565b8152602001612fa1604051806101800160405280606081526020016000151581526020016000815260200160001515815260200160008152602001600015158152602001600081526020016000815260200160608152602001600080191681526020016000815260200160006001600160a01b031681525090565b905290565b6001600160e01b031981168114610c5457600080fd5b600060208284031215612fce57600080fd5b81356127fe81612fa6565b60005b83811015612ff4578181015183820152602001612fdc565b8381111561145b5750506000910152565b6000815180845261301d816020860160208601612fd9565b601f01601f19169290920160200192915050565b6020815260006127fe6020830184613005565b60006020828403121561305657600080fd5b5035919050565b6001600160a01b0381168114610c5457600080fd5b803561307d8161305d565b919050565b6000806040838503121561309557600080fd5b82356130a08161305d565b946020939093013593505050565b6000806000606084860312156130c357600080fd5b83356130ce8161305d565b925060208401356130de8161305d565b929592945050506040919091013590565b6000806040838503121561310257600080fd5b50508035926020909101359150565b6000806040838503121561312457600080fd5b8235915060208301356131368161305d565b809150509250929050565b60008083601f84011261315357600080fd5b5081356001600160401b0381111561316a57600080fd5b6020830191508360208260051b850101111561318557600080fd5b9250929050565b6000806000604084860312156131a157600080fd5b83356131ac8161305d565b925060208401356001600160401b038111156131c757600080fd5b6131d386828701613141565b9497909650939450505050565b600061018082518185526131f682860182613005565b915050602083015161320c602086018215159052565b5060408301516040850152606083015161322a606086018215159052565b506080830151608085015260a083015161324860a086018215159052565b5060c083015160c085015260e083015160e085015261010080840151858303828701526132758382613005565b92505050610120808401518186015250610140808401518186015250610160808401516132ac828701826001600160a01b03169052565b5090949350505050565b60208152815160208201526000602083015160606040840152805160e060808501526132e6610160850182613005565b90506020820151607f198583030160a08601526133038282613005565b6040848101516001600160a01b0390811660c08981019190915260608088015160e08b015260808801516101008b015260a08801516101208b015296015116610140880152870151868203601f1901948701949094529150610d2c905081836131e0565b60006020828403121561337957600080fd5b81356127fe8161305d565b8015158114610c5457600080fd5b803561307d81613384565b600080604083850312156133b057600080fd5b82356133bb8161305d565b9150602083013561313681613384565b634e487b7160e01b600052604160045260246000fd5b60405161018081016001600160401b0381118282101715613404576134046133cb565b60405290565b60405160e081016001600160401b0381118282101715613404576134046133cb565b60006001600160401b0380841115613446576134466133cb565b604051601f8501601f19908116603f0116810190828211818310171561346e5761346e6133cb565b8160405280935085815286868601111561348757600080fd5b858560208301376000602087830101525050509392505050565b600080600080608085870312156134b757600080fd5b84356134c28161305d565b935060208501356134d28161305d565b92506040850135915060608501356001600160401b038111156134f457600080fd5b8501601f8101871361350557600080fd5b6135148782356020840161342c565b91505092959194509250565b600082601f83011261353157600080fd5b6127fe8383356020850161342c565b6000610180828403121561355357600080fd5b61355b6133e1565b905081356001600160401b038082111561357457600080fd5b61358085838601613520565b835261358e60208501613392565b6020840152604084013560408401526135a960608501613392565b6060840152608084013560808401526135c460a08501613392565b60a084015260c084013560c084015260e084013560e0840152610100915081840135818111156135f357600080fd5b6135ff86828701613520565b8385015250505061012080830135818301525061014080830135818301525061016061362c818401613072565b9082015292915050565b6000806040838503121561364957600080fd5b82356001600160401b038082111561366057600080fd5b9084019060e0828703121561367457600080fd5b61367c61340a565b82358281111561368b57600080fd5b61369788828601613520565b8252506020830135828111156136ac57600080fd5b6136b888828601613520565b6020830152506136ca60408401613072565b6040820152606083013560608201526080830135608082015260a083013560a08201526136f960c08401613072565b60c08201529350602085013591508082111561371457600080fd5b5061372185828601613540565b9150509250929050565b60006020828403121561373d57600080fd5b81356001600160401b0381111561375357600080fd5b820161018081850312156127fe57600080fd5b60008060006040848603121561377b57600080fd5b8335925060208401356001600160401b038111156131c757600080fd5b600080604083850312156137ab57600080fd5b82356137b68161305d565b915060208301356131368161305d565b600181811c908216806137da57607f821691505b6020821081036137fa57634e487b7160e01b600052602260045260246000fd5b50919050565b634e487b7160e01b600052601160045260246000fd5b600081600019048311821515161561383057613830613800565b500290565b634e487b7160e01b600052601260045260246000fd5b60008261385a5761385a613835565b500490565b60008282101561387157613871613800565b500390565b60008154613883816137c6565b6001828116801561389b57600181146138b0576138df565b60ff19841687528215158302870194506138df565b8560005260208060002060005b858110156138d65781548a8201529084019082016138bd565b50505082870194505b5050505092915050565b60006138f58285613876565b8351613905818360208801612fd9565b01949350505050565b601f821115610b1c57600081815260208120601f850160051c810160208610156139355750805b601f850160051c820191505b8181101561395457828155600101613941565b505050505050565b81516001600160401b03811115613975576139756133cb565b6139898161398384546137c6565b8461390e565b602080601f8311600181146139be57600084156139a65750858301515b600019600386901b1c1916600185901b178555613954565b600085815260208120601f198616915b828110156139ed578886015182559484019460019091019084016139ce565b5085821015613a0b5787850151600019600388901b60f8161c191681555b5050505050600190811b01905550565b6000808335601e19843603018112613a3257600080fd5b8301803591506001600160401b03821115613a4c57600080fd5b60200191503681900382131561318557600080fd5b6001600160401b03831115613a7857613a786133cb565b613a8c83613a8683546137c6565b8361390e565b6000601f841160018114613ac05760008515613aa85750838201355b600019600387901b1c1916600186901b178355611dc5565b600083815260209020601f19861690835b82811015613af15786850135825560209485019460019092019101613ad1565b5086821015613b0e5760001960f88860031b161c19848701351681555b505060018560011b0183555050505050565b600081356109b581613384565b600081356109b58161305d565b613b448283613a1b565b613b4f818385613a61565b5050613b79613b6060208401613b20565b6001830160ff1981541660ff8315151681178255505050565b60408201356002820155613bab613b9260608401613b20565b6003830160ff1981541660ff8315151681178255505050565b60808201356004820155613bdd613bc460a08401613b20565b6005830160ff1981541660ff8315151681178255505050565b60c0820135600682015560e08201356007820155613bff610100830183613a1b565b613c0d818360088601613a61565b50506101208201356009820155610140820135600a820155610c07613c356101608401613b2d565b600b830180546001600160a01b0319166001600160a01b0392909216919091179055565b7f7b2273656c6c65725f6665655f62617369735f706f696e7473223a2000000000815260008351613c9181601c850160208801612fd9565b731610113332b2afb932b1b4b834b2b73a111d101160611b601c918401918201528351613cc5816030840160208801612fd9565b61227d60f01b60309290910191820152603201949350505050565b7f646174613a6170706c69636174696f6e2f6a736f6e3b6261736536342c000000815260008251613d1881601d850160208701612fd9565b91909101601d0192915050565b6001600160a01b0385811682528416602082015260408101839052608060608201819052600090613d5890830184613005565b9695505050505050565b600060208284031215613d7457600080fd5b81516127fe81612fa6565b600060018201613d9157613d91613800565b5060010190565b600082613da757613da7613835565b500690565b60008219821115613dbf57613dbf613800565b500190565b634e487b7160e01b600052603260045260246000fd5b600081613de957613de9613800565b506000190190565b7f416363657373436f6e74726f6c3a206163636f756e7420000000000000000000815260008351613e29816017850160208801612fd9565b7001034b99036b4b9b9b4b733903937b6329607d1b6017918401918201528351613e5a816028840160208801612fd9565b01602801949350505050565b600060208284031215613e7857600080fd5b81356127fe81613384565b8183823760009101908152919050565b60006127fe828461387656fe4142434445464748494a4b4c4d4e4f505152535455565758595a6162636465666768696a6b6c6d6e6f707172737475767778797a303132333435363738392b2fa49807205ce4d355092ef5a8a18f56e8913cf4a201fbe287825b095693c21775a26469706673582212200be0f9f25ab6d67bdac49c8259e42bc47413b26c44d1ce62f00039e396b0e08e64736f6c634300080f0033",
  "devdoc": {
    "kind": "dev",
    "methods": {
      "approve(address,uint256)": {
        "details": "See {IERC721-approve}."
      },
      "balanceOf(address)": {
        "details": "See {IERC721-balanceOf}."
      },
      "contractURI()": {
        "details": "OpenSea contract metadata"
      },
      "getApproved(uint256)": {
        "details": "See {IERC721-getApproved}."
      },
      "getInfo()": {
        "details": "Convenience helper"
      },
      "getRoleAdmin(bytes32)": {
        "details": "Returns the admin role that controls `role`. See {grantRole} and {revokeRole}. To change a role's admin, use {_setRoleAdmin}."
      },
      "grantRole(bytes32,address)": {
        "details": "Grants `role` to `account`. If `account` had not been already granted `role`, emits a {RoleGranted} event. Requirements: - the caller must have ``role``'s admin role. May emit a {RoleGranted} event."
      },
      "hasRole(bytes32,address)": {
        "details": "Returns `true` if `account` has been granted `role`."
      },
      "isApprovedForAll(address,address)": {
        "details": "See {IERC721-isApprovedForAll}."
      },
      "name()": {
        "details": "Need name() to support setting it in the initializer instead of constructor"
      },
      "owner()": {
        "details": "Required for easy integration with OpenSea"
      },
      "ownerOf(uint256)": {
        "details": "See {IERC721-ownerOf}."
      },
      "renounceRole(bytes32,address)": {
        "details": "Revokes `role` from the calling account. Roles are often managed via {grantRole} and {revokeRole}: this function's purpose is to provide a mechanism for accounts to lose their privileges if they are compromised (such as when a trusted device is misplaced). If the calling account had been revoked `role`, emits a {RoleRevoked} event. Requirements: - the caller must be `account`. May emit a {RoleRevoked} event."
      },
      "revokeRole(bytes32,address)": {
        "details": "Revokes `role` from `account`. If `account` had been granted `role`, emits a {RoleRevoked} event. Requirements: - the caller must have ``role``'s admin role. May emit a {RoleRevoked} event."
      },
      "royaltyInfo(uint256,uint256)": {
        "details": "ERC2981 token royalty info"
      },
      "safeTransferFrom(address,address,uint256)": {
        "details": "See {IERC721-safeTransferFrom}."
      },
      "safeTransferFrom(address,address,uint256,bytes)": {
        "details": "See {IERC721-safeTransferFrom}."
      },
      "setApprovalForAll(address,bool)": {
        "details": "See {IERC721-setApprovalForAll}."
      },
      "supportsInterface(bytes4)": {
        "details": "See {IERC165-supportsInterface}."
      },
      "symbol()": {
        "details": "Need symbol() to support setting it in the initializer instead of constructor"
      },
      "totalSupply()": {
        "details": "Burned tokens are calculated here, use _totalMinted() if you want to count just minted tokens."
      },
      "transferFrom(address,address,uint256)": {
        "details": "See {IERC721-transferFrom}."
      },
      "updateConfig((string,bool,uint256,bool,uint256,bool,uint256,uint256,string,bytes32,uint256,address))": {
        "details": "Callable by admin roles only"
      },
      "withdrawFees()": {
        "details": "Callable by admin roles only"
      }
    },
    "stateVariables": {
      "reserveRemaining": {
        "details": "Managed by the contract"
      }
    },
    "version": 1
  },
  "userdoc": {
    "kind": "user",
    "methods": {
      "ADMIN_ROLE()": {
        "notice": "Admin role"
      },
      "NAME()": {
        "notice": "Contract name"
      },
      "VERSION()": {
        "notice": "Contract version, semver-style uint X_YY_ZZ"
      },
      "availableSupply()": {
        "notice": "Get the number of tokens still available for minting"
      },
      "getInfo()": {
        "notice": "Get full contract information"
      },
      "initialize((string,string,address,uint256,uint256,uint256,address),(string,bool,uint256,bool,uint256,bool,uint256,uint256,string,bytes32,uint256,address))": {
        "notice": "Contract initializer"
      },
      "isWhitelisted(address,bytes32[])": {
        "notice": "Check if the wallet is whitelisted for the presale"
      },
      "mint(uint256)": {
        "notice": "Mint tokens"
      },
      "mintingActive()": {
        "notice": "Check if public minting is active"
      },
      "owner()": {
        "notice": "Contract owner address"
      },
      "presaleActive()": {
        "notice": "Check if presale minting is active"
      },
      "presaleMint(uint256,bytes32[])": {
        "notice": "Mint tokens if the wallet has been whitelisted"
      },
      "reserveMint(address,uint256)": {
        "notice": "Mint a token from the reserve"
      },
      "reserveRemaining()": {
        "notice": "The number of tokens remaining in the reserve"
      },
      "tokenURI(uint256)": {
        "notice": "Get the token metadata URI"
      },
      "transferAdminRights(address)": {
        "notice": "Transfer contract ownership"
      },
      "transferOwnership(address)": {
        "notice": "Transfer contract ownership"
      },
      "updateConfig((string,bool,uint256,bool,uint256,bool,uint256,uint256,string,bytes32,uint256,address))": {
        "notice": "Update contract configuration"
      },
      "withdrawFees()": {
        "notice": "Withdraw minting fees to the treasury address"
      }
    },
    "version": 1
  },
  "storageLayout": {
    "storage": [
      {
        "astId": 8159,
        "contract": "contracts/templates/NFTCollection.sol:NFTCollection",
        "label": "_currentIndex",
        "offset": 0,
        "slot": "0",
        "type": "t_uint256"
      },
      {
        "astId": 8161,
        "contract": "contracts/templates/NFTCollection.sol:NFTCollection",
        "label": "_burnCounter",
        "offset": 0,
        "slot": "1",
        "type": "t_uint256"
      },
      {
        "astId": 8163,
        "contract": "contracts/templates/NFTCollection.sol:NFTCollection",
        "label": "_name",
        "offset": 0,
        "slot": "2",
        "type": "t_string_storage"
      },
      {
        "astId": 8165,
        "contract": "contracts/templates/NFTCollection.sol:NFTCollection",
        "label": "_symbol",
        "offset": 0,
        "slot": "3",
        "type": "t_string_storage"
      },
      {
        "astId": 8170,
        "contract": "contracts/templates/NFTCollection.sol:NFTCollection",
        "label": "_ownerships",
        "offset": 0,
        "slot": "4",
        "type": "t_mapping(t_uint256,t_struct(TokenOwnership)8148_storage)"
      },
      {
        "astId": 8175,
        "contract": "contracts/templates/NFTCollection.sol:NFTCollection",
        "label": "_addressData",
        "offset": 0,
        "slot": "5",
        "type": "t_mapping(t_address,t_struct(AddressData)8157_storage)"
      },
      {
        "astId": 8179,
        "contract": "contracts/templates/NFTCollection.sol:NFTCollection",
        "label": "_tokenApprovals",
        "offset": 0,
        "slot": "6",
        "type": "t_mapping(t_uint256,t_address)"
      },
      {
        "astId": 8185,
        "contract": "contracts/templates/NFTCollection.sol:NFTCollection",
        "label": "_operatorApprovals",
        "offset": 0,
        "slot": "7",
        "type": "t_mapping(t_address,t_mapping(t_address,t_bool))"
      },
      {
        "astId": 2353,
        "contract": "contracts/templates/NFTCollection.sol:NFTCollection",
        "label": "_roles",
        "offset": 0,
        "slot": "8",
        "type": "t_mapping(t_bytes32,t_struct(RoleData)2348_storage)"
      },
      {
        "astId": 2827,
        "contract": "contracts/templates/NFTCollection.sol:NFTCollection",
        "label": "_initialized",
        "offset": 0,
        "slot": "9",
        "type": "t_uint8"
      },
      {
        "astId": 2830,
        "contract": "contracts/templates/NFTCollection.sol:NFTCollection",
        "label": "_initializing",
        "offset": 1,
        "slot": "9",
        "type": "t_bool"
      },
      {
        "astId": 7117,
        "contract": "contracts/templates/NFTCollection.sol:NFTCollection",
        "label": "reserveRemaining",
        "offset": 0,
        "slot": "10",
        "type": "t_uint256"
      },
      {
        "astId": 7491,
        "contract": "contracts/templates/NFTCollection.sol:NFTCollection",
        "label": "_runtimeConfig",
        "offset": 0,
        "slot": "11",
        "type": "t_struct(RuntimeConfig)7082_storage"
      },
      {
        "astId": 7494,
        "contract": "contracts/templates/NFTCollection.sol:NFTCollection",
        "label": "_deploymentConfig",
        "offset": 0,
        "slot": "23",
        "type": "t_struct(DeploymentConfig)7057_storage"
      },
      {
        "astId": 7497,
        "contract": "contracts/templates/NFTCollection.sol:NFTCollection",
        "label": "_preventInitialization",
        "offset": 0,
        "slot": "30",
        "type": "t_bool"
      },
      {
        "astId": 7502,
        "contract": "contracts/templates/NFTCollection.sol:NFTCollection",
        "label": "_presaleMinted",
        "offset": 0,
        "slot": "31",
        "type": "t_mapping(t_address,t_bool)"
      }
    ],
    "types": {
      "t_address": {
        "encoding": "inplace",
        "label": "address",
        "numberOfBytes": "20"
      },
      "t_address_payable": {
        "encoding": "inplace",
        "label": "address payable",
        "numberOfBytes": "20"
      },
      "t_bool": {
        "encoding": "inplace",
        "label": "bool",
        "numberOfBytes": "1"
      },
      "t_bytes32": {
        "encoding": "inplace",
        "label": "bytes32",
        "numberOfBytes": "32"
      },
      "t_mapping(t_address,t_bool)": {
        "encoding": "mapping",
        "key": "t_address",
        "label": "mapping(address => bool)",
        "numberOfBytes": "32",
        "value": "t_bool"
      },
      "t_mapping(t_address,t_mapping(t_address,t_bool))": {
        "encoding": "mapping",
        "key": "t_address",
        "label": "mapping(address => mapping(address => bool))",
        "numberOfBytes": "32",
        "value": "t_mapping(t_address,t_bool)"
      },
      "t_mapping(t_address,t_struct(AddressData)8157_storage)": {
        "encoding": "mapping",
        "key": "t_address",
        "label": "mapping(address => struct ERC721A.AddressData)",
        "numberOfBytes": "32",
        "value": "t_struct(AddressData)8157_storage"
      },
      "t_mapping(t_bytes32,t_struct(RoleData)2348_storage)": {
        "encoding": "mapping",
        "key": "t_bytes32",
        "label": "mapping(bytes32 => struct AccessControl.RoleData)",
        "numberOfBytes": "32",
        "value": "t_struct(RoleData)2348_storage"
      },
      "t_mapping(t_uint256,t_address)": {
        "encoding": "mapping",
        "key": "t_uint256",
        "label": "mapping(uint256 => address)",
        "numberOfBytes": "32",
        "value": "t_address"
      },
      "t_mapping(t_uint256,t_struct(TokenOwnership)8148_storage)": {
        "encoding": "mapping",
        "key": "t_uint256",
        "label": "mapping(uint256 => struct ERC721A.TokenOwnership)",
        "numberOfBytes": "32",
        "value": "t_struct(TokenOwnership)8148_storage"
      },
      "t_string_storage": {
        "encoding": "bytes",
        "label": "string",
        "numberOfBytes": "32"
      },
      "t_struct(AddressData)8157_storage": {
        "encoding": "inplace",
        "label": "struct ERC721A.AddressData",
        "members": [
          {
            "astId": 8150,
            "contract": "contracts/templates/NFTCollection.sol:NFTCollection",
            "label": "balance",
            "offset": 0,
            "slot": "0",
            "type": "t_uint64"
          },
          {
            "astId": 8152,
            "contract": "contracts/templates/NFTCollection.sol:NFTCollection",
            "label": "numberMinted",
            "offset": 8,
            "slot": "0",
            "type": "t_uint64"
          },
          {
            "astId": 8154,
            "contract": "contracts/templates/NFTCollection.sol:NFTCollection",
            "label": "numberBurned",
            "offset": 16,
            "slot": "0",
            "type": "t_uint64"
          },
          {
            "astId": 8156,
            "contract": "contracts/templates/NFTCollection.sol:NFTCollection",
            "label": "aux",
            "offset": 24,
            "slot": "0",
            "type": "t_uint64"
          }
        ],
        "numberOfBytes": "32"
      },
      "t_struct(DeploymentConfig)7057_storage": {
        "encoding": "inplace",
        "label": "struct NFTCollection.DeploymentConfig",
        "members": [
          {
            "astId": 7043,
            "contract": "contracts/templates/NFTCollection.sol:NFTCollection",
            "label": "name",
            "offset": 0,
            "slot": "0",
            "type": "t_string_storage"
          },
          {
            "astId": 7045,
            "contract": "contracts/templates/NFTCollection.sol:NFTCollection",
            "label": "symbol",
            "offset": 0,
            "slot": "1",
            "type": "t_string_storage"
          },
          {
            "astId": 7047,
            "contract": "contracts/templates/NFTCollection.sol:NFTCollection",
            "label": "owner",
            "offset": 0,
            "slot": "2",
            "type": "t_address"
          },
          {
            "astId": 7049,
            "contract": "contracts/templates/NFTCollection.sol:NFTCollection",
            "label": "maxSupply",
            "offset": 0,
            "slot": "3",
            "type": "t_uint256"
          },
          {
            "astId": 7051,
            "contract": "contracts/templates/NFTCollection.sol:NFTCollection",
            "label": "reservedSupply",
            "offset": 0,
            "slot": "4",
            "type": "t_uint256"
          },
          {
            "astId": 7054,
            "contract": "contracts/templates/NFTCollection.sol:NFTCollection",
            "label": "tokensPerMint",
            "offset": 0,
            "slot": "5",
            "type": "t_uint256"
          },
          {
            "astId": 7056,
            "contract": "contracts/templates/NFTCollection.sol:NFTCollection",
            "label": "treasuryAddress",
            "offset": 0,
            "slot": "6",
            "type": "t_address_payable"
          }
        ],
        "numberOfBytes": "224"
      },
      "t_struct(RoleData)2348_storage": {
        "encoding": "inplace",
        "label": "struct AccessControl.RoleData",
        "members": [
          {
            "astId": 2345,
            "contract": "contracts/templates/NFTCollection.sol:NFTCollection",
            "label": "members",
            "offset": 0,
            "slot": "0",
            "type": "t_mapping(t_address,t_bool)"
          },
          {
            "astId": 2347,
            "contract": "contracts/templates/NFTCollection.sol:NFTCollection",
            "label": "adminRole",
            "offset": 0,
            "slot": "1",
            "type": "t_bytes32"
          }
        ],
        "numberOfBytes": "64"
      },
      "t_struct(RuntimeConfig)7082_storage": {
        "encoding": "inplace",
        "label": "struct NFTCollection.RuntimeConfig",
        "members": [
          {
            "astId": 7059,
            "contract": "contracts/templates/NFTCollection.sol:NFTCollection",
            "label": "baseURI",
            "offset": 0,
            "slot": "0",
            "type": "t_string_storage"
          },
          {
            "astId": 7061,
            "contract": "contracts/templates/NFTCollection.sol:NFTCollection",
            "label": "metadataUpdatable",
            "offset": 0,
            "slot": "1",
            "type": "t_bool"
          },
          {
            "astId": 7063,
            "contract": "contracts/templates/NFTCollection.sol:NFTCollection",
            "label": "publicMintPrice",
            "offset": 0,
            "slot": "2",
            "type": "t_uint256"
          },
          {
            "astId": 7065,
            "contract": "contracts/templates/NFTCollection.sol:NFTCollection",
            "label": "publicMintPriceFrozen",
            "offset": 0,
            "slot": "3",
            "type": "t_bool"
          },
          {
            "astId": 7067,
            "contract": "contracts/templates/NFTCollection.sol:NFTCollection",
            "label": "presaleMintPrice",
            "offset": 0,
            "slot": "4",
            "type": "t_uint256"
          },
          {
            "astId": 7069,
            "contract": "contracts/templates/NFTCollection.sol:NFTCollection",
            "label": "presaleMintPriceFrozen",
            "offset": 0,
            "slot": "5",
            "type": "t_bool"
          },
          {
            "astId": 7071,
            "contract": "contracts/templates/NFTCollection.sol:NFTCollection",
            "label": "publicMintStart",
            "offset": 0,
            "slot": "6",
            "type": "t_uint256"
          },
          {
            "astId": 7073,
            "contract": "contracts/templates/NFTCollection.sol:NFTCollection",
            "label": "presaleMintStart",
            "offset": 0,
            "slot": "7",
            "type": "t_uint256"
          },
          {
            "astId": 7075,
            "contract": "contracts/templates/NFTCollection.sol:NFTCollection",
            "label": "prerevealTokenURI",
            "offset": 0,
            "slot": "8",
            "type": "t_string_storage"
          },
          {
            "astId": 7077,
            "contract": "contracts/templates/NFTCollection.sol:NFTCollection",
            "label": "presaleMerkleRoot",
            "offset": 0,
            "slot": "9",
            "type": "t_bytes32"
          },
          {
            "astId": 7079,
            "contract": "contracts/templates/NFTCollection.sol:NFTCollection",
            "label": "royaltiesBps",
            "offset": 0,
            "slot": "10",
            "type": "t_uint256"
          },
          {
            "astId": 7081,
            "contract": "contracts/templates/NFTCollection.sol:NFTCollection",
            "label": "royaltiesAddress",
            "offset": 0,
            "slot": "11",
            "type": "t_address"
          }
        ],
        "numberOfBytes": "384"
      },
      "t_struct(TokenOwnership)8148_storage": {
        "encoding": "inplace",
        "label": "struct ERC721A.TokenOwnership",
        "members": [
          {
            "astId": 8143,
            "contract": "contracts/templates/NFTCollection.sol:NFTCollection",
            "label": "addr",
            "offset": 0,
            "slot": "0",
            "type": "t_address"
          },
          {
            "astId": 8145,
            "contract": "contracts/templates/NFTCollection.sol:NFTCollection",
            "label": "startTimestamp",
            "offset": 20,
            "slot": "0",
            "type": "t_uint64"
          },
          {
            "astId": 8147,
            "contract": "contracts/templates/NFTCollection.sol:NFTCollection",
            "label": "burned",
            "offset": 28,
            "slot": "0",
            "type": "t_bool"
          }
        ],
        "numberOfBytes": "32"
      },
      "t_uint256": {
        "encoding": "inplace",
        "label": "uint256",
        "numberOfBytes": "32"
      },
      "t_uint64": {
        "encoding": "inplace",
        "label": "uint64",
        "numberOfBytes": "8"
      },
      "t_uint8": {
        "encoding": "inplace",
        "label": "uint8",
        "numberOfBytes": "1"
      }
    }
  }
}