{
  "address": "0x5Adec437B9cD66F117C8a78a48C1C06Afed0e03d",
  "abi": [
    {
      "inputs": [
        {
          "components": [
            {
              "internalType": "string",
              "name": "name",
              "type": "string"
            },
            {
              "internalType": "string",
              "name": "symbol",
              "type": "string"
            },
            {
              "internalType": "address",
              "name": "owner",
              "type": "address"
            },
            {
              "internalType": "uint256",
              "name": "maxSupply",
              "type": "uint256"
            },
            {
              "internalType": "uint256",
              "name": "reservedSupply",
              "type": "uint256"
            },
            {
              "internalType": "uint256",
              "name": "mintPrice",
              "type": "uint256"
            },
            {
              "internalType": "uint256",
              "name": "tokensPerMint",
              "type": "uint256"
            },
            {
              "internalType": "address payable",
              "name": "treasuryAddress",
              "type": "address"
            }
          ],
          "internalType": "struct NFTCollection.DeploymentConfig",
          "name": "deploymentConfig",
          "type": "tuple"
        },
        {
          "components": [
            {
              "internalType": "string",
              "name": "baseURI",
              "type": "string"
            },
            {
              "internalType": "bool",
              "name": "metadataUpdatable",
              "type": "bool"
            },
            {
              "internalType": "uint256",
              "name": "publicMintStart",
              "type": "uint256"
            },
            {
              "internalType": "uint256",
              "name": "presaleMintStart",
              "type": "uint256"
            },
            {
              "internalType": "string",
              "name": "prerevealTokenURI",
              "type": "string"
            },
            {
              "internalType": "bytes32",
              "name": "presaleMerkleRoot",
              "type": "bytes32"
            },
            {
              "internalType": "uint256",
              "name": "royaltiesBps",
              "type": "uint256"
            },
            {
              "internalType": "address",
              "name": "royaltiesAddress",
              "type": "address"
            }
          ],
          "internalType": "struct NFTCollection.RuntimeConfig",
          "name": "runtimeConfig",
          "type": "tuple"
        }
      ],
      "stateMutability": "nonpayable",
      "type": "constructor"
    },
    {
      "anonymous": false,
      "inputs": [
        {
          "indexed": true,
          "internalType": "address",
          "name": "owner",
          "type": "address"
        },
        {
          "indexed": true,
          "internalType": "address",
          "name": "approved",
          "type": "address"
        },
        {
          "indexed": true,
          "internalType": "uint256",
          "name": "tokenId",
          "type": "uint256"
        }
      ],
      "name": "Approval",
      "type": "event"
    },
    {
      "anonymous": false,
      "inputs": [
        {
          "indexed": true,
          "internalType": "address",
          "name": "owner",
          "type": "address"
        },
        {
          "indexed": true,
          "internalType": "address",
          "name": "operator",
          "type": "address"
        },
        {
          "indexed": false,
          "internalType": "bool",
          "name": "approved",
          "type": "bool"
        }
      ],
      "name": "ApprovalForAll",
      "type": "event"
    },
    {
      "anonymous": false,
      "inputs": [
        {
          "indexed": true,
          "internalType": "address",
          "name": "previousOwner",
          "type": "address"
        },
        {
          "indexed": true,
          "internalType": "address",
          "name": "newOwner",
          "type": "address"
        }
      ],
      "name": "OwnershipTransferred",
      "type": "event"
    },
    {
      "anonymous": false,
      "inputs": [
        {
          "indexed": true,
          "internalType": "bytes32",
          "name": "role",
          "type": "bytes32"
        },
        {
          "indexed": true,
          "internalType": "bytes32",
          "name": "previousAdminRole",
          "type": "bytes32"
        },
        {
          "indexed": true,
          "internalType": "bytes32",
          "name": "newAdminRole",
          "type": "bytes32"
        }
      ],
      "name": "RoleAdminChanged",
      "type": "event"
    },
    {
      "anonymous": false,
      "inputs": [
        {
          "indexed": true,
          "internalType": "bytes32",
          "name": "role",
          "type": "bytes32"
        },
        {
          "indexed": true,
          "internalType": "address",
          "name": "account",
          "type": "address"
        },
        {
          "indexed": true,
          "internalType": "address",
          "name": "sender",
          "type": "address"
        }
      ],
      "name": "RoleGranted",
      "type": "event"
    },
    {
      "anonymous": false,
      "inputs": [
        {
          "indexed": true,
          "internalType": "bytes32",
          "name": "role",
          "type": "bytes32"
        },
        {
          "indexed": true,
          "internalType": "address",
          "name": "account",
          "type": "address"
        },
        {
          "indexed": true,
          "internalType": "address",
          "name": "sender",
          "type": "address"
        }
      ],
      "name": "RoleRevoked",
      "type": "event"
    },
    {
      "anonymous": false,
      "inputs": [
        {
          "indexed": true,
          "internalType": "address",
          "name": "from",
          "type": "address"
        },
        {
          "indexed": true,
          "internalType": "address",
          "name": "to",
          "type": "address"
        },
        {
          "indexed": true,
          "internalType": "uint256",
          "name": "tokenId",
          "type": "uint256"
        }
      ],
      "name": "Transfer",
      "type": "event"
    },
    {
      "inputs": [],
      "name": "ADMIN_ROLE",
      "outputs": [
        {
          "internalType": "bytes32",
          "name": "",
          "type": "bytes32"
        }
      ],
      "stateMutability": "view",
      "type": "function"
    },
    {
      "inputs": [],
      "name": "DEFAULT_ADMIN_ROLE",
      "outputs": [
        {
          "internalType": "bytes32",
          "name": "",
          "type": "bytes32"
        }
      ],
      "stateMutability": "view",
      "type": "function"
    },
    {
      "inputs": [],
      "name": "VERSION",
      "outputs": [
        {
          "internalType": "uint256",
          "name": "",
          "type": "uint256"
        }
      ],
      "stateMutability": "view",
      "type": "function"
    },
    {
      "inputs": [
        {
          "internalType": "address",
          "name": "to",
          "type": "address"
        },
        {
          "internalType": "uint256",
          "name": "tokenId",
          "type": "uint256"
        }
      ],
      "name": "approve",
      "outputs": [],
      "stateMutability": "nonpayable",
      "type": "function"
    },
    {
      "inputs": [],
      "name": "availableSupply",
      "outputs": [
        {
          "internalType": "uint256",
          "name": "",
          "type": "uint256"
        }
      ],
      "stateMutability": "view",
      "type": "function"
    },
    {
      "inputs": [
        {
          "internalType": "address",
          "name": "owner",
          "type": "address"
        }
      ],
      "name": "balanceOf",
      "outputs": [
        {
          "internalType": "uint256",
          "name": "",
          "type": "uint256"
        }
      ],
      "stateMutability": "view",
      "type": "function"
    },
    {
      "inputs": [],
      "name": "baseURI",
      "outputs": [
        {
          "internalType": "string",
          "name": "",
          "type": "string"
        }
      ],
      "stateMutability": "view",
      "type": "function"
    },
    {
      "inputs": [],
      "name": "contractURI",
      "outputs": [
        {
          "internalType": "string",
          "name": "",
          "type": "string"
        }
      ],
      "stateMutability": "view",
      "type": "function"
    },
    {
      "inputs": [
        {
          "internalType": "uint256",
          "name": "tokenId",
          "type": "uint256"
        }
      ],
      "name": "getApproved",
      "outputs": [
        {
          "internalType": "address",
          "name": "",
          "type": "address"
        }
      ],
      "stateMutability": "view",
      "type": "function"
    },
    {
      "inputs": [],
      "name": "getInfo",
      "outputs": [
        {
          "components": [
            {
              "internalType": "uint256",
              "name": "version",
              "type": "uint256"
            },
            {
              "components": [
                {
                  "internalType": "string",
                  "name": "name",
                  "type": "string"
                },
                {
                  "internalType": "string",
                  "name": "symbol",
                  "type": "string"
                },
                {
                  "internalType": "address",
                  "name": "owner",
                  "type": "address"
                },
                {
                  "internalType": "uint256",
                  "name": "maxSupply",
                  "type": "uint256"
                },
                {
                  "internalType": "uint256",
                  "name": "reservedSupply",
                  "type": "uint256"
                },
                {
                  "internalType": "uint256",
                  "name": "mintPrice",
                  "type": "uint256"
                },
                {
                  "internalType": "uint256",
                  "name": "tokensPerMint",
                  "type": "uint256"
                },
                {
                  "internalType": "address payable",
                  "name": "treasuryAddress",
                  "type": "address"
                }
              ],
              "internalType": "struct NFTCollection.DeploymentConfig",
              "name": "deploymentConfig",
              "type": "tuple"
            },
            {
              "components": [
                {
                  "internalType": "string",
                  "name": "baseURI",
                  "type": "string"
                },
                {
                  "internalType": "bool",
                  "name": "metadataUpdatable",
                  "type": "bool"
                },
                {
                  "internalType": "uint256",
                  "name": "publicMintStart",
                  "type": "uint256"
                },
                {
                  "internalType": "uint256",
                  "name": "presaleMintStart",
                  "type": "uint256"
                },
                {
                  "internalType": "string",
                  "name": "prerevealTokenURI",
                  "type": "string"
                },
                {
                  "internalType": "bytes32",
                  "name": "presaleMerkleRoot",
                  "type": "bytes32"
                },
                {
                  "internalType": "uint256",
                  "name": "royaltiesBps",
                  "type": "uint256"
                },
                {
                  "internalType": "address",
                  "name": "royaltiesAddress",
                  "type": "address"
                }
              ],
              "internalType": "struct NFTCollection.RuntimeConfig",
              "name": "runtimeConfig",
              "type": "tuple"
            }
          ],
          "internalType": "struct NFTCollection.ContractInfo",
          "name": "info",
          "type": "tuple"
        }
      ],
      "stateMutability": "view",
      "type": "function"
    },
    {
      "inputs": [
        {
          "internalType": "bytes32",
          "name": "role",
          "type": "bytes32"
        }
      ],
      "name": "getRoleAdmin",
      "outputs": [
        {
          "internalType": "bytes32",
          "name": "",
          "type": "bytes32"
        }
      ],
      "stateMutability": "view",
      "type": "function"
    },
    {
      "inputs": [
        {
          "internalType": "bytes32",
          "name": "role",
          "type": "bytes32"
        },
        {
          "internalType": "address",
          "name": "account",
          "type": "address"
        }
      ],
      "name": "grantRole",
      "outputs": [],
      "stateMutability": "nonpayable",
      "type": "function"
    },
    {
      "inputs": [
        {
          "internalType": "bytes32",
          "name": "role",
          "type": "bytes32"
        },
        {
          "internalType": "address",
          "name": "account",
          "type": "address"
        }
      ],
      "name": "hasRole",
      "outputs": [
        {
          "internalType": "bool",
          "name": "",
          "type": "bool"
        }
      ],
      "stateMutability": "view",
      "type": "function"
    },
    {
      "inputs": [
        {
          "components": [
            {
              "internalType": "string",
              "name": "name",
              "type": "string"
            },
            {
              "internalType": "string",
              "name": "symbol",
              "type": "string"
            },
            {
              "internalType": "address",
              "name": "owner",
              "type": "address"
            },
            {
              "internalType": "uint256",
              "name": "maxSupply",
              "type": "uint256"
            },
            {
              "internalType": "uint256",
              "name": "reservedSupply",
              "type": "uint256"
            },
            {
              "internalType": "uint256",
              "name": "mintPrice",
              "type": "uint256"
            },
            {
              "internalType": "uint256",
              "name": "tokensPerMint",
              "type": "uint256"
            },
            {
              "internalType": "address payable",
              "name": "treasuryAddress",
              "type": "address"
            }
          ],
          "internalType": "struct NFTCollection.DeploymentConfig",
          "name": "deploymentConfig",
          "type": "tuple"
        },
        {
          "components": [
            {
              "internalType": "string",
              "name": "baseURI",
              "type": "string"
            },
            {
              "internalType": "bool",
              "name": "metadataUpdatable",
              "type": "bool"
            },
            {
              "internalType": "uint256",
              "name": "publicMintStart",
              "type": "uint256"
            },
            {
              "internalType": "uint256",
              "name": "presaleMintStart",
              "type": "uint256"
            },
            {
              "internalType": "string",
              "name": "prerevealTokenURI",
              "type": "string"
            },
            {
              "internalType": "bytes32",
              "name": "presaleMerkleRoot",
              "type": "bytes32"
            },
            {
              "internalType": "uint256",
              "name": "royaltiesBps",
              "type": "uint256"
            },
            {
              "internalType": "address",
              "name": "royaltiesAddress",
              "type": "address"
            }
          ],
          "internalType": "struct NFTCollection.RuntimeConfig",
          "name": "runtimeConfig",
          "type": "tuple"
        }
      ],
      "name": "initialize",
      "outputs": [],
      "stateMutability": "nonpayable",
      "type": "function"
    },
    {
      "inputs": [
        {
          "internalType": "address",
          "name": "owner",
          "type": "address"
        },
        {
          "internalType": "address",
          "name": "operator",
          "type": "address"
        }
      ],
      "name": "isApprovedForAll",
      "outputs": [
        {
          "internalType": "bool",
          "name": "",
          "type": "bool"
        }
      ],
      "stateMutability": "view",
      "type": "function"
    },
    {
      "inputs": [
        {
          "internalType": "address",
          "name": "wallet",
          "type": "address"
        },
        {
          "internalType": "bytes32[]",
          "name": "proof",
          "type": "bytes32[]"
        }
      ],
      "name": "isWhitelisted",
      "outputs": [
        {
          "internalType": "bool",
          "name": "",
          "type": "bool"
        }
      ],
      "stateMutability": "view",
      "type": "function"
    },
    {
      "inputs": [],
      "name": "maxSupply",
      "outputs": [
        {
          "internalType": "uint256",
          "name": "",
          "type": "uint256"
        }
      ],
      "stateMutability": "view",
      "type": "function"
    },
    {
      "inputs": [],
      "name": "metadataUpdatable",
      "outputs": [
        {
          "internalType": "bool",
          "name": "",
          "type": "bool"
        }
      ],
      "stateMutability": "view",
      "type": "function"
    },
    {
      "inputs": [
        {
          "internalType": "uint256",
          "name": "amount",
          "type": "uint256"
        }
      ],
      "name": "mint",
      "outputs": [],
      "stateMutability": "payable",
      "type": "function"
    },
    {
      "inputs": [],
      "name": "mintPrice",
      "outputs": [
        {
          "internalType": "uint256",
          "name": "",
          "type": "uint256"
        }
      ],
      "stateMutability": "view",
      "type": "function"
    },
    {
      "inputs": [],
      "name": "mintingActive",
      "outputs": [
        {
          "internalType": "bool",
          "name": "",
          "type": "bool"
        }
      ],
      "stateMutability": "view",
      "type": "function"
    },
    {
      "inputs": [],
      "name": "name",
      "outputs": [
        {
          "internalType": "string",
          "name": "",
          "type": "string"
        }
      ],
      "stateMutability": "view",
      "type": "function"
    },
    {
      "inputs": [],
      "name": "owner",
      "outputs": [
        {
          "internalType": "address",
          "name": "",
          "type": "address"
        }
      ],
      "stateMutability": "view",
      "type": "function"
    },
    {
      "inputs": [
        {
          "internalType": "uint256",
          "name": "tokenId",
          "type": "uint256"
        }
      ],
      "name": "ownerOf",
      "outputs": [
        {
          "internalType": "address",
          "name": "",
          "type": "address"
        }
      ],
      "stateMutability": "view",
      "type": "function"
    },
    {
      "inputs": [],
      "name": "prerevealTokenURI",
      "outputs": [
        {
          "internalType": "string",
          "name": "",
          "type": "string"
        }
      ],
      "stateMutability": "view",
      "type": "function"
    },
    {
      "inputs": [],
      "name": "presaleActive",
      "outputs": [
        {
          "internalType": "bool",
          "name": "",
          "type": "bool"
        }
      ],
      "stateMutability": "view",
      "type": "function"
    },
    {
      "inputs": [],
      "name": "presaleMerkleRoot",
      "outputs": [
        {
          "internalType": "bytes32",
          "name": "",
          "type": "bytes32"
        }
      ],
      "stateMutability": "view",
      "type": "function"
    },
    {
      "inputs": [
        {
          "internalType": "uint256",
          "name": "amount",
          "type": "uint256"
        },
        {
          "internalType": "bytes32[]",
          "name": "proof",
          "type": "bytes32[]"
        }
      ],
      "name": "presaleMint",
      "outputs": [],
      "stateMutability": "payable",
      "type": "function"
    },
    {
      "inputs": [],
      "name": "presaleMintStart",
      "outputs": [
        {
          "internalType": "uint256",
          "name": "",
          "type": "uint256"
        }
      ],
      "stateMutability": "view",
      "type": "function"
    },
    {
      "inputs": [],
      "name": "publicMintStart",
      "outputs": [
        {
          "internalType": "uint256",
          "name": "",
          "type": "uint256"
        }
      ],
      "stateMutability": "view",
      "type": "function"
    },
    {
      "inputs": [
        {
          "internalType": "bytes32",
          "name": "role",
          "type": "bytes32"
        },
        {
          "internalType": "address",
          "name": "account",
          "type": "address"
        }
      ],
      "name": "renounceRole",
      "outputs": [],
      "stateMutability": "nonpayable",
      "type": "function"
    },
    {
      "inputs": [
        {
          "internalType": "address",
          "name": "to",
          "type": "address"
        },
        {
          "internalType": "uint256",
          "name": "amount",
          "type": "uint256"
        }
      ],
      "name": "reserveMint",
      "outputs": [],
      "stateMutability": "nonpayable",
      "type": "function"
    },
    {
      "inputs": [],
      "name": "reservedSupply",
      "outputs": [
        {
          "internalType": "uint256",
          "name": "",
          "type": "uint256"
        }
      ],
      "stateMutability": "view",
      "type": "function"
    },
    {
      "inputs": [
        {
          "internalType": "bytes32",
          "name": "role",
          "type": "bytes32"
        },
        {
          "internalType": "address",
          "name": "account",
          "type": "address"
        }
      ],
      "name": "revokeRole",
      "outputs": [],
      "stateMutability": "nonpayable",
      "type": "function"
    },
    {
      "inputs": [
        {
          "internalType": "uint256",
          "name": "",
          "type": "uint256"
        },
        {
          "internalType": "uint256",
          "name": "salePrice",
          "type": "uint256"
        }
      ],
      "name": "royaltyInfo",
      "outputs": [
        {
          "internalType": "address",
          "name": "receiver",
          "type": "address"
        },
        {
          "internalType": "uint256",
          "name": "royaltyAmount",
          "type": "uint256"
        }
      ],
      "stateMutability": "view",
      "type": "function"
    },
    {
      "inputs": [
        {
          "internalType": "address",
          "name": "from",
          "type": "address"
        },
        {
          "internalType": "address",
          "name": "to",
          "type": "address"
        },
        {
          "internalType": "uint256",
          "name": "tokenId",
          "type": "uint256"
        }
      ],
      "name": "safeTransferFrom",
      "outputs": [],
      "stateMutability": "nonpayable",
      "type": "function"
    },
    {
      "inputs": [
        {
          "internalType": "address",
          "name": "from",
          "type": "address"
        },
        {
          "internalType": "address",
          "name": "to",
          "type": "address"
        },
        {
          "internalType": "uint256",
          "name": "tokenId",
          "type": "uint256"
        },
        {
          "internalType": "bytes",
          "name": "_data",
          "type": "bytes"
        }
      ],
      "name": "safeTransferFrom",
      "outputs": [],
      "stateMutability": "nonpayable",
      "type": "function"
    },
    {
      "inputs": [
        {
          "internalType": "address",
          "name": "operator",
          "type": "address"
        },
        {
          "internalType": "bool",
          "name": "approved",
          "type": "bool"
        }
      ],
      "name": "setApprovalForAll",
      "outputs": [],
      "stateMutability": "nonpayable",
      "type": "function"
    },
    {
      "inputs": [
        {
          "internalType": "bytes4",
          "name": "interfaceId",
          "type": "bytes4"
        }
      ],
      "name": "supportsInterface",
      "outputs": [
        {
          "internalType": "bool",
          "name": "",
          "type": "bool"
        }
      ],
      "stateMutability": "view",
      "type": "function"
    },
    {
      "inputs": [],
      "name": "symbol",
      "outputs": [
        {
          "internalType": "string",
          "name": "",
          "type": "string"
        }
      ],
      "stateMutability": "view",
      "type": "function"
    },
    {
      "inputs": [
        {
          "internalType": "uint256",
          "name": "tokenId",
          "type": "uint256"
        }
      ],
      "name": "tokenURI",
      "outputs": [
        {
          "internalType": "string",
          "name": "",
          "type": "string"
        }
      ],
      "stateMutability": "view",
      "type": "function"
    },
    {
      "inputs": [],
      "name": "tokensPerMint",
      "outputs": [
        {
          "internalType": "uint256",
          "name": "",
          "type": "uint256"
        }
      ],
      "stateMutability": "view",
      "type": "function"
    },
    {
      "inputs": [],
      "name": "totalSupply",
      "outputs": [
        {
          "internalType": "uint256",
          "name": "",
          "type": "uint256"
        }
      ],
      "stateMutability": "view",
      "type": "function"
    },
    {
      "inputs": [
        {
          "internalType": "address",
          "name": "to",
          "type": "address"
        }
      ],
      "name": "transferAdminRights",
      "outputs": [],
      "stateMutability": "nonpayable",
      "type": "function"
    },
    {
      "inputs": [
        {
          "internalType": "address",
          "name": "from",
          "type": "address"
        },
        {
          "internalType": "address",
          "name": "to",
          "type": "address"
        },
        {
          "internalType": "uint256",
          "name": "tokenId",
          "type": "uint256"
        }
      ],
      "name": "transferFrom",
      "outputs": [],
      "stateMutability": "nonpayable",
      "type": "function"
    },
    {
      "inputs": [
        {
          "internalType": "address",
          "name": "newOwner",
          "type": "address"
        }
      ],
      "name": "transferOwnership",
      "outputs": [],
      "stateMutability": "nonpayable",
      "type": "function"
    },
    {
      "inputs": [],
      "name": "treasuryAddress",
      "outputs": [
        {
          "internalType": "address",
          "name": "",
          "type": "address"
        }
      ],
      "stateMutability": "view",
      "type": "function"
    },
    {
      "inputs": [
        {
          "components": [
            {
              "internalType": "string",
              "name": "baseURI",
              "type": "string"
            },
            {
              "internalType": "bool",
              "name": "metadataUpdatable",
              "type": "bool"
            },
            {
              "internalType": "uint256",
              "name": "publicMintStart",
              "type": "uint256"
            },
            {
              "internalType": "uint256",
              "name": "presaleMintStart",
              "type": "uint256"
            },
            {
              "internalType": "string",
              "name": "prerevealTokenURI",
              "type": "string"
            },
            {
              "internalType": "bytes32",
              "name": "presaleMerkleRoot",
              "type": "bytes32"
            },
            {
              "internalType": "uint256",
              "name": "royaltiesBps",
              "type": "uint256"
            },
            {
              "internalType": "address",
              "name": "royaltiesAddress",
              "type": "address"
            }
          ],
          "internalType": "struct NFTCollection.RuntimeConfig",
          "name": "newConfig",
          "type": "tuple"
        }
      ],
      "name": "updateConfig",
      "outputs": [],
      "stateMutability": "nonpayable",
      "type": "function"
    },
    {
      "inputs": [],
      "name": "withdrawFees",
      "outputs": [],
      "stateMutability": "nonpayable",
      "type": "function"
    }
  ],
  "transactionHash": "0xda01443c48b30afa0035d91918d196b73f90dee5f64369b7548aabe27292e59f",
  "args": [
    {
      "owner": "0x7f7631fA2C3E7b78aD8CEA99E08844440c7626f0",
      "name": "NFTCollection",
      "symbol": "NFT",
      "maxSupply": 1000,
      "reservedSupply": 0,
      "tokensPerMint": 10,
      "mintPrice": "10000000000000000",
      "treasuryAddress": "0x7f7631fA2C3E7b78aD8CEA99E08844440c7626f0"
    },
    {
      "baseURI": "",
      "prerevealTokenURI": "",
      "publicMintStart": 0,
      "presaleMintStart": 0,
      "presaleMerkleRoot": "0x0000000000000000000000000000000000000000000000000000000000000000",
      "metadataUpdatable": true,
      "royaltiesBps": 250,
      "royaltiesAddress": "0x7f7631fA2C3E7b78aD8CEA99E08844440c7626f0"
    }
  ],
  "numDeployments": 1,
  "solcInputHash": "4e2d1ff75f938ecf476eed5bb28d701e",
  "bytecode": "0x60806040523480156200001157600080fd5b506040516200482a3803806200482a8339810160408190526200003491620008b0565b60408051602080820180845260008084528451928301909452838252825192939192620000639291906200060b565b508051620000799060019060208401906200060b565b50506019805460ff19169055506200009282826200009a565b505062000a00565b600754610100900460ff16620000b75760075460ff1615620000c1565b620000c162000353565b6200012a5760405162461bcd60e51b815260206004820152602e60248201527f496e697469616c697a61626c653a20636f6e747261637420697320616c72656160448201526d191e481a5b9a5d1a585b1a5e995960921b60648201526084015b60405180910390fd5b600754610100900460ff161580156200014d576007805461ffff19166101011790555b60195460ff1615620001a25760405162461bcd60e51b815260206004820152601560248201527f43616e6e6f7420626520696e697469616c697a65640000000000000000000000604482015260640162000121565b620001ad8362000371565b620001c86000805160206200480a8339815191523362000557565b620001ed6000805160206200480a83398151915284604001516200055760201b60201c565b6040830151620002009060009062000557565b8251805184916011916200021c9183916020909101906200060b565b5060208281015180516200023792600185019201906200060b565b5060408201516002820180546001600160a01b03199081166001600160a01b0393841617909155606084015160038401556080840151600484015560a0840151600584015560c0840151600684015560e090930151600790920180549093169116179055815180518391600991620002b79183916020909101906200060b565b5060208281015160018301805460ff1916911515919091179055604083015160028301556060830151600383015560808301518051620002fe92600485019201906200060b565b5060a0820151600582015560c0820151600682015560e090910151600790910180546001600160a01b0319166001600160a01b0390921691909117905580156200034e576007805461ff00191690555b505050565b60006200036b30620005fc60201b62001b2b1760201c565b15905090565b6000816060015111620003c75760405162461bcd60e51b815260206004820152601f60248201527f4d6178696d756d20737570706c79206d757374206265206e6f6e2d7a65726f00604482015260640162000121565b60008160c00151116200041d5760405162461bcd60e51b815260206004820181905260248201527f546f6b656e7320706572206d696e74206d757374206265206e6f6e2d7a65726f604482015260640162000121565b60e08101516001600160a01b03166200048d5760405162461bcd60e51b815260206004820152602b60248201527f547265617375727920616464726573732063616e6e6f7420626520746865206e60448201526a756c6c206164647265737360a81b606482015260840162000121565b60408101516001600160a01b0316620004e95760405162461bcd60e51b815260206004820152601b60248201527f436f6e7472616374206d757374206861766520616e206f776e65720000000000604482015260640162000121565b806060015181608001511115620005545760405162461bcd60e51b815260206004820152602860248201527f52657365727665206d757374206265206c657373207468616e206d6178696d756044820152676d20737570706c7960c01b606482015260840162000121565b50565b60008281526006602090815260408083206001600160a01b038516845290915290205460ff16620005f85760008281526006602090815260408083206001600160a01b03851684529091529020805460ff19166001179055620005b73390565b6001600160a01b0316816001600160a01b0316837f2f8788117e7eff1d82e926ec794901d17c78024a50270940304540a733656f0d60405160405180910390a45b5050565b6001600160a01b03163b151590565b8280546200061990620009c3565b90600052602060002090601f0160209004810192826200063d576000855562000688565b82601f106200065857805160ff191683800117855562000688565b8280016001018555821562000688579182015b82811115620006885782518255916020019190600101906200066b565b50620006969291506200069a565b5090565b5b808211156200069657600081556001016200069b565b634e487b7160e01b600052604160045260246000fd5b60405161010081016001600160401b0381118282101715620006ed57620006ed620006b1565b60405290565b604051601f8201601f191681016001600160401b03811182821017156200071e576200071e620006b1565b604052919050565b600082601f8301126200073857600080fd5b81516001600160401b03811115620007545762000754620006b1565b60206200076a601f8301601f19168201620006f3565b82815285828487010111156200077f57600080fd5b60005b838110156200079f57858101830151828201840152820162000782565b83811115620007b15760008385840101525b5095945050505050565b80516001600160a01b0381168114620007d357600080fd5b919050565b80518015158114620007d357600080fd5b60006101008284031215620007fd57600080fd5b62000807620006c7565b82519091506001600160401b03808211156200082257600080fd5b620008308583860162000726565b83526200084060208501620007d8565b6020840152604084015160408401526060840151606084015260808401519150808211156200086e57600080fd5b506200087d8482850162000726565b60808301525060a082015160a082015260c082015160c0820152620008a560e08301620007bb565b60e082015292915050565b60008060408385031215620008c457600080fd5b82516001600160401b0380821115620008dc57600080fd5b908401906101008287031215620008f257600080fd5b620008fc620006c7565b8251828111156200090c57600080fd5b6200091a8882860162000726565b8252506020830151828111156200093057600080fd5b6200093e8882860162000726565b6020830152506200095260408401620007bb565b6040820152606083015160608201526080830151608082015260a083015160a082015260c083015160c08201526200098d60e08401620007bb565b60e08201526020860151909450915080821115620009aa57600080fd5b50620009b985828601620007e9565b9150509250929050565b600181811c90821680620009d857607f821691505b60208210811415620009fa57634e487b7160e01b600052602260045260246000fd5b50919050565b613dfa8062000a106000396000f3fe6080604052600436106102ae5760003560e01c806370a0823111610175578063b5106add116100dc578063e3e1e8ef11610095578063eec1b5d51161006f578063eec1b5d514610819578063f2fde38b14610839578063f4ad0f9714610859578063ffa1ad741461086e57600080fd5b8063e3e1e8ef146107a8578063e8a3d485146107bb578063e985e9c5146107d057600080fd5b8063b5106add146106f5578063b88d4fde14610715578063c5f956af14610735578063c87b56dd14610753578063d547741f14610773578063d5abeb011461079357600080fd5b806391d148541161012e57806391d148541461065857806395d89b4114610678578063a0712d681461068d578063a217fddf146106a0578063a22cb465146106b5578063b0ea1802146106d557600080fd5b806370a08231146105ae57806375b238fc146105ce5780637ecc2b56146105f0578063877bb1ae146106055780638cfec4c0146106255780638da5cb5b1461063a57600080fd5b806336568abe1161021957806353135ca0116101d257806353135ca01461050b5780635a23dd99146105225780635a9b0b89146105425780636352211e146105645780636817c76c146105845780636c0360eb1461059957600080fd5b806336568abe1461047457806342842e0e1461049457806344d19d2b146104b45780634653124b146104c9578063476343ee146104de5780634e6f9dd6146104f357600080fd5b806322212e2b1161026b57806322212e2b1461039957806323b872dd146103ae578063248a9ca3146103ce5780632a55205a146103fe5780632f2ff15d1461043d57806331f9c9191461045d57600080fd5b806301ffc9a7146102b357806306fdde03146102e85780630807b9e21461030a578063081812fc14610329578063095ea7b31461036157806318160ddd14610383575b600080fd5b3480156102bf57600080fd5b506102d36102ce366004612ee5565b610884565b60405190151581526020015b60405180910390f35b3480156102f457600080fd5b506102fd6108bf565b6040516102df9190612f5a565b34801561031657600080fd5b506017545b6040519081526020016102df565b34801561033557600080fd5b50610349610344366004612f6d565b610954565b6040516001600160a01b0390911681526020016102df565b34801561036d57600080fd5b5061038161037c366004612fab565b6109ee565b005b34801561038f57600080fd5b5061031b60085481565b3480156103a557600080fd5b50600e5461031b565b3480156103ba57600080fd5b506103816103c9366004612fd7565b610b04565b3480156103da57600080fd5b5061031b6103e9366004612f6d565b60009081526006602052604090206001015490565b34801561040a57600080fd5b5061041e610419366004613018565b610b35565b604080516001600160a01b0390931683526020830191909152016102df565b34801561044957600080fd5b5061038161045836600461303a565b610b6c565b34801561046957600080fd5b50600b5442116102d3565b34801561048057600080fd5b5061038161048f36600461303a565b610b92565b3480156104a057600080fd5b506103816104af366004612fd7565b610c10565b3480156104c057600080fd5b5060155461031b565b3480156104d557600080fd5b50600c5461031b565b3480156104ea57600080fd5b50610381610c2b565b3480156104ff57600080fd5b50600a5460ff166102d3565b34801561051757600080fd5b50600c5442116102d3565b34801561052e57600080fd5b506102d361053d3660046130b5565b610c5d565b34801561054e57600080fd5b50610557610d3b565b6040516102df919061318c565b34801561057057600080fd5b5061034961057f366004612f6d565b61105d565b34801561059057600080fd5b5060165461031b565b3480156105a557600080fd5b506102fd6110d4565b3480156105ba57600080fd5b5061031b6105c9366004613254565b6110e6565b3480156105da57600080fd5b5061031b600080516020613da583398151915281565b3480156105fc57600080fd5b5061031b61116d565b34801561061157600080fd5b50610381610620366004613271565b611192565b34801561063157600080fd5b50600b5461031b565b34801561064657600080fd5b506013546001600160a01b0316610349565b34801561066457600080fd5b506102d361067336600461303a565b6111c7565b34801561068457600080fd5b506102fd6111f2565b61038161069b366004612f6d565b611204565b3480156106ac57600080fd5b5061031b600081565b3480156106c157600080fd5b506103816106d03660046132c5565b6112b1565b3480156106e157600080fd5b506103816106f0366004612fab565b6112bc565b34801561070157600080fd5b50610381610710366004613254565b611342565b34801561072157600080fd5b506103816107303660046133a7565b611436565b34801561074157600080fd5b506018546001600160a01b0316610349565b34801561075f57600080fd5b506102fd61076e366004612f6d565b611468565b34801561077f57600080fd5b5061038161078e36600461303a565b6115a0565b34801561079f57600080fd5b5060145461031b565b6103816107b6366004613426565b6115c6565b3480156107c757600080fd5b506102fd6116e4565b3480156107dc57600080fd5b506102d36107eb366004613458565b6001600160a01b03918216600090815260056020908152604080832093909416825291909152205460ff1690565b34801561082557600080fd5b5061038161083436600461355f565b611761565b34801561084557600080fd5b50610381610854366004613254565b6119e7565b34801561086557600080fd5b506102fd611b19565b34801561087a57600080fd5b5061031b6127d881565b600061088f82611b3a565b8061089e575061089e82611b8a565b806108b9575063152a902d60e11b6001600160e01b03198316145b92915050565b6060601160000180546108d19061365f565b80601f01602080910402602001604051908101604052809291908181526020018280546108fd9061365f565b801561094a5780601f1061091f5761010080835404028352916020019161094a565b820191906000526020600020905b81548152906001019060200180831161092d57829003601f168201915b5050505050905090565b6000818152600260205260408120546001600160a01b03166109d25760405162461bcd60e51b815260206004820152602c60248201527f4552433732313a20617070726f76656420717565727920666f72206e6f6e657860448201526b34b9ba32b73a103a37b5b2b760a11b60648201526084015b60405180910390fd5b506000908152600460205260409020546001600160a01b031690565b60006109f98261105d565b9050806001600160a01b0316836001600160a01b03161415610a675760405162461bcd60e51b815260206004820152602160248201527f4552433732313a20617070726f76616c20746f2063757272656e74206f776e656044820152603960f91b60648201526084016109c9565b336001600160a01b0382161480610a835750610a8381336107eb565b610af55760405162461bcd60e51b815260206004820152603860248201527f4552433732313a20617070726f76652063616c6c6572206973206e6f74206f7760448201527f6e6572206e6f7220617070726f76656420666f7220616c6c000000000000000060648201526084016109c9565b610aff8383611bbf565b505050565b610b0e3382611c2d565b610b2a5760405162461bcd60e51b81526004016109c99061369a565b610aff838383611d24565b601054600f546001600160a01b039091169060009061271090610b59908590613701565b610b639190613736565b90509250929050565b600082815260066020526040902060010154610b888133611ec0565b610aff8383611f24565b6001600160a01b0381163314610c025760405162461bcd60e51b815260206004820152602f60248201527f416363657373436f6e74726f6c3a2063616e206f6e6c792072656e6f756e636560448201526e103937b632b9903337b91039b2b63360891b60648201526084016109c9565b610c0c8282611faa565b5050565b610aff83838360405180602001604052806000815250611436565b600080516020613da5833981519152610c448133611ec0565b601854610c5a906001600160a01b031647612011565b50565b6001600160a01b0383166000908152601a602052604081205460ff1615610cb75760405162461bcd60e51b815260206004820152600e60248201526d105b1c9958591e481b5a5b9d195960921b60448201526064016109c9565b6040516bffffffffffffffffffffffff19606086901b166020820152600090603401604051602081830303815290604052805190602001209050610d3284848080602002602001604051908101604052809392919081815260200183836020028082843760009201919091525050600e54915084905061212a565b95945050505050565b610d43612d6a565b6127d881526040805161010081019091526011805482908290610d659061365f565b80601f0160208091040260200160405190810160405280929190818152602001828054610d919061365f565b8015610dde5780601f10610db357610100808354040283529160200191610dde565b820191906000526020600020905b815481529060010190602001808311610dc157829003601f168201915b50505050508152602001600182018054610df79061365f565b80601f0160208091040260200160405190810160405280929190818152602001828054610e239061365f565b8015610e705780601f10610e4557610100808354040283529160200191610e70565b820191906000526020600020905b815481529060010190602001808311610e5357829003601f168201915b505050918352505060028201546001600160a01b0390811660208084019190915260038401546040808501919091526004850154606085015260058501546080850152600685015460a085015260079094015490911660c090920191909152830191909152805161010081019091526009805482908290610ef09061365f565b80601f0160208091040260200160405190810160405280929190818152602001828054610f1c9061365f565b8015610f695780601f10610f3e57610100808354040283529160200191610f69565b820191906000526020600020905b815481529060010190602001808311610f4c57829003601f168201915b5050509183525050600182015460ff16151560208201526002820154604082015260038201546060820152600482018054608090920191610fa99061365f565b80601f0160208091040260200160405190810160405280929190818152602001828054610fd59061365f565b80156110225780601f10610ff757610100808354040283529160200191611022565b820191906000526020600020905b81548152906001019060200180831161100557829003601f168201915b50505091835250506005820154602082015260068201546040808301919091526007909201546001600160a01b031660609091015282015290565b6000818152600260205260408120546001600160a01b0316806108b95760405162461bcd60e51b815260206004820152602960248201527f4552433732313a206f776e657220717565727920666f72206e6f6e657869737460448201526832b73a103a37b5b2b760b91b60648201526084016109c9565b6060600960000180546108d19061365f565b60006001600160a01b0382166111515760405162461bcd60e51b815260206004820152602a60248201527f4552433732313a2062616c616e636520717565727920666f7220746865207a65604482015269726f206164647265737360b01b60648201526084016109c9565b506001600160a01b031660009081526003602052604090205490565b601554600854601454600092916111839161374a565b61118d919061374a565b905090565b600080516020613da58339815191526111ab8133611ec0565b6111b482612140565b8160096111c182826138cf565b50505050565b60009182526006602090815260408084206001600160a01b0393909316845291905290205460ff1690565b6060601160010180546108d19061365f565b60165481906112139082613701565b3410156112565760405162461bcd60e51b815260206004820152601160248201527014185e5b595b9d081d1bdbc81cdb585b1b607a1b60448201526064016109c9565b600b5442116112a75760405162461bcd60e51b815260206004820152601b60248201527f4d696e74696e6720686173206e6f74207374617274656420796574000000000060448201526064016109c9565b610c0c338361229b565b610c0c33838361237b565b600080516020613da58339815191526112d58133611ec0565b60155482111561131d5760405162461bcd60e51b8152602060048201526013602482015272139bdd08195b9bdd59da081c995cd95c9d9959606a1b60448201526064016109c9565b8160116004016000828254611332919061374a565b90915550610aff9050838361229b565b600080516020613da583398151915261135b8133611ec0565b611373600080516020613da5833981519152836111c7565b156113b35760405162461bcd60e51b815260206004820152601060248201526f20b63932b0b23c9030b71030b236b4b760811b60448201526064016109c9565b6013546001600160a01b03163314156114065760405162461bcd60e51b81526020600482015260156024820152740557365207472616e736665724f776e65727368697605c1b60448201526064016109c9565b61141e600080516020613da583398151915233611faa565b610c0c600080516020613da583398151915283611f24565b6114403383611c2d565b61145c5760405162461bcd60e51b81526004016109c99061369a565b6111c18484848461244a565b6000818152600260205260409020546060906001600160a01b03166114c65760405162461bcd60e51b8152602060048201526014602482015273151bdad95b88191bd95cc81b9bdd08195e1a5cdd60621b60448201526064016109c9565b6000600960000180546114d89061365f565b90501161156f57600d80546114ec9061365f565b80601f01602080910402602001604051908101604052809291908181526020018280546115189061365f565b80156115655780601f1061153a57610100808354040283529160200191611565565b820191906000526020600020905b81548152906001019060200180831161154857829003601f168201915b50505050506108b9565b600961157a8361247d565b60405160200161158b929190613aa5565b60405160208183030381529060405292915050565b6000828152600660205260409020600101546115bc8133611ec0565b610aff8383611faa565b60165483906115d59082613701565b3410156116185760405162461bcd60e51b815260206004820152601160248201527014185e5b595b9d081d1bdbc81cdb585b1b607a1b60448201526064016109c9565b600c5442116116695760405162461bcd60e51b815260206004820152601b60248201527f50726573616c6520686173206e6f74207374617274656420796574000000000060448201526064016109c9565b611674338484610c5d565b6116c05760405162461bcd60e51b815260206004820152601b60248201527f4e6f742077686974656c697374656420666f722070726573616c65000000000060448201526064016109c9565b336000818152601a60205260409020805460ff191660011790556111c1908561229b565b606060006117356116f960096006015461247d565b601054611710906001600160a01b0316601461257a565b604051602001611721929190613aca565b60405160208183030381529060405261271c565b905060008160405160200161174a9190613b51565b60408051601f198184030181529190529392505050565b600754610100900460ff1661177c5760075460ff1615611780565b303b155b6117e35760405162461bcd60e51b815260206004820152602e60248201527f496e697469616c697a61626c653a20636f6e747261637420697320616c72656160448201526d191e481a5b9a5d1a585b1a5e995960921b60648201526084016109c9565b600754610100900460ff16158015611805576007805461ffff19166101011790555b60195460ff16156118505760405162461bcd60e51b815260206004820152601560248201527410d85b9b9bdd081899481a5b9a5d1a585b1a5e9959605a1b60448201526064016109c9565b61185983612881565b611871600080516020613da583398151915233611f24565b61188d600080516020613da58339815191528460400151611f24565b61189e6000801b8460400151611f24565b8251805184916011916118b8918391602090910190612e36565b5060208281015180516118d19260018501920190612e36565b5060408201516002820180546001600160a01b03199081166001600160a01b0393841617909155606084015160038401556080840151600484015560a0840151600584015560c0840151600684015560e09093015160079092018054909316911617905581518051839160099161194f918391602090910190612e36565b5060208281015160018301805460ff19169115159190911790556040830151600283015560608301516003830155608083015180516119949260048501920190612e36565b5060a0820151600582015560c0820151600682015560e090910151600790910180546001600160a01b0319166001600160a01b039092169190911790558015610aff576007805461ff0019169055505050565b60006119f38133611ec0565b6013546001600160a01b0383811691161415611a455760405162461bcd60e51b815260206004820152601160248201527020b63932b0b23c903a34329037bbb732b960791b60448201526064016109c9565b601354611a6a90600080516020613da5833981519152906001600160a01b0316611faa565b601354611a82906000906001600160a01b0316611faa565b601380546001600160a01b038481166001600160a01b0319831681179093551690611abc90600080516020613da583398151915290611f24565b601354611ad4906000906001600160a01b0316611f24565b826001600160a01b0316816001600160a01b03167f8be0079c531659141344cd1fd0a4f28419497f9722a3daafe3b4186f6b6457e060405160405180910390a3505050565b6060600960040180546108d19061365f565b6001600160a01b03163b151590565b60006001600160e01b031982166380ac58cd60e01b1480611b6b57506001600160e01b03198216635b5e139f60e01b145b806108b957506301ffc9a760e01b6001600160e01b03198316146108b9565b60006001600160e01b03198216637965db0b60e01b14806108b9575063152a902d60e11b6001600160e01b03198316146108b9565b600081815260046020526040902080546001600160a01b0319166001600160a01b0384169081179091558190611bf48261105d565b6001600160a01b03167f8c5be1e5ebec7d5bd14f71427d1e84f3dd0314c0f7b2291e5b200ac8c7c3b92560405160405180910390a45050565b6000818152600260205260408120546001600160a01b0316611ca65760405162461bcd60e51b815260206004820152602c60248201527f4552433732313a206f70657261746f7220717565727920666f72206e6f6e657860448201526b34b9ba32b73a103a37b5b2b760a11b60648201526084016109c9565b6000611cb18361105d565b9050806001600160a01b0316846001600160a01b03161480611cec5750836001600160a01b0316611ce184610954565b6001600160a01b0316145b80611d1c57506001600160a01b0380821660009081526005602090815260408083209388168352929052205460ff165b949350505050565b826001600160a01b0316611d378261105d565b6001600160a01b031614611d9b5760405162461bcd60e51b815260206004820152602560248201527f4552433732313a207472616e736665722066726f6d20696e636f72726563742060448201526437bbb732b960d91b60648201526084016109c9565b6001600160a01b038216611dfd5760405162461bcd60e51b8152602060048201526024808201527f4552433732313a207472616e7366657220746f20746865207a65726f206164646044820152637265737360e01b60648201526084016109c9565b611e08600082611bbf565b6001600160a01b0383166000908152600360205260408120805460019290611e3190849061374a565b90915550506001600160a01b0382166000908152600360205260408120805460019290611e5f908490613b96565b909155505060008181526002602052604080822080546001600160a01b0319166001600160a01b0386811691821790925591518493918716917fddf252ad1be2c89b69c2b068fc378daa952ba7f163c4a11628f55a4df523b3ef91a4505050565b611eca82826111c7565b610c0c57611ee2816001600160a01b0316601461257a565b611eed83602061257a565b604051602001611efe929190613bae565b60408051601f198184030181529082905262461bcd60e51b82526109c991600401612f5a565b611f2e82826111c7565b610c0c5760008281526006602090815260408083206001600160a01b03851684529091529020805460ff19166001179055611f663390565b6001600160a01b0316816001600160a01b0316837f2f8788117e7eff1d82e926ec794901d17c78024a50270940304540a733656f0d60405160405180910390a45050565b611fb482826111c7565b15610c0c5760008281526006602090815260408083206001600160a01b0385168085529252808320805460ff1916905551339285917ff6391f5c32d9c69d2a47ea670b442974b53935d1edc7fd64eb21e047a839171b9190a45050565b804710156120615760405162461bcd60e51b815260206004820152601d60248201527f416464726573733a20696e73756666696369656e742062616c616e636500000060448201526064016109c9565b6000826001600160a01b03168260405160006040518083038185875af1925050503d80600081146120ae576040519150601f19603f3d011682016040523d82523d6000602084013e6120b3565b606091505b5050905080610aff5760405162461bcd60e51b815260206004820152603a60248201527f416464726573733a20756e61626c6520746f2073656e642076616c75652c207260448201527f6563697069656e74206d6179206861766520726576657274656400000000000060648201526084016109c9565b6000826121378584612a5a565b14949350505050565b61271060c0820135111561218b5760405162461bcd60e51b81526020600482015260126024820152710a4def2c2d8e8d2cae640e8dede40d0d2ced60731b60448201526064016109c9565b600a5460ff16156121995750565b6121a96040820160208301613c23565b600a5460ff161515901515146122015760405162461bcd60e51b815260206004820152601860248201527f43616e6e6f7420756e667265657a65206d65746164617461000000000000000060448201526064016109c9565b61220b8180613761565b60405160200161221c929190613c40565b60408051601f19818403018152908290528051602091820120916122439160099101613c50565b6040516020818303038152906040528051906020012014610c5a5760405162461bcd60e51b815260206004820152601260248201527126b2ba30b230ba309034b990333937bd32b760711b60448201526064016109c9565b6017548111156122e05760405162461bcd60e51b815260206004820152601060248201526f416d6f756e7420746f6f206c6172676560801b60448201526064016109c9565b6122e861116d565b8111156123305760405162461bcd60e51b8152602060048201526016602482015275139bdd08195b9bdd59da081d1bdad95b9cc81b19599d60521b60448201526064016109c9565b80600860008282546123429190613b96565b90915550600190505b818111610aff576123698382600854612364919061374a565b612ace565b8061237381613c5c565b91505061234b565b816001600160a01b0316836001600160a01b031614156123dd5760405162461bcd60e51b815260206004820152601960248201527f4552433732313a20617070726f766520746f2063616c6c65720000000000000060448201526064016109c9565b6001600160a01b03838116600081815260056020908152604080832094871680845294825291829020805460ff191686151590811790915591519182527f17307eab39ab6107e8899845ad3d59bd9653f200f220920489ca2b5937696c31910160405180910390a3505050565b612455848484611d24565b61246184848484612ae8565b6111c15760405162461bcd60e51b81526004016109c990613c77565b6060816124a15750506040805180820190915260018152600360fc1b602082015290565b8160005b81156124cb57806124b581613c5c565b91506124c49050600a83613736565b91506124a5565b6000816001600160401b038111156124e5576124e56132f3565b6040519080825280601f01601f19166020018201604052801561250f576020820181803683370190505b5090505b8415611d1c5761252460018361374a565b9150612531600a86613cc9565b61253c906030613b96565b60f81b81838151811061255157612551613cdd565b60200101906001600160f81b031916908160001a905350612573600a86613736565b9450612513565b60606000612589836002613701565b612594906002613b96565b6001600160401b038111156125ab576125ab6132f3565b6040519080825280601f01601f1916602001820160405280156125d5576020820181803683370190505b509050600360fc1b816000815181106125f0576125f0613cdd565b60200101906001600160f81b031916908160001a905350600f60fb1b8160018151811061261f5761261f613cdd565b60200101906001600160f81b031916908160001a9053506000612643846002613701565b61264e906001613b96565b90505b60018111156126c6576f181899199a1a9b1b9c1cb0b131b232b360811b85600f166010811061268257612682613cdd565b1a60f81b82828151811061269857612698613cdd565b60200101906001600160f81b031916908160001a90535060049490941c936126bf81613cf3565b9050612651565b5083156127155760405162461bcd60e51b815260206004820181905260248201527f537472696e67733a20686578206c656e67746820696e73756666696369656e7460448201526064016109c9565b9392505050565b80516060908061273c575050604080516020810190915260008152919050565b6000600361274b836002613b96565b6127559190613736565b612760906004613701565b9050600061276f826020613b96565b6001600160401b03811115612786576127866132f3565b6040519080825280601f01601f1916602001820160405280156127b0576020820181803683370190505b5090506000604051806060016040528060408152602001613d65604091399050600181016020830160005b8681101561283c576003818a01810151603f601282901c8116860151600c83901c8216870151600684901c831688015192909316870151600891821b60ff94851601821b92841692909201901b91160160e01b8352600490920191016127db565b506003860660018114612856576002811461286757612873565b613d3d60f01b600119830152612873565b603d60f81b6000198301525b505050918152949350505050565b60008160600151116128d55760405162461bcd60e51b815260206004820152601f60248201527f4d6178696d756d20737570706c79206d757374206265206e6f6e2d7a65726f0060448201526064016109c9565b60008160c00151116129295760405162461bcd60e51b815260206004820181905260248201527f546f6b656e7320706572206d696e74206d757374206265206e6f6e2d7a65726f60448201526064016109c9565b60e08101516001600160a01b03166129975760405162461bcd60e51b815260206004820152602b60248201527f547265617375727920616464726573732063616e6e6f7420626520746865206e60448201526a756c6c206164647265737360a81b60648201526084016109c9565b60408101516001600160a01b03166129f15760405162461bcd60e51b815260206004820152601b60248201527f436f6e7472616374206d757374206861766520616e206f776e6572000000000060448201526064016109c9565b806060015181608001511115610c5a5760405162461bcd60e51b815260206004820152602860248201527f52657365727665206d757374206265206c657373207468616e206d6178696d756044820152676d20737570706c7960c01b60648201526084016109c9565b600081815b8451811015612ac6576000858281518110612a7c57612a7c613cdd565b60200260200101519050808311612aa25760008381526020829052604090209250612ab3565b600081815260208490526040902092505b5080612abe81613c5c565b915050612a5f565b509392505050565b610c0c828260405180602001604052806000815250612bf5565b60006001600160a01b0384163b15612bea57604051630a85bd0160e11b81526001600160a01b0385169063150b7a0290612b2c903390899088908890600401613d0a565b602060405180830381600087803b158015612b4657600080fd5b505af1925050508015612b76575060408051601f3d908101601f19168201909252612b7391810190613d47565b60015b612bd0573d808015612ba4576040519150601f19603f3d011682016040523d82523d6000602084013e612ba9565b606091505b508051612bc85760405162461bcd60e51b81526004016109c990613c77565b805181602001fd5b6001600160e01b031916630a85bd0160e11b149050611d1c565b506001949350505050565b612bff8383612c28565b612c0c6000848484612ae8565b610aff5760405162461bcd60e51b81526004016109c990613c77565b6001600160a01b038216612c7e5760405162461bcd60e51b815260206004820181905260248201527f4552433732313a206d696e7420746f20746865207a65726f206164647265737360448201526064016109c9565b6000818152600260205260409020546001600160a01b031615612ce35760405162461bcd60e51b815260206004820152601c60248201527f4552433732313a20746f6b656e20616c7265616479206d696e7465640000000060448201526064016109c9565b6001600160a01b0382166000908152600360205260408120805460019290612d0c908490613b96565b909155505060008181526002602052604080822080546001600160a01b0319166001600160a01b03861690811790915590518392907fddf252ad1be2c89b69c2b068fc378daa952ba7f163c4a11628f55a4df523b3ef908290a45050565b604051806060016040528060008152602001612dd6604051806101000160405280606081526020016060815260200160006001600160a01b031681526020016000815260200160008152602001600081526020016000815260200160006001600160a01b031681525090565b8152602001612e3160405180610100016040528060608152602001600015158152602001600081526020016000815260200160608152602001600080191681526020016000815260200160006001600160a01b031681525090565b905290565b828054612e429061365f565b90600052602060002090601f016020900481019282612e645760008555612eaa565b82601f10612e7d57805160ff1916838001178555612eaa565b82800160010185558215612eaa579182015b82811115612eaa578251825591602001919060010190612e8f565b50612eb6929150612eba565b5090565b5b80821115612eb65760008155600101612ebb565b6001600160e01b031981168114610c5a57600080fd5b600060208284031215612ef757600080fd5b813561271581612ecf565b60005b83811015612f1d578181015183820152602001612f05565b838111156111c15750506000910152565b60008151808452612f46816020860160208601612f02565b601f01601f19169290920160200192915050565b6020815260006127156020830184612f2e565b600060208284031215612f7f57600080fd5b5035919050565b6001600160a01b0381168114610c5a57600080fd5b8035612fa681612f86565b919050565b60008060408385031215612fbe57600080fd5b8235612fc981612f86565b946020939093013593505050565b600080600060608486031215612fec57600080fd5b8335612ff781612f86565b9250602084013561300781612f86565b929592945050506040919091013590565b6000806040838503121561302b57600080fd5b50508035926020909101359150565b6000806040838503121561304d57600080fd5b82359150602083013561305f81612f86565b809150509250929050565b60008083601f84011261307c57600080fd5b5081356001600160401b0381111561309357600080fd5b6020830191508360208260051b85010111156130ae57600080fd5b9250929050565b6000806000604084860312156130ca57600080fd5b83356130d581612f86565b925060208401356001600160401b038111156130f057600080fd5b6130fc8682870161306a565b9497909650939450505050565b6000610100825181855261311f82860182612f2e565b9150506020830151151560208501526040830151604085015260608301516060850152608083015184820360808601526131598282612f2e565b60a0858101519087015260c0808601519087015260e0948501516001600160a01b03169490950193909352509192915050565b6020815281516020820152600060208301516060604084015280516101008060808601526131be610180860183612f2e565b91506020830151607f198684030160a08701526131db8382612f2e565b92505060018060a01b0360408401511660c0860152606083015160e08601526080830151818601525060a082015161012085015260c082015161014085015260e082015191506132376101608501836001600160a01b03169052565b6040850151848203601f190160608601529150610d328183613109565b60006020828403121561326657600080fd5b813561271581612f86565b60006020828403121561328357600080fd5b81356001600160401b0381111561329957600080fd5b8201610100818503121561271557600080fd5b8015158114610c5a57600080fd5b8035612fa6816132ac565b600080604083850312156132d857600080fd5b82356132e381612f86565b9150602083013561305f816132ac565b634e487b7160e01b600052604160045260246000fd5b60405161010081016001600160401b038111828210171561332c5761332c6132f3565b60405290565b60006001600160401b038084111561334c5761334c6132f3565b604051601f8501601f19908116603f01168101908282118183101715613374576133746132f3565b8160405280935085815286868601111561338d57600080fd5b858560208301376000602087830101525050509392505050565b600080600080608085870312156133bd57600080fd5b84356133c881612f86565b935060208501356133d881612f86565b92506040850135915060608501356001600160401b038111156133fa57600080fd5b8501601f8101871361340b57600080fd5b61341a87823560208401613332565b91505092959194509250565b60008060006040848603121561343b57600080fd5b8335925060208401356001600160401b038111156130f057600080fd5b6000806040838503121561346b57600080fd5b823561347681612f86565b9150602083013561305f81612f86565b600082601f83011261349757600080fd5b61271583833560208501613332565b600061010082840312156134b957600080fd5b6134c1613309565b905081356001600160401b03808211156134da57600080fd5b6134e685838601613486565b83526134f4602085016132ba565b60208401526040840135604084015260608401356060840152608084013591508082111561352157600080fd5b5061352e84828501613486565b60808301525060a082013560a082015260c082013560c082015261355460e08301612f9b565b60e082015292915050565b6000806040838503121561357257600080fd5b82356001600160401b038082111561358957600080fd5b90840190610100828703121561359e57600080fd5b6135a6613309565b8235828111156135b557600080fd5b6135c188828601613486565b8252506020830135828111156135d657600080fd5b6135e288828601613486565b6020830152506135f460408401612f9b565b6040820152606083013560608201526080830135608082015260a083013560a082015260c083013560c082015261362d60e08401612f9b565b60e08201529350602085013591508082111561364857600080fd5b50613655858286016134a6565b9150509250929050565b600181811c9082168061367357607f821691505b6020821081141561369457634e487b7160e01b600052602260045260246000fd5b50919050565b60208082526031908201527f4552433732313a207472616e736665722063616c6c6572206973206e6f74206f6040820152701ddb995c881b9bdc88185c1c1c9bdd9959607a1b606082015260800190565b634e487b7160e01b600052601160045260246000fd5b600081600019048311821515161561371b5761371b6136eb565b500290565b634e487b7160e01b600052601260045260246000fd5b60008261374557613745613720565b500490565b60008282101561375c5761375c6136eb565b500390565b6000808335601e1984360301811261377857600080fd5b8301803591506001600160401b0382111561379257600080fd5b6020019150368190038213156130ae57600080fd5b601f821115610aff57600081815260208120601f850160051c810160208610156137ce5750805b601f850160051c820191505b818110156137ed578281556001016137da565b505050505050565b6001600160401b0383111561380c5761380c6132f3565b6138208361381a835461365f565b836137a7565b6000601f841160018114613854576000851561383c5750838201355b600019600387901b1c1916600186901b1783556138ae565b600083815260209020601f19861690835b828110156138855786850135825560209485019460019092019101613865565b50868210156138a25760001960f88860031b161c19848701351681555b505060018560011b0183555b5050505050565b600081356108b9816132ac565b600081356108b981612f86565b6138d98283613761565b6001600160401b038111156138f0576138f06132f3565b613904816138fe855461365f565b856137a7565b6000601f82116001811461393857600083156139205750838201355b600019600385901b1c1916600184901b178555613992565b600085815260209020601f19841690835b828110156139695786850135825560209485019460019092019101613949565b50848210156139865760001960f88660031b161c19848701351681555b505060018360011b0185555b505050506139be6139a5602084016138b5565b6001830160ff1981541660ff8315151681178255505050565b60408201356002820155606082013560038201556139df6080830183613761565b6139ed8183600486016137f5565b505060a0820135600582015560c08201356006820155610c0c613a1260e084016138c2565b6007830180546001600160a01b0319166001600160a01b0392909216919091179055565b60008154613a438161365f565b60018281168015613a5b5760018114613a6c57613a9b565b60ff19841687528287019450613a9b565b8560005260208060002060005b85811015613a925781548a820152908401908201613a79565b50505082870194505b5050505092915050565b6000613ab18285613a36565b8351613ac1818360208801612f02565b01949350505050565b7f7b2273656c6c65725f6665655f62617369735f706f696e7473223a2000000000815260008351613b0281601c850160208801612f02565b731610113332b2afb932b1b4b834b2b73a111d101160611b601c918401918201528351613b36816030840160208801612f02565b61227d60f01b60309290910191820152603201949350505050565b7f646174613a6170706c69636174696f6e2f6a736f6e3b6261736536342c000000815260008251613b8981601d850160208701612f02565b91909101601d0192915050565b60008219821115613ba957613ba96136eb565b500190565b7f416363657373436f6e74726f6c3a206163636f756e7420000000000000000000815260008351613be6816017850160208801612f02565b7001034b99036b4b9b9b4b733903937b6329607d1b6017918401918201528351613c17816028840160208801612f02565b01602801949350505050565b600060208284031215613c3557600080fd5b8135612715816132ac565b8183823760009101908152919050565b60006127158284613a36565b6000600019821415613c7057613c706136eb565b5060010190565b60208082526032908201527f4552433732313a207472616e7366657220746f206e6f6e20455243373231526560408201527131b2b4bb32b91034b6b83632b6b2b73a32b960711b606082015260800190565b600082613cd857613cd8613720565b500690565b634e487b7160e01b600052603260045260246000fd5b600081613d0257613d026136eb565b506000190190565b6001600160a01b0385811682528416602082015260408101839052608060608201819052600090613d3d90830184612f2e565b9695505050505050565b600060208284031215613d5957600080fd5b815161271581612ecf56fe4142434445464748494a4b4c4d4e4f505152535455565758595a6162636465666768696a6b6c6d6e6f707172737475767778797a303132333435363738392b2fa49807205ce4d355092ef5a8a18f56e8913cf4a201fbe287825b095693c21775a2646970667358221220491b71218d69d39b18add4ba764809d31184e4570352f05fb888d0b83226d5bf64736f6c63430008090033a49807205ce4d355092ef5a8a18f56e8913cf4a201fbe287825b095693c21775",
  "devdoc": {
    "kind": "dev",
    "methods": {
      "approve(address,uint256)": {
        "details": "See {IERC721-approve}."
      },
      "balanceOf(address)": {
        "details": "See {IERC721-balanceOf}."
      },
      "contractURI()": {
        "details": "OpenSea contract metadata"
      },
      "getApproved(uint256)": {
        "details": "See {IERC721-getApproved}."
      },
      "getInfo()": {
        "details": "Convenience helper"
      },
      "getRoleAdmin(bytes32)": {
        "details": "Returns the admin role that controls `role`. See {grantRole} and {revokeRole}. To change a role's admin, use {_setRoleAdmin}."
      },
      "grantRole(bytes32,address)": {
        "details": "Grants `role` to `account`. If `account` had not been already granted `role`, emits a {RoleGranted} event. Requirements: - the caller must have ``role``'s admin role."
      },
      "hasRole(bytes32,address)": {
        "details": "Returns `true` if `account` has been granted `role`."
      },
      "isApprovedForAll(address,address)": {
        "details": "See {IERC721-isApprovedForAll}."
      },
      "name()": {
        "details": "Need name() to support setting it in the initializer instead of constructor"
      },
      "owner()": {
        "details": "Required for easy integration with OpenSea"
      },
      "ownerOf(uint256)": {
        "details": "See {IERC721-ownerOf}."
      },
      "renounceRole(bytes32,address)": {
        "details": "Revokes `role` from the calling account. Roles are often managed via {grantRole} and {revokeRole}: this function's purpose is to provide a mechanism for accounts to lose their privileges if they are compromised (such as when a trusted device is misplaced). If the calling account had been revoked `role`, emits a {RoleRevoked} event. Requirements: - the caller must be `account`."
      },
      "revokeRole(bytes32,address)": {
        "details": "Revokes `role` from `account`. If `account` had been granted `role`, emits a {RoleRevoked} event. Requirements: - the caller must have ``role``'s admin role."
      },
      "royaltyInfo(uint256,uint256)": {
        "details": "ERC2981 token royalty info"
      },
      "safeTransferFrom(address,address,uint256)": {
        "details": "See {IERC721-safeTransferFrom}."
      },
      "safeTransferFrom(address,address,uint256,bytes)": {
        "details": "See {IERC721-safeTransferFrom}."
      },
      "setApprovalForAll(address,bool)": {
        "details": "See {IERC721-setApprovalForAll}."
      },
      "supportsInterface(bytes4)": {
        "details": "See {IERC165-supportsInterface}."
      },
      "symbol()": {
        "details": "Need symbol() to support setting it in the initializer instead of constructor"
      },
      "transferFrom(address,address,uint256)": {
        "details": "See {IERC721-transferFrom}."
      },
      "updateConfig((string,bool,uint256,uint256,string,bytes32,uint256,address))": {
        "details": "Callable by admin roles only"
      },
      "withdrawFees()": {
        "details": "Callable by admin roles only"
      }
    },
    "version": 1
  },
  "userdoc": {
    "kind": "user",
    "methods": {
      "ADMIN_ROLE()": {
        "notice": "Admin role"
      },
      "VERSION()": {
        "notice": "Contract version, semver-style uint X_YY_ZZ"
      },
      "availableSupply()": {
        "notice": "Get the number of tokens still available for minting"
      },
      "getInfo()": {
        "notice": "Get full contract information"
      },
      "initialize((string,string,address,uint256,uint256,uint256,uint256,address),(string,bool,uint256,uint256,string,bytes32,uint256,address))": {
        "notice": "Contract initializer"
      },
      "isWhitelisted(address,bytes32[])": {
        "notice": "Check if the wallet is whitelisted for the presale"
      },
      "mint(uint256)": {
        "notice": "Mint tokens"
      },
      "mintingActive()": {
        "notice": "Check if public minting is active"
      },
      "owner()": {
        "notice": "Contract owner address"
      },
      "presaleActive()": {
        "notice": "Check if presale minting is active"
      },
      "presaleMint(uint256,bytes32[])": {
        "notice": "Mint tokens if the wallet has been whitelisted"
      },
      "reserveMint(address,uint256)": {
        "notice": "Mint a token from the reserve"
      },
      "tokenURI(uint256)": {
        "notice": "Get the token metadata URI"
      },
      "totalSupply()": {
        "notice": "The number of currently minted tokens"
      },
      "transferAdminRights(address)": {
        "notice": "Transfer contract ownership"
      },
      "transferOwnership(address)": {
        "notice": "Transfer contract ownership"
      },
      "updateConfig((string,bool,uint256,uint256,string,bytes32,uint256,address))": {
        "notice": "Update contract configuration"
      },
      "withdrawFees()": {
        "notice": "Withdraw minting fees to the treasury address"
      }
    },
    "version": 1
  },
  "storageLayout": {
    "storage": [
      {
        "astId": 1882,
        "contract": "contracts/collections/NFTCollectionContract.sol:NFTCollectionContract",
        "label": "_name",
        "offset": 0,
        "slot": "0",
        "type": "t_string_storage"
      },
      {
        "astId": 1884,
        "contract": "contracts/collections/NFTCollectionContract.sol:NFTCollectionContract",
        "label": "_symbol",
        "offset": 0,
        "slot": "1",
        "type": "t_string_storage"
      },
      {
        "astId": 1888,
        "contract": "contracts/collections/NFTCollectionContract.sol:NFTCollectionContract",
        "label": "_owners",
        "offset": 0,
        "slot": "2",
        "type": "t_mapping(t_uint256,t_address)"
      },
      {
        "astId": 1892,
        "contract": "contracts/collections/NFTCollectionContract.sol:NFTCollectionContract",
        "label": "_balances",
        "offset": 0,
        "slot": "3",
        "type": "t_mapping(t_address,t_uint256)"
      },
      {
        "astId": 1896,
        "contract": "contracts/collections/NFTCollectionContract.sol:NFTCollectionContract",
        "label": "_tokenApprovals",
        "offset": 0,
        "slot": "4",
        "type": "t_mapping(t_uint256,t_address)"
      },
      {
        "astId": 1902,
        "contract": "contracts/collections/NFTCollectionContract.sol:NFTCollectionContract",
        "label": "_operatorApprovals",
        "offset": 0,
        "slot": "5",
        "type": "t_mapping(t_address,t_mapping(t_address,t_bool))"
      },
      {
        "astId": 24,
        "contract": "contracts/collections/NFTCollectionContract.sol:NFTCollectionContract",
        "label": "_roles",
        "offset": 0,
        "slot": "6",
        "type": "t_mapping(t_bytes32,t_struct(RoleData)19_storage)"
      },
      {
        "astId": 515,
        "contract": "contracts/collections/NFTCollectionContract.sol:NFTCollectionContract",
        "label": "_initialized",
        "offset": 0,
        "slot": "7",
        "type": "t_bool"
      },
      {
        "astId": 518,
        "contract": "contracts/collections/NFTCollectionContract.sol:NFTCollectionContract",
        "label": "_initializing",
        "offset": 1,
        "slot": "7",
        "type": "t_bool"
      },
      {
        "astId": 4415,
        "contract": "contracts/collections/NFTCollectionContract.sol:NFTCollectionContract",
        "label": "totalSupply",
        "offset": 0,
        "slot": "8",
        "type": "t_uint256"
      },
      {
        "astId": 4824,
        "contract": "contracts/collections/NFTCollectionContract.sol:NFTCollectionContract",
        "label": "_runtimeConfig",
        "offset": 0,
        "slot": "9",
        "type": "t_struct(RuntimeConfig)4384_storage"
      },
      {
        "astId": 4827,
        "contract": "contracts/collections/NFTCollectionContract.sol:NFTCollectionContract",
        "label": "_deploymentConfig",
        "offset": 0,
        "slot": "17",
        "type": "t_struct(DeploymentConfig)4367_storage"
      },
      {
        "astId": 4830,
        "contract": "contracts/collections/NFTCollectionContract.sol:NFTCollectionContract",
        "label": "_preventInitialization",
        "offset": 0,
        "slot": "25",
        "type": "t_bool"
      },
      {
        "astId": 4835,
        "contract": "contracts/collections/NFTCollectionContract.sol:NFTCollectionContract",
        "label": "_presaleMinted",
        "offset": 0,
        "slot": "26",
        "type": "t_mapping(t_address,t_bool)"
      }
    ],
    "types": {
      "t_address": {
        "encoding": "inplace",
        "label": "address",
        "numberOfBytes": "20"
      },
      "t_address_payable": {
        "encoding": "inplace",
        "label": "address payable",
        "numberOfBytes": "20"
      },
      "t_bool": {
        "encoding": "inplace",
        "label": "bool",
        "numberOfBytes": "1"
      },
      "t_bytes32": {
        "encoding": "inplace",
        "label": "bytes32",
        "numberOfBytes": "32"
      },
      "t_mapping(t_address,t_bool)": {
        "encoding": "mapping",
        "key": "t_address",
        "label": "mapping(address => bool)",
        "numberOfBytes": "32",
        "value": "t_bool"
      },
      "t_mapping(t_address,t_mapping(t_address,t_bool))": {
        "encoding": "mapping",
        "key": "t_address",
        "label": "mapping(address => mapping(address => bool))",
        "numberOfBytes": "32",
        "value": "t_mapping(t_address,t_bool)"
      },
      "t_mapping(t_address,t_uint256)": {
        "encoding": "mapping",
        "key": "t_address",
        "label": "mapping(address => uint256)",
        "numberOfBytes": "32",
        "value": "t_uint256"
      },
      "t_mapping(t_bytes32,t_struct(RoleData)19_storage)": {
        "encoding": "mapping",
        "key": "t_bytes32",
        "label": "mapping(bytes32 => struct AccessControl.RoleData)",
        "numberOfBytes": "32",
        "value": "t_struct(RoleData)19_storage"
      },
      "t_mapping(t_uint256,t_address)": {
        "encoding": "mapping",
        "key": "t_uint256",
        "label": "mapping(uint256 => address)",
        "numberOfBytes": "32",
        "value": "t_address"
      },
      "t_string_storage": {
        "encoding": "bytes",
        "label": "string",
        "numberOfBytes": "32"
      },
      "t_struct(DeploymentConfig)4367_storage": {
        "encoding": "inplace",
        "label": "struct NFTCollection.DeploymentConfig",
        "members": [
          {
            "astId": 4352,
            "contract": "contracts/collections/NFTCollectionContract.sol:NFTCollectionContract",
            "label": "name",
            "offset": 0,
            "slot": "0",
            "type": "t_string_storage"
          },
          {
            "astId": 4354,
            "contract": "contracts/collections/NFTCollectionContract.sol:NFTCollectionContract",
            "label": "symbol",
            "offset": 0,
            "slot": "1",
            "type": "t_string_storage"
          },
          {
            "astId": 4356,
            "contract": "contracts/collections/NFTCollectionContract.sol:NFTCollectionContract",
            "label": "owner",
            "offset": 0,
            "slot": "2",
            "type": "t_address"
          },
          {
            "astId": 4358,
            "contract": "contracts/collections/NFTCollectionContract.sol:NFTCollectionContract",
            "label": "maxSupply",
            "offset": 0,
            "slot": "3",
            "type": "t_uint256"
          },
          {
            "astId": 4360,
            "contract": "contracts/collections/NFTCollectionContract.sol:NFTCollectionContract",
            "label": "reservedSupply",
            "offset": 0,
            "slot": "4",
            "type": "t_uint256"
          },
          {
            "astId": 4362,
            "contract": "contracts/collections/NFTCollectionContract.sol:NFTCollectionContract",
            "label": "mintPrice",
            "offset": 0,
            "slot": "5",
            "type": "t_uint256"
          },
          {
            "astId": 4364,
            "contract": "contracts/collections/NFTCollectionContract.sol:NFTCollectionContract",
            "label": "tokensPerMint",
            "offset": 0,
            "slot": "6",
            "type": "t_uint256"
          },
          {
            "astId": 4366,
            "contract": "contracts/collections/NFTCollectionContract.sol:NFTCollectionContract",
            "label": "treasuryAddress",
            "offset": 0,
            "slot": "7",
            "type": "t_address_payable"
          }
        ],
        "numberOfBytes": "256"
      },
      "t_struct(RoleData)19_storage": {
        "encoding": "inplace",
        "label": "struct AccessControl.RoleData",
        "members": [
          {
            "astId": 16,
            "contract": "contracts/collections/NFTCollectionContract.sol:NFTCollectionContract",
            "label": "members",
            "offset": 0,
            "slot": "0",
            "type": "t_mapping(t_address,t_bool)"
          },
          {
            "astId": 18,
            "contract": "contracts/collections/NFTCollectionContract.sol:NFTCollectionContract",
            "label": "adminRole",
            "offset": 0,
            "slot": "1",
            "type": "t_bytes32"
          }
        ],
        "numberOfBytes": "64"
      },
      "t_struct(RuntimeConfig)4384_storage": {
        "encoding": "inplace",
        "label": "struct NFTCollection.RuntimeConfig",
        "members": [
          {
            "astId": 4369,
            "contract": "contracts/collections/NFTCollectionContract.sol:NFTCollectionContract",
            "label": "baseURI",
            "offset": 0,
            "slot": "0",
            "type": "t_string_storage"
          },
          {
            "astId": 4371,
            "contract": "contracts/collections/NFTCollectionContract.sol:NFTCollectionContract",
            "label": "metadataUpdatable",
            "offset": 0,
            "slot": "1",
            "type": "t_bool"
          },
          {
            "astId": 4373,
            "contract": "contracts/collections/NFTCollectionContract.sol:NFTCollectionContract",
            "label": "publicMintStart",
            "offset": 0,
            "slot": "2",
            "type": "t_uint256"
          },
          {
            "astId": 4375,
            "contract": "contracts/collections/NFTCollectionContract.sol:NFTCollectionContract",
            "label": "presaleMintStart",
            "offset": 0,
            "slot": "3",
            "type": "t_uint256"
          },
          {
            "astId": 4377,
            "contract": "contracts/collections/NFTCollectionContract.sol:NFTCollectionContract",
            "label": "prerevealTokenURI",
            "offset": 0,
            "slot": "4",
            "type": "t_string_storage"
          },
          {
            "astId": 4379,
            "contract": "contracts/collections/NFTCollectionContract.sol:NFTCollectionContract",
            "label": "presaleMerkleRoot",
            "offset": 0,
            "slot": "5",
            "type": "t_bytes32"
          },
          {
            "astId": 4381,
            "contract": "contracts/collections/NFTCollectionContract.sol:NFTCollectionContract",
            "label": "royaltiesBps",
            "offset": 0,
            "slot": "6",
            "type": "t_uint256"
          },
          {
            "astId": 4383,
            "contract": "contracts/collections/NFTCollectionContract.sol:NFTCollectionContract",
            "label": "royaltiesAddress",
            "offset": 0,
            "slot": "7",
            "type": "t_address"
          }
        ],
        "numberOfBytes": "256"
      },
      "t_uint256": {
        "encoding": "inplace",
        "label": "uint256",
        "numberOfBytes": "32"
      }
    }
  }
}