{
  "address": "0xdB27cF5670DaC36Dd54Fba6f9D46865b6fB4027c",
  "abi": [
    {
      "inputs": [
        {
          "components": [
            {
              "internalType": "string",
              "name": "name",
              "type": "string"
            },
            {
              "internalType": "string",
              "name": "symbol",
              "type": "string"
            },
            {
              "internalType": "address",
              "name": "owner",
              "type": "address"
            },
            {
              "internalType": "uint256",
              "name": "maxSupply",
              "type": "uint256"
            },
            {
              "internalType": "uint256",
              "name": "reservedSupply",
              "type": "uint256"
            },
            {
              "internalType": "uint256",
              "name": "tokensPerMint",
              "type": "uint256"
            },
            {
              "internalType": "address payable",
              "name": "treasuryAddress",
              "type": "address"
            }
          ],
          "internalType": "struct NFTCollection.DeploymentConfig",
          "name": "deploymentConfig",
          "type": "tuple"
        },
        {
          "components": [
            {
              "internalType": "string",
              "name": "baseURI",
              "type": "string"
            },
            {
              "internalType": "bool",
              "name": "metadataUpdatable",
              "type": "bool"
            },
            {
              "internalType": "uint256",
              "name": "publicMintPrice",
              "type": "uint256"
            },
            {
              "internalType": "bool",
              "name": "publicMintPriceFrozen",
              "type": "bool"
            },
            {
              "internalType": "uint256",
              "name": "presaleMintPrice",
              "type": "uint256"
            },
            {
              "internalType": "bool",
              "name": "presaleMintPriceFrozen",
              "type": "bool"
            },
            {
              "internalType": "uint256",
              "name": "publicMintStart",
              "type": "uint256"
            },
            {
              "internalType": "uint256",
              "name": "presaleMintStart",
              "type": "uint256"
            },
            {
              "internalType": "string",
              "name": "prerevealTokenURI",
              "type": "string"
            },
            {
              "internalType": "bytes32",
              "name": "presaleMerkleRoot",
              "type": "bytes32"
            },
            {
              "internalType": "uint256",
              "name": "royaltiesBps",
              "type": "uint256"
            },
            {
              "internalType": "address",
              "name": "royaltiesAddress",
              "type": "address"
            }
          ],
          "internalType": "struct NFTCollection.RuntimeConfig",
          "name": "runtimeConfig",
          "type": "tuple"
        }
      ],
      "stateMutability": "nonpayable",
      "type": "constructor"
    },
    {
      "inputs": [],
      "name": "ApprovalCallerNotOwnerNorApproved",
      "type": "error"
    },
    {
      "inputs": [],
      "name": "ApprovalQueryForNonexistentToken",
      "type": "error"
    },
    {
      "inputs": [],
      "name": "ApprovalToCurrentOwner",
      "type": "error"
    },
    {
      "inputs": [],
      "name": "ApproveToCaller",
      "type": "error"
    },
    {
      "inputs": [],
      "name": "BalanceQueryForZeroAddress",
      "type": "error"
    },
    {
      "inputs": [],
      "name": "MintToZeroAddress",
      "type": "error"
    },
    {
      "inputs": [],
      "name": "MintZeroQuantity",
      "type": "error"
    },
    {
      "inputs": [],
      "name": "OwnerQueryForNonexistentToken",
      "type": "error"
    },
    {
      "inputs": [],
      "name": "TransferCallerNotOwnerNorApproved",
      "type": "error"
    },
    {
      "inputs": [],
      "name": "TransferFromIncorrectOwner",
      "type": "error"
    },
    {
      "inputs": [],
      "name": "TransferToNonERC721ReceiverImplementer",
      "type": "error"
    },
    {
      "inputs": [],
      "name": "TransferToZeroAddress",
      "type": "error"
    },
    {
      "anonymous": false,
      "inputs": [
        {
          "indexed": true,
          "internalType": "address",
          "name": "owner",
          "type": "address"
        },
        {
          "indexed": true,
          "internalType": "address",
          "name": "approved",
          "type": "address"
        },
        {
          "indexed": true,
          "internalType": "uint256",
          "name": "tokenId",
          "type": "uint256"
        }
      ],
      "name": "Approval",
      "type": "event"
    },
    {
      "anonymous": false,
      "inputs": [
        {
          "indexed": true,
          "internalType": "address",
          "name": "owner",
          "type": "address"
        },
        {
          "indexed": true,
          "internalType": "address",
          "name": "operator",
          "type": "address"
        },
        {
          "indexed": false,
          "internalType": "bool",
          "name": "approved",
          "type": "bool"
        }
      ],
      "name": "ApprovalForAll",
      "type": "event"
    },
    {
      "anonymous": false,
      "inputs": [
        {
          "indexed": false,
          "internalType": "uint8",
          "name": "version",
          "type": "uint8"
        }
      ],
      "name": "Initialized",
      "type": "event"
    },
    {
      "anonymous": false,
      "inputs": [
        {
          "indexed": true,
          "internalType": "address",
          "name": "previousOwner",
          "type": "address"
        },
        {
          "indexed": true,
          "internalType": "address",
          "name": "newOwner",
          "type": "address"
        }
      ],
      "name": "OwnershipTransferred",
      "type": "event"
    },
    {
      "anonymous": false,
      "inputs": [
        {
          "indexed": true,
          "internalType": "bytes32",
          "name": "role",
          "type": "bytes32"
        },
        {
          "indexed": true,
          "internalType": "bytes32",
          "name": "previousAdminRole",
          "type": "bytes32"
        },
        {
          "indexed": true,
          "internalType": "bytes32",
          "name": "newAdminRole",
          "type": "bytes32"
        }
      ],
      "name": "RoleAdminChanged",
      "type": "event"
    },
    {
      "anonymous": false,
      "inputs": [
        {
          "indexed": true,
          "internalType": "bytes32",
          "name": "role",
          "type": "bytes32"
        },
        {
          "indexed": true,
          "internalType": "address",
          "name": "account",
          "type": "address"
        },
        {
          "indexed": true,
          "internalType": "address",
          "name": "sender",
          "type": "address"
        }
      ],
      "name": "RoleGranted",
      "type": "event"
    },
    {
      "anonymous": false,
      "inputs": [
        {
          "indexed": true,
          "internalType": "bytes32",
          "name": "role",
          "type": "bytes32"
        },
        {
          "indexed": true,
          "internalType": "address",
          "name": "account",
          "type": "address"
        },
        {
          "indexed": true,
          "internalType": "address",
          "name": "sender",
          "type": "address"
        }
      ],
      "name": "RoleRevoked",
      "type": "event"
    },
    {
      "anonymous": false,
      "inputs": [
        {
          "indexed": true,
          "internalType": "address",
          "name": "from",
          "type": "address"
        },
        {
          "indexed": true,
          "internalType": "address",
          "name": "to",
          "type": "address"
        },
        {
          "indexed": true,
          "internalType": "uint256",
          "name": "tokenId",
          "type": "uint256"
        }
      ],
      "name": "Transfer",
      "type": "event"
    },
    {
      "inputs": [],
      "name": "ADMIN_ROLE",
      "outputs": [
        {
          "internalType": "bytes32",
          "name": "",
          "type": "bytes32"
        }
      ],
      "stateMutability": "view",
      "type": "function"
    },
    {
      "inputs": [],
      "name": "DEFAULT_ADMIN_ROLE",
      "outputs": [
        {
          "internalType": "bytes32",
          "name": "",
          "type": "bytes32"
        }
      ],
      "stateMutability": "view",
      "type": "function"
    },
    {
      "inputs": [],
      "name": "ROYALTIES_BASIS",
      "outputs": [
        {
          "internalType": "uint16",
          "name": "",
          "type": "uint16"
        }
      ],
      "stateMutability": "view",
      "type": "function"
    },
    {
      "inputs": [],
      "name": "VERSION",
      "outputs": [
        {
          "internalType": "uint256",
          "name": "",
          "type": "uint256"
        }
      ],
      "stateMutability": "view",
      "type": "function"
    },
    {
      "inputs": [
        {
          "internalType": "address",
          "name": "to",
          "type": "address"
        },
        {
          "internalType": "uint256",
          "name": "tokenId",
          "type": "uint256"
        }
      ],
      "name": "approve",
      "outputs": [],
      "stateMutability": "nonpayable",
      "type": "function"
    },
    {
      "inputs": [],
      "name": "availableSupply",
      "outputs": [
        {
          "internalType": "uint256",
          "name": "",
          "type": "uint256"
        }
      ],
      "stateMutability": "view",
      "type": "function"
    },
    {
      "inputs": [
        {
          "internalType": "address",
          "name": "owner",
          "type": "address"
        }
      ],
      "name": "balanceOf",
      "outputs": [
        {
          "internalType": "uint256",
          "name": "",
          "type": "uint256"
        }
      ],
      "stateMutability": "view",
      "type": "function"
    },
    {
      "inputs": [],
      "name": "baseURI",
      "outputs": [
        {
          "internalType": "string",
          "name": "",
          "type": "string"
        }
      ],
      "stateMutability": "view",
      "type": "function"
    },
    {
      "inputs": [],
      "name": "contractURI",
      "outputs": [
        {
          "internalType": "string",
          "name": "",
          "type": "string"
        }
      ],
      "stateMutability": "view",
      "type": "function"
    },
    {
      "inputs": [
        {
          "internalType": "uint256",
          "name": "tokenId",
          "type": "uint256"
        }
      ],
      "name": "getApproved",
      "outputs": [
        {
          "internalType": "address",
          "name": "",
          "type": "address"
        }
      ],
      "stateMutability": "view",
      "type": "function"
    },
    {
      "inputs": [],
      "name": "getInfo",
      "outputs": [
        {
          "components": [
            {
              "internalType": "uint256",
              "name": "version",
              "type": "uint256"
            },
            {
              "components": [
                {
                  "internalType": "string",
                  "name": "name",
                  "type": "string"
                },
                {
                  "internalType": "string",
                  "name": "symbol",
                  "type": "string"
                },
                {
                  "internalType": "address",
                  "name": "owner",
                  "type": "address"
                },
                {
                  "internalType": "uint256",
                  "name": "maxSupply",
                  "type": "uint256"
                },
                {
                  "internalType": "uint256",
                  "name": "reservedSupply",
                  "type": "uint256"
                },
                {
                  "internalType": "uint256",
                  "name": "tokensPerMint",
                  "type": "uint256"
                },
                {
                  "internalType": "address payable",
                  "name": "treasuryAddress",
                  "type": "address"
                }
              ],
              "internalType": "struct NFTCollection.DeploymentConfig",
              "name": "deploymentConfig",
              "type": "tuple"
            },
            {
              "components": [
                {
                  "internalType": "string",
                  "name": "baseURI",
                  "type": "string"
                },
                {
                  "internalType": "bool",
                  "name": "metadataUpdatable",
                  "type": "bool"
                },
                {
                  "internalType": "uint256",
                  "name": "publicMintPrice",
                  "type": "uint256"
                },
                {
                  "internalType": "bool",
                  "name": "publicMintPriceFrozen",
                  "type": "bool"
                },
                {
                  "internalType": "uint256",
                  "name": "presaleMintPrice",
                  "type": "uint256"
                },
                {
                  "internalType": "bool",
                  "name": "presaleMintPriceFrozen",
                  "type": "bool"
                },
                {
                  "internalType": "uint256",
                  "name": "publicMintStart",
                  "type": "uint256"
                },
                {
                  "internalType": "uint256",
                  "name": "presaleMintStart",
                  "type": "uint256"
                },
                {
                  "internalType": "string",
                  "name": "prerevealTokenURI",
                  "type": "string"
                },
                {
                  "internalType": "bytes32",
                  "name": "presaleMerkleRoot",
                  "type": "bytes32"
                },
                {
                  "internalType": "uint256",
                  "name": "royaltiesBps",
                  "type": "uint256"
                },
                {
                  "internalType": "address",
                  "name": "royaltiesAddress",
                  "type": "address"
                }
              ],
              "internalType": "struct NFTCollection.RuntimeConfig",
              "name": "runtimeConfig",
              "type": "tuple"
            }
          ],
          "internalType": "struct NFTCollection.ContractInfo",
          "name": "info",
          "type": "tuple"
        }
      ],
      "stateMutability": "view",
      "type": "function"
    },
    {
      "inputs": [
        {
          "internalType": "bytes32",
          "name": "role",
          "type": "bytes32"
        }
      ],
      "name": "getRoleAdmin",
      "outputs": [
        {
          "internalType": "bytes32",
          "name": "",
          "type": "bytes32"
        }
      ],
      "stateMutability": "view",
      "type": "function"
    },
    {
      "inputs": [
        {
          "internalType": "bytes32",
          "name": "role",
          "type": "bytes32"
        },
        {
          "internalType": "address",
          "name": "account",
          "type": "address"
        }
      ],
      "name": "grantRole",
      "outputs": [],
      "stateMutability": "nonpayable",
      "type": "function"
    },
    {
      "inputs": [
        {
          "internalType": "bytes32",
          "name": "role",
          "type": "bytes32"
        },
        {
          "internalType": "address",
          "name": "account",
          "type": "address"
        }
      ],
      "name": "hasRole",
      "outputs": [
        {
          "internalType": "bool",
          "name": "",
          "type": "bool"
        }
      ],
      "stateMutability": "view",
      "type": "function"
    },
    {
      "inputs": [
        {
          "components": [
            {
              "internalType": "string",
              "name": "name",
              "type": "string"
            },
            {
              "internalType": "string",
              "name": "symbol",
              "type": "string"
            },
            {
              "internalType": "address",
              "name": "owner",
              "type": "address"
            },
            {
              "internalType": "uint256",
              "name": "maxSupply",
              "type": "uint256"
            },
            {
              "internalType": "uint256",
              "name": "reservedSupply",
              "type": "uint256"
            },
            {
              "internalType": "uint256",
              "name": "tokensPerMint",
              "type": "uint256"
            },
            {
              "internalType": "address payable",
              "name": "treasuryAddress",
              "type": "address"
            }
          ],
          "internalType": "struct NFTCollection.DeploymentConfig",
          "name": "deploymentConfig",
          "type": "tuple"
        },
        {
          "components": [
            {
              "internalType": "string",
              "name": "baseURI",
              "type": "string"
            },
            {
              "internalType": "bool",
              "name": "metadataUpdatable",
              "type": "bool"
            },
            {
              "internalType": "uint256",
              "name": "publicMintPrice",
              "type": "uint256"
            },
            {
              "internalType": "bool",
              "name": "publicMintPriceFrozen",
              "type": "bool"
            },
            {
              "internalType": "uint256",
              "name": "presaleMintPrice",
              "type": "uint256"
            },
            {
              "internalType": "bool",
              "name": "presaleMintPriceFrozen",
              "type": "bool"
            },
            {
              "internalType": "uint256",
              "name": "publicMintStart",
              "type": "uint256"
            },
            {
              "internalType": "uint256",
              "name": "presaleMintStart",
              "type": "uint256"
            },
            {
              "internalType": "string",
              "name": "prerevealTokenURI",
              "type": "string"
            },
            {
              "internalType": "bytes32",
              "name": "presaleMerkleRoot",
              "type": "bytes32"
            },
            {
              "internalType": "uint256",
              "name": "royaltiesBps",
              "type": "uint256"
            },
            {
              "internalType": "address",
              "name": "royaltiesAddress",
              "type": "address"
            }
          ],
          "internalType": "struct NFTCollection.RuntimeConfig",
          "name": "runtimeConfig",
          "type": "tuple"
        }
      ],
      "name": "initialize",
      "outputs": [],
      "stateMutability": "nonpayable",
      "type": "function"
    },
    {
      "inputs": [
        {
          "internalType": "address",
          "name": "owner",
          "type": "address"
        },
        {
          "internalType": "address",
          "name": "operator",
          "type": "address"
        }
      ],
      "name": "isApprovedForAll",
      "outputs": [
        {
          "internalType": "bool",
          "name": "",
          "type": "bool"
        }
      ],
      "stateMutability": "view",
      "type": "function"
    },
    {
      "inputs": [
        {
          "internalType": "address",
          "name": "wallet",
          "type": "address"
        },
        {
          "internalType": "bytes32[]",
          "name": "proof",
          "type": "bytes32[]"
        }
      ],
      "name": "isWhitelisted",
      "outputs": [
        {
          "internalType": "bool",
          "name": "",
          "type": "bool"
        }
      ],
      "stateMutability": "view",
      "type": "function"
    },
    {
      "inputs": [],
      "name": "maxSupply",
      "outputs": [
        {
          "internalType": "uint256",
          "name": "",
          "type": "uint256"
        }
      ],
      "stateMutability": "view",
      "type": "function"
    },
    {
      "inputs": [],
      "name": "metadataUpdatable",
      "outputs": [
        {
          "internalType": "bool",
          "name": "",
          "type": "bool"
        }
      ],
      "stateMutability": "view",
      "type": "function"
    },
    {
      "inputs": [
        {
          "internalType": "uint256",
          "name": "amount",
          "type": "uint256"
        }
      ],
      "name": "mint",
      "outputs": [],
      "stateMutability": "payable",
      "type": "function"
    },
    {
      "inputs": [],
      "name": "mintingActive",
      "outputs": [
        {
          "internalType": "bool",
          "name": "",
          "type": "bool"
        }
      ],
      "stateMutability": "view",
      "type": "function"
    },
    {
      "inputs": [],
      "name": "name",
      "outputs": [
        {
          "internalType": "string",
          "name": "",
          "type": "string"
        }
      ],
      "stateMutability": "view",
      "type": "function"
    },
    {
      "inputs": [],
      "name": "owner",
      "outputs": [
        {
          "internalType": "address",
          "name": "",
          "type": "address"
        }
      ],
      "stateMutability": "view",
      "type": "function"
    },
    {
      "inputs": [
        {
          "internalType": "uint256",
          "name": "tokenId",
          "type": "uint256"
        }
      ],
      "name": "ownerOf",
      "outputs": [
        {
          "internalType": "address",
          "name": "",
          "type": "address"
        }
      ],
      "stateMutability": "view",
      "type": "function"
    },
    {
      "inputs": [],
      "name": "prerevealTokenURI",
      "outputs": [
        {
          "internalType": "string",
          "name": "",
          "type": "string"
        }
      ],
      "stateMutability": "view",
      "type": "function"
    },
    {
      "inputs": [],
      "name": "presaleActive",
      "outputs": [
        {
          "internalType": "bool",
          "name": "",
          "type": "bool"
        }
      ],
      "stateMutability": "view",
      "type": "function"
    },
    {
      "inputs": [],
      "name": "presaleMerkleRoot",
      "outputs": [
        {
          "internalType": "bytes32",
          "name": "",
          "type": "bytes32"
        }
      ],
      "stateMutability": "view",
      "type": "function"
    },
    {
      "inputs": [
        {
          "internalType": "uint256",
          "name": "amount",
          "type": "uint256"
        },
        {
          "internalType": "bytes32[]",
          "name": "proof",
          "type": "bytes32[]"
        }
      ],
      "name": "presaleMint",
      "outputs": [],
      "stateMutability": "payable",
      "type": "function"
    },
    {
      "inputs": [],
      "name": "presaleMintPrice",
      "outputs": [
        {
          "internalType": "uint256",
          "name": "",
          "type": "uint256"
        }
      ],
      "stateMutability": "view",
      "type": "function"
    },
    {
      "inputs": [],
      "name": "presaleMintStart",
      "outputs": [
        {
          "internalType": "uint256",
          "name": "",
          "type": "uint256"
        }
      ],
      "stateMutability": "view",
      "type": "function"
    },
    {
      "inputs": [],
      "name": "publicMintPrice",
      "outputs": [
        {
          "internalType": "uint256",
          "name": "",
          "type": "uint256"
        }
      ],
      "stateMutability": "view",
      "type": "function"
    },
    {
      "inputs": [],
      "name": "publicMintStart",
      "outputs": [
        {
          "internalType": "uint256",
          "name": "",
          "type": "uint256"
        }
      ],
      "stateMutability": "view",
      "type": "function"
    },
    {
      "inputs": [
        {
          "internalType": "bytes32",
          "name": "role",
          "type": "bytes32"
        },
        {
          "internalType": "address",
          "name": "account",
          "type": "address"
        }
      ],
      "name": "renounceRole",
      "outputs": [],
      "stateMutability": "nonpayable",
      "type": "function"
    },
    {
      "inputs": [
        {
          "internalType": "address",
          "name": "to",
          "type": "address"
        },
        {
          "internalType": "uint256",
          "name": "amount",
          "type": "uint256"
        }
      ],
      "name": "reserveMint",
      "outputs": [],
      "stateMutability": "nonpayable",
      "type": "function"
    },
    {
      "inputs": [],
      "name": "reserveRemaining",
      "outputs": [
        {
          "internalType": "uint256",
          "name": "",
          "type": "uint256"
        }
      ],
      "stateMutability": "view",
      "type": "function"
    },
    {
      "inputs": [],
      "name": "reservedSupply",
      "outputs": [
        {
          "internalType": "uint256",
          "name": "",
          "type": "uint256"
        }
      ],
      "stateMutability": "view",
      "type": "function"
    },
    {
      "inputs": [
        {
          "internalType": "bytes32",
          "name": "role",
          "type": "bytes32"
        },
        {
          "internalType": "address",
          "name": "account",
          "type": "address"
        }
      ],
      "name": "revokeRole",
      "outputs": [],
      "stateMutability": "nonpayable",
      "type": "function"
    },
    {
      "inputs": [
        {
          "internalType": "uint256",
          "name": "",
          "type": "uint256"
        },
        {
          "internalType": "uint256",
          "name": "salePrice",
          "type": "uint256"
        }
      ],
      "name": "royaltyInfo",
      "outputs": [
        {
          "internalType": "address",
          "name": "receiver",
          "type": "address"
        },
        {
          "internalType": "uint256",
          "name": "royaltyAmount",
          "type": "uint256"
        }
      ],
      "stateMutability": "view",
      "type": "function"
    },
    {
      "inputs": [
        {
          "internalType": "address",
          "name": "from",
          "type": "address"
        },
        {
          "internalType": "address",
          "name": "to",
          "type": "address"
        },
        {
          "internalType": "uint256",
          "name": "tokenId",
          "type": "uint256"
        }
      ],
      "name": "safeTransferFrom",
      "outputs": [],
      "stateMutability": "nonpayable",
      "type": "function"
    },
    {
      "inputs": [
        {
          "internalType": "address",
          "name": "from",
          "type": "address"
        },
        {
          "internalType": "address",
          "name": "to",
          "type": "address"
        },
        {
          "internalType": "uint256",
          "name": "tokenId",
          "type": "uint256"
        },
        {
          "internalType": "bytes",
          "name": "_data",
          "type": "bytes"
        }
      ],
      "name": "safeTransferFrom",
      "outputs": [],
      "stateMutability": "nonpayable",
      "type": "function"
    },
    {
      "inputs": [
        {
          "internalType": "address",
          "name": "operator",
          "type": "address"
        },
        {
          "internalType": "bool",
          "name": "approved",
          "type": "bool"
        }
      ],
      "name": "setApprovalForAll",
      "outputs": [],
      "stateMutability": "nonpayable",
      "type": "function"
    },
    {
      "inputs": [
        {
          "internalType": "bytes4",
          "name": "interfaceId",
          "type": "bytes4"
        }
      ],
      "name": "supportsInterface",
      "outputs": [
        {
          "internalType": "bool",
          "name": "",
          "type": "bool"
        }
      ],
      "stateMutability": "view",
      "type": "function"
    },
    {
      "inputs": [],
      "name": "symbol",
      "outputs": [
        {
          "internalType": "string",
          "name": "",
          "type": "string"
        }
      ],
      "stateMutability": "view",
      "type": "function"
    },
    {
      "inputs": [
        {
          "internalType": "uint256",
          "name": "tokenId",
          "type": "uint256"
        }
      ],
      "name": "tokenURI",
      "outputs": [
        {
          "internalType": "string",
          "name": "",
          "type": "string"
        }
      ],
      "stateMutability": "view",
      "type": "function"
    },
    {
      "inputs": [],
      "name": "tokensPerMint",
      "outputs": [
        {
          "internalType": "uint256",
          "name": "",
          "type": "uint256"
        }
      ],
      "stateMutability": "view",
      "type": "function"
    },
    {
      "inputs": [],
      "name": "totalSupply",
      "outputs": [
        {
          "internalType": "uint256",
          "name": "",
          "type": "uint256"
        }
      ],
      "stateMutability": "view",
      "type": "function"
    },
    {
      "inputs": [
        {
          "internalType": "address",
          "name": "to",
          "type": "address"
        }
      ],
      "name": "transferAdminRights",
      "outputs": [],
      "stateMutability": "nonpayable",
      "type": "function"
    },
    {
      "inputs": [
        {
          "internalType": "address",
          "name": "from",
          "type": "address"
        },
        {
          "internalType": "address",
          "name": "to",
          "type": "address"
        },
        {
          "internalType": "uint256",
          "name": "tokenId",
          "type": "uint256"
        }
      ],
      "name": "transferFrom",
      "outputs": [],
      "stateMutability": "nonpayable",
      "type": "function"
    },
    {
      "inputs": [
        {
          "internalType": "address",
          "name": "newOwner",
          "type": "address"
        }
      ],
      "name": "transferOwnership",
      "outputs": [],
      "stateMutability": "nonpayable",
      "type": "function"
    },
    {
      "inputs": [],
      "name": "treasuryAddress",
      "outputs": [
        {
          "internalType": "address",
          "name": "",
          "type": "address"
        }
      ],
      "stateMutability": "view",
      "type": "function"
    },
    {
      "inputs": [
        {
          "components": [
            {
              "internalType": "string",
              "name": "baseURI",
              "type": "string"
            },
            {
              "internalType": "bool",
              "name": "metadataUpdatable",
              "type": "bool"
            },
            {
              "internalType": "uint256",
              "name": "publicMintPrice",
              "type": "uint256"
            },
            {
              "internalType": "bool",
              "name": "publicMintPriceFrozen",
              "type": "bool"
            },
            {
              "internalType": "uint256",
              "name": "presaleMintPrice",
              "type": "uint256"
            },
            {
              "internalType": "bool",
              "name": "presaleMintPriceFrozen",
              "type": "bool"
            },
            {
              "internalType": "uint256",
              "name": "publicMintStart",
              "type": "uint256"
            },
            {
              "internalType": "uint256",
              "name": "presaleMintStart",
              "type": "uint256"
            },
            {
              "internalType": "string",
              "name": "prerevealTokenURI",
              "type": "string"
            },
            {
              "internalType": "bytes32",
              "name": "presaleMerkleRoot",
              "type": "bytes32"
            },
            {
              "internalType": "uint256",
              "name": "royaltiesBps",
              "type": "uint256"
            },
            {
              "internalType": "address",
              "name": "royaltiesAddress",
              "type": "address"
            }
          ],
          "internalType": "struct NFTCollection.RuntimeConfig",
          "name": "newConfig",
          "type": "tuple"
        }
      ],
      "name": "updateConfig",
      "outputs": [],
      "stateMutability": "nonpayable",
      "type": "function"
    },
    {
      "inputs": [],
      "name": "withdrawFees",
      "outputs": [],
      "stateMutability": "nonpayable",
      "type": "function"
    }
  ],
  "transactionHash": "0x1fd1bd9323fb638a4d991a1bb90f64ded6eefa51209df674eb079b8f6d8c6019",
  "args": [
    {
      "owner": "0xE7D7696C8f11278124f39fB7cDd39fD9442D5026",
      "name": "NFTCollection",
      "symbol": "NFT",
      "maxSupply": 1000,
      "reservedSupply": 0,
      "tokensPerMint": 10,
      "treasuryAddress": "0xE7D7696C8f11278124f39fB7cDd39fD9442D5026"
    },
    {
      "baseURI": "",
      "prerevealTokenURI": "",
      "publicMintStart": 0,
      "publicMintPrice": "10000000000000000",
      "presaleMintStart": 0,
      "presaleMintPrice": "10000000000000000",
      "presaleMerkleRoot": "0x0000000000000000000000000000000000000000000000000000000000000000",
      "metadataUpdatable": true,
      "royaltiesBps": 250,
      "royaltiesAddress": "0xE7D7696C8f11278124f39fB7cDd39fD9442D5026"
    }
  ],
  "numDeployments": 4,
  "solcInputHash": "60324437f5b540db1964dba41a5d858e",
  "bytecode": "0x60806040523480156200001157600080fd5b5060405162004b9e38038062004b9e833981016040819052620000349162000aef565b604080516020808201808452600080845284519283019094529281528151919290916200006491600291620007e9565b5080516200007a906003906020840190620007e9565b50600080555050601e805460ff191690556200009782826200009f565b505062000c34565b6000620000ad600162000320565b90508015620000c6576009805461ff0019166101001790555b601e5460ff16156200011f5760405162461bcd60e51b815260206004820152601560248201527f43616e6e6f7420626520696e697469616c697a6564000000000000000000000060448201526064015b60405180910390fd5b6200012a8362000435565b6200014560008051602062004b7e83398151915233620005f6565b604083015162000155906200069b565b82518051849160179162000171918391602090910190620007e9565b5060208281015180516200018c9260018501920190620007e9565b5060408201516002820180546001600160a01b03199081166001600160a01b0393841617909155606084015160038401556080840151600484015560a0840151600584015560c090930151600690920180549093169116179055815180518391600b9162000202918391602090910190620007e9565b5060208281015160018301805491151560ff199283161790556040840151600284015560608401516003840180549115159183169190911790556080840151600484015560a08401516005840180549115159190921617905560c0830151600683015560e083015160078301556101008301518051620002899260088501920190620007e9565b506101208201516009820155610140820151600a8083019190915561016090920151600b90910180546001600160a01b0319166001600160a01b039092169190911790556080840151905580156200031b576009805461ff0019169055604051600181527f7f26b83ff96e1f2b6a682f133852f6798a09c465da95921460cefb38474024989060200160405180910390a15b505050565b600954600090610100900460ff1615620003b7578160ff1660011480156200035b575062000359306200075660201b620019fb1760201c565b155b620003af5760405162461bcd60e51b815260206004820152602e602482015260008051602062004b5e83398151915260448201526d191e481a5b9a5d1a585b1a5e995960921b606482015260840162000116565b506000919050565b60095460ff808416911610620004165760405162461bcd60e51b815260206004820152602e602482015260008051602062004b5e83398151915260448201526d191e481a5b9a5d1a585b1a5e995960921b606482015260840162000116565b506009805460ff191660ff92909216919091179055600190565b919050565b60008160600151116200048b5760405162461bcd60e51b815260206004820152601f60248201527f4d6178696d756d20737570706c79206d757374206265206e6f6e2d7a65726f00604482015260640162000116565b60008160a0015111620004e15760405162461bcd60e51b815260206004820181905260248201527f546f6b656e7320706572206d696e74206d757374206265206e6f6e2d7a65726f604482015260640162000116565b60c08101516001600160a01b03166200053d5760405162461bcd60e51b815260206004820152601f60248201527f547265617375727920616464726573732063616e6e6f74206265206e756c6c00604482015260640162000116565b60408101516001600160a01b0316620005995760405162461bcd60e51b815260206004820152601b60248201527f436f6e7472616374206d757374206861766520616e206f776e65720000000000604482015260640162000116565b806060015181608001511115620005f35760405162461bcd60e51b815260206004820152601b60248201527f526573657276652067726561746572207468616e20737570706c790000000000604482015260640162000116565b50565b60008281526008602090815260408083206001600160a01b038516845290915290205460ff16620006975760008281526008602090815260408083206001600160a01b03851684529091529020805460ff19166001179055620006563390565b6001600160a01b0316816001600160a01b0316837f2f8788117e7eff1d82e926ec794901d17c78024a50270940304540a733656f0d60405160405180910390a45b5050565b6019546001600160a01b0316620006c260008051602062004b7e8339815191528262000765565b620006cf60008262000765565b601980546001600160a01b0319166001600160a01b0384161790556200070560008051602062004b7e83398151915283620005f6565b62000712600083620005f6565b816001600160a01b0316816001600160a01b03167f8be0079c531659141344cd1fd0a4f28419497f9722a3daafe3b4186f6b6457e060405160405180910390a35050565b6001600160a01b03163b151590565b60008281526008602090815260408083206001600160a01b038516845290915290205460ff1615620006975760008281526008602090815260408083206001600160a01b0385168085529252808320805460ff1916905551339285917ff6391f5c32d9c69d2a47ea670b442974b53935d1edc7fd64eb21e047a839171b9190a45050565b828054620007f79062000bf7565b90600052602060002090601f0160209004810192826200081b576000855562000866565b82601f106200083657805160ff191683800117855562000866565b8280016001018555821562000866579182015b828111156200086657825182559160200191906001019062000849565b506200087492915062000878565b5090565b5b8082111562000874576000815560010162000879565b634e487b7160e01b600052604160045260246000fd5b60405161018081016001600160401b0381118282101715620008cb57620008cb6200088f565b60405290565b60405160e081016001600160401b0381118282101715620008cb57620008cb6200088f565b604051601f8201601f191681016001600160401b03811182821017156200092157620009216200088f565b604052919050565b600082601f8301126200093b57600080fd5b81516001600160401b038111156200095757620009576200088f565b60206200096d601f8301601f19168201620008f6565b82815285828487010111156200098257600080fd5b60005b83811015620009a257858101830151828201840152820162000985565b83811115620009b45760008385840101525b5095945050505050565b80516001600160a01b03811681146200043057600080fd5b805180151581146200043057600080fd5b60006101808284031215620009fb57600080fd5b62000a05620008a5565b82519091506001600160401b038082111562000a2057600080fd5b62000a2e8583860162000929565b835262000a3e60208501620009d6565b60208401526040840151604084015262000a5b60608501620009d6565b60608401526080840151608084015262000a7860a08501620009d6565b60a084015260c084015160c084015260e084015160e08401526101009150818401518181111562000aa857600080fd5b62000ab68682870162000929565b8385015250505061012080830151818301525061014080830151818301525061016062000ae5818401620009be565b9082015292915050565b6000806040838503121562000b0357600080fd5b82516001600160401b038082111562000b1b57600080fd5b9084019060e0828703121562000b3057600080fd5b62000b3a620008d1565b82518281111562000b4a57600080fd5b62000b588882860162000929565b82525060208301518281111562000b6e57600080fd5b62000b7c8882860162000929565b60208301525062000b9060408401620009be565b6040820152606083015160608201526080830151608082015260a083015160a082015262000bc160c08401620009be565b60c0820152602086015190945091508082111562000bde57600080fd5b5062000bed85828601620009e7565b9150509250929050565b600181811c9082168062000c0c57607f821691505b6020821081141562000c2e57634e487b7160e01b600052602260045260246000fd5b50919050565b613f1a8062000c446000396000f3fe6080604052600436106102ff5760003560e01c806375b238fc11610190578063c5f956af116100dc578063dc53fd9211610095578063e985e9c51161006f578063e985e9c514610898578063f2fde38b146108e1578063f4ad0f9714610901578063ffa1ad741461091657600080fd5b8063dc53fd921461085b578063e3e1e8ef14610870578063e8a3d4851461088357600080fd5b8063c5f956af146107a8578063c87b56dd146107c6578063d1bff694146107e6578063d547741f14610806578063d5abeb0114610826578063d761aa481461083b57600080fd5b80639da5b0a511610149578063a22cb46511610123578063a22cb46514610728578063b0ea180214610748578063b5106add14610768578063b88d4fde1461078857600080fd5b80639da5b0a5146106d7578063a0712d6814610700578063a217fddf1461071357600080fd5b806375b238fc146106385780637ecc2b561461065a5780638cfec4c01461066f5780638da5cb5b1461068457806391d14854146106a257806395d89b41146106c257600080fd5b806342842e0e1161024f5780635a23dd99116102085780635c629f4c116101e25780635c629f4c146105cd5780636352211e146105e35780636c0360eb1461060357806370a082311461061857600080fd5b80635a23dd99146105765780635a9b0b89146105965780635be50521146105b857600080fd5b806342842e0e146104e857806344d19d2b146105085780634653124b1461051d578063476343ee146105325780634e6f9dd61461054757806353135ca01461055f57600080fd5b806322212e2b116102bc5780632a55205a116102965780632a55205a146104525780632f2ff15d1461049157806331f9c919146104b157806336568abe146104c857600080fd5b806322212e2b146103ed57806323b872dd14610402578063248a9ca31461042257600080fd5b806301ffc9a71461030457806306fdde03146103395780630807b9e21461035b578063081812fc1461037a578063095ea7b3146103b257806318160ddd146103d4575b600080fd5b34801561031057600080fd5b5061032461031f366004613018565b61092c565b60405190151581526020015b60405180910390f35b34801561034557600080fd5b5061034e610967565b604051610330919061308d565b34801561036757600080fd5b50601c545b604051908152602001610330565b34801561038657600080fd5b5061039a6103953660046130a0565b6109fc565b6040516001600160a01b039091168152602001610330565b3480156103be57600080fd5b506103d26103cd3660046130d9565b610a40565b005b3480156103e057600080fd5b506001546000540361036c565b3480156103f957600080fd5b5060145461036c565b34801561040e57600080fd5b506103d261041d366004613105565b610ace565b34801561042e57600080fd5b5061036c61043d3660046130a0565b60009081526008602052604090206001015490565b34801561045e57600080fd5b5061047261046d366004613146565b610ad9565b604080516001600160a01b039093168352602083019190915201610330565b34801561049d57600080fd5b506103d26104ac366004613168565b610b10565b3480156104bd57600080fd5b506011544211610324565b3480156104d457600080fd5b506103d26104e3366004613168565b610b35565b3480156104f457600080fd5b506103d2610503366004613105565b610bb8565b34801561051457600080fd5b50601b5461036c565b34801561052957600080fd5b5060125461036c565b34801561053e57600080fd5b506103d2610bd3565b34801561055357600080fd5b50600c5460ff16610324565b34801561056b57600080fd5b506012544211610324565b34801561058257600080fd5b506103246105913660046131e3565b610c04565b3480156105a257600080fd5b506105ab610ce2565b604051610330919061330d565b3480156105c457600080fd5b50600f5461036c565b3480156105d957600080fd5b5061036c600a5481565b3480156105ef57600080fd5b5061039a6105fe3660046130a0565b61102b565b34801561060f57600080fd5b5061034e61103d565b34801561062457600080fd5b5061036c6106333660046133be565b61104f565b34801561064457600080fd5b5061036c600080516020613ec583398151915281565b34801561066657600080fd5b5061036c61109d565b34801561067b57600080fd5b5060115461036c565b34801561069057600080fd5b506019546001600160a01b031661039a565b3480156106ae57600080fd5b506103246106bd366004613168565b6110cb565b3480156106ce57600080fd5b5061034e6110f6565b3480156106e357600080fd5b506106ed61271081565b60405161ffff9091168152602001610330565b6103d261070e3660046130a0565b611108565b34801561071f57600080fd5b5061036c600081565b34801561073457600080fd5b506103d26107433660046133f4565b6111b4565b34801561075457600080fd5b506103d26107633660046130d9565b61124a565b34801561077457600080fd5b506103d26107833660046133be565b6112cc565b34801561079457600080fd5b506103d26107a33660046134f8565b6113bf565b3480156107b457600080fd5b50601d546001600160a01b031661039a565b3480156107d257600080fd5b5061034e6107e13660046130a0565b611410565b3480156107f257600080fd5b506103d261080136600461368d565b611538565b34801561081257600080fd5b506103d2610821366004613168565b611796565b34801561083257600080fd5b50601a5461036c565b34801561084757600080fd5b506103d2610856366004613782565b6117bb565b34801561086757600080fd5b50600d5461036c565b6103d261087e3660046137bd565b6117e9565b34801561088f57600080fd5b5061034e611906565b3480156108a457600080fd5b506103246108b33660046137ef565b6001600160a01b03918216600090815260076020908152604080832093909416825291909152205460ff1690565b3480156108ed57600080fd5b506103d26108fc3660046133be565b611983565b34801561090d57600080fd5b5061034e6119e9565b34801561092257600080fd5b5061036c61283c81565b600061093782611a0a565b80610946575061094682611a5a565b80610961575063152a902d60e11b6001600160e01b03198316145b92915050565b6060601760000180546109799061381d565b80601f01602080910402602001604051908101604052809291908181526020018280546109a59061381d565b80156109f25780601f106109c7576101008083540402835291602001916109f2565b820191906000526020600020905b8154815290600101906020018083116109d557829003601f168201915b5050505050905090565b6000610a0782611a8f565b610a24576040516333d1c03960e21b815260040160405180910390fd5b506000908152600660205260409020546001600160a01b031690565b6000610a4b8261102b565b9050806001600160a01b0316836001600160a01b03161415610a805760405163250fdee360e21b815260040160405180910390fd5b336001600160a01b03821614801590610aa05750610a9e81336108b3565b155b15610abe576040516367d9dca160e11b815260040160405180910390fd5b610ac9838383611aba565b505050565b610ac9838383611b16565b6016546015546001600160a01b039091169060009061271090610afd90859061386e565b610b0791906138a3565b90509250929050565b600082815260086020526040902060010154610b2b81611d04565b610ac98383611d0e565b6001600160a01b0381163314610baa5760405162461bcd60e51b815260206004820152602f60248201527f416363657373436f6e74726f6c3a2063616e206f6e6c792072656e6f756e636560448201526e103937b632b9903337b91039b2b63360891b60648201526084015b60405180910390fd5b610bb48282611d94565b5050565b610ac9838383604051806020016040528060008152506113bf565b600080516020613ec5833981519152610beb81611d04565b601d54610c01906001600160a01b031647611dfb565b50565b6001600160a01b0383166000908152601f602052604081205460ff1615610c5e5760405162461bcd60e51b815260206004820152600e60248201526d105b1c9958591e481b5a5b9d195960921b6044820152606401610ba1565b6040516bffffffffffffffffffffffff19606086901b166020820152600090603401604051602081830303815290604052805190602001209050610cd9848480806020026020016040519081016040528093929190818152602001838360200280828437600092019190915250506014549150849050611f14565b95945050505050565b610cea612e85565b61283c81526040805160e081019091526017805482908290610d0b9061381d565b80601f0160208091040260200160405190810160405280929190818152602001828054610d379061381d565b8015610d845780601f10610d5957610100808354040283529160200191610d84565b820191906000526020600020905b815481529060010190602001808311610d6757829003601f168201915b50505050508152602001600182018054610d9d9061381d565b80601f0160208091040260200160405190810160405280929190818152602001828054610dc99061381d565b8015610e165780601f10610deb57610100808354040283529160200191610e16565b820191906000526020600020905b815481529060010190602001808311610df957829003601f168201915b505050918352505060028201546001600160a01b039081166020808401919091526003840154604080850191909152600485015460608501526005850154608085015260069094015490911660a09092019190915283019190915280516101808101909152600b805482908290610e8c9061381d565b80601f0160208091040260200160405190810160405280929190818152602001828054610eb89061381d565b8015610f055780601f10610eda57610100808354040283529160200191610f05565b820191906000526020600020905b815481529060010190602001808311610ee857829003601f168201915b5050509183525050600182015460ff9081161515602083015260028301546040830152600383015481161515606083015260048301546080830152600583015416151560a0820152600682015460c0820152600782015460e082015260088201805461010090920191610f779061381d565b80601f0160208091040260200160405190810160405280929190818152602001828054610fa39061381d565b8015610ff05780601f10610fc557610100808354040283529160200191610ff0565b820191906000526020600020905b815481529060010190602001808311610fd357829003601f168201915b505050918352505060098201546020820152600a820154604080830191909152600b909201546001600160a01b031660609091015282015290565b600061103682611f2a565b5192915050565b6060600b60000180546109799061381d565b60006001600160a01b038216611078576040516323d3ad8160e21b815260040160405180910390fd5b506001600160a01b03166000908152600560205260409020546001600160401b031690565b6000600a546110af6001546000540390565b601a546110bc91906138b7565b6110c691906138b7565b905090565b60009182526008602090815260408084206001600160a01b0393909316845291905290205460ff1690565b6060601760010180546109799061381d565b600d54611115908261386e565b803410156111595760405162461bcd60e51b815260206004820152601160248201527014185e5b595b9d081d1bdbc81cdb585b1b607a1b6044820152606401610ba1565b60115442116111aa5760405162461bcd60e51b815260206004820152601b60248201527f4d696e74696e6720686173206e6f7420737461727465642079657400000000006044820152606401610ba1565b610bb43383612044565b6001600160a01b0382163314156111de5760405163b06307db60e01b815260040160405180910390fd5b3360008181526007602090815260408083206001600160a01b03871680855290835292819020805460ff191686151590811790915590519081529192917f17307eab39ab6107e8899845ad3d59bd9653f200f220920489ca2b5937696c31910160405180910390a35050565b600080516020613ec583398151915261126281611d04565b600a548211156112aa5760405162461bcd60e51b8152602060048201526013602482015272139bdd08195b9bdd59da081c995cd95c9d9959606a1b6044820152606401610ba1565b81600a60008282546112bc91906138b7565b90915550610ac990508383612044565b600080516020613ec58339815191526112e481611d04565b6112fc600080516020613ec5833981519152836110cb565b1561133c5760405162461bcd60e51b815260206004820152601060248201526f20b63932b0b23c9030b71030b236b4b760811b6044820152606401610ba1565b6019546001600160a01b031633141561138f5760405162461bcd60e51b81526020600482015260156024820152740557365207472616e736665724f776e65727368697605c1b6044820152606401610ba1565b6113a7600080516020613ec583398151915233611d94565b610bb4600080516020613ec583398151915283611d0e565b6113ca848484611b16565b6001600160a01b0383163b151580156113ec57506113ea848484846120e3565b155b1561140a576040516368d2bf6b60e11b815260040160405180910390fd5b50505050565b606061141b82611a8f565b61145e5760405162461bcd60e51b8152602060048201526014602482015273151bdad95b88191bd95cc81b9bdd08195e1a5cdd60621b6044820152606401610ba1565b6000600b60000180546114709061381d565b90501161150757601380546114849061381d565b80601f01602080910402602001604051908101604052809291908181526020018280546114b09061381d565b80156114fd5780601f106114d2576101008083540402835291602001916114fd565b820191906000526020600020905b8154815290600101906020018083116114e057829003601f168201915b5050505050610961565b600b611512836121db565b60405160200161152392919061393d565b60405160208183030381529060405292915050565b600061154460016122d8565b9050801561155c576009805461ff0019166101001790555b601e5460ff16156115a75760405162461bcd60e51b815260206004820152601560248201527410d85b9b9bdd081899481a5b9a5d1a585b1a5e9959605a1b6044820152606401610ba1565b6115b083612367565b6115c8600080516020613ec583398151915233611d0e565b6115d5836040015161251b565b8251805184916017916115ef918391602090910190612f69565b5060208281015180516116089260018501920190612f69565b5060408201516002820180546001600160a01b03199081166001600160a01b0393841617909155606084015160038401556080840151600484015560a0840151600584015560c090930151600690920180549093169116179055815180518391600b9161167c918391602090910190612f69565b5060208281015160018301805491151560ff199283161790556040840151600284015560608401516003840180549115159183169190911790556080840151600484015560a08401516005840180549115159190921617905560c0830151600683015560e0830151600783015561010083015180516117019260088501920190612f69565b506101208201516009820155610140820151600a8083019190915561016090920151600b90910180546001600160a01b0319166001600160a01b03909216919091179055608084015190558015610ac9576009805461ff0019169055604051600181527f7f26b83ff96e1f2b6a682f133852f6798a09c465da95921460cefb38474024989060200160405180910390a1505050565b6000828152600860205260409020600101546117b181611d04565b610ac98383611d94565b600080516020613ec58339815191526117d381611d04565b6117dc826125cc565b81600b61140a8282613acf565b600f546117f6908461386e565b8034101561183a5760405162461bcd60e51b815260206004820152601160248201527014185e5b595b9d081d1bdbc81cdb585b1b607a1b6044820152606401610ba1565b601254421161188b5760405162461bcd60e51b815260206004820152601b60248201527f50726573616c6520686173206e6f7420737461727465642079657400000000006044820152606401610ba1565b611896338484610c04565b6118e25760405162461bcd60e51b815260206004820152601b60248201527f4e6f742077686974656c697374656420666f722070726573616c6500000000006044820152606401610ba1565b336000818152601f60205260409020805460ff1916600117905561140a9085612044565b6060600061195761191b600b600a01546121db565b601654611932906001600160a01b03166014612633565b604051602001611943929190613bee565b6040516020818303038152906040526127d5565b905060008160405160200161196c9190613c75565b60408051601f198184030181529190529392505050565b600061198e81611d04565b6019546001600160a01b03838116911614156119e05760405162461bcd60e51b815260206004820152601160248201527020b63932b0b23c903a34329037bbb732b960791b6044820152606401610ba1565b610bb48261251b565b6060600b60080180546109799061381d565b6001600160a01b03163b151590565b60006001600160e01b031982166380ac58cd60e01b1480611a3b57506001600160e01b03198216635b5e139f60e01b145b8061096157506301ffc9a760e01b6001600160e01b0319831614610961565b60006001600160e01b03198216637965db0b60e01b1480610961575063152a902d60e11b6001600160e01b0319831614610961565b6000805482108015610961575050600090815260046020526040902054600160e01b900460ff161590565b60008281526006602052604080822080546001600160a01b0319166001600160a01b0387811691821790925591518593918516917f8c5be1e5ebec7d5bd14f71427d1e84f3dd0314c0f7b2291e5b200ac8c7c3b92591a4505050565b6000611b2182611f2a565b9050836001600160a01b031681600001516001600160a01b031614611b585760405162a1148160e81b815260040160405180910390fd5b6000336001600160a01b0386161480611b765750611b7685336108b3565b80611b91575033611b86846109fc565b6001600160a01b0316145b905080611bb157604051632ce44b5f60e11b815260040160405180910390fd5b6001600160a01b038416611bd857604051633a954ecd60e21b815260040160405180910390fd5b611be460008487611aba565b6001600160a01b038581166000908152600560209081526040808320805467ffffffffffffffff198082166001600160401b0392831660001901831617909255898616808652838620805493841693831660019081018416949094179055898652600490945282852080546001600160e01b031916909417600160a01b42909216919091021783558701808452922080549193909116611cb8576000548214611cb857805460208601516001600160401b0316600160a01b026001600160e01b03199091166001600160a01b038a16171781555b50505082846001600160a01b0316866001600160a01b03167fddf252ad1be2c89b69c2b068fc378daa952ba7f163c4a11628f55a4df523b3ef60405160405180910390a45b5050505050565b610c01813361293a565b611d1882826110cb565b610bb45760008281526008602090815260408083206001600160a01b03851684529091529020805460ff19166001179055611d503390565b6001600160a01b0316816001600160a01b0316837f2f8788117e7eff1d82e926ec794901d17c78024a50270940304540a733656f0d60405160405180910390a45050565b611d9e82826110cb565b15610bb45760008281526008602090815260408083206001600160a01b0385168085529252808320805460ff1916905551339285917ff6391f5c32d9c69d2a47ea670b442974b53935d1edc7fd64eb21e047a839171b9190a45050565b80471015611e4b5760405162461bcd60e51b815260206004820152601d60248201527f416464726573733a20696e73756666696369656e742062616c616e63650000006044820152606401610ba1565b6000826001600160a01b03168260405160006040518083038185875af1925050503d8060008114611e98576040519150601f19603f3d011682016040523d82523d6000602084013e611e9d565b606091505b5050905080610ac95760405162461bcd60e51b815260206004820152603a60248201527f416464726573733a20756e61626c6520746f2073656e642076616c75652c207260448201527f6563697069656e74206d617920686176652072657665727465640000000000006064820152608401610ba1565b600082611f21858461299e565b14949350505050565b60408051606081018252600080825260208201819052918101919091528160005481101561202b57600081815260046020908152604091829020825160608101845290546001600160a01b0381168252600160a01b81046001600160401b031692820192909252600160e01b90910460ff161515918101829052906120295780516001600160a01b031615611fc0579392505050565b5060001901600081815260046020908152604091829020825160608101845290546001600160a01b038116808352600160a01b82046001600160401b031693830193909352600160e01b900460ff1615159281019290925215612024579392505050565b611fc0565b505b604051636f96cda160e11b815260040160405180910390fd5b601c548111156120895760405162461bcd60e51b815260206004820152601060248201526f416d6f756e7420746f6f206c6172676560801b6044820152606401610ba1565b61209161109d565b8111156120d95760405162461bcd60e51b8152602060048201526016602482015275139bdd08195b9bdd59da081d1bdad95b9cc81b19599d60521b6044820152606401610ba1565b610bb48282612a12565b604051630a85bd0160e11b81526000906001600160a01b0385169063150b7a0290612118903390899088908890600401613cba565b602060405180830381600087803b15801561213257600080fd5b505af1925050508015612162575060408051601f3d908101601f1916820190925261215f91810190613cf7565b60015b6121bd573d808015612190576040519150601f19603f3d011682016040523d82523d6000602084013e612195565b606091505b5080516121b5576040516368d2bf6b60e11b815260040160405180910390fd5b805181602001fd5b6001600160e01b031916630a85bd0160e11b1490505b949350505050565b6060816121ff5750506040805180820190915260018152600360fc1b602082015290565b8160005b8115612229578061221381613d14565b91506122229050600a836138a3565b9150612203565b6000816001600160401b0381111561224357612243613422565b6040519080825280601f01601f19166020018201604052801561226d576020820181803683370190505b5090505b84156121d3576122826001836138b7565b915061228f600a86613d2f565b61229a906030613d43565b60f81b8183815181106122af576122af613d5b565b60200101906001600160f81b031916908160001a9053506122d1600a866138a3565b9450612271565b600954600090610100900460ff1615612321578160ff1660011480156122fd5750303b155b6123195760405162461bcd60e51b8152600401610ba190613d71565b506000919050565b60095460ff8084169116106123485760405162461bcd60e51b8152600401610ba190613d71565b506009805460ff191660ff92909216919091179055600190565b919050565b60008160600151116123bb5760405162461bcd60e51b815260206004820152601f60248201527f4d6178696d756d20737570706c79206d757374206265206e6f6e2d7a65726f006044820152606401610ba1565b60008160a001511161240f5760405162461bcd60e51b815260206004820181905260248201527f546f6b656e7320706572206d696e74206d757374206265206e6f6e2d7a65726f6044820152606401610ba1565b60c08101516001600160a01b03166124695760405162461bcd60e51b815260206004820152601f60248201527f547265617375727920616464726573732063616e6e6f74206265206e756c6c006044820152606401610ba1565b60408101516001600160a01b03166124c35760405162461bcd60e51b815260206004820152601b60248201527f436f6e7472616374206d757374206861766520616e206f776e657200000000006044820152606401610ba1565b806060015181608001511115610c015760405162461bcd60e51b815260206004820152601b60248201527f526573657276652067726561746572207468616e20737570706c7900000000006044820152606401610ba1565b6019546001600160a01b031661253f600080516020613ec583398151915282611d94565b61254a600082611d94565b601980546001600160a01b0319166001600160a01b03841617905561257d600080516020613ec583398151915283611d0e565b612588600083611d0e565b816001600160a01b0316816001600160a01b03167f8be0079c531659141344cd1fd0a4f28419497f9722a3daafe3b4186f6b6457e060405160405180910390a35050565b61271061014082013511156126185760405162461bcd60e51b81526020600482015260126024820152710a4def2c2d8e8d2cae640e8dede40d0d2ced60731b6044820152606401610ba1565b61262181612a2c565b61262a81612aea565b610c0181612ba8565b6060600061264283600261386e565b61264d906002613d43565b6001600160401b0381111561266457612664613422565b6040519080825280601f01601f19166020018201604052801561268e576020820181803683370190505b509050600360fc1b816000815181106126a9576126a9613d5b565b60200101906001600160f81b031916908160001a905350600f60fb1b816001815181106126d8576126d8613d5b565b60200101906001600160f81b031916908160001a90535060006126fc84600261386e565b612707906001613d43565b90505b600181111561277f576f181899199a1a9b1b9c1cb0b131b232b360811b85600f166010811061273b5761273b613d5b565b1a60f81b82828151811061275157612751613d5b565b60200101906001600160f81b031916908160001a90535060049490941c9361277881613dbf565b905061270a565b5083156127ce5760405162461bcd60e51b815260206004820181905260248201527f537472696e67733a20686578206c656e67746820696e73756666696369656e746044820152606401610ba1565b9392505050565b8051606090806127f5575050604080516020810190915260008152919050565b60006003612804836002613d43565b61280e91906138a3565b61281990600461386e565b90506000612828826020613d43565b6001600160401b0381111561283f5761283f613422565b6040519080825280601f01601f191660200182016040528015612869576020820181803683370190505b5090506000604051806060016040528060408152602001613e85604091399050600181016020830160005b868110156128f5576003818a01810151603f601282901c8116860151600c83901c8216870151600684901c831688015192909316870151600891821b60ff94851601821b92841692909201901b91160160e01b835260049092019101612894565b50600386066001811461290f57600281146129205761292c565b613d3d60f01b60011983015261292c565b603d60f81b6000198301525b505050918152949350505050565b61294482826110cb565b610bb45761295c816001600160a01b03166014612633565b612967836020612633565b604051602001612978929190613dd6565b60408051601f198184030181529082905262461bcd60e51b8252610ba19160040161308d565b600081815b8451811015612a0a5760008582815181106129c0576129c0613d5b565b602002602001015190508083116129e657600083815260208290526040902092506129f7565b600081815260208490526040902092505b5080612a0281613d14565b9150506129a3565b509392505050565b610bb4828260405180602001604052806000815250612cad565b600e5460ff16612a395750565b600d54604082013514612a8e5760405162461bcd60e51b815260206004820152601960248201527f7075626c69634d696e7450726963652069732066726f7a656e000000000000006044820152606401610ba1565b612a9e6080820160608301613e4b565b610c015760405162461bcd60e51b815260206004820152601f60248201527f7075626c69634d696e74507269636546726f7a656e2069732066726f7a656e006044820152606401610ba1565b60105460ff16612af75750565b600f54608082013514612b4c5760405162461bcd60e51b815260206004820152601a60248201527f70726573616c654d696e7450726963652069732066726f7a656e0000000000006044820152606401610ba1565b612b5c60c0820160a08301613e4b565b610c015760405162461bcd60e51b815260206004820181905260248201527f70726573616c654d696e74507269636546726f7a656e2069732066726f7a656e6044820152606401610ba1565b600c5460ff1615612bb65750565b612bc66040820160208301613e4b565b15612c135760405162461bcd60e51b815260206004820152601860248201527f43616e6e6f7420756e667265657a65206d6574616461746100000000000000006044820152606401610ba1565b612c1d8180613962565b604051602001612c2e929190613e68565b60408051601f1981840301815290829052805160209182012091612c5591600b9101613e78565b6040516020818303038152906040528051906020012014610c015760405162461bcd60e51b815260206004820152601260248201527126b2ba30b230ba309034b990333937bd32b760711b6044820152606401610ba1565b610ac983838360016000546001600160a01b038516612cde57604051622e076360e81b815260040160405180910390fd5b83612cfc5760405163b562e8dd60e01b815260040160405180910390fd5b6001600160a01b038516600081815260056020908152604080832080546fffffffffffffffffffffffffffffffff1981166001600160401b038083168c0181169182176801000000000000000067ffffffffffffffff1990941690921783900481168c01811690920217909155858452600490925290912080546001600160e01b031916909217600160a01b429092169190910217905580808501838015612dad57506001600160a01b0387163b15155b15612e36575b60405182906001600160a01b038916906000907fddf252ad1be2c89b69c2b068fc378daa952ba7f163c4a11628f55a4df523b3ef908290a4612dfe60008884806001019550886120e3565b612e1b576040516368d2bf6b60e11b815260040160405180910390fd5b80821415612db3578260005414612e3157600080fd5b612e7c565b5b6040516001830192906001600160a01b038916906000907fddf252ad1be2c89b69c2b068fc378daa952ba7f163c4a11628f55a4df523b3ef908290a480821415612e37575b50600055611cfd565b604051806060016040528060008152602001612ee96040518060e00160405280606081526020016060815260200160006001600160a01b0316815260200160008152602001600081526020016000815260200160006001600160a01b031681525090565b8152602001612f64604051806101800160405280606081526020016000151581526020016000815260200160001515815260200160008152602001600015158152602001600081526020016000815260200160608152602001600080191681526020016000815260200160006001600160a01b031681525090565b905290565b828054612f759061381d565b90600052602060002090601f016020900481019282612f975760008555612fdd565b82601f10612fb057805160ff1916838001178555612fdd565b82800160010185558215612fdd579182015b82811115612fdd578251825591602001919060010190612fc2565b50612fe9929150612fed565b5090565b5b80821115612fe95760008155600101612fee565b6001600160e01b031981168114610c0157600080fd5b60006020828403121561302a57600080fd5b81356127ce81613002565b60005b83811015613050578181015183820152602001613038565b8381111561140a5750506000910152565b60008151808452613079816020860160208601613035565b601f01601f19169290920160200192915050565b6020815260006127ce6020830184613061565b6000602082840312156130b257600080fd5b5035919050565b6001600160a01b0381168114610c0157600080fd5b8035612362816130b9565b600080604083850312156130ec57600080fd5b82356130f7816130b9565b946020939093013593505050565b60008060006060848603121561311a57600080fd5b8335613125816130b9565b92506020840135613135816130b9565b929592945050506040919091013590565b6000806040838503121561315957600080fd5b50508035926020909101359150565b6000806040838503121561317b57600080fd5b82359150602083013561318d816130b9565b809150509250929050565b60008083601f8401126131aa57600080fd5b5081356001600160401b038111156131c157600080fd5b6020830191508360208260051b85010111156131dc57600080fd5b9250929050565b6000806000604084860312156131f857600080fd5b8335613203816130b9565b925060208401356001600160401b0381111561321e57600080fd5b61322a86828701613198565b9497909650939450505050565b6000610180825181855261324d82860182613061565b9150506020830151613263602086018215159052565b50604083015160408501526060830151613281606086018215159052565b506080830151608085015260a083015161329f60a086018215159052565b5060c083015160c085015260e083015160e085015261010080840151858303828701526132cc8382613061565b9250505061012080840151818601525061014080840151818601525061016080840151613303828701826001600160a01b03169052565b5090949350505050565b60208152815160208201526000602083015160606040840152805160e0608085015261333d610160850182613061565b90506020820151607f198583030160a086015261335a8282613061565b6040848101516001600160a01b0390811660c08981019190915260608088015160e08b015260808801516101008b015260a08801516101208b015296015116610140880152870151868203601f1901948701949094529150610cd990508183613237565b6000602082840312156133d057600080fd5b81356127ce816130b9565b8015158114610c0157600080fd5b8035612362816133db565b6000806040838503121561340757600080fd5b8235613412816130b9565b9150602083013561318d816133db565b634e487b7160e01b600052604160045260246000fd5b60405161018081016001600160401b038111828210171561345b5761345b613422565b60405290565b60405160e081016001600160401b038111828210171561345b5761345b613422565b60006001600160401b038084111561349d5761349d613422565b604051601f8501601f19908116603f011681019082821181831017156134c5576134c5613422565b816040528093508581528686860111156134de57600080fd5b858560208301376000602087830101525050509392505050565b6000806000806080858703121561350e57600080fd5b8435613519816130b9565b93506020850135613529816130b9565b92506040850135915060608501356001600160401b0381111561354b57600080fd5b8501601f8101871361355c57600080fd5b61356b87823560208401613483565b91505092959194509250565b600082601f83011261358857600080fd5b6127ce83833560208501613483565b600061018082840312156135aa57600080fd5b6135b2613438565b905081356001600160401b03808211156135cb57600080fd5b6135d785838601613577565b83526135e5602085016133e9565b602084015260408401356040840152613600606085016133e9565b60608401526080840135608084015261361b60a085016133e9565b60a084015260c084013560c084015260e084013560e08401526101009150818401358181111561364a57600080fd5b61365686828701613577565b838501525050506101208083013581830152506101408083013581830152506101606136838184016130ce565b9082015292915050565b600080604083850312156136a057600080fd5b82356001600160401b03808211156136b757600080fd5b9084019060e082870312156136cb57600080fd5b6136d3613461565b8235828111156136e257600080fd5b6136ee88828601613577565b82525060208301358281111561370357600080fd5b61370f88828601613577565b602083015250613721604084016130ce565b6040820152606083013560608201526080830135608082015260a083013560a082015261375060c084016130ce565b60c08201529350602085013591508082111561376b57600080fd5b5061377885828601613597565b9150509250929050565b60006020828403121561379457600080fd5b81356001600160401b038111156137aa57600080fd5b820161018081850312156127ce57600080fd5b6000806000604084860312156137d257600080fd5b8335925060208401356001600160401b0381111561321e57600080fd5b6000806040838503121561380257600080fd5b823561380d816130b9565b9150602083013561318d816130b9565b600181811c9082168061383157607f821691505b6020821081141561385257634e487b7160e01b600052602260045260246000fd5b50919050565b634e487b7160e01b600052601160045260246000fd5b600081600019048311821515161561388857613888613858565b500290565b634e487b7160e01b600052601260045260246000fd5b6000826138b2576138b261388d565b500490565b6000828210156138c9576138c9613858565b500390565b600081546138db8161381d565b600182811680156138f3576001811461390457613933565b60ff19841687528287019450613933565b8560005260208060002060005b8581101561392a5781548a820152908401908201613911565b50505082870194505b5050505092915050565b600061394982856138ce565b8351613959818360208801613035565b01949350505050565b6000808335601e1984360301811261397957600080fd5b8301803591506001600160401b0382111561399357600080fd5b6020019150368190038213156131dc57600080fd5b601f821115610ac957600081815260208120601f850160051c810160208610156139cf5750805b601f850160051c820191505b818110156139ee578281556001016139db565b505050505050565b6001600160401b03831115613a0d57613a0d613422565b613a2183613a1b835461381d565b836139a8565b6000601f841160018114613a555760008515613a3d5750838201355b600019600387901b1c1916600186901b178355611cfd565b600083815260209020601f19861690835b82811015613a865786850135825560209485019460019092019101613a66565b5086821015613aa35760001960f88860031b161c19848701351681555b505060018560011b0183555050505050565b60008135610961816133db565b60008135610961816130b9565b613ad98283613962565b613ae48183856139f6565b5050613b0e613af560208401613ab5565b6001830160ff1981541660ff8315151681178255505050565b60408201356002820155613b40613b2760608401613ab5565b6003830160ff1981541660ff8315151681178255505050565b60808201356004820155613b72613b5960a08401613ab5565b6005830160ff1981541660ff8315151681178255505050565b60c0820135600682015560e08201356007820155613b94610100830183613962565b613ba28183600886016139f6565b50506101208201356009820155610140820135600a820155610bb4613bca6101608401613ac2565b600b830180546001600160a01b0319166001600160a01b0392909216919091179055565b7f7b2273656c6c65725f6665655f62617369735f706f696e7473223a2000000000815260008351613c2681601c850160208801613035565b731610113332b2afb932b1b4b834b2b73a111d101160611b601c918401918201528351613c5a816030840160208801613035565b61227d60f01b60309290910191820152603201949350505050565b7f646174613a6170706c69636174696f6e2f6a736f6e3b6261736536342c000000815260008251613cad81601d850160208701613035565b91909101601d0192915050565b6001600160a01b0385811682528416602082015260408101839052608060608201819052600090613ced90830184613061565b9695505050505050565b600060208284031215613d0957600080fd5b81516127ce81613002565b6000600019821415613d2857613d28613858565b5060010190565b600082613d3e57613d3e61388d565b500690565b60008219821115613d5657613d56613858565b500190565b634e487b7160e01b600052603260045260246000fd5b6020808252602e908201527f496e697469616c697a61626c653a20636f6e747261637420697320616c72656160408201526d191e481a5b9a5d1a585b1a5e995960921b606082015260800190565b600081613dce57613dce613858565b506000190190565b7f416363657373436f6e74726f6c3a206163636f756e7420000000000000000000815260008351613e0e816017850160208801613035565b7001034b99036b4b9b9b4b733903937b6329607d1b6017918401918201528351613e3f816028840160208801613035565b01602801949350505050565b600060208284031215613e5d57600080fd5b81356127ce816133db565b8183823760009101908152919050565b60006127ce82846138ce56fe4142434445464748494a4b4c4d4e4f505152535455565758595a6162636465666768696a6b6c6d6e6f707172737475767778797a303132333435363738392b2fa49807205ce4d355092ef5a8a18f56e8913cf4a201fbe287825b095693c21775a2646970667358221220702677a49a9002b24afcc9ef032b00a182a1034f8748084e2ecfb7bc7749203864736f6c63430008090033496e697469616c697a61626c653a20636f6e747261637420697320616c726561a49807205ce4d355092ef5a8a18f56e8913cf4a201fbe287825b095693c21775",
  "devdoc": {
    "kind": "dev",
    "methods": {
      "approve(address,uint256)": {
        "details": "See {IERC721-approve}."
      },
      "balanceOf(address)": {
        "details": "See {IERC721-balanceOf}."
      },
      "contractURI()": {
        "details": "OpenSea contract metadata"
      },
      "getApproved(uint256)": {
        "details": "See {IERC721-getApproved}."
      },
      "getInfo()": {
        "details": "Convenience helper"
      },
      "getRoleAdmin(bytes32)": {
        "details": "Returns the admin role that controls `role`. See {grantRole} and {revokeRole}. To change a role's admin, use {_setRoleAdmin}."
      },
      "grantRole(bytes32,address)": {
        "details": "Grants `role` to `account`. If `account` had not been already granted `role`, emits a {RoleGranted} event. Requirements: - the caller must have ``role``'s admin role."
      },
      "hasRole(bytes32,address)": {
        "details": "Returns `true` if `account` has been granted `role`."
      },
      "isApprovedForAll(address,address)": {
        "details": "See {IERC721-isApprovedForAll}."
      },
      "name()": {
        "details": "Need name() to support setting it in the initializer instead of constructor"
      },
      "owner()": {
        "details": "Required for easy integration with OpenSea"
      },
      "ownerOf(uint256)": {
        "details": "See {IERC721-ownerOf}."
      },
      "renounceRole(bytes32,address)": {
        "details": "Revokes `role` from the calling account. Roles are often managed via {grantRole} and {revokeRole}: this function's purpose is to provide a mechanism for accounts to lose their privileges if they are compromised (such as when a trusted device is misplaced). If the calling account had been revoked `role`, emits a {RoleRevoked} event. Requirements: - the caller must be `account`."
      },
      "revokeRole(bytes32,address)": {
        "details": "Revokes `role` from `account`. If `account` had been granted `role`, emits a {RoleRevoked} event. Requirements: - the caller must have ``role``'s admin role."
      },
      "royaltyInfo(uint256,uint256)": {
        "details": "ERC2981 token royalty info"
      },
      "safeTransferFrom(address,address,uint256)": {
        "details": "See {IERC721-safeTransferFrom}."
      },
      "safeTransferFrom(address,address,uint256,bytes)": {
        "details": "See {IERC721-safeTransferFrom}."
      },
      "setApprovalForAll(address,bool)": {
        "details": "See {IERC721-setApprovalForAll}."
      },
      "supportsInterface(bytes4)": {
        "details": "See {IERC165-supportsInterface}."
      },
      "symbol()": {
        "details": "Need symbol() to support setting it in the initializer instead of constructor"
      },
      "totalSupply()": {
        "details": "Burned tokens are calculated here, use _totalMinted() if you want to count just minted tokens."
      },
      "transferFrom(address,address,uint256)": {
        "details": "See {IERC721-transferFrom}."
      },
      "updateConfig((string,bool,uint256,bool,uint256,bool,uint256,uint256,string,bytes32,uint256,address))": {
        "details": "Callable by admin roles only"
      },
      "withdrawFees()": {
        "details": "Callable by admin roles only"
      }
    },
    "version": 1
  },
  "userdoc": {
    "kind": "user",
    "methods": {
      "ADMIN_ROLE()": {
        "notice": "Admin role"
      },
      "VERSION()": {
        "notice": "Contract version, semver-style uint X_YY_ZZ"
      },
      "availableSupply()": {
        "notice": "Get the number of tokens still available for minting"
      },
      "getInfo()": {
        "notice": "Get full contract information"
      },
      "initialize((string,string,address,uint256,uint256,uint256,address),(string,bool,uint256,bool,uint256,bool,uint256,uint256,string,bytes32,uint256,address))": {
        "notice": "Contract initializer"
      },
      "isWhitelisted(address,bytes32[])": {
        "notice": "Check if the wallet is whitelisted for the presale"
      },
      "mint(uint256)": {
        "notice": "Mint tokens"
      },
      "mintingActive()": {
        "notice": "Check if public minting is active"
      },
      "owner()": {
        "notice": "Contract owner address"
      },
      "presaleActive()": {
        "notice": "Check if presale minting is active"
      },
      "presaleMint(uint256,bytes32[])": {
        "notice": "Mint tokens if the wallet has been whitelisted"
      },
      "reserveMint(address,uint256)": {
        "notice": "Mint a token from the reserve"
      },
      "reserveRemaining()": {
        "notice": "The number of tokens remaining in the reserve"
      },
      "tokenURI(uint256)": {
        "notice": "Get the token metadata URI"
      },
      "transferAdminRights(address)": {
        "notice": "Transfer contract ownership"
      },
      "transferOwnership(address)": {
        "notice": "Transfer contract ownership"
      },
      "updateConfig((string,bool,uint256,bool,uint256,bool,uint256,uint256,string,bytes32,uint256,address))": {
        "notice": "Update contract configuration"
      },
      "withdrawFees()": {
        "notice": "Withdraw minting fees to the treasury address"
      }
    },
    "version": 1
  },
  "storageLayout": {
    "storage": [
      {
        "astId": 8838,
        "contract": "contracts/NFTCollectionContract.sol:NFTCollectionContract",
        "label": "_currentIndex",
        "offset": 0,
        "slot": "0",
        "type": "t_uint256"
      },
      {
        "astId": 8840,
        "contract": "contracts/NFTCollectionContract.sol:NFTCollectionContract",
        "label": "_burnCounter",
        "offset": 0,
        "slot": "1",
        "type": "t_uint256"
      },
      {
        "astId": 8842,
        "contract": "contracts/NFTCollectionContract.sol:NFTCollectionContract",
        "label": "_name",
        "offset": 0,
        "slot": "2",
        "type": "t_string_storage"
      },
      {
        "astId": 8844,
        "contract": "contracts/NFTCollectionContract.sol:NFTCollectionContract",
        "label": "_symbol",
        "offset": 0,
        "slot": "3",
        "type": "t_string_storage"
      },
      {
        "astId": 8849,
        "contract": "contracts/NFTCollectionContract.sol:NFTCollectionContract",
        "label": "_ownerships",
        "offset": 0,
        "slot": "4",
        "type": "t_mapping(t_uint256,t_struct(TokenOwnership)8827_storage)"
      },
      {
        "astId": 8854,
        "contract": "contracts/NFTCollectionContract.sol:NFTCollectionContract",
        "label": "_addressData",
        "offset": 0,
        "slot": "5",
        "type": "t_mapping(t_address,t_struct(AddressData)8836_storage)"
      },
      {
        "astId": 8858,
        "contract": "contracts/NFTCollectionContract.sol:NFTCollectionContract",
        "label": "_tokenApprovals",
        "offset": 0,
        "slot": "6",
        "type": "t_mapping(t_uint256,t_address)"
      },
      {
        "astId": 8864,
        "contract": "contracts/NFTCollectionContract.sol:NFTCollectionContract",
        "label": "_operatorApprovals",
        "offset": 0,
        "slot": "7",
        "type": "t_mapping(t_address,t_mapping(t_address,t_bool))"
      },
      {
        "astId": 24,
        "contract": "contracts/NFTCollectionContract.sol:NFTCollectionContract",
        "label": "_roles",
        "offset": 0,
        "slot": "8",
        "type": "t_mapping(t_bytes32,t_struct(RoleData)19_storage)"
      },
      {
        "astId": 523,
        "contract": "contracts/NFTCollectionContract.sol:NFTCollectionContract",
        "label": "_initialized",
        "offset": 0,
        "slot": "9",
        "type": "t_uint8"
      },
      {
        "astId": 526,
        "contract": "contracts/NFTCollectionContract.sol:NFTCollectionContract",
        "label": "_initializing",
        "offset": 1,
        "slot": "9",
        "type": "t_bool"
      },
      {
        "astId": 7843,
        "contract": "contracts/NFTCollectionContract.sol:NFTCollectionContract",
        "label": "reserveRemaining",
        "offset": 0,
        "slot": "10",
        "type": "t_uint256"
      },
      {
        "astId": 8217,
        "contract": "contracts/NFTCollectionContract.sol:NFTCollectionContract",
        "label": "_runtimeConfig",
        "offset": 0,
        "slot": "11",
        "type": "t_struct(RuntimeConfig)7812_storage"
      },
      {
        "astId": 8220,
        "contract": "contracts/NFTCollectionContract.sol:NFTCollectionContract",
        "label": "_deploymentConfig",
        "offset": 0,
        "slot": "23",
        "type": "t_struct(DeploymentConfig)7787_storage"
      },
      {
        "astId": 8223,
        "contract": "contracts/NFTCollectionContract.sol:NFTCollectionContract",
        "label": "_preventInitialization",
        "offset": 0,
        "slot": "30",
        "type": "t_bool"
      },
      {
        "astId": 8228,
        "contract": "contracts/NFTCollectionContract.sol:NFTCollectionContract",
        "label": "_presaleMinted",
        "offset": 0,
        "slot": "31",
        "type": "t_mapping(t_address,t_bool)"
      }
    ],
    "types": {
      "t_address": {
        "encoding": "inplace",
        "label": "address",
        "numberOfBytes": "20"
      },
      "t_address_payable": {
        "encoding": "inplace",
        "label": "address payable",
        "numberOfBytes": "20"
      },
      "t_bool": {
        "encoding": "inplace",
        "label": "bool",
        "numberOfBytes": "1"
      },
      "t_bytes32": {
        "encoding": "inplace",
        "label": "bytes32",
        "numberOfBytes": "32"
      },
      "t_mapping(t_address,t_bool)": {
        "encoding": "mapping",
        "key": "t_address",
        "label": "mapping(address => bool)",
        "numberOfBytes": "32",
        "value": "t_bool"
      },
      "t_mapping(t_address,t_mapping(t_address,t_bool))": {
        "encoding": "mapping",
        "key": "t_address",
        "label": "mapping(address => mapping(address => bool))",
        "numberOfBytes": "32",
        "value": "t_mapping(t_address,t_bool)"
      },
      "t_mapping(t_address,t_struct(AddressData)8836_storage)": {
        "encoding": "mapping",
        "key": "t_address",
        "label": "mapping(address => struct ERC721A.AddressData)",
        "numberOfBytes": "32",
        "value": "t_struct(AddressData)8836_storage"
      },
      "t_mapping(t_bytes32,t_struct(RoleData)19_storage)": {
        "encoding": "mapping",
        "key": "t_bytes32",
        "label": "mapping(bytes32 => struct AccessControl.RoleData)",
        "numberOfBytes": "32",
        "value": "t_struct(RoleData)19_storage"
      },
      "t_mapping(t_uint256,t_address)": {
        "encoding": "mapping",
        "key": "t_uint256",
        "label": "mapping(uint256 => address)",
        "numberOfBytes": "32",
        "value": "t_address"
      },
      "t_mapping(t_uint256,t_struct(TokenOwnership)8827_storage)": {
        "encoding": "mapping",
        "key": "t_uint256",
        "label": "mapping(uint256 => struct ERC721A.TokenOwnership)",
        "numberOfBytes": "32",
        "value": "t_struct(TokenOwnership)8827_storage"
      },
      "t_string_storage": {
        "encoding": "bytes",
        "label": "string",
        "numberOfBytes": "32"
      },
      "t_struct(AddressData)8836_storage": {
        "encoding": "inplace",
        "label": "struct ERC721A.AddressData",
        "members": [
          {
            "astId": 8829,
            "contract": "contracts/NFTCollectionContract.sol:NFTCollectionContract",
            "label": "balance",
            "offset": 0,
            "slot": "0",
            "type": "t_uint64"
          },
          {
            "astId": 8831,
            "contract": "contracts/NFTCollectionContract.sol:NFTCollectionContract",
            "label": "numberMinted",
            "offset": 8,
            "slot": "0",
            "type": "t_uint64"
          },
          {
            "astId": 8833,
            "contract": "contracts/NFTCollectionContract.sol:NFTCollectionContract",
            "label": "numberBurned",
            "offset": 16,
            "slot": "0",
            "type": "t_uint64"
          },
          {
            "astId": 8835,
            "contract": "contracts/NFTCollectionContract.sol:NFTCollectionContract",
            "label": "aux",
            "offset": 24,
            "slot": "0",
            "type": "t_uint64"
          }
        ],
        "numberOfBytes": "32"
      },
      "t_struct(DeploymentConfig)7787_storage": {
        "encoding": "inplace",
        "label": "struct NFTCollection.DeploymentConfig",
        "members": [
          {
            "astId": 7773,
            "contract": "contracts/NFTCollectionContract.sol:NFTCollectionContract",
            "label": "name",
            "offset": 0,
            "slot": "0",
            "type": "t_string_storage"
          },
          {
            "astId": 7775,
            "contract": "contracts/NFTCollectionContract.sol:NFTCollectionContract",
            "label": "symbol",
            "offset": 0,
            "slot": "1",
            "type": "t_string_storage"
          },
          {
            "astId": 7777,
            "contract": "contracts/NFTCollectionContract.sol:NFTCollectionContract",
            "label": "owner",
            "offset": 0,
            "slot": "2",
            "type": "t_address"
          },
          {
            "astId": 7779,
            "contract": "contracts/NFTCollectionContract.sol:NFTCollectionContract",
            "label": "maxSupply",
            "offset": 0,
            "slot": "3",
            "type": "t_uint256"
          },
          {
            "astId": 7781,
            "contract": "contracts/NFTCollectionContract.sol:NFTCollectionContract",
            "label": "reservedSupply",
            "offset": 0,
            "slot": "4",
            "type": "t_uint256"
          },
          {
            "astId": 7784,
            "contract": "contracts/NFTCollectionContract.sol:NFTCollectionContract",
            "label": "tokensPerMint",
            "offset": 0,
            "slot": "5",
            "type": "t_uint256"
          },
          {
            "astId": 7786,
            "contract": "contracts/NFTCollectionContract.sol:NFTCollectionContract",
            "label": "treasuryAddress",
            "offset": 0,
            "slot": "6",
            "type": "t_address_payable"
          }
        ],
        "numberOfBytes": "224"
      },
      "t_struct(RoleData)19_storage": {
        "encoding": "inplace",
        "label": "struct AccessControl.RoleData",
        "members": [
          {
            "astId": 16,
            "contract": "contracts/NFTCollectionContract.sol:NFTCollectionContract",
            "label": "members",
            "offset": 0,
            "slot": "0",
            "type": "t_mapping(t_address,t_bool)"
          },
          {
            "astId": 18,
            "contract": "contracts/NFTCollectionContract.sol:NFTCollectionContract",
            "label": "adminRole",
            "offset": 0,
            "slot": "1",
            "type": "t_bytes32"
          }
        ],
        "numberOfBytes": "64"
      },
      "t_struct(RuntimeConfig)7812_storage": {
        "encoding": "inplace",
        "label": "struct NFTCollection.RuntimeConfig",
        "members": [
          {
            "astId": 7789,
            "contract": "contracts/NFTCollectionContract.sol:NFTCollectionContract",
            "label": "baseURI",
            "offset": 0,
            "slot": "0",
            "type": "t_string_storage"
          },
          {
            "astId": 7791,
            "contract": "contracts/NFTCollectionContract.sol:NFTCollectionContract",
            "label": "metadataUpdatable",
            "offset": 0,
            "slot": "1",
            "type": "t_bool"
          },
          {
            "astId": 7793,
            "contract": "contracts/NFTCollectionContract.sol:NFTCollectionContract",
            "label": "publicMintPrice",
            "offset": 0,
            "slot": "2",
            "type": "t_uint256"
          },
          {
            "astId": 7795,
            "contract": "contracts/NFTCollectionContract.sol:NFTCollectionContract",
            "label": "publicMintPriceFrozen",
            "offset": 0,
            "slot": "3",
            "type": "t_bool"
          },
          {
            "astId": 7797,
            "contract": "contracts/NFTCollectionContract.sol:NFTCollectionContract",
            "label": "presaleMintPrice",
            "offset": 0,
            "slot": "4",
            "type": "t_uint256"
          },
          {
            "astId": 7799,
            "contract": "contracts/NFTCollectionContract.sol:NFTCollectionContract",
            "label": "presaleMintPriceFrozen",
            "offset": 0,
            "slot": "5",
            "type": "t_bool"
          },
          {
            "astId": 7801,
            "contract": "contracts/NFTCollectionContract.sol:NFTCollectionContract",
            "label": "publicMintStart",
            "offset": 0,
            "slot": "6",
            "type": "t_uint256"
          },
          {
            "astId": 7803,
            "contract": "contracts/NFTCollectionContract.sol:NFTCollectionContract",
            "label": "presaleMintStart",
            "offset": 0,
            "slot": "7",
            "type": "t_uint256"
          },
          {
            "astId": 7805,
            "contract": "contracts/NFTCollectionContract.sol:NFTCollectionContract",
            "label": "prerevealTokenURI",
            "offset": 0,
            "slot": "8",
            "type": "t_string_storage"
          },
          {
            "astId": 7807,
            "contract": "contracts/NFTCollectionContract.sol:NFTCollectionContract",
            "label": "presaleMerkleRoot",
            "offset": 0,
            "slot": "9",
            "type": "t_bytes32"
          },
          {
            "astId": 7809,
            "contract": "contracts/NFTCollectionContract.sol:NFTCollectionContract",
            "label": "royaltiesBps",
            "offset": 0,
            "slot": "10",
            "type": "t_uint256"
          },
          {
            "astId": 7811,
            "contract": "contracts/NFTCollectionContract.sol:NFTCollectionContract",
            "label": "royaltiesAddress",
            "offset": 0,
            "slot": "11",
            "type": "t_address"
          }
        ],
        "numberOfBytes": "384"
      },
      "t_struct(TokenOwnership)8827_storage": {
        "encoding": "inplace",
        "label": "struct ERC721A.TokenOwnership",
        "members": [
          {
            "astId": 8822,
            "contract": "contracts/NFTCollectionContract.sol:NFTCollectionContract",
            "label": "addr",
            "offset": 0,
            "slot": "0",
            "type": "t_address"
          },
          {
            "astId": 8824,
            "contract": "contracts/NFTCollectionContract.sol:NFTCollectionContract",
            "label": "startTimestamp",
            "offset": 20,
            "slot": "0",
            "type": "t_uint64"
          },
          {
            "astId": 8826,
            "contract": "contracts/NFTCollectionContract.sol:NFTCollectionContract",
            "label": "burned",
            "offset": 28,
            "slot": "0",
            "type": "t_bool"
          }
        ],
        "numberOfBytes": "32"
      },
      "t_uint256": {
        "encoding": "inplace",
        "label": "uint256",
        "numberOfBytes": "32"
      },
      "t_uint64": {
        "encoding": "inplace",
        "label": "uint64",
        "numberOfBytes": "8"
      },
      "t_uint8": {
        "encoding": "inplace",
        "label": "uint8",
        "numberOfBytes": "1"
      }
    }
  }
}