{
  "address": "0x452E228E582eCA4F3f0D158122D410Bf5E74e2DA",
  "abi": [
    {
      "inputs": [
        {
          "components": [
            {
              "internalType": "string",
              "name": "name",
              "type": "string"
            },
            {
              "internalType": "string",
              "name": "symbol",
              "type": "string"
            },
            {
              "internalType": "address",
              "name": "owner",
              "type": "address"
            },
            {
              "internalType": "uint256",
              "name": "maxSupply",
              "type": "uint256"
            },
            {
              "internalType": "uint256",
              "name": "reservedSupply",
              "type": "uint256"
            },
            {
              "internalType": "uint256",
              "name": "mintPrice",
              "type": "uint256"
            },
            {
              "internalType": "uint256",
              "name": "tokensPerMint",
              "type": "uint256"
            },
            {
              "internalType": "address payable",
              "name": "treasuryAddress",
              "type": "address"
            }
          ],
          "internalType": "struct NFTCollection.DeploymentConfig",
          "name": "deploymentConfig",
          "type": "tuple"
        },
        {
          "components": [
            {
              "internalType": "string",
              "name": "baseURI",
              "type": "string"
            },
            {
              "internalType": "bool",
              "name": "metadataUpdatable",
              "type": "bool"
            },
            {
              "internalType": "uint256",
              "name": "publicMintStart",
              "type": "uint256"
            },
            {
              "internalType": "uint256",
              "name": "presaleMintStart",
              "type": "uint256"
            },
            {
              "internalType": "string",
              "name": "prerevealTokenURI",
              "type": "string"
            },
            {
              "internalType": "bytes32",
              "name": "presaleMerkleRoot",
              "type": "bytes32"
            },
            {
              "internalType": "uint256",
              "name": "royaltiesBps",
              "type": "uint256"
            },
            {
              "internalType": "address",
              "name": "royaltiesAddress",
              "type": "address"
            }
          ],
          "internalType": "struct NFTCollection.RuntimeConfig",
          "name": "runtimeConfig",
          "type": "tuple"
        }
      ],
      "stateMutability": "nonpayable",
      "type": "constructor"
    },
    {
      "inputs": [],
      "name": "ApprovalCallerNotOwnerNorApproved",
      "type": "error"
    },
    {
      "inputs": [],
      "name": "ApprovalQueryForNonexistentToken",
      "type": "error"
    },
    {
      "inputs": [],
      "name": "ApprovalToCurrentOwner",
      "type": "error"
    },
    {
      "inputs": [],
      "name": "ApproveToCaller",
      "type": "error"
    },
    {
      "inputs": [],
      "name": "BalanceQueryForZeroAddress",
      "type": "error"
    },
    {
      "inputs": [],
      "name": "MintToZeroAddress",
      "type": "error"
    },
    {
      "inputs": [],
      "name": "MintZeroQuantity",
      "type": "error"
    },
    {
      "inputs": [],
      "name": "OwnerQueryForNonexistentToken",
      "type": "error"
    },
    {
      "inputs": [],
      "name": "TransferCallerNotOwnerNorApproved",
      "type": "error"
    },
    {
      "inputs": [],
      "name": "TransferFromIncorrectOwner",
      "type": "error"
    },
    {
      "inputs": [],
      "name": "TransferToNonERC721ReceiverImplementer",
      "type": "error"
    },
    {
      "inputs": [],
      "name": "TransferToZeroAddress",
      "type": "error"
    },
    {
      "anonymous": false,
      "inputs": [
        {
          "indexed": true,
          "internalType": "address",
          "name": "owner",
          "type": "address"
        },
        {
          "indexed": true,
          "internalType": "address",
          "name": "approved",
          "type": "address"
        },
        {
          "indexed": true,
          "internalType": "uint256",
          "name": "tokenId",
          "type": "uint256"
        }
      ],
      "name": "Approval",
      "type": "event"
    },
    {
      "anonymous": false,
      "inputs": [
        {
          "indexed": true,
          "internalType": "address",
          "name": "owner",
          "type": "address"
        },
        {
          "indexed": true,
          "internalType": "address",
          "name": "operator",
          "type": "address"
        },
        {
          "indexed": false,
          "internalType": "bool",
          "name": "approved",
          "type": "bool"
        }
      ],
      "name": "ApprovalForAll",
      "type": "event"
    },
    {
      "anonymous": false,
      "inputs": [
        {
          "indexed": true,
          "internalType": "address",
          "name": "previousOwner",
          "type": "address"
        },
        {
          "indexed": true,
          "internalType": "address",
          "name": "newOwner",
          "type": "address"
        }
      ],
      "name": "OwnershipTransferred",
      "type": "event"
    },
    {
      "anonymous": false,
      "inputs": [
        {
          "indexed": true,
          "internalType": "bytes32",
          "name": "role",
          "type": "bytes32"
        },
        {
          "indexed": true,
          "internalType": "bytes32",
          "name": "previousAdminRole",
          "type": "bytes32"
        },
        {
          "indexed": true,
          "internalType": "bytes32",
          "name": "newAdminRole",
          "type": "bytes32"
        }
      ],
      "name": "RoleAdminChanged",
      "type": "event"
    },
    {
      "anonymous": false,
      "inputs": [
        {
          "indexed": true,
          "internalType": "bytes32",
          "name": "role",
          "type": "bytes32"
        },
        {
          "indexed": true,
          "internalType": "address",
          "name": "account",
          "type": "address"
        },
        {
          "indexed": true,
          "internalType": "address",
          "name": "sender",
          "type": "address"
        }
      ],
      "name": "RoleGranted",
      "type": "event"
    },
    {
      "anonymous": false,
      "inputs": [
        {
          "indexed": true,
          "internalType": "bytes32",
          "name": "role",
          "type": "bytes32"
        },
        {
          "indexed": true,
          "internalType": "address",
          "name": "account",
          "type": "address"
        },
        {
          "indexed": true,
          "internalType": "address",
          "name": "sender",
          "type": "address"
        }
      ],
      "name": "RoleRevoked",
      "type": "event"
    },
    {
      "anonymous": false,
      "inputs": [
        {
          "indexed": true,
          "internalType": "address",
          "name": "from",
          "type": "address"
        },
        {
          "indexed": true,
          "internalType": "address",
          "name": "to",
          "type": "address"
        },
        {
          "indexed": true,
          "internalType": "uint256",
          "name": "tokenId",
          "type": "uint256"
        }
      ],
      "name": "Transfer",
      "type": "event"
    },
    {
      "inputs": [],
      "name": "ADMIN_ROLE",
      "outputs": [
        {
          "internalType": "bytes32",
          "name": "",
          "type": "bytes32"
        }
      ],
      "stateMutability": "view",
      "type": "function"
    },
    {
      "inputs": [],
      "name": "DEFAULT_ADMIN_ROLE",
      "outputs": [
        {
          "internalType": "bytes32",
          "name": "",
          "type": "bytes32"
        }
      ],
      "stateMutability": "view",
      "type": "function"
    },
    {
      "inputs": [],
      "name": "VERSION",
      "outputs": [
        {
          "internalType": "uint256",
          "name": "",
          "type": "uint256"
        }
      ],
      "stateMutability": "view",
      "type": "function"
    },
    {
      "inputs": [
        {
          "internalType": "address",
          "name": "to",
          "type": "address"
        },
        {
          "internalType": "uint256",
          "name": "tokenId",
          "type": "uint256"
        }
      ],
      "name": "approve",
      "outputs": [],
      "stateMutability": "nonpayable",
      "type": "function"
    },
    {
      "inputs": [],
      "name": "availableSupply",
      "outputs": [
        {
          "internalType": "uint256",
          "name": "",
          "type": "uint256"
        }
      ],
      "stateMutability": "view",
      "type": "function"
    },
    {
      "inputs": [
        {
          "internalType": "address",
          "name": "owner",
          "type": "address"
        }
      ],
      "name": "balanceOf",
      "outputs": [
        {
          "internalType": "uint256",
          "name": "",
          "type": "uint256"
        }
      ],
      "stateMutability": "view",
      "type": "function"
    },
    {
      "inputs": [],
      "name": "baseURI",
      "outputs": [
        {
          "internalType": "string",
          "name": "",
          "type": "string"
        }
      ],
      "stateMutability": "view",
      "type": "function"
    },
    {
      "inputs": [],
      "name": "contractURI",
      "outputs": [
        {
          "internalType": "string",
          "name": "",
          "type": "string"
        }
      ],
      "stateMutability": "view",
      "type": "function"
    },
    {
      "inputs": [
        {
          "internalType": "uint256",
          "name": "tokenId",
          "type": "uint256"
        }
      ],
      "name": "getApproved",
      "outputs": [
        {
          "internalType": "address",
          "name": "",
          "type": "address"
        }
      ],
      "stateMutability": "view",
      "type": "function"
    },
    {
      "inputs": [],
      "name": "getInfo",
      "outputs": [
        {
          "components": [
            {
              "internalType": "uint256",
              "name": "version",
              "type": "uint256"
            },
            {
              "components": [
                {
                  "internalType": "string",
                  "name": "name",
                  "type": "string"
                },
                {
                  "internalType": "string",
                  "name": "symbol",
                  "type": "string"
                },
                {
                  "internalType": "address",
                  "name": "owner",
                  "type": "address"
                },
                {
                  "internalType": "uint256",
                  "name": "maxSupply",
                  "type": "uint256"
                },
                {
                  "internalType": "uint256",
                  "name": "reservedSupply",
                  "type": "uint256"
                },
                {
                  "internalType": "uint256",
                  "name": "mintPrice",
                  "type": "uint256"
                },
                {
                  "internalType": "uint256",
                  "name": "tokensPerMint",
                  "type": "uint256"
                },
                {
                  "internalType": "address payable",
                  "name": "treasuryAddress",
                  "type": "address"
                }
              ],
              "internalType": "struct NFTCollection.DeploymentConfig",
              "name": "deploymentConfig",
              "type": "tuple"
            },
            {
              "components": [
                {
                  "internalType": "string",
                  "name": "baseURI",
                  "type": "string"
                },
                {
                  "internalType": "bool",
                  "name": "metadataUpdatable",
                  "type": "bool"
                },
                {
                  "internalType": "uint256",
                  "name": "publicMintStart",
                  "type": "uint256"
                },
                {
                  "internalType": "uint256",
                  "name": "presaleMintStart",
                  "type": "uint256"
                },
                {
                  "internalType": "string",
                  "name": "prerevealTokenURI",
                  "type": "string"
                },
                {
                  "internalType": "bytes32",
                  "name": "presaleMerkleRoot",
                  "type": "bytes32"
                },
                {
                  "internalType": "uint256",
                  "name": "royaltiesBps",
                  "type": "uint256"
                },
                {
                  "internalType": "address",
                  "name": "royaltiesAddress",
                  "type": "address"
                }
              ],
              "internalType": "struct NFTCollection.RuntimeConfig",
              "name": "runtimeConfig",
              "type": "tuple"
            }
          ],
          "internalType": "struct NFTCollection.ContractInfo",
          "name": "info",
          "type": "tuple"
        }
      ],
      "stateMutability": "view",
      "type": "function"
    },
    {
      "inputs": [
        {
          "internalType": "bytes32",
          "name": "role",
          "type": "bytes32"
        }
      ],
      "name": "getRoleAdmin",
      "outputs": [
        {
          "internalType": "bytes32",
          "name": "",
          "type": "bytes32"
        }
      ],
      "stateMutability": "view",
      "type": "function"
    },
    {
      "inputs": [
        {
          "internalType": "bytes32",
          "name": "role",
          "type": "bytes32"
        },
        {
          "internalType": "address",
          "name": "account",
          "type": "address"
        }
      ],
      "name": "grantRole",
      "outputs": [],
      "stateMutability": "nonpayable",
      "type": "function"
    },
    {
      "inputs": [
        {
          "internalType": "bytes32",
          "name": "role",
          "type": "bytes32"
        },
        {
          "internalType": "address",
          "name": "account",
          "type": "address"
        }
      ],
      "name": "hasRole",
      "outputs": [
        {
          "internalType": "bool",
          "name": "",
          "type": "bool"
        }
      ],
      "stateMutability": "view",
      "type": "function"
    },
    {
      "inputs": [
        {
          "components": [
            {
              "internalType": "string",
              "name": "name",
              "type": "string"
            },
            {
              "internalType": "string",
              "name": "symbol",
              "type": "string"
            },
            {
              "internalType": "address",
              "name": "owner",
              "type": "address"
            },
            {
              "internalType": "uint256",
              "name": "maxSupply",
              "type": "uint256"
            },
            {
              "internalType": "uint256",
              "name": "reservedSupply",
              "type": "uint256"
            },
            {
              "internalType": "uint256",
              "name": "mintPrice",
              "type": "uint256"
            },
            {
              "internalType": "uint256",
              "name": "tokensPerMint",
              "type": "uint256"
            },
            {
              "internalType": "address payable",
              "name": "treasuryAddress",
              "type": "address"
            }
          ],
          "internalType": "struct NFTCollection.DeploymentConfig",
          "name": "deploymentConfig",
          "type": "tuple"
        },
        {
          "components": [
            {
              "internalType": "string",
              "name": "baseURI",
              "type": "string"
            },
            {
              "internalType": "bool",
              "name": "metadataUpdatable",
              "type": "bool"
            },
            {
              "internalType": "uint256",
              "name": "publicMintStart",
              "type": "uint256"
            },
            {
              "internalType": "uint256",
              "name": "presaleMintStart",
              "type": "uint256"
            },
            {
              "internalType": "string",
              "name": "prerevealTokenURI",
              "type": "string"
            },
            {
              "internalType": "bytes32",
              "name": "presaleMerkleRoot",
              "type": "bytes32"
            },
            {
              "internalType": "uint256",
              "name": "royaltiesBps",
              "type": "uint256"
            },
            {
              "internalType": "address",
              "name": "royaltiesAddress",
              "type": "address"
            }
          ],
          "internalType": "struct NFTCollection.RuntimeConfig",
          "name": "runtimeConfig",
          "type": "tuple"
        }
      ],
      "name": "initialize",
      "outputs": [],
      "stateMutability": "nonpayable",
      "type": "function"
    },
    {
      "inputs": [
        {
          "internalType": "address",
          "name": "owner",
          "type": "address"
        },
        {
          "internalType": "address",
          "name": "operator",
          "type": "address"
        }
      ],
      "name": "isApprovedForAll",
      "outputs": [
        {
          "internalType": "bool",
          "name": "",
          "type": "bool"
        }
      ],
      "stateMutability": "view",
      "type": "function"
    },
    {
      "inputs": [
        {
          "internalType": "address",
          "name": "wallet",
          "type": "address"
        },
        {
          "internalType": "bytes32[]",
          "name": "proof",
          "type": "bytes32[]"
        }
      ],
      "name": "isWhitelisted",
      "outputs": [
        {
          "internalType": "bool",
          "name": "",
          "type": "bool"
        }
      ],
      "stateMutability": "view",
      "type": "function"
    },
    {
      "inputs": [],
      "name": "maxSupply",
      "outputs": [
        {
          "internalType": "uint256",
          "name": "",
          "type": "uint256"
        }
      ],
      "stateMutability": "view",
      "type": "function"
    },
    {
      "inputs": [],
      "name": "metadataUpdatable",
      "outputs": [
        {
          "internalType": "bool",
          "name": "",
          "type": "bool"
        }
      ],
      "stateMutability": "view",
      "type": "function"
    },
    {
      "inputs": [
        {
          "internalType": "uint256",
          "name": "amount",
          "type": "uint256"
        }
      ],
      "name": "mint",
      "outputs": [],
      "stateMutability": "payable",
      "type": "function"
    },
    {
      "inputs": [],
      "name": "mintPrice",
      "outputs": [
        {
          "internalType": "uint256",
          "name": "",
          "type": "uint256"
        }
      ],
      "stateMutability": "view",
      "type": "function"
    },
    {
      "inputs": [],
      "name": "mintingActive",
      "outputs": [
        {
          "internalType": "bool",
          "name": "",
          "type": "bool"
        }
      ],
      "stateMutability": "view",
      "type": "function"
    },
    {
      "inputs": [],
      "name": "name",
      "outputs": [
        {
          "internalType": "string",
          "name": "",
          "type": "string"
        }
      ],
      "stateMutability": "view",
      "type": "function"
    },
    {
      "inputs": [],
      "name": "owner",
      "outputs": [
        {
          "internalType": "address",
          "name": "",
          "type": "address"
        }
      ],
      "stateMutability": "view",
      "type": "function"
    },
    {
      "inputs": [
        {
          "internalType": "uint256",
          "name": "tokenId",
          "type": "uint256"
        }
      ],
      "name": "ownerOf",
      "outputs": [
        {
          "internalType": "address",
          "name": "",
          "type": "address"
        }
      ],
      "stateMutability": "view",
      "type": "function"
    },
    {
      "inputs": [],
      "name": "prerevealTokenURI",
      "outputs": [
        {
          "internalType": "string",
          "name": "",
          "type": "string"
        }
      ],
      "stateMutability": "view",
      "type": "function"
    },
    {
      "inputs": [],
      "name": "presaleActive",
      "outputs": [
        {
          "internalType": "bool",
          "name": "",
          "type": "bool"
        }
      ],
      "stateMutability": "view",
      "type": "function"
    },
    {
      "inputs": [],
      "name": "presaleMerkleRoot",
      "outputs": [
        {
          "internalType": "bytes32",
          "name": "",
          "type": "bytes32"
        }
      ],
      "stateMutability": "view",
      "type": "function"
    },
    {
      "inputs": [
        {
          "internalType": "uint256",
          "name": "amount",
          "type": "uint256"
        },
        {
          "internalType": "bytes32[]",
          "name": "proof",
          "type": "bytes32[]"
        }
      ],
      "name": "presaleMint",
      "outputs": [],
      "stateMutability": "payable",
      "type": "function"
    },
    {
      "inputs": [],
      "name": "presaleMintStart",
      "outputs": [
        {
          "internalType": "uint256",
          "name": "",
          "type": "uint256"
        }
      ],
      "stateMutability": "view",
      "type": "function"
    },
    {
      "inputs": [],
      "name": "publicMintStart",
      "outputs": [
        {
          "internalType": "uint256",
          "name": "",
          "type": "uint256"
        }
      ],
      "stateMutability": "view",
      "type": "function"
    },
    {
      "inputs": [
        {
          "internalType": "bytes32",
          "name": "role",
          "type": "bytes32"
        },
        {
          "internalType": "address",
          "name": "account",
          "type": "address"
        }
      ],
      "name": "renounceRole",
      "outputs": [],
      "stateMutability": "nonpayable",
      "type": "function"
    },
    {
      "inputs": [
        {
          "internalType": "address",
          "name": "to",
          "type": "address"
        },
        {
          "internalType": "uint256",
          "name": "amount",
          "type": "uint256"
        }
      ],
      "name": "reserveMint",
      "outputs": [],
      "stateMutability": "nonpayable",
      "type": "function"
    },
    {
      "inputs": [],
      "name": "reserveRemaining",
      "outputs": [
        {
          "internalType": "uint256",
          "name": "",
          "type": "uint256"
        }
      ],
      "stateMutability": "view",
      "type": "function"
    },
    {
      "inputs": [],
      "name": "reservedSupply",
      "outputs": [
        {
          "internalType": "uint256",
          "name": "",
          "type": "uint256"
        }
      ],
      "stateMutability": "view",
      "type": "function"
    },
    {
      "inputs": [
        {
          "internalType": "bytes32",
          "name": "role",
          "type": "bytes32"
        },
        {
          "internalType": "address",
          "name": "account",
          "type": "address"
        }
      ],
      "name": "revokeRole",
      "outputs": [],
      "stateMutability": "nonpayable",
      "type": "function"
    },
    {
      "inputs": [
        {
          "internalType": "uint256",
          "name": "",
          "type": "uint256"
        },
        {
          "internalType": "uint256",
          "name": "salePrice",
          "type": "uint256"
        }
      ],
      "name": "royaltyInfo",
      "outputs": [
        {
          "internalType": "address",
          "name": "receiver",
          "type": "address"
        },
        {
          "internalType": "uint256",
          "name": "royaltyAmount",
          "type": "uint256"
        }
      ],
      "stateMutability": "view",
      "type": "function"
    },
    {
      "inputs": [
        {
          "internalType": "address",
          "name": "from",
          "type": "address"
        },
        {
          "internalType": "address",
          "name": "to",
          "type": "address"
        },
        {
          "internalType": "uint256",
          "name": "tokenId",
          "type": "uint256"
        }
      ],
      "name": "safeTransferFrom",
      "outputs": [],
      "stateMutability": "nonpayable",
      "type": "function"
    },
    {
      "inputs": [
        {
          "internalType": "address",
          "name": "from",
          "type": "address"
        },
        {
          "internalType": "address",
          "name": "to",
          "type": "address"
        },
        {
          "internalType": "uint256",
          "name": "tokenId",
          "type": "uint256"
        },
        {
          "internalType": "bytes",
          "name": "_data",
          "type": "bytes"
        }
      ],
      "name": "safeTransferFrom",
      "outputs": [],
      "stateMutability": "nonpayable",
      "type": "function"
    },
    {
      "inputs": [
        {
          "internalType": "address",
          "name": "operator",
          "type": "address"
        },
        {
          "internalType": "bool",
          "name": "approved",
          "type": "bool"
        }
      ],
      "name": "setApprovalForAll",
      "outputs": [],
      "stateMutability": "nonpayable",
      "type": "function"
    },
    {
      "inputs": [
        {
          "internalType": "bytes4",
          "name": "interfaceId",
          "type": "bytes4"
        }
      ],
      "name": "supportsInterface",
      "outputs": [
        {
          "internalType": "bool",
          "name": "",
          "type": "bool"
        }
      ],
      "stateMutability": "view",
      "type": "function"
    },
    {
      "inputs": [],
      "name": "symbol",
      "outputs": [
        {
          "internalType": "string",
          "name": "",
          "type": "string"
        }
      ],
      "stateMutability": "view",
      "type": "function"
    },
    {
      "inputs": [
        {
          "internalType": "uint256",
          "name": "tokenId",
          "type": "uint256"
        }
      ],
      "name": "tokenURI",
      "outputs": [
        {
          "internalType": "string",
          "name": "",
          "type": "string"
        }
      ],
      "stateMutability": "view",
      "type": "function"
    },
    {
      "inputs": [],
      "name": "tokensPerMint",
      "outputs": [
        {
          "internalType": "uint256",
          "name": "",
          "type": "uint256"
        }
      ],
      "stateMutability": "view",
      "type": "function"
    },
    {
      "inputs": [],
      "name": "totalSupply",
      "outputs": [
        {
          "internalType": "uint256",
          "name": "",
          "type": "uint256"
        }
      ],
      "stateMutability": "view",
      "type": "function"
    },
    {
      "inputs": [
        {
          "internalType": "address",
          "name": "to",
          "type": "address"
        }
      ],
      "name": "transferAdminRights",
      "outputs": [],
      "stateMutability": "nonpayable",
      "type": "function"
    },
    {
      "inputs": [
        {
          "internalType": "address",
          "name": "from",
          "type": "address"
        },
        {
          "internalType": "address",
          "name": "to",
          "type": "address"
        },
        {
          "internalType": "uint256",
          "name": "tokenId",
          "type": "uint256"
        }
      ],
      "name": "transferFrom",
      "outputs": [],
      "stateMutability": "nonpayable",
      "type": "function"
    },
    {
      "inputs": [
        {
          "internalType": "address",
          "name": "newOwner",
          "type": "address"
        }
      ],
      "name": "transferOwnership",
      "outputs": [],
      "stateMutability": "nonpayable",
      "type": "function"
    },
    {
      "inputs": [],
      "name": "treasuryAddress",
      "outputs": [
        {
          "internalType": "address",
          "name": "",
          "type": "address"
        }
      ],
      "stateMutability": "view",
      "type": "function"
    },
    {
      "inputs": [
        {
          "components": [
            {
              "internalType": "string",
              "name": "baseURI",
              "type": "string"
            },
            {
              "internalType": "bool",
              "name": "metadataUpdatable",
              "type": "bool"
            },
            {
              "internalType": "uint256",
              "name": "publicMintStart",
              "type": "uint256"
            },
            {
              "internalType": "uint256",
              "name": "presaleMintStart",
              "type": "uint256"
            },
            {
              "internalType": "string",
              "name": "prerevealTokenURI",
              "type": "string"
            },
            {
              "internalType": "bytes32",
              "name": "presaleMerkleRoot",
              "type": "bytes32"
            },
            {
              "internalType": "uint256",
              "name": "royaltiesBps",
              "type": "uint256"
            },
            {
              "internalType": "address",
              "name": "royaltiesAddress",
              "type": "address"
            }
          ],
          "internalType": "struct NFTCollection.RuntimeConfig",
          "name": "newConfig",
          "type": "tuple"
        }
      ],
      "name": "updateConfig",
      "outputs": [],
      "stateMutability": "nonpayable",
      "type": "function"
    },
    {
      "inputs": [],
      "name": "withdrawFees",
      "outputs": [],
      "stateMutability": "nonpayable",
      "type": "function"
    }
  ],
  "transactionHash": "0xd74a1d8501da4c38d9f60af5a020e09266310af343c2b69e5681311bb564a716",
  "args": [
    {
      "owner": "0xE7D7696C8f11278124f39fB7cDd39fD9442D5026",
      "name": "NFTCollection",
      "symbol": "NFT",
      "maxSupply": 1000,
      "reservedSupply": 0,
      "tokensPerMint": 10,
      "mintPrice": "10000000000000000",
      "treasuryAddress": "0xE7D7696C8f11278124f39fB7cDd39fD9442D5026"
    },
    {
      "baseURI": "",
      "prerevealTokenURI": "",
      "publicMintStart": 0,
      "presaleMintStart": 0,
      "presaleMerkleRoot": "0x0000000000000000000000000000000000000000000000000000000000000000",
      "metadataUpdatable": true,
      "royaltiesBps": 250,
      "royaltiesAddress": "0xE7D7696C8f11278124f39fB7cDd39fD9442D5026"
    }
  ],
  "numDeployments": 1,
  "solcInputHash": "c0208e93fc826ed81c40cd5d2f51f5a9",
  "bytecode": "0x60806040523480156200001157600080fd5b506040516200473d3803806200473d8339810160408190526200003491620009d4565b6040805160208082018084526000808452845192830190945292815281519192909162000064916002916200072f565b5080516200007a9060039060208401906200072f565b50600080555050601b805460ff191690556200009782826200009f565b505062000b24565b600954610100900460ff16620000bc5760095460ff1615620000c6565b620000c662000338565b6200012f5760405162461bcd60e51b815260206004820152602e60248201527f496e697469616c697a61626c653a20636f6e747261637420697320616c72656160448201526d191e481a5b9a5d1a585b1a5e995960921b60648201526084015b60405180910390fd5b600954610100900460ff1615801562000152576009805461ffff19166101011790555b601b5460ff1615620001a75760405162461bcd60e51b815260206004820152601560248201527f43616e6e6f7420626520696e697469616c697a65640000000000000000000000604482015260640162000126565b620001b28362000356565b620001cd6000805160206200471d833981519152336200053c565b6040830151620001dd90620005e1565b825180518491601391620001f99183916020909101906200072f565b5060208281015180516200021492600185019201906200072f565b5060408201516002820180546001600160a01b03199081166001600160a01b0393841617909155606084015160038401556080840151600484015560a0840151600584015560c0840151600684015560e090930151600790920180549093169116179055815180518391600b91620002949183916020909101906200072f565b5060208281015160018301805460ff1916911515919091179055604083015160028301556060830151600383015560808301518051620002db92600485019201906200072f565b5060a0820151600582015560c0820151600682015560e090910151600790910180546001600160a01b0319166001600160a01b039092169190911790556080830151600a55801562000333576009805461ff00191690555b505050565b600062000350306200069c60201b620019791760201c565b15905090565b6000816060015111620003ac5760405162461bcd60e51b815260206004820152601f60248201527f4d6178696d756d20737570706c79206d757374206265206e6f6e2d7a65726f00604482015260640162000126565b60008160c0015111620004025760405162461bcd60e51b815260206004820181905260248201527f546f6b656e7320706572206d696e74206d757374206265206e6f6e2d7a65726f604482015260640162000126565b60e08101516001600160a01b0316620004725760405162461bcd60e51b815260206004820152602b60248201527f547265617375727920616464726573732063616e6e6f7420626520746865206e60448201526a756c6c206164647265737360a81b606482015260840162000126565b60408101516001600160a01b0316620004ce5760405162461bcd60e51b815260206004820152601b60248201527f436f6e7472616374206d757374206861766520616e206f776e65720000000000604482015260640162000126565b806060015181608001511115620005395760405162461bcd60e51b815260206004820152602860248201527f52657365727665206d757374206265206c657373207468616e206d6178696d756044820152676d20737570706c7960c01b606482015260840162000126565b50565b60008281526008602090815260408083206001600160a01b038516845290915290205460ff16620005dd5760008281526008602090815260408083206001600160a01b03851684529091529020805460ff191660011790556200059c3390565b6001600160a01b0316816001600160a01b0316837f2f8788117e7eff1d82e926ec794901d17c78024a50270940304540a733656f0d60405160405180910390a45b5050565b6015546001600160a01b0316620006086000805160206200471d83398151915282620006ab565b62000615600082620006ab565b601580546001600160a01b0319166001600160a01b0384161790556200064b6000805160206200471d833981519152836200053c565b620006586000836200053c565b816001600160a01b0316816001600160a01b03167f8be0079c531659141344cd1fd0a4f28419497f9722a3daafe3b4186f6b6457e060405160405180910390a35050565b6001600160a01b03163b151590565b60008281526008602090815260408083206001600160a01b038516845290915290205460ff1615620005dd5760008281526008602090815260408083206001600160a01b0385168085529252808320805460ff1916905551339285917ff6391f5c32d9c69d2a47ea670b442974b53935d1edc7fd64eb21e047a839171b9190a45050565b8280546200073d9062000ae7565b90600052602060002090601f016020900481019282620007615760008555620007ac565b82601f106200077c57805160ff1916838001178555620007ac565b82800160010185558215620007ac579182015b82811115620007ac5782518255916020019190600101906200078f565b50620007ba929150620007be565b5090565b5b80821115620007ba5760008155600101620007bf565b634e487b7160e01b600052604160045260246000fd5b60405161010081016001600160401b0381118282101715620008115762000811620007d5565b60405290565b604051601f8201601f191681016001600160401b0381118282101715620008425762000842620007d5565b604052919050565b600082601f8301126200085c57600080fd5b81516001600160401b03811115620008785762000878620007d5565b60206200088e601f8301601f1916820162000817565b8281528582848701011115620008a357600080fd5b60005b83811015620008c3578581018301518282018401528201620008a6565b83811115620008d55760008385840101525b5095945050505050565b80516001600160a01b0381168114620008f757600080fd5b919050565b80518015158114620008f757600080fd5b600061010082840312156200092157600080fd5b6200092b620007eb565b82519091506001600160401b03808211156200094657600080fd5b62000954858386016200084a565b83526200096460208501620008fc565b6020840152604084015160408401526060840151606084015260808401519150808211156200099257600080fd5b50620009a1848285016200084a565b60808301525060a082015160a082015260c082015160c0820152620009c960e08301620008df565b60e082015292915050565b60008060408385031215620009e857600080fd5b82516001600160401b038082111562000a0057600080fd5b90840190610100828703121562000a1657600080fd5b62000a20620007eb565b82518281111562000a3057600080fd5b62000a3e888286016200084a565b82525060208301518281111562000a5457600080fd5b62000a62888286016200084a565b60208301525062000a7660408401620008df565b6040820152606083015160608201526080830151608082015260a083015160a082015260c083015160c082015262000ab160e08401620008df565b60e0820152602086015190945091508082111562000ace57600080fd5b5062000add858286016200090d565b9150509250929050565b600181811c9082168062000afc57607f821691505b6020821081141562000b1e57634e487b7160e01b600052602260045260246000fd5b50919050565b613be98062000b346000396000f3fe6080604052600436106102c95760003560e01c806370a0823111610175578063b5106add116100dc578063e3e1e8ef11610095578063eec1b5d51161006f578063eec1b5d51461084d578063f2fde38b1461086d578063f4ad0f971461088d578063ffa1ad74146108a257600080fd5b8063e3e1e8ef146107dc578063e8a3d485146107ef578063e985e9c51461080457600080fd5b8063b5106add14610729578063b88d4fde14610749578063c5f956af14610769578063c87b56dd14610787578063d547741f146107a7578063d5abeb01146107c757600080fd5b806391d148541161012e57806391d148541461068c57806395d89b41146106ac578063a0712d68146106c1578063a217fddf146106d4578063a22cb465146106e9578063b0ea18021461070957600080fd5b806370a08231146105e257806375b238fc146106025780637ecc2b5614610624578063877bb1ae146106395780638cfec4c0146106595780638da5cb5b1461066e57600080fd5b806336568abe1161023457806353135ca0116101ed5780635c629f4c116101c75780635c629f4c146105825780636352211e146105985780636817c76c146105b85780636c0360eb146105cd57600080fd5b806353135ca0146105295780635a23dd99146105405780635a9b0b891461056057600080fd5b806336568abe1461049257806342842e0e146104b257806344d19d2b146104d25780634653124b146104e7578063476343ee146104fc5780634e6f9dd61461051157600080fd5b806322212e2b1161028657806322212e2b146103b757806323b872dd146103cc578063248a9ca3146103ec5780632a55205a1461041c5780632f2ff15d1461045b57806331f9c9191461047b57600080fd5b806301ffc9a7146102ce57806306fdde03146103035780630807b9e214610325578063081812fc14610344578063095ea7b31461037c57806318160ddd1461039e575b600080fd5b3480156102da57600080fd5b506102ee6102e9366004612d78565b6108b8565b60405190151581526020015b60405180910390f35b34801561030f57600080fd5b506103186108f3565b6040516102fa9190612ded565b34801561033157600080fd5b506019545b6040519081526020016102fa565b34801561035057600080fd5b5061036461035f366004612e00565b610988565b6040516001600160a01b0390911681526020016102fa565b34801561038857600080fd5b5061039c610397366004612e3e565b6109cc565b005b3480156103aa57600080fd5b5060015460005403610336565b3480156103c357600080fd5b50601054610336565b3480156103d857600080fd5b5061039c6103e7366004612e6a565b610a5a565b3480156103f857600080fd5b50610336610407366004612e00565b60009081526008602052604090206001015490565b34801561042857600080fd5b5061043c610437366004612eab565b610a65565b604080516001600160a01b0390931683526020830191909152016102fa565b34801561046757600080fd5b5061039c610476366004612ecd565b610a9c565b34801561048757600080fd5b50600d5442116102ee565b34801561049e57600080fd5b5061039c6104ad366004612ecd565b610ac2565b3480156104be57600080fd5b5061039c6104cd366004612e6a565b610b45565b3480156104de57600080fd5b50601754610336565b3480156104f357600080fd5b50600e54610336565b34801561050857600080fd5b5061039c610b60565b34801561051d57600080fd5b50600c5460ff166102ee565b34801561053557600080fd5b50600e5442116102ee565b34801561054c57600080fd5b506102ee61055b366004612f48565b610b92565b34801561056c57600080fd5b50610575610c70565b6040516102fa919061301f565b34801561058e57600080fd5b50610336600a5481565b3480156105a457600080fd5b506103646105b3366004612e00565b610f92565b3480156105c457600080fd5b50601854610336565b3480156105d957600080fd5b50610318610fa4565b3480156105ee57600080fd5b506103366105fd3660046130e7565b610fb6565b34801561060e57600080fd5b50610336600080516020613b9483398151915281565b34801561063057600080fd5b50610336611004565b34801561064557600080fd5b5061039c610654366004613104565b611032565b34801561066557600080fd5b50600d54610336565b34801561067a57600080fd5b506015546001600160a01b0316610364565b34801561069857600080fd5b506102ee6106a7366004612ecd565b611067565b3480156106b857600080fd5b50610318611092565b61039c6106cf366004612e00565b6110a4565b3480156106e057600080fd5b50610336600081565b3480156106f557600080fd5b5061039c610704366004613158565b611151565b34801561071557600080fd5b5061039c610724366004612e3e565b6111e7565b34801561073557600080fd5b5061039c6107443660046130e7565b61126a565b34801561075557600080fd5b5061039c61076436600461323a565b61135e565b34801561077557600080fd5b50601a546001600160a01b0316610364565b34801561079357600080fd5b506103186107a2366004612e00565b6113a9565b3480156107b357600080fd5b5061039c6107c2366004612ecd565b6114d1565b3480156107d357600080fd5b50601654610336565b61039c6107ea3660046132b9565b6114f7565b3480156107fb57600080fd5b50610318611615565b34801561081057600080fd5b506102ee61081f3660046132eb565b6001600160a01b03918216600090815260076020908152604080832093909416825291909152205460ff1690565b34801561085957600080fd5b5061039c6108683660046133f2565b611692565b34801561087957600080fd5b5061039c6108883660046130e7565b611900565b34801561089957600080fd5b50610318611967565b3480156108ae57600080fd5b506103366127d981565b60006108c382611988565b806108d257506108d2826119d8565b806108ed575063152a902d60e11b6001600160e01b03198316145b92915050565b606060136000018054610905906134f2565b80601f0160208091040260200160405190810160405280929190818152602001828054610931906134f2565b801561097e5780601f106109535761010080835404028352916020019161097e565b820191906000526020600020905b81548152906001019060200180831161096157829003601f168201915b5050505050905090565b600061099382611a0d565b6109b0576040516333d1c03960e21b815260040160405180910390fd5b506000908152600660205260409020546001600160a01b031690565b60006109d782610f92565b9050806001600160a01b0316836001600160a01b03161415610a0c5760405163250fdee360e21b815260040160405180910390fd5b336001600160a01b03821614801590610a2c5750610a2a813361081f565b155b15610a4a576040516367d9dca160e11b815260040160405180910390fd5b610a55838383611a38565b505050565b610a55838383611a94565b6012546011546001600160a01b039091169060009061271090610a89908590613543565b610a939190613578565b90509250929050565b600082815260086020526040902060010154610ab88133611c82565b610a558383611ce6565b6001600160a01b0381163314610b375760405162461bcd60e51b815260206004820152602f60248201527f416363657373436f6e74726f6c3a2063616e206f6e6c792072656e6f756e636560448201526e103937b632b9903337b91039b2b63360891b60648201526084015b60405180910390fd5b610b418282611d6c565b5050565b610a558383836040518060200160405280600081525061135e565b600080516020613b94833981519152610b798133611c82565b601a54610b8f906001600160a01b031647611dd3565b50565b6001600160a01b0383166000908152601c602052604081205460ff1615610bec5760405162461bcd60e51b815260206004820152600e60248201526d105b1c9958591e481b5a5b9d195960921b6044820152606401610b2e565b6040516bffffffffffffffffffffffff19606086901b166020820152600090603401604051602081830303815290604052805190602001209050610c67848480806020026020016040519081016040528093929190818152602001838360200280828437600092019190915250506010549150849050611eec565b95945050505050565b610c78612bfd565b6127d981526040805161010081019091526013805482908290610c9a906134f2565b80601f0160208091040260200160405190810160405280929190818152602001828054610cc6906134f2565b8015610d135780601f10610ce857610100808354040283529160200191610d13565b820191906000526020600020905b815481529060010190602001808311610cf657829003601f168201915b50505050508152602001600182018054610d2c906134f2565b80601f0160208091040260200160405190810160405280929190818152602001828054610d58906134f2565b8015610da55780601f10610d7a57610100808354040283529160200191610da5565b820191906000526020600020905b815481529060010190602001808311610d8857829003601f168201915b505050918352505060028201546001600160a01b0390811660208084019190915260038401546040808501919091526004850154606085015260058501546080850152600685015460a085015260079094015490911660c09092019190915283019190915280516101008101909152600b805482908290610e25906134f2565b80601f0160208091040260200160405190810160405280929190818152602001828054610e51906134f2565b8015610e9e5780601f10610e7357610100808354040283529160200191610e9e565b820191906000526020600020905b815481529060010190602001808311610e8157829003601f168201915b5050509183525050600182015460ff16151560208201526002820154604082015260038201546060820152600482018054608090920191610ede906134f2565b80601f0160208091040260200160405190810160405280929190818152602001828054610f0a906134f2565b8015610f575780601f10610f2c57610100808354040283529160200191610f57565b820191906000526020600020905b815481529060010190602001808311610f3a57829003601f168201915b50505091835250506005820154602082015260068201546040808301919091526007909201546001600160a01b031660609091015282015290565b6000610f9d82611f02565b5192915050565b6060600b6000018054610905906134f2565b60006001600160a01b038216610fdf576040516323d3ad8160e21b815260040160405180910390fd5b506001600160a01b03166000908152600560205260409020546001600160401b031690565b6000600a546110166001546000540390565b601654611023919061358c565b61102d919061358c565b905090565b600080516020613b9483398151915261104b8133611c82565b6110548261201c565b81600b6110618282613710565b50505050565b60009182526008602090815260408084206001600160a01b0393909316845291905290205460ff1690565b606060136001018054610905906134f2565b60185481906110b39082613543565b3410156110f65760405162461bcd60e51b815260206004820152601160248201527014185e5b595b9d081d1bdbc81cdb585b1b607a1b6044820152606401610b2e565b600d5442116111475760405162461bcd60e51b815260206004820152601b60248201527f4d696e74696e6720686173206e6f7420737461727465642079657400000000006044820152606401610b2e565b610b413383612177565b6001600160a01b03821633141561117b5760405163b06307db60e01b815260040160405180910390fd5b3360008181526007602090815260408083206001600160a01b03871680855290835292819020805460ff191686151590811790915590519081529192917f17307eab39ab6107e8899845ad3d59bd9653f200f220920489ca2b5937696c31910160405180910390a35050565b600080516020613b948339815191526112008133611c82565b600a548211156112485760405162461bcd60e51b8152602060048201526013602482015272139bdd08195b9bdd59da081c995cd95c9d9959606a1b6044820152606401610b2e565b81600a600082825461125a919061358c565b90915550610a5590508383612177565b600080516020613b948339815191526112838133611c82565b61129b600080516020613b9483398151915283611067565b156112db5760405162461bcd60e51b815260206004820152601060248201526f20b63932b0b23c9030b71030b236b4b760811b6044820152606401610b2e565b6015546001600160a01b031633141561132e5760405162461bcd60e51b81526020600482015260156024820152740557365207472616e736665724f776e65727368697605c1b6044820152606401610b2e565b611346600080516020613b9483398151915233611d6c565b610b41600080516020613b9483398151915283611ce6565b611369848484611a94565b6001600160a01b0383163b1515801561138b575061138984848484612216565b155b15611061576040516368d2bf6b60e11b815260040160405180910390fd5b60606113b482611a0d565b6113f75760405162461bcd60e51b8152602060048201526014602482015273151bdad95b88191bd95cc81b9bdd08195e1a5cdd60621b6044820152606401610b2e565b6000600b6000018054611409906134f2565b9050116114a057600f805461141d906134f2565b80601f0160208091040260200160405190810160405280929190818152602001828054611449906134f2565b80156114965780601f1061146b57610100808354040283529160200191611496565b820191906000526020600020905b81548152906001019060200180831161147957829003601f168201915b50505050506108ed565b600b6114ab8361230e565b6040516020016114bc9291906138e6565b60405160208183030381529060405292915050565b6000828152600860205260409020600101546114ed8133611c82565b610a558383611d6c565b60185483906115069082613543565b3410156115495760405162461bcd60e51b815260206004820152601160248201527014185e5b595b9d081d1bdbc81cdb585b1b607a1b6044820152606401610b2e565b600e54421161159a5760405162461bcd60e51b815260206004820152601b60248201527f50726573616c6520686173206e6f7420737461727465642079657400000000006044820152606401610b2e565b6115a5338484610b92565b6115f15760405162461bcd60e51b815260206004820152601b60248201527f4e6f742077686974656c697374656420666f722070726573616c6500000000006044820152606401610b2e565b336000818152601c60205260409020805460ff191660011790556110619085612177565b6060600061166661162a600b6006015461230e565b601254611641906001600160a01b0316601461240b565b60405160200161165292919061390b565b6040516020818303038152906040526125ad565b905060008160405160200161167b9190613992565b60408051601f198184030181529190529392505050565b600954610100900460ff166116ad5760095460ff16156116b1565b303b155b6117145760405162461bcd60e51b815260206004820152602e60248201527f496e697469616c697a61626c653a20636f6e747261637420697320616c72656160448201526d191e481a5b9a5d1a585b1a5e995960921b6064820152608401610b2e565b600954610100900460ff16158015611736576009805461ffff19166101011790555b601b5460ff16156117815760405162461bcd60e51b815260206004820152601560248201527410d85b9b9bdd081899481a5b9a5d1a585b1a5e9959605a1b6044820152606401610b2e565b61178a83612712565b6117a2600080516020613b9483398151915233611ce6565b6117af83604001516128eb565b8251805184916013916117c9918391602090910190612cc9565b5060208281015180516117e29260018501920190612cc9565b5060408201516002820180546001600160a01b03199081166001600160a01b0393841617909155606084015160038401556080840151600484015560a0840151600584015560c0840151600684015560e090930151600790920180549093169116179055815180518391600b91611860918391602090910190612cc9565b5060208281015160018301805460ff19169115159190911790556040830151600283015560608301516003830155608083015180516118a59260048501920190612cc9565b5060a0820151600582015560c0820151600682015560e090910151600790910180546001600160a01b0319166001600160a01b039092169190911790556080830151600a558015610a55576009805461ff0019169055505050565b600061190c8133611c82565b6015546001600160a01b038381169116141561195e5760405162461bcd60e51b815260206004820152601160248201527020b63932b0b23c903a34329037bbb732b960791b6044820152606401610b2e565b610b41826128eb565b6060600b6004018054610905906134f2565b6001600160a01b03163b151590565b60006001600160e01b031982166380ac58cd60e01b14806119b957506001600160e01b03198216635b5e139f60e01b145b806108ed57506301ffc9a760e01b6001600160e01b03198316146108ed565b60006001600160e01b03198216637965db0b60e01b14806108ed575063152a902d60e11b6001600160e01b03198316146108ed565b60008054821080156108ed575050600090815260046020526040902054600160e01b900460ff161590565b60008281526006602052604080822080546001600160a01b0319166001600160a01b0387811691821790925591518593918516917f8c5be1e5ebec7d5bd14f71427d1e84f3dd0314c0f7b2291e5b200ac8c7c3b92591a4505050565b6000611a9f82611f02565b9050836001600160a01b031681600001516001600160a01b031614611ad65760405162a1148160e81b815260040160405180910390fd5b6000336001600160a01b0386161480611af45750611af4853361081f565b80611b0f575033611b0484610988565b6001600160a01b0316145b905080611b2f57604051632ce44b5f60e11b815260040160405180910390fd5b6001600160a01b038416611b5657604051633a954ecd60e21b815260040160405180910390fd5b611b6260008487611a38565b6001600160a01b038581166000908152600560209081526040808320805467ffffffffffffffff198082166001600160401b0392831660001901831617909255898616808652838620805493841693831660019081018416949094179055898652600490945282852080546001600160e01b031916909417600160a01b42909216919091021783558701808452922080549193909116611c36576000548214611c3657805460208601516001600160401b0316600160a01b026001600160e01b03199091166001600160a01b038a16171781555b50505082846001600160a01b0316866001600160a01b03167fddf252ad1be2c89b69c2b068fc378daa952ba7f163c4a11628f55a4df523b3ef60405160405180910390a45b5050505050565b611c8c8282611067565b610b4157611ca4816001600160a01b0316601461240b565b611caf83602061240b565b604051602001611cc09291906139d7565b60408051601f198184030181529082905262461bcd60e51b8252610b2e91600401612ded565b611cf08282611067565b610b415760008281526008602090815260408083206001600160a01b03851684529091529020805460ff19166001179055611d283390565b6001600160a01b0316816001600160a01b0316837f2f8788117e7eff1d82e926ec794901d17c78024a50270940304540a733656f0d60405160405180910390a45050565b611d768282611067565b15610b415760008281526008602090815260408083206001600160a01b0385168085529252808320805460ff1916905551339285917ff6391f5c32d9c69d2a47ea670b442974b53935d1edc7fd64eb21e047a839171b9190a45050565b80471015611e235760405162461bcd60e51b815260206004820152601d60248201527f416464726573733a20696e73756666696369656e742062616c616e63650000006044820152606401610b2e565b6000826001600160a01b03168260405160006040518083038185875af1925050503d8060008114611e70576040519150601f19603f3d011682016040523d82523d6000602084013e611e75565b606091505b5050905080610a555760405162461bcd60e51b815260206004820152603a60248201527f416464726573733a20756e61626c6520746f2073656e642076616c75652c207260448201527f6563697069656e74206d617920686176652072657665727465640000000000006064820152608401610b2e565b600082611ef9858461299c565b14949350505050565b60408051606081018252600080825260208201819052918101919091528160005481101561200357600081815260046020908152604091829020825160608101845290546001600160a01b0381168252600160a01b81046001600160401b031692820192909252600160e01b90910460ff161515918101829052906120015780516001600160a01b031615611f98579392505050565b5060001901600081815260046020908152604091829020825160608101845290546001600160a01b038116808352600160a01b82046001600160401b031693830193909352600160e01b900460ff1615159281019290925215611ffc579392505050565b611f98565b505b604051636f96cda160e11b815260040160405180910390fd5b61271060c082013511156120675760405162461bcd60e51b81526020600482015260126024820152710a4def2c2d8e8d2cae640e8dede40d0d2ced60731b6044820152606401610b2e565b600c5460ff16156120755750565b6120856040820160208301613a4c565b600c5460ff161515901515146120dd5760405162461bcd60e51b815260206004820152601860248201527f43616e6e6f7420756e667265657a65206d6574616461746100000000000000006044820152606401610b2e565b6120e781806135a3565b6040516020016120f8929190613a69565b60408051601f198184030181529082905280516020918201209161211f91600b9101613a79565b6040516020818303038152906040528051906020012014610b8f5760405162461bcd60e51b815260206004820152601260248201527126b2ba30b230ba309034b990333937bd32b760711b6044820152606401610b2e565b6019548111156121bc5760405162461bcd60e51b815260206004820152601060248201526f416d6f756e7420746f6f206c6172676560801b6044820152606401610b2e565b6121c4611004565b81111561220c5760405162461bcd60e51b8152602060048201526016602482015275139bdd08195b9bdd59da081d1bdad95b9cc81b19599d60521b6044820152606401610b2e565b610b418282612a10565b604051630a85bd0160e11b81526000906001600160a01b0385169063150b7a029061224b903390899088908890600401613a85565b602060405180830381600087803b15801561226557600080fd5b505af1925050508015612295575060408051601f3d908101601f1916820190925261229291810190613ac2565b60015b6122f0573d8080156122c3576040519150601f19603f3d011682016040523d82523d6000602084013e6122c8565b606091505b5080516122e8576040516368d2bf6b60e11b815260040160405180910390fd5b805181602001fd5b6001600160e01b031916630a85bd0160e11b1490505b949350505050565b6060816123325750506040805180820190915260018152600360fc1b602082015290565b8160005b811561235c578061234681613adf565b91506123559050600a83613578565b9150612336565b6000816001600160401b0381111561237657612376613186565b6040519080825280601f01601f1916602001820160405280156123a0576020820181803683370190505b5090505b8415612306576123b560018361358c565b91506123c2600a86613afa565b6123cd906030613b0e565b60f81b8183815181106123e2576123e2613b26565b60200101906001600160f81b031916908160001a905350612404600a86613578565b94506123a4565b6060600061241a836002613543565b612425906002613b0e565b6001600160401b0381111561243c5761243c613186565b6040519080825280601f01601f191660200182016040528015612466576020820181803683370190505b509050600360fc1b8160008151811061248157612481613b26565b60200101906001600160f81b031916908160001a905350600f60fb1b816001815181106124b0576124b0613b26565b60200101906001600160f81b031916908160001a90535060006124d4846002613543565b6124df906001613b0e565b90505b6001811115612557576f181899199a1a9b1b9c1cb0b131b232b360811b85600f166010811061251357612513613b26565b1a60f81b82828151811061252957612529613b26565b60200101906001600160f81b031916908160001a90535060049490941c9361255081613b3c565b90506124e2565b5083156125a65760405162461bcd60e51b815260206004820181905260248201527f537472696e67733a20686578206c656e67746820696e73756666696369656e746044820152606401610b2e565b9392505050565b8051606090806125cd575050604080516020810190915260008152919050565b600060036125dc836002613b0e565b6125e69190613578565b6125f1906004613543565b90506000612600826020613b0e565b6001600160401b0381111561261757612617613186565b6040519080825280601f01601f191660200182016040528015612641576020820181803683370190505b5090506000604051806060016040528060408152602001613b54604091399050600181016020830160005b868110156126cd576003818a01810151603f601282901c8116860151600c83901c8216870151600684901c831688015192909316870151600891821b60ff94851601821b92841692909201901b91160160e01b83526004909201910161266c565b5060038606600181146126e757600281146126f857612704565b613d3d60f01b600119830152612704565b603d60f81b6000198301525b505050918152949350505050565b60008160600151116127665760405162461bcd60e51b815260206004820152601f60248201527f4d6178696d756d20737570706c79206d757374206265206e6f6e2d7a65726f006044820152606401610b2e565b60008160c00151116127ba5760405162461bcd60e51b815260206004820181905260248201527f546f6b656e7320706572206d696e74206d757374206265206e6f6e2d7a65726f6044820152606401610b2e565b60e08101516001600160a01b03166128285760405162461bcd60e51b815260206004820152602b60248201527f547265617375727920616464726573732063616e6e6f7420626520746865206e60448201526a756c6c206164647265737360a81b6064820152608401610b2e565b60408101516001600160a01b03166128825760405162461bcd60e51b815260206004820152601b60248201527f436f6e7472616374206d757374206861766520616e206f776e657200000000006044820152606401610b2e565b806060015181608001511115610b8f5760405162461bcd60e51b815260206004820152602860248201527f52657365727665206d757374206265206c657373207468616e206d6178696d756044820152676d20737570706c7960c01b6064820152608401610b2e565b6015546001600160a01b031661290f600080516020613b9483398151915282611d6c565b61291a600082611d6c565b601580546001600160a01b0319166001600160a01b03841617905561294d600080516020613b9483398151915283611ce6565b612958600083611ce6565b816001600160a01b0316816001600160a01b03167f8be0079c531659141344cd1fd0a4f28419497f9722a3daafe3b4186f6b6457e060405160405180910390a35050565b600081815b8451811015612a085760008582815181106129be576129be613b26565b602002602001015190508083116129e457600083815260208290526040902092506129f5565b600081815260208490526040902092505b5080612a0081613adf565b9150506129a1565b509392505050565b610b41828260405180602001604052806000815250610a5583838360016000546001600160a01b038516612a5657604051622e076360e81b815260040160405180910390fd5b83612a745760405163b562e8dd60e01b815260040160405180910390fd5b6001600160a01b038516600081815260056020908152604080832080546fffffffffffffffffffffffffffffffff1981166001600160401b038083168c0181169182176801000000000000000067ffffffffffffffff1990941690921783900481168c01811690920217909155858452600490925290912080546001600160e01b031916909217600160a01b429092169190910217905580808501838015612b2557506001600160a01b0387163b15155b15612bae575b60405182906001600160a01b038916906000907fddf252ad1be2c89b69c2b068fc378daa952ba7f163c4a11628f55a4df523b3ef908290a4612b766000888480600101955088612216565b612b93576040516368d2bf6b60e11b815260040160405180910390fd5b80821415612b2b578260005414612ba957600080fd5b612bf4565b5b6040516001830192906001600160a01b038916906000907fddf252ad1be2c89b69c2b068fc378daa952ba7f163c4a11628f55a4df523b3ef908290a480821415612baf575b50600055611c7b565b604051806060016040528060008152602001612c69604051806101000160405280606081526020016060815260200160006001600160a01b031681526020016000815260200160008152602001600081526020016000815260200160006001600160a01b031681525090565b8152602001612cc460405180610100016040528060608152602001600015158152602001600081526020016000815260200160608152602001600080191681526020016000815260200160006001600160a01b031681525090565b905290565b828054612cd5906134f2565b90600052602060002090601f016020900481019282612cf75760008555612d3d565b82601f10612d1057805160ff1916838001178555612d3d565b82800160010185558215612d3d579182015b82811115612d3d578251825591602001919060010190612d22565b50612d49929150612d4d565b5090565b5b80821115612d495760008155600101612d4e565b6001600160e01b031981168114610b8f57600080fd5b600060208284031215612d8a57600080fd5b81356125a681612d62565b60005b83811015612db0578181015183820152602001612d98565b838111156110615750506000910152565b60008151808452612dd9816020860160208601612d95565b601f01601f19169290920160200192915050565b6020815260006125a66020830184612dc1565b600060208284031215612e1257600080fd5b5035919050565b6001600160a01b0381168114610b8f57600080fd5b8035612e3981612e19565b919050565b60008060408385031215612e5157600080fd5b8235612e5c81612e19565b946020939093013593505050565b600080600060608486031215612e7f57600080fd5b8335612e8a81612e19565b92506020840135612e9a81612e19565b929592945050506040919091013590565b60008060408385031215612ebe57600080fd5b50508035926020909101359150565b60008060408385031215612ee057600080fd5b823591506020830135612ef281612e19565b809150509250929050565b60008083601f840112612f0f57600080fd5b5081356001600160401b03811115612f2657600080fd5b6020830191508360208260051b8501011115612f4157600080fd5b9250929050565b600080600060408486031215612f5d57600080fd5b8335612f6881612e19565b925060208401356001600160401b03811115612f8357600080fd5b612f8f86828701612efd565b9497909650939450505050565b60006101008251818552612fb282860182612dc1565b915050602083015115156020850152604083015160408501526060830151606085015260808301518482036080860152612fec8282612dc1565b60a0858101519087015260c0808601519087015260e0948501516001600160a01b03169490950193909352509192915050565b602081528151602082015260006020830151606060408401528051610100806080860152613051610180860183612dc1565b91506020830151607f198684030160a087015261306e8382612dc1565b92505060018060a01b0360408401511660c0860152606083015160e08601526080830151818601525060a082015161012085015260c082015161014085015260e082015191506130ca6101608501836001600160a01b03169052565b6040850151848203601f190160608601529150610c678183612f9c565b6000602082840312156130f957600080fd5b81356125a681612e19565b60006020828403121561311657600080fd5b81356001600160401b0381111561312c57600080fd5b820161010081850312156125a657600080fd5b8015158114610b8f57600080fd5b8035612e398161313f565b6000806040838503121561316b57600080fd5b823561317681612e19565b91506020830135612ef28161313f565b634e487b7160e01b600052604160045260246000fd5b60405161010081016001600160401b03811182821017156131bf576131bf613186565b60405290565b60006001600160401b03808411156131df576131df613186565b604051601f8501601f19908116603f0116810190828211818310171561320757613207613186565b8160405280935085815286868601111561322057600080fd5b858560208301376000602087830101525050509392505050565b6000806000806080858703121561325057600080fd5b843561325b81612e19565b9350602085013561326b81612e19565b92506040850135915060608501356001600160401b0381111561328d57600080fd5b8501601f8101871361329e57600080fd5b6132ad878235602084016131c5565b91505092959194509250565b6000806000604084860312156132ce57600080fd5b8335925060208401356001600160401b03811115612f8357600080fd5b600080604083850312156132fe57600080fd5b823561330981612e19565b91506020830135612ef281612e19565b600082601f83011261332a57600080fd5b6125a6838335602085016131c5565b6000610100828403121561334c57600080fd5b61335461319c565b905081356001600160401b038082111561336d57600080fd5b61337985838601613319565b83526133876020850161314d565b6020840152604084013560408401526060840135606084015260808401359150808211156133b457600080fd5b506133c184828501613319565b60808301525060a082013560a082015260c082013560c08201526133e760e08301612e2e565b60e082015292915050565b6000806040838503121561340557600080fd5b82356001600160401b038082111561341c57600080fd5b90840190610100828703121561343157600080fd5b61343961319c565b82358281111561344857600080fd5b61345488828601613319565b82525060208301358281111561346957600080fd5b61347588828601613319565b60208301525061348760408401612e2e565b6040820152606083013560608201526080830135608082015260a083013560a082015260c083013560c08201526134c060e08401612e2e565b60e0820152935060208501359150808211156134db57600080fd5b506134e885828601613339565b9150509250929050565b600181811c9082168061350657607f821691505b6020821081141561352757634e487b7160e01b600052602260045260246000fd5b50919050565b634e487b7160e01b600052601160045260246000fd5b600081600019048311821515161561355d5761355d61352d565b500290565b634e487b7160e01b600052601260045260246000fd5b60008261358757613587613562565b500490565b60008282101561359e5761359e61352d565b500390565b6000808335601e198436030181126135ba57600080fd5b8301803591506001600160401b038211156135d457600080fd5b602001915036819003821315612f4157600080fd5b601f821115610a5557600081815260208120601f850160051c810160208610156136105750805b601f850160051c820191505b8181101561362f5782815560010161361c565b505050505050565b6001600160401b0383111561364e5761364e613186565b6136628361365c83546134f2565b836135e9565b6000601f841160018114613696576000851561367e5750838201355b600019600387901b1c1916600186901b178355611c7b565b600083815260209020601f19861690835b828110156136c757868501358255602094850194600190920191016136a7565b50868210156136e45760001960f88860031b161c19848701351681555b505060018560011b0183555050505050565b600081356108ed8161313f565b600081356108ed81612e19565b61371a82836135a3565b6001600160401b0381111561373157613731613186565b6137458161373f85546134f2565b856135e9565b6000601f82116001811461377957600083156137615750838201355b600019600385901b1c1916600184901b1785556137d3565b600085815260209020601f19841690835b828110156137aa578685013582556020948501946001909201910161378a565b50848210156137c75760001960f88660031b161c19848701351681555b505060018360011b0185555b505050506137ff6137e6602084016136f6565b6001830160ff1981541660ff8315151681178255505050565b604082013560028201556060820135600382015561382060808301836135a3565b61382e818360048601613637565b505060a0820135600582015560c08201356006820155610b4161385360e08401613703565b6007830180546001600160a01b0319166001600160a01b0392909216919091179055565b60008154613884816134f2565b6001828116801561389c57600181146138ad576138dc565b60ff198416875282870194506138dc565b8560005260208060002060005b858110156138d35781548a8201529084019082016138ba565b50505082870194505b5050505092915050565b60006138f28285613877565b8351613902818360208801612d95565b01949350505050565b7f7b2273656c6c65725f6665655f62617369735f706f696e7473223a200000000081526000835161394381601c850160208801612d95565b731610113332b2afb932b1b4b834b2b73a111d101160611b601c918401918201528351613977816030840160208801612d95565b61227d60f01b60309290910191820152603201949350505050565b7f646174613a6170706c69636174696f6e2f6a736f6e3b6261736536342c0000008152600082516139ca81601d850160208701612d95565b91909101601d0192915050565b7f416363657373436f6e74726f6c3a206163636f756e7420000000000000000000815260008351613a0f816017850160208801612d95565b7001034b99036b4b9b9b4b733903937b6329607d1b6017918401918201528351613a40816028840160208801612d95565b01602801949350505050565b600060208284031215613a5e57600080fd5b81356125a68161313f565b8183823760009101908152919050565b60006125a68284613877565b6001600160a01b0385811682528416602082015260408101839052608060608201819052600090613ab890830184612dc1565b9695505050505050565b600060208284031215613ad457600080fd5b81516125a681612d62565b6000600019821415613af357613af361352d565b5060010190565b600082613b0957613b09613562565b500690565b60008219821115613b2157613b2161352d565b500190565b634e487b7160e01b600052603260045260246000fd5b600081613b4b57613b4b61352d565b50600019019056fe4142434445464748494a4b4c4d4e4f505152535455565758595a6162636465666768696a6b6c6d6e6f707172737475767778797a303132333435363738392b2fa49807205ce4d355092ef5a8a18f56e8913cf4a201fbe287825b095693c21775a2646970667358221220d801c99c3b5dc9c2796099ae94920c8646807ff828d209c384fcf18dbb1cdad464736f6c63430008090033a49807205ce4d355092ef5a8a18f56e8913cf4a201fbe287825b095693c21775",
  "devdoc": {
    "kind": "dev",
    "methods": {
      "approve(address,uint256)": {
        "details": "See {IERC721-approve}."
      },
      "balanceOf(address)": {
        "details": "See {IERC721-balanceOf}."
      },
      "contractURI()": {
        "details": "OpenSea contract metadata"
      },
      "getApproved(uint256)": {
        "details": "See {IERC721-getApproved}."
      },
      "getInfo()": {
        "details": "Convenience helper"
      },
      "getRoleAdmin(bytes32)": {
        "details": "Returns the admin role that controls `role`. See {grantRole} and {revokeRole}. To change a role's admin, use {_setRoleAdmin}."
      },
      "grantRole(bytes32,address)": {
        "details": "Grants `role` to `account`. If `account` had not been already granted `role`, emits a {RoleGranted} event. Requirements: - the caller must have ``role``'s admin role."
      },
      "hasRole(bytes32,address)": {
        "details": "Returns `true` if `account` has been granted `role`."
      },
      "isApprovedForAll(address,address)": {
        "details": "See {IERC721-isApprovedForAll}."
      },
      "name()": {
        "details": "Need name() to support setting it in the initializer instead of constructor"
      },
      "owner()": {
        "details": "Required for easy integration with OpenSea"
      },
      "ownerOf(uint256)": {
        "details": "See {IERC721-ownerOf}."
      },
      "renounceRole(bytes32,address)": {
        "details": "Revokes `role` from the calling account. Roles are often managed via {grantRole} and {revokeRole}: this function's purpose is to provide a mechanism for accounts to lose their privileges if they are compromised (such as when a trusted device is misplaced). If the calling account had been revoked `role`, emits a {RoleRevoked} event. Requirements: - the caller must be `account`."
      },
      "revokeRole(bytes32,address)": {
        "details": "Revokes `role` from `account`. If `account` had been granted `role`, emits a {RoleRevoked} event. Requirements: - the caller must have ``role``'s admin role."
      },
      "royaltyInfo(uint256,uint256)": {
        "details": "ERC2981 token royalty info"
      },
      "safeTransferFrom(address,address,uint256)": {
        "details": "See {IERC721-safeTransferFrom}."
      },
      "safeTransferFrom(address,address,uint256,bytes)": {
        "details": "See {IERC721-safeTransferFrom}."
      },
      "setApprovalForAll(address,bool)": {
        "details": "See {IERC721-setApprovalForAll}."
      },
      "supportsInterface(bytes4)": {
        "details": "See {IERC165-supportsInterface}."
      },
      "symbol()": {
        "details": "Need symbol() to support setting it in the initializer instead of constructor"
      },
      "totalSupply()": {
        "details": "Burned tokens are calculated here, use _totalMinted() if you want to count just minted tokens."
      },
      "transferFrom(address,address,uint256)": {
        "details": "See {IERC721-transferFrom}."
      },
      "updateConfig((string,bool,uint256,uint256,string,bytes32,uint256,address))": {
        "details": "Callable by admin roles only"
      },
      "withdrawFees()": {
        "details": "Callable by admin roles only"
      }
    },
    "version": 1
  },
  "userdoc": {
    "kind": "user",
    "methods": {
      "ADMIN_ROLE()": {
        "notice": "Admin role"
      },
      "VERSION()": {
        "notice": "Contract version, semver-style uint X_YY_ZZ"
      },
      "availableSupply()": {
        "notice": "Get the number of tokens still available for minting"
      },
      "getInfo()": {
        "notice": "Get full contract information"
      },
      "initialize((string,string,address,uint256,uint256,uint256,uint256,address),(string,bool,uint256,uint256,string,bytes32,uint256,address))": {
        "notice": "Contract initializer"
      },
      "isWhitelisted(address,bytes32[])": {
        "notice": "Check if the wallet is whitelisted for the presale"
      },
      "mint(uint256)": {
        "notice": "Mint tokens"
      },
      "mintingActive()": {
        "notice": "Check if public minting is active"
      },
      "owner()": {
        "notice": "Contract owner address"
      },
      "presaleActive()": {
        "notice": "Check if presale minting is active"
      },
      "presaleMint(uint256,bytes32[])": {
        "notice": "Mint tokens if the wallet has been whitelisted"
      },
      "reserveMint(address,uint256)": {
        "notice": "Mint a token from the reserve"
      },
      "reserveRemaining()": {
        "notice": "The number of tokens remaining in the reserve"
      },
      "tokenURI(uint256)": {
        "notice": "Get the token metadata URI"
      },
      "transferAdminRights(address)": {
        "notice": "Transfer contract ownership"
      },
      "transferOwnership(address)": {
        "notice": "Transfer contract ownership"
      },
      "updateConfig((string,bool,uint256,uint256,string,bytes32,uint256,address))": {
        "notice": "Update contract configuration"
      },
      "withdrawFees()": {
        "notice": "Withdraw minting fees to the treasury address"
      }
    },
    "version": 1
  },
  "storageLayout": {
    "storage": [
      {
        "astId": 8054,
        "contract": "contracts/collection/NFTCollectionContract.sol:NFTCollectionContract",
        "label": "_currentIndex",
        "offset": 0,
        "slot": "0",
        "type": "t_uint256"
      },
      {
        "astId": 8056,
        "contract": "contracts/collection/NFTCollectionContract.sol:NFTCollectionContract",
        "label": "_burnCounter",
        "offset": 0,
        "slot": "1",
        "type": "t_uint256"
      },
      {
        "astId": 8058,
        "contract": "contracts/collection/NFTCollectionContract.sol:NFTCollectionContract",
        "label": "_name",
        "offset": 0,
        "slot": "2",
        "type": "t_string_storage"
      },
      {
        "astId": 8060,
        "contract": "contracts/collection/NFTCollectionContract.sol:NFTCollectionContract",
        "label": "_symbol",
        "offset": 0,
        "slot": "3",
        "type": "t_string_storage"
      },
      {
        "astId": 8065,
        "contract": "contracts/collection/NFTCollectionContract.sol:NFTCollectionContract",
        "label": "_ownerships",
        "offset": 0,
        "slot": "4",
        "type": "t_mapping(t_uint256,t_struct(TokenOwnership)8043_storage)"
      },
      {
        "astId": 8070,
        "contract": "contracts/collection/NFTCollectionContract.sol:NFTCollectionContract",
        "label": "_addressData",
        "offset": 0,
        "slot": "5",
        "type": "t_mapping(t_address,t_struct(AddressData)8052_storage)"
      },
      {
        "astId": 8074,
        "contract": "contracts/collection/NFTCollectionContract.sol:NFTCollectionContract",
        "label": "_tokenApprovals",
        "offset": 0,
        "slot": "6",
        "type": "t_mapping(t_uint256,t_address)"
      },
      {
        "astId": 8080,
        "contract": "contracts/collection/NFTCollectionContract.sol:NFTCollectionContract",
        "label": "_operatorApprovals",
        "offset": 0,
        "slot": "7",
        "type": "t_mapping(t_address,t_mapping(t_address,t_bool))"
      },
      {
        "astId": 24,
        "contract": "contracts/collection/NFTCollectionContract.sol:NFTCollectionContract",
        "label": "_roles",
        "offset": 0,
        "slot": "8",
        "type": "t_mapping(t_bytes32,t_struct(RoleData)19_storage)"
      },
      {
        "astId": 515,
        "contract": "contracts/collection/NFTCollectionContract.sol:NFTCollectionContract",
        "label": "_initialized",
        "offset": 0,
        "slot": "9",
        "type": "t_bool"
      },
      {
        "astId": 518,
        "contract": "contracts/collection/NFTCollectionContract.sol:NFTCollectionContract",
        "label": "_initializing",
        "offset": 1,
        "slot": "9",
        "type": "t_bool"
      },
      {
        "astId": 6358,
        "contract": "contracts/collection/NFTCollectionContract.sol:NFTCollectionContract",
        "label": "reserveRemaining",
        "offset": 0,
        "slot": "10",
        "type": "t_uint256"
      },
      {
        "astId": 6726,
        "contract": "contracts/collection/NFTCollectionContract.sol:NFTCollectionContract",
        "label": "_runtimeConfig",
        "offset": 0,
        "slot": "11",
        "type": "t_struct(RuntimeConfig)6327_storage"
      },
      {
        "astId": 6729,
        "contract": "contracts/collection/NFTCollectionContract.sol:NFTCollectionContract",
        "label": "_deploymentConfig",
        "offset": 0,
        "slot": "19",
        "type": "t_struct(DeploymentConfig)6310_storage"
      },
      {
        "astId": 6732,
        "contract": "contracts/collection/NFTCollectionContract.sol:NFTCollectionContract",
        "label": "_preventInitialization",
        "offset": 0,
        "slot": "27",
        "type": "t_bool"
      },
      {
        "astId": 6737,
        "contract": "contracts/collection/NFTCollectionContract.sol:NFTCollectionContract",
        "label": "_presaleMinted",
        "offset": 0,
        "slot": "28",
        "type": "t_mapping(t_address,t_bool)"
      }
    ],
    "types": {
      "t_address": {
        "encoding": "inplace",
        "label": "address",
        "numberOfBytes": "20"
      },
      "t_address_payable": {
        "encoding": "inplace",
        "label": "address payable",
        "numberOfBytes": "20"
      },
      "t_bool": {
        "encoding": "inplace",
        "label": "bool",
        "numberOfBytes": "1"
      },
      "t_bytes32": {
        "encoding": "inplace",
        "label": "bytes32",
        "numberOfBytes": "32"
      },
      "t_mapping(t_address,t_bool)": {
        "encoding": "mapping",
        "key": "t_address",
        "label": "mapping(address => bool)",
        "numberOfBytes": "32",
        "value": "t_bool"
      },
      "t_mapping(t_address,t_mapping(t_address,t_bool))": {
        "encoding": "mapping",
        "key": "t_address",
        "label": "mapping(address => mapping(address => bool))",
        "numberOfBytes": "32",
        "value": "t_mapping(t_address,t_bool)"
      },
      "t_mapping(t_address,t_struct(AddressData)8052_storage)": {
        "encoding": "mapping",
        "key": "t_address",
        "label": "mapping(address => struct ERC721A.AddressData)",
        "numberOfBytes": "32",
        "value": "t_struct(AddressData)8052_storage"
      },
      "t_mapping(t_bytes32,t_struct(RoleData)19_storage)": {
        "encoding": "mapping",
        "key": "t_bytes32",
        "label": "mapping(bytes32 => struct AccessControl.RoleData)",
        "numberOfBytes": "32",
        "value": "t_struct(RoleData)19_storage"
      },
      "t_mapping(t_uint256,t_address)": {
        "encoding": "mapping",
        "key": "t_uint256",
        "label": "mapping(uint256 => address)",
        "numberOfBytes": "32",
        "value": "t_address"
      },
      "t_mapping(t_uint256,t_struct(TokenOwnership)8043_storage)": {
        "encoding": "mapping",
        "key": "t_uint256",
        "label": "mapping(uint256 => struct ERC721A.TokenOwnership)",
        "numberOfBytes": "32",
        "value": "t_struct(TokenOwnership)8043_storage"
      },
      "t_string_storage": {
        "encoding": "bytes",
        "label": "string",
        "numberOfBytes": "32"
      },
      "t_struct(AddressData)8052_storage": {
        "encoding": "inplace",
        "label": "struct ERC721A.AddressData",
        "members": [
          {
            "astId": 8045,
            "contract": "contracts/collection/NFTCollectionContract.sol:NFTCollectionContract",
            "label": "balance",
            "offset": 0,
            "slot": "0",
            "type": "t_uint64"
          },
          {
            "astId": 8047,
            "contract": "contracts/collection/NFTCollectionContract.sol:NFTCollectionContract",
            "label": "numberMinted",
            "offset": 8,
            "slot": "0",
            "type": "t_uint64"
          },
          {
            "astId": 8049,
            "contract": "contracts/collection/NFTCollectionContract.sol:NFTCollectionContract",
            "label": "numberBurned",
            "offset": 16,
            "slot": "0",
            "type": "t_uint64"
          },
          {
            "astId": 8051,
            "contract": "contracts/collection/NFTCollectionContract.sol:NFTCollectionContract",
            "label": "aux",
            "offset": 24,
            "slot": "0",
            "type": "t_uint64"
          }
        ],
        "numberOfBytes": "32"
      },
      "t_struct(DeploymentConfig)6310_storage": {
        "encoding": "inplace",
        "label": "struct NFTCollection.DeploymentConfig",
        "members": [
          {
            "astId": 6295,
            "contract": "contracts/collection/NFTCollectionContract.sol:NFTCollectionContract",
            "label": "name",
            "offset": 0,
            "slot": "0",
            "type": "t_string_storage"
          },
          {
            "astId": 6297,
            "contract": "contracts/collection/NFTCollectionContract.sol:NFTCollectionContract",
            "label": "symbol",
            "offset": 0,
            "slot": "1",
            "type": "t_string_storage"
          },
          {
            "astId": 6299,
            "contract": "contracts/collection/NFTCollectionContract.sol:NFTCollectionContract",
            "label": "owner",
            "offset": 0,
            "slot": "2",
            "type": "t_address"
          },
          {
            "astId": 6301,
            "contract": "contracts/collection/NFTCollectionContract.sol:NFTCollectionContract",
            "label": "maxSupply",
            "offset": 0,
            "slot": "3",
            "type": "t_uint256"
          },
          {
            "astId": 6303,
            "contract": "contracts/collection/NFTCollectionContract.sol:NFTCollectionContract",
            "label": "reservedSupply",
            "offset": 0,
            "slot": "4",
            "type": "t_uint256"
          },
          {
            "astId": 6305,
            "contract": "contracts/collection/NFTCollectionContract.sol:NFTCollectionContract",
            "label": "mintPrice",
            "offset": 0,
            "slot": "5",
            "type": "t_uint256"
          },
          {
            "astId": 6307,
            "contract": "contracts/collection/NFTCollectionContract.sol:NFTCollectionContract",
            "label": "tokensPerMint",
            "offset": 0,
            "slot": "6",
            "type": "t_uint256"
          },
          {
            "astId": 6309,
            "contract": "contracts/collection/NFTCollectionContract.sol:NFTCollectionContract",
            "label": "treasuryAddress",
            "offset": 0,
            "slot": "7",
            "type": "t_address_payable"
          }
        ],
        "numberOfBytes": "256"
      },
      "t_struct(RoleData)19_storage": {
        "encoding": "inplace",
        "label": "struct AccessControl.RoleData",
        "members": [
          {
            "astId": 16,
            "contract": "contracts/collection/NFTCollectionContract.sol:NFTCollectionContract",
            "label": "members",
            "offset": 0,
            "slot": "0",
            "type": "t_mapping(t_address,t_bool)"
          },
          {
            "astId": 18,
            "contract": "contracts/collection/NFTCollectionContract.sol:NFTCollectionContract",
            "label": "adminRole",
            "offset": 0,
            "slot": "1",
            "type": "t_bytes32"
          }
        ],
        "numberOfBytes": "64"
      },
      "t_struct(RuntimeConfig)6327_storage": {
        "encoding": "inplace",
        "label": "struct NFTCollection.RuntimeConfig",
        "members": [
          {
            "astId": 6312,
            "contract": "contracts/collection/NFTCollectionContract.sol:NFTCollectionContract",
            "label": "baseURI",
            "offset": 0,
            "slot": "0",
            "type": "t_string_storage"
          },
          {
            "astId": 6314,
            "contract": "contracts/collection/NFTCollectionContract.sol:NFTCollectionContract",
            "label": "metadataUpdatable",
            "offset": 0,
            "slot": "1",
            "type": "t_bool"
          },
          {
            "astId": 6316,
            "contract": "contracts/collection/NFTCollectionContract.sol:NFTCollectionContract",
            "label": "publicMintStart",
            "offset": 0,
            "slot": "2",
            "type": "t_uint256"
          },
          {
            "astId": 6318,
            "contract": "contracts/collection/NFTCollectionContract.sol:NFTCollectionContract",
            "label": "presaleMintStart",
            "offset": 0,
            "slot": "3",
            "type": "t_uint256"
          },
          {
            "astId": 6320,
            "contract": "contracts/collection/NFTCollectionContract.sol:NFTCollectionContract",
            "label": "prerevealTokenURI",
            "offset": 0,
            "slot": "4",
            "type": "t_string_storage"
          },
          {
            "astId": 6322,
            "contract": "contracts/collection/NFTCollectionContract.sol:NFTCollectionContract",
            "label": "presaleMerkleRoot",
            "offset": 0,
            "slot": "5",
            "type": "t_bytes32"
          },
          {
            "astId": 6324,
            "contract": "contracts/collection/NFTCollectionContract.sol:NFTCollectionContract",
            "label": "royaltiesBps",
            "offset": 0,
            "slot": "6",
            "type": "t_uint256"
          },
          {
            "astId": 6326,
            "contract": "contracts/collection/NFTCollectionContract.sol:NFTCollectionContract",
            "label": "royaltiesAddress",
            "offset": 0,
            "slot": "7",
            "type": "t_address"
          }
        ],
        "numberOfBytes": "256"
      },
      "t_struct(TokenOwnership)8043_storage": {
        "encoding": "inplace",
        "label": "struct ERC721A.TokenOwnership",
        "members": [
          {
            "astId": 8038,
            "contract": "contracts/collection/NFTCollectionContract.sol:NFTCollectionContract",
            "label": "addr",
            "offset": 0,
            "slot": "0",
            "type": "t_address"
          },
          {
            "astId": 8040,
            "contract": "contracts/collection/NFTCollectionContract.sol:NFTCollectionContract",
            "label": "startTimestamp",
            "offset": 20,
            "slot": "0",
            "type": "t_uint64"
          },
          {
            "astId": 8042,
            "contract": "contracts/collection/NFTCollectionContract.sol:NFTCollectionContract",
            "label": "burned",
            "offset": 28,
            "slot": "0",
            "type": "t_bool"
          }
        ],
        "numberOfBytes": "32"
      },
      "t_uint256": {
        "encoding": "inplace",
        "label": "uint256",
        "numberOfBytes": "32"
      },
      "t_uint64": {
        "encoding": "inplace",
        "label": "uint64",
        "numberOfBytes": "8"
      }
    }
  }
}