{
  "address": "0x31D76089f70aee14B39F6C53755D8728c28F83b1",
  "abi": [
    {
      "inputs": [
        {
          "components": [
            {
              "internalType": "string",
              "name": "name",
              "type": "string"
            },
            {
              "internalType": "string",
              "name": "symbol",
              "type": "string"
            },
            {
              "internalType": "address",
              "name": "owner",
              "type": "address"
            },
            {
              "internalType": "uint256",
              "name": "maxSupply",
              "type": "uint256"
            },
            {
              "internalType": "uint256",
              "name": "reservedSupply",
              "type": "uint256"
            },
            {
              "internalType": "uint256",
              "name": "mintPrice",
              "type": "uint256"
            },
            {
              "internalType": "uint256",
              "name": "tokensPerMint",
              "type": "uint256"
            },
            {
              "internalType": "address payable",
              "name": "treasuryAddress",
              "type": "address"
            }
          ],
          "internalType": "struct NFTCollection.DeploymentConfig",
          "name": "deploymentConfig",
          "type": "tuple"
        },
        {
          "components": [
            {
              "internalType": "string",
              "name": "baseURI",
              "type": "string"
            },
            {
              "internalType": "bool",
              "name": "metadataUpdatable",
              "type": "bool"
            },
            {
              "internalType": "uint256",
              "name": "publicMintStart",
              "type": "uint256"
            },
            {
              "internalType": "uint256",
              "name": "presaleMintStart",
              "type": "uint256"
            },
            {
              "internalType": "string",
              "name": "prerevealTokenURI",
              "type": "string"
            },
            {
              "internalType": "bytes32",
              "name": "presaleMerkleRoot",
              "type": "bytes32"
            },
            {
              "internalType": "uint256",
              "name": "royaltiesBps",
              "type": "uint256"
            },
            {
              "internalType": "address",
              "name": "royaltiesAddress",
              "type": "address"
            }
          ],
          "internalType": "struct NFTCollection.RuntimeConfig",
          "name": "runtimeConfig",
          "type": "tuple"
        }
      ],
      "stateMutability": "nonpayable",
      "type": "constructor"
    },
    {
      "anonymous": false,
      "inputs": [
        {
          "indexed": true,
          "internalType": "address",
          "name": "owner",
          "type": "address"
        },
        {
          "indexed": true,
          "internalType": "address",
          "name": "approved",
          "type": "address"
        },
        {
          "indexed": true,
          "internalType": "uint256",
          "name": "tokenId",
          "type": "uint256"
        }
      ],
      "name": "Approval",
      "type": "event"
    },
    {
      "anonymous": false,
      "inputs": [
        {
          "indexed": true,
          "internalType": "address",
          "name": "owner",
          "type": "address"
        },
        {
          "indexed": true,
          "internalType": "address",
          "name": "operator",
          "type": "address"
        },
        {
          "indexed": false,
          "internalType": "bool",
          "name": "approved",
          "type": "bool"
        }
      ],
      "name": "ApprovalForAll",
      "type": "event"
    },
    {
      "anonymous": false,
      "inputs": [
        {
          "indexed": true,
          "internalType": "address",
          "name": "previousOwner",
          "type": "address"
        },
        {
          "indexed": true,
          "internalType": "address",
          "name": "newOwner",
          "type": "address"
        }
      ],
      "name": "OwnershipTransferred",
      "type": "event"
    },
    {
      "anonymous": false,
      "inputs": [
        {
          "indexed": true,
          "internalType": "bytes32",
          "name": "role",
          "type": "bytes32"
        },
        {
          "indexed": true,
          "internalType": "bytes32",
          "name": "previousAdminRole",
          "type": "bytes32"
        },
        {
          "indexed": true,
          "internalType": "bytes32",
          "name": "newAdminRole",
          "type": "bytes32"
        }
      ],
      "name": "RoleAdminChanged",
      "type": "event"
    },
    {
      "anonymous": false,
      "inputs": [
        {
          "indexed": true,
          "internalType": "bytes32",
          "name": "role",
          "type": "bytes32"
        },
        {
          "indexed": true,
          "internalType": "address",
          "name": "account",
          "type": "address"
        },
        {
          "indexed": true,
          "internalType": "address",
          "name": "sender",
          "type": "address"
        }
      ],
      "name": "RoleGranted",
      "type": "event"
    },
    {
      "anonymous": false,
      "inputs": [
        {
          "indexed": true,
          "internalType": "bytes32",
          "name": "role",
          "type": "bytes32"
        },
        {
          "indexed": true,
          "internalType": "address",
          "name": "account",
          "type": "address"
        },
        {
          "indexed": true,
          "internalType": "address",
          "name": "sender",
          "type": "address"
        }
      ],
      "name": "RoleRevoked",
      "type": "event"
    },
    {
      "anonymous": false,
      "inputs": [
        {
          "indexed": true,
          "internalType": "address",
          "name": "from",
          "type": "address"
        },
        {
          "indexed": true,
          "internalType": "address",
          "name": "to",
          "type": "address"
        },
        {
          "indexed": true,
          "internalType": "uint256",
          "name": "tokenId",
          "type": "uint256"
        }
      ],
      "name": "Transfer",
      "type": "event"
    },
    {
      "inputs": [],
      "name": "ADMIN_ROLE",
      "outputs": [
        {
          "internalType": "bytes32",
          "name": "",
          "type": "bytes32"
        }
      ],
      "stateMutability": "view",
      "type": "function"
    },
    {
      "inputs": [],
      "name": "DEFAULT_ADMIN_ROLE",
      "outputs": [
        {
          "internalType": "bytes32",
          "name": "",
          "type": "bytes32"
        }
      ],
      "stateMutability": "view",
      "type": "function"
    },
    {
      "inputs": [],
      "name": "VERSION",
      "outputs": [
        {
          "internalType": "uint256",
          "name": "",
          "type": "uint256"
        }
      ],
      "stateMutability": "view",
      "type": "function"
    },
    {
      "inputs": [
        {
          "internalType": "address",
          "name": "to",
          "type": "address"
        },
        {
          "internalType": "uint256",
          "name": "tokenId",
          "type": "uint256"
        }
      ],
      "name": "approve",
      "outputs": [],
      "stateMutability": "nonpayable",
      "type": "function"
    },
    {
      "inputs": [],
      "name": "availableSupply",
      "outputs": [
        {
          "internalType": "uint256",
          "name": "",
          "type": "uint256"
        }
      ],
      "stateMutability": "view",
      "type": "function"
    },
    {
      "inputs": [
        {
          "internalType": "address",
          "name": "owner",
          "type": "address"
        }
      ],
      "name": "balanceOf",
      "outputs": [
        {
          "internalType": "uint256",
          "name": "",
          "type": "uint256"
        }
      ],
      "stateMutability": "view",
      "type": "function"
    },
    {
      "inputs": [],
      "name": "baseURI",
      "outputs": [
        {
          "internalType": "string",
          "name": "",
          "type": "string"
        }
      ],
      "stateMutability": "view",
      "type": "function"
    },
    {
      "inputs": [],
      "name": "contractURI",
      "outputs": [
        {
          "internalType": "string",
          "name": "",
          "type": "string"
        }
      ],
      "stateMutability": "view",
      "type": "function"
    },
    {
      "inputs": [
        {
          "internalType": "uint256",
          "name": "tokenId",
          "type": "uint256"
        }
      ],
      "name": "getApproved",
      "outputs": [
        {
          "internalType": "address",
          "name": "",
          "type": "address"
        }
      ],
      "stateMutability": "view",
      "type": "function"
    },
    {
      "inputs": [],
      "name": "getInfo",
      "outputs": [
        {
          "components": [
            {
              "internalType": "uint256",
              "name": "version",
              "type": "uint256"
            },
            {
              "components": [
                {
                  "internalType": "string",
                  "name": "name",
                  "type": "string"
                },
                {
                  "internalType": "string",
                  "name": "symbol",
                  "type": "string"
                },
                {
                  "internalType": "address",
                  "name": "owner",
                  "type": "address"
                },
                {
                  "internalType": "uint256",
                  "name": "maxSupply",
                  "type": "uint256"
                },
                {
                  "internalType": "uint256",
                  "name": "reservedSupply",
                  "type": "uint256"
                },
                {
                  "internalType": "uint256",
                  "name": "mintPrice",
                  "type": "uint256"
                },
                {
                  "internalType": "uint256",
                  "name": "tokensPerMint",
                  "type": "uint256"
                },
                {
                  "internalType": "address payable",
                  "name": "treasuryAddress",
                  "type": "address"
                }
              ],
              "internalType": "struct NFTCollection.DeploymentConfig",
              "name": "deploymentConfig",
              "type": "tuple"
            },
            {
              "components": [
                {
                  "internalType": "string",
                  "name": "baseURI",
                  "type": "string"
                },
                {
                  "internalType": "bool",
                  "name": "metadataUpdatable",
                  "type": "bool"
                },
                {
                  "internalType": "uint256",
                  "name": "publicMintStart",
                  "type": "uint256"
                },
                {
                  "internalType": "uint256",
                  "name": "presaleMintStart",
                  "type": "uint256"
                },
                {
                  "internalType": "string",
                  "name": "prerevealTokenURI",
                  "type": "string"
                },
                {
                  "internalType": "bytes32",
                  "name": "presaleMerkleRoot",
                  "type": "bytes32"
                },
                {
                  "internalType": "uint256",
                  "name": "royaltiesBps",
                  "type": "uint256"
                },
                {
                  "internalType": "address",
                  "name": "royaltiesAddress",
                  "type": "address"
                }
              ],
              "internalType": "struct NFTCollection.RuntimeConfig",
              "name": "runtimeConfig",
              "type": "tuple"
            }
          ],
          "internalType": "struct NFTCollection.ContractInfo",
          "name": "info",
          "type": "tuple"
        }
      ],
      "stateMutability": "view",
      "type": "function"
    },
    {
      "inputs": [
        {
          "internalType": "bytes32",
          "name": "role",
          "type": "bytes32"
        }
      ],
      "name": "getRoleAdmin",
      "outputs": [
        {
          "internalType": "bytes32",
          "name": "",
          "type": "bytes32"
        }
      ],
      "stateMutability": "view",
      "type": "function"
    },
    {
      "inputs": [
        {
          "internalType": "bytes32",
          "name": "role",
          "type": "bytes32"
        },
        {
          "internalType": "address",
          "name": "account",
          "type": "address"
        }
      ],
      "name": "grantRole",
      "outputs": [],
      "stateMutability": "nonpayable",
      "type": "function"
    },
    {
      "inputs": [
        {
          "internalType": "bytes32",
          "name": "role",
          "type": "bytes32"
        },
        {
          "internalType": "address",
          "name": "account",
          "type": "address"
        }
      ],
      "name": "hasRole",
      "outputs": [
        {
          "internalType": "bool",
          "name": "",
          "type": "bool"
        }
      ],
      "stateMutability": "view",
      "type": "function"
    },
    {
      "inputs": [
        {
          "components": [
            {
              "internalType": "string",
              "name": "name",
              "type": "string"
            },
            {
              "internalType": "string",
              "name": "symbol",
              "type": "string"
            },
            {
              "internalType": "address",
              "name": "owner",
              "type": "address"
            },
            {
              "internalType": "uint256",
              "name": "maxSupply",
              "type": "uint256"
            },
            {
              "internalType": "uint256",
              "name": "reservedSupply",
              "type": "uint256"
            },
            {
              "internalType": "uint256",
              "name": "mintPrice",
              "type": "uint256"
            },
            {
              "internalType": "uint256",
              "name": "tokensPerMint",
              "type": "uint256"
            },
            {
              "internalType": "address payable",
              "name": "treasuryAddress",
              "type": "address"
            }
          ],
          "internalType": "struct NFTCollection.DeploymentConfig",
          "name": "deploymentConfig",
          "type": "tuple"
        },
        {
          "components": [
            {
              "internalType": "string",
              "name": "baseURI",
              "type": "string"
            },
            {
              "internalType": "bool",
              "name": "metadataUpdatable",
              "type": "bool"
            },
            {
              "internalType": "uint256",
              "name": "publicMintStart",
              "type": "uint256"
            },
            {
              "internalType": "uint256",
              "name": "presaleMintStart",
              "type": "uint256"
            },
            {
              "internalType": "string",
              "name": "prerevealTokenURI",
              "type": "string"
            },
            {
              "internalType": "bytes32",
              "name": "presaleMerkleRoot",
              "type": "bytes32"
            },
            {
              "internalType": "uint256",
              "name": "royaltiesBps",
              "type": "uint256"
            },
            {
              "internalType": "address",
              "name": "royaltiesAddress",
              "type": "address"
            }
          ],
          "internalType": "struct NFTCollection.RuntimeConfig",
          "name": "runtimeConfig",
          "type": "tuple"
        }
      ],
      "name": "initialize",
      "outputs": [],
      "stateMutability": "nonpayable",
      "type": "function"
    },
    {
      "inputs": [
        {
          "internalType": "address",
          "name": "owner",
          "type": "address"
        },
        {
          "internalType": "address",
          "name": "operator",
          "type": "address"
        }
      ],
      "name": "isApprovedForAll",
      "outputs": [
        {
          "internalType": "bool",
          "name": "",
          "type": "bool"
        }
      ],
      "stateMutability": "view",
      "type": "function"
    },
    {
      "inputs": [
        {
          "internalType": "address",
          "name": "wallet",
          "type": "address"
        },
        {
          "internalType": "bytes32[]",
          "name": "proof",
          "type": "bytes32[]"
        }
      ],
      "name": "isWhitelisted",
      "outputs": [
        {
          "internalType": "bool",
          "name": "",
          "type": "bool"
        }
      ],
      "stateMutability": "view",
      "type": "function"
    },
    {
      "inputs": [],
      "name": "maxSupply",
      "outputs": [
        {
          "internalType": "uint256",
          "name": "",
          "type": "uint256"
        }
      ],
      "stateMutability": "view",
      "type": "function"
    },
    {
      "inputs": [],
      "name": "metadataUpdatable",
      "outputs": [
        {
          "internalType": "bool",
          "name": "",
          "type": "bool"
        }
      ],
      "stateMutability": "view",
      "type": "function"
    },
    {
      "inputs": [
        {
          "internalType": "uint256",
          "name": "amount",
          "type": "uint256"
        }
      ],
      "name": "mint",
      "outputs": [],
      "stateMutability": "payable",
      "type": "function"
    },
    {
      "inputs": [],
      "name": "mintPrice",
      "outputs": [
        {
          "internalType": "uint256",
          "name": "",
          "type": "uint256"
        }
      ],
      "stateMutability": "view",
      "type": "function"
    },
    {
      "inputs": [],
      "name": "mintingActive",
      "outputs": [
        {
          "internalType": "bool",
          "name": "",
          "type": "bool"
        }
      ],
      "stateMutability": "view",
      "type": "function"
    },
    {
      "inputs": [],
      "name": "name",
      "outputs": [
        {
          "internalType": "string",
          "name": "",
          "type": "string"
        }
      ],
      "stateMutability": "view",
      "type": "function"
    },
    {
      "inputs": [],
      "name": "owner",
      "outputs": [
        {
          "internalType": "address",
          "name": "",
          "type": "address"
        }
      ],
      "stateMutability": "view",
      "type": "function"
    },
    {
      "inputs": [
        {
          "internalType": "uint256",
          "name": "tokenId",
          "type": "uint256"
        }
      ],
      "name": "ownerOf",
      "outputs": [
        {
          "internalType": "address",
          "name": "",
          "type": "address"
        }
      ],
      "stateMutability": "view",
      "type": "function"
    },
    {
      "inputs": [],
      "name": "prerevealTokenURI",
      "outputs": [
        {
          "internalType": "string",
          "name": "",
          "type": "string"
        }
      ],
      "stateMutability": "view",
      "type": "function"
    },
    {
      "inputs": [],
      "name": "presaleActive",
      "outputs": [
        {
          "internalType": "bool",
          "name": "",
          "type": "bool"
        }
      ],
      "stateMutability": "view",
      "type": "function"
    },
    {
      "inputs": [],
      "name": "presaleMerkleRoot",
      "outputs": [
        {
          "internalType": "bytes32",
          "name": "",
          "type": "bytes32"
        }
      ],
      "stateMutability": "view",
      "type": "function"
    },
    {
      "inputs": [
        {
          "internalType": "uint256",
          "name": "amount",
          "type": "uint256"
        },
        {
          "internalType": "bytes32[]",
          "name": "proof",
          "type": "bytes32[]"
        }
      ],
      "name": "presaleMint",
      "outputs": [],
      "stateMutability": "payable",
      "type": "function"
    },
    {
      "inputs": [],
      "name": "presaleMintStart",
      "outputs": [
        {
          "internalType": "uint256",
          "name": "",
          "type": "uint256"
        }
      ],
      "stateMutability": "view",
      "type": "function"
    },
    {
      "inputs": [],
      "name": "publicMintStart",
      "outputs": [
        {
          "internalType": "uint256",
          "name": "",
          "type": "uint256"
        }
      ],
      "stateMutability": "view",
      "type": "function"
    },
    {
      "inputs": [
        {
          "internalType": "bytes32",
          "name": "role",
          "type": "bytes32"
        },
        {
          "internalType": "address",
          "name": "account",
          "type": "address"
        }
      ],
      "name": "renounceRole",
      "outputs": [],
      "stateMutability": "nonpayable",
      "type": "function"
    },
    {
      "inputs": [
        {
          "internalType": "address",
          "name": "to",
          "type": "address"
        },
        {
          "internalType": "uint256",
          "name": "amount",
          "type": "uint256"
        }
      ],
      "name": "reserveMint",
      "outputs": [],
      "stateMutability": "nonpayable",
      "type": "function"
    },
    {
      "inputs": [],
      "name": "reserveRemaining",
      "outputs": [
        {
          "internalType": "uint256",
          "name": "",
          "type": "uint256"
        }
      ],
      "stateMutability": "view",
      "type": "function"
    },
    {
      "inputs": [],
      "name": "reservedSupply",
      "outputs": [
        {
          "internalType": "uint256",
          "name": "",
          "type": "uint256"
        }
      ],
      "stateMutability": "view",
      "type": "function"
    },
    {
      "inputs": [
        {
          "internalType": "bytes32",
          "name": "role",
          "type": "bytes32"
        },
        {
          "internalType": "address",
          "name": "account",
          "type": "address"
        }
      ],
      "name": "revokeRole",
      "outputs": [],
      "stateMutability": "nonpayable",
      "type": "function"
    },
    {
      "inputs": [
        {
          "internalType": "uint256",
          "name": "",
          "type": "uint256"
        },
        {
          "internalType": "uint256",
          "name": "salePrice",
          "type": "uint256"
        }
      ],
      "name": "royaltyInfo",
      "outputs": [
        {
          "internalType": "address",
          "name": "receiver",
          "type": "address"
        },
        {
          "internalType": "uint256",
          "name": "royaltyAmount",
          "type": "uint256"
        }
      ],
      "stateMutability": "view",
      "type": "function"
    },
    {
      "inputs": [
        {
          "internalType": "address",
          "name": "from",
          "type": "address"
        },
        {
          "internalType": "address",
          "name": "to",
          "type": "address"
        },
        {
          "internalType": "uint256",
          "name": "tokenId",
          "type": "uint256"
        }
      ],
      "name": "safeTransferFrom",
      "outputs": [],
      "stateMutability": "nonpayable",
      "type": "function"
    },
    {
      "inputs": [
        {
          "internalType": "address",
          "name": "from",
          "type": "address"
        },
        {
          "internalType": "address",
          "name": "to",
          "type": "address"
        },
        {
          "internalType": "uint256",
          "name": "tokenId",
          "type": "uint256"
        },
        {
          "internalType": "bytes",
          "name": "_data",
          "type": "bytes"
        }
      ],
      "name": "safeTransferFrom",
      "outputs": [],
      "stateMutability": "nonpayable",
      "type": "function"
    },
    {
      "inputs": [
        {
          "internalType": "address",
          "name": "operator",
          "type": "address"
        },
        {
          "internalType": "bool",
          "name": "approved",
          "type": "bool"
        }
      ],
      "name": "setApprovalForAll",
      "outputs": [],
      "stateMutability": "nonpayable",
      "type": "function"
    },
    {
      "inputs": [
        {
          "internalType": "bytes4",
          "name": "interfaceId",
          "type": "bytes4"
        }
      ],
      "name": "supportsInterface",
      "outputs": [
        {
          "internalType": "bool",
          "name": "",
          "type": "bool"
        }
      ],
      "stateMutability": "view",
      "type": "function"
    },
    {
      "inputs": [],
      "name": "symbol",
      "outputs": [
        {
          "internalType": "string",
          "name": "",
          "type": "string"
        }
      ],
      "stateMutability": "view",
      "type": "function"
    },
    {
      "inputs": [
        {
          "internalType": "uint256",
          "name": "tokenId",
          "type": "uint256"
        }
      ],
      "name": "tokenURI",
      "outputs": [
        {
          "internalType": "string",
          "name": "",
          "type": "string"
        }
      ],
      "stateMutability": "view",
      "type": "function"
    },
    {
      "inputs": [],
      "name": "tokensPerMint",
      "outputs": [
        {
          "internalType": "uint256",
          "name": "",
          "type": "uint256"
        }
      ],
      "stateMutability": "view",
      "type": "function"
    },
    {
      "inputs": [],
      "name": "totalSupply",
      "outputs": [
        {
          "internalType": "uint256",
          "name": "",
          "type": "uint256"
        }
      ],
      "stateMutability": "view",
      "type": "function"
    },
    {
      "inputs": [
        {
          "internalType": "address",
          "name": "to",
          "type": "address"
        }
      ],
      "name": "transferAdminRights",
      "outputs": [],
      "stateMutability": "nonpayable",
      "type": "function"
    },
    {
      "inputs": [
        {
          "internalType": "address",
          "name": "from",
          "type": "address"
        },
        {
          "internalType": "address",
          "name": "to",
          "type": "address"
        },
        {
          "internalType": "uint256",
          "name": "tokenId",
          "type": "uint256"
        }
      ],
      "name": "transferFrom",
      "outputs": [],
      "stateMutability": "nonpayable",
      "type": "function"
    },
    {
      "inputs": [
        {
          "internalType": "address",
          "name": "newOwner",
          "type": "address"
        }
      ],
      "name": "transferOwnership",
      "outputs": [],
      "stateMutability": "nonpayable",
      "type": "function"
    },
    {
      "inputs": [],
      "name": "treasuryAddress",
      "outputs": [
        {
          "internalType": "address",
          "name": "",
          "type": "address"
        }
      ],
      "stateMutability": "view",
      "type": "function"
    },
    {
      "inputs": [
        {
          "components": [
            {
              "internalType": "string",
              "name": "baseURI",
              "type": "string"
            },
            {
              "internalType": "bool",
              "name": "metadataUpdatable",
              "type": "bool"
            },
            {
              "internalType": "uint256",
              "name": "publicMintStart",
              "type": "uint256"
            },
            {
              "internalType": "uint256",
              "name": "presaleMintStart",
              "type": "uint256"
            },
            {
              "internalType": "string",
              "name": "prerevealTokenURI",
              "type": "string"
            },
            {
              "internalType": "bytes32",
              "name": "presaleMerkleRoot",
              "type": "bytes32"
            },
            {
              "internalType": "uint256",
              "name": "royaltiesBps",
              "type": "uint256"
            },
            {
              "internalType": "address",
              "name": "royaltiesAddress",
              "type": "address"
            }
          ],
          "internalType": "struct NFTCollection.RuntimeConfig",
          "name": "newConfig",
          "type": "tuple"
        }
      ],
      "name": "updateConfig",
      "outputs": [],
      "stateMutability": "nonpayable",
      "type": "function"
    },
    {
      "inputs": [],
      "name": "withdrawFees",
      "outputs": [],
      "stateMutability": "nonpayable",
      "type": "function"
    }
  ],
  "transactionHash": "0x411db0733de484052cf18d1232e08a653c0e9c5e5ee3533a6f5d1dd289c588ba",
  "args": [
    {
      "owner": "0xE7D7696C8f11278124f39fB7cDd39fD9442D5026",
      "name": "NFTCollection",
      "symbol": "NFT",
      "maxSupply": 1000,
      "reservedSupply": 0,
      "tokensPerMint": 10,
      "mintPrice": "10000000000000000",
      "treasuryAddress": "0xE7D7696C8f11278124f39fB7cDd39fD9442D5026"
    },
    {
      "baseURI": "",
      "prerevealTokenURI": "",
      "publicMintStart": 0,
      "presaleMintStart": 0,
      "presaleMerkleRoot": "0x0000000000000000000000000000000000000000000000000000000000000000",
      "metadataUpdatable": true,
      "royaltiesBps": 250,
      "royaltiesAddress": "0xE7D7696C8f11278124f39fB7cDd39fD9442D5026"
    }
  ],
  "numDeployments": 3,
  "solcInputHash": "b6c324222d3ee49ee36165237c3a7802",
  "bytecode": "0x60806040523480156200001157600080fd5b5060405162004859380380620048598339810160408190526200003491620008b8565b604080516020808201808452600080845284519283019094528382528251929391926200006392919062000613565b5080516200007990600190602084019062000613565b5050601a805460ff19169055506200009282826200009a565b505062000a08565b600754610100900460ff16620000b75760075460ff1615620000c1565b620000c16200035b565b6200012a5760405162461bcd60e51b815260206004820152602e60248201527f496e697469616c697a61626c653a20636f6e747261637420697320616c72656160448201526d191e481a5b9a5d1a585b1a5e995960921b60648201526084015b60405180910390fd5b600754610100900460ff161580156200014d576007805461ffff19166101011790555b601a5460ff1615620001a25760405162461bcd60e51b815260206004820152601560248201527f43616e6e6f7420626520696e697469616c697a65640000000000000000000000604482015260640162000121565b620001ad8362000379565b620001c860008051602062004839833981519152336200055f565b620001ed6000805160206200483983398151915284604001516200055f60201b60201c565b604083015162000200906000906200055f565b8251805184916012916200021c91839160209091019062000613565b50602082810151805162000237926001850192019062000613565b5060408201516002820180546001600160a01b03199081166001600160a01b0393841617909155606084015160038401556080840151600484015560a0840151600584015560c0840151600684015560e090930151600790920180549093169116179055815180518391600a91620002b791839160209091019062000613565b5060208281015160018301805460ff1916911515919091179055604083015160028301556060830151600383015560808301518051620002fe926004850192019062000613565b5060a0820151600582015560c0820151600682015560e090910151600790910180546001600160a01b0319166001600160a01b039092169190911790556080830151600955801562000356576007805461ff00191690555b505050565b600062000373306200060460201b62001b611760201c565b15905090565b6000816060015111620003cf5760405162461bcd60e51b815260206004820152601f60248201527f4d6178696d756d20737570706c79206d757374206265206e6f6e2d7a65726f00604482015260640162000121565b60008160c0015111620004255760405162461bcd60e51b815260206004820181905260248201527f546f6b656e7320706572206d696e74206d757374206265206e6f6e2d7a65726f604482015260640162000121565b60e08101516001600160a01b0316620004955760405162461bcd60e51b815260206004820152602b60248201527f547265617375727920616464726573732063616e6e6f7420626520746865206e60448201526a756c6c206164647265737360a81b606482015260840162000121565b60408101516001600160a01b0316620004f15760405162461bcd60e51b815260206004820152601b60248201527f436f6e7472616374206d757374206861766520616e206f776e65720000000000604482015260640162000121565b8060600151816080015111156200055c5760405162461bcd60e51b815260206004820152602860248201527f52657365727665206d757374206265206c657373207468616e206d6178696d756044820152676d20737570706c7960c01b606482015260840162000121565b50565b60008281526006602090815260408083206001600160a01b038516845290915290205460ff16620006005760008281526006602090815260408083206001600160a01b03851684529091529020805460ff19166001179055620005bf3390565b6001600160a01b0316816001600160a01b0316837f2f8788117e7eff1d82e926ec794901d17c78024a50270940304540a733656f0d60405160405180910390a45b5050565b6001600160a01b03163b151590565b8280546200062190620009cb565b90600052602060002090601f01602090048101928262000645576000855562000690565b82601f106200066057805160ff191683800117855562000690565b8280016001018555821562000690579182015b828111156200069057825182559160200191906001019062000673565b506200069e929150620006a2565b5090565b5b808211156200069e5760008155600101620006a3565b634e487b7160e01b600052604160045260246000fd5b60405161010081016001600160401b0381118282101715620006f557620006f5620006b9565b60405290565b604051601f8201601f191681016001600160401b0381118282101715620007265762000726620006b9565b604052919050565b600082601f8301126200074057600080fd5b81516001600160401b038111156200075c576200075c620006b9565b602062000772601f8301601f19168201620006fb565b82815285828487010111156200078757600080fd5b60005b83811015620007a75785810183015182820184015282016200078a565b83811115620007b95760008385840101525b5095945050505050565b80516001600160a01b0381168114620007db57600080fd5b919050565b80518015158114620007db57600080fd5b600061010082840312156200080557600080fd5b6200080f620006cf565b82519091506001600160401b03808211156200082a57600080fd5b62000838858386016200072e565b83526200084860208501620007e0565b6020840152604084015160408401526060840151606084015260808401519150808211156200087657600080fd5b5062000885848285016200072e565b60808301525060a082015160a082015260c082015160c0820152620008ad60e08301620007c3565b60e082015292915050565b60008060408385031215620008cc57600080fd5b82516001600160401b0380821115620008e457600080fd5b908401906101008287031215620008fa57600080fd5b62000904620006cf565b8251828111156200091457600080fd5b62000922888286016200072e565b8252506020830151828111156200093857600080fd5b62000946888286016200072e565b6020830152506200095a60408401620007c3565b6040820152606083015160608201526080830151608082015260a083015160a082015260c083015160c08201526200099560e08401620007c3565b60e08201526020860151909450915080821115620009b257600080fd5b50620009c185828601620007f1565b9150509250929050565b600181811c90821680620009e057607f821691505b6020821081141562000a0257634e487b7160e01b600052602260045260246000fd5b50919050565b613e218062000a186000396000f3fe6080604052600436106102c95760003560e01c806370a0823111610175578063b5106add116100dc578063e3e1e8ef11610095578063eec1b5d51161006f578063eec1b5d51461084a578063f2fde38b1461086a578063f4ad0f971461088a578063ffa1ad741461089f57600080fd5b8063e3e1e8ef146107d9578063e8a3d485146107ec578063e985e9c51461080157600080fd5b8063b5106add14610726578063b88d4fde14610746578063c5f956af14610766578063c87b56dd14610784578063d547741f146107a4578063d5abeb01146107c457600080fd5b806391d148541161012e57806391d148541461068957806395d89b41146106a9578063a0712d68146106be578063a217fddf146106d1578063a22cb465146106e6578063b0ea18021461070657600080fd5b806370a08231146105df57806375b238fc146105ff5780637ecc2b5614610621578063877bb1ae146106365780638cfec4c0146106565780638da5cb5b1461066b57600080fd5b806336568abe1161023457806353135ca0116101ed5780635c629f4c116101c75780635c629f4c1461057f5780636352211e146105955780636817c76c146105b55780636c0360eb146105ca57600080fd5b806353135ca0146105265780635a23dd991461053d5780635a9b0b891461055d57600080fd5b806336568abe1461048f57806342842e0e146104af57806344d19d2b146104cf5780634653124b146104e4578063476343ee146104f95780634e6f9dd61461050e57600080fd5b806322212e2b1161028657806322212e2b146103b457806323b872dd146103c9578063248a9ca3146103e95780632a55205a146104195780632f2ff15d1461045857806331f9c9191461047857600080fd5b806301ffc9a7146102ce57806306fdde03146103035780630807b9e214610325578063081812fc14610344578063095ea7b31461037c57806318160ddd1461039e575b600080fd5b3480156102da57600080fd5b506102ee6102e9366004612f0c565b6108b5565b60405190151581526020015b60405180910390f35b34801561030f57600080fd5b506103186108f0565b6040516102fa9190612f81565b34801561033157600080fd5b506018545b6040519081526020016102fa565b34801561035057600080fd5b5061036461035f366004612f94565b610985565b6040516001600160a01b0390911681526020016102fa565b34801561038857600080fd5b5061039c610397366004612fd2565b610a1f565b005b3480156103aa57600080fd5b5061033660085481565b3480156103c057600080fd5b50600f54610336565b3480156103d557600080fd5b5061039c6103e4366004612ffe565b610b35565b3480156103f557600080fd5b50610336610404366004612f94565b60009081526006602052604090206001015490565b34801561042557600080fd5b5061043961043436600461303f565b610b66565b604080516001600160a01b0390931683526020830191909152016102fa565b34801561046457600080fd5b5061039c610473366004613061565b610b9d565b34801561048457600080fd5b50600c5442116102ee565b34801561049b57600080fd5b5061039c6104aa366004613061565b610bc3565b3480156104bb57600080fd5b5061039c6104ca366004612ffe565b610c41565b3480156104db57600080fd5b50601654610336565b3480156104f057600080fd5b50600d54610336565b34801561050557600080fd5b5061039c610c5c565b34801561051a57600080fd5b50600b5460ff166102ee565b34801561053257600080fd5b50600d5442116102ee565b34801561054957600080fd5b506102ee6105583660046130dc565b610c8e565b34801561056957600080fd5b50610572610d6c565b6040516102fa91906131b3565b34801561058b57600080fd5b5061033660095481565b3480156105a157600080fd5b506103646105b0366004612f94565b61108e565b3480156105c157600080fd5b50601754610336565b3480156105d657600080fd5b50610318611105565b3480156105eb57600080fd5b506103366105fa36600461327b565b611117565b34801561060b57600080fd5b50610336600080516020613dcc83398151915281565b34801561062d57600080fd5b5061033661119e565b34801561064257600080fd5b5061039c610651366004613298565b6111c3565b34801561066257600080fd5b50600c54610336565b34801561067757600080fd5b506014546001600160a01b0316610364565b34801561069557600080fd5b506102ee6106a4366004613061565b6111f8565b3480156106b557600080fd5b50610318611223565b61039c6106cc366004612f94565b611235565b3480156106dd57600080fd5b50610336600081565b3480156106f257600080fd5b5061039c6107013660046132ec565b6112e2565b34801561071257600080fd5b5061039c610721366004612fd2565b6112ed565b34801561073257600080fd5b5061039c61074136600461327b565b611370565b34801561075257600080fd5b5061039c6107613660046133ce565b611464565b34801561077257600080fd5b506019546001600160a01b0316610364565b34801561079057600080fd5b5061031861079f366004612f94565b611496565b3480156107b057600080fd5b5061039c6107bf366004613061565b6115ce565b3480156107d057600080fd5b50601554610336565b61039c6107e736600461344d565b6115f4565b3480156107f857600080fd5b50610318611712565b34801561080d57600080fd5b506102ee61081c36600461347f565b6001600160a01b03918216600090815260056020908152604080832093909416825291909152205460ff1690565b34801561085657600080fd5b5061039c610865366004613586565b61178f565b34801561087657600080fd5b5061039c61088536600461327b565b611a1d565b34801561089657600080fd5b50610318611b4f565b3480156108ab57600080fd5b506103366127d881565b60006108c082611b70565b806108cf57506108cf82611bc0565b806108ea575063152a902d60e11b6001600160e01b03198316145b92915050565b60606012600001805461090290613686565b80601f016020809104026020016040519081016040528092919081815260200182805461092e90613686565b801561097b5780601f106109505761010080835404028352916020019161097b565b820191906000526020600020905b81548152906001019060200180831161095e57829003601f168201915b5050505050905090565b6000818152600260205260408120546001600160a01b0316610a035760405162461bcd60e51b815260206004820152602c60248201527f4552433732313a20617070726f76656420717565727920666f72206e6f6e657860448201526b34b9ba32b73a103a37b5b2b760a11b60648201526084015b60405180910390fd5b506000908152600460205260409020546001600160a01b031690565b6000610a2a8261108e565b9050806001600160a01b0316836001600160a01b03161415610a985760405162461bcd60e51b815260206004820152602160248201527f4552433732313a20617070726f76616c20746f2063757272656e74206f776e656044820152603960f91b60648201526084016109fa565b336001600160a01b0382161480610ab45750610ab4813361081c565b610b265760405162461bcd60e51b815260206004820152603860248201527f4552433732313a20617070726f76652063616c6c6572206973206e6f74206f7760448201527f6e6572206e6f7220617070726f76656420666f7220616c6c000000000000000060648201526084016109fa565b610b308383611bf5565b505050565b610b3f3382611c63565b610b5b5760405162461bcd60e51b81526004016109fa906136c1565b610b30838383611d5a565b6011546010546001600160a01b039091169060009061271090610b8a908590613728565b610b94919061375d565b90509250929050565b600082815260066020526040902060010154610bb98133611ef6565b610b308383611f5a565b6001600160a01b0381163314610c335760405162461bcd60e51b815260206004820152602f60248201527f416363657373436f6e74726f6c3a2063616e206f6e6c792072656e6f756e636560448201526e103937b632b9903337b91039b2b63360891b60648201526084016109fa565b610c3d8282611fe0565b5050565b610b3083838360405180602001604052806000815250611464565b600080516020613dcc833981519152610c758133611ef6565b601954610c8b906001600160a01b031647612047565b50565b6001600160a01b0383166000908152601b602052604081205460ff1615610ce85760405162461bcd60e51b815260206004820152600e60248201526d105b1c9958591e481b5a5b9d195960921b60448201526064016109fa565b6040516bffffffffffffffffffffffff19606086901b166020820152600090603401604051602081830303815290604052805190602001209050610d6384848080602002602001604051908101604052809392919081815260200183836020028082843760009201919091525050600f549150849050612160565b95945050505050565b610d74612d91565b6127d881526040805161010081019091526012805482908290610d9690613686565b80601f0160208091040260200160405190810160405280929190818152602001828054610dc290613686565b8015610e0f5780601f10610de457610100808354040283529160200191610e0f565b820191906000526020600020905b815481529060010190602001808311610df257829003601f168201915b50505050508152602001600182018054610e2890613686565b80601f0160208091040260200160405190810160405280929190818152602001828054610e5490613686565b8015610ea15780601f10610e7657610100808354040283529160200191610ea1565b820191906000526020600020905b815481529060010190602001808311610e8457829003601f168201915b505050918352505060028201546001600160a01b0390811660208084019190915260038401546040808501919091526004850154606085015260058501546080850152600685015460a085015260079094015490911660c09092019190915283019190915280516101008101909152600a805482908290610f2190613686565b80601f0160208091040260200160405190810160405280929190818152602001828054610f4d90613686565b8015610f9a5780601f10610f6f57610100808354040283529160200191610f9a565b820191906000526020600020905b815481529060010190602001808311610f7d57829003601f168201915b5050509183525050600182015460ff16151560208201526002820154604082015260038201546060820152600482018054608090920191610fda90613686565b80601f016020809104026020016040519081016040528092919081815260200182805461100690613686565b80156110535780601f1061102857610100808354040283529160200191611053565b820191906000526020600020905b81548152906001019060200180831161103657829003601f168201915b50505091835250506005820154602082015260068201546040808301919091526007909201546001600160a01b031660609091015282015290565b6000818152600260205260408120546001600160a01b0316806108ea5760405162461bcd60e51b815260206004820152602960248201527f4552433732313a206f776e657220717565727920666f72206e6f6e657869737460448201526832b73a103a37b5b2b760b91b60648201526084016109fa565b6060600a600001805461090290613686565b60006001600160a01b0382166111825760405162461bcd60e51b815260206004820152602a60248201527f4552433732313a2062616c616e636520717565727920666f7220746865207a65604482015269726f206164647265737360b01b60648201526084016109fa565b506001600160a01b031660009081526003602052604090205490565b600954600854601554600092916111b491613771565b6111be9190613771565b905090565b600080516020613dcc8339815191526111dc8133611ef6565b6111e582612176565b81600a6111f282826138f6565b50505050565b60009182526006602090815260408084206001600160a01b0393909316845291905290205460ff1690565b60606012600101805461090290613686565b60175481906112449082613728565b3410156112875760405162461bcd60e51b815260206004820152601160248201527014185e5b595b9d081d1bdbc81cdb585b1b607a1b60448201526064016109fa565b600c5442116112d85760405162461bcd60e51b815260206004820152601b60248201527f4d696e74696e6720686173206e6f74207374617274656420796574000000000060448201526064016109fa565b610c3d33836122d1565b610c3d3383836123b1565b600080516020613dcc8339815191526113068133611ef6565b60095482111561134e5760405162461bcd60e51b8152602060048201526013602482015272139bdd08195b9bdd59da081c995cd95c9d9959606a1b60448201526064016109fa565b81600960008282546113609190613771565b90915550610b30905083836122d1565b600080516020613dcc8339815191526113898133611ef6565b6113a1600080516020613dcc833981519152836111f8565b156113e15760405162461bcd60e51b815260206004820152601060248201526f20b63932b0b23c9030b71030b236b4b760811b60448201526064016109fa565b6014546001600160a01b03163314156114345760405162461bcd60e51b81526020600482015260156024820152740557365207472616e736665724f776e65727368697605c1b60448201526064016109fa565b61144c600080516020613dcc83398151915233611fe0565b610c3d600080516020613dcc83398151915283611f5a565b61146e3383611c63565b61148a5760405162461bcd60e51b81526004016109fa906136c1565b6111f284848484612480565b6000818152600260205260409020546060906001600160a01b03166114f45760405162461bcd60e51b8152602060048201526014602482015273151bdad95b88191bd95cc81b9bdd08195e1a5cdd60621b60448201526064016109fa565b6000600a600001805461150690613686565b90501161159d57600e805461151a90613686565b80601f016020809104026020016040519081016040528092919081815260200182805461154690613686565b80156115935780601f1061156857610100808354040283529160200191611593565b820191906000526020600020905b81548152906001019060200180831161157657829003601f168201915b50505050506108ea565b600a6115a8836124b3565b6040516020016115b9929190613acc565b60405160208183030381529060405292915050565b6000828152600660205260409020600101546115ea8133611ef6565b610b308383611fe0565b60175483906116039082613728565b3410156116465760405162461bcd60e51b815260206004820152601160248201527014185e5b595b9d081d1bdbc81cdb585b1b607a1b60448201526064016109fa565b600d5442116116975760405162461bcd60e51b815260206004820152601b60248201527f50726573616c6520686173206e6f74207374617274656420796574000000000060448201526064016109fa565b6116a2338484610c8e565b6116ee5760405162461bcd60e51b815260206004820152601b60248201527f4e6f742077686974656c697374656420666f722070726573616c65000000000060448201526064016109fa565b336000818152601b60205260409020805460ff191660011790556111f290856122d1565b60606000611763611727600a600601546124b3565b60115461173e906001600160a01b031660146125b0565b60405160200161174f929190613af1565b604051602081830303815290604052612752565b90506000816040516020016117789190613b78565b60408051601f198184030181529190529392505050565b600754610100900460ff166117aa5760075460ff16156117ae565b303b155b6118115760405162461bcd60e51b815260206004820152602e60248201527f496e697469616c697a61626c653a20636f6e747261637420697320616c72656160448201526d191e481a5b9a5d1a585b1a5e995960921b60648201526084016109fa565b600754610100900460ff16158015611833576007805461ffff19166101011790555b601a5460ff161561187e5760405162461bcd60e51b815260206004820152601560248201527410d85b9b9bdd081899481a5b9a5d1a585b1a5e9959605a1b60448201526064016109fa565b611887836128b7565b61189f600080516020613dcc83398151915233611f5a565b6118bb600080516020613dcc8339815191528460400151611f5a565b6118cc6000801b8460400151611f5a565b8251805184916012916118e6918391602090910190612e5d565b5060208281015180516118ff9260018501920190612e5d565b5060408201516002820180546001600160a01b03199081166001600160a01b0393841617909155606084015160038401556080840151600484015560a0840151600584015560c0840151600684015560e090930151600790920180549093169116179055815180518391600a9161197d918391602090910190612e5d565b5060208281015160018301805460ff19169115159190911790556040830151600283015560608301516003830155608083015180516119c29260048501920190612e5d565b5060a0820151600582015560c0820151600682015560e090910151600790910180546001600160a01b0319166001600160a01b0390921691909117905560808301516009558015610b30576007805461ff0019169055505050565b6000611a298133611ef6565b6014546001600160a01b0383811691161415611a7b5760405162461bcd60e51b815260206004820152601160248201527020b63932b0b23c903a34329037bbb732b960791b60448201526064016109fa565b601454611aa090600080516020613dcc833981519152906001600160a01b0316611fe0565b601454611ab8906000906001600160a01b0316611fe0565b601480546001600160a01b038481166001600160a01b0319831681179093551690611af290600080516020613dcc83398151915290611f5a565b601454611b0a906000906001600160a01b0316611f5a565b826001600160a01b0316816001600160a01b03167f8be0079c531659141344cd1fd0a4f28419497f9722a3daafe3b4186f6b6457e060405160405180910390a3505050565b6060600a600401805461090290613686565b6001600160a01b03163b151590565b60006001600160e01b031982166380ac58cd60e01b1480611ba157506001600160e01b03198216635b5e139f60e01b145b806108ea57506301ffc9a760e01b6001600160e01b03198316146108ea565b60006001600160e01b03198216637965db0b60e01b14806108ea575063152a902d60e11b6001600160e01b03198316146108ea565b600081815260046020526040902080546001600160a01b0319166001600160a01b0384169081179091558190611c2a8261108e565b6001600160a01b03167f8c5be1e5ebec7d5bd14f71427d1e84f3dd0314c0f7b2291e5b200ac8c7c3b92560405160405180910390a45050565b6000818152600260205260408120546001600160a01b0316611cdc5760405162461bcd60e51b815260206004820152602c60248201527f4552433732313a206f70657261746f7220717565727920666f72206e6f6e657860448201526b34b9ba32b73a103a37b5b2b760a11b60648201526084016109fa565b6000611ce78361108e565b9050806001600160a01b0316846001600160a01b03161480611d225750836001600160a01b0316611d1784610985565b6001600160a01b0316145b80611d5257506001600160a01b0380821660009081526005602090815260408083209388168352929052205460ff165b949350505050565b826001600160a01b0316611d6d8261108e565b6001600160a01b031614611dd15760405162461bcd60e51b815260206004820152602560248201527f4552433732313a207472616e736665722066726f6d20696e636f72726563742060448201526437bbb732b960d91b60648201526084016109fa565b6001600160a01b038216611e335760405162461bcd60e51b8152602060048201526024808201527f4552433732313a207472616e7366657220746f20746865207a65726f206164646044820152637265737360e01b60648201526084016109fa565b611e3e600082611bf5565b6001600160a01b0383166000908152600360205260408120805460019290611e67908490613771565b90915550506001600160a01b0382166000908152600360205260408120805460019290611e95908490613bbd565b909155505060008181526002602052604080822080546001600160a01b0319166001600160a01b0386811691821790925591518493918716917fddf252ad1be2c89b69c2b068fc378daa952ba7f163c4a11628f55a4df523b3ef91a4505050565b611f0082826111f8565b610c3d57611f18816001600160a01b031660146125b0565b611f238360206125b0565b604051602001611f34929190613bd5565b60408051601f198184030181529082905262461bcd60e51b82526109fa91600401612f81565b611f6482826111f8565b610c3d5760008281526006602090815260408083206001600160a01b03851684529091529020805460ff19166001179055611f9c3390565b6001600160a01b0316816001600160a01b0316837f2f8788117e7eff1d82e926ec794901d17c78024a50270940304540a733656f0d60405160405180910390a45050565b611fea82826111f8565b15610c3d5760008281526006602090815260408083206001600160a01b0385168085529252808320805460ff1916905551339285917ff6391f5c32d9c69d2a47ea670b442974b53935d1edc7fd64eb21e047a839171b9190a45050565b804710156120975760405162461bcd60e51b815260206004820152601d60248201527f416464726573733a20696e73756666696369656e742062616c616e636500000060448201526064016109fa565b6000826001600160a01b03168260405160006040518083038185875af1925050503d80600081146120e4576040519150601f19603f3d011682016040523d82523d6000602084013e6120e9565b606091505b5050905080610b305760405162461bcd60e51b815260206004820152603a60248201527f416464726573733a20756e61626c6520746f2073656e642076616c75652c207260448201527f6563697069656e74206d6179206861766520726576657274656400000000000060648201526084016109fa565b60008261216d8584612a90565b14949350505050565b61271060c082013511156121c15760405162461bcd60e51b81526020600482015260126024820152710a4def2c2d8e8d2cae640e8dede40d0d2ced60731b60448201526064016109fa565b600b5460ff16156121cf5750565b6121df6040820160208301613c4a565b600b5460ff161515901515146122375760405162461bcd60e51b815260206004820152601860248201527f43616e6e6f7420756e667265657a65206d65746164617461000000000000000060448201526064016109fa565b6122418180613788565b604051602001612252929190613c67565b60408051601f198184030181529082905280516020918201209161227991600a9101613c77565b6040516020818303038152906040528051906020012014610c8b5760405162461bcd60e51b815260206004820152601260248201527126b2ba30b230ba309034b990333937bd32b760711b60448201526064016109fa565b6018548111156123165760405162461bcd60e51b815260206004820152601060248201526f416d6f756e7420746f6f206c6172676560801b60448201526064016109fa565b61231e61119e565b8111156123665760405162461bcd60e51b8152602060048201526016602482015275139bdd08195b9bdd59da081d1bdad95b9cc81b19599d60521b60448201526064016109fa565b80600860008282546123789190613bbd565b90915550600190505b818111610b305761239f838260085461239a9190613771565b612b04565b806123a981613c83565b915050612381565b816001600160a01b0316836001600160a01b031614156124135760405162461bcd60e51b815260206004820152601960248201527f4552433732313a20617070726f766520746f2063616c6c65720000000000000060448201526064016109fa565b6001600160a01b03838116600081815260056020908152604080832094871680845294825291829020805460ff191686151590811790915591519182527f17307eab39ab6107e8899845ad3d59bd9653f200f220920489ca2b5937696c31910160405180910390a3505050565b61248b848484611d5a565b61249784848484612b1e565b6111f25760405162461bcd60e51b81526004016109fa90613c9e565b6060816124d75750506040805180820190915260018152600360fc1b602082015290565b8160005b811561250157806124eb81613c83565b91506124fa9050600a8361375d565b91506124db565b6000816001600160401b0381111561251b5761251b61331a565b6040519080825280601f01601f191660200182016040528015612545576020820181803683370190505b5090505b8415611d525761255a600183613771565b9150612567600a86613cf0565b612572906030613bbd565b60f81b81838151811061258757612587613d04565b60200101906001600160f81b031916908160001a9053506125a9600a8661375d565b9450612549565b606060006125bf836002613728565b6125ca906002613bbd565b6001600160401b038111156125e1576125e161331a565b6040519080825280601f01601f19166020018201604052801561260b576020820181803683370190505b509050600360fc1b8160008151811061262657612626613d04565b60200101906001600160f81b031916908160001a905350600f60fb1b8160018151811061265557612655613d04565b60200101906001600160f81b031916908160001a9053506000612679846002613728565b612684906001613bbd565b90505b60018111156126fc576f181899199a1a9b1b9c1cb0b131b232b360811b85600f16601081106126b8576126b8613d04565b1a60f81b8282815181106126ce576126ce613d04565b60200101906001600160f81b031916908160001a90535060049490941c936126f581613d1a565b9050612687565b50831561274b5760405162461bcd60e51b815260206004820181905260248201527f537472696e67733a20686578206c656e67746820696e73756666696369656e7460448201526064016109fa565b9392505050565b805160609080612772575050604080516020810190915260008152919050565b60006003612781836002613bbd565b61278b919061375d565b612796906004613728565b905060006127a5826020613bbd565b6001600160401b038111156127bc576127bc61331a565b6040519080825280601f01601f1916602001820160405280156127e6576020820181803683370190505b5090506000604051806060016040528060408152602001613d8c604091399050600181016020830160005b86811015612872576003818a01810151603f601282901c8116860151600c83901c8216870151600684901c831688015192909316870151600891821b60ff94851601821b92841692909201901b91160160e01b835260049092019101612811565b50600386066001811461288c576002811461289d576128a9565b613d3d60f01b6001198301526128a9565b603d60f81b6000198301525b505050918152949350505050565b600081606001511161290b5760405162461bcd60e51b815260206004820152601f60248201527f4d6178696d756d20737570706c79206d757374206265206e6f6e2d7a65726f0060448201526064016109fa565b60008160c001511161295f5760405162461bcd60e51b815260206004820181905260248201527f546f6b656e7320706572206d696e74206d757374206265206e6f6e2d7a65726f60448201526064016109fa565b60e08101516001600160a01b03166129cd5760405162461bcd60e51b815260206004820152602b60248201527f547265617375727920616464726573732063616e6e6f7420626520746865206e60448201526a756c6c206164647265737360a81b60648201526084016109fa565b60408101516001600160a01b0316612a275760405162461bcd60e51b815260206004820152601b60248201527f436f6e7472616374206d757374206861766520616e206f776e6572000000000060448201526064016109fa565b806060015181608001511115610c8b5760405162461bcd60e51b815260206004820152602860248201527f52657365727665206d757374206265206c657373207468616e206d6178696d756044820152676d20737570706c7960c01b60648201526084016109fa565b600081815b8451811015612afc576000858281518110612ab257612ab2613d04565b60200260200101519050808311612ad85760008381526020829052604090209250612ae9565b600081815260208490526040902092505b5080612af481613c83565b915050612a95565b509392505050565b610c3d828260405180602001604052806000815250612c1c565b60006001600160a01b0384163b15612c1157604051630a85bd0160e11b81526001600160a01b0385169063150b7a0290612b62903390899088908890600401613d31565b6020604051808303816000875af1925050508015612b9d575060408051601f3d908101601f19168201909252612b9a91810190613d6e565b60015b612bf7573d808015612bcb576040519150601f19603f3d011682016040523d82523d6000602084013e612bd0565b606091505b508051612bef5760405162461bcd60e51b81526004016109fa90613c9e565b805181602001fd5b6001600160e01b031916630a85bd0160e11b149050611d52565b506001949350505050565b612c268383612c4f565b612c336000848484612b1e565b610b305760405162461bcd60e51b81526004016109fa90613c9e565b6001600160a01b038216612ca55760405162461bcd60e51b815260206004820181905260248201527f4552433732313a206d696e7420746f20746865207a65726f206164647265737360448201526064016109fa565b6000818152600260205260409020546001600160a01b031615612d0a5760405162461bcd60e51b815260206004820152601c60248201527f4552433732313a20746f6b656e20616c7265616479206d696e7465640000000060448201526064016109fa565b6001600160a01b0382166000908152600360205260408120805460019290612d33908490613bbd565b909155505060008181526002602052604080822080546001600160a01b0319166001600160a01b03861690811790915590518392907fddf252ad1be2c89b69c2b068fc378daa952ba7f163c4a11628f55a4df523b3ef908290a45050565b604051806060016040528060008152602001612dfd604051806101000160405280606081526020016060815260200160006001600160a01b031681526020016000815260200160008152602001600081526020016000815260200160006001600160a01b031681525090565b8152602001612e5860405180610100016040528060608152602001600015158152602001600081526020016000815260200160608152602001600080191681526020016000815260200160006001600160a01b031681525090565b905290565b828054612e6990613686565b90600052602060002090601f016020900481019282612e8b5760008555612ed1565b82601f10612ea457805160ff1916838001178555612ed1565b82800160010185558215612ed1579182015b82811115612ed1578251825591602001919060010190612eb6565b50612edd929150612ee1565b5090565b5b80821115612edd5760008155600101612ee2565b6001600160e01b031981168114610c8b57600080fd5b600060208284031215612f1e57600080fd5b813561274b81612ef6565b60005b83811015612f44578181015183820152602001612f2c565b838111156111f25750506000910152565b60008151808452612f6d816020860160208601612f29565b601f01601f19169290920160200192915050565b60208152600061274b6020830184612f55565b600060208284031215612fa657600080fd5b5035919050565b6001600160a01b0381168114610c8b57600080fd5b8035612fcd81612fad565b919050565b60008060408385031215612fe557600080fd5b8235612ff081612fad565b946020939093013593505050565b60008060006060848603121561301357600080fd5b833561301e81612fad565b9250602084013561302e81612fad565b929592945050506040919091013590565b6000806040838503121561305257600080fd5b50508035926020909101359150565b6000806040838503121561307457600080fd5b82359150602083013561308681612fad565b809150509250929050565b60008083601f8401126130a357600080fd5b5081356001600160401b038111156130ba57600080fd5b6020830191508360208260051b85010111156130d557600080fd5b9250929050565b6000806000604084860312156130f157600080fd5b83356130fc81612fad565b925060208401356001600160401b0381111561311757600080fd5b61312386828701613091565b9497909650939450505050565b6000610100825181855261314682860182612f55565b9150506020830151151560208501526040830151604085015260608301516060850152608083015184820360808601526131808282612f55565b60a0858101519087015260c0808601519087015260e0948501516001600160a01b03169490950193909352509192915050565b6020815281516020820152600060208301516060604084015280516101008060808601526131e5610180860183612f55565b91506020830151607f198684030160a08701526132028382612f55565b92505060018060a01b0360408401511660c0860152606083015160e08601526080830151818601525060a082015161012085015260c082015161014085015260e0820151915061325e6101608501836001600160a01b03169052565b6040850151848203601f190160608601529150610d638183613130565b60006020828403121561328d57600080fd5b813561274b81612fad565b6000602082840312156132aa57600080fd5b81356001600160401b038111156132c057600080fd5b8201610100818503121561274b57600080fd5b8015158114610c8b57600080fd5b8035612fcd816132d3565b600080604083850312156132ff57600080fd5b823561330a81612fad565b91506020830135613086816132d3565b634e487b7160e01b600052604160045260246000fd5b60405161010081016001600160401b03811182821017156133535761335361331a565b60405290565b60006001600160401b03808411156133735761337361331a565b604051601f8501601f19908116603f0116810190828211818310171561339b5761339b61331a565b816040528093508581528686860111156133b457600080fd5b858560208301376000602087830101525050509392505050565b600080600080608085870312156133e457600080fd5b84356133ef81612fad565b935060208501356133ff81612fad565b92506040850135915060608501356001600160401b0381111561342157600080fd5b8501601f8101871361343257600080fd5b61344187823560208401613359565b91505092959194509250565b60008060006040848603121561346257600080fd5b8335925060208401356001600160401b0381111561311757600080fd5b6000806040838503121561349257600080fd5b823561349d81612fad565b9150602083013561308681612fad565b600082601f8301126134be57600080fd5b61274b83833560208501613359565b600061010082840312156134e057600080fd5b6134e8613330565b905081356001600160401b038082111561350157600080fd5b61350d858386016134ad565b835261351b602085016132e1565b60208401526040840135604084015260608401356060840152608084013591508082111561354857600080fd5b50613555848285016134ad565b60808301525060a082013560a082015260c082013560c082015261357b60e08301612fc2565b60e082015292915050565b6000806040838503121561359957600080fd5b82356001600160401b03808211156135b057600080fd5b9084019061010082870312156135c557600080fd5b6135cd613330565b8235828111156135dc57600080fd5b6135e8888286016134ad565b8252506020830135828111156135fd57600080fd5b613609888286016134ad565b60208301525061361b60408401612fc2565b6040820152606083013560608201526080830135608082015260a083013560a082015260c083013560c082015261365460e08401612fc2565b60e08201529350602085013591508082111561366f57600080fd5b5061367c858286016134cd565b9150509250929050565b600181811c9082168061369a57607f821691505b602082108114156136bb57634e487b7160e01b600052602260045260246000fd5b50919050565b60208082526031908201527f4552433732313a207472616e736665722063616c6c6572206973206e6f74206f6040820152701ddb995c881b9bdc88185c1c1c9bdd9959607a1b606082015260800190565b634e487b7160e01b600052601160045260246000fd5b600081600019048311821515161561374257613742613712565b500290565b634e487b7160e01b600052601260045260246000fd5b60008261376c5761376c613747565b500490565b60008282101561378357613783613712565b500390565b6000808335601e1984360301811261379f57600080fd5b8301803591506001600160401b038211156137b957600080fd5b6020019150368190038213156130d557600080fd5b601f821115610b3057600081815260208120601f850160051c810160208610156137f55750805b601f850160051c820191505b8181101561381457828155600101613801565b505050505050565b6001600160401b038311156138335761383361331a565b613847836138418354613686565b836137ce565b6000601f84116001811461387b57600085156138635750838201355b600019600387901b1c1916600186901b1783556138d5565b600083815260209020601f19861690835b828110156138ac578685013582556020948501946001909201910161388c565b50868210156138c95760001960f88860031b161c19848701351681555b505060018560011b0183555b5050505050565b600081356108ea816132d3565b600081356108ea81612fad565b6139008283613788565b6001600160401b038111156139175761391761331a565b61392b816139258554613686565b856137ce565b6000601f82116001811461395f57600083156139475750838201355b600019600385901b1c1916600184901b1785556139b9565b600085815260209020601f19841690835b828110156139905786850135825560209485019460019092019101613970565b50848210156139ad5760001960f88660031b161c19848701351681555b505060018360011b0185555b505050506139e56139cc602084016138dc565b6001830160ff1981541660ff8315151681178255505050565b6040820135600282015560608201356003820155613a066080830183613788565b613a1481836004860161381c565b505060a0820135600582015560c08201356006820155610c3d613a3960e084016138e9565b6007830180546001600160a01b0319166001600160a01b0392909216919091179055565b60008154613a6a81613686565b60018281168015613a825760018114613a9357613ac2565b60ff19841687528287019450613ac2565b8560005260208060002060005b85811015613ab95781548a820152908401908201613aa0565b50505082870194505b5050505092915050565b6000613ad88285613a5d565b8351613ae8818360208801612f29565b01949350505050565b7f7b2273656c6c65725f6665655f62617369735f706f696e7473223a2000000000815260008351613b2981601c850160208801612f29565b731610113332b2afb932b1b4b834b2b73a111d101160611b601c918401918201528351613b5d816030840160208801612f29565b61227d60f01b60309290910191820152603201949350505050565b7f646174613a6170706c69636174696f6e2f6a736f6e3b6261736536342c000000815260008251613bb081601d850160208701612f29565b91909101601d0192915050565b60008219821115613bd057613bd0613712565b500190565b7f416363657373436f6e74726f6c3a206163636f756e7420000000000000000000815260008351613c0d816017850160208801612f29565b7001034b99036b4b9b9b4b733903937b6329607d1b6017918401918201528351613c3e816028840160208801612f29565b01602801949350505050565b600060208284031215613c5c57600080fd5b813561274b816132d3565b8183823760009101908152919050565b600061274b8284613a5d565b6000600019821415613c9757613c97613712565b5060010190565b60208082526032908201527f4552433732313a207472616e7366657220746f206e6f6e20455243373231526560408201527131b2b4bb32b91034b6b83632b6b2b73a32b960711b606082015260800190565b600082613cff57613cff613747565b500690565b634e487b7160e01b600052603260045260246000fd5b600081613d2957613d29613712565b506000190190565b6001600160a01b0385811682528416602082015260408101839052608060608201819052600090613d6490830184612f55565b9695505050505050565b600060208284031215613d8057600080fd5b815161274b81612ef656fe4142434445464748494a4b4c4d4e4f505152535455565758595a6162636465666768696a6b6c6d6e6f707172737475767778797a303132333435363738392b2fa49807205ce4d355092ef5a8a18f56e8913cf4a201fbe287825b095693c21775a2646970667358221220e5fa4ff9db491ebc83a8b32192e2851d1fda09fca931d51e62f6661e1569c6ba64736f6c634300080b0033a49807205ce4d355092ef5a8a18f56e8913cf4a201fbe287825b095693c21775",
  "devdoc": {
    "kind": "dev",
    "methods": {
      "approve(address,uint256)": {
        "details": "See {IERC721-approve}."
      },
      "balanceOf(address)": {
        "details": "See {IERC721-balanceOf}."
      },
      "contractURI()": {
        "details": "OpenSea contract metadata"
      },
      "getApproved(uint256)": {
        "details": "See {IERC721-getApproved}."
      },
      "getInfo()": {
        "details": "Convenience helper"
      },
      "getRoleAdmin(bytes32)": {
        "details": "Returns the admin role that controls `role`. See {grantRole} and {revokeRole}. To change a role's admin, use {_setRoleAdmin}."
      },
      "grantRole(bytes32,address)": {
        "details": "Grants `role` to `account`. If `account` had not been already granted `role`, emits a {RoleGranted} event. Requirements: - the caller must have ``role``'s admin role."
      },
      "hasRole(bytes32,address)": {
        "details": "Returns `true` if `account` has been granted `role`."
      },
      "isApprovedForAll(address,address)": {
        "details": "See {IERC721-isApprovedForAll}."
      },
      "name()": {
        "details": "Need name() to support setting it in the initializer instead of constructor"
      },
      "owner()": {
        "details": "Required for easy integration with OpenSea"
      },
      "ownerOf(uint256)": {
        "details": "See {IERC721-ownerOf}."
      },
      "renounceRole(bytes32,address)": {
        "details": "Revokes `role` from the calling account. Roles are often managed via {grantRole} and {revokeRole}: this function's purpose is to provide a mechanism for accounts to lose their privileges if they are compromised (such as when a trusted device is misplaced). If the calling account had been revoked `role`, emits a {RoleRevoked} event. Requirements: - the caller must be `account`."
      },
      "revokeRole(bytes32,address)": {
        "details": "Revokes `role` from `account`. If `account` had been granted `role`, emits a {RoleRevoked} event. Requirements: - the caller must have ``role``'s admin role."
      },
      "royaltyInfo(uint256,uint256)": {
        "details": "ERC2981 token royalty info"
      },
      "safeTransferFrom(address,address,uint256)": {
        "details": "See {IERC721-safeTransferFrom}."
      },
      "safeTransferFrom(address,address,uint256,bytes)": {
        "details": "See {IERC721-safeTransferFrom}."
      },
      "setApprovalForAll(address,bool)": {
        "details": "See {IERC721-setApprovalForAll}."
      },
      "supportsInterface(bytes4)": {
        "details": "See {IERC165-supportsInterface}."
      },
      "symbol()": {
        "details": "Need symbol() to support setting it in the initializer instead of constructor"
      },
      "transferFrom(address,address,uint256)": {
        "details": "See {IERC721-transferFrom}."
      },
      "updateConfig((string,bool,uint256,uint256,string,bytes32,uint256,address))": {
        "details": "Callable by admin roles only"
      },
      "withdrawFees()": {
        "details": "Callable by admin roles only"
      }
    },
    "version": 1
  },
  "userdoc": {
    "kind": "user",
    "methods": {
      "ADMIN_ROLE()": {
        "notice": "Admin role"
      },
      "VERSION()": {
        "notice": "Contract version, semver-style uint X_YY_ZZ"
      },
      "availableSupply()": {
        "notice": "Get the number of tokens still available for minting"
      },
      "getInfo()": {
        "notice": "Get full contract information"
      },
      "initialize((string,string,address,uint256,uint256,uint256,uint256,address),(string,bool,uint256,uint256,string,bytes32,uint256,address))": {
        "notice": "Contract initializer"
      },
      "isWhitelisted(address,bytes32[])": {
        "notice": "Check if the wallet is whitelisted for the presale"
      },
      "mint(uint256)": {
        "notice": "Mint tokens"
      },
      "mintingActive()": {
        "notice": "Check if public minting is active"
      },
      "owner()": {
        "notice": "Contract owner address"
      },
      "presaleActive()": {
        "notice": "Check if presale minting is active"
      },
      "presaleMint(uint256,bytes32[])": {
        "notice": "Mint tokens if the wallet has been whitelisted"
      },
      "reserveMint(address,uint256)": {
        "notice": "Mint a token from the reserve"
      },
      "reserveRemaining()": {
        "notice": "The number of tokens remaining in the reserve"
      },
      "tokenURI(uint256)": {
        "notice": "Get the token metadata URI"
      },
      "totalSupply()": {
        "notice": "The number of currently minted tokens"
      },
      "transferAdminRights(address)": {
        "notice": "Transfer contract ownership"
      },
      "transferOwnership(address)": {
        "notice": "Transfer contract ownership"
      },
      "updateConfig((string,bool,uint256,uint256,string,bytes32,uint256,address))": {
        "notice": "Update contract configuration"
      },
      "withdrawFees()": {
        "notice": "Withdraw minting fees to the treasury address"
      }
    },
    "version": 1
  },
  "storageLayout": {
    "storage": [
      {
        "astId": 1603,
        "contract": "contracts/deployables/NFTCollectionContract.sol:NFTCollectionContract",
        "label": "_name",
        "offset": 0,
        "slot": "0",
        "type": "t_string_storage"
      },
      {
        "astId": 1605,
        "contract": "contracts/deployables/NFTCollectionContract.sol:NFTCollectionContract",
        "label": "_symbol",
        "offset": 0,
        "slot": "1",
        "type": "t_string_storage"
      },
      {
        "astId": 1609,
        "contract": "contracts/deployables/NFTCollectionContract.sol:NFTCollectionContract",
        "label": "_owners",
        "offset": 0,
        "slot": "2",
        "type": "t_mapping(t_uint256,t_address)"
      },
      {
        "astId": 1613,
        "contract": "contracts/deployables/NFTCollectionContract.sol:NFTCollectionContract",
        "label": "_balances",
        "offset": 0,
        "slot": "3",
        "type": "t_mapping(t_address,t_uint256)"
      },
      {
        "astId": 1617,
        "contract": "contracts/deployables/NFTCollectionContract.sol:NFTCollectionContract",
        "label": "_tokenApprovals",
        "offset": 0,
        "slot": "4",
        "type": "t_mapping(t_uint256,t_address)"
      },
      {
        "astId": 1623,
        "contract": "contracts/deployables/NFTCollectionContract.sol:NFTCollectionContract",
        "label": "_operatorApprovals",
        "offset": 0,
        "slot": "5",
        "type": "t_mapping(t_address,t_mapping(t_address,t_bool))"
      },
      {
        "astId": 1044,
        "contract": "contracts/deployables/NFTCollectionContract.sol:NFTCollectionContract",
        "label": "_roles",
        "offset": 0,
        "slot": "6",
        "type": "t_mapping(t_bytes32,t_struct(RoleData)1039_storage)"
      },
      {
        "astId": 1510,
        "contract": "contracts/deployables/NFTCollectionContract.sol:NFTCollectionContract",
        "label": "_initialized",
        "offset": 0,
        "slot": "7",
        "type": "t_bool"
      },
      {
        "astId": 1513,
        "contract": "contracts/deployables/NFTCollectionContract.sol:NFTCollectionContract",
        "label": "_initializing",
        "offset": 1,
        "slot": "7",
        "type": "t_bool"
      },
      {
        "astId": 4710,
        "contract": "contracts/deployables/NFTCollectionContract.sol:NFTCollectionContract",
        "label": "totalSupply",
        "offset": 0,
        "slot": "8",
        "type": "t_uint256"
      },
      {
        "astId": 4713,
        "contract": "contracts/deployables/NFTCollectionContract.sol:NFTCollectionContract",
        "label": "reserveRemaining",
        "offset": 0,
        "slot": "9",
        "type": "t_uint256"
      },
      {
        "astId": 5123,
        "contract": "contracts/deployables/NFTCollectionContract.sol:NFTCollectionContract",
        "label": "_runtimeConfig",
        "offset": 0,
        "slot": "10",
        "type": "t_struct(RuntimeConfig)4679_storage"
      },
      {
        "astId": 5126,
        "contract": "contracts/deployables/NFTCollectionContract.sol:NFTCollectionContract",
        "label": "_deploymentConfig",
        "offset": 0,
        "slot": "18",
        "type": "t_struct(DeploymentConfig)4654_storage"
      },
      {
        "astId": 5129,
        "contract": "contracts/deployables/NFTCollectionContract.sol:NFTCollectionContract",
        "label": "_preventInitialization",
        "offset": 0,
        "slot": "26",
        "type": "t_bool"
      },
      {
        "astId": 5134,
        "contract": "contracts/deployables/NFTCollectionContract.sol:NFTCollectionContract",
        "label": "_presaleMinted",
        "offset": 0,
        "slot": "27",
        "type": "t_mapping(t_address,t_bool)"
      }
    ],
    "types": {
      "t_address": {
        "encoding": "inplace",
        "label": "address",
        "numberOfBytes": "20"
      },
      "t_address_payable": {
        "encoding": "inplace",
        "label": "address payable",
        "numberOfBytes": "20"
      },
      "t_bool": {
        "encoding": "inplace",
        "label": "bool",
        "numberOfBytes": "1"
      },
      "t_bytes32": {
        "encoding": "inplace",
        "label": "bytes32",
        "numberOfBytes": "32"
      },
      "t_mapping(t_address,t_bool)": {
        "encoding": "mapping",
        "key": "t_address",
        "label": "mapping(address => bool)",
        "numberOfBytes": "32",
        "value": "t_bool"
      },
      "t_mapping(t_address,t_mapping(t_address,t_bool))": {
        "encoding": "mapping",
        "key": "t_address",
        "label": "mapping(address => mapping(address => bool))",
        "numberOfBytes": "32",
        "value": "t_mapping(t_address,t_bool)"
      },
      "t_mapping(t_address,t_uint256)": {
        "encoding": "mapping",
        "key": "t_address",
        "label": "mapping(address => uint256)",
        "numberOfBytes": "32",
        "value": "t_uint256"
      },
      "t_mapping(t_bytes32,t_struct(RoleData)1039_storage)": {
        "encoding": "mapping",
        "key": "t_bytes32",
        "label": "mapping(bytes32 => struct AccessControl.RoleData)",
        "numberOfBytes": "32",
        "value": "t_struct(RoleData)1039_storage"
      },
      "t_mapping(t_uint256,t_address)": {
        "encoding": "mapping",
        "key": "t_uint256",
        "label": "mapping(uint256 => address)",
        "numberOfBytes": "32",
        "value": "t_address"
      },
      "t_string_storage": {
        "encoding": "bytes",
        "label": "string",
        "numberOfBytes": "32"
      },
      "t_struct(DeploymentConfig)4654_storage": {
        "encoding": "inplace",
        "label": "struct NFTCollection.DeploymentConfig",
        "members": [
          {
            "astId": 4632,
            "contract": "contracts/deployables/NFTCollectionContract.sol:NFTCollectionContract",
            "label": "name",
            "offset": 0,
            "slot": "0",
            "type": "t_string_storage"
          },
          {
            "astId": 4635,
            "contract": "contracts/deployables/NFTCollectionContract.sol:NFTCollectionContract",
            "label": "symbol",
            "offset": 0,
            "slot": "1",
            "type": "t_string_storage"
          },
          {
            "astId": 4638,
            "contract": "contracts/deployables/NFTCollectionContract.sol:NFTCollectionContract",
            "label": "owner",
            "offset": 0,
            "slot": "2",
            "type": "t_address"
          },
          {
            "astId": 4641,
            "contract": "contracts/deployables/NFTCollectionContract.sol:NFTCollectionContract",
            "label": "maxSupply",
            "offset": 0,
            "slot": "3",
            "type": "t_uint256"
          },
          {
            "astId": 4644,
            "contract": "contracts/deployables/NFTCollectionContract.sol:NFTCollectionContract",
            "label": "reservedSupply",
            "offset": 0,
            "slot": "4",
            "type": "t_uint256"
          },
          {
            "astId": 4647,
            "contract": "contracts/deployables/NFTCollectionContract.sol:NFTCollectionContract",
            "label": "mintPrice",
            "offset": 0,
            "slot": "5",
            "type": "t_uint256"
          },
          {
            "astId": 4650,
            "contract": "contracts/deployables/NFTCollectionContract.sol:NFTCollectionContract",
            "label": "tokensPerMint",
            "offset": 0,
            "slot": "6",
            "type": "t_uint256"
          },
          {
            "astId": 4653,
            "contract": "contracts/deployables/NFTCollectionContract.sol:NFTCollectionContract",
            "label": "treasuryAddress",
            "offset": 0,
            "slot": "7",
            "type": "t_address_payable"
          }
        ],
        "numberOfBytes": "256"
      },
      "t_struct(RoleData)1039_storage": {
        "encoding": "inplace",
        "label": "struct AccessControl.RoleData",
        "members": [
          {
            "astId": 1036,
            "contract": "contracts/deployables/NFTCollectionContract.sol:NFTCollectionContract",
            "label": "members",
            "offset": 0,
            "slot": "0",
            "type": "t_mapping(t_address,t_bool)"
          },
          {
            "astId": 1038,
            "contract": "contracts/deployables/NFTCollectionContract.sol:NFTCollectionContract",
            "label": "adminRole",
            "offset": 0,
            "slot": "1",
            "type": "t_bytes32"
          }
        ],
        "numberOfBytes": "64"
      },
      "t_struct(RuntimeConfig)4679_storage": {
        "encoding": "inplace",
        "label": "struct NFTCollection.RuntimeConfig",
        "members": [
          {
            "astId": 4657,
            "contract": "contracts/deployables/NFTCollectionContract.sol:NFTCollectionContract",
            "label": "baseURI",
            "offset": 0,
            "slot": "0",
            "type": "t_string_storage"
          },
          {
            "astId": 4660,
            "contract": "contracts/deployables/NFTCollectionContract.sol:NFTCollectionContract",
            "label": "metadataUpdatable",
            "offset": 0,
            "slot": "1",
            "type": "t_bool"
          },
          {
            "astId": 4663,
            "contract": "contracts/deployables/NFTCollectionContract.sol:NFTCollectionContract",
            "label": "publicMintStart",
            "offset": 0,
            "slot": "2",
            "type": "t_uint256"
          },
          {
            "astId": 4666,
            "contract": "contracts/deployables/NFTCollectionContract.sol:NFTCollectionContract",
            "label": "presaleMintStart",
            "offset": 0,
            "slot": "3",
            "type": "t_uint256"
          },
          {
            "astId": 4669,
            "contract": "contracts/deployables/NFTCollectionContract.sol:NFTCollectionContract",
            "label": "prerevealTokenURI",
            "offset": 0,
            "slot": "4",
            "type": "t_string_storage"
          },
          {
            "astId": 4672,
            "contract": "contracts/deployables/NFTCollectionContract.sol:NFTCollectionContract",
            "label": "presaleMerkleRoot",
            "offset": 0,
            "slot": "5",
            "type": "t_bytes32"
          },
          {
            "astId": 4675,
            "contract": "contracts/deployables/NFTCollectionContract.sol:NFTCollectionContract",
            "label": "royaltiesBps",
            "offset": 0,
            "slot": "6",
            "type": "t_uint256"
          },
          {
            "astId": 4678,
            "contract": "contracts/deployables/NFTCollectionContract.sol:NFTCollectionContract",
            "label": "royaltiesAddress",
            "offset": 0,
            "slot": "7",
            "type": "t_address"
          }
        ],
        "numberOfBytes": "256"
      },
      "t_uint256": {
        "encoding": "inplace",
        "label": "uint256",
        "numberOfBytes": "32"
      }
    }
  }
}