{
  "address": "0xbbF11ea28CbE1Fd769874B4Fd391485fA2eac113",
  "abi": [
    {
      "inputs": [],
      "stateMutability": "nonpayable",
      "type": "constructor"
    },
    {
      "anonymous": false,
      "inputs": [
        {
          "indexed": true,
          "internalType": "address",
          "name": "owner",
          "type": "address"
        },
        {
          "indexed": true,
          "internalType": "address",
          "name": "approved",
          "type": "address"
        },
        {
          "indexed": true,
          "internalType": "uint256",
          "name": "tokenId",
          "type": "uint256"
        }
      ],
      "name": "Approval",
      "type": "event"
    },
    {
      "anonymous": false,
      "inputs": [
        {
          "indexed": true,
          "internalType": "address",
          "name": "owner",
          "type": "address"
        },
        {
          "indexed": true,
          "internalType": "address",
          "name": "operator",
          "type": "address"
        },
        {
          "indexed": false,
          "internalType": "bool",
          "name": "approved",
          "type": "bool"
        }
      ],
      "name": "ApprovalForAll",
      "type": "event"
    },
    {
      "anonymous": false,
      "inputs": [
        {
          "indexed": false,
          "internalType": "uint8",
          "name": "version",
          "type": "uint8"
        }
      ],
      "name": "Initialized",
      "type": "event"
    },
    {
      "anonymous": false,
      "inputs": [
        {
          "indexed": true,
          "internalType": "address",
          "name": "previousOwner",
          "type": "address"
        },
        {
          "indexed": true,
          "internalType": "address",
          "name": "newOwner",
          "type": "address"
        }
      ],
      "name": "OwnershipTransferred",
      "type": "event"
    },
    {
      "anonymous": false,
      "inputs": [
        {
          "indexed": false,
          "internalType": "string",
          "name": "_value",
          "type": "string"
        },
        {
          "indexed": true,
          "internalType": "uint256",
          "name": "_id",
          "type": "uint256"
        }
      ],
      "name": "PermanentURI",
      "type": "event"
    },
    {
      "anonymous": false,
      "inputs": [],
      "name": "PermanentURIGlobal",
      "type": "event"
    },
    {
      "anonymous": false,
      "inputs": [
        {
          "indexed": true,
          "internalType": "bytes32",
          "name": "role",
          "type": "bytes32"
        },
        {
          "indexed": true,
          "internalType": "bytes32",
          "name": "previousAdminRole",
          "type": "bytes32"
        },
        {
          "indexed": true,
          "internalType": "bytes32",
          "name": "newAdminRole",
          "type": "bytes32"
        }
      ],
      "name": "RoleAdminChanged",
      "type": "event"
    },
    {
      "anonymous": false,
      "inputs": [
        {
          "indexed": true,
          "internalType": "bytes32",
          "name": "role",
          "type": "bytes32"
        },
        {
          "indexed": true,
          "internalType": "address",
          "name": "account",
          "type": "address"
        },
        {
          "indexed": true,
          "internalType": "address",
          "name": "sender",
          "type": "address"
        }
      ],
      "name": "RoleGranted",
      "type": "event"
    },
    {
      "anonymous": false,
      "inputs": [
        {
          "indexed": true,
          "internalType": "bytes32",
          "name": "role",
          "type": "bytes32"
        },
        {
          "indexed": true,
          "internalType": "address",
          "name": "account",
          "type": "address"
        },
        {
          "indexed": true,
          "internalType": "address",
          "name": "sender",
          "type": "address"
        }
      ],
      "name": "RoleRevoked",
      "type": "event"
    },
    {
      "anonymous": false,
      "inputs": [
        {
          "indexed": true,
          "internalType": "address",
          "name": "from",
          "type": "address"
        },
        {
          "indexed": true,
          "internalType": "address",
          "name": "to",
          "type": "address"
        },
        {
          "indexed": true,
          "internalType": "uint256",
          "name": "tokenId",
          "type": "uint256"
        }
      ],
      "name": "Transfer",
      "type": "event"
    },
    {
      "inputs": [],
      "name": "ADMIN_ROLE",
      "outputs": [
        {
          "internalType": "bytes32",
          "name": "",
          "type": "bytes32"
        }
      ],
      "stateMutability": "view",
      "type": "function"
    },
    {
      "inputs": [],
      "name": "BURN_ROLE",
      "outputs": [
        {
          "internalType": "bytes32",
          "name": "",
          "type": "bytes32"
        }
      ],
      "stateMutability": "view",
      "type": "function"
    },
    {
      "inputs": [],
      "name": "DEFAULT_ADMIN_ROLE",
      "outputs": [
        {
          "internalType": "bytes32",
          "name": "",
          "type": "bytes32"
        }
      ],
      "stateMutability": "view",
      "type": "function"
    },
    {
      "inputs": [],
      "name": "MINT_ROLE",
      "outputs": [
        {
          "internalType": "bytes32",
          "name": "",
          "type": "bytes32"
        }
      ],
      "stateMutability": "view",
      "type": "function"
    },
    {
      "inputs": [],
      "name": "NAME",
      "outputs": [
        {
          "internalType": "string",
          "name": "",
          "type": "string"
        }
      ],
      "stateMutability": "view",
      "type": "function"
    },
    {
      "inputs": [],
      "name": "ROYALTIES_BASIS",
      "outputs": [
        {
          "internalType": "uint16",
          "name": "",
          "type": "uint16"
        }
      ],
      "stateMutability": "view",
      "type": "function"
    },
    {
      "inputs": [],
      "name": "TRANSFER_ROLE",
      "outputs": [
        {
          "internalType": "bytes32",
          "name": "",
          "type": "bytes32"
        }
      ],
      "stateMutability": "view",
      "type": "function"
    },
    {
      "inputs": [],
      "name": "UPDATE_CONTRACT_ROLE",
      "outputs": [
        {
          "internalType": "bytes32",
          "name": "",
          "type": "bytes32"
        }
      ],
      "stateMutability": "view",
      "type": "function"
    },
    {
      "inputs": [],
      "name": "UPDATE_TOKEN_ROLE",
      "outputs": [
        {
          "internalType": "bytes32",
          "name": "",
          "type": "bytes32"
        }
      ],
      "stateMutability": "view",
      "type": "function"
    },
    {
      "inputs": [],
      "name": "VERSION",
      "outputs": [
        {
          "internalType": "uint256",
          "name": "",
          "type": "uint256"
        }
      ],
      "stateMutability": "view",
      "type": "function"
    },
    {
      "inputs": [
        {
          "internalType": "address",
          "name": "to",
          "type": "address"
        },
        {
          "internalType": "uint256",
          "name": "tokenId",
          "type": "uint256"
        }
      ],
      "name": "approve",
      "outputs": [],
      "stateMutability": "nonpayable",
      "type": "function"
    },
    {
      "inputs": [
        {
          "internalType": "address",
          "name": "owner",
          "type": "address"
        }
      ],
      "name": "balanceOf",
      "outputs": [
        {
          "internalType": "uint256",
          "name": "",
          "type": "uint256"
        }
      ],
      "stateMutability": "view",
      "type": "function"
    },
    {
      "inputs": [],
      "name": "baseURI",
      "outputs": [
        {
          "internalType": "string",
          "name": "",
          "type": "string"
        }
      ],
      "stateMutability": "view",
      "type": "function"
    },
    {
      "inputs": [
        {
          "internalType": "uint256",
          "name": "_tokenId",
          "type": "uint256"
        }
      ],
      "name": "burn",
      "outputs": [],
      "stateMutability": "nonpayable",
      "type": "function"
    },
    {
      "inputs": [],
      "name": "contractURI",
      "outputs": [
        {
          "internalType": "string",
          "name": "",
          "type": "string"
        }
      ],
      "stateMutability": "view",
      "type": "function"
    },
    {
      "inputs": [
        {
          "internalType": "uint256",
          "name": "",
          "type": "uint256"
        }
      ],
      "name": "freezeTokenUris",
      "outputs": [
        {
          "internalType": "bool",
          "name": "",
          "type": "bool"
        }
      ],
      "stateMutability": "view",
      "type": "function"
    },
    {
      "inputs": [
        {
          "internalType": "uint256",
          "name": "tokenId",
          "type": "uint256"
        }
      ],
      "name": "getApproved",
      "outputs": [
        {
          "internalType": "address",
          "name": "",
          "type": "address"
        }
      ],
      "stateMutability": "view",
      "type": "function"
    },
    {
      "inputs": [
        {
          "internalType": "bytes32",
          "name": "role",
          "type": "bytes32"
        }
      ],
      "name": "getRoleAdmin",
      "outputs": [
        {
          "internalType": "bytes32",
          "name": "",
          "type": "bytes32"
        }
      ],
      "stateMutability": "view",
      "type": "function"
    },
    {
      "inputs": [
        {
          "internalType": "bytes32",
          "name": "role",
          "type": "bytes32"
        },
        {
          "internalType": "address",
          "name": "account",
          "type": "address"
        }
      ],
      "name": "grantRole",
      "outputs": [],
      "stateMutability": "nonpayable",
      "type": "function"
    },
    {
      "inputs": [
        {
          "internalType": "bytes32",
          "name": "role",
          "type": "bytes32"
        },
        {
          "internalType": "address",
          "name": "account",
          "type": "address"
        }
      ],
      "name": "hasRole",
      "outputs": [
        {
          "internalType": "bool",
          "name": "",
          "type": "bool"
        }
      ],
      "stateMutability": "view",
      "type": "function"
    },
    {
      "inputs": [
        {
          "components": [
            {
              "internalType": "string",
              "name": "name",
              "type": "string"
            },
            {
              "internalType": "string",
              "name": "symbol",
              "type": "string"
            },
            {
              "internalType": "address",
              "name": "owner",
              "type": "address"
            },
            {
              "internalType": "bool",
              "name": "tokensBurnable",
              "type": "bool"
            }
          ],
          "internalType": "struct Config.Deployment",
          "name": "deploymentConfig",
          "type": "tuple"
        },
        {
          "components": [
            {
              "internalType": "string",
              "name": "baseURI",
              "type": "string"
            },
            {
              "internalType": "bool",
              "name": "metadataUpdatable",
              "type": "bool"
            },
            {
              "internalType": "bool",
              "name": "tokensTransferable",
              "type": "bool"
            },
            {
              "internalType": "uint256",
              "name": "royaltiesBps",
              "type": "uint256"
            },
            {
              "internalType": "address",
              "name": "royaltiesAddress",
              "type": "address"
            }
          ],
          "internalType": "struct Config.Runtime",
          "name": "runtimeConfig",
          "type": "tuple"
        },
        {
          "components": [
            {
              "internalType": "bytes32",
              "name": "role",
              "type": "bytes32"
            },
            {
              "internalType": "address[]",
              "name": "addresses",
              "type": "address[]"
            },
            {
              "internalType": "bool",
              "name": "frozen",
              "type": "bool"
            }
          ],
          "internalType": "struct GranularRoles.RolesAddresses[]",
          "name": "rolesAddresses",
          "type": "tuple[]"
        }
      ],
      "name": "initialize",
      "outputs": [],
      "stateMutability": "nonpayable",
      "type": "function"
    },
    {
      "inputs": [
        {
          "internalType": "address",
          "name": "owner",
          "type": "address"
        },
        {
          "internalType": "address",
          "name": "operator",
          "type": "address"
        }
      ],
      "name": "isApprovedForAll",
      "outputs": [
        {
          "internalType": "bool",
          "name": "",
          "type": "bool"
        }
      ],
      "stateMutability": "view",
      "type": "function"
    },
    {
      "inputs": [],
      "name": "metadataUpdatable",
      "outputs": [
        {
          "internalType": "bool",
          "name": "",
          "type": "bool"
        }
      ],
      "stateMutability": "view",
      "type": "function"
    },
    {
      "inputs": [
        {
          "internalType": "address",
          "name": "caller",
          "type": "address"
        },
        {
          "internalType": "uint256",
          "name": "tokenId",
          "type": "uint256"
        },
        {
          "internalType": "string",
          "name": "tokenURI",
          "type": "string"
        }
      ],
      "name": "mintToCaller",
      "outputs": [
        {
          "internalType": "uint256",
          "name": "",
          "type": "uint256"
        }
      ],
      "stateMutability": "nonpayable",
      "type": "function"
    },
    {
      "inputs": [],
      "name": "name",
      "outputs": [
        {
          "internalType": "string",
          "name": "",
          "type": "string"
        }
      ],
      "stateMutability": "view",
      "type": "function"
    },
    {
      "inputs": [],
      "name": "owner",
      "outputs": [
        {
          "internalType": "address",
          "name": "",
          "type": "address"
        }
      ],
      "stateMutability": "view",
      "type": "function"
    },
    {
      "inputs": [
        {
          "internalType": "uint256",
          "name": "tokenId",
          "type": "uint256"
        }
      ],
      "name": "ownerOf",
      "outputs": [
        {
          "internalType": "address",
          "name": "",
          "type": "address"
        }
      ],
      "stateMutability": "view",
      "type": "function"
    },
    {
      "inputs": [
        {
          "internalType": "bytes32",
          "name": "role",
          "type": "bytes32"
        },
        {
          "internalType": "address",
          "name": "account",
          "type": "address"
        }
      ],
      "name": "renounceRole",
      "outputs": [],
      "stateMutability": "nonpayable",
      "type": "function"
    },
    {
      "inputs": [],
      "name": "revokeNFTPortPermissions",
      "outputs": [],
      "stateMutability": "nonpayable",
      "type": "function"
    },
    {
      "inputs": [
        {
          "internalType": "bytes32",
          "name": "role",
          "type": "bytes32"
        },
        {
          "internalType": "address",
          "name": "account",
          "type": "address"
        }
      ],
      "name": "revokeRole",
      "outputs": [],
      "stateMutability": "nonpayable",
      "type": "function"
    },
    {
      "inputs": [],
      "name": "royaltiesAddress",
      "outputs": [
        {
          "internalType": "address",
          "name": "",
          "type": "address"
        }
      ],
      "stateMutability": "view",
      "type": "function"
    },
    {
      "inputs": [],
      "name": "royaltiesBasisPoints",
      "outputs": [
        {
          "internalType": "uint256",
          "name": "",
          "type": "uint256"
        }
      ],
      "stateMutability": "view",
      "type": "function"
    },
    {
      "inputs": [
        {
          "internalType": "uint256",
          "name": "",
          "type": "uint256"
        },
        {
          "internalType": "uint256",
          "name": "salePrice",
          "type": "uint256"
        }
      ],
      "name": "royaltyInfo",
      "outputs": [
        {
          "internalType": "address",
          "name": "",
          "type": "address"
        },
        {
          "internalType": "uint256",
          "name": "",
          "type": "uint256"
        }
      ],
      "stateMutability": "view",
      "type": "function"
    },
    {
      "inputs": [
        {
          "internalType": "address",
          "name": "from",
          "type": "address"
        },
        {
          "internalType": "address",
          "name": "to",
          "type": "address"
        },
        {
          "internalType": "uint256",
          "name": "tokenId",
          "type": "uint256"
        }
      ],
      "name": "safeTransferFrom",
      "outputs": [],
      "stateMutability": "nonpayable",
      "type": "function"
    },
    {
      "inputs": [
        {
          "internalType": "address",
          "name": "from",
          "type": "address"
        },
        {
          "internalType": "address",
          "name": "to",
          "type": "address"
        },
        {
          "internalType": "uint256",
          "name": "tokenId",
          "type": "uint256"
        },
        {
          "internalType": "bytes",
          "name": "data",
          "type": "bytes"
        }
      ],
      "name": "safeTransferFrom",
      "outputs": [],
      "stateMutability": "nonpayable",
      "type": "function"
    },
    {
      "inputs": [
        {
          "internalType": "address",
          "name": "operator",
          "type": "address"
        },
        {
          "internalType": "bool",
          "name": "approved",
          "type": "bool"
        }
      ],
      "name": "setApprovalForAll",
      "outputs": [],
      "stateMutability": "nonpayable",
      "type": "function"
    },
    {
      "inputs": [
        {
          "internalType": "bytes4",
          "name": "interfaceId",
          "type": "bytes4"
        }
      ],
      "name": "supportsInterface",
      "outputs": [
        {
          "internalType": "bool",
          "name": "",
          "type": "bool"
        }
      ],
      "stateMutability": "view",
      "type": "function"
    },
    {
      "inputs": [],
      "name": "symbol",
      "outputs": [
        {
          "internalType": "string",
          "name": "",
          "type": "string"
        }
      ],
      "stateMutability": "view",
      "type": "function"
    },
    {
      "inputs": [
        {
          "internalType": "uint256",
          "name": "tokenId",
          "type": "uint256"
        }
      ],
      "name": "tokenURI",
      "outputs": [
        {
          "internalType": "string",
          "name": "",
          "type": "string"
        }
      ],
      "stateMutability": "view",
      "type": "function"
    },
    {
      "inputs": [],
      "name": "tokensBurnable",
      "outputs": [
        {
          "internalType": "bool",
          "name": "",
          "type": "bool"
        }
      ],
      "stateMutability": "view",
      "type": "function"
    },
    {
      "inputs": [],
      "name": "tokensTransferable",
      "outputs": [
        {
          "internalType": "bool",
          "name": "",
          "type": "bool"
        }
      ],
      "stateMutability": "view",
      "type": "function"
    },
    {
      "inputs": [],
      "name": "totalSupply",
      "outputs": [
        {
          "internalType": "uint256",
          "name": "",
          "type": "uint256"
        }
      ],
      "stateMutability": "view",
      "type": "function"
    },
    {
      "inputs": [
        {
          "internalType": "address",
          "name": "_to",
          "type": "address"
        },
        {
          "internalType": "uint256",
          "name": "_tokenId",
          "type": "uint256"
        }
      ],
      "name": "transferByOwner",
      "outputs": [],
      "stateMutability": "nonpayable",
      "type": "function"
    },
    {
      "inputs": [
        {
          "internalType": "address",
          "name": "from",
          "type": "address"
        },
        {
          "internalType": "address",
          "name": "to",
          "type": "address"
        },
        {
          "internalType": "uint256",
          "name": "tokenId",
          "type": "uint256"
        }
      ],
      "name": "transferFrom",
      "outputs": [],
      "stateMutability": "nonpayable",
      "type": "function"
    },
    {
      "inputs": [
        {
          "internalType": "address",
          "name": "newOwner",
          "type": "address"
        }
      ],
      "name": "transferOwnership",
      "outputs": [],
      "stateMutability": "nonpayable",
      "type": "function"
    },
    {
      "inputs": [
        {
          "components": [
            {
              "internalType": "string",
              "name": "baseURI",
              "type": "string"
            },
            {
              "internalType": "bool",
              "name": "metadataUpdatable",
              "type": "bool"
            },
            {
              "internalType": "bool",
              "name": "tokensTransferable",
              "type": "bool"
            },
            {
              "internalType": "uint256",
              "name": "royaltiesBps",
              "type": "uint256"
            },
            {
              "internalType": "address",
              "name": "royaltiesAddress",
              "type": "address"
            }
          ],
          "internalType": "struct Config.Runtime",
          "name": "newConfig",
          "type": "tuple"
        },
        {
          "components": [
            {
              "internalType": "bytes32",
              "name": "role",
              "type": "bytes32"
            },
            {
              "internalType": "address[]",
              "name": "addresses",
              "type": "address[]"
            },
            {
              "internalType": "bool",
              "name": "frozen",
              "type": "bool"
            }
          ],
          "internalType": "struct GranularRoles.RolesAddresses[]",
          "name": "rolesAddresses",
          "type": "tuple[]"
        },
        {
          "internalType": "bool",
          "name": "isRevokeNFTPortPermissions",
          "type": "bool"
        }
      ],
      "name": "update",
      "outputs": [],
      "stateMutability": "nonpayable",
      "type": "function"
    },
    {
      "inputs": [
        {
          "internalType": "uint256",
          "name": "_tokenId",
          "type": "uint256"
        },
        {
          "internalType": "string",
          "name": "_tokenUri",
          "type": "string"
        },
        {
          "internalType": "bool",
          "name": "_isFreezeTokenUri",
          "type": "bool"
        }
      ],
      "name": "updateTokenUri",
      "outputs": [],
      "stateMutability": "nonpayable",
      "type": "function"
    }
  ],
  "transactionHash": "0x9a1ceb335357928eef6196c213b6f26b3fbb7da0c084684ba2d72dd990c96ec0",
  "args": [],
  "numDeployments": 3,
  "solcInputHash": "1e300b8e19558e2a4c02af65df638f3f",
  "bytecode": "0x60806040523480156200001157600080fd5b50600054610100900460ff1615808015620000335750600054600160ff909116105b8062000063575062000050306200013d60201b620018061760201c565b15801562000063575060005460ff166001145b620000cb5760405162461bcd60e51b815260206004820152602e60248201527f496e697469616c697a61626c653a20636f6e747261637420697320616c72656160448201526d191e481a5b9a5d1a585b1a5e995960921b606482015260840160405180910390fd5b6000805460ff191660011790558015620000ef576000805461ff0019166101001790555b801562000136576000805461ff0019169055604051600181527f7f26b83ff96e1f2b6a682f133852f6798a09c465da95921460cefb38474024989060200160405180910390a15b506200014c565b6001600160a01b03163b151590565b613d62806200015c6000396000f3fe608060405234801561001057600080fd5b50600436106102955760003560e01c80637afdcdbb11610167578063b88d4fde116100ce578063e8a3d48511610087578063e8a3d48514610663578063e985e9c51461066b578063e9a9c850146106a7578063f153c2e5146106ce578063f2fde38b146106d6578063ffa1ad74146106e957600080fd5b8063b88d4fde146105dc578063b930908f146105ef578063c87b56dd14610616578063d547741f14610629578063de374d9d1461063c578063e3d520721461065057600080fd5b8063a217fddf11610120578063a217fddf1461054e578063a22cb46514610556578063a2f551ec14610569578063a3f4df7e1461057c578063a53a84b6146105ab578063b29c097a146105b557600080fd5b80637afdcdbb146104cf5780638d010db3146104e25780638da5cb5b1461050657806391d148541461051757806395d89b411461052a5780639da5b0a51461053257600080fd5b80632c23b9651161020b57806342966c68116101c457806342966c681461046b5780634e6f9dd61461047e5780636352211e1461048c5780636c0360eb1461049f57806370a08231146104a757806375b238fc146104ba57600080fd5b80632c23b965146103e45780632e628b611461040b5780632f2ff15d1461041e578063328825351461043157806336568abe1461044557806342842e0e1461045857600080fd5b8063206b60f91161025d578063206b60f91461032f57806321e92d491461035657806323b872dd14610369578063248a9ca31461037c57806325d22c8e1461039f5780632a55205a146103b257600080fd5b806301ffc9a71461029a57806306fdde03146102c2578063081812fc146102d7578063095ea7b31461030257806318160ddd14610317575b600080fd5b6102ad6102a8366004612e37565b6106f2565b60405190151581526020015b60405180910390f35b6102ca61071e565b6040516102b99190612eac565b6102ea6102e5366004612ebf565b6107b0565b6040516001600160a01b0390911681526020016102b9565b610315610310366004612ef4565b6107d7565b005b6103216101365481565b6040519081526020016102b9565b6103217f8502233096d909befbda0999bb8ea2f3a6be3c138b9fbf003752a4c8bce86f6c81565b610315610364366004612ef4565b6108f1565b610315610377366004612f1e565b61099d565b61032161038a366004612ebf565b600090815260c9602052604090206001015490565b6103156103ad366004613274565b6109ce565b6103c56103c036600461336f565b610b70565b604080516001600160a01b0390931683526020830191909152016102b9565b6103217f9b16859c0d694afa65b1b6551542db11ea12d6208b6a17dc922f10f2d74440f581565b610315610419366004613391565b610bae565b61031561042c36600461340c565b610d59565b610134546102ea906001600160a01b031681565b61031561045336600461340c565b610d7e565b610315610466366004612f1e565b610dfc565b610315610479366004612ebf565b610e17565b610131546102ad9060ff1681565b6102ea61049a366004612ebf565b610f8e565b6102ca610fee565b6103216104b5366004613438565b61107d565b610321600080516020613d0d83398151915281565b6103216104dd366004613453565b611103565b6102ad6104f0366004612ebf565b6101326020526000908152604090205460ff1681565b60fb546001600160a01b03166102ea565b6102ad61052536600461340c565b6111c1565b6102ca61125e565b61053b61271081565b60405161ffff90911681526020016102b9565b610321600081565b61031561056436600461349f565b61126d565b6103156105773660046134c9565b611278565b6102ca6040518060400160405280601081526020016f115490cdcc8c539195141c9bd91d58dd60821b81525081565b6103216101355481565b6103217f852fd44a27d33057a8c3d90859d4e4c9f54309d4d66d1d968e063befba9198e681565b6103156105ea366004613507565b611485565b6103217fe97b137254058bd94f28d2f3eb79e2d34074ffb488d042e3bc958e0a57d2fa2281565b6102ca610624366004612ebf565b6114b7565b61031561063736600461340c565b6115ba565b610131546102ad9062010000900460ff1681565b610131546102ad90610100900460ff1681565b6102ca6115df565b6102ad610679366004613582565b6001600160a01b039182166000908152606a6020908152604080832093909416825291909152205460ff1690565b6103217f154c00819833dac601ee5ddded6fda79d9d8b506b911b3dbd54cdb95fe6c368681565b61031561165b565b6103156106e4366004613438565b6116ab565b61032161277481565b60006106fd82611815565b8061071857506001600160e01b0319821663152a902d60e11b145b92915050565b60606065805461072d906135ac565b80601f0160208091040260200160405190810160405280929190818152602001828054610759906135ac565b80156107a65780601f1061077b576101008083540402835291602001916107a6565b820191906000526020600020905b81548152906001019060200180831161078957829003601f168201915b5050505050905090565b60006107bb82611865565b506000908152606960205260409020546001600160a01b031690565b60006107e282610f8e565b9050806001600160a01b0316836001600160a01b0316036108545760405162461bcd60e51b815260206004820152602160248201527f4552433732313a20617070726f76616c20746f2063757272656e74206f776e656044820152603960f91b60648201526084015b60405180910390fd5b336001600160a01b038216148061087057506108708133610679565b6108e25760405162461bcd60e51b815260206004820152603e60248201527f4552433732313a20617070726f76652063616c6c6572206973206e6f7420746f60448201527f6b656e206f776e6572206e6f7220617070726f76656420666f7220616c6c0000606482015260840161084b565b6108ec83836118c7565b505050565b7f8502233096d909befbda0999bb8ea2f3a6be3c138b9fbf003752a4c8bce86f6c61091b81611935565b6101315462010000900460ff166109745760405162461bcd60e51b815260206004820181905260248201527f5472616e736665723a205472616e7366657273206172652064697361626c6564604482015260640161084b565b60fb546040805160208101909152600081526108ec916001600160a01b0316908590859061193f565b6109a73382611972565b6109c35760405162461bcd60e51b815260040161084b906135e6565b6108ec8383836119f0565b600054610100900460ff16158080156109ee5750600054600160ff909116105b80610a085750303b158015610a08575060005460ff166001145b610a6b5760405162461bcd60e51b815260206004820152602e60248201527f496e697469616c697a61626c653a20636f6e747261637420697320616c72656160448201526d191e481a5b9a5d1a585b1a5e995960921b606482015260840161084b565b6000805460ff191660011790558015610a8e576000805461ff0019166101001790555b610aa084600001518560200151611b8c565b610aa8611bbd565b610aba83608001518460600151611bee565b60208301516101318054606087015160408701511515620100000262ff0000199115156101000261ff00199515159590951661ffff19909316929092179390931792909216919091179055825161013390610b159082613682565b50610b24846040015183611c72565b8015610b6a576000805461ff0019169055604051600181527f7f26b83ff96e1f2b6a682f133852f6798a09c465da95921460cefb38474024989060200160405180910390a15b50505050565b610134546101355460009182916001600160a01b039091169061271090610b98908690613757565b610ba2919061378c565b915091505b9250929050565b7f9b16859c0d694afa65b1b6551542db11ea12d6208b6a17dc922f10f2d74440f5610bd881611935565b6101315460ff1680610c435750610133604051602001610bf891906137a0565b60408051601f198184030181529190528051602090910120610c1a8580613816565b604051602001610c2b92919061385c565b60405160208183030381529060405280519060200120145b610c8f5760405162461bcd60e51b815260206004820152601a60248201527f5570646174653a204d657461646174612069732066726f7a656e000000000000604482015260640161084b565b610c998480613816565b61013391610ca891908361386c565b50610cc6610cbc60a0860160808701613438565b8560600135611bee565b610cd6606085016040860161392c565b610ce857610131805462ff0000191690555b610cf8604085016020860161392c565b158015610d0857506101315460ff165b15610d4257610131805460ff191690556040517fb59f45df38ec0d34114b1248c38a29cdbccbf3e745ae3ef310ac66199a4ceccf90600090a15b610d4b83611ef6565b8115610b6a57610b6a61165b565b600082815260c96020526040902060010154610d7481611935565b6108ec83836121e0565b6001600160a01b0381163314610dee5760405162461bcd60e51b815260206004820152602f60248201527f416363657373436f6e74726f6c3a2063616e206f6e6c792072656e6f756e636560448201526e103937b632b9903337b91039b2b63360891b606482015260840161084b565b610df88282612266565b5050565b6108ec83838360405180602001604052806000815250611485565b7fe97b137254058bd94f28d2f3eb79e2d34074ffb488d042e3bc958e0a57d2fa22610e4181611935565b61013154610100900460ff16610e995760405162461bcd60e51b815260206004820152601860248201527f4275726e3a204275726e73206172652064697361626c65640000000000000000604482015260640161084b565b6000828152606760205260409020546001600160a01b0316610efd5760405162461bcd60e51b815260206004820152601a60248201527f4275726e3a20546f6b656e20646f6573206e6f74206578697374000000000000604482015260640161084b565b60fb546001600160a01b0316610f1283610f8e565b6001600160a01b031614610f685760405162461bcd60e51b815260206004820181905260248201527f4275726e3a206e6f742068656c6420627920636f6e7472616374206f776e6572604482015260640161084b565b610f71826122cd565b60016101366000828254610f859190613947565b90915550505050565b6000818152606760205260408120546001600160a01b0316806107185760405162461bcd60e51b8152602060048201526018602482015277115490cdcc8c4e881a5b9d985b1a59081d1bdad95b88125160421b604482015260640161084b565b6101338054610ffc906135ac565b80601f0160208091040260200160405190810160405280929190818152602001828054611028906135ac565b80156110755780601f1061104a57610100808354040283529160200191611075565b820191906000526020600020905b81548152906001019060200180831161105857829003601f168201915b505050505081565b60006001600160a01b0382166110e75760405162461bcd60e51b815260206004820152602960248201527f4552433732313a2061646472657373207a65726f206973206e6f7420612076616044820152683634b21037bbb732b960b91b606482015260840161084b565b506001600160a01b031660009081526068602052604090205490565b60007f154c00819833dac601ee5ddded6fda79d9d8b506b911b3dbd54cdb95fe6c368661112f81611935565b600260ff54036111815760405162461bcd60e51b815260206004820152601f60248201527f5265656e7472616e637947756172643a207265656e7472616e742063616c6c00604482015260640161084b565b600260ff55611190858561230d565b600161013660008282546111a4919061395e565b909155506111b490508484612327565b5050600160ff5550919050565b60fb546000906001600160a01b03908116908316036111e257506001610718565b826111ef57506000610718565b6001600160a01b03821660009081527f56eafcfe4e056e5ee1febf92b17728968883505f0e8dc799e4f43119d826ca85602052604090205460ff16806112575750600083815260c9602090815260408083206001600160a01b038616845290915290205460ff165b9392505050565b60606066805461072d906135ac565b610df83383836123ba565b7f852fd44a27d33057a8c3d90859d4e4c9f54309d4d66d1d968e063befba9198e66112a281611935565b6000848152606760205260409020546001600160a01b03166113065760405162461bcd60e51b815260206004820152601b60248201527f546f6b656e3a20546f6b656e20646f6573206e6f742065786973740000000000604482015260640161084b565b6101315460ff166113595760405162461bcd60e51b815260206004820152601960248201527f546f6b656e3a204d657461646174612069732066726f7a656e00000000000000604482015260640161084b565b6000848152610132602052604090205460ff1615156001036113b65760405162461bcd60e51b81526020600482015260166024820152752a37b5b2b71d102a37b5b2b71034b990333937bd32b760511b604482015260640161084b565b81806113c25750825115155b61140e5760405162461bcd60e51b815260206004820152601b60248201527f546f6b656e3a20546f6b656e20555249206973206d697373696e670000000000604482015260640161084b565b82511561141f5761141f8484612327565b8115610b6a57600084815261013260205260409020805460ff19166001179055837fa109ba539900bf1b633f956d63c96fc89b814c7287f7aa50a9216d0b5565720761146a826114b7565b6040516114779190612eac565b60405180910390a250505050565b61148f3383611972565b6114ab5760405162461bcd60e51b815260040161084b906135e6565b610b6a8484848461193f565b60606114c282611865565b600082815260976020526040812080546114db906135ac565b80601f0160208091040260200160405190810160405280929190818152602001828054611507906135ac565b80156115545780601f1061152957610100808354040283529160200191611554565b820191906000526020600020905b81548152906001019060200180831161153757829003601f168201915b505050505090506000611565612488565b90508051600003611577575092915050565b8151156115a9578082604051602001611591929190613976565b60405160208183030381529060405292505050919050565b6115b284612498565b949350505050565b600082815260c960205260409020600101546115d581611935565b6108ec8383612266565b6060600061162f6115f2610135546124fe565b6101345461160a906001600160a01b031660146125fe565b60405160200161161b9291906139a5565b604051602081830303815290604052612799565b90506000816040516020016116449190613a2c565b60408051601f198184030181529190529392505050565b600080516020613d0d83398151915261167381611935565b60fc5461169890600080516020613d0d833981519152906001600160a01b0316612266565b5060fc80546001600160a01b0319169055565b60fb546001600160a01b03908116908216036117095760405162461bcd60e51b815260206004820181905260248201527f4772616e756c6172526f6c65733a20616c726561647920746865206f776e6572604482015260640161084b565b60fb546001600160a01b031633146117635760405162461bcd60e51b815260206004820152601c60248201527f4772616e756c6172526f6c65733a206e6f7420746865206f776e657200000000604482015260640161084b565b60fb5461178890600080516020613d0d833981519152906001600160a01b0316612266565b60fb80546001600160a01b038381166001600160a01b03198316811790935516906117c290600080516020613d0d833981519152906121e0565b816001600160a01b0316816001600160a01b03167f8be0079c531659141344cd1fd0a4f28419497f9722a3daafe3b4186f6b6457e060405160405180910390a35050565b6001600160a01b03163b151590565b60006001600160e01b031982166380ac58cd60e01b148061184657506001600160e01b03198216635b5e139f60e01b145b8061071857506301ffc9a760e01b6001600160e01b0319831614610718565b6000818152606760205260409020546001600160a01b03166118c45760405162461bcd60e51b8152602060048201526018602482015277115490cdcc8c4e881a5b9d985b1a59081d1bdad95b88125160421b604482015260640161084b565b50565b600081815260696020526040902080546001600160a01b0319166001600160a01b03841690811790915581906118fc82610f8e565b6001600160a01b03167f8c5be1e5ebec7d5bd14f71427d1e84f3dd0314c0f7b2291e5b200ac8c7c3b92560405160405180910390a45050565b6118c48133612902565b61194a8484846119f0565b61195684848484612966565b610b6a5760405162461bcd60e51b815260040161084b90613a71565b60008061197e83610f8e565b9050806001600160a01b0316846001600160a01b031614806119c557506001600160a01b038082166000908152606a602090815260408083209388168352929052205460ff165b806115b25750836001600160a01b03166119de846107b0565b6001600160a01b031614949350505050565b826001600160a01b0316611a0382610f8e565b6001600160a01b031614611a675760405162461bcd60e51b815260206004820152602560248201527f4552433732313a207472616e736665722066726f6d20696e636f72726563742060448201526437bbb732b960d91b606482015260840161084b565b6001600160a01b038216611ac95760405162461bcd60e51b8152602060048201526024808201527f4552433732313a207472616e7366657220746f20746865207a65726f206164646044820152637265737360e01b606482015260840161084b565b611ad46000826118c7565b6001600160a01b0383166000908152606860205260408120805460019290611afd908490613947565b90915550506001600160a01b0382166000908152606860205260408120805460019290611b2b90849061395e565b909155505060008181526067602052604080822080546001600160a01b0319166001600160a01b0386811691821790925591518493918716917fddf252ad1be2c89b69c2b068fc378daa952ba7f163c4a11628f55a4df523b3ef91a4505050565b600054610100900460ff16611bb35760405162461bcd60e51b815260040161084b90613ac3565b610df88282612a67565b600054610100900460ff16611be45760405162461bcd60e51b815260040161084b90613ac3565b611bec612aa7565b565b612710811115611c4a5760405162461bcd60e51b815260206004820152602160248201527f43616e6e6f742073657420726f79616c7469657320746f206f766572203130306044820152602560f81b606482015260840161084b565b61013480546001600160a01b0319166001600160a01b03939093169290921790915561013555565b6001600160a01b038216611cc85760405162461bcd60e51b815260206004820152601b60248201527f436f6e7472616374206d757374206861766520616e206f776e65720000000000604482015260640161084b565b60fb80546001600160a01b0384166001600160a01b0319918216811790925560fc805490911633179055611d0b90600080516020613d0d833981519152906121e0565b60fc54611d3090600080516020613d0d833981519152906001600160a01b03166121e0565b60005b81518110156108ec576000828281518110611d5057611d50613b0e565b6020026020010151600001519050611d6781612ad5565b611d728260206125fe565b604051602001611d829190613b24565b60405160208183030381529060405290611daf5760405162461bcd60e51b815260040161084b9190612eac565b5060005b838381518110611dc557611dc5613b0e565b60200260200101516020015151811015611ea557611e1982858581518110611def57611def613b0e565b6020026020010151602001518381518110611e0c57611e0c613b0e565b60200260200101516121e0565b600082815260fd602052604090208451859085908110611e3b57611e3b613b0e565b6020026020010151602001518281518110611e5857611e58613b0e565b60209081029190910181015182546001810184556000938452919092200180546001600160a01b0319166001600160a01b0390921691909117905580611e9d81613b69565b915050611db3565b50828281518110611eb857611eb8613b0e565b60200260200101516040015115611ee357600081815260fe60205260409020805460ff191660011790555b5080611eee81613b69565b915050611d33565b8051156118c457611f15600080516020613d0d833981519152336111c1565b611f615760405162461bcd60e51b815260206004820152601b60248201527f4772616e756c6172526f6c65733a206e6f7420616e2061646d696e0000000000604482015260640161084b565b60005b8151811015610df8576000828281518110611f8157611f81613b0e565b6020026020010151600001519050611f9881612ad5565b611fa38260206125fe565b604051602001611fb39190613b24565b60405160208183030381529060405290611fe05760405162461bcd60e51b815260040161084b9190612eac565b50600081815260fe602090815260409091205460ff1615906120039083906125fe565b6040516020016120139190613b82565b604051602081830303815290604052906120405760405162461bcd60e51b815260040161084b9190612eac565b5060005b600082815260fd60205260409020548110156120ac57600082815260fd60205260409020805461209a9184918490811061208057612080613b0e565b6000918252602090912001546001600160a01b0316612266565b806120a481613b69565b915050612044565b50600081815260fd602052604081206120c491612db4565b60005b8383815181106120d9576120d9613b0e565b6020026020010151602001515181101561218f5761210382858581518110611def57611def613b0e565b600082815260fd60205260409020845185908590811061212557612125613b0e565b602002602001015160200151828151811061214257612142613b0e565b60209081029190910181015182546001810184556000938452919092200180546001600160a01b0319166001600160a01b039092169190911790558061218781613b69565b9150506120c7565b508282815181106121a2576121a2613b0e565b602002602001015160400151156121cd57600081815260fe60205260409020805460ff191660011790555b50806121d881613b69565b915050611f64565b6121ea82826111c1565b610df857600082815260c9602090815260408083206001600160a01b03851684529091529020805460ff191660011790556122223390565b6001600160a01b0316816001600160a01b0316837f2f8788117e7eff1d82e926ec794901d17c78024a50270940304540a733656f0d60405160405180910390a45050565b61227082826111c1565b15610df857600082815260c9602090815260408083206001600160a01b0385168085529252808320805460ff1916905551339285917ff6391f5c32d9c69d2a47ea670b442974b53935d1edc7fd64eb21e047a839171b9190a45050565b6122d681612ba4565b600081815260976020526040902080546122ef906135ac565b1590506118c45760008181526097602052604081206118c491612dd2565b610df8828260405180602001604052806000815250612c3f565b6000828152606760205260409020546001600160a01b03166123a25760405162461bcd60e51b815260206004820152602e60248201527f45524337323155524953746f726167653a2055524920736574206f66206e6f6e60448201526d32bc34b9ba32b73a103a37b5b2b760911b606482015260840161084b565b60008281526097602052604090206108ec8282613682565b816001600160a01b0316836001600160a01b03160361241b5760405162461bcd60e51b815260206004820152601960248201527f4552433732313a20617070726f766520746f2063616c6c657200000000000000604482015260640161084b565b6001600160a01b038381166000818152606a6020908152604080832094871680845294825291829020805460ff191686151590811790915591519182527f17307eab39ab6107e8899845ad3d59bd9653f200f220920489ca2b5937696c31910160405180910390a3505050565b6060610133805461072d906135ac565b60606124a382611865565b60006124ad612488565b905060008151116124cd5760405180602001604052806000815250611257565b806124d7846124fe565b6040516020016124e8929190613976565b6040516020818303038152906040529392505050565b6060816000036125255750506040805180820190915260018152600360fc1b602082015290565b8160005b811561254f578061253981613b69565b91506125489050600a8361378c565b9150612529565b6000816001600160401b0381111561256957612569612f5a565b6040519080825280601f01601f191660200182016040528015612593576020820181803683370190505b5090505b84156115b2576125a8600183613947565b91506125b5600a86613bd2565b6125c090603061395e565b60f81b8183815181106125d5576125d5613b0e565b60200101906001600160f81b031916908160001a9053506125f7600a8661378c565b9450612597565b6060600061260d836002613757565b61261890600261395e565b6001600160401b0381111561262f5761262f612f5a565b6040519080825280601f01601f191660200182016040528015612659576020820181803683370190505b509050600360fc1b8160008151811061267457612674613b0e565b60200101906001600160f81b031916908160001a905350600f60fb1b816001815181106126a3576126a3613b0e565b60200101906001600160f81b031916908160001a90535060006126c7846002613757565b6126d290600161395e565b90505b600181111561274a576f181899199a1a9b1b9c1cb0b131b232b360811b85600f166010811061270657612706613b0e565b1a60f81b82828151811061271c5761271c613b0e565b60200101906001600160f81b031916908160001a90535060049490941c9361274381613be6565b90506126d5565b5083156112575760405162461bcd60e51b815260206004820181905260248201527f537472696e67733a20686578206c656e67746820696e73756666696369656e74604482015260640161084b565b805160609060008190036127bd575050604080516020810190915260008152919050565b600060036127cc83600261395e565b6127d6919061378c565b6127e1906004613757565b905060006127f082602061395e565b6001600160401b0381111561280757612807612f5a565b6040519080825280601f01601f191660200182016040528015612831576020820181803683370190505b5090506000604051806060016040528060408152602001613ccd604091399050600181016020830160005b868110156128bd576003818a01810151603f601282901c8116860151600c83901c8216870151600684901c831688015192909316870151600891821b60ff94851601821b92841692909201901b91160160e01b83526004909201910161285c565b5060038606600181146128d757600281146128e8576128f4565b613d3d60f01b6001198301526128f4565b603d60f81b6000198301525b505050918152949350505050565b61290c82826111c1565b610df857612924816001600160a01b031660146125fe565b61292f8360206125fe565b604051602001612940929190613bfd565b60408051601f198184030181529082905262461bcd60e51b825261084b91600401612eac565b60006001600160a01b0384163b15612a5c57604051630a85bd0160e11b81526001600160a01b0385169063150b7a02906129aa903390899088908890600401613c72565b6020604051808303816000875af19250505080156129e5575060408051601f3d908101601f191682019092526129e291810190613caf565b60015b612a42573d808015612a13576040519150601f19603f3d011682016040523d82523d6000602084013e612a18565b606091505b508051600003612a3a5760405162461bcd60e51b815260040161084b90613a71565b805181602001fd5b6001600160e01b031916630a85bd0160e11b1490506115b2565b506001949350505050565b600054610100900460ff16612a8e5760405162461bcd60e51b815260040161084b90613ac3565b6065612a9a8382613682565b5060666108ec8282613682565b600054610100900460ff16612ace5760405162461bcd60e51b815260040161084b90613ac3565b600160ff55565b60007f154c00819833dac601ee5ddded6fda79d9d8b506b911b3dbd54cdb95fe6c3686821480612b2457507f9b16859c0d694afa65b1b6551542db11ea12d6208b6a17dc922f10f2d74440f582145b80612b4e57507f852fd44a27d33057a8c3d90859d4e4c9f54309d4d66d1d968e063befba9198e682145b80612b7857507fe97b137254058bd94f28d2f3eb79e2d34074ffb488d042e3bc958e0a57d2fa2282145b806107185750507f8502233096d909befbda0999bb8ea2f3a6be3c138b9fbf003752a4c8bce86f6c1490565b6000612baf82610f8e565b9050612bbc6000836118c7565b6001600160a01b0381166000908152606860205260408120805460019290612be5908490613947565b909155505060008281526067602052604080822080546001600160a01b0319169055518391906001600160a01b038416907fddf252ad1be2c89b69c2b068fc378daa952ba7f163c4a11628f55a4df523b3ef908390a45050565b612c498383612c72565b612c566000848484612966565b6108ec5760405162461bcd60e51b815260040161084b90613a71565b6001600160a01b038216612cc85760405162461bcd60e51b815260206004820181905260248201527f4552433732313a206d696e7420746f20746865207a65726f2061646472657373604482015260640161084b565b6000818152606760205260409020546001600160a01b031615612d2d5760405162461bcd60e51b815260206004820152601c60248201527f4552433732313a20746f6b656e20616c7265616479206d696e74656400000000604482015260640161084b565b6001600160a01b0382166000908152606860205260408120805460019290612d5690849061395e565b909155505060008181526067602052604080822080546001600160a01b0319166001600160a01b03861690811790915590518392907fddf252ad1be2c89b69c2b068fc378daa952ba7f163c4a11628f55a4df523b3ef908290a45050565b50805460008255906000526020600020908101906118c49190612e08565b508054612dde906135ac565b6000825580601f10612dee575050565b601f0160209004906000526020600020908101906118c491905b5b80821115612e1d5760008155600101612e09565b5090565b6001600160e01b0319811681146118c457600080fd5b600060208284031215612e4957600080fd5b813561125781612e21565b60005b83811015612e6f578181015183820152602001612e57565b83811115610b6a5750506000910152565b60008151808452612e98816020860160208601612e54565b601f01601f19169290920160200192915050565b6020815260006112576020830184612e80565b600060208284031215612ed157600080fd5b5035919050565b80356001600160a01b0381168114612eef57600080fd5b919050565b60008060408385031215612f0757600080fd5b612f1083612ed8565b946020939093013593505050565b600080600060608486031215612f3357600080fd5b612f3c84612ed8565b9250612f4a60208501612ed8565b9150604084013590509250925092565b634e487b7160e01b600052604160045260246000fd5b604051606081016001600160401b0381118282101715612f9257612f92612f5a565b60405290565b604051608081016001600160401b0381118282101715612f9257612f92612f5a565b604051601f8201601f191681016001600160401b0381118282101715612fe257612fe2612f5a565b604052919050565b60006001600160401b0383111561300357613003612f5a565b613016601f8401601f1916602001612fba565b905082815283838301111561302a57600080fd5b828260208301376000602084830101529392505050565b600082601f83011261305257600080fd5b61125783833560208501612fea565b80358015158114612eef57600080fd5b600060a0828403121561308357600080fd5b60405160a081016001600160401b0382821081831117156130a6576130a6612f5a565b8160405282935084359150808211156130be57600080fd5b506130cb85828601613041565b8252506130da60208401613061565b60208201526130eb60408401613061565b60408201526060830135606082015261310660808401612ed8565b60808201525092915050565b60006001600160401b0382111561312b5761312b612f5a565b5060051b60200190565b600082601f83011261314657600080fd5b8135602061315b61315683613112565b612fba565b82815260059290921b8401810191818101908684111561317a57600080fd5b8286015b848110156132695780356001600160401b038082111561319e5760008081fd5b908801906060828b03601f19018113156131b85760008081fd5b6131c0612f70565b878401358152604080850135848111156131da5760008081fd5b85019350603f84018d136131ee5760008081fd5b888401356131fe61315682613112565b81815260059190911b85018201908a8101908f83111561321e5760008081fd5b958301955b828710156132435761323487612ed8565b8252958b0195908b0190613223565b848c0152506132559050858401613061565b90820152865250505091830191830161317e565b509695505050505050565b60008060006060848603121561328957600080fd5b83356001600160401b03808211156132a057600080fd5b90850190608082880312156132b457600080fd5b6132bc612f98565b8235828111156132cb57600080fd5b6132d789828601613041565b8252506020830135828111156132ec57600080fd5b6132f889828601613041565b60208301525061330a60408401612ed8565b604082015261331b60608401613061565b60608201529450602086013591508082111561333657600080fd5b61334287838801613071565b9350604086013591508082111561335857600080fd5b5061336586828701613135565b9150509250925092565b6000806040838503121561338257600080fd5b50508035926020909101359150565b6000806000606084860312156133a657600080fd5b83356001600160401b03808211156133bd57600080fd5b9085019060a082880312156133d157600080fd5b909350602085013590808211156133e757600080fd5b506133f486828701613135565b92505061340360408501613061565b90509250925092565b6000806040838503121561341f57600080fd5b8235915061342f60208401612ed8565b90509250929050565b60006020828403121561344a57600080fd5b61125782612ed8565b60008060006060848603121561346857600080fd5b61347184612ed8565b92506020840135915060408401356001600160401b0381111561349357600080fd5b61336586828701613041565b600080604083850312156134b257600080fd5b6134bb83612ed8565b915061342f60208401613061565b6000806000606084860312156134de57600080fd5b8335925060208401356001600160401b038111156134fb57600080fd5b6133f486828701613041565b6000806000806080858703121561351d57600080fd5b61352685612ed8565b935061353460208601612ed8565b92506040850135915060608501356001600160401b0381111561355657600080fd5b8501601f8101871361356757600080fd5b61357687823560208401612fea565b91505092959194509250565b6000806040838503121561359557600080fd5b61359e83612ed8565b915061342f60208401612ed8565b600181811c908216806135c057607f821691505b6020821081036135e057634e487b7160e01b600052602260045260246000fd5b50919050565b6020808252602e908201527f4552433732313a2063616c6c6572206973206e6f7420746f6b656e206f776e6560408201526d1c881b9bdc88185c1c1c9bdd995960921b606082015260800190565b601f8211156108ec57600081815260208120601f850160051c8101602086101561365b5750805b601f850160051c820191505b8181101561367a57828155600101613667565b505050505050565b81516001600160401b0381111561369b5761369b612f5a565b6136af816136a984546135ac565b84613634565b602080601f8311600181146136e457600084156136cc5750858301515b600019600386901b1c1916600185901b17855561367a565b600085815260208120601f198616915b82811015613713578886015182559484019460019091019084016136f4565b50858210156137315787850151600019600388901b60f8161c191681555b5050505050600190811b01905550565b634e487b7160e01b600052601160045260246000fd5b600081600019048311821515161561377157613771613741565b500290565b634e487b7160e01b600052601260045260246000fd5b60008261379b5761379b613776565b500490565b60008083546137ae816135ac565b600182811680156137c657600181146137db5761380a565b60ff198416875282151583028701945061380a565b8760005260208060002060005b858110156138015781548a8201529084019082016137e8565b50505082870194505b50929695505050505050565b6000808335601e1984360301811261382d57600080fd5b8301803591506001600160401b0382111561384757600080fd5b602001915036819003821315610ba757600080fd5b8183823760009101908152919050565b6001600160401b0383111561388357613883612f5a565b6138978361389183546135ac565b83613634565b6000601f8411600181146138cb57600085156138b35750838201355b600019600387901b1c1916600186901b178355613925565b600083815260209020601f19861690835b828110156138fc57868501358255602094850194600190920191016138dc565b50868210156139195760001960f88860031b161c19848701351681555b505060018560011b0183555b5050505050565b60006020828403121561393e57600080fd5b61125782613061565b60008282101561395957613959613741565b500390565b6000821982111561397157613971613741565b500190565b60008351613988818460208801612e54565b83519083019061399c818360208801612e54565b01949350505050565b7f7b2273656c6c65725f6665655f62617369735f706f696e7473223a20000000008152600083516139dd81601c850160208801612e54565b731610113332b2afb932b1b4b834b2b73a111d101160611b601c918401918201528351613a11816030840160208801612e54565b61227d60f01b60309290910191820152603201949350505050565b7f646174613a6170706c69636174696f6e2f6a736f6e3b6261736536342c000000815260008251613a6481601d850160208701612e54565b91909101601d0192915050565b60208082526032908201527f4552433732313a207472616e7366657220746f206e6f6e20455243373231526560408201527131b2b4bb32b91034b6b83632b6b2b73a32b960711b606082015260800190565b6020808252602b908201527f496e697469616c697a61626c653a20636f6e7472616374206973206e6f74206960408201526a6e697469616c697a696e6760a81b606082015260800190565b634e487b7160e01b600052603260045260246000fd5b7f4772616e756c6172526f6c65733a20696e76616c696420726f6c652000000000815260008251613b5c81601c850160208701612e54565b91909101601c0192915050565b600060018201613b7b57613b7b613741565b5060010190565b73023b930b73ab630b92937b632b99d103937b632960651b815260008251613bb1816014850160208701612e54565b691034b990333937bd32b760b11b6014939091019283015250601e01919050565b600082613be157613be1613776565b500690565b600081613bf557613bf5613741565b506000190190565b7f416363657373436f6e74726f6c3a206163636f756e7420000000000000000000815260008351613c35816017850160208801612e54565b7001034b99036b4b9b9b4b733903937b6329607d1b6017918401918201528351613c66816028840160208801612e54565b01602801949350505050565b6001600160a01b0385811682528416602082015260408101839052608060608201819052600090613ca590830184612e80565b9695505050505050565b600060208284031215613cc157600080fd5b815161125781612e2156fe4142434445464748494a4b4c4d4e4f505152535455565758595a6162636465666768696a6b6c6d6e6f707172737475767778797a303132333435363738392b2fa49807205ce4d355092ef5a8a18f56e8913cf4a201fbe287825b095693c21775a2646970667358221220029ec90ca4feae59592e26c2f215ffb3bad2f01fdd29962b83c183057eb4937a64736f6c634300080f0033",
  "devdoc": {
    "kind": "dev",
    "methods": {
      "approve(address,uint256)": {
        "details": "See {IERC721-approve}."
      },
      "balanceOf(address)": {
        "details": "See {IERC721-balanceOf}."
      },
      "contractURI()": {
        "details": "OpenSea contract metadata, returns a base64 encoded JSON string containing royalties basis points and royalties address"
      },
      "getApproved(uint256)": {
        "details": "See {IERC721-getApproved}."
      },
      "getRoleAdmin(bytes32)": {
        "details": "Returns the admin role that controls `role`. See {grantRole} and {revokeRole}. To change a role's admin, use {_setRoleAdmin}."
      },
      "grantRole(bytes32,address)": {
        "details": "Grants `role` to `account`. If `account` had not been already granted `role`, emits a {RoleGranted} event. Requirements: - the caller must have ``role``'s admin role. May emit a {RoleGranted} event."
      },
      "hasRole(bytes32,address)": {
        "details": "Returns `true` if `account` has been granted `role`."
      },
      "isApprovedForAll(address,address)": {
        "details": "See {IERC721-isApprovedForAll}."
      },
      "name()": {
        "details": "See {IERC721Metadata-name}."
      },
      "ownerOf(uint256)": {
        "details": "See {IERC721-ownerOf}."
      },
      "renounceRole(bytes32,address)": {
        "details": "Revokes `role` from the calling account. Roles are often managed via {grantRole} and {revokeRole}: this function's purpose is to provide a mechanism for accounts to lose their privileges if they are compromised (such as when a trusted device is misplaced). If the calling account had been revoked `role`, emits a {RoleRevoked} event. Requirements: - the caller must be `account`. May emit a {RoleRevoked} event."
      },
      "revokeRole(bytes32,address)": {
        "details": "Revokes `role` from `account`. If `account` had been granted `role`, emits a {RoleRevoked} event. Requirements: - the caller must have ``role``'s admin role. May emit a {RoleRevoked} event."
      },
      "safeTransferFrom(address,address,uint256)": {
        "details": "See {IERC721-safeTransferFrom}."
      },
      "safeTransferFrom(address,address,uint256,bytes)": {
        "details": "See {IERC721-safeTransferFrom}."
      },
      "setApprovalForAll(address,bool)": {
        "details": "See {IERC721-setApprovalForAll}."
      },
      "symbol()": {
        "details": "See {IERC721Metadata-symbol}."
      },
      "tokenURI(uint256)": {
        "details": "See {IERC721Metadata-tokenURI}."
      },
      "transferFrom(address,address,uint256)": {
        "details": "See {IERC721-transferFrom}."
      }
    },
    "version": 1
  },
  "userdoc": {
    "kind": "user",
    "methods": {},
    "version": 1
  },
  "storageLayout": {
    "storage": [
      {
        "astId": 419,
        "contract": "contracts/templates/ERC721NFTProduct.sol:ERC721NFTProduct",
        "label": "_initialized",
        "offset": 0,
        "slot": "0",
        "type": "t_uint8"
      },
      {
        "astId": 422,
        "contract": "contracts/templates/ERC721NFTProduct.sol:ERC721NFTProduct",
        "label": "_initializing",
        "offset": 1,
        "slot": "0",
        "type": "t_bool"
      },
      {
        "astId": 3527,
        "contract": "contracts/templates/ERC721NFTProduct.sol:ERC721NFTProduct",
        "label": "__gap",
        "offset": 0,
        "slot": "1",
        "type": "t_array(t_uint256)50_storage"
      },
      {
        "astId": 3797,
        "contract": "contracts/templates/ERC721NFTProduct.sol:ERC721NFTProduct",
        "label": "__gap",
        "offset": 0,
        "slot": "51",
        "type": "t_array(t_uint256)50_storage"
      },
      {
        "astId": 2074,
        "contract": "contracts/templates/ERC721NFTProduct.sol:ERC721NFTProduct",
        "label": "_name",
        "offset": 0,
        "slot": "101",
        "type": "t_string_storage"
      },
      {
        "astId": 2076,
        "contract": "contracts/templates/ERC721NFTProduct.sol:ERC721NFTProduct",
        "label": "_symbol",
        "offset": 0,
        "slot": "102",
        "type": "t_string_storage"
      },
      {
        "astId": 2080,
        "contract": "contracts/templates/ERC721NFTProduct.sol:ERC721NFTProduct",
        "label": "_owners",
        "offset": 0,
        "slot": "103",
        "type": "t_mapping(t_uint256,t_address)"
      },
      {
        "astId": 2084,
        "contract": "contracts/templates/ERC721NFTProduct.sol:ERC721NFTProduct",
        "label": "_balances",
        "offset": 0,
        "slot": "104",
        "type": "t_mapping(t_address,t_uint256)"
      },
      {
        "astId": 2088,
        "contract": "contracts/templates/ERC721NFTProduct.sol:ERC721NFTProduct",
        "label": "_tokenApprovals",
        "offset": 0,
        "slot": "105",
        "type": "t_mapping(t_uint256,t_address)"
      },
      {
        "astId": 2094,
        "contract": "contracts/templates/ERC721NFTProduct.sol:ERC721NFTProduct",
        "label": "_operatorApprovals",
        "offset": 0,
        "slot": "106",
        "type": "t_mapping(t_address,t_mapping(t_address,t_bool))"
      },
      {
        "astId": 2936,
        "contract": "contracts/templates/ERC721NFTProduct.sol:ERC721NFTProduct",
        "label": "__gap",
        "offset": 0,
        "slot": "107",
        "type": "t_array(t_uint256)44_storage"
      },
      {
        "astId": 3099,
        "contract": "contracts/templates/ERC721NFTProduct.sol:ERC721NFTProduct",
        "label": "_tokenURIs",
        "offset": 0,
        "slot": "151",
        "type": "t_mapping(t_uint256,t_string_storage)"
      },
      {
        "astId": 3215,
        "contract": "contracts/templates/ERC721NFTProduct.sol:ERC721NFTProduct",
        "label": "__gap",
        "offset": 0,
        "slot": "152",
        "type": "t_array(t_uint256)49_storage"
      },
      {
        "astId": 39,
        "contract": "contracts/templates/ERC721NFTProduct.sol:ERC721NFTProduct",
        "label": "_roles",
        "offset": 0,
        "slot": "201",
        "type": "t_mapping(t_bytes32,t_struct(RoleData)34_storage)"
      },
      {
        "astId": 338,
        "contract": "contracts/templates/ERC721NFTProduct.sol:ERC721NFTProduct",
        "label": "__gap",
        "offset": 0,
        "slot": "202",
        "type": "t_array(t_uint256)49_storage"
      },
      {
        "astId": 6742,
        "contract": "contracts/templates/ERC721NFTProduct.sol:ERC721NFTProduct",
        "label": "_owner",
        "offset": 0,
        "slot": "251",
        "type": "t_address"
      },
      {
        "astId": 6744,
        "contract": "contracts/templates/ERC721NFTProduct.sol:ERC721NFTProduct",
        "label": "_nftPort",
        "offset": 0,
        "slot": "252",
        "type": "t_address"
      },
      {
        "astId": 6749,
        "contract": "contracts/templates/ERC721NFTProduct.sol:ERC721NFTProduct",
        "label": "_rolesAddressesIndexed",
        "offset": 0,
        "slot": "253",
        "type": "t_mapping(t_bytes32,t_array(t_address)dyn_storage)"
      },
      {
        "astId": 6753,
        "contract": "contracts/templates/ERC721NFTProduct.sol:ERC721NFTProduct",
        "label": "_rolesFrozen",
        "offset": 0,
        "slot": "254",
        "type": "t_mapping(t_bytes32,t_bool)"
      },
      {
        "astId": 577,
        "contract": "contracts/templates/ERC721NFTProduct.sol:ERC721NFTProduct",
        "label": "_status",
        "offset": 0,
        "slot": "255",
        "type": "t_uint256"
      },
      {
        "astId": 621,
        "contract": "contracts/templates/ERC721NFTProduct.sol:ERC721NFTProduct",
        "label": "__gap",
        "offset": 0,
        "slot": "256",
        "type": "t_array(t_uint256)49_storage"
      },
      {
        "astId": 8229,
        "contract": "contracts/templates/ERC721NFTProduct.sol:ERC721NFTProduct",
        "label": "metadataUpdatable",
        "offset": 0,
        "slot": "305",
        "type": "t_bool"
      },
      {
        "astId": 8231,
        "contract": "contracts/templates/ERC721NFTProduct.sol:ERC721NFTProduct",
        "label": "tokensBurnable",
        "offset": 1,
        "slot": "305",
        "type": "t_bool"
      },
      {
        "astId": 8233,
        "contract": "contracts/templates/ERC721NFTProduct.sol:ERC721NFTProduct",
        "label": "tokensTransferable",
        "offset": 2,
        "slot": "305",
        "type": "t_bool"
      },
      {
        "astId": 8237,
        "contract": "contracts/templates/ERC721NFTProduct.sol:ERC721NFTProduct",
        "label": "freezeTokenUris",
        "offset": 0,
        "slot": "306",
        "type": "t_mapping(t_uint256,t_bool)"
      },
      {
        "astId": 8239,
        "contract": "contracts/templates/ERC721NFTProduct.sol:ERC721NFTProduct",
        "label": "baseURI",
        "offset": 0,
        "slot": "307",
        "type": "t_string_storage"
      },
      {
        "astId": 8241,
        "contract": "contracts/templates/ERC721NFTProduct.sol:ERC721NFTProduct",
        "label": "royaltiesAddress",
        "offset": 0,
        "slot": "308",
        "type": "t_address"
      },
      {
        "astId": 8243,
        "contract": "contracts/templates/ERC721NFTProduct.sol:ERC721NFTProduct",
        "label": "royaltiesBasisPoints",
        "offset": 0,
        "slot": "309",
        "type": "t_uint256"
      },
      {
        "astId": 8245,
        "contract": "contracts/templates/ERC721NFTProduct.sol:ERC721NFTProduct",
        "label": "totalSupply",
        "offset": 0,
        "slot": "310",
        "type": "t_uint256"
      }
    ],
    "types": {
      "t_address": {
        "encoding": "inplace",
        "label": "address",
        "numberOfBytes": "20"
      },
      "t_array(t_address)dyn_storage": {
        "base": "t_address",
        "encoding": "dynamic_array",
        "label": "address[]",
        "numberOfBytes": "32"
      },
      "t_array(t_uint256)44_storage": {
        "base": "t_uint256",
        "encoding": "inplace",
        "label": "uint256[44]",
        "numberOfBytes": "1408"
      },
      "t_array(t_uint256)49_storage": {
        "base": "t_uint256",
        "encoding": "inplace",
        "label": "uint256[49]",
        "numberOfBytes": "1568"
      },
      "t_array(t_uint256)50_storage": {
        "base": "t_uint256",
        "encoding": "inplace",
        "label": "uint256[50]",
        "numberOfBytes": "1600"
      },
      "t_bool": {
        "encoding": "inplace",
        "label": "bool",
        "numberOfBytes": "1"
      },
      "t_bytes32": {
        "encoding": "inplace",
        "label": "bytes32",
        "numberOfBytes": "32"
      },
      "t_mapping(t_address,t_bool)": {
        "encoding": "mapping",
        "key": "t_address",
        "label": "mapping(address => bool)",
        "numberOfBytes": "32",
        "value": "t_bool"
      },
      "t_mapping(t_address,t_mapping(t_address,t_bool))": {
        "encoding": "mapping",
        "key": "t_address",
        "label": "mapping(address => mapping(address => bool))",
        "numberOfBytes": "32",
        "value": "t_mapping(t_address,t_bool)"
      },
      "t_mapping(t_address,t_uint256)": {
        "encoding": "mapping",
        "key": "t_address",
        "label": "mapping(address => uint256)",
        "numberOfBytes": "32",
        "value": "t_uint256"
      },
      "t_mapping(t_bytes32,t_array(t_address)dyn_storage)": {
        "encoding": "mapping",
        "key": "t_bytes32",
        "label": "mapping(bytes32 => address[])",
        "numberOfBytes": "32",
        "value": "t_array(t_address)dyn_storage"
      },
      "t_mapping(t_bytes32,t_bool)": {
        "encoding": "mapping",
        "key": "t_bytes32",
        "label": "mapping(bytes32 => bool)",
        "numberOfBytes": "32",
        "value": "t_bool"
      },
      "t_mapping(t_bytes32,t_struct(RoleData)34_storage)": {
        "encoding": "mapping",
        "key": "t_bytes32",
        "label": "mapping(bytes32 => struct AccessControlUpgradeable.RoleData)",
        "numberOfBytes": "32",
        "value": "t_struct(RoleData)34_storage"
      },
      "t_mapping(t_uint256,t_address)": {
        "encoding": "mapping",
        "key": "t_uint256",
        "label": "mapping(uint256 => address)",
        "numberOfBytes": "32",
        "value": "t_address"
      },
      "t_mapping(t_uint256,t_bool)": {
        "encoding": "mapping",
        "key": "t_uint256",
        "label": "mapping(uint256 => bool)",
        "numberOfBytes": "32",
        "value": "t_bool"
      },
      "t_mapping(t_uint256,t_string_storage)": {
        "encoding": "mapping",
        "key": "t_uint256",
        "label": "mapping(uint256 => string)",
        "numberOfBytes": "32",
        "value": "t_string_storage"
      },
      "t_string_storage": {
        "encoding": "bytes",
        "label": "string",
        "numberOfBytes": "32"
      },
      "t_struct(RoleData)34_storage": {
        "encoding": "inplace",
        "label": "struct AccessControlUpgradeable.RoleData",
        "members": [
          {
            "astId": 31,
            "contract": "contracts/templates/ERC721NFTProduct.sol:ERC721NFTProduct",
            "label": "members",
            "offset": 0,
            "slot": "0",
            "type": "t_mapping(t_address,t_bool)"
          },
          {
            "astId": 33,
            "contract": "contracts/templates/ERC721NFTProduct.sol:ERC721NFTProduct",
            "label": "adminRole",
            "offset": 0,
            "slot": "1",
            "type": "t_bytes32"
          }
        ],
        "numberOfBytes": "64"
      },
      "t_uint256": {
        "encoding": "inplace",
        "label": "uint256",
        "numberOfBytes": "32"
      },
      "t_uint8": {
        "encoding": "inplace",
        "label": "uint8",
        "numberOfBytes": "1"
      }
    }
  }
}