{
  "address": "0xDAE6Dd8a61279a12a8441d073d5D548d41aF5315",
  "abi": [
    {
      "inputs": [],
      "stateMutability": "nonpayable",
      "type": "constructor"
    },
    {
      "inputs": [],
      "name": "ApprovalCallerNotOwnerNorApproved",
      "type": "error"
    },
    {
      "inputs": [],
      "name": "ApprovalQueryForNonexistentToken",
      "type": "error"
    },
    {
      "inputs": [],
      "name": "ApprovalToCurrentOwner",
      "type": "error"
    },
    {
      "inputs": [],
      "name": "ApproveToCaller",
      "type": "error"
    },
    {
      "inputs": [],
      "name": "BalanceQueryForZeroAddress",
      "type": "error"
    },
    {
      "inputs": [],
      "name": "MintToZeroAddress",
      "type": "error"
    },
    {
      "inputs": [],
      "name": "MintZeroQuantity",
      "type": "error"
    },
    {
      "inputs": [],
      "name": "OwnerQueryForNonexistentToken",
      "type": "error"
    },
    {
      "inputs": [],
      "name": "TransferCallerNotOwnerNorApproved",
      "type": "error"
    },
    {
      "inputs": [],
      "name": "TransferFromIncorrectOwner",
      "type": "error"
    },
    {
      "inputs": [],
      "name": "TransferToNonERC721ReceiverImplementer",
      "type": "error"
    },
    {
      "inputs": [],
      "name": "TransferToZeroAddress",
      "type": "error"
    },
    {
      "anonymous": false,
      "inputs": [
        {
          "indexed": true,
          "internalType": "address",
          "name": "owner",
          "type": "address"
        },
        {
          "indexed": true,
          "internalType": "address",
          "name": "approved",
          "type": "address"
        },
        {
          "indexed": true,
          "internalType": "uint256",
          "name": "tokenId",
          "type": "uint256"
        }
      ],
      "name": "Approval",
      "type": "event"
    },
    {
      "anonymous": false,
      "inputs": [
        {
          "indexed": true,
          "internalType": "address",
          "name": "owner",
          "type": "address"
        },
        {
          "indexed": true,
          "internalType": "address",
          "name": "operator",
          "type": "address"
        },
        {
          "indexed": false,
          "internalType": "bool",
          "name": "approved",
          "type": "bool"
        }
      ],
      "name": "ApprovalForAll",
      "type": "event"
    },
    {
      "anonymous": false,
      "inputs": [
        {
          "indexed": false,
          "internalType": "uint8",
          "name": "version",
          "type": "uint8"
        }
      ],
      "name": "Initialized",
      "type": "event"
    },
    {
      "anonymous": false,
      "inputs": [
        {
          "indexed": true,
          "internalType": "address",
          "name": "previousOwner",
          "type": "address"
        },
        {
          "indexed": true,
          "internalType": "address",
          "name": "newOwner",
          "type": "address"
        }
      ],
      "name": "OwnershipTransferred",
      "type": "event"
    },
    {
      "anonymous": false,
      "inputs": [
        {
          "indexed": true,
          "internalType": "bytes32",
          "name": "role",
          "type": "bytes32"
        },
        {
          "indexed": true,
          "internalType": "bytes32",
          "name": "previousAdminRole",
          "type": "bytes32"
        },
        {
          "indexed": true,
          "internalType": "bytes32",
          "name": "newAdminRole",
          "type": "bytes32"
        }
      ],
      "name": "RoleAdminChanged",
      "type": "event"
    },
    {
      "anonymous": false,
      "inputs": [
        {
          "indexed": true,
          "internalType": "bytes32",
          "name": "role",
          "type": "bytes32"
        },
        {
          "indexed": true,
          "internalType": "address",
          "name": "account",
          "type": "address"
        },
        {
          "indexed": true,
          "internalType": "address",
          "name": "sender",
          "type": "address"
        }
      ],
      "name": "RoleGranted",
      "type": "event"
    },
    {
      "anonymous": false,
      "inputs": [
        {
          "indexed": true,
          "internalType": "bytes32",
          "name": "role",
          "type": "bytes32"
        },
        {
          "indexed": true,
          "internalType": "address",
          "name": "account",
          "type": "address"
        },
        {
          "indexed": true,
          "internalType": "address",
          "name": "sender",
          "type": "address"
        }
      ],
      "name": "RoleRevoked",
      "type": "event"
    },
    {
      "anonymous": false,
      "inputs": [
        {
          "indexed": true,
          "internalType": "address",
          "name": "from",
          "type": "address"
        },
        {
          "indexed": true,
          "internalType": "address",
          "name": "to",
          "type": "address"
        },
        {
          "indexed": true,
          "internalType": "uint256",
          "name": "tokenId",
          "type": "uint256"
        }
      ],
      "name": "Transfer",
      "type": "event"
    },
    {
      "inputs": [],
      "name": "ADMIN_ROLE",
      "outputs": [
        {
          "internalType": "bytes32",
          "name": "",
          "type": "bytes32"
        }
      ],
      "stateMutability": "view",
      "type": "function"
    },
    {
      "inputs": [],
      "name": "DEFAULT_ADMIN_ROLE",
      "outputs": [
        {
          "internalType": "bytes32",
          "name": "",
          "type": "bytes32"
        }
      ],
      "stateMutability": "view",
      "type": "function"
    },
    {
      "inputs": [],
      "name": "NAME",
      "outputs": [
        {
          "internalType": "string",
          "name": "",
          "type": "string"
        }
      ],
      "stateMutability": "view",
      "type": "function"
    },
    {
      "inputs": [],
      "name": "ROYALTIES_BASIS",
      "outputs": [
        {
          "internalType": "uint16",
          "name": "",
          "type": "uint16"
        }
      ],
      "stateMutability": "view",
      "type": "function"
    },
    {
      "inputs": [],
      "name": "VERSION",
      "outputs": [
        {
          "internalType": "uint256",
          "name": "",
          "type": "uint256"
        }
      ],
      "stateMutability": "view",
      "type": "function"
    },
    {
      "inputs": [
        {
          "internalType": "address",
          "name": "to",
          "type": "address"
        },
        {
          "internalType": "uint256",
          "name": "tokenId",
          "type": "uint256"
        }
      ],
      "name": "approve",
      "outputs": [],
      "stateMutability": "nonpayable",
      "type": "function"
    },
    {
      "inputs": [],
      "name": "availableSupply",
      "outputs": [
        {
          "internalType": "uint256",
          "name": "",
          "type": "uint256"
        }
      ],
      "stateMutability": "view",
      "type": "function"
    },
    {
      "inputs": [
        {
          "internalType": "address",
          "name": "owner",
          "type": "address"
        }
      ],
      "name": "balanceOf",
      "outputs": [
        {
          "internalType": "uint256",
          "name": "",
          "type": "uint256"
        }
      ],
      "stateMutability": "view",
      "type": "function"
    },
    {
      "inputs": [],
      "name": "contractURI",
      "outputs": [
        {
          "internalType": "string",
          "name": "",
          "type": "string"
        }
      ],
      "stateMutability": "view",
      "type": "function"
    },
    {
      "inputs": [
        {
          "internalType": "uint256",
          "name": "tokenId",
          "type": "uint256"
        }
      ],
      "name": "getApproved",
      "outputs": [
        {
          "internalType": "address",
          "name": "",
          "type": "address"
        }
      ],
      "stateMutability": "view",
      "type": "function"
    },
    {
      "inputs": [],
      "name": "getInfo",
      "outputs": [
        {
          "components": [
            {
              "internalType": "uint256",
              "name": "version",
              "type": "uint256"
            },
            {
              "components": [
                {
                  "internalType": "string",
                  "name": "name",
                  "type": "string"
                },
                {
                  "internalType": "string",
                  "name": "symbol",
                  "type": "string"
                },
                {
                  "internalType": "address",
                  "name": "owner",
                  "type": "address"
                },
                {
                  "internalType": "uint256",
                  "name": "maxSupply",
                  "type": "uint256"
                },
                {
                  "internalType": "uint256",
                  "name": "reservedSupply",
                  "type": "uint256"
                },
                {
                  "internalType": "uint256",
                  "name": "tokensPerMint",
                  "type": "uint256"
                },
                {
                  "internalType": "address payable",
                  "name": "treasuryAddress",
                  "type": "address"
                }
              ],
              "internalType": "struct NFTCollection.DeploymentConfig",
              "name": "deploymentConfig",
              "type": "tuple"
            },
            {
              "components": [
                {
                  "internalType": "string",
                  "name": "baseURI",
                  "type": "string"
                },
                {
                  "internalType": "bool",
                  "name": "metadataFrozen",
                  "type": "bool"
                },
                {
                  "internalType": "uint256",
                  "name": "publicMintPrice",
                  "type": "uint256"
                },
                {
                  "internalType": "bool",
                  "name": "publicMintPriceFrozen",
                  "type": "bool"
                },
                {
                  "internalType": "uint256",
                  "name": "presaleMintPrice",
                  "type": "uint256"
                },
                {
                  "internalType": "bool",
                  "name": "presaleMintPriceFrozen",
                  "type": "bool"
                },
                {
                  "internalType": "uint256",
                  "name": "publicMintStart",
                  "type": "uint256"
                },
                {
                  "internalType": "uint256",
                  "name": "presaleMintStart",
                  "type": "uint256"
                },
                {
                  "internalType": "string",
                  "name": "prerevealTokenURI",
                  "type": "string"
                },
                {
                  "internalType": "bytes32",
                  "name": "presaleMerkleRoot",
                  "type": "bytes32"
                },
                {
                  "internalType": "uint256",
                  "name": "royaltiesBps",
                  "type": "uint256"
                },
                {
                  "internalType": "address",
                  "name": "royaltiesAddress",
                  "type": "address"
                }
              ],
              "internalType": "struct NFTCollection.RuntimeConfig",
              "name": "runtimeConfig",
              "type": "tuple"
            }
          ],
          "internalType": "struct NFTCollection.ContractInfo",
          "name": "info",
          "type": "tuple"
        }
      ],
      "stateMutability": "view",
      "type": "function"
    },
    {
      "inputs": [
        {
          "internalType": "bytes32",
          "name": "role",
          "type": "bytes32"
        }
      ],
      "name": "getRoleAdmin",
      "outputs": [
        {
          "internalType": "bytes32",
          "name": "",
          "type": "bytes32"
        }
      ],
      "stateMutability": "view",
      "type": "function"
    },
    {
      "inputs": [
        {
          "internalType": "bytes32",
          "name": "role",
          "type": "bytes32"
        },
        {
          "internalType": "address",
          "name": "account",
          "type": "address"
        }
      ],
      "name": "grantRole",
      "outputs": [],
      "stateMutability": "nonpayable",
      "type": "function"
    },
    {
      "inputs": [
        {
          "internalType": "bytes32",
          "name": "role",
          "type": "bytes32"
        },
        {
          "internalType": "address",
          "name": "account",
          "type": "address"
        }
      ],
      "name": "hasRole",
      "outputs": [
        {
          "internalType": "bool",
          "name": "",
          "type": "bool"
        }
      ],
      "stateMutability": "view",
      "type": "function"
    },
    {
      "inputs": [
        {
          "components": [
            {
              "internalType": "string",
              "name": "name",
              "type": "string"
            },
            {
              "internalType": "string",
              "name": "symbol",
              "type": "string"
            },
            {
              "internalType": "address",
              "name": "owner",
              "type": "address"
            },
            {
              "internalType": "uint256",
              "name": "maxSupply",
              "type": "uint256"
            },
            {
              "internalType": "uint256",
              "name": "reservedSupply",
              "type": "uint256"
            },
            {
              "internalType": "uint256",
              "name": "tokensPerMint",
              "type": "uint256"
            },
            {
              "internalType": "address payable",
              "name": "treasuryAddress",
              "type": "address"
            }
          ],
          "internalType": "struct NFTCollection.DeploymentConfig",
          "name": "deploymentConfig",
          "type": "tuple"
        },
        {
          "components": [
            {
              "internalType": "string",
              "name": "baseURI",
              "type": "string"
            },
            {
              "internalType": "bool",
              "name": "metadataFrozen",
              "type": "bool"
            },
            {
              "internalType": "uint256",
              "name": "publicMintPrice",
              "type": "uint256"
            },
            {
              "internalType": "bool",
              "name": "publicMintPriceFrozen",
              "type": "bool"
            },
            {
              "internalType": "uint256",
              "name": "presaleMintPrice",
              "type": "uint256"
            },
            {
              "internalType": "bool",
              "name": "presaleMintPriceFrozen",
              "type": "bool"
            },
            {
              "internalType": "uint256",
              "name": "publicMintStart",
              "type": "uint256"
            },
            {
              "internalType": "uint256",
              "name": "presaleMintStart",
              "type": "uint256"
            },
            {
              "internalType": "string",
              "name": "prerevealTokenURI",
              "type": "string"
            },
            {
              "internalType": "bytes32",
              "name": "presaleMerkleRoot",
              "type": "bytes32"
            },
            {
              "internalType": "uint256",
              "name": "royaltiesBps",
              "type": "uint256"
            },
            {
              "internalType": "address",
              "name": "royaltiesAddress",
              "type": "address"
            }
          ],
          "internalType": "struct NFTCollection.RuntimeConfig",
          "name": "runtimeConfig",
          "type": "tuple"
        }
      ],
      "name": "initialize",
      "outputs": [],
      "stateMutability": "nonpayable",
      "type": "function"
    },
    {
      "inputs": [
        {
          "internalType": "address",
          "name": "owner",
          "type": "address"
        },
        {
          "internalType": "address",
          "name": "operator",
          "type": "address"
        }
      ],
      "name": "isApprovedForAll",
      "outputs": [
        {
          "internalType": "bool",
          "name": "",
          "type": "bool"
        }
      ],
      "stateMutability": "view",
      "type": "function"
    },
    {
      "inputs": [
        {
          "internalType": "address",
          "name": "wallet",
          "type": "address"
        },
        {
          "internalType": "bytes32[]",
          "name": "proof",
          "type": "bytes32[]"
        }
      ],
      "name": "isWhitelisted",
      "outputs": [
        {
          "internalType": "bool",
          "name": "",
          "type": "bool"
        }
      ],
      "stateMutability": "view",
      "type": "function"
    },
    {
      "inputs": [
        {
          "internalType": "uint256",
          "name": "amount",
          "type": "uint256"
        }
      ],
      "name": "mint",
      "outputs": [],
      "stateMutability": "payable",
      "type": "function"
    },
    {
      "inputs": [],
      "name": "mintingActive",
      "outputs": [
        {
          "internalType": "bool",
          "name": "",
          "type": "bool"
        }
      ],
      "stateMutability": "view",
      "type": "function"
    },
    {
      "inputs": [],
      "name": "name",
      "outputs": [
        {
          "internalType": "string",
          "name": "",
          "type": "string"
        }
      ],
      "stateMutability": "view",
      "type": "function"
    },
    {
      "inputs": [],
      "name": "owner",
      "outputs": [
        {
          "internalType": "address",
          "name": "",
          "type": "address"
        }
      ],
      "stateMutability": "view",
      "type": "function"
    },
    {
      "inputs": [
        {
          "internalType": "uint256",
          "name": "tokenId",
          "type": "uint256"
        }
      ],
      "name": "ownerOf",
      "outputs": [
        {
          "internalType": "address",
          "name": "",
          "type": "address"
        }
      ],
      "stateMutability": "view",
      "type": "function"
    },
    {
      "inputs": [],
      "name": "presaleActive",
      "outputs": [
        {
          "internalType": "bool",
          "name": "",
          "type": "bool"
        }
      ],
      "stateMutability": "view",
      "type": "function"
    },
    {
      "inputs": [
        {
          "internalType": "uint256",
          "name": "amount",
          "type": "uint256"
        },
        {
          "internalType": "bytes32[]",
          "name": "proof",
          "type": "bytes32[]"
        }
      ],
      "name": "presaleMint",
      "outputs": [],
      "stateMutability": "payable",
      "type": "function"
    },
    {
      "inputs": [
        {
          "internalType": "bytes32",
          "name": "role",
          "type": "bytes32"
        },
        {
          "internalType": "address",
          "name": "account",
          "type": "address"
        }
      ],
      "name": "renounceRole",
      "outputs": [],
      "stateMutability": "nonpayable",
      "type": "function"
    },
    {
      "inputs": [
        {
          "internalType": "address",
          "name": "to",
          "type": "address"
        },
        {
          "internalType": "uint256",
          "name": "amount",
          "type": "uint256"
        }
      ],
      "name": "reserveMint",
      "outputs": [],
      "stateMutability": "nonpayable",
      "type": "function"
    },
    {
      "inputs": [],
      "name": "reserveRemaining",
      "outputs": [
        {
          "internalType": "uint256",
          "name": "",
          "type": "uint256"
        }
      ],
      "stateMutability": "view",
      "type": "function"
    },
    {
      "inputs": [
        {
          "internalType": "bytes32",
          "name": "role",
          "type": "bytes32"
        },
        {
          "internalType": "address",
          "name": "account",
          "type": "address"
        }
      ],
      "name": "revokeRole",
      "outputs": [],
      "stateMutability": "nonpayable",
      "type": "function"
    },
    {
      "inputs": [
        {
          "internalType": "uint256",
          "name": "",
          "type": "uint256"
        },
        {
          "internalType": "uint256",
          "name": "salePrice",
          "type": "uint256"
        }
      ],
      "name": "royaltyInfo",
      "outputs": [
        {
          "internalType": "address",
          "name": "receiver",
          "type": "address"
        },
        {
          "internalType": "uint256",
          "name": "royaltyAmount",
          "type": "uint256"
        }
      ],
      "stateMutability": "view",
      "type": "function"
    },
    {
      "inputs": [
        {
          "internalType": "address",
          "name": "from",
          "type": "address"
        },
        {
          "internalType": "address",
          "name": "to",
          "type": "address"
        },
        {
          "internalType": "uint256",
          "name": "tokenId",
          "type": "uint256"
        }
      ],
      "name": "safeTransferFrom",
      "outputs": [],
      "stateMutability": "nonpayable",
      "type": "function"
    },
    {
      "inputs": [
        {
          "internalType": "address",
          "name": "from",
          "type": "address"
        },
        {
          "internalType": "address",
          "name": "to",
          "type": "address"
        },
        {
          "internalType": "uint256",
          "name": "tokenId",
          "type": "uint256"
        },
        {
          "internalType": "bytes",
          "name": "_data",
          "type": "bytes"
        }
      ],
      "name": "safeTransferFrom",
      "outputs": [],
      "stateMutability": "nonpayable",
      "type": "function"
    },
    {
      "inputs": [
        {
          "internalType": "address",
          "name": "operator",
          "type": "address"
        },
        {
          "internalType": "bool",
          "name": "approved",
          "type": "bool"
        }
      ],
      "name": "setApprovalForAll",
      "outputs": [],
      "stateMutability": "nonpayable",
      "type": "function"
    },
    {
      "inputs": [
        {
          "internalType": "bytes4",
          "name": "interfaceId",
          "type": "bytes4"
        }
      ],
      "name": "supportsInterface",
      "outputs": [
        {
          "internalType": "bool",
          "name": "",
          "type": "bool"
        }
      ],
      "stateMutability": "view",
      "type": "function"
    },
    {
      "inputs": [],
      "name": "symbol",
      "outputs": [
        {
          "internalType": "string",
          "name": "",
          "type": "string"
        }
      ],
      "stateMutability": "view",
      "type": "function"
    },
    {
      "inputs": [
        {
          "internalType": "uint256",
          "name": "tokenId",
          "type": "uint256"
        }
      ],
      "name": "tokenURI",
      "outputs": [
        {
          "internalType": "string",
          "name": "",
          "type": "string"
        }
      ],
      "stateMutability": "view",
      "type": "function"
    },
    {
      "inputs": [],
      "name": "totalSupply",
      "outputs": [
        {
          "internalType": "uint256",
          "name": "",
          "type": "uint256"
        }
      ],
      "stateMutability": "view",
      "type": "function"
    },
    {
      "inputs": [
        {
          "internalType": "address",
          "name": "to",
          "type": "address"
        }
      ],
      "name": "transferAdminRights",
      "outputs": [],
      "stateMutability": "nonpayable",
      "type": "function"
    },
    {
      "inputs": [
        {
          "internalType": "address",
          "name": "from",
          "type": "address"
        },
        {
          "internalType": "address",
          "name": "to",
          "type": "address"
        },
        {
          "internalType": "uint256",
          "name": "tokenId",
          "type": "uint256"
        }
      ],
      "name": "transferFrom",
      "outputs": [],
      "stateMutability": "nonpayable",
      "type": "function"
    },
    {
      "inputs": [
        {
          "internalType": "address",
          "name": "newOwner",
          "type": "address"
        }
      ],
      "name": "transferOwnership",
      "outputs": [],
      "stateMutability": "nonpayable",
      "type": "function"
    },
    {
      "inputs": [
        {
          "components": [
            {
              "internalType": "string",
              "name": "baseURI",
              "type": "string"
            },
            {
              "internalType": "bool",
              "name": "metadataFrozen",
              "type": "bool"
            },
            {
              "internalType": "uint256",
              "name": "publicMintPrice",
              "type": "uint256"
            },
            {
              "internalType": "bool",
              "name": "publicMintPriceFrozen",
              "type": "bool"
            },
            {
              "internalType": "uint256",
              "name": "presaleMintPrice",
              "type": "uint256"
            },
            {
              "internalType": "bool",
              "name": "presaleMintPriceFrozen",
              "type": "bool"
            },
            {
              "internalType": "uint256",
              "name": "publicMintStart",
              "type": "uint256"
            },
            {
              "internalType": "uint256",
              "name": "presaleMintStart",
              "type": "uint256"
            },
            {
              "internalType": "string",
              "name": "prerevealTokenURI",
              "type": "string"
            },
            {
              "internalType": "bytes32",
              "name": "presaleMerkleRoot",
              "type": "bytes32"
            },
            {
              "internalType": "uint256",
              "name": "royaltiesBps",
              "type": "uint256"
            },
            {
              "internalType": "address",
              "name": "royaltiesAddress",
              "type": "address"
            }
          ],
          "internalType": "struct NFTCollection.RuntimeConfig",
          "name": "newConfig",
          "type": "tuple"
        }
      ],
      "name": "updateConfig",
      "outputs": [],
      "stateMutability": "nonpayable",
      "type": "function"
    },
    {
      "inputs": [],
      "name": "withdrawFees",
      "outputs": [],
      "stateMutability": "nonpayable",
      "type": "function"
    }
  ],
  "transactionHash": "0x9160db12e7ad39540aa72269ee7f32a0a402769431a3a9f24d44d5d7b1c16ecf",
  "args": [],
  "numDeployments": 2,
  "solcInputHash": "1e300b8e19558e2a4c02af65df638f3f",
  "bytecode": "0x60806040523480156200001157600080fd5b50600054610100900460ff1615808015620000335750600054600160ff909116105b8062000063575062000050306200013d60201b62001acf1760201c565b15801562000063575060005460ff166001145b620000cb5760405162461bcd60e51b815260206004820152602e60248201527f496e697469616c697a61626c653a20636f6e747261637420697320616c72656160448201526d191e481a5b9a5d1a585b1a5e995960921b606482015260840160405180910390fd5b6000805460ff191660011790558015620000ef576000805461ff0019166101001790555b801562000136576000805461ff0019169055604051600181527f7f26b83ff96e1f2b6a682f133852f6798a09c465da95921460cefb38474024989060200160405180910390a15b506200014c565b6001600160a01b03163b151590565b614129806200015c6000396000f3fe6080604052600436106102465760003560e01c80637ecc2b5611610139578063b5106add116100b6578063d761aa481161007a578063d761aa48146106e0578063e3e1e8ef14610700578063e8a3d48514610713578063e985e9c514610728578063f2fde38b14610771578063ffa1ad741461079157600080fd5b8063b5106add14610640578063b88d4fde14610660578063c87b56dd14610680578063d1bff694146106a0578063d547741f146106c057600080fd5b8063a0712d68116100fd578063a0712d681461059f578063a217fddf146105b2578063a22cb465146105c7578063a3f4df7e146105e7578063b0ea18021461062057600080fd5b80637ecc2b561461050d5780638da5cb5b1461052257806391d148541461054157806395d89b41146105615780639da5b0a51461057657600080fd5b806336568abe116101c75780635a9b0b891161018b5780635a9b0b89146104735780635c629f4c146104955780636352211e146104ab57806370a08231146104cb57806375b238fc146104eb57600080fd5b806336568abe146103e657806342842e0e14610406578063476343ee1461042657806353135ca01461043b5780635a23dd991461045357600080fd5b806323b872dd1161020e57806323b872dd1461031f578063248a9ca31461033f5780632a55205a1461036f5780632f2ff15d146103ae57806331f9c919146103ce57600080fd5b806301ffc9a71461024b57806306fdde0314610280578063081812fc146102a2578063095ea7b3146102da57806318160ddd146102fc575b600080fd5b34801561025757600080fd5b5061026b61026636600461316a565b6107a7565b60405190151581526020015b60405180910390f35b34801561028c57600080fd5b506102956107e2565b60405161027791906131df565b3480156102ae57600080fd5b506102c26102bd3660046131f2565b610874565b6040516001600160a01b039091168152602001610277565b3480156102e657600080fd5b506102fa6102f5366004613230565b6108b8565b005b34801561030857600080fd5b50606654606554035b604051908152602001610277565b34801561032b57600080fd5b506102fa61033a36600461325c565b610945565b34801561034b57600080fd5b5061031161035a3660046131f2565b60009081526097602052604090206001015490565b34801561037b57600080fd5b5061038f61038a36600461329d565b610950565b604080516001600160a01b039093168352602083019190915201610277565b3480156103ba57600080fd5b506102fa6103c93660046132bf565b610989565b3480156103da57600080fd5b5061010254421161026b565b3480156103f257600080fd5b506102fa6104013660046132bf565b6109ae565b34801561041257600080fd5b506102fa61042136600461325c565b610a31565b34801561043257600080fd5b506102fa610a4c565b34801561044757600080fd5b5061010354421161026b565b34801561045f57600080fd5b5061026b61046e36600461333a565b610a7e565b34801561047f57600080fd5b50610488610b5e565b6040516102779190613464565b3480156104a157600080fd5b5061031160fb5481565b3480156104b757600080fd5b506102c26104c63660046131f2565b610ea8565b3480156104d757600080fd5b506103116104e6366004613515565b610eba565b3480156104f757600080fd5b506103116000805160206140d483398151915281565b34801561051957600080fd5b50610311610f08565b34801561052e57600080fd5b5061010a546001600160a01b03166102c2565b34801561054d57600080fd5b5061026b61055c3660046132bf565b610f37565b34801561056d57600080fd5b50610295610f62565b34801561058257600080fd5b5061058c61271081565b60405161ffff9091168152602001610277565b6102fa6105ad3660046131f2565b610f71565b3480156105be57600080fd5b50610311600081565b3480156105d357600080fd5b506102fa6105e236600461354b565b61109a565b3480156105f357600080fd5b506102956040518060400160405280600d81526020016c27232a21b7b63632b1ba34b7b760991b81525081565b34801561062c57600080fd5b506102fa61063b366004613230565b61112f565b34801561064c57600080fd5b506102fa61065b366004613515565b6111b1565b34801561066c57600080fd5b506102fa61067b36600461364f565b6112a4565b34801561068c57600080fd5b5061029561069b3660046131f2565b6112f5565b3480156106ac57600080fd5b506102fa6106bb3660046137e4565b61141e565b3480156106cc57600080fd5b506102fa6106db3660046132bf565b6117ec565b3480156106ec57600080fd5b506102fa6106fb3660046138d9565b611811565b6102fa61070e366004613914565b611847565b34801561071f57600080fd5b506102956119ea565b34801561073457600080fd5b5061026b610743366004613946565b6001600160a01b039182166000908152606c6020908152604080832093909416825291909152205460ff1690565b34801561077d57600080fd5b506102fa61078c366004613515565b611a68565b34801561079d57600080fd5b5061031161290481565b60006107b282611ade565b806107c157506107c182611b2e565b806107dc575063152a902d60e11b6001600160e01b03198316145b92915050565b6060606780546107f190613974565b80601f016020809104026020016040519081016040528092919081815260200182805461081d90613974565b801561086a5780601f1061083f5761010080835404028352916020019161086a565b820191906000526020600020905b81548152906001019060200180831161084d57829003601f168201915b5050505050905090565b600061087f82611b53565b61089c576040516333d1c03960e21b815260040160405180910390fd5b506000908152606b60205260409020546001600160a01b031690565b60006108c382610ea8565b9050806001600160a01b0316836001600160a01b0316036108f75760405163250fdee360e21b815260040160405180910390fd5b336001600160a01b0382161480159061091757506109158133610743565b155b15610935576040516367d9dca160e11b815260040160405180910390fd5b610940838383611b7f565b505050565b610940838383611bdb565b61010754610106546001600160a01b0390911690600090612710906109769085906139c4565b61098091906139f9565b90509250929050565b6000828152609760205260409020600101546109a481611dc6565b6109408383611dd0565b6001600160a01b0381163314610a235760405162461bcd60e51b815260206004820152602f60248201527f416363657373436f6e74726f6c3a2063616e206f6e6c792072656e6f756e636560448201526e103937b632b9903337b91039b2b63360891b60648201526084015b60405180910390fd5b610a2d8282611e56565b5050565b610940838383604051806020016040528060008152506112a4565b6000805160206140d4833981519152610a6481611dc6565b61010e54610a7b906001600160a01b031647611ebd565b50565b6001600160a01b038316600090815261010f602052604081205460ff1615610ad95760405162461bcd60e51b815260206004820152600e60248201526d105b1c9958591e481b5a5b9d195960921b6044820152606401610a1a565b6040516bffffffffffffffffffffffff19606086901b166020820152600090603401604051602081830303815290604052805190602001209050610b5584848080602002602001604051908101604052809392919081815260200183836020028082843760009201919091525050610105549150849050611fd6565b95945050505050565b610b66613070565b61290481526040805160e08101909152610108805482908290610b8890613974565b80601f0160208091040260200160405190810160405280929190818152602001828054610bb490613974565b8015610c015780601f10610bd657610100808354040283529160200191610c01565b820191906000526020600020905b815481529060010190602001808311610be457829003601f168201915b50505050508152602001600182018054610c1a90613974565b80601f0160208091040260200160405190810160405280929190818152602001828054610c4690613974565b8015610c935780601f10610c6857610100808354040283529160200191610c93565b820191906000526020600020905b815481529060010190602001808311610c7657829003601f168201915b505050918352505060028201546001600160a01b039081166020808401919091526003840154604080850191909152600485015460608501526005850154608085015260069094015490911660a0909201919091528301919091528051610180810190915260fc805482908290610d0990613974565b80601f0160208091040260200160405190810160405280929190818152602001828054610d3590613974565b8015610d825780601f10610d5757610100808354040283529160200191610d82565b820191906000526020600020905b815481529060010190602001808311610d6557829003601f168201915b5050509183525050600182015460ff9081161515602083015260028301546040830152600383015481161515606083015260048301546080830152600583015416151560a0820152600682015460c0820152600782015460e082015260088201805461010090920191610df490613974565b80601f0160208091040260200160405190810160405280929190818152602001828054610e2090613974565b8015610e6d5780601f10610e4257610100808354040283529160200191610e6d565b820191906000526020600020905b815481529060010190602001808311610e5057829003601f168201915b505050918352505060098201546020820152600a820154604080830191909152600b909201546001600160a01b031660609091015282015290565b6000610eb382611fec565b5192915050565b60006001600160a01b038216610ee3576040516323d3ad8160e21b815260040160405180910390fd5b506001600160a01b03166000908152606a60205260409020546001600160401b031690565b600060fb54610f1a6066546065540390565b61010b54610f289190613a0d565b610f329190613a0d565b905090565b60009182526097602090815260408084206001600160a01b0393909316845291905290205460ff1690565b6060606880546107f190613974565b60fe54610f7e90826139c4565b80341015610fc25760405162461bcd60e51b815260206004820152601160248201527014185e5b595b9d081d1bdbc81cdb585b1b607a1b6044820152606401610a1a565b600260c954036110145760405162461bcd60e51b815260206004820152601f60248201527f5265656e7472616e637947756172643a207265656e7472616e742063616c6c006044820152606401610a1a565b600260c95561010254421161106b5760405162461bcd60e51b815260206004820152601b60248201527f4d696e74696e6720686173206e6f7420737461727465642079657400000000006044820152606401610a1a565b6110753383612106565b600160c95534811015610a2d57600061108e8234613a0d565b90506109403382611ebd565b336001600160a01b038316036110c35760405163b06307db60e01b815260040160405180910390fd5b336000818152606c602090815260408083206001600160a01b03871680855290835292819020805460ff191686151590811790915590519081529192917f17307eab39ab6107e8899845ad3d59bd9653f200f220920489ca2b5937696c31910160405180910390a35050565b6000805160206140d483398151915261114781611dc6565b60fb5482111561118f5760405162461bcd60e51b8152602060048201526013602482015272139bdd08195b9bdd59da081c995cd95c9d9959606a1b6044820152606401610a1a565b8160fb60008282546111a19190613a0d565b9091555061094090508383612106565b6000805160206140d48339815191526111c981611dc6565b6111e16000805160206140d483398151915283610f37565b156112215760405162461bcd60e51b815260206004820152601060248201526f20b63932b0b23c9030b71030b236b4b760811b6044820152606401610a1a565b61010a546001600160a01b031633036112745760405162461bcd60e51b81526020600482015260156024820152740557365207472616e736665724f776e65727368697605c1b6044820152606401610a1a565b61128c6000805160206140d483398151915233611e56565b610a2d6000805160206140d483398151915283611dd0565b6112af848484611bdb565b6001600160a01b0383163b151580156112d157506112cf848484846121a6565b155b156112ef576040516368d2bf6b60e11b815260040160405180910390fd5b50505050565b606061130082611b53565b6113435760405162461bcd60e51b8152602060048201526014602482015273151bdad95b88191bd95cc81b9bdd08195e1a5cdd60621b6044820152606401610a1a565b600060fc600001805461135590613974565b9050116113ed57610104805461136a90613974565b80601f016020809104026020016040519081016040528092919081815260200182805461139690613974565b80156113e35780601f106113b8576101008083540402835291602001916113e3565b820191906000526020600020905b8154815290600101906020018083116113c657829003601f168201915b50505050506107dc565b60fc6113f883612292565b604051602001611409929190613a97565b60405160208183030381529060405292915050565b600054610100900460ff161580801561143e5750600054600160ff909116105b806114585750303b158015611458575060005460ff166001145b6114bb5760405162461bcd60e51b815260206004820152602e60248201527f496e697469616c697a61626c653a20636f6e747261637420697320616c72656160448201526d191e481a5b9a5d1a585b1a5e995960921b6064820152608401610a1a565b6000805460ff1916600117905580156114de576000805461ff0019166101001790555b61160461010860000180546114f290613974565b80601f016020809104026020016040519081016040528092919081815260200182805461151e90613974565b801561156b5780601f106115405761010080835404028352916020019161156b565b820191906000526020600020905b81548152906001019060200180831161154e57829003601f168201915b5050505050610108600101805461158190613974565b80601f01602080910402602001604051908101604052809291908181526020018280546115ad90613974565b80156115fa5780601f106115cf576101008083540402835291602001916115fa565b820191906000526020600020905b8154815290600101906020018083116115dd57829003601f168201915b5050505050612392565b61160c6123c3565b611615836123f4565b61161e82612615565b6116366000805160206140d483398151915233611dd0565b611643836040015161276b565b825183906101089081906116579082613b0a565b506020820151600182019061166c9082613b0a565b5060408201516002820180546001600160a01b03199081166001600160a01b0393841617909155606084015160038401556080840151600484015560a0840151600584015560c0909301516006909201805490931691161790558151829060fc9081906116d99082613b0a565b50602082015160018201805491151560ff199283161790556040830151600283015560608301516003830180549115159183169190911790556080830151600483015560a08301516005830180549115159190921617905560c0820151600682015560e08201516007820155610100820151600882019061175a9082613b0a565b506101208201516009820155610140820151600a82015561016090910151600b90910180546001600160a01b0319166001600160a01b03909216919091179055608083015160fb558015610940576000805461ff0019169055604051600181527f7f26b83ff96e1f2b6a682f133852f6798a09c465da95921460cefb38474024989060200160405180910390a1505050565b60008281526097602052604090206001015461180781611dc6565b6109408383611e56565b6000805160206140d483398151915261182981611dc6565b61183a61183583613bc9565b612615565b8160fc6112ef8282613cf4565b6101005461185590846139c4565b803410156118995760405162461bcd60e51b815260206004820152601160248201527014185e5b595b9d081d1bdbc81cdb585b1b607a1b6044820152606401610a1a565b600260c954036118eb5760405162461bcd60e51b815260206004820152601f60248201527f5265656e7472616e637947756172643a207265656e7472616e742063616c6c006044820152606401610a1a565b600260c9556101035442116119425760405162461bcd60e51b815260206004820152601b60248201527f50726573616c6520686173206e6f7420737461727465642079657400000000006044820152606401610a1a565b61194d338484610a7e565b6119995760405162461bcd60e51b815260206004820152601b60248201527f4e6f742077686974656c697374656420666f722070726573616c6500000000006044820152606401610a1a565b33600081815261010f60205260409020805460ff191660011790556119be9085612106565b600160c955348110156112ef5760006119d78234613a0d565b90506119e33382611ebd565b5050505050565b60606000611a3c6119ff60fc600a0154612292565b61010754611a17906001600160a01b0316601461281e565b604051602001611a28929190613e13565b6040516020818303038152906040526129c0565b9050600081604051602001611a519190613e9a565b60408051601f198184030181529190529392505050565b6000611a7381611dc6565b61010a546001600160a01b0390811690831603611ac65760405162461bcd60e51b815260206004820152601160248201527020b63932b0b23c903a34329037bbb732b960791b6044820152606401610a1a565b610a2d8261276b565b6001600160a01b03163b151590565b60006001600160e01b031982166380ac58cd60e01b1480611b0f57506001600160e01b03198216635b5e139f60e01b145b806107dc57506301ffc9a760e01b6001600160e01b03198316146107dc565b60006001600160e01b03198216637965db0b60e01b14806107dc57506107dc82611ade565b6000606554821080156107dc575050600090815260696020526040902054600160e01b900460ff161590565b6000828152606b602052604080822080546001600160a01b0319166001600160a01b0387811691821790925591518593918516917f8c5be1e5ebec7d5bd14f71427d1e84f3dd0314c0f7b2291e5b200ac8c7c3b92591a4505050565b6000611be682611fec565b9050836001600160a01b031681600001516001600160a01b031614611c1d5760405162a1148160e81b815260040160405180910390fd5b6000336001600160a01b0386161480611c3b5750611c3b8533610743565b80611c56575033611c4b84610874565b6001600160a01b0316145b905080611c7657604051632ce44b5f60e11b815260040160405180910390fd5b6001600160a01b038416611c9d57604051633a954ecd60e21b815260040160405180910390fd5b611ca960008487611b7f565b6001600160a01b038581166000908152606a60209081526040808320805467ffffffffffffffff198082166001600160401b0392831660001901831617909255898616808652838620805493841693831660019081018416949094179055898652606990945282852080546001600160e01b031916909417600160a01b42909216919091021783558701808452922080549193909116611d7d576065548214611d7d57805460208601516001600160401b0316600160a01b026001600160e01b03199091166001600160a01b038a16171781555b50505082846001600160a01b0316866001600160a01b03167fddf252ad1be2c89b69c2b068fc378daa952ba7f163c4a11628f55a4df523b3ef60405160405180910390a46119e3565b610a7b8133612b29565b611dda8282610f37565b610a2d5760008281526097602090815260408083206001600160a01b03851684529091529020805460ff19166001179055611e123390565b6001600160a01b0316816001600160a01b0316837f2f8788117e7eff1d82e926ec794901d17c78024a50270940304540a733656f0d60405160405180910390a45050565b611e608282610f37565b15610a2d5760008281526097602090815260408083206001600160a01b0385168085529252808320805460ff1916905551339285917ff6391f5c32d9c69d2a47ea670b442974b53935d1edc7fd64eb21e047a839171b9190a45050565b80471015611f0d5760405162461bcd60e51b815260206004820152601d60248201527f416464726573733a20696e73756666696369656e742062616c616e63650000006044820152606401610a1a565b6000826001600160a01b03168260405160006040518083038185875af1925050503d8060008114611f5a576040519150601f19603f3d011682016040523d82523d6000602084013e611f5f565b606091505b50509050806109405760405162461bcd60e51b815260206004820152603a60248201527f416464726573733a20756e61626c6520746f2073656e642076616c75652c207260448201527f6563697069656e74206d617920686176652072657665727465640000000000006064820152608401610a1a565b600082611fe38584612b8d565b14949350505050565b6040805160608101825260008082526020820181905291810191909152816065548110156120ed57600081815260696020908152604091829020825160608101845290546001600160a01b0381168252600160a01b81046001600160401b031692820192909252600160e01b90910460ff161515918101829052906120eb5780516001600160a01b031615612082579392505050565b5060001901600081815260696020908152604091829020825160608101845290546001600160a01b038116808352600160a01b82046001600160401b031693830193909352600160e01b900460ff16151592810192909252156120e6579392505050565b612082565b505b604051636f96cda160e11b815260040160405180910390fd5b61010d5481111561214c5760405162461bcd60e51b815260206004820152601060248201526f416d6f756e7420746f6f206c6172676560801b6044820152606401610a1a565b612154610f08565b81111561219c5760405162461bcd60e51b8152602060048201526016602482015275139bdd08195b9bdd59da081d1bdad95b9cc81b19599d60521b6044820152606401610a1a565b610a2d8282612bda565b604051630a85bd0160e11b81526000906001600160a01b0385169063150b7a02906121db903390899088908890600401613edf565b6020604051808303816000875af1925050508015612216575060408051601f3d908101601f1916820190925261221391810190613f1c565b60015b612274573d808015612244576040519150601f19603f3d011682016040523d82523d6000602084013e612249565b606091505b50805160000361226c576040516368d2bf6b60e11b815260040160405180910390fd5b805181602001fd5b6001600160e01b031916630a85bd0160e11b1490505b949350505050565b6060816000036122b95750506040805180820190915260018152600360fc1b602082015290565b8160005b81156122e357806122cd81613f39565b91506122dc9050600a836139f9565b91506122bd565b6000816001600160401b038111156122fd576122fd613579565b6040519080825280601f01601f191660200182016040528015612327576020820181803683370190505b5090505b841561228a5761233c600183613a0d565b9150612349600a86613f52565b612354906030613f66565b60f81b81838151811061236957612369613f7e565b60200101906001600160f81b031916908160001a90535061238b600a866139f9565b945061232b565b600054610100900460ff166123b95760405162461bcd60e51b8152600401610a1a90613f94565b610a2d8282612bf4565b600054610100900460ff166123ea5760405162461bcd60e51b8152600401610a1a90613f94565b6123f2612c3e565b565b60008160600151116124485760405162461bcd60e51b815260206004820152601f60248201527f4d6178696d756d20737570706c79206d757374206265206e6f6e2d7a65726f006044820152606401610a1a565b60008160a001511161249c5760405162461bcd60e51b815260206004820181905260248201527f546f6b656e7320706572206d696e74206d757374206265206e6f6e2d7a65726f6044820152606401610a1a565b80606001518160a0015111156125095760405162461bcd60e51b815260206004820152602c60248201527f546f6b656e7320706572206d696e74206d757374206265206c6573732074686160448201526b6e206d617820737570706c7960a01b6064820152608401610a1a565b60c08101516001600160a01b03166125635760405162461bcd60e51b815260206004820152601f60248201527f547265617375727920616464726573732063616e6e6f74206265206e756c6c006044820152606401610a1a565b60408101516001600160a01b03166125bd5760405162461bcd60e51b815260206004820152601b60248201527f436f6e7472616374206d757374206861766520616e206f776e657200000000006044820152606401610a1a565b806060015181608001511115610a7b5760405162461bcd60e51b815260206004820152601b60248201527f526573657276652067726561746572207468616e20737570706c7900000000006044820152606401610a1a565b61014081015161271010156126615760405162461bcd60e51b81526020600482015260126024820152710a4def2c2d8e8d2cae640e8dede40d0d2ced60731b6044820152606401610a1a565b60fe546040516126b79161267b9160200190815260200190565b60408051808303601f1901815282825260ff80548684015160208601529193911691016040516020818303038152906040528460600151612c6c565b61010054604051612712916126d29160200190815260200190565b60408051808303601f190181528282526101015460808601516020850152909260ff90911691016040516020818303038152906040528460a00151612c6c565b604051610a7b906127289060fc90602001613fdf565b60408051601f198184030181529082905260fd548451919260ff9091169161275291602001613feb565b6040516020818303038152906040528460200151612c6c565b61010a546001600160a01b03166127906000805160206140d483398151915282611e56565b61279b600082611e56565b61010a80546001600160a01b0319166001600160a01b0384161790556127cf6000805160206140d483398151915283611dd0565b6127da600083611dd0565b816001600160a01b0316816001600160a01b03167f8be0079c531659141344cd1fd0a4f28419497f9722a3daafe3b4186f6b6457e060405160405180910390a35050565b6060600061282d8360026139c4565b612838906002613f66565b6001600160401b0381111561284f5761284f613579565b6040519080825280601f01601f191660200182016040528015612879576020820181803683370190505b509050600360fc1b8160008151811061289457612894613f7e565b60200101906001600160f81b031916908160001a905350600f60fb1b816001815181106128c3576128c3613f7e565b60200101906001600160f81b031916908160001a90535060006128e78460026139c4565b6128f2906001613f66565b90505b600181111561296a576f181899199a1a9b1b9c1cb0b131b232b360811b85600f166010811061292657612926613f7e565b1a60f81b82828151811061293c5761293c613f7e565b60200101906001600160f81b031916908160001a90535060049490941c9361296381614007565b90506128f5565b5083156129b95760405162461bcd60e51b815260206004820181905260248201527f537472696e67733a20686578206c656e67746820696e73756666696369656e746044820152606401610a1a565b9392505050565b805160609060008190036129e4575050604080516020810190915260008152919050565b600060036129f3836002613f66565b6129fd91906139f9565b612a089060046139c4565b90506000612a17826020613f66565b6001600160401b03811115612a2e57612a2e613579565b6040519080825280601f01601f191660200182016040528015612a58576020820181803683370190505b5090506000604051806060016040528060408152602001614094604091399050600181016020830160005b86811015612ae4576003818a01810151603f601282901c8116860151600c83901c8216870151600684901c831688015192909316870151600891821b60ff94851601821b92841692909201901b91160160e01b835260049092019101612a83565b506003860660018114612afe5760028114612b0f57612b1b565b613d3d60f01b600119830152612b1b565b603d60f81b6000198301525b505050918152949350505050565b612b338282610f37565b610a2d57612b4b816001600160a01b03166014612d1c565b612b56836020612d1c565b604051602001612b6792919061401e565b60408051601f198184030181529082905262461bcd60e51b8252610a1a916004016131df565b600081815b8451811015612bd257612bbe82868381518110612bb157612bb1613f7e565b6020026020010151612e68565b915080612bca81613f39565b915050612b92565b509392505050565b610a2d828260405180602001604052806000815250612e97565b600054610100900460ff16612c1b5760405162461bcd60e51b8152600401610a1a90613f94565b6067612c278382613b0a565b506068612c348282613b0a565b5060006065555050565b600054610100900460ff16612c655760405162461bcd60e51b8152600401610a1a90613f94565b600160c955565b82156112ef5780612cbf5760405162461bcd60e51b815260206004820152601860248201527f43616e6e6f7420756e667265657a65207661726961626c6500000000000000006044820152606401610a1a565b81805190602001208480519060200120146112ef5760405162461bcd60e51b815260206004820152601d60248201527f43616e6e6f74206368616e67652066726f7a656e207661726961626c650000006044820152606401610a1a565b60606000612d2b8360026139c4565b612d36906002613f66565b6001600160401b03811115612d4d57612d4d613579565b6040519080825280601f01601f191660200182016040528015612d77576020820181803683370190505b509050600360fc1b81600081518110612d9257612d92613f7e565b60200101906001600160f81b031916908160001a905350600f60fb1b81600181518110612dc157612dc1613f7e565b60200101906001600160f81b031916908160001a9053506000612de58460026139c4565b612df0906001613f66565b90505b600181111561296a576f181899199a1a9b1b9c1cb0b131b232b360811b85600f1660108110612e2457612e24613f7e565b1a60f81b828281518110612e3a57612e3a613f7e565b60200101906001600160f81b031916908160001a90535060049490941c93612e6181614007565b9050612df3565b6000818310612e845760008281526020849052604090206129b9565b60008381526020839052604090206129b9565b61094083838360016065546001600160a01b038516612ec857604051622e076360e81b815260040160405180910390fd5b83600003612ee95760405163b562e8dd60e01b815260040160405180910390fd5b6001600160a01b0385166000818152606a6020908152604080832080546fffffffffffffffffffffffffffffffff1981166001600160401b038083168c0181169182176801000000000000000067ffffffffffffffff1990941690921783900481168c01811690920217909155858452606990925290912080546001600160e01b031916909217600160a01b429092169190910217905580808501838015612f9a57506001600160a01b0387163b15155b15613022575b60405182906001600160a01b038916906000907fddf252ad1be2c89b69c2b068fc378daa952ba7f163c4a11628f55a4df523b3ef908290a4612feb60008884806001019550886121a6565b613008576040516368d2bf6b60e11b815260040160405180910390fd5b808203612fa057826065541461301d57600080fd5b613067565b5b6040516001830192906001600160a01b038916906000907fddf252ad1be2c89b69c2b068fc378daa952ba7f163c4a11628f55a4df523b3ef908290a4808203613023575b506065556119e3565b6040518060600160405280600081526020016130d46040518060e00160405280606081526020016060815260200160006001600160a01b0316815260200160008152602001600081526020016000815260200160006001600160a01b031681525090565b815260200161314f604051806101800160405280606081526020016000151581526020016000815260200160001515815260200160008152602001600015158152602001600081526020016000815260200160608152602001600080191681526020016000815260200160006001600160a01b031681525090565b905290565b6001600160e01b031981168114610a7b57600080fd5b60006020828403121561317c57600080fd5b81356129b981613154565b60005b838110156131a257818101518382015260200161318a565b838111156112ef5750506000910152565b600081518084526131cb816020860160208601613187565b601f01601f19169290920160200192915050565b6020815260006129b960208301846131b3565b60006020828403121561320457600080fd5b5035919050565b6001600160a01b0381168114610a7b57600080fd5b803561322b8161320b565b919050565b6000806040838503121561324357600080fd5b823561324e8161320b565b946020939093013593505050565b60008060006060848603121561327157600080fd5b833561327c8161320b565b9250602084013561328c8161320b565b929592945050506040919091013590565b600080604083850312156132b057600080fd5b50508035926020909101359150565b600080604083850312156132d257600080fd5b8235915060208301356132e48161320b565b809150509250929050565b60008083601f84011261330157600080fd5b5081356001600160401b0381111561331857600080fd5b6020830191508360208260051b850101111561333357600080fd5b9250929050565b60008060006040848603121561334f57600080fd5b833561335a8161320b565b925060208401356001600160401b0381111561337557600080fd5b613381868287016132ef565b9497909650939450505050565b600061018082518185526133a4828601826131b3565b91505060208301516133ba602086018215159052565b506040830151604085015260608301516133d8606086018215159052565b506080830151608085015260a08301516133f660a086018215159052565b5060c083015160c085015260e083015160e0850152610100808401518583038287015261342383826131b3565b925050506101208084015181860152506101408084015181860152506101608084015161345a828701826001600160a01b03169052565b5090949350505050565b60208152815160208201526000602083015160606040840152805160e060808501526134946101608501826131b3565b90506020820151607f198583030160a08601526134b182826131b3565b6040848101516001600160a01b0390811660c08981019190915260608088015160e08b015260808801516101008b015260a08801516101208b015296015116610140880152870151868203601f1901948701949094529150610b559050818361338e565b60006020828403121561352757600080fd5b81356129b98161320b565b8015158114610a7b57600080fd5b803561322b81613532565b6000806040838503121561355e57600080fd5b82356135698161320b565b915060208301356132e481613532565b634e487b7160e01b600052604160045260246000fd5b60405161018081016001600160401b03811182821017156135b2576135b2613579565b60405290565b60405160e081016001600160401b03811182821017156135b2576135b2613579565b60006001600160401b03808411156135f4576135f4613579565b604051601f8501601f19908116603f0116810190828211818310171561361c5761361c613579565b8160405280935085815286868601111561363557600080fd5b858560208301376000602087830101525050509392505050565b6000806000806080858703121561366557600080fd5b84356136708161320b565b935060208501356136808161320b565b92506040850135915060608501356001600160401b038111156136a257600080fd5b8501601f810187136136b357600080fd5b6136c2878235602084016135da565b91505092959194509250565b600082601f8301126136df57600080fd5b6129b9838335602085016135da565b6000610180828403121561370157600080fd5b61370961358f565b905081356001600160401b038082111561372257600080fd5b61372e858386016136ce565b835261373c60208501613540565b60208401526040840135604084015261375760608501613540565b60608401526080840135608084015261377260a08501613540565b60a084015260c084013560c084015260e084013560e0840152610100915081840135818111156137a157600080fd5b6137ad868287016136ce565b838501525050506101208083013581830152506101408083013581830152506101606137da818401613220565b9082015292915050565b600080604083850312156137f757600080fd5b82356001600160401b038082111561380e57600080fd5b9084019060e0828703121561382257600080fd5b61382a6135b8565b82358281111561383957600080fd5b613845888286016136ce565b82525060208301358281111561385a57600080fd5b613866888286016136ce565b60208301525061387860408401613220565b6040820152606083013560608201526080830135608082015260a083013560a08201526138a760c08401613220565b60c0820152935060208501359150808211156138c257600080fd5b506138cf858286016136ee565b9150509250929050565b6000602082840312156138eb57600080fd5b81356001600160401b0381111561390157600080fd5b820161018081850312156129b957600080fd5b60008060006040848603121561392957600080fd5b8335925060208401356001600160401b0381111561337557600080fd5b6000806040838503121561395957600080fd5b82356139648161320b565b915060208301356132e48161320b565b600181811c9082168061398857607f821691505b6020821081036139a857634e487b7160e01b600052602260045260246000fd5b50919050565b634e487b7160e01b600052601160045260246000fd5b60008160001904831182151516156139de576139de6139ae565b500290565b634e487b7160e01b600052601260045260246000fd5b600082613a0857613a086139e3565b500490565b600082821015613a1f57613a1f6139ae565b500390565b60008154613a3181613974565b60018281168015613a495760018114613a5e57613a8d565b60ff1984168752821515830287019450613a8d565b8560005260208060002060005b85811015613a845781548a820152908401908201613a6b565b50505082870194505b5050505092915050565b6000613aa38285613a24565b8351613ab3818360208801613187565b01949350505050565b601f82111561094057600081815260208120601f850160051c81016020861015613ae35750805b601f850160051c820191505b81811015613b0257828155600101613aef565b505050505050565b81516001600160401b03811115613b2357613b23613579565b613b3781613b318454613974565b84613abc565b602080601f831160018114613b6c5760008415613b545750858301515b600019600386901b1c1916600185901b178555613b02565b600085815260208120601f198616915b82811015613b9b57888601518255948401946001909101908401613b7c565b5085821015613bb95787850151600019600388901b60f8161c191681555b5050505050600190811b01905550565b60006107dc36836136ee565b6000808335601e19843603018112613bec57600080fd5b8301803591506001600160401b03821115613c0657600080fd5b60200191503681900382131561333357600080fd5b6001600160401b03831115613c3257613c32613579565b613c4683613c408354613974565b83613abc565b6000601f841160018114613c7a5760008515613c625750838201355b600019600387901b1c1916600186901b1783556119e3565b600083815260209020601f19861690835b82811015613cab5786850135825560209485019460019092019101613c8b565b5086821015613cc85760001960f88860031b161c19848701351681555b505060018560011b0183555050505050565b600081356107dc81613532565b600081356107dc8161320b565b613cfe8283613bd5565b613d09818385613c1b565b5050613d33613d1a60208401613cda565b6001830160ff1981541660ff8315151681178255505050565b60408201356002820155613d65613d4c60608401613cda565b6003830160ff1981541660ff8315151681178255505050565b60808201356004820155613d97613d7e60a08401613cda565b6005830160ff1981541660ff8315151681178255505050565b60c0820135600682015560e08201356007820155613db9610100830183613bd5565b613dc7818360088601613c1b565b50506101208201356009820155610140820135600a820155610a2d613def6101608401613ce7565b600b830180546001600160a01b0319166001600160a01b0392909216919091179055565b7f7b2273656c6c65725f6665655f62617369735f706f696e7473223a2000000000815260008351613e4b81601c850160208801613187565b731610113332b2afb932b1b4b834b2b73a111d101160611b601c918401918201528351613e7f816030840160208801613187565b61227d60f01b60309290910191820152603201949350505050565b7f646174613a6170706c69636174696f6e2f6a736f6e3b6261736536342c000000815260008251613ed281601d850160208701613187565b91909101601d0192915050565b6001600160a01b0385811682528416602082015260408101839052608060608201819052600090613f12908301846131b3565b9695505050505050565b600060208284031215613f2e57600080fd5b81516129b981613154565b600060018201613f4b57613f4b6139ae565b5060010190565b600082613f6157613f616139e3565b500690565b60008219821115613f7957613f796139ae565b500190565b634e487b7160e01b600052603260045260246000fd5b6020808252602b908201527f496e697469616c697a61626c653a20636f6e7472616374206973206e6f74206960408201526a6e697469616c697a696e6760a81b606082015260800190565b60006129b98284613a24565b60008251613ffd818460208701613187565b9190910192915050565b600081614016576140166139ae565b506000190190565b7f416363657373436f6e74726f6c3a206163636f756e7420000000000000000000815260008351614056816017850160208801613187565b7001034b99036b4b9b9b4b733903937b6329607d1b6017918401918201528351614087816028840160208801613187565b0160280194935050505056fe4142434445464748494a4b4c4d4e4f505152535455565758595a6162636465666768696a6b6c6d6e6f707172737475767778797a303132333435363738392b2fa49807205ce4d355092ef5a8a18f56e8913cf4a201fbe287825b095693c21775a2646970667358221220a8d66b16481c3889c372d8a399103a55a8a0af3890fc0e6cedff14de6b94ba1364736f6c634300080f0033",
  "devdoc": {
    "kind": "dev",
    "methods": {
      "approve(address,uint256)": {
        "details": "See {IERC721-approve}."
      },
      "balanceOf(address)": {
        "details": "See {IERC721-balanceOf}."
      },
      "contractURI()": {
        "details": "OpenSea contract metadata, returns a base64 encoded JSON string containing royalties basis points and royalties address"
      },
      "getApproved(uint256)": {
        "details": "See {IERC721-getApproved}."
      },
      "getInfo()": {
        "details": "Convenience helper"
      },
      "getRoleAdmin(bytes32)": {
        "details": "Returns the admin role that controls `role`. See {grantRole} and {revokeRole}. To change a role's admin, use {_setRoleAdmin}."
      },
      "grantRole(bytes32,address)": {
        "details": "Grants `role` to `account`. If `account` had not been already granted `role`, emits a {RoleGranted} event. Requirements: - the caller must have ``role``'s admin role. May emit a {RoleGranted} event."
      },
      "hasRole(bytes32,address)": {
        "details": "Returns `true` if `account` has been granted `role`."
      },
      "isApprovedForAll(address,address)": {
        "details": "See {IERC721-isApprovedForAll}."
      },
      "name()": {
        "details": "See {IERC721Metadata-name}."
      },
      "owner()": {
        "details": "Required for easy integration with OpenSea, the owner address can edit the collection there"
      },
      "ownerOf(uint256)": {
        "details": "See {IERC721-ownerOf}."
      },
      "renounceRole(bytes32,address)": {
        "details": "Revokes `role` from the calling account. Roles are often managed via {grantRole} and {revokeRole}: this function's purpose is to provide a mechanism for accounts to lose their privileges if they are compromised (such as when a trusted device is misplaced). If the calling account had been revoked `role`, emits a {RoleRevoked} event. Requirements: - the caller must be `account`. May emit a {RoleRevoked} event."
      },
      "revokeRole(bytes32,address)": {
        "details": "Revokes `role` from `account`. If `account` had been granted `role`, emits a {RoleRevoked} event. Requirements: - the caller must have ``role``'s admin role. May emit a {RoleRevoked} event."
      },
      "royaltyInfo(uint256,uint256)": {
        "details": "ERC2981 token royalty info"
      },
      "safeTransferFrom(address,address,uint256)": {
        "details": "See {IERC721-safeTransferFrom}."
      },
      "safeTransferFrom(address,address,uint256,bytes)": {
        "details": "See {IERC721-safeTransferFrom}."
      },
      "setApprovalForAll(address,bool)": {
        "details": "See {IERC721-setApprovalForAll}."
      },
      "supportsInterface(bytes4)": {
        "details": "See {IERC165-supportsInterface}."
      },
      "symbol()": {
        "details": "See {IERC721Metadata-symbol}."
      },
      "totalSupply()": {
        "details": "Burned tokens are calculated here, use _totalMinted() if you want to count just minted tokens."
      },
      "transferFrom(address,address,uint256)": {
        "details": "See {IERC721-transferFrom}."
      },
      "updateConfig((string,bool,uint256,bool,uint256,bool,uint256,uint256,string,bytes32,uint256,address))": {
        "details": "Callable by admin roles only"
      },
      "withdrawFees()": {
        "details": "Callable by admin roles only"
      }
    },
    "stateVariables": {
      "reserveRemaining": {
        "details": "Managed by the contract"
      }
    },
    "title": "NFTCollection",
    "version": 1
  },
  "userdoc": {
    "kind": "user",
    "methods": {
      "ADMIN_ROLE()": {
        "notice": "Admin role, on contract initialization given to the deployer."
      },
      "NAME()": {
        "notice": "Contract name"
      },
      "VERSION()": {
        "notice": "Contract version, semver-style uint X_YY_ZZ"
      },
      "availableSupply()": {
        "notice": "Get the number of tokens still available for minting"
      },
      "getInfo()": {
        "notice": "Get full contract information"
      },
      "initialize((string,string,address,uint256,uint256,uint256,address),(string,bool,uint256,bool,uint256,bool,uint256,uint256,string,bytes32,uint256,address))": {
        "notice": "Contract initializer"
      },
      "isWhitelisted(address,bytes32[])": {
        "notice": "Check if the wallet is whitelisted for the presale"
      },
      "mint(uint256)": {
        "notice": "Public mint function, can be called by any address if `DeploymentConfig.publicMintStart` is before the current block timestamp"
      },
      "mintingActive()": {
        "notice": "Check if public minting is active"
      },
      "owner()": {
        "notice": "Contract owner address"
      },
      "presaleActive()": {
        "notice": "Check if presale minting is active"
      },
      "presaleMint(uint256,bytes32[])": {
        "notice": "Mint tokens if the wallet has been whitelisted, can be called if `DeploymentConfig.presaleMintStart` is before the current block timestamp"
      },
      "reserveMint(address,uint256)": {
        "notice": "Mint a token from the reserve"
      },
      "reserveRemaining()": {
        "notice": "The number of tokens remaining in the reserve"
      },
      "tokenURI(uint256)": {
        "notice": "Get the token metadata URI"
      },
      "transferAdminRights(address)": {
        "notice": "Transfer contract admin rights, changes `ADMIN_ROLE` from sender address to input `to` address input `to` address cannot already have `ADMIN_ROLE` access rights"
      },
      "transferOwnership(address)": {
        "notice": "Transfer contract ownership"
      },
      "updateConfig((string,bool,uint256,bool,uint256,bool,uint256,uint256,string,bytes32,uint256,address))": {
        "notice": "Update contract configuration"
      },
      "withdrawFees()": {
        "notice": "Withdraw minting fees to the treasury address"
      }
    },
    "notice": "Implements https://eips.ethereum.org/EIPS/eip-721[ERC721] Non-Fungible Token Standard, including the Metadata extension. Uses ERC721A, with token IDs starting from 0 and increasing sequentially. This is a template contract, meaning it cannot be initialized or used directly. The only function of this contract is to store the code that proxies delegate their logic to.",
    "version": 1
  },
  "storageLayout": {
    "storage": [
      {
        "astId": 419,
        "contract": "contracts/templates/NFTCollection.sol:NFTCollection",
        "label": "_initialized",
        "offset": 0,
        "slot": "0",
        "type": "t_uint8"
      },
      {
        "astId": 422,
        "contract": "contracts/templates/NFTCollection.sol:NFTCollection",
        "label": "_initializing",
        "offset": 1,
        "slot": "0",
        "type": "t_bool"
      },
      {
        "astId": 3527,
        "contract": "contracts/templates/NFTCollection.sol:NFTCollection",
        "label": "__gap",
        "offset": 0,
        "slot": "1",
        "type": "t_array(t_uint256)50_storage"
      },
      {
        "astId": 3797,
        "contract": "contracts/templates/NFTCollection.sol:NFTCollection",
        "label": "__gap",
        "offset": 0,
        "slot": "51",
        "type": "t_array(t_uint256)50_storage"
      },
      {
        "astId": 9728,
        "contract": "contracts/templates/NFTCollection.sol:NFTCollection",
        "label": "_currentIndex",
        "offset": 0,
        "slot": "101",
        "type": "t_uint256"
      },
      {
        "astId": 9730,
        "contract": "contracts/templates/NFTCollection.sol:NFTCollection",
        "label": "_burnCounter",
        "offset": 0,
        "slot": "102",
        "type": "t_uint256"
      },
      {
        "astId": 9732,
        "contract": "contracts/templates/NFTCollection.sol:NFTCollection",
        "label": "_name",
        "offset": 0,
        "slot": "103",
        "type": "t_string_storage"
      },
      {
        "astId": 9734,
        "contract": "contracts/templates/NFTCollection.sol:NFTCollection",
        "label": "_symbol",
        "offset": 0,
        "slot": "104",
        "type": "t_string_storage"
      },
      {
        "astId": 9739,
        "contract": "contracts/templates/NFTCollection.sol:NFTCollection",
        "label": "_ownerships",
        "offset": 0,
        "slot": "105",
        "type": "t_mapping(t_uint256,t_struct(TokenOwnership)9717_storage)"
      },
      {
        "astId": 9744,
        "contract": "contracts/templates/NFTCollection.sol:NFTCollection",
        "label": "_addressData",
        "offset": 0,
        "slot": "106",
        "type": "t_mapping(t_address,t_struct(AddressData)9726_storage)"
      },
      {
        "astId": 9748,
        "contract": "contracts/templates/NFTCollection.sol:NFTCollection",
        "label": "_tokenApprovals",
        "offset": 0,
        "slot": "107",
        "type": "t_mapping(t_uint256,t_address)"
      },
      {
        "astId": 9754,
        "contract": "contracts/templates/NFTCollection.sol:NFTCollection",
        "label": "_operatorApprovals",
        "offset": 0,
        "slot": "108",
        "type": "t_mapping(t_address,t_mapping(t_address,t_bool))"
      },
      {
        "astId": 11002,
        "contract": "contracts/templates/NFTCollection.sol:NFTCollection",
        "label": "__gap",
        "offset": 0,
        "slot": "109",
        "type": "t_array(t_uint256)42_storage"
      },
      {
        "astId": 39,
        "contract": "contracts/templates/NFTCollection.sol:NFTCollection",
        "label": "_roles",
        "offset": 0,
        "slot": "151",
        "type": "t_mapping(t_bytes32,t_struct(RoleData)34_storage)"
      },
      {
        "astId": 338,
        "contract": "contracts/templates/NFTCollection.sol:NFTCollection",
        "label": "__gap",
        "offset": 0,
        "slot": "152",
        "type": "t_array(t_uint256)49_storage"
      },
      {
        "astId": 577,
        "contract": "contracts/templates/NFTCollection.sol:NFTCollection",
        "label": "_status",
        "offset": 0,
        "slot": "201",
        "type": "t_uint256"
      },
      {
        "astId": 621,
        "contract": "contracts/templates/NFTCollection.sol:NFTCollection",
        "label": "__gap",
        "offset": 0,
        "slot": "202",
        "type": "t_array(t_uint256)49_storage"
      },
      {
        "astId": 8797,
        "contract": "contracts/templates/NFTCollection.sol:NFTCollection",
        "label": "reserveRemaining",
        "offset": 0,
        "slot": "251",
        "type": "t_uint256"
      },
      {
        "astId": 9177,
        "contract": "contracts/templates/NFTCollection.sol:NFTCollection",
        "label": "_runtimeConfig",
        "offset": 0,
        "slot": "252",
        "type": "t_struct(RuntimeConfig)8762_storage"
      },
      {
        "astId": 9181,
        "contract": "contracts/templates/NFTCollection.sol:NFTCollection",
        "label": "_deploymentConfig",
        "offset": 0,
        "slot": "264",
        "type": "t_struct(DeploymentConfig)8737_storage"
      },
      {
        "astId": 9186,
        "contract": "contracts/templates/NFTCollection.sol:NFTCollection",
        "label": "_presaleMinted",
        "offset": 0,
        "slot": "271",
        "type": "t_mapping(t_address,t_bool)"
      }
    ],
    "types": {
      "t_address": {
        "encoding": "inplace",
        "label": "address",
        "numberOfBytes": "20"
      },
      "t_address_payable": {
        "encoding": "inplace",
        "label": "address payable",
        "numberOfBytes": "20"
      },
      "t_array(t_uint256)42_storage": {
        "base": "t_uint256",
        "encoding": "inplace",
        "label": "uint256[42]",
        "numberOfBytes": "1344"
      },
      "t_array(t_uint256)49_storage": {
        "base": "t_uint256",
        "encoding": "inplace",
        "label": "uint256[49]",
        "numberOfBytes": "1568"
      },
      "t_array(t_uint256)50_storage": {
        "base": "t_uint256",
        "encoding": "inplace",
        "label": "uint256[50]",
        "numberOfBytes": "1600"
      },
      "t_bool": {
        "encoding": "inplace",
        "label": "bool",
        "numberOfBytes": "1"
      },
      "t_bytes32": {
        "encoding": "inplace",
        "label": "bytes32",
        "numberOfBytes": "32"
      },
      "t_mapping(t_address,t_bool)": {
        "encoding": "mapping",
        "key": "t_address",
        "label": "mapping(address => bool)",
        "numberOfBytes": "32",
        "value": "t_bool"
      },
      "t_mapping(t_address,t_mapping(t_address,t_bool))": {
        "encoding": "mapping",
        "key": "t_address",
        "label": "mapping(address => mapping(address => bool))",
        "numberOfBytes": "32",
        "value": "t_mapping(t_address,t_bool)"
      },
      "t_mapping(t_address,t_struct(AddressData)9726_storage)": {
        "encoding": "mapping",
        "key": "t_address",
        "label": "mapping(address => struct ERC721AUpgradeable.AddressData)",
        "numberOfBytes": "32",
        "value": "t_struct(AddressData)9726_storage"
      },
      "t_mapping(t_bytes32,t_struct(RoleData)34_storage)": {
        "encoding": "mapping",
        "key": "t_bytes32",
        "label": "mapping(bytes32 => struct AccessControlUpgradeable.RoleData)",
        "numberOfBytes": "32",
        "value": "t_struct(RoleData)34_storage"
      },
      "t_mapping(t_uint256,t_address)": {
        "encoding": "mapping",
        "key": "t_uint256",
        "label": "mapping(uint256 => address)",
        "numberOfBytes": "32",
        "value": "t_address"
      },
      "t_mapping(t_uint256,t_struct(TokenOwnership)9717_storage)": {
        "encoding": "mapping",
        "key": "t_uint256",
        "label": "mapping(uint256 => struct ERC721AUpgradeable.TokenOwnership)",
        "numberOfBytes": "32",
        "value": "t_struct(TokenOwnership)9717_storage"
      },
      "t_string_storage": {
        "encoding": "bytes",
        "label": "string",
        "numberOfBytes": "32"
      },
      "t_struct(AddressData)9726_storage": {
        "encoding": "inplace",
        "label": "struct ERC721AUpgradeable.AddressData",
        "members": [
          {
            "astId": 9719,
            "contract": "contracts/templates/NFTCollection.sol:NFTCollection",
            "label": "balance",
            "offset": 0,
            "slot": "0",
            "type": "t_uint64"
          },
          {
            "astId": 9721,
            "contract": "contracts/templates/NFTCollection.sol:NFTCollection",
            "label": "numberMinted",
            "offset": 8,
            "slot": "0",
            "type": "t_uint64"
          },
          {
            "astId": 9723,
            "contract": "contracts/templates/NFTCollection.sol:NFTCollection",
            "label": "numberBurned",
            "offset": 16,
            "slot": "0",
            "type": "t_uint64"
          },
          {
            "astId": 9725,
            "contract": "contracts/templates/NFTCollection.sol:NFTCollection",
            "label": "aux",
            "offset": 24,
            "slot": "0",
            "type": "t_uint64"
          }
        ],
        "numberOfBytes": "32"
      },
      "t_struct(DeploymentConfig)8737_storage": {
        "encoding": "inplace",
        "label": "struct NFTCollection.DeploymentConfig",
        "members": [
          {
            "astId": 8724,
            "contract": "contracts/templates/NFTCollection.sol:NFTCollection",
            "label": "name",
            "offset": 0,
            "slot": "0",
            "type": "t_string_storage"
          },
          {
            "astId": 8726,
            "contract": "contracts/templates/NFTCollection.sol:NFTCollection",
            "label": "symbol",
            "offset": 0,
            "slot": "1",
            "type": "t_string_storage"
          },
          {
            "astId": 8728,
            "contract": "contracts/templates/NFTCollection.sol:NFTCollection",
            "label": "owner",
            "offset": 0,
            "slot": "2",
            "type": "t_address"
          },
          {
            "astId": 8730,
            "contract": "contracts/templates/NFTCollection.sol:NFTCollection",
            "label": "maxSupply",
            "offset": 0,
            "slot": "3",
            "type": "t_uint256"
          },
          {
            "astId": 8732,
            "contract": "contracts/templates/NFTCollection.sol:NFTCollection",
            "label": "reservedSupply",
            "offset": 0,
            "slot": "4",
            "type": "t_uint256"
          },
          {
            "astId": 8734,
            "contract": "contracts/templates/NFTCollection.sol:NFTCollection",
            "label": "tokensPerMint",
            "offset": 0,
            "slot": "5",
            "type": "t_uint256"
          },
          {
            "astId": 8736,
            "contract": "contracts/templates/NFTCollection.sol:NFTCollection",
            "label": "treasuryAddress",
            "offset": 0,
            "slot": "6",
            "type": "t_address_payable"
          }
        ],
        "numberOfBytes": "224"
      },
      "t_struct(RoleData)34_storage": {
        "encoding": "inplace",
        "label": "struct AccessControlUpgradeable.RoleData",
        "members": [
          {
            "astId": 31,
            "contract": "contracts/templates/NFTCollection.sol:NFTCollection",
            "label": "members",
            "offset": 0,
            "slot": "0",
            "type": "t_mapping(t_address,t_bool)"
          },
          {
            "astId": 33,
            "contract": "contracts/templates/NFTCollection.sol:NFTCollection",
            "label": "adminRole",
            "offset": 0,
            "slot": "1",
            "type": "t_bytes32"
          }
        ],
        "numberOfBytes": "64"
      },
      "t_struct(RuntimeConfig)8762_storage": {
        "encoding": "inplace",
        "label": "struct NFTCollection.RuntimeConfig",
        "members": [
          {
            "astId": 8739,
            "contract": "contracts/templates/NFTCollection.sol:NFTCollection",
            "label": "baseURI",
            "offset": 0,
            "slot": "0",
            "type": "t_string_storage"
          },
          {
            "astId": 8741,
            "contract": "contracts/templates/NFTCollection.sol:NFTCollection",
            "label": "metadataFrozen",
            "offset": 0,
            "slot": "1",
            "type": "t_bool"
          },
          {
            "astId": 8743,
            "contract": "contracts/templates/NFTCollection.sol:NFTCollection",
            "label": "publicMintPrice",
            "offset": 0,
            "slot": "2",
            "type": "t_uint256"
          },
          {
            "astId": 8745,
            "contract": "contracts/templates/NFTCollection.sol:NFTCollection",
            "label": "publicMintPriceFrozen",
            "offset": 0,
            "slot": "3",
            "type": "t_bool"
          },
          {
            "astId": 8747,
            "contract": "contracts/templates/NFTCollection.sol:NFTCollection",
            "label": "presaleMintPrice",
            "offset": 0,
            "slot": "4",
            "type": "t_uint256"
          },
          {
            "astId": 8749,
            "contract": "contracts/templates/NFTCollection.sol:NFTCollection",
            "label": "presaleMintPriceFrozen",
            "offset": 0,
            "slot": "5",
            "type": "t_bool"
          },
          {
            "astId": 8751,
            "contract": "contracts/templates/NFTCollection.sol:NFTCollection",
            "label": "publicMintStart",
            "offset": 0,
            "slot": "6",
            "type": "t_uint256"
          },
          {
            "astId": 8753,
            "contract": "contracts/templates/NFTCollection.sol:NFTCollection",
            "label": "presaleMintStart",
            "offset": 0,
            "slot": "7",
            "type": "t_uint256"
          },
          {
            "astId": 8755,
            "contract": "contracts/templates/NFTCollection.sol:NFTCollection",
            "label": "prerevealTokenURI",
            "offset": 0,
            "slot": "8",
            "type": "t_string_storage"
          },
          {
            "astId": 8757,
            "contract": "contracts/templates/NFTCollection.sol:NFTCollection",
            "label": "presaleMerkleRoot",
            "offset": 0,
            "slot": "9",
            "type": "t_bytes32"
          },
          {
            "astId": 8759,
            "contract": "contracts/templates/NFTCollection.sol:NFTCollection",
            "label": "royaltiesBps",
            "offset": 0,
            "slot": "10",
            "type": "t_uint256"
          },
          {
            "astId": 8761,
            "contract": "contracts/templates/NFTCollection.sol:NFTCollection",
            "label": "royaltiesAddress",
            "offset": 0,
            "slot": "11",
            "type": "t_address"
          }
        ],
        "numberOfBytes": "384"
      },
      "t_struct(TokenOwnership)9717_storage": {
        "encoding": "inplace",
        "label": "struct ERC721AUpgradeable.TokenOwnership",
        "members": [
          {
            "astId": 9712,
            "contract": "contracts/templates/NFTCollection.sol:NFTCollection",
            "label": "addr",
            "offset": 0,
            "slot": "0",
            "type": "t_address"
          },
          {
            "astId": 9714,
            "contract": "contracts/templates/NFTCollection.sol:NFTCollection",
            "label": "startTimestamp",
            "offset": 20,
            "slot": "0",
            "type": "t_uint64"
          },
          {
            "astId": 9716,
            "contract": "contracts/templates/NFTCollection.sol:NFTCollection",
            "label": "burned",
            "offset": 28,
            "slot": "0",
            "type": "t_bool"
          }
        ],
        "numberOfBytes": "32"
      },
      "t_uint256": {
        "encoding": "inplace",
        "label": "uint256",
        "numberOfBytes": "32"
      },
      "t_uint64": {
        "encoding": "inplace",
        "label": "uint64",
        "numberOfBytes": "8"
      },
      "t_uint8": {
        "encoding": "inplace",
        "label": "uint8",
        "numberOfBytes": "1"
      }
    }
  }
}