{
  "address": "0x56A0572fa0952d176C6c911A52E5e6e83170F67B",
  "abi": [
    {
      "inputs": [],
      "stateMutability": "nonpayable",
      "type": "constructor"
    },
    {
      "anonymous": false,
      "inputs": [
        {
          "indexed": true,
          "internalType": "address",
          "name": "account",
          "type": "address"
        },
        {
          "indexed": true,
          "internalType": "address",
          "name": "operator",
          "type": "address"
        },
        {
          "indexed": false,
          "internalType": "bool",
          "name": "approved",
          "type": "bool"
        }
      ],
      "name": "ApprovalForAll",
      "type": "event"
    },
    {
      "anonymous": false,
      "inputs": [
        {
          "indexed": false,
          "internalType": "uint8",
          "name": "version",
          "type": "uint8"
        }
      ],
      "name": "Initialized",
      "type": "event"
    },
    {
      "anonymous": false,
      "inputs": [
        {
          "indexed": true,
          "internalType": "address",
          "name": "previousOwner",
          "type": "address"
        },
        {
          "indexed": true,
          "internalType": "address",
          "name": "newOwner",
          "type": "address"
        }
      ],
      "name": "OwnershipTransferred",
      "type": "event"
    },
    {
      "anonymous": false,
      "inputs": [
        {
          "indexed": false,
          "internalType": "string",
          "name": "_value",
          "type": "string"
        },
        {
          "indexed": true,
          "internalType": "uint256",
          "name": "_id",
          "type": "uint256"
        }
      ],
      "name": "PermanentURI",
      "type": "event"
    },
    {
      "anonymous": false,
      "inputs": [],
      "name": "PermanentURIGlobal",
      "type": "event"
    },
    {
      "anonymous": false,
      "inputs": [
        {
          "indexed": true,
          "internalType": "bytes32",
          "name": "role",
          "type": "bytes32"
        },
        {
          "indexed": true,
          "internalType": "bytes32",
          "name": "previousAdminRole",
          "type": "bytes32"
        },
        {
          "indexed": true,
          "internalType": "bytes32",
          "name": "newAdminRole",
          "type": "bytes32"
        }
      ],
      "name": "RoleAdminChanged",
      "type": "event"
    },
    {
      "anonymous": false,
      "inputs": [
        {
          "indexed": true,
          "internalType": "bytes32",
          "name": "role",
          "type": "bytes32"
        },
        {
          "indexed": true,
          "internalType": "address",
          "name": "account",
          "type": "address"
        },
        {
          "indexed": true,
          "internalType": "address",
          "name": "sender",
          "type": "address"
        }
      ],
      "name": "RoleGranted",
      "type": "event"
    },
    {
      "anonymous": false,
      "inputs": [
        {
          "indexed": true,
          "internalType": "bytes32",
          "name": "role",
          "type": "bytes32"
        },
        {
          "indexed": true,
          "internalType": "address",
          "name": "account",
          "type": "address"
        },
        {
          "indexed": true,
          "internalType": "address",
          "name": "sender",
          "type": "address"
        }
      ],
      "name": "RoleRevoked",
      "type": "event"
    },
    {
      "anonymous": false,
      "inputs": [
        {
          "indexed": true,
          "internalType": "address",
          "name": "operator",
          "type": "address"
        },
        {
          "indexed": true,
          "internalType": "address",
          "name": "from",
          "type": "address"
        },
        {
          "indexed": true,
          "internalType": "address",
          "name": "to",
          "type": "address"
        },
        {
          "indexed": false,
          "internalType": "uint256[]",
          "name": "ids",
          "type": "uint256[]"
        },
        {
          "indexed": false,
          "internalType": "uint256[]",
          "name": "values",
          "type": "uint256[]"
        }
      ],
      "name": "TransferBatch",
      "type": "event"
    },
    {
      "anonymous": false,
      "inputs": [
        {
          "indexed": true,
          "internalType": "address",
          "name": "operator",
          "type": "address"
        },
        {
          "indexed": true,
          "internalType": "address",
          "name": "from",
          "type": "address"
        },
        {
          "indexed": true,
          "internalType": "address",
          "name": "to",
          "type": "address"
        },
        {
          "indexed": false,
          "internalType": "uint256",
          "name": "id",
          "type": "uint256"
        },
        {
          "indexed": false,
          "internalType": "uint256",
          "name": "value",
          "type": "uint256"
        }
      ],
      "name": "TransferSingle",
      "type": "event"
    },
    {
      "anonymous": false,
      "inputs": [
        {
          "indexed": false,
          "internalType": "string",
          "name": "value",
          "type": "string"
        },
        {
          "indexed": true,
          "internalType": "uint256",
          "name": "id",
          "type": "uint256"
        }
      ],
      "name": "URI",
      "type": "event"
    },
    {
      "inputs": [],
      "name": "ADMIN_ROLE",
      "outputs": [
        {
          "internalType": "bytes32",
          "name": "",
          "type": "bytes32"
        }
      ],
      "stateMutability": "view",
      "type": "function"
    },
    {
      "inputs": [],
      "name": "BURN_ROLE",
      "outputs": [
        {
          "internalType": "bytes32",
          "name": "",
          "type": "bytes32"
        }
      ],
      "stateMutability": "view",
      "type": "function"
    },
    {
      "inputs": [],
      "name": "DEFAULT_ADMIN_ROLE",
      "outputs": [
        {
          "internalType": "bytes32",
          "name": "",
          "type": "bytes32"
        }
      ],
      "stateMutability": "view",
      "type": "function"
    },
    {
      "inputs": [],
      "name": "DEFAULT_URI",
      "outputs": [
        {
          "internalType": "string",
          "name": "",
          "type": "string"
        }
      ],
      "stateMutability": "view",
      "type": "function"
    },
    {
      "inputs": [],
      "name": "MINT_ROLE",
      "outputs": [
        {
          "internalType": "bytes32",
          "name": "",
          "type": "bytes32"
        }
      ],
      "stateMutability": "view",
      "type": "function"
    },
    {
      "inputs": [],
      "name": "NAME",
      "outputs": [
        {
          "internalType": "string",
          "name": "",
          "type": "string"
        }
      ],
      "stateMutability": "view",
      "type": "function"
    },
    {
      "inputs": [],
      "name": "ROYALTIES_BASIS",
      "outputs": [
        {
          "internalType": "uint16",
          "name": "",
          "type": "uint16"
        }
      ],
      "stateMutability": "view",
      "type": "function"
    },
    {
      "inputs": [],
      "name": "TRANSFER_ROLE",
      "outputs": [
        {
          "internalType": "bytes32",
          "name": "",
          "type": "bytes32"
        }
      ],
      "stateMutability": "view",
      "type": "function"
    },
    {
      "inputs": [],
      "name": "UPDATE_CONTRACT_ROLE",
      "outputs": [
        {
          "internalType": "bytes32",
          "name": "",
          "type": "bytes32"
        }
      ],
      "stateMutability": "view",
      "type": "function"
    },
    {
      "inputs": [],
      "name": "UPDATE_TOKEN_ROLE",
      "outputs": [
        {
          "internalType": "bytes32",
          "name": "",
          "type": "bytes32"
        }
      ],
      "stateMutability": "view",
      "type": "function"
    },
    {
      "inputs": [],
      "name": "VERSION",
      "outputs": [
        {
          "internalType": "uint256",
          "name": "",
          "type": "uint256"
        }
      ],
      "stateMutability": "view",
      "type": "function"
    },
    {
      "inputs": [
        {
          "internalType": "address",
          "name": "account",
          "type": "address"
        },
        {
          "internalType": "uint256",
          "name": "id",
          "type": "uint256"
        }
      ],
      "name": "balanceOf",
      "outputs": [
        {
          "internalType": "uint256",
          "name": "",
          "type": "uint256"
        }
      ],
      "stateMutability": "view",
      "type": "function"
    },
    {
      "inputs": [
        {
          "internalType": "address[]",
          "name": "accounts",
          "type": "address[]"
        },
        {
          "internalType": "uint256[]",
          "name": "ids",
          "type": "uint256[]"
        }
      ],
      "name": "balanceOfBatch",
      "outputs": [
        {
          "internalType": "uint256[]",
          "name": "",
          "type": "uint256[]"
        }
      ],
      "stateMutability": "view",
      "type": "function"
    },
    {
      "inputs": [],
      "name": "baseURI",
      "outputs": [
        {
          "internalType": "string",
          "name": "",
          "type": "string"
        }
      ],
      "stateMutability": "view",
      "type": "function"
    },
    {
      "inputs": [
        {
          "internalType": "uint256",
          "name": "id",
          "type": "uint256"
        },
        {
          "internalType": "uint256",
          "name": "value",
          "type": "uint256"
        }
      ],
      "name": "burn",
      "outputs": [],
      "stateMutability": "nonpayable",
      "type": "function"
    },
    {
      "inputs": [
        {
          "internalType": "uint256[]",
          "name": "ids",
          "type": "uint256[]"
        },
        {
          "internalType": "uint256[]",
          "name": "values",
          "type": "uint256[]"
        }
      ],
      "name": "burnBatch",
      "outputs": [],
      "stateMutability": "nonpayable",
      "type": "function"
    },
    {
      "inputs": [],
      "name": "contractURI",
      "outputs": [
        {
          "internalType": "string",
          "name": "",
          "type": "string"
        }
      ],
      "stateMutability": "view",
      "type": "function"
    },
    {
      "inputs": [
        {
          "internalType": "uint256",
          "name": "",
          "type": "uint256"
        }
      ],
      "name": "freezeTokenUris",
      "outputs": [
        {
          "internalType": "bool",
          "name": "",
          "type": "bool"
        }
      ],
      "stateMutability": "view",
      "type": "function"
    },
    {
      "inputs": [
        {
          "internalType": "bytes32",
          "name": "role",
          "type": "bytes32"
        }
      ],
      "name": "getRoleAdmin",
      "outputs": [
        {
          "internalType": "bytes32",
          "name": "",
          "type": "bytes32"
        }
      ],
      "stateMutability": "view",
      "type": "function"
    },
    {
      "inputs": [
        {
          "internalType": "bytes32",
          "name": "role",
          "type": "bytes32"
        },
        {
          "internalType": "address",
          "name": "account",
          "type": "address"
        }
      ],
      "name": "grantRole",
      "outputs": [],
      "stateMutability": "nonpayable",
      "type": "function"
    },
    {
      "inputs": [
        {
          "internalType": "bytes32",
          "name": "role",
          "type": "bytes32"
        },
        {
          "internalType": "address",
          "name": "account",
          "type": "address"
        }
      ],
      "name": "hasRole",
      "outputs": [
        {
          "internalType": "bool",
          "name": "",
          "type": "bool"
        }
      ],
      "stateMutability": "view",
      "type": "function"
    },
    {
      "inputs": [
        {
          "components": [
            {
              "internalType": "string",
              "name": "name",
              "type": "string"
            },
            {
              "internalType": "string",
              "name": "symbol",
              "type": "string"
            },
            {
              "internalType": "address",
              "name": "owner",
              "type": "address"
            },
            {
              "internalType": "bool",
              "name": "tokensBurnable",
              "type": "bool"
            }
          ],
          "internalType": "struct Config.Deployment",
          "name": "deploymentConfig",
          "type": "tuple"
        },
        {
          "components": [
            {
              "internalType": "string",
              "name": "baseURI",
              "type": "string"
            },
            {
              "internalType": "bool",
              "name": "metadataUpdatable",
              "type": "bool"
            },
            {
              "internalType": "bool",
              "name": "tokensTransferable",
              "type": "bool"
            },
            {
              "internalType": "uint256",
              "name": "royaltiesBps",
              "type": "uint256"
            },
            {
              "internalType": "address",
              "name": "royaltiesAddress",
              "type": "address"
            }
          ],
          "internalType": "struct Config.Runtime",
          "name": "runtimeConfig",
          "type": "tuple"
        },
        {
          "components": [
            {
              "internalType": "bytes32",
              "name": "role",
              "type": "bytes32"
            },
            {
              "internalType": "address[]",
              "name": "addresses",
              "type": "address[]"
            },
            {
              "internalType": "bool",
              "name": "frozen",
              "type": "bool"
            }
          ],
          "internalType": "struct GranularRoles.RolesAddresses[]",
          "name": "rolesAddresses",
          "type": "tuple[]"
        }
      ],
      "name": "initialize",
      "outputs": [],
      "stateMutability": "nonpayable",
      "type": "function"
    },
    {
      "inputs": [
        {
          "internalType": "address",
          "name": "account",
          "type": "address"
        },
        {
          "internalType": "address",
          "name": "operator",
          "type": "address"
        }
      ],
      "name": "isApprovedForAll",
      "outputs": [
        {
          "internalType": "bool",
          "name": "",
          "type": "bool"
        }
      ],
      "stateMutability": "view",
      "type": "function"
    },
    {
      "inputs": [],
      "name": "metadataUpdatable",
      "outputs": [
        {
          "internalType": "bool",
          "name": "",
          "type": "bool"
        }
      ],
      "stateMutability": "view",
      "type": "function"
    },
    {
      "inputs": [
        {
          "internalType": "address",
          "name": "account",
          "type": "address"
        },
        {
          "internalType": "uint256",
          "name": "id",
          "type": "uint256"
        },
        {
          "internalType": "uint256",
          "name": "amount",
          "type": "uint256"
        },
        {
          "internalType": "string",
          "name": "tokenUri",
          "type": "string"
        }
      ],
      "name": "mintByOwner",
      "outputs": [],
      "stateMutability": "nonpayable",
      "type": "function"
    },
    {
      "inputs": [
        {
          "internalType": "address[]",
          "name": "to",
          "type": "address[]"
        },
        {
          "internalType": "uint256[]",
          "name": "ids",
          "type": "uint256[]"
        },
        {
          "internalType": "uint256[]",
          "name": "amounts",
          "type": "uint256[]"
        },
        {
          "internalType": "string[]",
          "name": "uris",
          "type": "string[]"
        }
      ],
      "name": "mintByOwnerBatch",
      "outputs": [],
      "stateMutability": "nonpayable",
      "type": "function"
    },
    {
      "inputs": [],
      "name": "name",
      "outputs": [
        {
          "internalType": "string",
          "name": "",
          "type": "string"
        }
      ],
      "stateMutability": "view",
      "type": "function"
    },
    {
      "inputs": [],
      "name": "owner",
      "outputs": [
        {
          "internalType": "address",
          "name": "",
          "type": "address"
        }
      ],
      "stateMutability": "view",
      "type": "function"
    },
    {
      "inputs": [
        {
          "internalType": "bytes32",
          "name": "role",
          "type": "bytes32"
        },
        {
          "internalType": "address",
          "name": "account",
          "type": "address"
        }
      ],
      "name": "renounceRole",
      "outputs": [],
      "stateMutability": "nonpayable",
      "type": "function"
    },
    {
      "inputs": [],
      "name": "revokeNFTPortPermissions",
      "outputs": [],
      "stateMutability": "nonpayable",
      "type": "function"
    },
    {
      "inputs": [
        {
          "internalType": "bytes32",
          "name": "role",
          "type": "bytes32"
        },
        {
          "internalType": "address",
          "name": "account",
          "type": "address"
        }
      ],
      "name": "revokeRole",
      "outputs": [],
      "stateMutability": "nonpayable",
      "type": "function"
    },
    {
      "inputs": [],
      "name": "royaltiesAddress",
      "outputs": [
        {
          "internalType": "address",
          "name": "",
          "type": "address"
        }
      ],
      "stateMutability": "view",
      "type": "function"
    },
    {
      "inputs": [],
      "name": "royaltiesBasisPoints",
      "outputs": [
        {
          "internalType": "uint256",
          "name": "",
          "type": "uint256"
        }
      ],
      "stateMutability": "view",
      "type": "function"
    },
    {
      "inputs": [
        {
          "internalType": "uint256",
          "name": "",
          "type": "uint256"
        },
        {
          "internalType": "uint256",
          "name": "salePrice",
          "type": "uint256"
        }
      ],
      "name": "royaltyInfo",
      "outputs": [
        {
          "internalType": "address",
          "name": "",
          "type": "address"
        },
        {
          "internalType": "uint256",
          "name": "",
          "type": "uint256"
        }
      ],
      "stateMutability": "view",
      "type": "function"
    },
    {
      "inputs": [
        {
          "internalType": "address",
          "name": "from",
          "type": "address"
        },
        {
          "internalType": "address",
          "name": "to",
          "type": "address"
        },
        {
          "internalType": "uint256[]",
          "name": "ids",
          "type": "uint256[]"
        },
        {
          "internalType": "uint256[]",
          "name": "amounts",
          "type": "uint256[]"
        },
        {
          "internalType": "bytes",
          "name": "data",
          "type": "bytes"
        }
      ],
      "name": "safeBatchTransferFrom",
      "outputs": [],
      "stateMutability": "nonpayable",
      "type": "function"
    },
    {
      "inputs": [
        {
          "internalType": "address",
          "name": "from",
          "type": "address"
        },
        {
          "internalType": "address",
          "name": "to",
          "type": "address"
        },
        {
          "internalType": "uint256",
          "name": "id",
          "type": "uint256"
        },
        {
          "internalType": "uint256",
          "name": "amount",
          "type": "uint256"
        },
        {
          "internalType": "bytes",
          "name": "data",
          "type": "bytes"
        }
      ],
      "name": "safeTransferFrom",
      "outputs": [],
      "stateMutability": "nonpayable",
      "type": "function"
    },
    {
      "inputs": [
        {
          "internalType": "address",
          "name": "operator",
          "type": "address"
        },
        {
          "internalType": "bool",
          "name": "approved",
          "type": "bool"
        }
      ],
      "name": "setApprovalForAll",
      "outputs": [],
      "stateMutability": "nonpayable",
      "type": "function"
    },
    {
      "inputs": [
        {
          "internalType": "string",
          "name": "_newURI",
          "type": "string"
        }
      ],
      "name": "setURI",
      "outputs": [],
      "stateMutability": "nonpayable",
      "type": "function"
    },
    {
      "inputs": [
        {
          "internalType": "bytes4",
          "name": "interfaceId",
          "type": "bytes4"
        }
      ],
      "name": "supportsInterface",
      "outputs": [
        {
          "internalType": "bool",
          "name": "",
          "type": "bool"
        }
      ],
      "stateMutability": "view",
      "type": "function"
    },
    {
      "inputs": [],
      "name": "symbol",
      "outputs": [
        {
          "internalType": "string",
          "name": "",
          "type": "string"
        }
      ],
      "stateMutability": "view",
      "type": "function"
    },
    {
      "inputs": [
        {
          "internalType": "uint256",
          "name": "",
          "type": "uint256"
        }
      ],
      "name": "tokenSupply",
      "outputs": [
        {
          "internalType": "uint256",
          "name": "",
          "type": "uint256"
        }
      ],
      "stateMutability": "view",
      "type": "function"
    },
    {
      "inputs": [],
      "name": "tokensBurnable",
      "outputs": [
        {
          "internalType": "bool",
          "name": "",
          "type": "bool"
        }
      ],
      "stateMutability": "view",
      "type": "function"
    },
    {
      "inputs": [],
      "name": "tokensTransferable",
      "outputs": [
        {
          "internalType": "bool",
          "name": "",
          "type": "bool"
        }
      ],
      "stateMutability": "view",
      "type": "function"
    },
    {
      "inputs": [
        {
          "internalType": "uint256",
          "name": "_id",
          "type": "uint256"
        }
      ],
      "name": "totalSupply",
      "outputs": [
        {
          "internalType": "uint256",
          "name": "",
          "type": "uint256"
        }
      ],
      "stateMutability": "view",
      "type": "function"
    },
    {
      "inputs": [
        {
          "internalType": "address",
          "name": "to",
          "type": "address"
        },
        {
          "internalType": "uint256",
          "name": "id",
          "type": "uint256"
        },
        {
          "internalType": "uint256",
          "name": "amount",
          "type": "uint256"
        }
      ],
      "name": "transferByOwner",
      "outputs": [],
      "stateMutability": "nonpayable",
      "type": "function"
    },
    {
      "inputs": [
        {
          "internalType": "address[]",
          "name": "to",
          "type": "address[]"
        },
        {
          "internalType": "uint256[]",
          "name": "ids",
          "type": "uint256[]"
        },
        {
          "internalType": "uint256[]",
          "name": "amounts",
          "type": "uint256[]"
        }
      ],
      "name": "transferByOwnerBatch",
      "outputs": [],
      "stateMutability": "nonpayable",
      "type": "function"
    },
    {
      "inputs": [
        {
          "internalType": "address",
          "name": "newOwner",
          "type": "address"
        }
      ],
      "name": "transferOwnership",
      "outputs": [],
      "stateMutability": "nonpayable",
      "type": "function"
    },
    {
      "inputs": [
        {
          "components": [
            {
              "internalType": "string",
              "name": "baseURI",
              "type": "string"
            },
            {
              "internalType": "bool",
              "name": "metadataUpdatable",
              "type": "bool"
            },
            {
              "internalType": "bool",
              "name": "tokensTransferable",
              "type": "bool"
            },
            {
              "internalType": "uint256",
              "name": "royaltiesBps",
              "type": "uint256"
            },
            {
              "internalType": "address",
              "name": "royaltiesAddress",
              "type": "address"
            }
          ],
          "internalType": "struct Config.Runtime",
          "name": "newConfig",
          "type": "tuple"
        },
        {
          "components": [
            {
              "internalType": "bytes32",
              "name": "role",
              "type": "bytes32"
            },
            {
              "internalType": "address[]",
              "name": "addresses",
              "type": "address[]"
            },
            {
              "internalType": "bool",
              "name": "frozen",
              "type": "bool"
            }
          ],
          "internalType": "struct GranularRoles.RolesAddresses[]",
          "name": "rolesAddresses",
          "type": "tuple[]"
        },
        {
          "internalType": "bool",
          "name": "isRevokeNFTPortPermissions",
          "type": "bool"
        }
      ],
      "name": "update",
      "outputs": [],
      "stateMutability": "nonpayable",
      "type": "function"
    },
    {
      "inputs": [
        {
          "internalType": "uint256",
          "name": "_tokenId",
          "type": "uint256"
        },
        {
          "internalType": "string",
          "name": "_newUri",
          "type": "string"
        },
        {
          "internalType": "bool",
          "name": "_isFreezeTokenUri",
          "type": "bool"
        }
      ],
      "name": "updateTokenUri",
      "outputs": [],
      "stateMutability": "nonpayable",
      "type": "function"
    },
    {
      "inputs": [
        {
          "internalType": "uint256",
          "name": "_id",
          "type": "uint256"
        }
      ],
      "name": "uri",
      "outputs": [
        {
          "internalType": "string",
          "name": "",
          "type": "string"
        }
      ],
      "stateMutability": "view",
      "type": "function"
    }
  ],
  "transactionHash": "0xebdb0a5e57d03e72b866599f5ccf74fb13e9921306d6ceef7fe074d0954326fc",
  "args": [],
  "numDeployments": 1,
  "solcInputHash": "e12482b242be91d2a87c66963f76750e",
  "bytecode": "0x60806040523480156200001157600080fd5b50600054610100900460ff1615808015620000335750600054600160ff909116105b8062000063575062000050306200013d60201b62001d5f1760201c565b15801562000063575060005460ff166001145b620000cb5760405162461bcd60e51b815260206004820152602e60248201527f496e697469616c697a61626c653a20636f6e747261637420697320616c72656160448201526d191e481a5b9a5d1a585b1a5e995960921b606482015260840160405180910390fd5b6000805460ff191660011790558015620000ef576000805461ff0019166101001790555b801562000136576000805461ff0019169055604051600181527f7f26b83ff96e1f2b6a682f133852f6798a09c465da95921460cefb38474024989060200160405180910390a15b506200014c565b6001600160a01b03163b151590565b614b20806200015c6000396000f3fe608060405234801561001057600080fd5b50600436106102d55760003560e01c80638d010db311610182578063b930908f116100e9578063e985e9c5116100a2578063f242432a1161007c578063f242432a1461070f578063f2fde38b14610722578063ff0a9f5114610735578063ffa1ad741461074857600080fd5b8063e985e9c5146106b6578063e9a9c850146106f2578063f153c2e51461070757600080fd5b8063b930908f14610641578063bd85b03914610656578063d547741f14610676578063de374d9d14610689578063e3d520721461069c578063e8a3d485146106ae57600080fd5b8063a22cb4651161013b578063a22cb465146105a8578063a2f551ec146105bb578063a3f4df7e146105ce578063a53a84b6146105fe578063b29c097a14610607578063b390c0ab1461062e57600080fd5b80638d010db3146105355780638da5cb5b1461055857806391d148541461056957806395d89b411461057c5780639da5b0a514610584578063a217fddf146105a057600080fd5b80632c23b965116102415780634e1273f4116101fa5780636f8b1495116101d45780636f8b1495146104e457806375b238fc146104fa5780637e712f381461050f57806383ca4b6f1461052257600080fd5b80634e1273f4146104af5780634e6f9dd6146104cf5780636c0360eb146104dc57600080fd5b80632c23b965146104235780632e628b61146104385780632eb2c2d61461044b5780632f2ff15d1461045e578063328825351461047157806336568abe1461049c57600080fd5b8063206b60f911610293578063206b60f914610373578063224a177514610388578063248a9ca31461039b57806325d22c8e146103be5780632693ebf2146103d15780632a55205a146103f157600080fd5b8062fdd58e146102da57806301ffc9a71461030057806302fe53051461032357806306fdde03146103385780630e89341c1461034d57806320333b1314610360575b600080fd5b6102ed6102e8366004613487565b610751565b6040519081526020015b60405180910390f35b61031361030e3660046134c7565b6107e9565b60405190151581526020016102f7565b6103366103313660046135dd565b610815565b005b61034061083a565b6040516102f79190613669565b61034061035b36600461367c565b6108c8565b61033661036e366004613695565b6109ed565b6102ed600080516020614a0b83398151915281565b6103366103963660046136f5565b610aff565b6102ed6103a936600461367c565b60009081526097602052604090206001015490565b6103366103cc36600461395f565b610b99565b6102ed6103df36600461367c565b60d46020526000908152604090205481565b6104046103ff366004613a5e565b610d74565b604080516001600160a01b0390931683526020830191909152016102f7565b6102ed600080516020614a2b83398151915281565b610336610446366004613a80565b610db0565b610336610459366004613b61565b610f51565b61033661046c366004613c0a565b610f9d565b60d154610484906001600160a01b031681565b6040516001600160a01b0390911681526020016102f7565b6103366104aa366004613c0a565b610fc7565b6104c26104bd366004613c36565b611041565b6040516102f79190613cd4565b60cd546103139060ff1681565b61034061116a565b6103406040518060200160405280600081525081565b6102ed600080516020614aab83398151915281565b61033661051d366004613ce7565b611177565b610336610530366004613d64565b611274565b61031361054336600461367c565b60d36020526000908152604090205460ff1681565b60c9546001600160a01b0316610484565b610313610577366004613c0a565b611368565b6103406113d7565b61058d61271081565b60405161ffff90911681526020016102f7565b6102ed600081565b6103366105b6366004613d9a565b6113e4565b6103366105c9366004613dc4565b6113ef565b61034060405180604001604052806011815260200170115490cc4c4d4d539195141c9bd91d58dd607a1b81525081565b6102ed60d25481565b6102ed7f852fd44a27d33057a8c3d90859d4e4c9f54309d4d66d1d968e063befba9198e681565b61033661063c366004613a5e565b6116d2565b6102ed600080516020614acb83398151915281565b6102ed61066436600461367c565b600090815260d4602052604090205490565b610336610684366004613c0a565b611775565b60cd546103139062010000900460ff1681565b60cd5461031390610100900460ff1681565b61034061179a565b6103136106c4366004613e02565b6001600160a01b03918216600090815260666020908152604080832093909416825291909152205460ff1690565b6102ed600080516020614a8b83398151915281565b610336611814565b61033661071d366004613e2c565b611864565b610336610730366004613e90565b6118a9565b610336610743366004613eab565b611a04565b6102ed61271081565b60006001600160a01b0383166107c15760405162461bcd60e51b815260206004820152602a60248201527f455243313135353a2061646472657373207a65726f206973206e6f742061207660448201526930b634b21037bbb732b960b11b60648201526084015b60405180910390fd5b5060009081526065602090815260408083206001600160a01b03949094168352929052205490565b60006107f482611d6e565b8061080f57506001600160e01b0319821663152a902d60e11b145b92915050565b600080516020614a2b83398151915261082d81611dbe565b61083682611dcb565b5050565b60ce805461084790613fcf565b80601f016020809104026020016040519081016040528092919081815260200182805461087390613fcf565b80156108c05780601f10610895576101008083540402835291602001916108c0565b820191906000526020600020905b8154815290600101906020018083116108a357829003601f168201915b505050505081565b600081815260d560205260408120805460609291906108e690613fcf565b905011156109df57600060d080546108fd90613fcf565b905011156109415760d060d5600084815260200190815260200160002060405160200161092b92919061407c565b6040516020818303038152906040529050919050565b600082815260d560205260409020805461095a90613fcf565b80601f016020809104026020016040519081016040528092919081815260200182805461098690613fcf565b80156109d35780601f106109a8576101008083540402835291602001916109d3565b820191906000526020600020905b8154815290600101906020018083116109b657829003601f168201915b50505050509050919050565b61080f82611dd7565b919050565b600080516020614a8b833981519152610a0581611dbe565b600084815260d4602052604090205415610a615760405162461bcd60e51b815260206004820152601960248201527f4e46543a20746f6b656e20616c7265616479206d696e7465640000000000000060448201526064016107b8565b815115610aba57600084815260d560205260409020610a8083826140d7565b50837f6bb7ff708619ba0610cba295a58592e0451dee2622938c8755667688daf3529b83604051610ab19190613669565b60405180910390a25b610ad585858560405180602001604052806000815250611de6565b600084815260d4602052604081208054859290610af39084906141ac565b90915550505050505050565b600080516020614a0b833981519152610b1781611dbe565b60cd5462010000900460ff16610b685760405162461bcd60e51b8152602060048201526016602482015275151c985b9cd9995c9cc8185c9948191a5cd8589b195960521b60448201526064016107b8565b60c954604080516020810190915260008152610b93916001600160a01b031690869086908690611efc565b50505050565b600054610100900460ff1615808015610bb95750600054600160ff909116105b80610bd35750303b158015610bd3575060005460ff166001145b610c365760405162461bcd60e51b815260206004820152602e60248201527f496e697469616c697a61626c653a20636f6e747261637420697320616c72656160448201526d191e481a5b9a5d1a585b1a5e995960921b60648201526084016107b8565b6000805460ff191660011790558015610c59576000805461ff0019166101001790555b610c716040518060200160405280600081525061202a565b608083015160d180546001600160a01b0319166001600160a01b0390921691909117905560608084015160d255602084015160cd805492870151604087015161ffff1990941692151561ff00191692909217610100921515929092029190911762ff000019166201000092151592909202919091179055835160ce90610cf790826140d7565b50602084015160cf90610d0a90826140d7565b50825160d090610d1a90826140d7565b50610d2984604001518361205a565b8015610b93576000805461ff0019169055604051600181527f7f26b83ff96e1f2b6a682f133852f6798a09c465da95921460cefb38474024989060200160405180910390a150505050565b60d15460d25460009182916001600160a01b039091169061271090610d9a9086906141c4565b610da491906141f9565b915091505b9250929050565b600080516020614a2b833981519152610dc881611dbe565b60cd5460ff1680610e31575060d0604051602001610de6919061420d565b60408051601f198184030181529190528051602090910120610e088580614219565b604051602001610e1992919061425f565b60405160208183030381529060405280519060200120145b610e725760405162461bcd60e51b815260206004820152601260248201527126b2ba30b230ba309034b990333937bd32b760711b60448201526064016107b8565b610e7c8480614219565b60d091610e8a91908361426f565b50610e9b60a0850160808601613e90565b60d180546001600160a01b0319166001600160a01b039290921691909117905560608401803560d255610ed1906040860161432e565b610ee25760cd805462ff0000191690555b610ef2604085016020860161432e565b158015610f01575060cd5460ff165b15610f3a5760cd805460ff191690556040517fb59f45df38ec0d34114b1248c38a29cdbccbf3e745ae3ef310ac66199a4ceccf90600090a15b610f4383612288565b8115610b9357610b93611814565b6001600160a01b038516331480610f6d5750610f6d85336106c4565b610f895760405162461bcd60e51b81526004016107b890614349565b610f968585858585612572565b5050505050565b600082815260976020526040902060010154610fb881611dbe565b610fc28383612709565b505050565b6001600160a01b03811633146110375760405162461bcd60e51b815260206004820152602f60248201527f416363657373436f6e74726f6c3a2063616e206f6e6c792072656e6f756e636560448201526e103937b632b9903337b91039b2b63360891b60648201526084016107b8565b610836828261278f565b606081518351146110a65760405162461bcd60e51b815260206004820152602960248201527f455243313135353a206163636f756e747320616e6420696473206c656e677468604482015268040dad2e6dac2e8c6d60bb1b60648201526084016107b8565b600083516001600160401b038111156110c1576110c16134e4565b6040519080825280602002602001820160405280156110ea578160200160208202803683370190505b50905060005b84518110156111625761113585828151811061110e5761110e614398565b602002602001015185838151811061112857611128614398565b6020026020010151610751565b82828151811061114757611147614398565b602090810291909101015261115b816143ae565b90506110f0565b509392505050565b60d0805461084790613fcf565b600080516020614a0b83398151915261118f81611dbe565b60cd5462010000900460ff166111e05760405162461bcd60e51b8152602060048201526016602482015275151c985b9cd9995c9cc8185c9948191a5cd8589b195960521b60448201526064016107b8565b60005b8351811015610f965760c9548551611262916001600160a01b03169087908490811061121157611211614398565b602002602001015186848151811061122b5761122b614398565b602002602001015186858151811061124557611245614398565b602002602001015160405180602001604052806000815250611efc565b8061126c816143ae565b9150506111e3565b600080516020614acb83398151915261128c81611dbe565b60cd54610100900460ff166112d85760405162461bcd60e51b8152602060048201526012602482015271109d5c9b9cc8185c9948191a5cd8589b195960721b60448201526064016107b8565b60c9546112ef906001600160a01b031684846127f6565b60005b8351811015610b935782818151811061130d5761130d614398565b602002602001015160d4600086848151811061132b5761132b614398565b60200260200101518152602001908152602001600020600082825461135091906143c7565b90915550819050611360816143ae565b9150506112f2565b6001600160a01b03811660009081527f9805bb80c0cb3b8457cbce774d5adda6e717284b7d1e937eb2fdc8bbff924719602052604081205460ff16806113d0575060008381526097602090815260408083206001600160a01b038616845290915290205460ff165b9392505050565b60cf805461084790613fcf565b610836338383612983565b7f852fd44a27d33057a8c3d90859d4e4c9f54309d4d66d1d968e063befba9198e661141981611dbe565b600084815260d4602052604090205461146b5760405162461bcd60e51b8152602060048201526014602482015273151bdad95b88191bd95cc81b9bdd08195e1a5cdd60621b60448201526064016107b8565b60cd5460ff166114b25760405162461bcd60e51b815260206004820152601260248201527126b2ba30b230ba309034b990333937bd32b760711b60448201526064016107b8565b600084815260d3602052604090205460ff1615156001036115075760405162461bcd60e51b815260206004820152600f60248201526e2a37b5b2b71034b990333937bd32b760891b60448201526064016107b8565b81806115135750825115155b6115795760405162461bcd60e51b815260206004820152603160248201527f456974686572205f6e6577557269206f72205f6973467265657a65546f6b656e604482015270155c9a4f5d1c9d59481c995c5d5a5c9959607a1b60648201526084016107b8565b825115611669578260405160200161159191906143de565b60408051601f198184030181528282528051602091820120600088815260d590925291902090916115c2919061420d565b6040518091039020036116175760405162461bcd60e51b815260206004820181905260248201527f4e657720746f6b656e205552492069732073616d65206173207570646174656460448201526064016107b8565b600084815260d56020526040902061162f84826140d7565b50837f6bb7ff708619ba0610cba295a58592e0451dee2622938c8755667688daf3529b846040516116609190613669565b60405180910390a25b8115610b9357600084815260d360209081526040808320805460ff1916600117905560d590915290819020905185917fa109ba539900bf1b633f956d63c96fc89b814c7287f7aa50a9216d0b55657207916116c491906143fa565b60405180910390a250505050565b600080516020614acb8339815191526116ea81611dbe565b60cd54610100900460ff166117365760405162461bcd60e51b8152602060048201526012602482015271109d5c9b9cc8185c9948191a5cd8589b195960721b60448201526064016107b8565b60c95461174d906001600160a01b03168484612a63565b600083815260d460205260408120805484929061176b9084906143c7565b9091555050505050565b60008281526097602052604090206001015461179081611dbe565b610fc2838361278f565b606060006117e86117ac60d254612b6a565b60d1546117c3906001600160a01b03166014612c72565b6040516020016117d4929190614485565b604051602081830303815290604052612e0d565b90506000816040516020016117fd919061450c565b60408051601f198184030181529190529392505050565b600080516020614aab83398151915261182c81611dbe565b60ca5461185190600080516020614aab833981519152906001600160a01b031661278f565b5060ca80546001600160a01b0319169055565b6001600160a01b038516331480611880575061188085336106c4565b61189c5760405162461bcd60e51b81526004016107b890614349565b610f968585858585611efc565b60c9546001600160a01b03908116908216036119075760405162461bcd60e51b815260206004820181905260248201527f4772616e756c6172526f6c65733a20616c726561647920746865206f776e657260448201526064016107b8565b60c9546001600160a01b031633146119615760405162461bcd60e51b815260206004820152601c60248201527f4772616e756c6172526f6c65733a206e6f7420746865206f776e65720000000060448201526064016107b8565b60c95461198690600080516020614aab833981519152906001600160a01b031661278f565b60c980546001600160a01b038381166001600160a01b03198316811790935516906119c090600080516020614aab83398151915290612709565b816001600160a01b0316816001600160a01b03167f8be0079c531659141344cd1fd0a4f28419497f9722a3daafe3b4186f6b6457e060405160405180910390a35050565b600080516020614a8b833981519152611a1c81611dbe565b60005b8451811015611d5757611a59858281518110611a3d57611a3d614398565b6020026020010151600090815260d46020526040902054151590565b15611aa65760405162461bcd60e51b815260206004820152601f60248201527f4f6e65206f6620746f6b656e7320697320616c7265616479206d696e7465640060448201526064016107b8565b858181518110611ab857611ab8614398565b60200260200101516001600160a01b0316868281518110611adb57611adb614398565b60200260200101516001600160a01b031614611b395760405162461bcd60e51b815260206004820181905260248201527f4e46543a206f6e65206f662061646472657373657320697320696e76616c696460448201526064016107b8565b6000848281518110611b4d57611b4d614398565b602002602001015111611ba25760405162461bcd60e51b815260206004820152601c60248201527f4e46543a20616c6c20616d6f756e7473206d757374206265203e20300000000060448201526064016107b8565b838181518110611bb457611bb4614398565b602002602001015160d46000878481518110611bd257611bd2614398565b602002602001015181526020019081526020016000206000828254611bf791906141ac565b925050819055506000838281518110611c1257611c12614398565b6020026020010151511115611cdf57828181518110611c3357611c33614398565b602002602001015160d56000878481518110611c5157611c51614398565b602002602001015181526020019081526020016000209081611c7391906140d7565b50848181518110611c8657611c86614398565b60200260200101517f6bb7ff708619ba0610cba295a58592e0451dee2622938c8755667688daf3529b848381518110611cc157611cc1614398565b6020026020010151604051611cd69190613669565b60405180910390a25b611d45868281518110611cf457611cf4614398565b6020026020010151868381518110611d0e57611d0e614398565b6020026020010151868481518110611d2857611d28614398565b602002602001015160405180602001604052806000815250611de6565b80611d4f816143ae565b915050611a1f565b505050505050565b6001600160a01b03163b151590565b60006001600160e01b03198216636cdb3d1360e11b1480611d9f57506001600160e01b031982166303a24d0760e21b145b8061080f57506301ffc9a760e01b6001600160e01b031983161461080f565b611dc88133612f76565b50565b606761083682826140d7565b60606067805461095a90613fcf565b6001600160a01b038416611e465760405162461bcd60e51b815260206004820152602160248201527f455243313135353a206d696e7420746f20746865207a65726f206164647265736044820152607360f81b60648201526084016107b8565b336000611e5285612fda565b90506000611e5f85612fda565b905060008681526065602090815260408083206001600160a01b038b16845290915281208054879290611e939084906141ac565b909155505060408051878152602081018790526001600160a01b03808a1692600092918716917fc3d58168c5ae7397731d063d5bbf3d657854427343f4c083240f7aacaa2d0f62910160405180910390a4611ef383600089898989613025565b50505050505050565b6001600160a01b038416611f225760405162461bcd60e51b81526004016107b890614551565b336000611f2e85612fda565b90506000611f3b85612fda565b905060008681526065602090815260408083206001600160a01b038c16845290915290205485811015611f805760405162461bcd60e51b81526004016107b890614596565b60008781526065602090815260408083206001600160a01b038d8116855292528083208985039055908a16825281208054889290611fbf9084906141ac565b909155505060408051888152602081018890526001600160a01b03808b16928c821692918816917fc3d58168c5ae7397731d063d5bbf3d657854427343f4c083240f7aacaa2d0f62910160405180910390a461201f848a8a8a8a8a613025565b505050505050505050565b600054610100900460ff166120515760405162461bcd60e51b81526004016107b8906145e0565b611dc881613180565b60c980546001600160a01b0384166001600160a01b0319918216811790925560ca80549091163317905561209d90600080516020614aab83398151915290612709565b60ca546120c290600080516020614aab833981519152906001600160a01b0316612709565b60005b8151811015610fc25760008282815181106120e2576120e2614398565b60200260200101516000015190506120f9816131b0565b612104826020613237565b604051602001612114919061462b565b604051602081830303815290604052906121415760405162461bcd60e51b81526004016107b89190613669565b5060005b83838151811061215757612157614398565b60200260200101516020015151811015612237576121ab8285858151811061218157612181614398565b602002602001015160200151838151811061219e5761219e614398565b6020026020010151612709565b600082815260cb6020526040902084518590859081106121cd576121cd614398565b60200260200101516020015182815181106121ea576121ea614398565b60209081029190910181015182546001810184556000938452919092200180546001600160a01b0319166001600160a01b039092169190911790558061222f816143ae565b915050612145565b5082828151811061224a5761224a614398565b6020026020010151604001511561227557600081815260cc60205260409020805460ff191660011790555b5080612280816143ae565b9150506120c5565b805115611dc8576122a7600080516020614aab83398151915233611368565b6122f35760405162461bcd60e51b815260206004820152601b60248201527f4772616e756c6172526f6c65733a206e6f7420616e2061646d696e000000000060448201526064016107b8565b60005b815181101561083657600082828151811061231357612313614398565b602002602001015160000151905061232a816131b0565b612335826020613237565b604051602001612345919061462b565b604051602081830303815290604052906123725760405162461bcd60e51b81526004016107b89190613669565b50600081815260cc602090815260409091205460ff161590612395908390613237565b6040516020016123a59190614670565b604051602081830303815290604052906123d25760405162461bcd60e51b81526004016107b89190613669565b5060005b600082815260cb602052604090205481101561243e57600082815260cb60205260409020805461242c9184918490811061241257612412614398565b6000918252602090912001546001600160a01b031661278f565b80612436816143ae565b9150506123d6565b50600081815260cb602052604081206124569161343e565b60005b83838151811061246b5761246b614398565b60200260200101516020015151811015612521576124958285858151811061218157612181614398565b600082815260cb6020526040902084518590859081106124b7576124b7614398565b60200260200101516020015182815181106124d4576124d4614398565b60209081029190910181015182546001810184556000938452919092200180546001600160a01b0319166001600160a01b0390921691909117905580612519816143ae565b915050612459565b5082828151811061253457612534614398565b6020026020010151604001511561255f57600081815260cc60205260409020805460ff191660011790555b508061256a816143ae565b9150506122f6565b81518351146125935760405162461bcd60e51b81526004016107b8906146c0565b6001600160a01b0384166125b95760405162461bcd60e51b81526004016107b890614551565b3360005b84518110156126a35760008582815181106125da576125da614398565b6020026020010151905060008583815181106125f8576125f8614398565b60209081029190910181015160008481526065835260408082206001600160a01b038e1683529093529190912054909150818110156126495760405162461bcd60e51b81526004016107b890614596565b60008381526065602090815260408083206001600160a01b038e8116855292528083208585039055908b168252812080548492906126889084906141ac565b925050819055505050508061269c906143ae565b90506125bd565b50846001600160a01b0316866001600160a01b0316826001600160a01b03167f4a39dc06d4c0dbc64b70af90fd698a233a518aa5d07e595d983b8c0526c8f7fb87876040516126f3929190614708565b60405180910390a4611d57818787878787613383565b6127138282611368565b6108365760008281526097602090815260408083206001600160a01b03851684529091529020805460ff1916600117905561274b3390565b6001600160a01b0316816001600160a01b0316837f2f8788117e7eff1d82e926ec794901d17c78024a50270940304540a733656f0d60405160405180910390a45050565b6127998282611368565b156108365760008281526097602090815260408083206001600160a01b0385168085529252808320805460ff1916905551339285917ff6391f5c32d9c69d2a47ea670b442974b53935d1edc7fd64eb21e047a839171b9190a45050565b6001600160a01b03831661281c5760405162461bcd60e51b81526004016107b890614736565b805182511461283d5760405162461bcd60e51b81526004016107b8906146c0565b604080516020810190915260009081905233905b835181101561291657600084828151811061286e5761286e614398565b60200260200101519050600084838151811061288c5761288c614398565b60209081029190910181015160008481526065835260408082206001600160a01b038c1683529093529190912054909150818110156128dd5760405162461bcd60e51b81526004016107b890614779565b60009283526065602090815260408085206001600160a01b038b168652909152909220910390558061290e816143ae565b915050612851565b5060006001600160a01b0316846001600160a01b0316826001600160a01b03167f4a39dc06d4c0dbc64b70af90fd698a233a518aa5d07e595d983b8c0526c8f7fb8686604051612967929190614708565b60405180910390a4604080516020810190915260009052610b93565b816001600160a01b0316836001600160a01b0316036129f65760405162461bcd60e51b815260206004820152602960248201527f455243313135353a2073657474696e6720617070726f76616c20737461747573604482015268103337b91039b2b63360b91b60648201526084016107b8565b6001600160a01b03838116600081815260666020908152604080832094871680845294825291829020805460ff191686151590811790915591519182527f17307eab39ab6107e8899845ad3d59bd9653f200f220920489ca2b5937696c31910160405180910390a3505050565b6001600160a01b038316612a895760405162461bcd60e51b81526004016107b890614736565b336000612a9584612fda565b90506000612aa284612fda565b6040805160208082018352600091829052888252606581528282206001600160a01b038b1683529052205490915084811015612af05760405162461bcd60e51b81526004016107b890614779565b60008681526065602090815260408083206001600160a01b038b81168086529184528285208a8703905582518b81529384018a90529092908816917fc3d58168c5ae7397731d063d5bbf3d657854427343f4c083240f7aacaa2d0f62910160405180910390a4604080516020810190915260009052611ef3565b606081600003612b915750506040805180820190915260018152600360fc1b602082015290565b8160005b8115612bbb5780612ba5816143ae565b9150612bb49050600a836141f9565b9150612b95565b6000816001600160401b03811115612bd557612bd56134e4565b6040519080825280601f01601f191660200182016040528015612bff576020820181803683370190505b5090505b8415612c6a57612c146001836143c7565b9150612c21600a866147bd565b612c2c9060306141ac565b60f81b818381518110612c4157612c41614398565b60200101906001600160f81b031916908160001a905350612c63600a866141f9565b9450612c03565b949350505050565b60606000612c818360026141c4565b612c8c9060026141ac565b6001600160401b03811115612ca357612ca36134e4565b6040519080825280601f01601f191660200182016040528015612ccd576020820181803683370190505b509050600360fc1b81600081518110612ce857612ce8614398565b60200101906001600160f81b031916908160001a905350600f60fb1b81600181518110612d1757612d17614398565b60200101906001600160f81b031916908160001a9053506000612d3b8460026141c4565b612d469060016141ac565b90505b6001811115612dbe576f181899199a1a9b1b9c1cb0b131b232b360811b85600f1660108110612d7a57612d7a614398565b1a60f81b828281518110612d9057612d90614398565b60200101906001600160f81b031916908160001a90535060049490941c93612db7816147d1565b9050612d49565b5083156113d05760405162461bcd60e51b815260206004820181905260248201527f537472696e67733a20686578206c656e67746820696e73756666696369656e7460448201526064016107b8565b80516060906000819003612e31575050604080516020810190915260008152919050565b60006003612e408360026141ac565b612e4a91906141f9565b612e559060046141c4565b90506000612e648260206141ac565b6001600160401b03811115612e7b57612e7b6134e4565b6040519080825280601f01601f191660200182016040528015612ea5576020820181803683370190505b5090506000604051806060016040528060408152602001614a4b604091399050600181016020830160005b86811015612f31576003818a01810151603f601282901c8116860151600c83901c8216870151600684901c831688015192909316870151600891821b60ff94851601821b92841692909201901b91160160e01b835260049092019101612ed0565b506003860660018114612f4b5760028114612f5c57612f68565b613d3d60f01b600119830152612f68565b603d60f81b6000198301525b505050918152949350505050565b612f808282611368565b61083657612f98816001600160a01b03166014613237565b612fa3836020613237565b604051602001612fb49291906147e8565b60408051601f198184030181529082905262461bcd60e51b82526107b891600401613669565b6040805160018082528183019092526060916000919060208083019080368337019050509050828160008151811061301457613014614398565b602090810291909101015292915050565b6001600160a01b0384163b15611d575760405163f23a6e6160e01b81526001600160a01b0385169063f23a6e6190613069908990899088908890889060040161485d565b6020604051808303816000875af19250505080156130a4575060408051601f3d908101601f191682019092526130a1918101906148a2565b60015b613150576130b06148bf565b806308c379a0036130e957506130c46148db565b806130cf57506130eb565b8060405162461bcd60e51b81526004016107b89190613669565b505b60405162461bcd60e51b815260206004820152603460248201527f455243313135353a207472616e7366657220746f206e6f6e20455243313135356044820152732932b1b2b4bb32b91034b6b83632b6b2b73a32b960611b60648201526084016107b8565b6001600160e01b0319811663f23a6e6160e01b14611ef35760405162461bcd60e51b81526004016107b890614964565b600054610100900460ff166131a75760405162461bcd60e51b81526004016107b8906145e0565b611dc881611dcb565b6000600080516020614a8b8339815191528214806131db5750600080516020614a2b83398151915282145b8061320557507f852fd44a27d33057a8c3d90859d4e4c9f54309d4d66d1d968e063befba9198e682145b8061321d5750600080516020614acb83398151915282145b8061080f575050600080516020614a0b8339815191521490565b606060006132468360026141c4565b6132519060026141ac565b6001600160401b03811115613268576132686134e4565b6040519080825280601f01601f191660200182016040528015613292576020820181803683370190505b509050600360fc1b816000815181106132ad576132ad614398565b60200101906001600160f81b031916908160001a905350600f60fb1b816001815181106132dc576132dc614398565b60200101906001600160f81b031916908160001a90535060006133008460026141c4565b61330b9060016141ac565b90505b6001811115612dbe576f181899199a1a9b1b9c1cb0b131b232b360811b85600f166010811061333f5761333f614398565b1a60f81b82828151811061335557613355614398565b60200101906001600160f81b031916908160001a90535060049490941c9361337c816147d1565b905061330e565b6001600160a01b0384163b15611d575760405163bc197c8160e01b81526001600160a01b0385169063bc197c81906133c790899089908890889088906004016149ac565b6020604051808303816000875af1925050508015613402575060408051601f3d908101601f191682019092526133ff918101906148a2565b60015b61340e576130b06148bf565b6001600160e01b0319811663bc197c8160e01b14611ef35760405162461bcd60e51b81526004016107b890614964565b5080546000825590600052602060002090810190611dc891905b8082111561346c5760008155600101613458565b5090565b80356001600160a01b03811681146109e857600080fd5b6000806040838503121561349a57600080fd5b6134a383613470565b946020939093013593505050565b6001600160e01b031981168114611dc857600080fd5b6000602082840312156134d957600080fd5b81356113d0816134b1565b634e487b7160e01b600052604160045260246000fd5b606081018181106001600160401b0382111715613519576135196134e4565b60405250565b608081018181106001600160401b0382111715613519576135196134e4565b601f8201601f191681016001600160401b0381118282101715613563576135636134e4565b6040525050565b600082601f83011261357b57600080fd5b81356001600160401b03811115613594576135946134e4565b6040516135ab601f8301601f19166020018261353e565b8181528460208386010111156135c057600080fd5b816020850160208301376000918101602001919091529392505050565b6000602082840312156135ef57600080fd5b81356001600160401b0381111561360557600080fd5b612c6a8482850161356a565b60005b8381101561362c578181015183820152602001613614565b83811115610b935750506000910152565b60008151808452613655816020860160208601613611565b601f01601f19169290920160200192915050565b6020815260006113d0602083018461363d565b60006020828403121561368e57600080fd5b5035919050565b600080600080608085870312156136ab57600080fd5b6136b485613470565b9350602085013592506040850135915060608501356001600160401b038111156136dd57600080fd5b6136e98782880161356a565b91505092959194509250565b60008060006060848603121561370a57600080fd5b61371384613470565b95602085013595506040909401359392505050565b803580151581146109e857600080fd5b600060a0828403121561374a57600080fd5b60405160a081016001600160401b03828210818311171561376d5761376d6134e4565b81604052829350843591508082111561378557600080fd5b506137928582860161356a565b8252506137a160208401613728565b60208201526137b260408401613728565b6040820152606083013560608201526137cd60808401613470565b60808201525092915050565b60006001600160401b038211156137f2576137f26134e4565b5060051b60200190565b600082601f83011261380d57600080fd5b8135602061381a826137d9565b604051613827828261353e565b83815260059390931b850182019282810191508684111561384757600080fd5b8286015b848110156138695761385c81613470565b835291830191830161384b565b509695505050505050565b600082601f83011261388557600080fd5b81356020613892826137d9565b604080516138a0838261353e565b84815260059490941b86018301938381019250878511156138c057600080fd5b8387015b858110156139535780356001600160401b03808211156138e45760008081fd5b908901906060828c03601f19018113156138fe5760008081fd5b8551613909816134fa565b88840135815286840135838111156139215760008081fd5b61392f8e8b838801016137fc565b8a8301525061393f828501613728565b8188015287525050509284019284016138c4565b50979650505050505050565b60008060006060848603121561397457600080fd5b83356001600160401b038082111561398b57600080fd5b908501906080828803121561399f57600080fd5b6040516139ab8161351f565b8235828111156139ba57600080fd5b6139c68982860161356a565b8252506020830135828111156139db57600080fd5b6139e78982860161356a565b6020830152506139f960408401613470565b6040820152613a0a60608401613728565b606082015294506020860135915080821115613a2557600080fd5b613a3187838801613738565b93506040860135915080821115613a4757600080fd5b50613a5486828701613874565b9150509250925092565b60008060408385031215613a7157600080fd5b50508035926020909101359150565b600080600060608486031215613a9557600080fd5b83356001600160401b0380821115613aac57600080fd5b9085019060a08288031215613ac057600080fd5b90935060208501359080821115613ad657600080fd5b50613ae386828701613874565b925050613af260408501613728565b90509250925092565b600082601f830112613b0c57600080fd5b81356020613b19826137d9565b604051613b26828261353e565b83815260059390931b8501820192828101915086841115613b4657600080fd5b8286015b848110156138695780358352918301918301613b4a565b600080600080600060a08688031215613b7957600080fd5b613b8286613470565b9450613b9060208701613470565b935060408601356001600160401b0380821115613bac57600080fd5b613bb889838a01613afb565b94506060880135915080821115613bce57600080fd5b613bda89838a01613afb565b93506080880135915080821115613bf057600080fd5b50613bfd8882890161356a565b9150509295509295909350565b60008060408385031215613c1d57600080fd5b82359150613c2d60208401613470565b90509250929050565b60008060408385031215613c4957600080fd5b82356001600160401b0380821115613c6057600080fd5b613c6c868387016137fc565b93506020850135915080821115613c8257600080fd5b50613c8f85828601613afb565b9150509250929050565b600081518084526020808501945080840160005b83811015613cc957815187529582019590820190600101613cad565b509495945050505050565b6020815260006113d06020830184613c99565b600080600060608486031215613cfc57600080fd5b83356001600160401b0380821115613d1357600080fd5b613d1f878388016137fc565b94506020860135915080821115613d3557600080fd5b613d4187838801613afb565b93506040860135915080821115613d5757600080fd5b50613a5486828701613afb565b60008060408385031215613d7757600080fd5b82356001600160401b0380821115613d8e57600080fd5b613c6c86838701613afb565b60008060408385031215613dad57600080fd5b613db683613470565b9150613c2d60208401613728565b600080600060608486031215613dd957600080fd5b8335925060208401356001600160401b03811115613df657600080fd5b613ae38682870161356a565b60008060408385031215613e1557600080fd5b613e1e83613470565b9150613c2d60208401613470565b600080600080600060a08688031215613e4457600080fd5b613e4d86613470565b9450613e5b60208701613470565b9350604086013592506060860135915060808601356001600160401b03811115613e8457600080fd5b613bfd8882890161356a565b600060208284031215613ea257600080fd5b6113d082613470565b60008060008060808587031215613ec157600080fd5b84356001600160401b0380821115613ed857600080fd5b613ee4888389016137fc565b9550602091508187013581811115613efb57600080fd5b613f0789828a01613afb565b955050604087013581811115613f1c57600080fd5b613f2889828a01613afb565b945050606087013581811115613f3d57600080fd5b8701601f81018913613f4e57600080fd5b8035613f59816137d9565b604051613f66828261353e565b82815260059290921b830185019185810191508b831115613f8657600080fd5b8584015b83811015613fbe57803586811115613fa25760008081fd5b613fb08e898389010161356a565b845250918601918601613f8a565b50989b979a50959850505050505050565b600181811c90821680613fe357607f821691505b60208210810361400357634e487b7160e01b600052602260045260246000fd5b50919050565b6000815461401681613fcf565b6001828116801561402e576001811461404357614072565b60ff1984168752821515830287019450614072565b8560005260208060002060005b858110156140695781548a820152908401908201614050565b50505082870194505b5050505092915050565b6000612c6a61408b8386614009565b84614009565b601f821115610fc257600081815260208120601f850160051c810160208610156140b85750805b601f850160051c820191505b81811015611d57578281556001016140c4565b81516001600160401b038111156140f0576140f06134e4565b614104816140fe8454613fcf565b84614091565b602080601f83116001811461413957600084156141215750858301515b600019600386901b1c1916600185901b178555611d57565b600085815260208120601f198616915b8281101561416857888601518255948401946001909101908401614149565b50858210156141865787850151600019600388901b60f8161c191681555b5050505050600190811b01905550565b634e487b7160e01b600052601160045260246000fd5b600082198211156141bf576141bf614196565b500190565b60008160001904831182151516156141de576141de614196565b500290565b634e487b7160e01b600052601260045260246000fd5b600082614208576142086141e3565b500490565b60006113d08284614009565b6000808335601e1984360301811261423057600080fd5b8301803591506001600160401b0382111561424a57600080fd5b602001915036819003821315610da957600080fd5b8183823760009101908152919050565b6001600160401b03831115614286576142866134e4565b61429a836142948354613fcf565b83614091565b6000601f8411600181146142ce57600085156142b65750838201355b600019600387901b1c1916600186901b178355610f96565b600083815260209020601f19861690835b828110156142ff57868501358255602094850194600190920191016142df565b508682101561431c5760001960f88860031b161c19848701351681555b505060018560011b0183555050505050565b60006020828403121561434057600080fd5b6113d082613728565b6020808252602f908201527f455243313135353a2063616c6c6572206973206e6f7420746f6b656e206f776e60408201526e195c881b9bdc88185c1c1c9bdd9959608a1b606082015260800190565b634e487b7160e01b600052603260045260246000fd5b6000600182016143c0576143c0614196565b5060010190565b6000828210156143d9576143d9614196565b500390565b600082516143f0818460208701613611565b9190910192915050565b600060208083526000845461440e81613fcf565b8084870152604060018084166000811461442f576001811461444957614477565b60ff1985168984015283151560051b890183019550614477565b896000528660002060005b8581101561446f5781548b8201860152908301908801614454565b8a0184019650505b509398975050505050505050565b7f7b2273656c6c65725f6665655f62617369735f706f696e7473223a20000000008152600083516144bd81601c850160208801613611565b731610113332b2afb932b1b4b834b2b73a111d101160611b601c9184019182015283516144f1816030840160208801613611565b61227d60f01b60309290910191820152603201949350505050565b7f646174613a6170706c69636174696f6e2f6a736f6e3b6261736536342c00000081526000825161454481601d850160208701613611565b91909101601d0192915050565b60208082526025908201527f455243313135353a207472616e7366657220746f20746865207a65726f206164604082015264647265737360d81b606082015260800190565b6020808252602a908201527f455243313135353a20696e73756666696369656e742062616c616e636520666f60408201526939103a3930b739b332b960b11b606082015260800190565b6020808252602b908201527f496e697469616c697a61626c653a20636f6e7472616374206973206e6f74206960408201526a6e697469616c697a696e6760a81b606082015260800190565b7f4772616e756c6172526f6c65733a20696e76616c696420726f6c65200000000081526000825161466381601c850160208701613611565b91909101601c0192915050565b73023b930b73ab630b92937b632b99d103937b632960651b81526000825161469f816014850160208701613611565b691034b990333937bd32b760b11b6014939091019283015250601e01919050565b60208082526028908201527f455243313135353a2069647320616e6420616d6f756e7473206c656e677468206040820152670dad2e6dac2e8c6d60c31b606082015260800190565b60408152600061471b6040830185613c99565b828103602084015261472d8185613c99565b95945050505050565b60208082526023908201527f455243313135353a206275726e2066726f6d20746865207a65726f206164647260408201526265737360e81b606082015260800190565b60208082526024908201527f455243313135353a206275726e20616d6f756e7420657863656564732062616c604082015263616e636560e01b606082015260800190565b6000826147cc576147cc6141e3565b500690565b6000816147e0576147e0614196565b506000190190565b7f416363657373436f6e74726f6c3a206163636f756e7420000000000000000000815260008351614820816017850160208801613611565b7001034b99036b4b9b9b4b733903937b6329607d1b6017918401918201528351614851816028840160208801613611565b01602801949350505050565b6001600160a01b03868116825285166020820152604081018490526060810183905260a0608082018190526000906148979083018461363d565b979650505050505050565b6000602082840312156148b457600080fd5b81516113d0816134b1565b600060033d11156148d85760046000803e5060005160e01c5b90565b600060443d10156148e95790565b6040516003193d81016004833e81513d6001600160401b03816024840111818411171561491857505050505090565b82850191508151818111156149305750505050505090565b843d870101602082850101111561494a5750505050505090565b6149596020828601018761353e565b509095945050505050565b60208082526028908201527f455243313135353a204552433131353552656365697665722072656a656374656040820152676420746f6b656e7360c01b606082015260800190565b6001600160a01b0386811682528516602082015260a0604082018190526000906149d890830186613c99565b82810360608401526149ea8186613c99565b905082810360808401526149fe818561363d565b9897505050505050505056fe8502233096d909befbda0999bb8ea2f3a6be3c138b9fbf003752a4c8bce86f6c9b16859c0d694afa65b1b6551542db11ea12d6208b6a17dc922f10f2d74440f54142434445464748494a4b4c4d4e4f505152535455565758595a6162636465666768696a6b6c6d6e6f707172737475767778797a303132333435363738392b2f154c00819833dac601ee5ddded6fda79d9d8b506b911b3dbd54cdb95fe6c3686a49807205ce4d355092ef5a8a18f56e8913cf4a201fbe287825b095693c21775e97b137254058bd94f28d2f3eb79e2d34074ffb488d042e3bc958e0a57d2fa22a264697066735822122054e50672dae1ec02e8d5f5b9d8750d8354b7e8e9b9f06075c67c3454dbfee3c364736f6c634300080f0033",
  "devdoc": {
    "kind": "dev",
    "methods": {
      "balanceOf(address,uint256)": {
        "details": "See {IERC1155-balanceOf}. Requirements: - `account` cannot be the zero address."
      },
      "balanceOfBatch(address[],uint256[])": {
        "details": "See {IERC1155-balanceOfBatch}. Requirements: - `accounts` and `ids` must have the same length."
      },
      "getRoleAdmin(bytes32)": {
        "details": "Returns the admin role that controls `role`. See {grantRole} and {revokeRole}. To change a role's admin, use {_setRoleAdmin}."
      },
      "grantRole(bytes32,address)": {
        "details": "Grants `role` to `account`. If `account` had not been already granted `role`, emits a {RoleGranted} event. Requirements: - the caller must have ``role``'s admin role. May emit a {RoleGranted} event."
      },
      "hasRole(bytes32,address)": {
        "details": "Returns `true` if `account` has been granted `role`."
      },
      "isApprovedForAll(address,address)": {
        "details": "See {IERC1155-isApprovedForAll}."
      },
      "renounceRole(bytes32,address)": {
        "details": "Revokes `role` from the calling account. Roles are often managed via {grantRole} and {revokeRole}: this function's purpose is to provide a mechanism for accounts to lose their privileges if they are compromised (such as when a trusted device is misplaced). If the calling account had been revoked `role`, emits a {RoleRevoked} event. Requirements: - the caller must be `account`. May emit a {RoleRevoked} event."
      },
      "revokeRole(bytes32,address)": {
        "details": "Revokes `role` from `account`. If `account` had been granted `role`, emits a {RoleRevoked} event. Requirements: - the caller must have ``role``'s admin role. May emit a {RoleRevoked} event."
      },
      "safeBatchTransferFrom(address,address,uint256[],uint256[],bytes)": {
        "details": "See {IERC1155-safeBatchTransferFrom}."
      },
      "safeTransferFrom(address,address,uint256,uint256,bytes)": {
        "details": "See {IERC1155-safeTransferFrom}."
      },
      "setApprovalForAll(address,bool)": {
        "details": "See {IERC1155-setApprovalForAll}."
      }
    },
    "version": 1
  },
  "userdoc": {
    "kind": "user",
    "methods": {},
    "version": 1
  },
  "storageLayout": {
    "storage": [
      {
        "astId": 419,
        "contract": "contracts/templates/ERC1155NFTProduct.sol:ERC1155NFTProduct",
        "label": "_initialized",
        "offset": 0,
        "slot": "0",
        "type": "t_uint8"
      },
      {
        "astId": 422,
        "contract": "contracts/templates/ERC1155NFTProduct.sol:ERC1155NFTProduct",
        "label": "_initializing",
        "offset": 1,
        "slot": "0",
        "type": "t_bool"
      },
      {
        "astId": 3468,
        "contract": "contracts/templates/ERC1155NFTProduct.sol:ERC1155NFTProduct",
        "label": "__gap",
        "offset": 0,
        "slot": "1",
        "type": "t_array(t_uint256)50_storage"
      },
      {
        "astId": 3738,
        "contract": "contracts/templates/ERC1155NFTProduct.sol:ERC1155NFTProduct",
        "label": "__gap",
        "offset": 0,
        "slot": "51",
        "type": "t_array(t_uint256)50_storage"
      },
      {
        "astId": 592,
        "contract": "contracts/templates/ERC1155NFTProduct.sol:ERC1155NFTProduct",
        "label": "_balances",
        "offset": 0,
        "slot": "101",
        "type": "t_mapping(t_uint256,t_mapping(t_address,t_uint256))"
      },
      {
        "astId": 598,
        "contract": "contracts/templates/ERC1155NFTProduct.sol:ERC1155NFTProduct",
        "label": "_operatorApprovals",
        "offset": 0,
        "slot": "102",
        "type": "t_mapping(t_address,t_mapping(t_address,t_bool))"
      },
      {
        "astId": 600,
        "contract": "contracts/templates/ERC1155NFTProduct.sol:ERC1155NFTProduct",
        "label": "_uri",
        "offset": 0,
        "slot": "103",
        "type": "t_string_storage"
      },
      {
        "astId": 1807,
        "contract": "contracts/templates/ERC1155NFTProduct.sol:ERC1155NFTProduct",
        "label": "__gap",
        "offset": 0,
        "slot": "104",
        "type": "t_array(t_uint256)47_storage"
      },
      {
        "astId": 39,
        "contract": "contracts/templates/ERC1155NFTProduct.sol:ERC1155NFTProduct",
        "label": "_roles",
        "offset": 0,
        "slot": "151",
        "type": "t_mapping(t_bytes32,t_struct(RoleData)34_storage)"
      },
      {
        "astId": 338,
        "contract": "contracts/templates/ERC1155NFTProduct.sol:ERC1155NFTProduct",
        "label": "__gap",
        "offset": 0,
        "slot": "152",
        "type": "t_array(t_uint256)49_storage"
      },
      {
        "astId": 7237,
        "contract": "contracts/templates/ERC1155NFTProduct.sol:ERC1155NFTProduct",
        "label": "_owner",
        "offset": 0,
        "slot": "201",
        "type": "t_address"
      },
      {
        "astId": 7239,
        "contract": "contracts/templates/ERC1155NFTProduct.sol:ERC1155NFTProduct",
        "label": "_nftPort",
        "offset": 0,
        "slot": "202",
        "type": "t_address"
      },
      {
        "astId": 7244,
        "contract": "contracts/templates/ERC1155NFTProduct.sol:ERC1155NFTProduct",
        "label": "_rolesAddressesIndexed",
        "offset": 0,
        "slot": "203",
        "type": "t_mapping(t_bytes32,t_array(t_address)dyn_storage)"
      },
      {
        "astId": 7248,
        "contract": "contracts/templates/ERC1155NFTProduct.sol:ERC1155NFTProduct",
        "label": "_rolesFrozen",
        "offset": 0,
        "slot": "204",
        "type": "t_mapping(t_bytes32,t_bool)"
      },
      {
        "astId": 7717,
        "contract": "contracts/templates/ERC1155NFTProduct.sol:ERC1155NFTProduct",
        "label": "metadataUpdatable",
        "offset": 0,
        "slot": "205",
        "type": "t_bool"
      },
      {
        "astId": 7719,
        "contract": "contracts/templates/ERC1155NFTProduct.sol:ERC1155NFTProduct",
        "label": "tokensBurnable",
        "offset": 1,
        "slot": "205",
        "type": "t_bool"
      },
      {
        "astId": 7721,
        "contract": "contracts/templates/ERC1155NFTProduct.sol:ERC1155NFTProduct",
        "label": "tokensTransferable",
        "offset": 2,
        "slot": "205",
        "type": "t_bool"
      },
      {
        "astId": 7723,
        "contract": "contracts/templates/ERC1155NFTProduct.sol:ERC1155NFTProduct",
        "label": "name",
        "offset": 0,
        "slot": "206",
        "type": "t_string_storage"
      },
      {
        "astId": 7725,
        "contract": "contracts/templates/ERC1155NFTProduct.sol:ERC1155NFTProduct",
        "label": "symbol",
        "offset": 0,
        "slot": "207",
        "type": "t_string_storage"
      },
      {
        "astId": 7727,
        "contract": "contracts/templates/ERC1155NFTProduct.sol:ERC1155NFTProduct",
        "label": "baseURI",
        "offset": 0,
        "slot": "208",
        "type": "t_string_storage"
      },
      {
        "astId": 7729,
        "contract": "contracts/templates/ERC1155NFTProduct.sol:ERC1155NFTProduct",
        "label": "royaltiesAddress",
        "offset": 0,
        "slot": "209",
        "type": "t_address"
      },
      {
        "astId": 7731,
        "contract": "contracts/templates/ERC1155NFTProduct.sol:ERC1155NFTProduct",
        "label": "royaltiesBasisPoints",
        "offset": 0,
        "slot": "210",
        "type": "t_uint256"
      },
      {
        "astId": 7735,
        "contract": "contracts/templates/ERC1155NFTProduct.sol:ERC1155NFTProduct",
        "label": "freezeTokenUris",
        "offset": 0,
        "slot": "211",
        "type": "t_mapping(t_uint256,t_bool)"
      },
      {
        "astId": 7739,
        "contract": "contracts/templates/ERC1155NFTProduct.sol:ERC1155NFTProduct",
        "label": "tokenSupply",
        "offset": 0,
        "slot": "212",
        "type": "t_mapping(t_uint256,t_uint256)"
      },
      {
        "astId": 8502,
        "contract": "contracts/templates/ERC1155NFTProduct.sol:ERC1155NFTProduct",
        "label": "_tokenURIs",
        "offset": 0,
        "slot": "213",
        "type": "t_mapping(t_uint256,t_string_storage)"
      }
    ],
    "types": {
      "t_address": {
        "encoding": "inplace",
        "label": "address",
        "numberOfBytes": "20"
      },
      "t_array(t_address)dyn_storage": {
        "base": "t_address",
        "encoding": "dynamic_array",
        "label": "address[]",
        "numberOfBytes": "32"
      },
      "t_array(t_uint256)47_storage": {
        "base": "t_uint256",
        "encoding": "inplace",
        "label": "uint256[47]",
        "numberOfBytes": "1504"
      },
      "t_array(t_uint256)49_storage": {
        "base": "t_uint256",
        "encoding": "inplace",
        "label": "uint256[49]",
        "numberOfBytes": "1568"
      },
      "t_array(t_uint256)50_storage": {
        "base": "t_uint256",
        "encoding": "inplace",
        "label": "uint256[50]",
        "numberOfBytes": "1600"
      },
      "t_bool": {
        "encoding": "inplace",
        "label": "bool",
        "numberOfBytes": "1"
      },
      "t_bytes32": {
        "encoding": "inplace",
        "label": "bytes32",
        "numberOfBytes": "32"
      },
      "t_mapping(t_address,t_bool)": {
        "encoding": "mapping",
        "key": "t_address",
        "label": "mapping(address => bool)",
        "numberOfBytes": "32",
        "value": "t_bool"
      },
      "t_mapping(t_address,t_mapping(t_address,t_bool))": {
        "encoding": "mapping",
        "key": "t_address",
        "label": "mapping(address => mapping(address => bool))",
        "numberOfBytes": "32",
        "value": "t_mapping(t_address,t_bool)"
      },
      "t_mapping(t_address,t_uint256)": {
        "encoding": "mapping",
        "key": "t_address",
        "label": "mapping(address => uint256)",
        "numberOfBytes": "32",
        "value": "t_uint256"
      },
      "t_mapping(t_bytes32,t_array(t_address)dyn_storage)": {
        "encoding": "mapping",
        "key": "t_bytes32",
        "label": "mapping(bytes32 => address[])",
        "numberOfBytes": "32",
        "value": "t_array(t_address)dyn_storage"
      },
      "t_mapping(t_bytes32,t_bool)": {
        "encoding": "mapping",
        "key": "t_bytes32",
        "label": "mapping(bytes32 => bool)",
        "numberOfBytes": "32",
        "value": "t_bool"
      },
      "t_mapping(t_bytes32,t_struct(RoleData)34_storage)": {
        "encoding": "mapping",
        "key": "t_bytes32",
        "label": "mapping(bytes32 => struct AccessControlUpgradeable.RoleData)",
        "numberOfBytes": "32",
        "value": "t_struct(RoleData)34_storage"
      },
      "t_mapping(t_uint256,t_bool)": {
        "encoding": "mapping",
        "key": "t_uint256",
        "label": "mapping(uint256 => bool)",
        "numberOfBytes": "32",
        "value": "t_bool"
      },
      "t_mapping(t_uint256,t_mapping(t_address,t_uint256))": {
        "encoding": "mapping",
        "key": "t_uint256",
        "label": "mapping(uint256 => mapping(address => uint256))",
        "numberOfBytes": "32",
        "value": "t_mapping(t_address,t_uint256)"
      },
      "t_mapping(t_uint256,t_string_storage)": {
        "encoding": "mapping",
        "key": "t_uint256",
        "label": "mapping(uint256 => string)",
        "numberOfBytes": "32",
        "value": "t_string_storage"
      },
      "t_mapping(t_uint256,t_uint256)": {
        "encoding": "mapping",
        "key": "t_uint256",
        "label": "mapping(uint256 => uint256)",
        "numberOfBytes": "32",
        "value": "t_uint256"
      },
      "t_string_storage": {
        "encoding": "bytes",
        "label": "string",
        "numberOfBytes": "32"
      },
      "t_struct(RoleData)34_storage": {
        "encoding": "inplace",
        "label": "struct AccessControlUpgradeable.RoleData",
        "members": [
          {
            "astId": 31,
            "contract": "contracts/templates/ERC1155NFTProduct.sol:ERC1155NFTProduct",
            "label": "members",
            "offset": 0,
            "slot": "0",
            "type": "t_mapping(t_address,t_bool)"
          },
          {
            "astId": 33,
            "contract": "contracts/templates/ERC1155NFTProduct.sol:ERC1155NFTProduct",
            "label": "adminRole",
            "offset": 0,
            "slot": "1",
            "type": "t_bytes32"
          }
        ],
        "numberOfBytes": "64"
      },
      "t_uint256": {
        "encoding": "inplace",
        "label": "uint256",
        "numberOfBytes": "32"
      },
      "t_uint8": {
        "encoding": "inplace",
        "label": "uint8",
        "numberOfBytes": "1"
      }
    }
  }
}