{
  "address": "0x14DA43D3B3aCb123Fa572b6855238Bc9A0bF4836",
  "abi": [
    {
      "inputs": [],
      "stateMutability": "nonpayable",
      "type": "constructor"
    },
    {
      "anonymous": false,
      "inputs": [
        {
          "indexed": true,
          "internalType": "address",
          "name": "account",
          "type": "address"
        },
        {
          "indexed": true,
          "internalType": "address",
          "name": "operator",
          "type": "address"
        },
        {
          "indexed": false,
          "internalType": "bool",
          "name": "approved",
          "type": "bool"
        }
      ],
      "name": "ApprovalForAll",
      "type": "event"
    },
    {
      "anonymous": false,
      "inputs": [
        {
          "indexed": false,
          "internalType": "uint8",
          "name": "version",
          "type": "uint8"
        }
      ],
      "name": "Initialized",
      "type": "event"
    },
    {
      "anonymous": false,
      "inputs": [
        {
          "indexed": true,
          "internalType": "address",
          "name": "previousOwner",
          "type": "address"
        },
        {
          "indexed": true,
          "internalType": "address",
          "name": "newOwner",
          "type": "address"
        }
      ],
      "name": "OwnershipTransferred",
      "type": "event"
    },
    {
      "anonymous": false,
      "inputs": [
        {
          "indexed": false,
          "internalType": "string",
          "name": "_value",
          "type": "string"
        },
        {
          "indexed": true,
          "internalType": "uint256",
          "name": "_id",
          "type": "uint256"
        }
      ],
      "name": "PermanentURI",
      "type": "event"
    },
    {
      "anonymous": false,
      "inputs": [],
      "name": "PermanentURIGlobal",
      "type": "event"
    },
    {
      "anonymous": false,
      "inputs": [
        {
          "indexed": true,
          "internalType": "bytes32",
          "name": "role",
          "type": "bytes32"
        },
        {
          "indexed": true,
          "internalType": "bytes32",
          "name": "previousAdminRole",
          "type": "bytes32"
        },
        {
          "indexed": true,
          "internalType": "bytes32",
          "name": "newAdminRole",
          "type": "bytes32"
        }
      ],
      "name": "RoleAdminChanged",
      "type": "event"
    },
    {
      "anonymous": false,
      "inputs": [
        {
          "indexed": true,
          "internalType": "bytes32",
          "name": "role",
          "type": "bytes32"
        },
        {
          "indexed": true,
          "internalType": "address",
          "name": "account",
          "type": "address"
        },
        {
          "indexed": true,
          "internalType": "address",
          "name": "sender",
          "type": "address"
        }
      ],
      "name": "RoleGranted",
      "type": "event"
    },
    {
      "anonymous": false,
      "inputs": [
        {
          "indexed": true,
          "internalType": "bytes32",
          "name": "role",
          "type": "bytes32"
        },
        {
          "indexed": true,
          "internalType": "address",
          "name": "account",
          "type": "address"
        },
        {
          "indexed": true,
          "internalType": "address",
          "name": "sender",
          "type": "address"
        }
      ],
      "name": "RoleRevoked",
      "type": "event"
    },
    {
      "anonymous": false,
      "inputs": [
        {
          "indexed": true,
          "internalType": "address",
          "name": "operator",
          "type": "address"
        },
        {
          "indexed": true,
          "internalType": "address",
          "name": "from",
          "type": "address"
        },
        {
          "indexed": true,
          "internalType": "address",
          "name": "to",
          "type": "address"
        },
        {
          "indexed": false,
          "internalType": "uint256[]",
          "name": "ids",
          "type": "uint256[]"
        },
        {
          "indexed": false,
          "internalType": "uint256[]",
          "name": "values",
          "type": "uint256[]"
        }
      ],
      "name": "TransferBatch",
      "type": "event"
    },
    {
      "anonymous": false,
      "inputs": [
        {
          "indexed": true,
          "internalType": "address",
          "name": "operator",
          "type": "address"
        },
        {
          "indexed": true,
          "internalType": "address",
          "name": "from",
          "type": "address"
        },
        {
          "indexed": true,
          "internalType": "address",
          "name": "to",
          "type": "address"
        },
        {
          "indexed": false,
          "internalType": "uint256",
          "name": "id",
          "type": "uint256"
        },
        {
          "indexed": false,
          "internalType": "uint256",
          "name": "value",
          "type": "uint256"
        }
      ],
      "name": "TransferSingle",
      "type": "event"
    },
    {
      "anonymous": false,
      "inputs": [
        {
          "indexed": false,
          "internalType": "string",
          "name": "value",
          "type": "string"
        },
        {
          "indexed": true,
          "internalType": "uint256",
          "name": "id",
          "type": "uint256"
        }
      ],
      "name": "URI",
      "type": "event"
    },
    {
      "inputs": [],
      "name": "ADMIN_ROLE",
      "outputs": [
        {
          "internalType": "bytes32",
          "name": "",
          "type": "bytes32"
        }
      ],
      "stateMutability": "view",
      "type": "function"
    },
    {
      "inputs": [],
      "name": "BURN_ROLE",
      "outputs": [
        {
          "internalType": "bytes32",
          "name": "",
          "type": "bytes32"
        }
      ],
      "stateMutability": "view",
      "type": "function"
    },
    {
      "inputs": [],
      "name": "DEFAULT_ADMIN_ROLE",
      "outputs": [
        {
          "internalType": "bytes32",
          "name": "",
          "type": "bytes32"
        }
      ],
      "stateMutability": "view",
      "type": "function"
    },
    {
      "inputs": [],
      "name": "DEFAULT_URI",
      "outputs": [
        {
          "internalType": "string",
          "name": "",
          "type": "string"
        }
      ],
      "stateMutability": "view",
      "type": "function"
    },
    {
      "inputs": [],
      "name": "MINT_ROLE",
      "outputs": [
        {
          "internalType": "bytes32",
          "name": "",
          "type": "bytes32"
        }
      ],
      "stateMutability": "view",
      "type": "function"
    },
    {
      "inputs": [],
      "name": "NAME",
      "outputs": [
        {
          "internalType": "string",
          "name": "",
          "type": "string"
        }
      ],
      "stateMutability": "view",
      "type": "function"
    },
    {
      "inputs": [],
      "name": "ROYALTIES_BASIS",
      "outputs": [
        {
          "internalType": "uint16",
          "name": "",
          "type": "uint16"
        }
      ],
      "stateMutability": "view",
      "type": "function"
    },
    {
      "inputs": [],
      "name": "TRANSFER_ROLE",
      "outputs": [
        {
          "internalType": "bytes32",
          "name": "",
          "type": "bytes32"
        }
      ],
      "stateMutability": "view",
      "type": "function"
    },
    {
      "inputs": [],
      "name": "UPDATE_CONTRACT_ROLE",
      "outputs": [
        {
          "internalType": "bytes32",
          "name": "",
          "type": "bytes32"
        }
      ],
      "stateMutability": "view",
      "type": "function"
    },
    {
      "inputs": [],
      "name": "UPDATE_TOKEN_ROLE",
      "outputs": [
        {
          "internalType": "bytes32",
          "name": "",
          "type": "bytes32"
        }
      ],
      "stateMutability": "view",
      "type": "function"
    },
    {
      "inputs": [],
      "name": "VERSION",
      "outputs": [
        {
          "internalType": "uint256",
          "name": "",
          "type": "uint256"
        }
      ],
      "stateMutability": "view",
      "type": "function"
    },
    {
      "inputs": [
        {
          "internalType": "address",
          "name": "account",
          "type": "address"
        },
        {
          "internalType": "uint256",
          "name": "id",
          "type": "uint256"
        }
      ],
      "name": "balanceOf",
      "outputs": [
        {
          "internalType": "uint256",
          "name": "",
          "type": "uint256"
        }
      ],
      "stateMutability": "view",
      "type": "function"
    },
    {
      "inputs": [
        {
          "internalType": "address[]",
          "name": "accounts",
          "type": "address[]"
        },
        {
          "internalType": "uint256[]",
          "name": "ids",
          "type": "uint256[]"
        }
      ],
      "name": "balanceOfBatch",
      "outputs": [
        {
          "internalType": "uint256[]",
          "name": "",
          "type": "uint256[]"
        }
      ],
      "stateMutability": "view",
      "type": "function"
    },
    {
      "inputs": [],
      "name": "baseURI",
      "outputs": [
        {
          "internalType": "string",
          "name": "",
          "type": "string"
        }
      ],
      "stateMutability": "view",
      "type": "function"
    },
    {
      "inputs": [
        {
          "internalType": "uint256",
          "name": "id",
          "type": "uint256"
        },
        {
          "internalType": "uint256",
          "name": "value",
          "type": "uint256"
        }
      ],
      "name": "burn",
      "outputs": [],
      "stateMutability": "nonpayable",
      "type": "function"
    },
    {
      "inputs": [
        {
          "internalType": "uint256[]",
          "name": "ids",
          "type": "uint256[]"
        },
        {
          "internalType": "uint256[]",
          "name": "values",
          "type": "uint256[]"
        }
      ],
      "name": "burnBatch",
      "outputs": [],
      "stateMutability": "nonpayable",
      "type": "function"
    },
    {
      "inputs": [],
      "name": "contractURI",
      "outputs": [
        {
          "internalType": "string",
          "name": "",
          "type": "string"
        }
      ],
      "stateMutability": "view",
      "type": "function"
    },
    {
      "inputs": [
        {
          "internalType": "uint256",
          "name": "",
          "type": "uint256"
        }
      ],
      "name": "freezeTokenUris",
      "outputs": [
        {
          "internalType": "bool",
          "name": "",
          "type": "bool"
        }
      ],
      "stateMutability": "view",
      "type": "function"
    },
    {
      "inputs": [
        {
          "internalType": "bytes32",
          "name": "role",
          "type": "bytes32"
        }
      ],
      "name": "getRoleAdmin",
      "outputs": [
        {
          "internalType": "bytes32",
          "name": "",
          "type": "bytes32"
        }
      ],
      "stateMutability": "view",
      "type": "function"
    },
    {
      "inputs": [
        {
          "internalType": "bytes32",
          "name": "role",
          "type": "bytes32"
        },
        {
          "internalType": "address",
          "name": "account",
          "type": "address"
        }
      ],
      "name": "grantRole",
      "outputs": [],
      "stateMutability": "nonpayable",
      "type": "function"
    },
    {
      "inputs": [
        {
          "internalType": "bytes32",
          "name": "role",
          "type": "bytes32"
        },
        {
          "internalType": "address",
          "name": "account",
          "type": "address"
        }
      ],
      "name": "hasRole",
      "outputs": [
        {
          "internalType": "bool",
          "name": "",
          "type": "bool"
        }
      ],
      "stateMutability": "view",
      "type": "function"
    },
    {
      "inputs": [
        {
          "components": [
            {
              "internalType": "string",
              "name": "name",
              "type": "string"
            },
            {
              "internalType": "string",
              "name": "symbol",
              "type": "string"
            },
            {
              "internalType": "address",
              "name": "owner",
              "type": "address"
            },
            {
              "internalType": "bool",
              "name": "tokensBurnable",
              "type": "bool"
            }
          ],
          "internalType": "struct Config.Deployment",
          "name": "deploymentConfig",
          "type": "tuple"
        },
        {
          "components": [
            {
              "internalType": "string",
              "name": "baseURI",
              "type": "string"
            },
            {
              "internalType": "bool",
              "name": "metadataUpdatable",
              "type": "bool"
            },
            {
              "internalType": "bool",
              "name": "tokensTransferable",
              "type": "bool"
            },
            {
              "internalType": "uint256",
              "name": "royaltiesBps",
              "type": "uint256"
            },
            {
              "internalType": "address",
              "name": "royaltiesAddress",
              "type": "address"
            }
          ],
          "internalType": "struct Config.Runtime",
          "name": "runtimeConfig",
          "type": "tuple"
        },
        {
          "components": [
            {
              "internalType": "bytes32",
              "name": "role",
              "type": "bytes32"
            },
            {
              "internalType": "address[]",
              "name": "addresses",
              "type": "address[]"
            },
            {
              "internalType": "bool",
              "name": "frozen",
              "type": "bool"
            }
          ],
          "internalType": "struct GranularRoles.RolesAddresses[]",
          "name": "rolesAddresses",
          "type": "tuple[]"
        }
      ],
      "name": "initialize",
      "outputs": [],
      "stateMutability": "nonpayable",
      "type": "function"
    },
    {
      "inputs": [
        {
          "internalType": "address",
          "name": "account",
          "type": "address"
        },
        {
          "internalType": "address",
          "name": "operator",
          "type": "address"
        }
      ],
      "name": "isApprovedForAll",
      "outputs": [
        {
          "internalType": "bool",
          "name": "",
          "type": "bool"
        }
      ],
      "stateMutability": "view",
      "type": "function"
    },
    {
      "inputs": [],
      "name": "metadataUpdatable",
      "outputs": [
        {
          "internalType": "bool",
          "name": "",
          "type": "bool"
        }
      ],
      "stateMutability": "view",
      "type": "function"
    },
    {
      "inputs": [
        {
          "internalType": "address",
          "name": "account",
          "type": "address"
        },
        {
          "internalType": "uint256",
          "name": "id",
          "type": "uint256"
        },
        {
          "internalType": "uint256",
          "name": "amount",
          "type": "uint256"
        },
        {
          "internalType": "string",
          "name": "tokenUri",
          "type": "string"
        }
      ],
      "name": "mintByOwner",
      "outputs": [],
      "stateMutability": "nonpayable",
      "type": "function"
    },
    {
      "inputs": [
        {
          "internalType": "address[]",
          "name": "to",
          "type": "address[]"
        },
        {
          "internalType": "uint256[]",
          "name": "ids",
          "type": "uint256[]"
        },
        {
          "internalType": "uint256[]",
          "name": "amounts",
          "type": "uint256[]"
        },
        {
          "internalType": "string[]",
          "name": "uris",
          "type": "string[]"
        }
      ],
      "name": "mintByOwnerBatch",
      "outputs": [],
      "stateMutability": "nonpayable",
      "type": "function"
    },
    {
      "inputs": [],
      "name": "name",
      "outputs": [
        {
          "internalType": "string",
          "name": "",
          "type": "string"
        }
      ],
      "stateMutability": "view",
      "type": "function"
    },
    {
      "inputs": [],
      "name": "owner",
      "outputs": [
        {
          "internalType": "address",
          "name": "",
          "type": "address"
        }
      ],
      "stateMutability": "view",
      "type": "function"
    },
    {
      "inputs": [
        {
          "internalType": "bytes32",
          "name": "role",
          "type": "bytes32"
        },
        {
          "internalType": "address",
          "name": "account",
          "type": "address"
        }
      ],
      "name": "renounceRole",
      "outputs": [],
      "stateMutability": "nonpayable",
      "type": "function"
    },
    {
      "inputs": [],
      "name": "revokeNFTPortPermissions",
      "outputs": [],
      "stateMutability": "nonpayable",
      "type": "function"
    },
    {
      "inputs": [
        {
          "internalType": "bytes32",
          "name": "role",
          "type": "bytes32"
        },
        {
          "internalType": "address",
          "name": "account",
          "type": "address"
        }
      ],
      "name": "revokeRole",
      "outputs": [],
      "stateMutability": "nonpayable",
      "type": "function"
    },
    {
      "inputs": [],
      "name": "royaltiesAddress",
      "outputs": [
        {
          "internalType": "address",
          "name": "",
          "type": "address"
        }
      ],
      "stateMutability": "view",
      "type": "function"
    },
    {
      "inputs": [],
      "name": "royaltiesBasisPoints",
      "outputs": [
        {
          "internalType": "uint256",
          "name": "",
          "type": "uint256"
        }
      ],
      "stateMutability": "view",
      "type": "function"
    },
    {
      "inputs": [
        {
          "internalType": "uint256",
          "name": "",
          "type": "uint256"
        },
        {
          "internalType": "uint256",
          "name": "salePrice",
          "type": "uint256"
        }
      ],
      "name": "royaltyInfo",
      "outputs": [
        {
          "internalType": "address",
          "name": "",
          "type": "address"
        },
        {
          "internalType": "uint256",
          "name": "",
          "type": "uint256"
        }
      ],
      "stateMutability": "view",
      "type": "function"
    },
    {
      "inputs": [
        {
          "internalType": "address",
          "name": "from",
          "type": "address"
        },
        {
          "internalType": "address",
          "name": "to",
          "type": "address"
        },
        {
          "internalType": "uint256[]",
          "name": "ids",
          "type": "uint256[]"
        },
        {
          "internalType": "uint256[]",
          "name": "amounts",
          "type": "uint256[]"
        },
        {
          "internalType": "bytes",
          "name": "data",
          "type": "bytes"
        }
      ],
      "name": "safeBatchTransferFrom",
      "outputs": [],
      "stateMutability": "nonpayable",
      "type": "function"
    },
    {
      "inputs": [
        {
          "internalType": "address",
          "name": "from",
          "type": "address"
        },
        {
          "internalType": "address",
          "name": "to",
          "type": "address"
        },
        {
          "internalType": "uint256",
          "name": "id",
          "type": "uint256"
        },
        {
          "internalType": "uint256",
          "name": "amount",
          "type": "uint256"
        },
        {
          "internalType": "bytes",
          "name": "data",
          "type": "bytes"
        }
      ],
      "name": "safeTransferFrom",
      "outputs": [],
      "stateMutability": "nonpayable",
      "type": "function"
    },
    {
      "inputs": [
        {
          "internalType": "address",
          "name": "operator",
          "type": "address"
        },
        {
          "internalType": "bool",
          "name": "approved",
          "type": "bool"
        }
      ],
      "name": "setApprovalForAll",
      "outputs": [],
      "stateMutability": "nonpayable",
      "type": "function"
    },
    {
      "inputs": [
        {
          "internalType": "string",
          "name": "_newURI",
          "type": "string"
        }
      ],
      "name": "setURI",
      "outputs": [],
      "stateMutability": "nonpayable",
      "type": "function"
    },
    {
      "inputs": [
        {
          "internalType": "bytes4",
          "name": "interfaceId",
          "type": "bytes4"
        }
      ],
      "name": "supportsInterface",
      "outputs": [
        {
          "internalType": "bool",
          "name": "",
          "type": "bool"
        }
      ],
      "stateMutability": "view",
      "type": "function"
    },
    {
      "inputs": [],
      "name": "symbol",
      "outputs": [
        {
          "internalType": "string",
          "name": "",
          "type": "string"
        }
      ],
      "stateMutability": "view",
      "type": "function"
    },
    {
      "inputs": [
        {
          "internalType": "uint256",
          "name": "",
          "type": "uint256"
        }
      ],
      "name": "tokenSupply",
      "outputs": [
        {
          "internalType": "uint256",
          "name": "",
          "type": "uint256"
        }
      ],
      "stateMutability": "view",
      "type": "function"
    },
    {
      "inputs": [],
      "name": "tokensBurnable",
      "outputs": [
        {
          "internalType": "bool",
          "name": "",
          "type": "bool"
        }
      ],
      "stateMutability": "view",
      "type": "function"
    },
    {
      "inputs": [],
      "name": "tokensTransferable",
      "outputs": [
        {
          "internalType": "bool",
          "name": "",
          "type": "bool"
        }
      ],
      "stateMutability": "view",
      "type": "function"
    },
    {
      "inputs": [
        {
          "internalType": "uint256",
          "name": "_id",
          "type": "uint256"
        }
      ],
      "name": "totalSupply",
      "outputs": [
        {
          "internalType": "uint256",
          "name": "",
          "type": "uint256"
        }
      ],
      "stateMutability": "view",
      "type": "function"
    },
    {
      "inputs": [
        {
          "internalType": "address",
          "name": "to",
          "type": "address"
        },
        {
          "internalType": "uint256",
          "name": "id",
          "type": "uint256"
        },
        {
          "internalType": "uint256",
          "name": "amount",
          "type": "uint256"
        }
      ],
      "name": "transferByOwner",
      "outputs": [],
      "stateMutability": "nonpayable",
      "type": "function"
    },
    {
      "inputs": [
        {
          "internalType": "address[]",
          "name": "to",
          "type": "address[]"
        },
        {
          "internalType": "uint256[]",
          "name": "ids",
          "type": "uint256[]"
        },
        {
          "internalType": "uint256[]",
          "name": "amounts",
          "type": "uint256[]"
        }
      ],
      "name": "transferByOwnerBatch",
      "outputs": [],
      "stateMutability": "nonpayable",
      "type": "function"
    },
    {
      "inputs": [
        {
          "internalType": "address",
          "name": "newOwner",
          "type": "address"
        }
      ],
      "name": "transferOwnership",
      "outputs": [],
      "stateMutability": "nonpayable",
      "type": "function"
    },
    {
      "inputs": [
        {
          "components": [
            {
              "internalType": "string",
              "name": "baseURI",
              "type": "string"
            },
            {
              "internalType": "bool",
              "name": "metadataUpdatable",
              "type": "bool"
            },
            {
              "internalType": "bool",
              "name": "tokensTransferable",
              "type": "bool"
            },
            {
              "internalType": "uint256",
              "name": "royaltiesBps",
              "type": "uint256"
            },
            {
              "internalType": "address",
              "name": "royaltiesAddress",
              "type": "address"
            }
          ],
          "internalType": "struct Config.Runtime",
          "name": "newConfig",
          "type": "tuple"
        },
        {
          "components": [
            {
              "internalType": "bytes32",
              "name": "role",
              "type": "bytes32"
            },
            {
              "internalType": "address[]",
              "name": "addresses",
              "type": "address[]"
            },
            {
              "internalType": "bool",
              "name": "frozen",
              "type": "bool"
            }
          ],
          "internalType": "struct GranularRoles.RolesAddresses[]",
          "name": "rolesAddresses",
          "type": "tuple[]"
        },
        {
          "internalType": "bool",
          "name": "isRevokeNFTPortPermissions",
          "type": "bool"
        }
      ],
      "name": "update",
      "outputs": [],
      "stateMutability": "nonpayable",
      "type": "function"
    },
    {
      "inputs": [
        {
          "internalType": "uint256",
          "name": "_tokenId",
          "type": "uint256"
        },
        {
          "internalType": "string",
          "name": "_newUri",
          "type": "string"
        },
        {
          "internalType": "bool",
          "name": "_isFreezeTokenUri",
          "type": "bool"
        }
      ],
      "name": "updateTokenUri",
      "outputs": [],
      "stateMutability": "nonpayable",
      "type": "function"
    },
    {
      "inputs": [
        {
          "internalType": "uint256",
          "name": "_id",
          "type": "uint256"
        }
      ],
      "name": "uri",
      "outputs": [
        {
          "internalType": "string",
          "name": "",
          "type": "string"
        }
      ],
      "stateMutability": "view",
      "type": "function"
    }
  ],
  "transactionHash": "0x235535292ef4fe36b7c2396223596e06cb644a31c8b8e53084fbd23b55880d9e",
  "args": [],
  "numDeployments": 2,
  "solcInputHash": "1e300b8e19558e2a4c02af65df638f3f",
  "bytecode": "0x60806040523480156200001157600080fd5b50600054610100900460ff1615808015620000335750600054600160ff909116105b8062000063575062000050306200013d60201b62001eeb1760201c565b15801562000063575060005460ff166001145b620000cb5760405162461bcd60e51b815260206004820152602e60248201527f496e697469616c697a61626c653a20636f6e747261637420697320616c72656160448201526d191e481a5b9a5d1a585b1a5e995960921b606482015260840160405180910390fd5b6000805460ff191660011790558015620000ef576000805461ff0019166101001790555b801562000136576000805461ff0019169055604051600181527f7f26b83ff96e1f2b6a682f133852f6798a09c465da95921460cefb38474024989060200160405180910390a15b506200014c565b6001600160a01b03163b151590565b614ded806200015c6000396000f3fe608060405234801561001057600080fd5b50600436106102d55760003560e01c80638d010db311610182578063b930908f116100e9578063e985e9c5116100a2578063f242432a1161007c578063f242432a14610713578063f2fde38b14610726578063ff0a9f5114610739578063ffa1ad741461074c57600080fd5b8063e985e9c5146106ba578063e9a9c850146106f6578063f153c2e51461070b57600080fd5b8063b930908f14610644578063bd85b03914610659578063d547741f1461067a578063de374d9d1461068d578063e3d52072146106a0578063e8a3d485146106b257600080fd5b8063a22cb4651161013b578063a22cb465146105aa578063a2f551ec146105bd578063a3f4df7e146105d0578063a53a84b614610600578063b29c097a1461060a578063b390c0ab1461063157600080fd5b80638d010db3146105365780638da5cb5b1461055a57806391d148541461056b57806395d89b411461057e5780639da5b0a514610586578063a217fddf146105a257600080fd5b80632c23b965116102415780634e1273f4116101fa5780636f8b1495116101d45780636f8b1495146104e557806375b238fc146104fb5780637e712f381461051057806383ca4b6f1461052357600080fd5b80634e1273f4146104b15780634e6f9dd6146104d15780636c0360eb146104dd57600080fd5b80632c23b965146104245780632e628b61146104395780632eb2c2d61461044c5780632f2ff15d1461045f578063328825351461047257806336568abe1461049e57600080fd5b8063206b60f911610293578063206b60f914610373578063224a177514610388578063248a9ca31461039b57806325d22c8e146103be5780632693ebf2146103d15780632a55205a146103f257600080fd5b8062fdd58e146102da57806301ffc9a71461030057806302fe53051461032357806306fdde03146103385780630e89341c1461034d57806320333b1314610360575b600080fd5b6102ed6102e8366004613754565b610755565b6040519081526020015b60405180910390f35b61031361030e366004613794565b6107f0565b60405190151581526020016102f7565b6103366103313660046138aa565b61081b565b005b610340610840565b6040516102f79190613936565b61034061035b366004613949565b6108cf565b61033661036e366004613962565b6109f9565b6102ed600080516020614cd883398151915281565b6103366103963660046139c2565b610b6c565b6102ed6103a9366004613949565b60009081526097602052604090206001015490565b6103366103cc366004613c2c565b610c05565b6102ed6103df366004613949565b6101066020526000908152604090205481565b610405610400366004613d2b565b610dc5565b604080516001600160a01b0390931683526020830191909152016102f7565b6102ed600080516020614cf883398151915281565b610336610447366004613d4d565b610e03565b61033661045a366004613e2e565b610f8b565b61033661046d366004613ed7565b610fd7565b61010354610486906001600160a01b031681565b6040516001600160a01b0390911681526020016102f7565b6103366104ac366004613ed7565b611001565b6104c46104bf366004613f03565b61107b565b6040516102f79190613fa1565b60ff8054610313911681565b6103406111a4565b6103406040518060200160405280600081525081565b6102ed600080516020614d7883398151915281565b61033661051e366004613fb4565b6111b2565b610336610531366004614031565b611306565b610313610544366004613949565b6101056020526000908152604090205460ff1681565b60c9546001600160a01b0316610486565b610313610579366004613ed7565b6113fa565b610340611497565b61058f61271081565b60405161ffff90911681526020016102f7565b6102ed600081565b6103366105b8366004614067565b6114a5565b6103366105cb366004614091565b6114b0565b61034060405180604001604052806011815260200170115490cc4c4d4d539195141c9bd91d58dd607a1b81525081565b6102ed6101045481565b6102ed7f852fd44a27d33057a8c3d90859d4e4c9f54309d4d66d1d968e063befba9198e681565b61033661063f366004613d2b565b611798565b6102ed600080516020614d9883398151915281565b6102ed610667366004613949565b6000908152610106602052604090205490565b610336610688366004613ed7565b61183b565b60ff805461031391620100009091041681565b60ff8054610313916101009091041681565b610340611860565b6103136106c83660046140cf565b6001600160a01b03918216600090815260666020908152604080832093909416825291909152205460ff1690565b6102ed600080516020614d5883398151915281565b6103366118dc565b6103366107213660046140f9565b61192c565b61033661073436600461415d565b611971565b610336610747366004614178565b611acc565b6102ed61271181565b60006001600160a01b0383166107c55760405162461bcd60e51b815260206004820152602a60248201527f455243313135353a2061646472657373207a65726f206973206e6f742061207660448201526930b634b21037bbb732b960b11b60648201526084015b60405180910390fd5b5060008181526065602090815260408083206001600160a01b03861684529091529020545b92915050565b60006107fb82611efa565b806107ea57506001600160e01b0319821663152a902d60e11b1492915050565b600080516020614cf883398151915261083381611f4a565b61083c82611f57565b5050565b610100805461084e9061429c565b80601f016020809104026020016040519081016040528092919081815260200182805461087a9061429c565b80156108c75780601f1061089c576101008083540402835291602001916108c7565b820191906000526020600020905b8154815290600101906020018083116108aa57829003601f168201915b505050505081565b600081815261010760205260408120805460609291906108ee9061429c565b905011156109eb57600061010280546109069061429c565b9050111561094c576101026101076000848152602001908152602001600020604051602001610936929190614349565b6040516020818303038152906040529050919050565b60008281526101076020526040902080546109669061429c565b80601f01602080910402602001604051908101604052809291908181526020018280546109929061429c565b80156109df5780601f106109b4576101008083540402835291602001916109df565b820191906000526020600020905b8154815290600101906020018083116109c257829003601f168201915b50505050509050919050565b6107ea82611f63565b919050565b600080516020614d58833981519152610a1181611f4a565b600260cd5403610a635760405162461bcd60e51b815260206004820152601f60248201527f5265656e7472616e637947756172643a207265656e7472616e742063616c6c0060448201526064016107bc565b600260cd556000848152610106602052604090205415610ac55760405162461bcd60e51b815260206004820152601960248201527f4e46543a20746f6b656e20616c7265616479206d696e7465640000000000000060448201526064016107bc565b815115610b1f57600084815261010760205260409020610ae583826143a4565b50837f6bb7ff708619ba0610cba295a58592e0451dee2622938c8755667688daf3529b83604051610b169190613936565b60405180910390a25b6000848152610106602052604081208054859290610b3e908490614479565b92505081905550610b6085858560405180602001604052806000815250611f72565b5050600160cd55505050565b600080516020614cd8833981519152610b8481611f4a565b60ff805462010000900416610bd45760405162461bcd60e51b8152602060048201526016602482015275151c985b9cd9995c9cc8185c9948191a5cd8589b195960521b60448201526064016107bc565b60c954604080516020810190915260008152610bff916001600160a01b031690869086908690612088565b50505050565b600054610100900460ff1615808015610c255750600054600160ff909116105b80610c3f5750303b158015610c3f575060005460ff166001145b610ca25760405162461bcd60e51b815260206004820152602e60248201527f496e697469616c697a61626c653a20636f6e747261637420697320616c72656160448201526d191e481a5b9a5d1a585b1a5e995960921b60648201526084016107bc565b6000805460ff191660011790558015610cc5576000805461ff0019166101001790555b610cdd604051806020016040528060008152506121b6565b610ce56121e6565b610cf783608001518460600151612217565b602083015160ff80546060870151604087015161ffff1990921693151561ff0019169390931761010093151584021762ff0000191662010000911515919091021790558451610d4690826143a4565b50602084015161010190610d5a90826143a4565b50825161010290610d6b90826143a4565b50610d7a84604001518361229b565b8015610bff576000805461ff0019169055604051600181527f7f26b83ff96e1f2b6a682f133852f6798a09c465da95921460cefb38474024989060200160405180910390a150505050565b610103546101045460009182916001600160a01b039091169061271090610ded908690614491565b610df791906144c6565b915091505b9250929050565b600080516020614cf8833981519152610e1b81611f4a565b60ff80541680610e845750610102604051602001610e3991906144da565b60408051601f198184030181529190528051602090910120610e5b85806144e6565b604051602001610e6c92919061452c565b60405160208183030381529060405280519060200120145b610ec55760405162461bcd60e51b815260206004820152601260248201527126b2ba30b230ba309034b990333937bd32b760711b60448201526064016107bc565b610ecf84806144e6565b61010291610ede91908361453c565b50610efc610ef260a086016080870161415d565b8560600135612217565b610f0c60608501604086016145fb565b610f1d5760ff805462ff0000191690555b610f2d60408501602086016145fb565b158015610f3b575060ff8054165b15610f745760ff805460ff191690556040517fb59f45df38ec0d34114b1248c38a29cdbccbf3e745ae3ef310ac66199a4ceccf90600090a15b610f7d8361251f565b8115610bff57610bff6118dc565b6001600160a01b038516331480610fa75750610fa785336106c8565b610fc35760405162461bcd60e51b81526004016107bc90614616565b610fd08585858585612809565b5050505050565b600082815260976020526040902060010154610ff281611f4a565b610ffc83836129a8565b505050565b6001600160a01b03811633146110715760405162461bcd60e51b815260206004820152602f60248201527f416363657373436f6e74726f6c3a2063616e206f6e6c792072656e6f756e636560448201526e103937b632b9903337b91039b2b63360891b60648201526084016107bc565b61083c8282612a2e565b606081518351146110e05760405162461bcd60e51b815260206004820152602960248201527f455243313135353a206163636f756e747320616e6420696473206c656e677468604482015268040dad2e6dac2e8c6d60bb1b60648201526084016107bc565b600083516001600160401b038111156110fb576110fb6137b1565b604051908082528060200260200182016040528015611124578160200160208202803683370190505b50905060005b845181101561119c5761116f85828151811061114857611148614665565b602002602001015185838151811061116257611162614665565b6020026020010151610755565b82828151811061118157611181614665565b60209081029190910101526111958161467b565b905061112a565b509392505050565b610102805461084e9061429c565b600080516020614cd88339815191526111ca81611f4a565b60ff80546201000090041661121a5760405162461bcd60e51b8152602060048201526016602482015275151c985b9cd9995c9cc8185c9948191a5cd8589b195960521b60448201526064016107bc565b8251845114801561122c575081518351145b6112725760405162461bcd60e51b81526020600482015260176024820152764d69736d61746368656420696e7075742061727261797360481b60448201526064016107bc565b60005b8351811015610fd05760c95485516112f4916001600160a01b0316908790849081106112a3576112a3614665565b60200260200101518684815181106112bd576112bd614665565b60200260200101518685815181106112d7576112d7614665565b602002602001015160405180602001604052806000815250612088565b806112fe8161467b565b915050611275565b600080516020614d9883398151915261131e81611f4a565b60ff80546101009004166113695760405162461bcd60e51b8152602060048201526012602482015271109d5c9b9cc8185c9948191a5cd8589b195960721b60448201526064016107bc565b60c954611380906001600160a01b03168484612a95565b60005b8351811015610bff5782818151811061139e5761139e614665565b602002602001015161010660008684815181106113bd576113bd614665565b6020026020010151815260200190815260200160002060008282546113e29190614694565b909155508190506113f28161467b565b915050611383565b60c9546000906001600160a01b039081169083160361141b575060016107ea565b82611428575060006107ea565b6001600160a01b03821660009081527f9805bb80c0cb3b8457cbce774d5adda6e717284b7d1e937eb2fdc8bbff924719602052604090205460ff1680611490575060008381526097602090815260408083206001600160a01b038616845290915290205460ff165b9392505050565b610101805461084e9061429c565b61083c338383612c22565b7f852fd44a27d33057a8c3d90859d4e4c9f54309d4d66d1d968e063befba9198e66114da81611f4a565b6000848152610106602052604090205461152d5760405162461bcd60e51b8152602060048201526014602482015273151bdad95b88191bd95cc81b9bdd08195e1a5cdd60621b60448201526064016107bc565b60ff8054166115735760405162461bcd60e51b815260206004820152601260248201527126b2ba30b230ba309034b990333937bd32b760711b60448201526064016107bc565b6000848152610105602052604090205460ff1615156001036115c95760405162461bcd60e51b815260206004820152600f60248201526e2a37b5b2b71034b990333937bd32b760891b60448201526064016107bc565b81806115d55750825115155b61163b5760405162461bcd60e51b815260206004820152603160248201527f456974686572205f6e6577557269206f72205f6973467265657a65546f6b656e604482015270155c9a4f5d1c9d59481c995c5d5a5c9959607a1b60648201526084016107bc565b82511561172d578260405160200161165391906146ab565b60408051601f1981840301815282825280516020918201206000888152610107909252919020909161168591906144da565b6040518091039020036116da5760405162461bcd60e51b815260206004820181905260248201527f4e657720746f6b656e205552492069732073616d65206173207570646174656460448201526064016107bc565b6000848152610107602052604090206116f384826143a4565b50837f6bb7ff708619ba0610cba295a58592e0451dee2622938c8755667688daf3529b846040516117249190613936565b60405180910390a25b8115610bff57600084815261010560209081526040808320805460ff1916600117905561010790915290819020905185917fa109ba539900bf1b633f956d63c96fc89b814c7287f7aa50a9216d0b556572079161178a91906146c7565b60405180910390a250505050565b600080516020614d988339815191526117b081611f4a565b60ff80546101009004166117fb5760405162461bcd60e51b8152602060048201526012602482015271109d5c9b9cc8185c9948191a5cd8589b195960721b60448201526064016107bc565b60c954611812906001600160a01b03168484612d02565b6000838152610106602052604081208054849290611831908490614694565b9091555050505050565b60008281526097602052604090206001015461185681611f4a565b610ffc8383612a2e565b606060006118b061187361010454612e09565b6101035461188b906001600160a01b03166014612f11565b60405160200161189c929190614752565b6040516020818303038152906040526130ac565b90506000816040516020016118c591906147d9565b60408051601f198184030181529190529392505050565b600080516020614d788339815191526118f481611f4a565b60ca5461191990600080516020614d78833981519152906001600160a01b0316612a2e565b5060ca80546001600160a01b0319169055565b6001600160a01b038516331480611948575061194885336106c8565b6119645760405162461bcd60e51b81526004016107bc90614616565b610fd08585858585612088565b60c9546001600160a01b03908116908216036119cf5760405162461bcd60e51b815260206004820181905260248201527f4772616e756c6172526f6c65733a20616c726561647920746865206f776e657260448201526064016107bc565b60c9546001600160a01b03163314611a295760405162461bcd60e51b815260206004820152601c60248201527f4772616e756c6172526f6c65733a206e6f7420746865206f776e65720000000060448201526064016107bc565b60c954611a4e90600080516020614d78833981519152906001600160a01b0316612a2e565b60c980546001600160a01b038381166001600160a01b0319831681179093551690611a8890600080516020614d78833981519152906129a8565b816001600160a01b0316816001600160a01b03167f8be0079c531659141344cd1fd0a4f28419497f9722a3daafe3b4186f6b6457e060405160405180910390a35050565b600080516020614d58833981519152611ae481611f4a565b600260cd5403611b365760405162461bcd60e51b815260206004820152601f60248201527f5265656e7472616e637947756172643a207265656e7472616e742063616c6c0060448201526064016107bc565b600260cd5583518551148015611b4d575082518451145b8015611b5a575081518351145b611ba05760405162461bcd60e51b81526020600482015260176024820152764d69736d61746368656420696e7075742061727261797360481b60448201526064016107bc565b60005b8451811015611ede57611bde858281518110611bc157611bc1614665565b602002602001015160009081526101066020526040902054151590565b15611c2b5760405162461bcd60e51b815260206004820152601f60248201527f4f6e65206f6620746f6b656e7320697320616c7265616479206d696e7465640060448201526064016107bc565b858181518110611c3d57611c3d614665565b60200260200101516001600160a01b0316868281518110611c6057611c60614665565b60200260200101516001600160a01b031614611cbe5760405162461bcd60e51b815260206004820181905260248201527f4e46543a206f6e65206f662061646472657373657320697320696e76616c696460448201526064016107bc565b6000848281518110611cd257611cd2614665565b602002602001015111611d275760405162461bcd60e51b815260206004820152601c60248201527f4e46543a20616c6c20616d6f756e7473206d757374206265203e20300000000060448201526064016107bc565b838181518110611d3957611d39614665565b60200260200101516101066000878481518110611d5857611d58614665565b602002602001015181526020019081526020016000206000828254611d7d9190614479565b925050819055506000838281518110611d9857611d98614665565b6020026020010151511115611e6657828181518110611db957611db9614665565b60200260200101516101076000878481518110611dd857611dd8614665565b602002602001015181526020019081526020016000209081611dfa91906143a4565b50848181518110611e0d57611e0d614665565b60200260200101517f6bb7ff708619ba0610cba295a58592e0451dee2622938c8755667688daf3529b848381518110611e4857611e48614665565b6020026020010151604051611e5d9190613936565b60405180910390a25b611ecc868281518110611e7b57611e7b614665565b6020026020010151868381518110611e9557611e95614665565b6020026020010151868481518110611eaf57611eaf614665565b602002602001015160405180602001604052806000815250611f72565b80611ed68161467b565b915050611ba3565b5050600160cd5550505050565b6001600160a01b03163b151590565b60006001600160e01b03198216636cdb3d1360e11b1480611f2b57506001600160e01b031982166303a24d0760e21b145b806107ea57506301ffc9a760e01b6001600160e01b03198316146107ea565b611f548133613215565b50565b606761083c82826143a4565b6060606780546109669061429c565b6001600160a01b038416611fd25760405162461bcd60e51b815260206004820152602160248201527f455243313135353a206d696e7420746f20746865207a65726f206164647265736044820152607360f81b60648201526084016107bc565b336000611fde85613279565b90506000611feb85613279565b905060008681526065602090815260408083206001600160a01b038b1684529091528120805487929061201f908490614479565b909155505060408051878152602081018790526001600160a01b03808a1692600092918716917fc3d58168c5ae7397731d063d5bbf3d657854427343f4c083240f7aacaa2d0f62910160405180910390a461207f836000898989896132c4565b50505050505050565b6001600160a01b0384166120ae5760405162461bcd60e51b81526004016107bc9061481e565b3360006120ba85613279565b905060006120c785613279565b905060008681526065602090815260408083206001600160a01b038c1684529091529020548581101561210c5760405162461bcd60e51b81526004016107bc90614863565b60008781526065602090815260408083206001600160a01b038d8116855292528083208985039055908a1682528120805488929061214b908490614479565b909155505060408051888152602081018890526001600160a01b03808b16928c821692918816917fc3d58168c5ae7397731d063d5bbf3d657854427343f4c083240f7aacaa2d0f62910160405180910390a46121ab848a8a8a8a8a6132c4565b505050505050505050565b600054610100900460ff166121dd5760405162461bcd60e51b81526004016107bc906148ad565b611f548161341f565b600054610100900460ff1661220d5760405162461bcd60e51b81526004016107bc906148ad565b61221561344f565b565b6127108111156122735760405162461bcd60e51b815260206004820152602160248201527f43616e6e6f742073657420726f79616c7469657320746f206f766572203130306044820152602560f81b60648201526084016107bc565b61010380546001600160a01b0319166001600160a01b03939093169290921790915561010455565b6001600160a01b0382166122f15760405162461bcd60e51b815260206004820152601b60248201527f436f6e7472616374206d757374206861766520616e206f776e6572000000000060448201526064016107bc565b60c980546001600160a01b0384166001600160a01b0319918216811790925560ca80549091163317905561233490600080516020614d78833981519152906129a8565b60ca5461235990600080516020614d78833981519152906001600160a01b03166129a8565b60005b8151811015610ffc57600082828151811061237957612379614665565b60200260200101516000015190506123908161347d565b61239b826020613504565b6040516020016123ab91906148f8565b604051602081830303815290604052906123d85760405162461bcd60e51b81526004016107bc9190613936565b5060005b8383815181106123ee576123ee614665565b602002602001015160200151518110156124ce576124428285858151811061241857612418614665565b602002602001015160200151838151811061243557612435614665565b60200260200101516129a8565b600082815260cb60205260409020845185908590811061246457612464614665565b602002602001015160200151828151811061248157612481614665565b60209081029190910181015182546001810184556000938452919092200180546001600160a01b0319166001600160a01b03909216919091179055806124c68161467b565b9150506123dc565b508282815181106124e1576124e1614665565b6020026020010151604001511561250c57600081815260cc60205260409020805460ff191660011790555b50806125178161467b565b91505061235c565b805115611f545761253e600080516020614d78833981519152336113fa565b61258a5760405162461bcd60e51b815260206004820152601b60248201527f4772616e756c6172526f6c65733a206e6f7420616e2061646d696e000000000060448201526064016107bc565b60005b815181101561083c5760008282815181106125aa576125aa614665565b60200260200101516000015190506125c18161347d565b6125cc826020613504565b6040516020016125dc91906148f8565b604051602081830303815290604052906126095760405162461bcd60e51b81526004016107bc9190613936565b50600081815260cc602090815260409091205460ff16159061262c908390613504565b60405160200161263c919061493d565b604051602081830303815290604052906126695760405162461bcd60e51b81526004016107bc9190613936565b5060005b600082815260cb60205260409020548110156126d557600082815260cb6020526040902080546126c3918491849081106126a9576126a9614665565b6000918252602090912001546001600160a01b0316612a2e565b806126cd8161467b565b91505061266d565b50600081815260cb602052604081206126ed9161370b565b60005b83838151811061270257612702614665565b602002602001015160200151518110156127b85761272c8285858151811061241857612418614665565b600082815260cb60205260409020845185908590811061274e5761274e614665565b602002602001015160200151828151811061276b5761276b614665565b60209081029190910181015182546001810184556000938452919092200180546001600160a01b0319166001600160a01b03909216919091179055806127b08161467b565b9150506126f0565b508282815181106127cb576127cb614665565b602002602001015160400151156127f657600081815260cc60205260409020805460ff191660011790555b50806128018161467b565b91505061258d565b815183511461282a5760405162461bcd60e51b81526004016107bc9061498d565b6001600160a01b0384166128505760405162461bcd60e51b81526004016107bc9061481e565b3360005b845181101561293a57600085828151811061287157612871614665565b60200260200101519050600085838151811061288f5761288f614665565b60209081029190910181015160008481526065835260408082206001600160a01b038e1683529093529190912054909150818110156128e05760405162461bcd60e51b81526004016107bc90614863565b60008381526065602090815260408083206001600160a01b038e8116855292528083208585039055908b1682528120805484929061291f908490614479565b92505081905550505050806129339061467b565b9050612854565b50846001600160a01b0316866001600160a01b0316826001600160a01b03167f4a39dc06d4c0dbc64b70af90fd698a233a518aa5d07e595d983b8c0526c8f7fb878760405161298a9291906149d5565b60405180910390a46129a0818787878787613650565b505050505050565b6129b282826113fa565b61083c5760008281526097602090815260408083206001600160a01b03851684529091529020805460ff191660011790556129ea3390565b6001600160a01b0316816001600160a01b0316837f2f8788117e7eff1d82e926ec794901d17c78024a50270940304540a733656f0d60405160405180910390a45050565b612a3882826113fa565b1561083c5760008281526097602090815260408083206001600160a01b0385168085529252808320805460ff1916905551339285917ff6391f5c32d9c69d2a47ea670b442974b53935d1edc7fd64eb21e047a839171b9190a45050565b6001600160a01b038316612abb5760405162461bcd60e51b81526004016107bc90614a03565b8051825114612adc5760405162461bcd60e51b81526004016107bc9061498d565b604080516020810190915260009081905233905b8351811015612bb5576000848281518110612b0d57612b0d614665565b602002602001015190506000848381518110612b2b57612b2b614665565b60209081029190910181015160008481526065835260408082206001600160a01b038c168352909352919091205490915081811015612b7c5760405162461bcd60e51b81526004016107bc90614a46565b60009283526065602090815260408085206001600160a01b038b1686529091529092209103905580612bad8161467b565b915050612af0565b5060006001600160a01b0316846001600160a01b0316826001600160a01b03167f4a39dc06d4c0dbc64b70af90fd698a233a518aa5d07e595d983b8c0526c8f7fb8686604051612c069291906149d5565b60405180910390a4604080516020810190915260009052610bff565b816001600160a01b0316836001600160a01b031603612c955760405162461bcd60e51b815260206004820152602960248201527f455243313135353a2073657474696e6720617070726f76616c20737461747573604482015268103337b91039b2b63360b91b60648201526084016107bc565b6001600160a01b03838116600081815260666020908152604080832094871680845294825291829020805460ff191686151590811790915591519182527f17307eab39ab6107e8899845ad3d59bd9653f200f220920489ca2b5937696c31910160405180910390a3505050565b6001600160a01b038316612d285760405162461bcd60e51b81526004016107bc90614a03565b336000612d3484613279565b90506000612d4184613279565b6040805160208082018352600091829052888252606581528282206001600160a01b038b1683529052205490915084811015612d8f5760405162461bcd60e51b81526004016107bc90614a46565b60008681526065602090815260408083206001600160a01b038b81168086529184528285208a8703905582518b81529384018a90529092908816917fc3d58168c5ae7397731d063d5bbf3d657854427343f4c083240f7aacaa2d0f62910160405180910390a460408051602081019091526000905261207f565b606081600003612e305750506040805180820190915260018152600360fc1b602082015290565b8160005b8115612e5a5780612e448161467b565b9150612e539050600a836144c6565b9150612e34565b6000816001600160401b03811115612e7457612e746137b1565b6040519080825280601f01601f191660200182016040528015612e9e576020820181803683370190505b5090505b8415612f0957612eb3600183614694565b9150612ec0600a86614a8a565b612ecb906030614479565b60f81b818381518110612ee057612ee0614665565b60200101906001600160f81b031916908160001a905350612f02600a866144c6565b9450612ea2565b949350505050565b60606000612f20836002614491565b612f2b906002614479565b6001600160401b03811115612f4257612f426137b1565b6040519080825280601f01601f191660200182016040528015612f6c576020820181803683370190505b509050600360fc1b81600081518110612f8757612f87614665565b60200101906001600160f81b031916908160001a905350600f60fb1b81600181518110612fb657612fb6614665565b60200101906001600160f81b031916908160001a9053506000612fda846002614491565b612fe5906001614479565b90505b600181111561305d576f181899199a1a9b1b9c1cb0b131b232b360811b85600f166010811061301957613019614665565b1a60f81b82828151811061302f5761302f614665565b60200101906001600160f81b031916908160001a90535060049490941c9361305681614a9e565b9050612fe8565b5083156114905760405162461bcd60e51b815260206004820181905260248201527f537472696e67733a20686578206c656e67746820696e73756666696369656e7460448201526064016107bc565b805160609060008190036130d0575050604080516020810190915260008152919050565b600060036130df836002614479565b6130e991906144c6565b6130f4906004614491565b90506000613103826020614479565b6001600160401b0381111561311a5761311a6137b1565b6040519080825280601f01601f191660200182016040528015613144576020820181803683370190505b5090506000604051806060016040528060408152602001614d18604091399050600181016020830160005b868110156131d0576003818a01810151603f601282901c8116860151600c83901c8216870151600684901c831688015192909316870151600891821b60ff94851601821b92841692909201901b91160160e01b83526004909201910161316f565b5060038606600181146131ea57600281146131fb57613207565b613d3d60f01b600119830152613207565b603d60f81b6000198301525b505050918152949350505050565b61321f82826113fa565b61083c57613237816001600160a01b03166014613504565b613242836020613504565b604051602001613253929190614ab5565b60408051601f198184030181529082905262461bcd60e51b82526107bc91600401613936565b604080516001808252818301909252606091600091906020808301908036833701905050905082816000815181106132b3576132b3614665565b602090810291909101015292915050565b6001600160a01b0384163b156129a05760405163f23a6e6160e01b81526001600160a01b0385169063f23a6e61906133089089908990889088908890600401614b2a565b6020604051808303816000875af1925050508015613343575060408051601f3d908101601f1916820190925261334091810190614b6f565b60015b6133ef5761334f614b8c565b806308c379a0036133885750613363614ba8565b8061336e575061338a565b8060405162461bcd60e51b81526004016107bc9190613936565b505b60405162461bcd60e51b815260206004820152603460248201527f455243313135353a207472616e7366657220746f206e6f6e20455243313135356044820152732932b1b2b4bb32b91034b6b83632b6b2b73a32b960611b60648201526084016107bc565b6001600160e01b0319811663f23a6e6160e01b1461207f5760405162461bcd60e51b81526004016107bc90614c31565b600054610100900460ff166134465760405162461bcd60e51b81526004016107bc906148ad565b611f5481611f57565b600054610100900460ff166134765760405162461bcd60e51b81526004016107bc906148ad565b600160cd55565b6000600080516020614d588339815191528214806134a85750600080516020614cf883398151915282145b806134d257507f852fd44a27d33057a8c3d90859d4e4c9f54309d4d66d1d968e063befba9198e682145b806134ea5750600080516020614d9883398151915282145b806107ea575050600080516020614cd88339815191521490565b60606000613513836002614491565b61351e906002614479565b6001600160401b03811115613535576135356137b1565b6040519080825280601f01601f19166020018201604052801561355f576020820181803683370190505b509050600360fc1b8160008151811061357a5761357a614665565b60200101906001600160f81b031916908160001a905350600f60fb1b816001815181106135a9576135a9614665565b60200101906001600160f81b031916908160001a90535060006135cd846002614491565b6135d8906001614479565b90505b600181111561305d576f181899199a1a9b1b9c1cb0b131b232b360811b85600f166010811061360c5761360c614665565b1a60f81b82828151811061362257613622614665565b60200101906001600160f81b031916908160001a90535060049490941c9361364981614a9e565b90506135db565b6001600160a01b0384163b156129a05760405163bc197c8160e01b81526001600160a01b0385169063bc197c81906136949089908990889088908890600401614c79565b6020604051808303816000875af19250505080156136cf575060408051601f3d908101601f191682019092526136cc91810190614b6f565b60015b6136db5761334f614b8c565b6001600160e01b0319811663bc197c8160e01b1461207f5760405162461bcd60e51b81526004016107bc90614c31565b5080546000825590600052602060002090810190611f5491905b808211156137395760008155600101613725565b5090565b80356001600160a01b03811681146109f457600080fd5b6000806040838503121561376757600080fd5b6137708361373d565b946020939093013593505050565b6001600160e01b031981168114611f5457600080fd5b6000602082840312156137a657600080fd5b81356114908161377e565b634e487b7160e01b600052604160045260246000fd5b606081018181106001600160401b03821117156137e6576137e66137b1565b60405250565b608081018181106001600160401b03821117156137e6576137e66137b1565b601f8201601f191681016001600160401b0381118282101715613830576138306137b1565b6040525050565b600082601f83011261384857600080fd5b81356001600160401b03811115613861576138616137b1565b604051613878601f8301601f19166020018261380b565b81815284602083860101111561388d57600080fd5b816020850160208301376000918101602001919091529392505050565b6000602082840312156138bc57600080fd5b81356001600160401b038111156138d257600080fd5b612f0984828501613837565b60005b838110156138f95781810151838201526020016138e1565b83811115610bff5750506000910152565b600081518084526139228160208601602086016138de565b601f01601f19169290920160200192915050565b602081526000611490602083018461390a565b60006020828403121561395b57600080fd5b5035919050565b6000806000806080858703121561397857600080fd5b6139818561373d565b9350602085013592506040850135915060608501356001600160401b038111156139aa57600080fd5b6139b687828801613837565b91505092959194509250565b6000806000606084860312156139d757600080fd5b6139e08461373d565b95602085013595506040909401359392505050565b803580151581146109f457600080fd5b600060a08284031215613a1757600080fd5b60405160a081016001600160401b038282108183111715613a3a57613a3a6137b1565b816040528293508435915080821115613a5257600080fd5b50613a5f85828601613837565b825250613a6e602084016139f5565b6020820152613a7f604084016139f5565b604082015260608301356060820152613a9a6080840161373d565b60808201525092915050565b60006001600160401b03821115613abf57613abf6137b1565b5060051b60200190565b600082601f830112613ada57600080fd5b81356020613ae782613aa6565b604051613af4828261380b565b83815260059390931b8501820192828101915086841115613b1457600080fd5b8286015b84811015613b3657613b298161373d565b8352918301918301613b18565b509695505050505050565b600082601f830112613b5257600080fd5b81356020613b5f82613aa6565b60408051613b6d838261380b565b84815260059490941b8601830193838101925087851115613b8d57600080fd5b8387015b85811015613c205780356001600160401b0380821115613bb15760008081fd5b908901906060828c03601f1901811315613bcb5760008081fd5b8551613bd6816137c7565b8884013581528684013583811115613bee5760008081fd5b613bfc8e8b83880101613ac9565b8a83015250613c0c8285016139f5565b818801528752505050928401928401613b91565b50979650505050505050565b600080600060608486031215613c4157600080fd5b83356001600160401b0380821115613c5857600080fd5b9085019060808288031215613c6c57600080fd5b604051613c78816137ec565b823582811115613c8757600080fd5b613c9389828601613837565b825250602083013582811115613ca857600080fd5b613cb489828601613837565b602083015250613cc66040840161373d565b6040820152613cd7606084016139f5565b606082015294506020860135915080821115613cf257600080fd5b613cfe87838801613a05565b93506040860135915080821115613d1457600080fd5b50613d2186828701613b41565b9150509250925092565b60008060408385031215613d3e57600080fd5b50508035926020909101359150565b600080600060608486031215613d6257600080fd5b83356001600160401b0380821115613d7957600080fd5b9085019060a08288031215613d8d57600080fd5b90935060208501359080821115613da357600080fd5b50613db086828701613b41565b925050613dbf604085016139f5565b90509250925092565b600082601f830112613dd957600080fd5b81356020613de682613aa6565b604051613df3828261380b565b83815260059390931b8501820192828101915086841115613e1357600080fd5b8286015b84811015613b365780358352918301918301613e17565b600080600080600060a08688031215613e4657600080fd5b613e4f8661373d565b9450613e5d6020870161373d565b935060408601356001600160401b0380821115613e7957600080fd5b613e8589838a01613dc8565b94506060880135915080821115613e9b57600080fd5b613ea789838a01613dc8565b93506080880135915080821115613ebd57600080fd5b50613eca88828901613837565b9150509295509295909350565b60008060408385031215613eea57600080fd5b82359150613efa6020840161373d565b90509250929050565b60008060408385031215613f1657600080fd5b82356001600160401b0380821115613f2d57600080fd5b613f3986838701613ac9565b93506020850135915080821115613f4f57600080fd5b50613f5c85828601613dc8565b9150509250929050565b600081518084526020808501945080840160005b83811015613f9657815187529582019590820190600101613f7a565b509495945050505050565b6020815260006114906020830184613f66565b600080600060608486031215613fc957600080fd5b83356001600160401b0380821115613fe057600080fd5b613fec87838801613ac9565b9450602086013591508082111561400257600080fd5b61400e87838801613dc8565b9350604086013591508082111561402457600080fd5b50613d2186828701613dc8565b6000806040838503121561404457600080fd5b82356001600160401b038082111561405b57600080fd5b613f3986838701613dc8565b6000806040838503121561407a57600080fd5b6140838361373d565b9150613efa602084016139f5565b6000806000606084860312156140a657600080fd5b8335925060208401356001600160401b038111156140c357600080fd5b613db086828701613837565b600080604083850312156140e257600080fd5b6140eb8361373d565b9150613efa6020840161373d565b600080600080600060a0868803121561411157600080fd5b61411a8661373d565b94506141286020870161373d565b9350604086013592506060860135915060808601356001600160401b0381111561415157600080fd5b613eca88828901613837565b60006020828403121561416f57600080fd5b6114908261373d565b6000806000806080858703121561418e57600080fd5b84356001600160401b03808211156141a557600080fd5b6141b188838901613ac9565b95506020915081870135818111156141c857600080fd5b6141d489828a01613dc8565b9550506040870135818111156141e957600080fd5b6141f589828a01613dc8565b94505060608701358181111561420a57600080fd5b8701601f8101891361421b57600080fd5b803561422681613aa6565b604051614233828261380b565b82815260059290921b830185019185810191508b83111561425357600080fd5b8584015b8381101561428b5780358681111561426f5760008081fd5b61427d8e8983890101613837565b845250918601918601614257565b50989b979a50959850505050505050565b600181811c908216806142b057607f821691505b6020821081036142d057634e487b7160e01b600052602260045260246000fd5b50919050565b600081546142e38161429c565b600182811680156142fb57600181146143105761433f565b60ff198416875282151583028701945061433f565b8560005260208060002060005b858110156143365781548a82015290840190820161431d565b50505082870194505b5050505092915050565b6000612f0961435883866142d6565b846142d6565b601f821115610ffc57600081815260208120601f850160051c810160208610156143855750805b601f850160051c820191505b818110156129a057828155600101614391565b81516001600160401b038111156143bd576143bd6137b1565b6143d1816143cb845461429c565b8461435e565b602080601f83116001811461440657600084156143ee5750858301515b600019600386901b1c1916600185901b1785556129a0565b600085815260208120601f198616915b8281101561443557888601518255948401946001909101908401614416565b50858210156144535787850151600019600388901b60f8161c191681555b5050505050600190811b01905550565b634e487b7160e01b600052601160045260246000fd5b6000821982111561448c5761448c614463565b500190565b60008160001904831182151516156144ab576144ab614463565b500290565b634e487b7160e01b600052601260045260246000fd5b6000826144d5576144d56144b0565b500490565b600061149082846142d6565b6000808335601e198436030181126144fd57600080fd5b8301803591506001600160401b0382111561451757600080fd5b602001915036819003821315610dfc57600080fd5b8183823760009101908152919050565b6001600160401b03831115614553576145536137b1565b61456783614561835461429c565b8361435e565b6000601f84116001811461459b57600085156145835750838201355b600019600387901b1c1916600186901b178355610fd0565b600083815260209020601f19861690835b828110156145cc57868501358255602094850194600190920191016145ac565b50868210156145e95760001960f88860031b161c19848701351681555b505060018560011b0183555050505050565b60006020828403121561460d57600080fd5b611490826139f5565b6020808252602f908201527f455243313135353a2063616c6c6572206973206e6f7420746f6b656e206f776e60408201526e195c881b9bdc88185c1c1c9bdd9959608a1b606082015260800190565b634e487b7160e01b600052603260045260246000fd5b60006001820161468d5761468d614463565b5060010190565b6000828210156146a6576146a6614463565b500390565b600082516146bd8184602087016138de565b9190910192915050565b60006020808352600084546146db8161429c565b808487015260406001808416600081146146fc576001811461471657614744565b60ff1985168984015283151560051b890183019550614744565b896000528660002060005b8581101561473c5781548b8201860152908301908801614721565b8a0184019650505b509398975050505050505050565b7f7b2273656c6c65725f6665655f62617369735f706f696e7473223a200000000081526000835161478a81601c8501602088016138de565b731610113332b2afb932b1b4b834b2b73a111d101160611b601c9184019182015283516147be8160308401602088016138de565b61227d60f01b60309290910191820152603201949350505050565b7f646174613a6170706c69636174696f6e2f6a736f6e3b6261736536342c00000081526000825161481181601d8501602087016138de565b91909101601d0192915050565b60208082526025908201527f455243313135353a207472616e7366657220746f20746865207a65726f206164604082015264647265737360d81b606082015260800190565b6020808252602a908201527f455243313135353a20696e73756666696369656e742062616c616e636520666f60408201526939103a3930b739b332b960b11b606082015260800190565b6020808252602b908201527f496e697469616c697a61626c653a20636f6e7472616374206973206e6f74206960408201526a6e697469616c697a696e6760a81b606082015260800190565b7f4772616e756c6172526f6c65733a20696e76616c696420726f6c65200000000081526000825161493081601c8501602087016138de565b91909101601c0192915050565b73023b930b73ab630b92937b632b99d103937b632960651b81526000825161496c8160148501602087016138de565b691034b990333937bd32b760b11b6014939091019283015250601e01919050565b60208082526028908201527f455243313135353a2069647320616e6420616d6f756e7473206c656e677468206040820152670dad2e6dac2e8c6d60c31b606082015260800190565b6040815260006149e86040830185613f66565b82810360208401526149fa8185613f66565b95945050505050565b60208082526023908201527f455243313135353a206275726e2066726f6d20746865207a65726f206164647260408201526265737360e81b606082015260800190565b60208082526024908201527f455243313135353a206275726e20616d6f756e7420657863656564732062616c604082015263616e636560e01b606082015260800190565b600082614a9957614a996144b0565b500690565b600081614aad57614aad614463565b506000190190565b7f416363657373436f6e74726f6c3a206163636f756e7420000000000000000000815260008351614aed8160178501602088016138de565b7001034b99036b4b9b9b4b733903937b6329607d1b6017918401918201528351614b1e8160288401602088016138de565b01602801949350505050565b6001600160a01b03868116825285166020820152604081018490526060810183905260a060808201819052600090614b649083018461390a565b979650505050505050565b600060208284031215614b8157600080fd5b81516114908161377e565b600060033d1115614ba55760046000803e5060005160e01c5b90565b600060443d1015614bb65790565b6040516003193d81016004833e81513d6001600160401b038160248401118184111715614be557505050505090565b8285019150815181811115614bfd5750505050505090565b843d8701016020828501011115614c175750505050505090565b614c266020828601018761380b565b509095945050505050565b60208082526028908201527f455243313135353a204552433131353552656365697665722072656a656374656040820152676420746f6b656e7360c01b606082015260800190565b6001600160a01b0386811682528516602082015260a060408201819052600090614ca590830186613f66565b8281036060840152614cb78186613f66565b90508281036080840152614ccb818561390a565b9897505050505050505056fe8502233096d909befbda0999bb8ea2f3a6be3c138b9fbf003752a4c8bce86f6c9b16859c0d694afa65b1b6551542db11ea12d6208b6a17dc922f10f2d74440f54142434445464748494a4b4c4d4e4f505152535455565758595a6162636465666768696a6b6c6d6e6f707172737475767778797a303132333435363738392b2f154c00819833dac601ee5ddded6fda79d9d8b506b911b3dbd54cdb95fe6c3686a49807205ce4d355092ef5a8a18f56e8913cf4a201fbe287825b095693c21775e97b137254058bd94f28d2f3eb79e2d34074ffb488d042e3bc958e0a57d2fa22a2646970667358221220401ac2bf7a7569ad2c3d3cd5cbbdbdb73b3172ed7a1c07f6f27aab1f863732f264736f6c634300080f0033",
  "devdoc": {
    "kind": "dev",
    "methods": {
      "balanceOf(address,uint256)": {
        "details": "See {IERC1155-balanceOf}. Requirements: - `account` cannot be the zero address."
      },
      "balanceOfBatch(address[],uint256[])": {
        "details": "See {IERC1155-balanceOfBatch}. Requirements: - `accounts` and `ids` must have the same length."
      },
      "contractURI()": {
        "details": "OpenSea contract metadata, returns a base64 encoded JSON string containing royalties basis points and royalties address"
      },
      "getRoleAdmin(bytes32)": {
        "details": "Returns the admin role that controls `role`. See {grantRole} and {revokeRole}. To change a role's admin, use {_setRoleAdmin}."
      },
      "grantRole(bytes32,address)": {
        "details": "Grants `role` to `account`. If `account` had not been already granted `role`, emits a {RoleGranted} event. Requirements: - the caller must have ``role``'s admin role. May emit a {RoleGranted} event."
      },
      "hasRole(bytes32,address)": {
        "details": "Returns `true` if `account` has been granted `role`."
      },
      "isApprovedForAll(address,address)": {
        "details": "See {IERC1155-isApprovedForAll}."
      },
      "renounceRole(bytes32,address)": {
        "details": "Revokes `role` from the calling account. Roles are often managed via {grantRole} and {revokeRole}: this function's purpose is to provide a mechanism for accounts to lose their privileges if they are compromised (such as when a trusted device is misplaced). If the calling account had been revoked `role`, emits a {RoleRevoked} event. Requirements: - the caller must be `account`. May emit a {RoleRevoked} event."
      },
      "revokeRole(bytes32,address)": {
        "details": "Revokes `role` from `account`. If `account` had been granted `role`, emits a {RoleRevoked} event. Requirements: - the caller must have ``role``'s admin role. May emit a {RoleRevoked} event."
      },
      "safeBatchTransferFrom(address,address,uint256[],uint256[],bytes)": {
        "details": "See {IERC1155-safeBatchTransferFrom}."
      },
      "safeTransferFrom(address,address,uint256,uint256,bytes)": {
        "details": "See {IERC1155-safeTransferFrom}."
      },
      "setApprovalForAll(address,bool)": {
        "details": "See {IERC1155-setApprovalForAll}."
      }
    },
    "version": 1
  },
  "userdoc": {
    "kind": "user",
    "methods": {},
    "version": 1
  },
  "storageLayout": {
    "storage": [
      {
        "astId": 419,
        "contract": "contracts/templates/ERC1155NFTProduct.sol:ERC1155NFTProduct",
        "label": "_initialized",
        "offset": 0,
        "slot": "0",
        "type": "t_uint8"
      },
      {
        "astId": 422,
        "contract": "contracts/templates/ERC1155NFTProduct.sol:ERC1155NFTProduct",
        "label": "_initializing",
        "offset": 1,
        "slot": "0",
        "type": "t_bool"
      },
      {
        "astId": 3527,
        "contract": "contracts/templates/ERC1155NFTProduct.sol:ERC1155NFTProduct",
        "label": "__gap",
        "offset": 0,
        "slot": "1",
        "type": "t_array(t_uint256)50_storage"
      },
      {
        "astId": 3797,
        "contract": "contracts/templates/ERC1155NFTProduct.sol:ERC1155NFTProduct",
        "label": "__gap",
        "offset": 0,
        "slot": "51",
        "type": "t_array(t_uint256)50_storage"
      },
      {
        "astId": 651,
        "contract": "contracts/templates/ERC1155NFTProduct.sol:ERC1155NFTProduct",
        "label": "_balances",
        "offset": 0,
        "slot": "101",
        "type": "t_mapping(t_uint256,t_mapping(t_address,t_uint256))"
      },
      {
        "astId": 657,
        "contract": "contracts/templates/ERC1155NFTProduct.sol:ERC1155NFTProduct",
        "label": "_operatorApprovals",
        "offset": 0,
        "slot": "102",
        "type": "t_mapping(t_address,t_mapping(t_address,t_bool))"
      },
      {
        "astId": 659,
        "contract": "contracts/templates/ERC1155NFTProduct.sol:ERC1155NFTProduct",
        "label": "_uri",
        "offset": 0,
        "slot": "103",
        "type": "t_string_storage"
      },
      {
        "astId": 1866,
        "contract": "contracts/templates/ERC1155NFTProduct.sol:ERC1155NFTProduct",
        "label": "__gap",
        "offset": 0,
        "slot": "104",
        "type": "t_array(t_uint256)47_storage"
      },
      {
        "astId": 39,
        "contract": "contracts/templates/ERC1155NFTProduct.sol:ERC1155NFTProduct",
        "label": "_roles",
        "offset": 0,
        "slot": "151",
        "type": "t_mapping(t_bytes32,t_struct(RoleData)34_storage)"
      },
      {
        "astId": 338,
        "contract": "contracts/templates/ERC1155NFTProduct.sol:ERC1155NFTProduct",
        "label": "__gap",
        "offset": 0,
        "slot": "152",
        "type": "t_array(t_uint256)49_storage"
      },
      {
        "astId": 6742,
        "contract": "contracts/templates/ERC1155NFTProduct.sol:ERC1155NFTProduct",
        "label": "_owner",
        "offset": 0,
        "slot": "201",
        "type": "t_address"
      },
      {
        "astId": 6744,
        "contract": "contracts/templates/ERC1155NFTProduct.sol:ERC1155NFTProduct",
        "label": "_nftPort",
        "offset": 0,
        "slot": "202",
        "type": "t_address"
      },
      {
        "astId": 6749,
        "contract": "contracts/templates/ERC1155NFTProduct.sol:ERC1155NFTProduct",
        "label": "_rolesAddressesIndexed",
        "offset": 0,
        "slot": "203",
        "type": "t_mapping(t_bytes32,t_array(t_address)dyn_storage)"
      },
      {
        "astId": 6753,
        "contract": "contracts/templates/ERC1155NFTProduct.sol:ERC1155NFTProduct",
        "label": "_rolesFrozen",
        "offset": 0,
        "slot": "204",
        "type": "t_mapping(t_bytes32,t_bool)"
      },
      {
        "astId": 577,
        "contract": "contracts/templates/ERC1155NFTProduct.sol:ERC1155NFTProduct",
        "label": "_status",
        "offset": 0,
        "slot": "205",
        "type": "t_uint256"
      },
      {
        "astId": 621,
        "contract": "contracts/templates/ERC1155NFTProduct.sol:ERC1155NFTProduct",
        "label": "__gap",
        "offset": 0,
        "slot": "206",
        "type": "t_array(t_uint256)49_storage"
      },
      {
        "astId": 7328,
        "contract": "contracts/templates/ERC1155NFTProduct.sol:ERC1155NFTProduct",
        "label": "metadataUpdatable",
        "offset": 0,
        "slot": "255",
        "type": "t_bool"
      },
      {
        "astId": 7330,
        "contract": "contracts/templates/ERC1155NFTProduct.sol:ERC1155NFTProduct",
        "label": "tokensBurnable",
        "offset": 1,
        "slot": "255",
        "type": "t_bool"
      },
      {
        "astId": 7332,
        "contract": "contracts/templates/ERC1155NFTProduct.sol:ERC1155NFTProduct",
        "label": "tokensTransferable",
        "offset": 2,
        "slot": "255",
        "type": "t_bool"
      },
      {
        "astId": 7334,
        "contract": "contracts/templates/ERC1155NFTProduct.sol:ERC1155NFTProduct",
        "label": "name",
        "offset": 0,
        "slot": "256",
        "type": "t_string_storage"
      },
      {
        "astId": 7336,
        "contract": "contracts/templates/ERC1155NFTProduct.sol:ERC1155NFTProduct",
        "label": "symbol",
        "offset": 0,
        "slot": "257",
        "type": "t_string_storage"
      },
      {
        "astId": 7338,
        "contract": "contracts/templates/ERC1155NFTProduct.sol:ERC1155NFTProduct",
        "label": "baseURI",
        "offset": 0,
        "slot": "258",
        "type": "t_string_storage"
      },
      {
        "astId": 7340,
        "contract": "contracts/templates/ERC1155NFTProduct.sol:ERC1155NFTProduct",
        "label": "royaltiesAddress",
        "offset": 0,
        "slot": "259",
        "type": "t_address"
      },
      {
        "astId": 7342,
        "contract": "contracts/templates/ERC1155NFTProduct.sol:ERC1155NFTProduct",
        "label": "royaltiesBasisPoints",
        "offset": 0,
        "slot": "260",
        "type": "t_uint256"
      },
      {
        "astId": 7346,
        "contract": "contracts/templates/ERC1155NFTProduct.sol:ERC1155NFTProduct",
        "label": "freezeTokenUris",
        "offset": 0,
        "slot": "261",
        "type": "t_mapping(t_uint256,t_bool)"
      },
      {
        "astId": 7350,
        "contract": "contracts/templates/ERC1155NFTProduct.sol:ERC1155NFTProduct",
        "label": "tokenSupply",
        "offset": 0,
        "slot": "262",
        "type": "t_mapping(t_uint256,t_uint256)"
      },
      {
        "astId": 8151,
        "contract": "contracts/templates/ERC1155NFTProduct.sol:ERC1155NFTProduct",
        "label": "_tokenURIs",
        "offset": 0,
        "slot": "263",
        "type": "t_mapping(t_uint256,t_string_storage)"
      }
    ],
    "types": {
      "t_address": {
        "encoding": "inplace",
        "label": "address",
        "numberOfBytes": "20"
      },
      "t_array(t_address)dyn_storage": {
        "base": "t_address",
        "encoding": "dynamic_array",
        "label": "address[]",
        "numberOfBytes": "32"
      },
      "t_array(t_uint256)47_storage": {
        "base": "t_uint256",
        "encoding": "inplace",
        "label": "uint256[47]",
        "numberOfBytes": "1504"
      },
      "t_array(t_uint256)49_storage": {
        "base": "t_uint256",
        "encoding": "inplace",
        "label": "uint256[49]",
        "numberOfBytes": "1568"
      },
      "t_array(t_uint256)50_storage": {
        "base": "t_uint256",
        "encoding": "inplace",
        "label": "uint256[50]",
        "numberOfBytes": "1600"
      },
      "t_bool": {
        "encoding": "inplace",
        "label": "bool",
        "numberOfBytes": "1"
      },
      "t_bytes32": {
        "encoding": "inplace",
        "label": "bytes32",
        "numberOfBytes": "32"
      },
      "t_mapping(t_address,t_bool)": {
        "encoding": "mapping",
        "key": "t_address",
        "label": "mapping(address => bool)",
        "numberOfBytes": "32",
        "value": "t_bool"
      },
      "t_mapping(t_address,t_mapping(t_address,t_bool))": {
        "encoding": "mapping",
        "key": "t_address",
        "label": "mapping(address => mapping(address => bool))",
        "numberOfBytes": "32",
        "value": "t_mapping(t_address,t_bool)"
      },
      "t_mapping(t_address,t_uint256)": {
        "encoding": "mapping",
        "key": "t_address",
        "label": "mapping(address => uint256)",
        "numberOfBytes": "32",
        "value": "t_uint256"
      },
      "t_mapping(t_bytes32,t_array(t_address)dyn_storage)": {
        "encoding": "mapping",
        "key": "t_bytes32",
        "label": "mapping(bytes32 => address[])",
        "numberOfBytes": "32",
        "value": "t_array(t_address)dyn_storage"
      },
      "t_mapping(t_bytes32,t_bool)": {
        "encoding": "mapping",
        "key": "t_bytes32",
        "label": "mapping(bytes32 => bool)",
        "numberOfBytes": "32",
        "value": "t_bool"
      },
      "t_mapping(t_bytes32,t_struct(RoleData)34_storage)": {
        "encoding": "mapping",
        "key": "t_bytes32",
        "label": "mapping(bytes32 => struct AccessControlUpgradeable.RoleData)",
        "numberOfBytes": "32",
        "value": "t_struct(RoleData)34_storage"
      },
      "t_mapping(t_uint256,t_bool)": {
        "encoding": "mapping",
        "key": "t_uint256",
        "label": "mapping(uint256 => bool)",
        "numberOfBytes": "32",
        "value": "t_bool"
      },
      "t_mapping(t_uint256,t_mapping(t_address,t_uint256))": {
        "encoding": "mapping",
        "key": "t_uint256",
        "label": "mapping(uint256 => mapping(address => uint256))",
        "numberOfBytes": "32",
        "value": "t_mapping(t_address,t_uint256)"
      },
      "t_mapping(t_uint256,t_string_storage)": {
        "encoding": "mapping",
        "key": "t_uint256",
        "label": "mapping(uint256 => string)",
        "numberOfBytes": "32",
        "value": "t_string_storage"
      },
      "t_mapping(t_uint256,t_uint256)": {
        "encoding": "mapping",
        "key": "t_uint256",
        "label": "mapping(uint256 => uint256)",
        "numberOfBytes": "32",
        "value": "t_uint256"
      },
      "t_string_storage": {
        "encoding": "bytes",
        "label": "string",
        "numberOfBytes": "32"
      },
      "t_struct(RoleData)34_storage": {
        "encoding": "inplace",
        "label": "struct AccessControlUpgradeable.RoleData",
        "members": [
          {
            "astId": 31,
            "contract": "contracts/templates/ERC1155NFTProduct.sol:ERC1155NFTProduct",
            "label": "members",
            "offset": 0,
            "slot": "0",
            "type": "t_mapping(t_address,t_bool)"
          },
          {
            "astId": 33,
            "contract": "contracts/templates/ERC1155NFTProduct.sol:ERC1155NFTProduct",
            "label": "adminRole",
            "offset": 0,
            "slot": "1",
            "type": "t_bytes32"
          }
        ],
        "numberOfBytes": "64"
      },
      "t_uint256": {
        "encoding": "inplace",
        "label": "uint256",
        "numberOfBytes": "32"
      },
      "t_uint8": {
        "encoding": "inplace",
        "label": "uint8",
        "numberOfBytes": "1"
      }
    }
  }
}